:100000000C949B010C94C3010C94C3010C94DA1959
:100010000C94DA190C94DA190C94C3010C94C301F2
:100020000C94C3010C94C3010C94C3010C94C30140
:100030000C94C3010C94C3010C94C3010C94C30130
:100040000C940E1F0C94C3010C94C3010C94C301B7
:100050000C94C3010C94C3010C94C3010C94C30110
:100060000C94C3010C94C301350A4F0A750AA00A07
:10007000C60AEC0A120B380B5E0B800BA20BC80BE6
:10008000040D040DCB0BEB0B0B0C2D0C530C790C4E
:100090009F0CC10CE20C350D5B0D8B0DBD0DED0DF4
:1000A000230E610E970ECD0E030F390F6F0FA50FA4
:1000B000E80F7200726E723A00626D673A00627009
:1000C000663A0062706E3A00626B643A00626B6975
:1000D0003A00626B703A006261743A006269743A85
:1000E000006274643A006273743A006262633A00B8
:1000F0006268613A00626F6E3A00626E723A003175
:1001000000300030003100736C733A00736E723A45
:10011000007370773A0073626C3A007373753A003B
:100120007373613A007373703A007373723A0073B9
:1001300073743A007370643A007370743A007370A9
:10014000733A007376773A0073726F3A0073746F84
:100150003A00736B743A0073727A3A00736B6D3ABB
:100160000073747A3A007370693A002000204B00E3
:10017000205700204F002044002042003000310072
:100180002048003000310020430020530020470069
:10019000204900204E00410054003A006D61006D7E
:1001A00064000000000800020100000304070000D2
:1001B000000000000000010204081020408001023D
:1001C000040810200102040810200404040404049C
:1001D00004040202020202020303030303030000F9
:1001E0000000230026002900000000002500280050
:1001F0002B0000000000240027002A004E414E4939
:100200004E495459494E46CDCCCC3D0AD7233C17D4
:10021000B7D13877CC2B329595E6241FB14F0A0021
:100220000020410000C84200401C4620BCBE4CCA11
:100230001B0E5AAEC59D7400407A10F35A00A0728E
:100240004E18090010A5D4E80000E8764817000011
:10025000E40B54020000CA9A3B000000E1F50500DF
:100260000080969800000040420F000000A0860128
:10027000000000102700000000E8030000000064F8
:1002800000000000000A0000000000010000000063
:10029000002C76D888DC674F0823DFC1DFAE59E138
:1002A000B1B796E5E3E453C63AE651997696E8E6A7
:1002B000C28426EB898C9B62ED407C6FFCEFBC9C7A
:1002C0009F40F2BAA56FA5F490055A2AF75C936B8C
:1002D0006CF9676DC11BFCE0E40D47FEF520E6B547
:1002E00000D0ED902E0300943577050080841E0821
:1002F0000000204E0A000000C80C333333330F983F
:100300006E12831141EF8D2114893BE65516CFFE05
:10031000E6DB18D1844B381BF77C1D901DA4BBE491
:1003200024203284725E228100C9F124ECA1E53DD3
:1003300027006A17D81811241FBECFEFD8E0DEBF00
:10034000CDBF11E0A0E0B1E0E8ECF7E502C0059018
:100350000D92AE37B107D9F726E0AEE7B1E001C0A4
:100360001D92A032B207E1F711E0CAE9D1E004C062
:100370002197FE010E946524C939D107C9F70E945F
:100380003B210C94D72B0C940000FC01848181113B
:1003900005C08381811102C081E0848381E0838371
:1003A0000895FC018481811105C08381882311F0A7
:1003B00081E0848313820895FC0184810895FC0107
:1003C00083810895FC0185810895FC01878117824E
:1003D0000895FC018681089560E0FC0182810C94FF
:1003E000A520CF93DF93EC010E94D10160E08A81C8
:1003F000DF91CF910C94E120CF93DF93EC010E9429
:10040000C50161E08A81DF91CF910C94E1200F93C7
:100410001F93CF93DF93EC01488D598D6A8D7B8DAF
:100420004C960E94D81A64EF71E080E090E00E9440
:10043000891F8E010E5F1F4FEBADFCAD83AD8F9317
:1004400082AD8F9381E091E09F938F931F930F93E1
:100450000E940225E881F9810280F381E02DB80134
:10046000CE0109950F900F900F900F900F900F9065
:1004700068EE73E080E090E0DF91CF911F910F91E3
:100480000C94891F4C960C94AE21AF92BF92CF92E0
:10049000DF92EF92FF920F931F93CF93DF93EC01C4
:1004A0001E821F825C0188E0A80EB11CEA81FB81DC
:1004B00064A175A1C5010E94391D4C815D812A810D
:1004C0003B8167E2649FC001659F900D1124820FFC
:1004D000931FFC01E859FF4FC080D180E280F38078
:1004E0003497008111812281338134974081518179
:1004F00062817381C5010E94861CEA81FB8162A131
:1005000073A180E090E00E94EC228B019C0140E00E
:1005100050E0BA01C5010E94871D61E070E0C5018D
:100520000E944D1E0E94581FC35BDF4F6883798372
:100530008A839B83DF91CF911F910F91FF90EF9062
:10054000DF90CF90BF90AF9008954C960C948A2185
:100550004C960C94C6214C960C94B4214F925F9209
:100560006F927F928F929F92AF92BF92CF92DF92C3
:10057000EF92FF920F931F93CF93DF93EC015C01F7
:1005800021E4A20EB11CF501408351836283738381
:100590006C01F9E4CF0ED11CEA81FB812C813D81F5
:1005A00047E2429FC001439F900D1124E80FF91FBD
:1005B000E05BFF4F80819181A281B381F60180834E
:1005C0009183A283B3830E94581F8E01035B1F4F48
:1005D000F80140805180628073809B01AC01241936
:1005E00035094609570929013A01EA80FB80F501DE
:1005F0002081318142815381F60160817181828144
:1006000093810E94D921F70126A137A140A551A5C8
:100610000E9446229E012B5B3F4F690187FF05C068
:10062000CE0108960E94661B0CC0F70162A173A15F
:1006300080E090E00E94EC22F60160837183828367
:100640009383EA81FB8162A173A180E090E00E9424
:10065000EC224B015C01C301B2010E94EC22A50116
:1006600094010E949E231816ACF4F80160817181F8
:10067000828193810E94EC22A50194010E94DA21DB
:100680000E94BD22F8016083718382839383412C91
:10069000512C3201C301B2010E94EC229B01AC013A
:1006A000F60160817181828193810E949E239E81E7
:1006B00087FD07C0911102C081E08F8381E08E83A6
:1006C00005C0992311F081E08F831E828E81DF9116
:1006D000CF911F910F91FF90EF90DF90CF90BF903F
:1006E000AF909F908F907F906F905F904F90089504
:1006F000EF92FF920F931F93CF93DF938901040F23
:10070000151FE9017B01E21AF30AC017D10749F06E
:10071000F999FECFC7018C0F9D1F0E948A2B8993E8
:10072000F4CFDF91CF911F910F91FF90EF9008953B
:10073000EF92FF920F931F93CF93DF93F999FECF20
:100740008901040F151FE9017B01E21AF30AC017A2
:10075000D10749F0F999FECFC7018C0F9D1F699110
:100760000E94922BF4CFDF91CF911F910F91FF90B8
:10077000EF900895EF92FF920F931F93CF93DF9323
:100780007C0105E010E0C0E0D0E0F70180810E942C
:100790000020C80FD91F6AE070E080E090E00E945E
:1007A000891F0150110989F7CE0165E070E00E94B0
:1007B0001024CB01DF91CF911F910F91FF90EF900B
:1007C0000895CF93DF93EC0102960E94BA03BC0117
:1007D000990F880B990B0E94EE222AA93BA94CA9DC
:1007E0005DA90E94A3232EA93FA948AD59AD0E943F
:1007F000DA212EA53FA548A959A90E94DA2120E0B7
:1008000030E040E05FE30E94A3236EA77FA788ABA0
:1008100099AB0B80DC81C02D2E813F8148855985A5
:100820000E94A3232A853B854C855D850E94DA21A1
:10083000DF91CF910895EF92FF920F931F93CF9383
:10084000DF938C017C0186E4E80EF11CD7018D91C9
:100850009C91DC01ED91FC910280F381E02D9801E7
:100860004FE350E060E070E00995CFE3D0E0F7019E
:1008700080819181DC01ED91FC919E01225F3F4FCF
:10088000200F311F0280F381E02D47E250E0BE01CE
:100890000995A796CF3AB2E0DB0749F7DF91CF91F0
:1008A0001F910F91FF90EF9008959C01FC01EA5B6E
:1008B000FF4F80819181DC01ED91FC91215C3F4FE4
:1008C0000280F381E02D47E050E06FEA72E0099486
:1008D000CF93DF93EC018FE3DE011D928A95E9F758
:1008E000FE01E35BFF4FCE0183549D4F27E2DF0102
:1008F000322F1D923A95E9F7B796E817F907B9F73D
:10090000FE01FF9687E0DF011D928A95E9F7CE018F
:100910000E941B04CE01DF91CF910C945504FC0181
:10092000108211821282138214861586168617860B
:10093000108A118A128A0895CF93DF93EC011E82E8
:100940001F8208960E948F04CE014B96DF91CF91B3
:100950000C948F04CF93DF93FC012089211109C0EF
:10096000EC010E94581F688379838A839B8381E00E
:10097000888BDF91CF9108950F931F93CF93DF93CF
:10098000FC012289222311F080E01FC0EC010E94AB
:10099000581F088119812A813B81DC01CB01801B12
:1009A000910BA20BB30B88879987AA87BB870C8111
:1009B0001D812E813F8180179107A207B30720F385
:1009C000088719872A873B8781E0DF91CF911F91A4
:1009D0000F9108952F923F924F925F926F927F9264
:1009E0008F929F92AF92BF92CF92DF92EF92FF923F
:1009F0000F931F93CF93DF9300D000D0CDB7DEB716
:100A00009C838B834A015B0168017901DC011696A6
:100A10008C91169714962D903C9015971296ED9107
:100A2000FC911397FA83E9838823C9F187E2829DB9
:100A30008001839D100D11240E0F1F1FF801E05B34
:100A4000FF4FD801A45ABF4F2D913D914D915C911C
:100A500060817181828193810E94DA212B013C01A6
:100A6000F801E05AFF4F2081318142815381C70153
:100A7000B6010E94A3239B01AC01C301B2010E94F5
:100A8000D9219B01AC0111E0C501B4010E949E2354
:100A900018160CF010E081E0912E982637C087E2FE
:100AA000829D8001839D100D112429813A81020FBE
:100AB000131FF801E05BFF4FD801A85ABF4F2D91DB
:100AC0003D914D915C9160817181828193810E9401
:100AD000DA212B013C01F801E05AFF4F20813181DE
:100AE00042815381C701B6010E94A3239B01AC013F
:100AF000C301B2010E94D9219B01AC01C501B4011F
:100B00000E944622982E991C9924991C27E2229D26
:100B1000C001239D900D1124A981BA818A0F9B1FCA
:100B2000FC01E459FF4F208131812115310511F17C
:100B3000329680819181892BE9F00B811C81085FBD
:100B40001F4F992009F4B2C0EB81FC81818D88236D
:100B500009F45BC084899589A689B78984879587BC
:100B6000A687B787C8010E94AA04C8010E94BC04D6
:100B7000811159C0EB81FC81A480B5800281138171
:100B800087E28A9DF0018B9DF00D1124E00FF11F8B
:100B9000E059FF4F408051806280738020E030E058
:100BA000A901C301B2010E949E23181644F4A701B3
:100BB0009601C301B2010E94462287FD912C27E2D3
:100BC0002A9DC0012B9D900D1124080F191FD801DB
:100BD000A45ABF4FF801E85AFF4F2081318142816A
:100BE00053816D917D918D919C910E94462287FD4C
:100BF00067C0AB81BC8116968C911697891509F454
:100C000062C081E017968C935EC048EE53E0249F4B
:100C1000C001259F900D349F900D1124A0E0B0E0FD
:100C2000EB81FC819BCFAB81BC811296ED91FC9155
:100C3000139714962D913C91159747E2429FC0015E
:100C4000439F900D1124E80FF91FE259FF4F2081B7
:100C500031815D01BBE1AB0EB11CEB81FC8184A550
:100C6000882349F087A190A5A1A5B2A5878F90A35D
:100C7000A1A3B2A313C088EE93E0289FA001299FEF
:100C8000500D389F500D112460E070E0AB81BC81A5
:100C90005F964D935D936D937C939297C5010E94EF
:100CA000AA04C5010E94BC04882341F0C8010E9427
:100CB0008F048B819C814B960E948F04912C5ACF7C
:100CC00081E0982696CFEB81FC819682892D0F904A
:100CD0000F900F900F90DF91CF911F910F91FF9088
:100CE000EF90DF90CF90BF90AF909F908F907F90CC
:100CF0006F905F904F903F902F900895CF93DF9328
:100D0000EC01E881F9810284F385E02D099518163C
:100D1000190654F58D30910561F024F48A3091055F
:100D200091F422C084319105F9F08F3F910559F477
:100D30001BC08E899F891F8A1E8A18161906A4F463
:100D4000CE01029613C02E893F892331310560F40C
:100D5000A9014F5F5F4F5F8B4E8BFE01E20FF31FC8
:100D60008283C40FD51F1A8280E090E0DF91CF917B
:100D70000895CF93DF93EC01FC01E95BFF4F1082F4
:100D800031961082319610828C859D85DC01ED9123
:100D9000FC910280F381E02D0995EC81FD8160E0FA
:100DA00070E080810E941D20FE01E55BFF4F1182F3
:100DB0001082CE010E960E948F048A859B85DC01ED
:100DC000ED91FC910190F081E02D0995FE01E35B2E
:100DD000FF4F60837183828393832A853B85F9016A
:100DE0003696225D3F4F6193719381939193E21701
:100DF000F307C9F7DF91CF9108950F931F93CF9316
:100E0000DF93EC018B010E94B906FE01E55BFF4F09
:100E1000118300838E819F81DC0115961C930E93B4
:100E2000149720813181E885F98535832483ED91FC
:100E3000FC910280F381E02D099588859985DC017C
:100E4000ED91FC910280F381E02DDF91CF911F9114
:100E50000F9109944F925F926F927F92AF92BF92DF
:100E6000CF92DF92EF92FF920F931F93CF93DF9376
:100E7000DC0190962C91211186C1EC017C01B1E23C
:100E8000EB0EF11CC7010E94AA04C7010E94BC041A
:100E90008E01035B1F4F882309F456C0C7010E94CF
:100EA0008F048A859B85DC01ED91FC910190F08196
:100EB000E02D0995F8016083718382839383AA856D
:100EC000BB85FD0136969D01265D3F4FC480D580D0
:100ED000E680F780C192D192E192F192E217F30796
:100EE000A9F79A966D937D938D939C939D97EA8035
:100EF000FB80D7018C910E940020BC01990F880BC8
:100F0000990B0E94EE222AE038E240E25CE30E9464
:100F1000A323D7011196ED91FC91129726A937A929
:100F200040AD51AD0E944622881F8827881FFE01D0
:100F3000E65BFF4F8083882339F0EC81FD8164EB11
:100F400070E080810E941D206E01B4E3CB0ED11CA5
:100F5000C6010E94AA048E819F81DC01ED91FC9163
:100F60000480F581E02D0995FE01E75BFF4F7F01CD
:100F7000811110C088859985DC01ED91FC91048078
:100F8000F581E02D0995811105C0C6010E94BC04C0
:100F90008823B9F0C6010E948F04F70120818C8557
:100FA0009D85222309F4D1C0FE01E65BFF4F20811D
:100FB0002111CBC0DC01ED91FC910190F081E02D7D
:100FC0000995F8014080518062807380E881F98141
:100FD0008481882371F08E819F81DC01ED91FC91E9
:100FE0000190F081E02D00E010E09801B301A20132
:100FF0001FC0C884D984EA85FB85D601AD90BC901A
:10100000268137814085518562A573A584A595A564
:101010000E94D92120E030E040E850E40E94A32360
:101020008B019C01D501ED91FC91B301A201C60198
:101030000995F70180837E01F8E4EF0EF11CD701DA
:101040008C9181113DC0E885F985448155812281CB
:10105000338117E2149FC001159F900D1124820F58
:10106000931FDC01A45ABF4FFC01E85AFF4F2081B7
:101070003181428153816D917D918D919C910E942E
:101080004622E881F981DE01A55BBF4F87FD64C080
:101090002D913C91129FC001139F900D1124E80FD8
:1010A000F91FE05BFF4F2081318142815381C301F1
:1010B000B2010E949E2387FD03C081E0F701808377
:1010C000D7018C91882309F45EC0E881F981DE01A3
:1010D000A55BBF4F2D913C9147E2429FC001439FCA
:1010E000900D1124E80FF91FEC5AFF4F2081318138
:1010F000428153818E01025F1F4F8F8D882349F0FB
:101100008A8D9B8DAC8DBD8D8A8B9B8BAC8BBD8B63
:1011100008C0A0E6BAEE0E946B246A8B7B8B8C8B96
:101120009D8BC8010E94AA04C801DF91CF911F9135
:101130000F91FF90EF90DF90CF90BF90AF907F9096
:101140006F905F904F900C94BC04DC01ED91FC918A
:101150000280F381E02D34CF2D913C91129FC0018C
:10116000139F900D1124E80FF91FE05BFF4F2081C2
:10117000318142815381C301B2010E944622181677
:101180000CF09BCF9DCF80E0DF91CF911F910F910D
:10119000FF90EF90DF90CF90BF90AF907F906F90D7
:1011A0005F904F9008950F931F93CF93DF93EC01BF
:1011B0008A018EA181111DC081E08EA38881998151
:1011C000DC01ED91FC910680F781E02D0995F80195
:1011D000208188819981DC01ED91FC910084F18569
:1011E000E02D222319F065E071E002C063E071E0B8
:1011F000099588819981DC01ED91FC910284F38548
:10120000E02D09959C01C0970297F8F41EA28881F1
:1012100099812033310559F4F8011082DC01ED91F8
:10122000FC910084F185E02D61E071E00BC021E0CC
:10123000F8012083DC01ED91FC910084F185E02D23
:101240006FEF70E0099581E008C027373105D9F3C9
:101250002136310509F41EA280E0DF91CF911F9164
:101260000F910895AF92BF92CF92DF92EF92FF92CB
:101270000F931F93CF93DF93EC015B016A018EA163
:10128000811126C0DA016D917D918D919C910E9412
:10129000EE227E01BAE2EB0EF11C870120E041E074
:1012A0000E94992481E08EA388819981DC01ED91CF
:1012B000FC910680F781E02DB5010995888199811F
:1012C000DC01ED91FC910480F581E02DB7010995D9
:1012D000888199810E947E068C01009711F16CE053
:1012E00071E00E94E424892BF1F06EE071E0C80106
:1012F0000E94E424892B11F41EA213C0C8010E948D
:10130000BD24F601608371838283938388819981F0
:10131000DC01ED91FC910480F581E02DB801099587
:1013200002C080E001C081E0DF91CF911F910F9159
:10133000FF90EF90DF90CF90BF90AF900895AF9265
:10134000BF92CF92DF92EF92FF920F931F93CF93B2
:10135000DF93EC015B016A018EA1811124C0DA01E7
:101360006D917D918D919C917E01BAE2EB0EF11C05
:10137000870122E041E00E94992481E08EA38881C8
:101380009981DC01ED91FC910680F781E02DB5019A
:10139000099588819981DC01ED91FC910480F581AA
:1013A000E02DB7010995888199810E947E068C0104
:1013B000009711F16CE071E00E94E424892BF1F0B8
:1013C0006EE071E0C8010E94E424892B11F41EA292
:1013D00013C0C8010E94B924F6016083718382831F
:1013E000938388819981DC01ED91FC910480F581E2
:1013F000E02DB801099502C080E001C081E0DF91D5
:10140000CF911F910F91FF90EF90DF90CF90BF9001
:10141000AF900895CF93DF93EC018A819B810E9466
:10142000680488819981DC01ED91FC910084F1854B
:10143000E02D62EB70E0DF91CF9109940F931F9341
:10144000CF93DF9300D000D0CDB7DEB78C01DC01A5
:101450009096EC918E2F90E08731910508F0D4C2E0
:10146000FC01EC5CFF4F0C946524D8011296ED91C1
:10147000FC91139784818983AE014F5F5F4F66E6CD
:1014800071E0C8010E94D308882309F4C8C2D801BA
:101490001296ED91FC91139789818483ABC2D80198
:1014A0001296ED91FC91139786859785A089B18955
:1014B00089839A83AB83BC83AE014F5F5F4F61E644
:1014C00071E0C8010E949F09882309F4A8C2D801CD
:1014D0001296ED91FC91139789819A81AB81BC8121
:1014E00086879787A08BB18B25C0D8011296ED9186
:1014F000FC91139786819781A085B18589839A8312
:10150000AB83BC83AE014F5F5F4F6CE571E0C801F8
:101510000E949F09882309F482C2D8011296ED9196
:10152000FC91139789819A81AB81BC8186839783D3
:10153000A087B187F80116A280A18F5F80A36FC238
:10154000D8011296ED91FC91139782899389A48911
:10155000B58989839A83AB83BC83AE014F5F5F4FAC
:1015600067E571E0C8010E949F09882309F457C20A
:10157000D8011296ED91FC91139789819A81AB81E4
:10158000BC81828B938BA48BB58BD4CFD801129660
:10159000ED91FC91139782859385A485B585898308
:1015A0009A83AB83BC83AE014F5F5F4F62E571E00E
:1015B000C8010E949F09882309F431C2D8011296FC
:1015C000ED91FC91139789819A81AB81BC818287CF
:1015D0009387A487B587AECFD8011296ED91FC9181
:1015E000139786899789A08DB18D89839A83AB8360
:1015F000BC83AE014F5F5F4F6DE471E0C8010E9494
:101600009F09882309F40BC2D8011296ED91FC9131
:10161000139789819A81AB81BC81868B978BA08F30
:10162000B18F88CFD8011296ED91FC911397828DDE
:10163000938DA48DB58D89839A83AB83BC83AE01D2
:101640004F5F5F4F68E471E0C8010E949F098823E3
:1016500009F4E5C1D8011296ED91FC9113978981A7
:101660009A81AB81BC81828F938FA48FB58F62CF1B
:10167000D8011296ED91FC911397868D978DA0A1BC
:10168000B1A189839A83AB83BC83AE014F5F5F4F67
:1016900063E471E0C8010E943209882309F4BFC1E4
:1016A000D8011296ED91FC91139789819A81AB81B3
:1016B000BC81868F978FA0A3B1A33CCFD80112968F
:1016C000ED91FC91139782A193A1A0E0B0E08983F2
:1016D0009A83AB83BC83AE014F5F5F4F6EE371E0D3
:1016E000C8010E943209882309F499C1D8011296D1
:1016F000ED91FC91139789819A8193A382A37AC17A
:10170000D8011296ED91FC91139784A195A1A0E0C8
:10171000B0E089839A83AB83BC83AE014F5F5F4F98
:1017200069E371E0C8010E943209882309F477C196
:10173000D8011296ED91FC91139789819A8195A316
:1017400084A358C1D8011296ED91FC91139786A1FC
:1017500097A1A0A5B1A589839A83AB83BC83AE0171
:101760004F5F5F4F64E371E0C8010E949F098823C7
:1017700009F455C1D8011296ED91FC911397898116
:101780009A81AB81BC8186A397A3A0A7B1A7D2CE33
:101790008EE0D80136C1D8011296ED91FC911397D5
:1017A00082A590E0A0E0B0E089839A83AB83BC83FC
:1017B000AE014F5F5F4F6FE271E0C8010E943209D6
:1017C000882309F42CC1D8011296ED91FC9113974E
:1017D000898182A70FC1D8011296ED91FC911397D0
:1017E00083A590E0A0E0B0E089839A83AB83BC83BB
:1017F000AE014F5F5F4F6AE271E0C8010E9432099B
:10180000882309F40CC1D8011296ED91FC9113972D
:10181000898183A7EFC0D8011296ED91FC911397AF
:1018200084A595A5A0E0B0E089839A83AB83BC83AF
:10183000AE014F5F5F4F65E271E0C8010E9432095F
:10184000882309F4ECC0D8011296ED91FC9113970E
:1018500089819A8195A784A7CDC0D8011296ED9170
:10186000FC91139786A597A5A0A9B1A989839A830E
:10187000AB83BC83AE014F5F5F4F60E271E0C80194
:101880000E943209882309F4CAC0D8011296ED914A
:10189000FC91139789819A81AB81BC8186A797A718
:1018A000A0ABB1AB47CED8011296ED91FC91139746
:1018B00082A993A9A4A9B5A989839A83AB83BC8380
:1018C000AE014F5F5F4F6BE171E0C8010E943209CA
:1018D000882309F4A4C0D8011296ED91FC911397C6
:1018E00089819A81AB81BC8182AB93ABA4ABB5AB50
:1018F00021CED8011296ED91FC91139786A997A954
:10190000A0ADB1AD89839A83AB83BC83AE014F5F39
:101910005F4F66E171E0C8010E949F09882309F4C6
:101920007EC0D8011296ED91FC91139789819A811E
:10193000AB81BC8186AB97ABA0AFB1AFFBCDD8017B
:101940001296ED91FC91139782AD93ADA0E0B0E0BB
:1019500089839A83AB83BC83AE014F5F5F4F61E1A4
:1019600071E0C8010E943209882309F458C0D801E7
:101970001296ED91FC91139789819A8193AF82AF72
:1019800039C0D8011296ED91FC91139784AD95ADB5
:10199000A0E0B0E089839A83AB83BC83AE014F5F44
:1019A0005F4F6CE071E0C8010E9432098823B9F1F1
:1019B000D8011296ED91FC91139789819A8195AF88
:1019C00084AF18C0D8011296ED91FC91139786ADA3
:1019D0008983AE014F5F5F4F67E071E0C8010E94ED
:1019E000D3088823E1F0D8011296ED91FC9113976A
:1019F000898186AF96961C92969790968C91909737
:101A00008F5F90968C930BC0F801828193810E9426
:101A10001B04D8015F961C925F9790961C920F90C2
:101A20000F900F900F90DF91CF911F910F9108951C
:101A3000FF920F931F93CF93DF9300D000D0CDB7C9
:101A4000DEB78C01DC019196EC918E2F90E08E3008
:101A5000910508F0FFC2FC01E55BFF4FD8019496A9
:101A60008D919C9195970C946524092E000CAA0BDE
:101A7000BB0B89839A83AB83BC83AE014F5F5F4FFF
:101A80006AEF70E0C8010E943209882309F4ECC2B1
:101A900089819A81AB81BC8180319105A105B10515
:101AA00034F4F80195A384A381A18F5F81A3D801A9
:101AB00096961C92D9C2D8011296ED91FC9113977B
:101AC00067E2F62EF89E9001F99E300D1124E20F88
:101AD000F31FE15BFF4F80818983AE014F5F5F4F52
:101AE00065EF70E0C8010E94D308882309F4BCC2E6
:101AF000D8011296ED91FC91139794962D913C91FB
:101B00009597F29EC001F39E900D1124E80FF91FE6
:101B1000E15BFF4F2FC0D8011296ED91FC91139716
:101B200057E2F52EF89E9001F99E300D1124E20F38
:101B3000F31FE25BFF4F80818983AE014F5F5F4FF0
:101B400060EF70E0C8010E94D308882309F48CC2BA
:101B5000D8011296ED91FC91139794962D913C919A
:101B60009597F29EC001F39E900D1124E80FF91F86
:101B7000E25BFF4F8981808321C2D8011296ED91EB
:101B8000FC91139747E2F42EF89E9001F99E300DD8
:101B90001124E20FF31FE35BFF4F80818983AE01C5
:101BA0004F5F5F4F6BEE70E0C8010E94D30888233F
:101BB00009F45AC2D8011296ED91FC9113979496AC
:101BC0002D913C919597F29EC001F39E900D1124AA
:101BD000E80FF91FE35BFF4FCDCFD8011296ED91CF
:101BE000FC91139737E2F32EF89E9001F99E300D89
:101BF0001124E20FF31FE05BFF4F80819181A281EE
:101C0000B38189839A83AB83BC83AE014F5F5F4FFF
:101C100066EE70E0C8010E949F09882309F424C27F
:101C2000D8011296ED91FC91139794962D913C91C9
:101C30009597F29EC001F39E900D1124E80FF91FB5
:101C4000E05BFF4FF9C1D8011296ED91FC9113971B
:101C500027E2F22EF89E9001F99E300D1124E20F3A
:101C6000F31FEC5AFF4F80819181A281B381898358
:101C70009A83AB83BC83AE014F5F5F4F61EE70E030
:101C8000C8010E943209882309F4EEC1D8011296D6
:101C9000ED91FC91139794962D913C919597F29E1E
:101CA000C001F39E900D1124E80FF91FEC5AFF4F6D
:101CB00089819A81AB81BC8180839183A283B38324
:101CC000C3C1D8011296ED91FC911397B7E2FB2E98
:101CD000F89E9001F99E300D1124E20FF31FE85A8F
:101CE000FF4F80819181A281B38189839A83AB83E5
:101CF000BC83AE014F5F5F4F6CED70E0C8010E9486
:101D00009F09882309F4B0C1D8011296ED91FC9186
:101D1000139794962D913C919597F29EC001F39E56
:101D2000900D1124E80FF91FE85AFF4F85C1D80123
:101D30001296ED91FC911397A7E2FA2EF89E90016E
:101D4000F99E300D1124E20FF31FE45AFF4F8081FA
:101D50009181A281B38189839A83AB83BC83AE01D5
:101D60004F5F5F4F67ED70E0C8010E949F098823B5
:101D700009F47AC1D8011296ED91FC9113979496CB
:101D80002D913C919597F29EC001F39E900D1124E8
:101D9000E80FF91FE45AFF4F4FC1D8011296ED9199
:101DA000FC91139777E2F72EF89E9001F99E300D83
:101DB0001124E20FF31FE05AFF4F80819181A2812D
:101DC000B38189839A83AB83BC83AE014F5F5F4F3E
:101DD00062ED70E0C8010E949F09882309F444C1A4
:101DE000D8011296ED91FC91139794962D913C9108
:101DF0009597F29EC001F39E900D1124E80FF91FF4
:101E0000E05AFF4F19C1D8011296ED91FC9113973A
:101E100067E2F62EF89E9001F99E300D1124E20F34
:101E2000F31FEC59FF4F80819181A281B381898397
:101E30009A83AB83BC83AE014F5F5F4F6DEC70E064
:101E4000C8010E949F09882309F40EC1D801129687
:101E5000ED91FC91139794962D913C919597F29E5C
:101E6000C001F39E900D1124E80FF91FEC59FF4FAC
:101E7000E3C0D8011296ED91FC91139757E2F52E2D
:101E8000F89E9001F99E300D1124E20FF31FE859DE
:101E9000FF4F80819181A281B38189839A83AB8333
:101EA000BC83AE014F5F5F4F68EC70E0C8010E94D9
:101EB0009F09882309F4D8C0D8011296ED91FC91AE
:101EC000139794962D913C919597F29EC001F39EA5
:101ED000900D1124E80FF91FE859FF4FADC0D8014C
:101EE0001296ED91FC91139747E2F42EF89E900123
:101EF000F99E300D1124E20FF31FE459FF4F80814A
:101F00009181A0E0B0E089839A83AB83BC83AE016A
:101F10004F5F5F4F63EC70E0C8010E943209882375
:101F200009F4A2C0D8011296ED91FC9113979496F2
:101F30002D913C919597F29EC001F39E900D112436
:101F4000E80FF91FE459FF4F35C0D8011296ED9103
:101F5000FC91139737E2F32EF89E9001F99E300D15
:101F60001124E20FF31FE259FF4F80819181A0E01D
:101F7000B0E089839A83AB83BC83AE014F5F5F4F30
:101F80006EEB70E0C8010E943209882309F46CC02E
:101F9000D8011296ED91FC91139794962D913C9156
:101FA0009597F29EC001F39E900D1124E80FF91F42
:101FB000E259FF4F89819A819183808396961C9282
:101FC000969791968C9191978F5F91968C934CC038
:101FD000D8011296ED91FC91139727E2F22EF89E0C
:101FE0009001F99E300D1124E20FF31FE059FF4FCD
:101FF00080819181A281B38189839A83AB83BC83E1
:10200000AE014F5F5F4F69EB70E0C8010E949F090E
:10201000882351F1D8011296ED91FC911397949673
:102020002D913C919597F29EC001F39E900D112445
:10203000E80FF91FE059FF4F89819A81AB81BC817C
:1020400080839183A283B383F80116A281A18F5F5D
:1020500081A30AC0D80112968D919C9113970E947A
:102060001B04F801178E11A20F900F900F900F9084
:10207000DF91CF911F910F91FF900895EF92FF9202
:102080000F931F93CF93DF93DC011296ED91FC9198
:10209000139726AD222309F45AC0EC018C01045F8A
:1020A0001F4FC8010E94AA04C8010E94BC048823D3
:1020B00009F44DC0C8010E948F04EA81FB8181E0D0
:1020C00087AF2C813D81D901A85BBF4F8C918F01D7
:1020D0000E5B1F4FECA0FDA0882399F0E9018A89CF
:1020E0009B89AC89BD894E895F89688D798D841BF8
:1020F000950BA60BB70BE80188839983AA83BB8352
:1021000018C087E28E9DD0018F9DB00D1124AE0FB7
:10211000BF1FAC5ABF4F2D913D914D915C91A0E6F0
:10212000BAEE0E946B24D8016D937D938D939C939E
:102130001397DF01A05CBF4FED92FC92CF01DF91BE
:10214000CF911F910F91FF90EF900C945504DF9168
:10215000CF911F910F91FF90EF900895CF92DF9252
:10216000EF92FF920F931F93CF93DF93EC01D62E44
:10217000C22E88819981DC01ED91FC910680F78166
:10218000E02D442319F068E971E002C066E971E0CE
:1021900009957E01BAE2EB0EF11C0E94581FFE0168
:1021A000FE960081118122813381601B710B820BAD
:1021B000930B0E94EC22870120E041E00E949924C9
:1021C00088819981DC01ED91FC910280F381E02D01
:1021D000B701099588819981DC01ED91FC91068018
:1021E000F781E02D63E971E009956CA17DA1072ECF
:1021F000000C880B990B0E94EE2220E041E00E9427
:10220000992488819981DC01ED91FC910280F38110
:10221000E02DB701099588819981DC01ED91FC9150
:102220000680F781E02D60E971E00995CC2051F03E
:1022300088859985DC01ED91FC910190F081E02D7C
:10224000099509C0EC81FD81E35BFF4F60817181DD
:1022500082819381870122E041E00E949924888154
:102260009981DC01ED91FC910280F381E02DB701B1
:10227000099588819981DC01ED91FC910680F781B7
:10228000E02D6DE871E00995E885F98526813781B3
:102290004085518562A573A584A595A50E94D92185
:1022A00020E030E040E850E40E94A323870122E0D0
:1022B00042E00E94992488819981DC01ED91FC9192
:1022C0000280F381E02DB701099588819981DC01B5
:1022D000ED91FC910680F781E02D6AE871E00995A7
:1022E000EA81FB812CA13DA147E2429FC001439FAF
:1022F000900D1124E80FF91FE05BFF4F60817181A1
:102300008281938122E041E00E9499248881998111
:10231000DC01ED91FC910280F381E02DB70109957C
:1023200088819981DC01ED91FC910680F781E02D97
:1023300067E871E00995EC81FD81E75BFF4F208143
:1023400088819981DC01ED91FC910680F781E02D77
:10235000222319F065E871E002C063E871E0099595
:1023600088819981DC01ED91FC910680F781E02D57
:1023700060E871E00995EC81FD8184859585DC013B
:10238000ED91FC910680F781E02D0995A881B98136
:10239000ED91FC9111970680F781E02D882319F0CB
:1023A0006EE771E002C06CE771E0CD0109958881AC
:1023B0009981DC01ED91FC910680F781E02D69E7C0
:1023C00071E00995EC81FD810280F381E02D80812F
:1023D0000E940020BC01990F880B990B0E94EE22ED
:1023E0002AE038E240E25CE30E94A323870122E076
:1023F00041E00E94992488819981DC01ED91FC9152
:102400000280F381E02DB7010995EC81FD81E65B47
:10241000FF4F8081882359F088819981DC01ED91FB
:10242000FC910280F381E02D60E171E00995EC817F
:10243000FD81E85BFF4F80818823A1F1888199812C
:10244000DC01ED91FC910680F781E02D66E771E0FB
:102450000995EC81FD8182899389A489B5890689D2
:102460001789208D318DBC01CD01601B710B820B52
:10247000930B28EE33E040E050E00E942424CA0190
:10248000B9010E94EC22870120E041E00E949924DA
:1024900088819981DC01ED91FC910280F381E02D2E
:1024A000B7010995EA81FB818481882329F188811C
:1024B0009981DC01ED91FC910680F781E02D63E7C5
:1024C00071E00995EC81FD810680F781E02DEB5BE1
:1024D000FF4F6081718182819381870122E041E019
:1024E0000E94992488819981DC01ED91FC91028000
:1024F000F381E02DB7010995DD20C9F0888199812C
:10250000DC01ED91FC910680F781E02D60E771E040
:10251000099589A5882359F088819981DC01ED917D
:10252000FC910680F781E02D6DE671E009958881C8
:102530009981DC01ED91FC910280F381E02D63E152
:1025400071E009958885998502960E94BA03BC01BD
:10255000990F880B990B0E94EE22870122E041E03F
:102560000E94992488819981DC01ED91FC9102807F
:10257000F381E02DB701099588819981DC01ED9106
:10258000FC910084F185E02D6BE671E0DF91CF9145
:102590001F910F91FF90EF90DF90CF900994EF92F1
:1025A000FF920F931F93CF93DF93EC018EA18111C4
:1025B00054C088859985DC01ED91FC910480F581FA
:1025C000E02D0995A881B981ED91FC9111970680C4
:1025D000F781E02D813019F46FE971E002C06CE9F8
:1025E00071E0CD0109957E01BAE2EB0EF11C870185
:1025F00020E041E060E070E080E891E40E949924EE
:1026000088819981DC01ED91FC910280F381E02DBC
:10261000B701099588819981DC01ED91FC910680D3
:10262000F781E02D6AE971E00995EA81FB8160811B
:102630007181828193810E94EC2220E041E00E941E
:10264000992488819981DC01ED91FC910480F581C8
:10265000E02DB701099581E08EA388819981DC0185
:10266000ED91FC910284F385E02D09958136910569
:1026700009F452C08CF48133910551F124F4C097D0
:1026800009F44AC04AC08233910529F1C39709F081
:1026900044C01EA283E023C08037910511F17CF471
:1026A0008336910551F188369105B9F58A859B8568
:1026B000DC01ED91FC910190F081E02D26C0823784
:1026C000910561F08437910541F51EA284E007C0B1
:1026D0001EA281E004C01EA282E001C085E08F8FAF
:1026E0001CC021E040E060E0CE01DF91CF911F915E
:1026F0000F91FF90EF900C94AE108A859B85DC01C2
:10270000ED91FC910280F381E02DDF91CF911F913B
:102710000F91FF90EF9009941EA2DF91CF911F912E
:102720000F91FF90EF9008958F929F92AF92BF927A
:10273000CF92DF92EF92FF920F931F93CF93DF938D
:1027400000D000D0CDB7DEB78C01DC0192968C9121
:10275000882321F0813009F446C048C1F80184A1E2
:1027600095A1092E000CAA0BBB0B89839A83AB831E
:10277000BC83AE014F5F5F4F64EB70E0C8010E9405
:102780003209882309F469C149815A816B817C81AE
:1027900040315105610571051CF5D80195965C9392
:1027A0004E9394971296ED91FC91139727E2249FF4
:1027B000C001259F900D1124E80FF91FE35BFF4F27
:1027C000808199968C93999797961C929797989653
:1027D0001C92989792968C9192978F5F92968C9379
:1027E000F80116A23AC1D8018D919C91DC01ED91BE
:1027F000FC910284F385E02D09956C0182379105E7
:1028000009F411C1F801EE5BFF4F80810E94112194
:10281000892B09F408C1F80184A195A180319105A3
:102820000CF0E0C00280F381E02D47E2489F900168
:10283000499F300D1124E20FF31FE15BFF4F208110
:10284000222309F4CAC0F1E6CF16D10449F420E0EE
:1028500040E0D80196966C91C8010E94AE103FC02E
:10286000B0E7CB16D104D9F5F801E480F580D701A3
:1028700090968C9190978823A1F090961C920E943C
:10288000581FF70186889788A08CB18CDC01CB019A
:1028900088199909AA09BB0986879787A08BB18BEC
:1028A0001EC081E0D70190968C930E94581FF701BB
:1028B00086849784A088B188DC01CB0188199909A6
:1028C000AA09BB09868B978BA08FB18F84859585CC
:1028D000DC01ED91FC910280F381E02D0995C801A6
:1028E0000E943E10F80180A5811129C081E080A7D7
:1028F00064A175A1848195810E94FD06D80112967C
:10290000ED91FC91139794962D913C91959747E208
:10291000429FC001439F900D1124E80FF91FE35B14
:10292000FF4F808199968C93999796961C920E945E
:10293000581FF801FE966083718382839383F801A8
:10294000848195810E942A07882309F486C0D801D2
:102950001296ED91FC91139794962D913C91959739
:1029600047E2429FC001439F900D1124E80FF91FD9
:10297000E25BFF4F8081882319F181E096968C936A
:10298000969799968C919997882349F01696ED9190
:10299000FC91179764EB70E080810E941D20B7E7DF
:1029A000CB16D10409F049C0D8011696ED91FC91DF
:1029B000179760E070E080810E941D20F80116A248
:1029C000D80194968D919C919597019695969C939C
:1029D0008E93949798961C9240C00196F80195A307
:1029E00084A33BC082A18F5F82A337C0F80182819C
:1029F0009381DC01DE962C91DE97222321F0DF9675
:102A00001C920E945504F80117A210A616A2178E58
:102A100010A211A212A213A215A214A28481958160
:102A20000E94B9061AC0D8011296ED91FC91139735
:102A300017AE84E192968C93EECEB2E6CB16D1041B
:102A400061F4D8011696ED91FC91179760E070E063
:102A500080810E941D20F80111A60F900F900F9009
:102A60000F90DF91CF911F910F91FF90EF90DF902A
:102A7000CF90BF90AF909F908F9008951F93CF936A
:102A8000DF93EC018FA181113AC011E01FA3EA810D
:102A9000FB8187AD882399F117AE1FA218A783E0A9
:102AA0008F8F1AA38CA19DA127E2289FD001299F77
:102AB000B00D1124AE0FBF1FA35BBF4F8C9189A730
:102AC000E05CFF4F608171817DA36CA38C819D814F
:102AD0000E94FD06EA81FB81EE5BFF4F80819181C0
:102AE000A281B381EC81FD8116861786108A118A36
:102AF000828F938FA48FB58F168E10A2178FFE0131
:102B0000EE5BFF4F80810E941121892B21F4CE01C1
:102B10000E940A0A1F8EEC81FD81E65BFF4F8081D7
:102B2000FE01ED5BFF4F882311F060E001C061E022
:102B300080810E94E1208F8D8230C9F050F488237B
:102B400081F0813001F5CE01DF91CF911F910C947E
:102B50001E0A833091F08530B1F4CE010E940A0A3A
:102B600012C0CE01DF91CF911F910C94CF12CE01F4
:102B7000DF91CF911F910C94180DCE01DF91CF9171
:102B80001F910C9494131F8EDF91CF911F91089584
:102B90008F929F92AF92BF92CF92DF92EF92FF926D
:102BA0000F931F93CF93DF9361E083E00E94A520F2
:102BB00061E083E00E94E1208091580390915903E5
:102BC000DC01ED91FC910190F081E02D22E133E0F8
:102BD0004FE350E060E070E00995CFE3D0E08091F2
:102BE000580390915903DC01ED91FC919E01205E08
:102BF0003C4F0190F081E02D47E250E0BE01099585
:102C0000A796CF3AB2E0DB0751F740915A035091B3
:102C10005B0360915C0370915D038091120390915E
:102C20001303A0911403B0911503481759076A07BD
:102C30007B0709F4EAC082E193E00E946804809176
:102C40005A0390915B03A0915C03B0915D03809364
:102C5000120390931303A0931403B09315038DE410
:102C600094E090934D0380934C031092160381E0FF
:102C700090E0A0E0B0E08093440390934503A093DC
:102C80004603B093470387E091E090933F0380931E
:102C90003E0380E090E6ACE1B0E080934003909387
:102CA0004103A0934203B093430381E080933D032B
:102CB00088E893E1909335038093340384E690E0B1
:102CC000909337038093360380E090E0A0E2B1E474
:102CD0008093380390933903A0933A03B0933B0356
:102CE00010923C038EEA97E4A1E8BFE380931803B7
:102CF00090931903A0931A03B0931B0380E090E014
:102D0000A8EAB1E48093200390932103A0932203C7
:102D1000B093230380E090E8ABE9B3E4809324030D
:102D200090932503A0932603B093270380E090E0BF
:102D3000A0E4B2E48093280390932903A0932A038C
:102D4000B0932B0380E090ECA3E1B4E480932C03D8
:102D500090932D03A0932E03B0932F03109248035A
:102D60001092490310924A0310924B0380E197E2BC
:102D7000A0E0B0E08093300390933103A09332033E
:102D8000B0933303EAE6F3E08EEA882E87E4982EC8
:102D900081E8A82E81E4B82E99E2C92E9CE5D92EAF
:102DA0009FE0E92E9EE3F92E0DEC1CE020EF33E4CA
:102DB0004DEC5CEC6CEC7DEB8DEC9CECACECBDE399
:102DC00080869186A286B386C486D586E686F786F7
:102DD000008B118B228B338B4083518362837383EF
:102DE00084839583A683B783B796C5E0EA3DFC0745
:102DF00039F782E193E00E941B0482E193E00E9494
:102E0000550481E080935E0313C010925E038091AD
:102E1000580390915903DC01ED91FC910190F081F0
:102E2000E02D21E533E047E050E06FEA72E00995DC
:102E300086E992E00E94070261E08091D5020E943B
:102E4000A52088ED92E00E94EC0160E08091930261
:102E50000E94A52061E0809192020E94A52083E15A
:102E600092E00E94450284E692E00E949C0482EC7B
:102E700091E00E94B90662E08091C0010E94A52005
:102E80001092A5011092A6011092A40110929D012A
:102E900010929E0110929F011092A0011092A10128
:102EA0001092A3011092A20180918201909183015E
:102EB000DF91CF911F910F91FF90EF90DF90CF9016
:102EC000BF90AF909F908F900C94B9068EE791E0E1
:102ED0000C943E152F923F924F925F926F927F9289
:102EE0008F929F92AF92BF92CF92DF92EF92FF921A
:102EF0000F931F93CF93DF93EFECF5E08AE191E01E
:102F00009183808382E1882E83E0982EF093590389
:102F1000E093580387E097E9A4E0B0E080935A0378
:102F200090935B03A0935C03B0935D0381E0809377
:102F30005E03C8EDD2E09EE09A839C828B8292E091
:102F40009D83F40185838EE291E0998388838FE8E5
:102F50009EE5A9EAB1E48AAB9BABACABBDAB8EE01E
:102F600096EAA0E4B1EC8EAB9FABA8AFB9AF93EDFE
:102F7000292E92E0392EF1011382148288E0828397
:102F800082E291E09183808380E091EEA0E0B0E066
:102F90008093AE029093AF02A093B002B093B102BF
:102FA00088E391E0E6E9F2E09183808320E04BE062
:102FB0006AE082EB92E00E94AD1A9092D202809277
:102FC000D1028FE0E3E9F2E0808390929502809253
:102FD000940289E08093920224E6622E22E0722E0F
:102FE000F30193828282158214821682178284E50D
:102FF00091E09183808314861586168617868CE669
:1030000092E00E948F04F301178E10A211A212A267
:103010008FE792E00E948F0433E1432E32E0532E7B
:10302000F20193828282158214821682178288E4CA
:1030300091E0918380831F921F9283E48F9380EFAE
:103040008F938CE08F938DEC8F9349E2A42E4CE507
:10305000B42E4FE0C42E4EE3D42E1EEAE12E17E428
:10306000F12E01E811E42CE532E048E552E064E598
:1030700072E08BE192E00E949F1E1092600210921B
:103080006102109262021092630262ECE62E61E02D
:10309000F62EF7019182808283E992E09383828306
:1030A00072E9C72E72E0D72ED582C482578246823B
:1030B00071866086D387C28735862486128A138AF2
:1030C000148A158A80ED91E00E948F048CED95E0C2
:1030D000A0E0B0E0F70185A396A3A7A3B0A783EE75
:1030E00091E00E948F0488E893E1A0E0B0E0F7014E
:1030F00080AF91AFA2AFB3AF86EF91E00E948F0493
:103100001092090210920A0210920C0210920E0202
:1031100010920D0210920F021092100210921102E2
:10312000109212020EE711E086E992E0F801918315
:10313000808393828282F582E482D782C682D1879D
:10314000C0873386228680E395E7A0E0B0E0808BDD
:10315000918BA28BB38B8AE891E00E948F04F801D7
:10316000178E10A211A212A213A215A214A216A2C7
:1031700017A2F2E0F093C00183E08093C1010F90A9
:103180000F900F900F900F900F90DF91CF911F91A4
:103190000F91FF90EF90DF90CF90BF90AF909F90F6
:1031A0008F907F906F905F904F903F902F900895F9
:1031B00088E391E0909397028093960282EB92E0ED
:1031C0000C94541ACF93DF93EC016C96CE010E94BD
:1031D0008319892B29F0CE01DF91CF910C94F5183A
:1031E00080E090E0DF91CF91089520911306309117
:1031F000140628173907B9F49091D1058091D205AA
:10320000981789F0E091D105F0E0ED52FA4F8081F6
:103210002091D10530E02F5F3F4F2F73332720934C
:10322000D10590E008958FEF9FEF08951F93CF93FE
:10323000DF93DC015C962D913C915D972115310562
:1032400039F481E090E013969C938E9312973DC0E1
:103250005196ED91FC91529750969C915097892FE1
:1032600080951FB75E964C915E9741FB772770F96A
:1032700041FD6095F8944081772311F0492B01C0FE
:1032800048234083E9012197F1F748E0508160FF2E
:1032900002C0592B01C058235083E9012197F1F74F
:1032A0006695415099F7772321F090818923808397
:1032B00003C08081982B90831FBF5C968D919C9159
:1032C0005D970197F1F721E030E0C901DF91CF91DF
:1032D0001F91089508952091130630911406281720
:1032E000390771F49091D1058091D205981741F07A
:1032F000E091D105F0E0ED52FA4F808190E0089521
:103300008FEF9FEF08952091130630911406281730
:10331000390771F48091D2052091D10590E0805C4D
:103320009F4F821B910960E470E00E941024089571
:1033300080E090E00895E0911306F0911406E817FC
:10334000F90769F4A389B4899C91858980958923BB
:103350008C93109214061092130681E0089580E079
:103360000895CF93DF93EC018A8D9B8D892BF1F02B
:1033700080911306909114068C179D07B9F0009761
:1033800011F00E949B198E8D8E7F8E8F1092D20528
:103390001092D105D0931406C0931306EB89FC89D3
:1033A00090818D89892B808381E001C080E0DF914D
:1033B000CF9108951F920F920FB60F9211242F9361
:1033C0003F934F935F936F937F938F939F93AF93AD
:1033D000BF93EF93FF93E0911306F091140630979B
:1033E00009F451C0968DA685B785858591FF04C0E7
:1033F0009C91892329F447C09C91892309F043C0FB
:10340000A389B4899C918589809589238C93868929
:1034100097890197F1F7608D718DA685B7855585E0
:1034200038E020E0CB010197F1F7822F90E09595ED
:103430008795282F4C91452309F02068315091F74A
:10344000868D81FD20958091D20590E001968F7345
:1034500099273091D105381749F0A091D205B0E0F5
:10346000AD52BA4F2C938093D20503C0868D8160F4
:10347000868F828D938D0197F1F7A389B4899C91F2
:103480008589892B8C93FF91EF91BF91AF919F918B
:103490008F917F916F915F914F913F912F910F90FD
:1034A0000FBE0F901F90189520E631E0FC0131838C
:1034B00020830C949B191F93CF93DF93EC01162F5D
:1034C0006E8D6695617081E06827812F0E94E120F2
:1034D00061E0812F0E94A520612F70E0FB01EA547A
:1034E000FE4FE491E88BFB01E653FE4FE491F0E0E0
:1034F000EE0FFF1FE851FE4F859194919A8B898BB7
:10350000DF91CF911F9108951F93CF93DF93EC012B
:10351000162F60E0812F0E94A5208E8D81FD04C0B2
:1035200061E0812F0E94E1201C87612F70E0FB0188
:10353000EA54FE4FE491ED87FB01E653FE4FE49120
:10354000F0E0EE0FFF1FE252FE4F859194919F87AE
:103550008E87DF91CF911F9108951F93CF93DF93B3
:10356000EC01162F1B821A8288EE93E0A0E0B0E0F7
:103570008C839D83AE83BF8380E691E099838883AB
:103580001F8A1E8A198E188E1B8E1A8E1D8E1C8EF7
:103590008E8D8E7F20FB81F98E8F642FCE010E944D
:1035A0005B1A612FCE01DF91CF911F910C94841A89
:1035B000CF93DF93EC019A01AB011B8E1A8E198E0B
:1035C000188E1F8A1E8A60E079E08DE390E00E94E9
:1035D0004624F9012430310518F0C901039702C0CF
:1035E00081E090E09D8F8C8F6C85663108F069C01A
:1035F000C901969587958431910510F0439702C0D3
:1036000081E090E09F8B8E8B369718F0C90105976B
:1036100002C081E090E0998F888FC901880F991FBF
:10362000280F391F36952795369527952D3031056A
:1036300018F02C50310902C021E030E03B8F2A8F76
:1036400090916800683050F021E06E3008F420E07E
:1036500081E001C0880F2A95EAF701C084E0892B38
:10366000809368008C85883038F08E3040F0863149
:1036700048F020E030E008C02DE630E005C02BE641
:1036800030E002C02CE630E03C8B2B8B883030F4ED
:1036900091E001C0990F8A95EAF70EC0282F30E01B
:1036A0008E3018F42850310902C02E50310991E0B3
:1036B00001C0990F2A95EAF79D8B8C8D9D8D0197FE
:1036C000F1F7CE01DF91CF910C94B1192F923F9277
:1036D0004F925F926F927F928F929F92AF92BF9222
:1036E000CF92DF92EF92FF920F931F93CF93DF93CE
:1036F000CDB7DEB72B970FB6F894DEBF0FBECDBFA8
:10370000DC01D896BC91B983B11102C01982E4C022
:103710009B878A870E94581F6A837B838C839D8343
:10372000EA85FB8580A191A1A2A1B3A14A815B8119
:103730006C817D81481B590B6A0B7B0B84A595A579
:10374000A6A5B7A5481759076A077B07F8F2028CA8
:10375000F38DE02D80809180A280B380AA85BB8507
:103760005E96ED91FC915F97A50194016081718156
:10377000828193810E94D9212B013C01EA85FB853E
:1037800020893189428953890E94A323AA85BB8558
:1037900094962D913D914D915C9197970E94DA21DD
:1037A0006B017C01EA85FB8564A375A386A397A3BF
:1037B00024A835A806A917A99101A8010E949E2353
:1037C00018161CF4C101D80118C0AA85BB85D09673
:1037D0008D919D910D90BC91A02D8E839F83A88784
:1037E000B9879C01AD01C701B6010E94462287FF3F
:1037F0000AC08E819F81A885B985EA85FB8584A34F
:1038000095A3A6A3B7A3AA85BB851C962D913D9130
:103810004D915C911F97C301B2010E94A323EA85D9
:10382000FB8524A135A146A157A10E94DA216B0195
:103830007C01AA85BB8598962D913D914D915C9117
:103840009B97C501B4010E94D921EA85FB85248993
:103850003589468957890E94A3239B01AC01C70182
:10386000B6010E94D9216B017C019101A8010E943F
:103870009E231816BCF0AA85BB85D0962C90D097B5
:10388000D1963C90D197D2960C91D297D3961C9119
:103890009101A801B601C7010E94462287FD02C01E
:1038A00016018701AA85BB855C96ED91FC915D9719
:1038B000C101D80180839183A283B383EA85FB850C
:1038C00080A691A6A2A6B3A68A819B81AC81BD8168
:1038D00080A391A3A2A3B3A389812B960FB6F894DA
:1038E000DEBF0FBECDBFDF91CF911F910F91FF9033
:1038F000EF90DF90CF90BF90AF909F908F907F9090
:103900006F905F904F903F902F9008952F923F922D
:103910004F925F926F927F928F929F92AF92BF92DF
:10392000CF92DF92EF92FF920F931F93CF93DF938B
:1039300000D000D0CDB7DEB71C012A013B01480101
:10394000590120E030E0A901C301B2010E944622E2
:1039500087FD78C020E030E0A901C501B4010E94D4
:10396000462287FD6FC020E030E0A901C701B60103
:103970000E94462287FD66C0F10140825182628228
:10398000738284829582A682B782C086D186E286BF
:10399000F38664A575A586A597A50E94EC2220E074
:1039A00030E04AE754E40E944B2269837A838B8398
:1039B0009C83F10144865586668677869B01AC011F
:1039C000C501B4010E94A3234B015C01F101608B8E
:1039D000718B828B938B29813A814B815C81C701EA
:1039E000B6010E944B226B017C01F101648B758B47
:1039F000868B978B808D918D019721F5A301920184
:103A000060E070E0CB010E94D921F10164877587E5
:103A100086879787A501940160E070E0CB010E9442
:103A2000D921F101608B718B828B938BA701960159
:103A300060E070E0CB010E94D921F101648B758BAD
:103A4000868B978B0F900F900F900F90DF91CF91F7
:103A50001F910F91FF90EF90DF90CF90BF90AF90AC
:103A60009F908F907F906F905F904F903F902F909E
:103A700008958F929F92AF92BF92CF92DF92EF9272
:103A8000FF92CF93DF9316161706B4F56B01EC0186
:103A90000D2C000CEE08FF08C701B6010E94EE22B3
:103AA0004B015C016CA57DA58EA59FA50E94EC2213
:103AB0009B01AC01C501B4010E944B224B015C018A
:103AC0009B01AC01688979898A899B890E94A3231B
:103AD000688B798B8A8B9B8BA50194016C897D897E
:103AE0008E899F890E944B226C8B7D8B8E8B9F8B46
:103AF000CCA6DDA6EEA6FFA6DF91CF91FF90EF90BA
:103B0000DF90CF90BF90AF909F908F9008952F92AD
:103B10003F924F925F926F927F928F929F92AF925D
:103B2000BF92CF92DF92EF92FF920F931F93CF93AA
:103B3000DF93EC016A017B0148015901A901980159
:103B4000C701B6010E949E2387FF4EC0C8AAD9AA0A
:103B5000EAAAFBAA8CAA9DAAAEAABFAA88AD88230E
:103B600009F442C02C8C3D8CF10140805180628070
:103B70007380A5019401C301B2010E949E2318160F
:103B800034F4F10180829182A282B3820DC0A70138
:103B90009601C301B2010E94462287FF05C0F101D0
:103BA000C082D182E282F3828CA09DA0AEA0BFA091
:103BB000CCA8DDA8EEA8FFA8A7019601C501B40115
:103BC0000E949E23181664F0C8A8D9A8EAA8FBA8EA
:103BD000A7019601C501B4010E94462287FF04C0D7
:103BE000CCA2DDA2EEA2FFA2DF91CF911F910F9197
:103BF000FF90EF90DF90CF90BF90AF909F908F900D
:103C00007F906F905F904F903F902F9008958F928C
:103C10009F92AF92BF92CF92DF92EF92FF92CF939B
:103C2000DF93EC01EC8DFD8DC080D180E280F380CC
:103C3000CCA2DDA2EEA2FFA2EA8DFB8D8081918154
:103C4000A281B38188A799A7AAA7BBA78CA89DA882
:103C5000AEA8BFA8A5019401C701B6010E949E238A
:103C6000181664F088A899A8AAA8BBA8A501940171
:103C7000C701B6010E94462287FF04C08CA29DA204
:103C8000AEA2BFA2DF91CF91FF90EF90DF90CF90D7
:103C9000BF90AF909F908F9008951F93CF93DF9325
:103CA000EC0111E06130710509F010E098AD81E0A0
:103CB0008927181303C0CE010E94071E18AFDF9199
:103CC000CF911F9108950F931F93CF93DF93EC0132
:103CD0008B0188AD882361F1888D998D68177907EC
:103CE00039F12C853D854E855F8560E070E0CB0124
:103CF0000E94D9216C877D878E879F872889398983
:103D00004A895B8960E070E0CB010E94D921688B11
:103D1000798B8A8B9B8B2C893D894E895F8960E0EA
:103D200070E0CB010E94D9216C8B7D8B8E8B9F8B99
:103D3000198F088FDF91CF911F910F9108954F92A6
:103D40005F926F927F928F929F92AF92BF92CF922B
:103D5000DF92EF92FF920F931F93CF93DF9300D0E8
:103D600000D0CDB7DEB74C0127013801A982BA8255
:103D7000CB82DC82FC01558F448F738F628F378F2B
:103D8000268F10AE10AA11AA12AA13AA80E090E002
:103D9000AFE7B3E484AB95ABA6ABB7AB84E690E0FA
:103DA000A0E0B0E084A795A7A6A7B7A76B8D7C8DF0
:103DB000C4010E94631ECF88D88CE98CFA8C0981DB
:103DC0001A812B813C81B301A201C4010E94861C8F
:103DD0000E94581FF40104A515A526A537A5DC01EE
:103DE000CB01801B910BA20BB30B80A391A3A2A3C9
:103DF000B3A30F900F900F900F90DF91CF911F9171
:103E00000F91FF90EF90DF90CF90BF90AF909F9079
:103E10008F907F906F905F904F9008951F920F92B8
:103E20000FB60F9211242F933F938F939F93AF93CD
:103E3000BF938091160690911706A0911806B09135
:103E400019063091150623E0230F2D3720F4019633
:103E5000A11DB11D05C026E8230F0296A11DB11DAD
:103E6000209315068093160690931706A0931806C4
:103E7000B093190680911A0690911B06A0911C061A
:103E8000B0911D060196A11DB11D80931A06909355
:103E90001B06A0931C06B0931D06BF91AF919F9186
:103EA0008F913F912F910F900FBE0F901F901895FB
:103EB0002FB7F89460911606709117068091180636
:103EC000909119062FBF08953FB7F89480911A0674
:103ED00090911B06A0911C06B0911D0626B5A89BCB
:103EE00005C02F3F19F00196A11DB11D3FBFBA2F8C
:103EF000A92F982F8827820F911DA11DB11DBC01EC
:103F0000CD0142E0660F771F881F991F4A95D1F7B0
:103F100008958F929F92AF92BF92CF92DF92EF92CD
:103F2000FF926B017C010E94641F4B015C01C11474
:103F3000D104E104F10401F10E94D8210E94641F20
:103F4000DC01CB0188199909AA09BB09883E934075
:103F5000A105B10560F321E0C21AD108E108F1081A
:103F600088EE880E83E0981EA11CB11CC114D104F8
:103F7000E104F10419F7DBCFFF90EF90DF90CF90D1
:103F8000BF90AF909F908F900895789484B5826091
:103F900084BD84B5816084BD85B5826085BD85B5ED
:103FA000816085BDEEE6F0E0808181608083E1E89C
:103FB000F0E01082808182608083808181608083D4
:103FC000E0E8F0E0808181608083E1EBF0E08081D7
:103FD00084608083E0EBF0E0808181608083EAE7A9
:103FE000F0E0808184608083808182608083808132
:103FF000816080838081806880831092C1000895F1
:104000008E3008F08E5087702091000190E4299F37
:1040100090011124822B80937C0080917A0080642F
:1040200080937A0080917A0086FDFCCF80917800A1
:104030002091790090E0922B08951F93CF93DF9306
:10404000182FEB0161E00E94A520209711F460E099
:1040500004C0CF3FD10539F461E0812FDF91CF91CA
:104060001F910C94E120E12FF0E0EE55FE4FE4911A
:10407000E330F9F048F4E130B9F0E230A1F584B56D
:10408000806284BDC8BD34C0E730E9F0E83019F182
:10409000E43049F580918000806280938000D09365
:1040A0008B00C0938A0024C084B5806884BDC7BDDE
:1040B0001FC080918000806880938000D093890029
:1040C000C093880015C08091B00080688093B000D4
:1040D000C093B3000DC08091B00080628093B000A7
:1040E000C093B40005C0C038D1050CF0B5CFAFCF38
:1040F000DF91CF911F910895833081F028F48130B2
:1041000099F08230A1F008958730A9F08830B9F095
:104110008430D1F4809180008F7D03C08091800035
:104120008F7780938000089584B58F7702C084B51F
:104130008F7D84BD08958091B0008F7703C08091FA
:10414000B0008F7D8093B0000895CF93DF9390E00F
:10415000FC01EA54FE4F2491FC01E653FE4F84918A
:10416000882361F190E0880F991FFC01EE50FE4F0B
:10417000C591D491FC01E851FE4FA591B491611114
:1041800009C09FB7F8948881209582238883EC9199
:104190002E230BC0623061F49FB7F8943881822FD0
:1041A000809583238883EC912E2B2C939FBF06C090
:1041B0008FB7F894E8812E2B28838FBFDF91CF91A2
:1041C00008951F93CF93DF93282F30E0F901EE5528
:1041D000FE4F8491F901EA54FE4FD491F901E65360
:1041E000FE4FC491CC23C9F0162F81110E947C2070
:1041F000EC2FF0E0EE0FFF1FE851FE4FA591B491B8
:104200008FB7F894111105C09C91ED2FE095E9232B
:1042100002C0EC91ED2BEC938FBFDF91CF911F91FA
:104220000895CF93DF93282F30E0F901EE55FE4F2C
:104230008491F901EA54FE4FD491F901E653FE4FFF
:10424000C491CC2391F081110E947C20EC2FF0E0EE
:10425000EE0FFF1FE252FE4FA591B491EC91ED23BA
:1042600081E090E021F480E002C080E090E0DF9106
:10427000CF91089508950E94C51F0E943A210E947F
:10428000C815C0E0D0E00E9466172097E1F30E94B5
:104290000000F9CFCF92DF92EF92FF920F931F931E
:1042A000CF93DF936C017A018B01C0E0D0E0CE1593
:1042B000DF0589F0D8016D918D01D601ED91FC915A
:1042C0000190F081E02DC6010995892B11F47E0142
:1042D00002C02196ECCFC701DF91CF911F910F91C2
:1042E000FF90EF90DF90CF9008956115710579F000
:1042F000FB0101900020E9F73197AF01461B570BF6
:10430000DC01ED91FC910280F381E02D099480E0C5
:1043100090E00895EF92FF920F931F93CF93DF9356
:104320008C017B01C0E0D0E0F701EC0FFD1F649130
:10433000662361F0D801ED91FC910190F081E02DB0
:10434000C8010995892B11F02196EECFCE01DF919E
:10435000CF911F910F91FF90EF9008950C947521CC
:104360006CE671E00C9475210F931F93CF93DF934C
:10437000EC010E948A218C01CE010E94B021800FA5
:10438000911FDF91CF911F910F9108950F931F936C
:10439000CF93DF93EC010E9475218C01CE010E9426
:1043A000B021800F911FDF91CF911F910F91089540
:1043B00008955058BB27AA270E94F1210C9464232A
:1043C0000E94562338F00E945D2320F039F49F3F6D
:1043D00019F426F40C9453230EF4E095E7FB0C94A7
:1043E0004D23E92F0E94752358F3BA17620773070C
:1043F0008407950720F079F4A6F50C9497230EF422
:10440000E0950B2EBA2FA02D0B01B90190010C01E4
:10441000CA01A0011124FF27591B99F0593F50F4FC
:10442000503E68F11A16F040A22F232F342F442754
:10443000585FF3CF469537952795A795F04053954C
:10444000C9F77EF41F16BA0B620B730B840BBAF01C
:104450009150A1F0FF0FBB1F661F771F881FC2F787
:104460000EC0BA0F621F731F841F48F4879577959B
:104470006795B795F7959E3F08F0B0CF9395880F55
:1044800008F09927EE0F9795879508950E942923A4
:1044900008F481E008950E945F220C9464230E9436
:1044A0005D2358F00E94562340F029F45F3F29F025
:1044B0000C944D2351110C9498230C9453230E9477
:1044C000752368F39923B1F3552391F3951B550B8D
:1044D000BB27AA2762177307840738F09F5F5F4FD7
:1044E000220F331F441FAA1FA9F335D00E2E3AF016
:1044F000E0E832D091505040E695001CCAF72BD02E
:10450000FE2F29D0660F771F881FBB1F261737077E
:104510004807AB07B0E809F0BB0B802DBF01FF27B0
:1045200093585F4F3AF09E3F510578F00C944D231D
:104530000C9498235F3FE4F3983ED4F386957795E7
:104540006795B795F7959F5FC9F7880F911D969569
:10455000879597F90895E1E0660F771F881FBB1FC5
:10456000621773078407BA0720F0621B730B840B72
:10457000BA0BEE1F88F7E09508950E947D2388F01E
:104580009F5798F0B92F9927B751B0F0E1F0660F17
:10459000771F881F991F1AF0BA95C9F714C0B13058
:1045A00091F00E949723B1E008950C949723672F10
:1045B000782F8827B85F39F0B93FCCF38695779587
:1045C0006795B395D9F73EF4909580957095619570
:1045D0007F4F8F4F9F4F0895E89409C097FB3EF49B
:1045E00090958095709561957F4F8F4F9F4F992340
:1045F000A9F0F92F96E9BB279395F69587957795BE
:104600006795B795F111F8CFFAF4BB0F11F460FF7D
:104610001BC06F5F7F4F8F4F9F4F16C0882311F0D5
:1046200096E911C0772321F09EE8872F762F05C0E9
:10463000662371F096E8862F70E060E02AF09A9584
:10464000660F771F881FDAF7880F9695879597F979
:104650000895990F0008550FAA0BE0E8FEEF161613
:104660001706E807F907C0F012161306E407F50766
:1046700098F0621B730B840B950B39F40A2661F0DA
:10468000232B242B252B21F408950A2609F4A1407D
:10469000A6958FEF811D811D089597F99F6780E88A
:1046A00070E060E008959FEF80EC089500240A9484
:1046B0001616170618060906089500240A941216FD
:1046C0001306140605060895092E0394000C11F430
:1046D000882352F0BB0F40F4BF2B11F460FF04C0DD
:1046E0006F5F7F4F8F4F9F4F089557FD9058440F36
:1046F000551F59F05F3F71F04795880F97FB991F41
:1047000061F09F3F79F087950895121613061406FD
:10471000551FF2CF4695F1DF08C01616170618068A
:10472000991FF1CF86957105610508940895E89465
:10473000BB2766277727CB0197F908950E94292385
:1047400008F48FEF08950E94B6230C9464230E940E
:10475000562338F00E945D2320F0952311F00C942D
:104760004D230C94532311240C9498230E947523F9
:1047700070F3959FC1F3950F50E0551F629FF001B4
:10478000729FBB27F00DB11D639FAA27F00DB11DCD
:10479000AA1F649F6627B00DA11D661F829F222756
:1047A000B00DA11D621F739FB00DA11D621F839FDD
:1047B000A00D611D221F749F3327A00D611D231FB3
:1047C000849F600D211D822F762F6A2F11249F5701
:1047D00050409AF0F1F088234AF0EE0FFF1FBB1F04
:1047E000661F771F881F91505040A9F79E3F5105C3
:1047F00080F00C944D230C9498235F3FE4F3983E93
:10480000D4F3869577956795B795F795E7959F5F6C
:10481000C1F7FE2B880F911D9695879597F90895FE
:1048200097FB072E16F4009407D077FD09D00E945D
:10483000762407FC05D03EF4909581959F4F08950E
:10484000709561957F4F0895A1E21A2EAA1BBB1B9C
:10485000FD010DC0AA1FBB1FEE1FFF1FA217B3074C
:10486000E407F50720F0A21BB30BE40BF50B661F62
:10487000771F881F991F1A9469F760957095809526
:1048800090959B01AC01BD01CF010895052E97FBCA
:104890001EF400940E945D2457FD07D00E9424243A
:1048A00007FC03D04EF40C945D2450954095309550
:1048B00021953F4F4F4F5F4F08959095809570958C
:1048C00061957F4F8F4F9F4F0895EE0FFF1F05900B
:1048D000F491E02D09940E948A24A59F900DB49F25
:1048E000900DA49F800D911D11240895AA1BBB1B40
:1048F00051E107C0AA1FBB1FA617B70710F0A61BE0
:10490000B70B881F991F5A95A9F780959095BC0100
:10491000CD010895A29FB001B39FC001A39F700D68
:10492000811D1124911DB29F700D811D1124911DB7
:104930000895EF920F931F93CF93DF93E80147FD04
:1049400002C034E001C034E1E42F440FFF0BF7FF55
:1049500003C0F195E195F109E32E022F2E2FAE0150
:104960000E94F726CE01DF91CF911F910F91EF901A
:104970000895662777270C9485281F93FC019927B3
:104980008827BC01E89411911032E9F3193010F036
:104990001E30C8F31B3251F01D3249F4689406C032
:1049A0000E94ED24610F711D811D911D1191105305
:1049B0001A30B0F33EF490958095709561957F4FD5
:1049C0008F4F9F4F1F910895FB01DC018D91019046
:1049D00080190110D9F3990B0895592F482F372FBB
:1049E000262F660F771F881F991F660F771F881F56
:1049F000991F620F731F841F951F660F771F881FF3
:104A0000991F0895AEE0B0E0E8E0F5E20C94AE2B1B
:104A10000D891E8986E08C831A8309838FEF9FE7B7
:104A20009E838D83AE01475E5F4F6F89788DCE0187
:104A300001960E9425252F813885F801E20FF31F8A
:104A400010822E96E4E00C94CA2BACE0B0E0EBE2CE
:104A5000F5E20C94A02B7C016B018A01FC0117820A
:104A60001682838181FFBDC1CE0101964C01F70101
:104A70009381F60193FD859193FF81916F018823C6
:104A800009F4ABC1853239F493FD859193FF81918F
:104A90006F01853229F4B70190E00E94F12AE7CF37
:104AA000512C312C20E02032A0F48B3269F030F40C
:104AB000803259F0833269F420612CC08D3239F094
:104AC000803339F4216026C02260246023C028602E
:104AD00021C027FD27C030ED380F3A3078F426FF8B
:104AE00006C0FAE05F9E300D1124532E13C08AE0F9
:104AF000389E300D1124332E20620CC08E3221F4EA
:104B000026FD6BC1206406C08C3611F4206802C0FB
:104B1000883641F4F60193FD859193FF81916F01F1
:104B20008111C1CF982F9F7D9554933028F40C5F4D
:104B30001F4FFFE3F9830DC0833631F0833771F0E7
:104B4000833509F05BC022C0F801808189830E5F44
:104B50001F4F44244394512C540115C03801F2E0F6
:104B60006F0E711CF801A080B18026FF03C0652D77
:104B700070E002C06FEF7FEFC5012C870E94E62A2C
:104B80002C0183012C852F77222E17C03801F2E0EB
:104B90006F0E711CF801A080B18026FF03C0652D47
:104BA00070E002C06FEF7FEFC5012C870E94DB2A07
:104BB0002C012C852068222E830123FC1BC0832D11
:104BC00090E048165906B0F4B70180E290E00E94E8
:104BD000F12A3A94F4CFF50127FC859127FE8191C3
:104BE0005F01B70190E00E94F12A31103A94F1E0A0
:104BF0004F1A51084114510471F7E5C0843611F081
:104C0000893639F5F80127FF07C0608171818281FB
:104C100093810C5F1F4F08C060817181072E000CCB
:104C2000880B990B0E5F1F4F2F76722E97FF09C0CE
:104C300090958095709561957F4F8F4F9F4F20681D
:104C4000722E2AE030E0A4010E94292BA82EA81879
:104C500044C0853729F42F7EB22E2AE030E025C0EB
:104C6000F22FF97FBF2E8F36C1F018F4883579F016
:104C7000B4C0803719F0883721F0AFC02F2F2061E2
:104C8000B22EB4FE0DC08B2D8460B82E09C024FF57
:104C90000AC09F2F9660B92E06C028E030E005C0FC
:104CA00020E130E002C020E132E0F801B7FE07C0A9
:104CB00060817181828193810C5F1F4F06C060818A
:104CC000718180E090E00E5F1F4FA4010E94292BAC
:104CD000A82EA818FB2DFF777F2E76FE0BC0372D50
:104CE0003E7FA51450F474FE0AC072FC08C0372D34
:104CF0003E7E05C0BA2C372D03C0BA2C01C0B52C9E
:104D000034FF0DC0FE01EA0DF11D8081803311F4E6
:104D1000397E09C032FF06C0B394B39404C0832F18
:104D2000867809F0B39433FD13C030FF06C05A2CC7
:104D3000B31418F4530C5B18B32CB31468F4B70114
:104D400080E290E03C870E94F12AB3943C85F5CF45
:104D5000B31410F43B1801C0312C34FF12C0B7015A
:104D600080E390E03C870E94F12A3C8532FF17C027
:104D700031FD03C088E790E002C088E590E0B7010C
:104D80000CC0832F867859F031FF02C08BE201C03E
:104D900080E237FD8DE2B70190E00E94F12AA51470
:104DA00038F4B70180E390E00E94F12A5A94F7CFDB
:104DB000AA94F401EA0DF11D8081B70190E00E94F0
:104DC000F12AA110F5CF332009F451CEB70180E2CA
:104DD00090E00E94F12A3A94F6CFF70186819781FC
:104DE00002C08FEF9FEF2C96E2E10C94BC2B4F9208
:104DF0005F926F927F929F92AF92BF92CF92DF921B
:104E0000EF92FF920F931F93CF93DF93CDB7DEB74F
:104E100029970FB6F894DEBF0FBECDBF6A01122FDF
:104E2000B02E2BE3201720F0FF24F394F00E02C0E5
:104E3000BCE3FB2E0F2D27E0AE014F5F5F4F0E94BA
:104E4000E229AC018981982F9970913031F0E1FC11
:104E500006C0E0FE06C090E205C09DE203C09BE2F2
:104E600001C090E0EE2DE07183FF3CC0911102C0C3
:104E700083E001C084E0811718F4212F281B01C0B2
:104E800020E0E1110BC0F601822F30E2882319F0F7
:104E900031938150FBCFC20ED11C20E0992329F021
:104EA000D6019C93F60131966F01C6010396E2FE8E
:104EB0000AC03EE4D6013C9341E411964C9311970D
:104EC00012963C9306C03EE6F601308341E64183EC
:104ED0003283FC01322F40E2332309F442C0419374
:104EE0003150FACF82FF44C0911102C083E001C06B
:104EF00084E0811718F4212F281B01C020E0E11164
:104F00000BC0F601822F30E2882319F031938150D3
:104F1000FBCFC20ED11C20E0992329F0D6019C932F
:104F2000F60131966F01C6010396E2FE0BC039E42B
:104F3000D6013C933EE411963C93119736E41296C9
:104F40003C9307C039E6F60130833EE6318336E60E
:104F50003283FC01322F40E2332319F04193315068
:104F6000FBCFFC01E20FF11D10828EEF9FEFB7C067
:104F7000F1E0911101C0F0E06F2F70E014161506FA
:104F800024F49A012F5F3F4F02C021E030E0260F4A
:104F9000371FBB2029F06B2D70E06F5F7F4F02C081
:104FA00060E070E0260F371F612F70E0261737078B
:104FB0001CF4121B212F01C020E03E2D387159F442
:104FC000D601322F60E2332319F06D933150FBCFBD
:104FD000C20ED11C20E0FF2331F0D6019C93B60114
:104FE0006F5F7F4F6B01E1110BC0F601922F30E331
:104FF000992319F031939150FBCFC20ED11C20E0C0
:105000009F2D940F3A81782F7071A72E84FF03C0D3
:10501000313309F49150191624F4993018F098E0BE
:1050200001C091E0E42F852F57FF02C0E0E080E04F
:105030006E2F782FE0E0F0E0AEE29A2E3A01691A86
:1050400071082A01461A570A0B2D10E01195019597
:1050500011096F3F8FEF780729F4D6019C92C601A2
:1050600001966C014617570784F0661677066CF4B4
:105070007F01E40CF51CA1E0B0E0AC0FBD1FEA0E0F
:10508000FB1ED7011196BC9002C090E3B92E61506F
:1050900071093196C60101967C016017710724F0F1
:1050A000D601BC926C01D5CF6417750741F4363335
:1050B00020F4353321F4A11002C081E3B82EF601AB
:1050C000B082F701822F90E2882319F091938150EA
:1050D000FBCFF701E20FF11D108280E090E02996EE
:1050E0000FB6F894DEBF0FBECDBFDF91CF911F91F9
:1050F0000F91FF90EF90DF90CF90BF90AF909F9077
:105100007F906F905F904F900895A0E0B0E0EBE843
:10511000F8E20C94A42BEC017B016115710519F0E8
:10512000DB018D939C938E010F5F1F4F7880872D3D
:1051300090E00E94BA2A892B11F0E801F4CFBDE279
:105140007B1205C00F5F1F4F7980C1E008C0EBE202
:105150007E1204C08E010E5F1F4F7980C0E068018F
:10516000F1E0CF1AD10843E050E064E072E0C601FC
:105170000E94C32A892BF1F4680122E0C20ED11CDF
:1051800045E050E06FEF71E0C6010E94C32A892B11
:1051900021F4680187E0C80ED11CE114F10419F074
:1051A000D701CD92DC92C111FFC060E070E080E8D1
:1051B0009FE703C143E050E06CEF71E0C6010E943D
:1051C000C32A892B51F4E114F10409F4F2C00E5FF3
:1051D0001F4FF70111830083ECC0680160E070E0AD
:1051E000CB0100E010E0F601D0EDD70DDA3058F534
:1051F0002C2F2260622E2C2F2870C2FF05C0211197
:1052000028C00F5F1F4F25C0222311F00150110944
:10521000A5E0B0E09B01AC010E946B244B015C0156
:10522000880C991CAA1CBB1CC501B4016D0F711D13
:10523000811D911D6839A9E97A078A07A9E19A07B2
:1052400040F0C66005C0DE3F51F4C3FD44C0C860F5
:105250006C2EBFEFCB1ADB0A7080C62DC4CF2D2F6A
:105260002F7D2531C1F540814D3211F4C06106C05A
:105270004B3221F0319621E030E006C03296D60163
:1052800011964C9122E030E0A0EDA40FAA3018F066
:10529000E21BF30B20C040E050E04038BCE05B076D
:1052A0005CF49A01220F331F220F331F420F531F4A
:1052B000440F551F4A0F511D3196DF0111972C9154
:1052C000A0EDA20FAA3048F3C4FF03C05195419549
:1052D0005109040F151FC1FF07C0E114F10421F0AB
:1052E0003197D701ED93FC930E94EC22C370C33039
:1052F00019F06B017C0106C06B017C01F7FAF09498
:10530000F7F8F09420E030E0A901C701B6010E944F
:105310004622882309F445C017FF06C01195019560
:105320001109CBE1D2E002C0C3E3D2E05E01B8E1F3
:10533000AB1AB1084601BE2DAF2D90E2E92EF12C3B
:105340000E151F0584F0FE0125913591459154916C
:10535000B4018B2F9A2F0E94A3234B01B82FA92FA2
:105360000E191F09EDCF2497F594E794CA15DB05B4
:1053700039F76401EB2EFA2E8E2D880F8F2D881FA2
:105380008F3F49F020E030E0A901C701B6010E943B
:105390004622811106C082E290E090931F0680931E
:1053A0001E06C701B60109C060E070E080E89FEF0B
:1053B00004C060E070E080EC9FE7CDB7DEB7EEE0C0
:1053C0000C94C02B283008F027E03327DA01990F1E
:1053D000311D87FD916000966105710539F43260D9
:1053E0002E5F3D9330E32A95E1F708959F3F30F01B
:1053F00080387105610509F03C5F3C5F3D93913059
:1054000008F08068911DDF93CF931F930F93FF9255
:10541000EF92192F987F9695E92F96959695E90F1B
:10542000FF27EF56FD4F99273327EE24FF24A701CE
:10543000E70105900894079428F4360FE71EF81E3C
:10544000491F511D660F771F881F991F0694A1F7EA
:105450000590079428F4E70EF81E491F561FC11D3A
:10546000770F881F991F661F0694A1F70590079470
:1054700028F4F80E491F561FC71FD11D880F991F0A
:10548000661F771F0694A1F70590079420F4490F33
:10549000561FC71FD81F990F661F771F881F0694B6
:1054A000A9F784911095177041F0D695C795579537
:1054B0004795F794E7941A95C1F7E7E3F2E068940B
:1054C0001590159135916591959105907FE27395B1
:1054D000E118F10A430B560BC90BD009C0F7E10CD8
:1054E000F11E431F561FC91FD01D7EF4703311F4E7
:1054F0008A95E6CFE894015030F0080F0AF40027AF
:10550000021708F4202F2395022F7A3328F079E32D
:105510007D932A95E9F710C07D932A9589F6069424
:1055200097956795379517951794E118F10A430BEE
:10553000560BC90BD00998F023957E9173957A3359
:1055400008F070E37C932013B8F77E9170617D932F
:1055500030F0839571E37D9370E32A95E1F7112490
:10556000EF90FF900F911F91CF91DF91992787FDC9
:105570009095089591110C94872B803219F08950E1
:105580008550C8F70895FB01DC014150504088F078
:105590008D9181341CF08B350CF4805E6591613403
:1055A0001CF06B350CF4605E861B611171F3990B76
:1055B0000895881BFCCFFC010590615070400110DC
:1055C000D8F7809590958E0F9F1F0895FC0161502C
:1055D000704001900110D8F7809590958E0F9F1F15
:1055E00008950F931F93CF93DF93FB01238121FD38
:1055F00003C08FEF9FEF28C022FF16C0468157815E
:10560000248135814217530744F4A081B1819D0163
:105610002F5F3F4F318320838C93268137812F5F0B
:105620003F4F3783268310C0EB01092F182F0084CA
:10563000F185E02D0995892BE1F68E819F810196F8
:105640009F838E83812F902FDF91CF911F910F9198
:105650000895FA01AA27283051F1203181F1E89408
:105660006F936E7F6E5F7F4F8F4F9F4FAF4FB1E055
:105670003ED0B4E03CD0670F781F891F9A1FA11D50
:10568000680F791F8A1F911DA11D6A0F711D811D51
:10569000911DA11D20D009F468943F912AE0269F16
:1056A00011243019305D3193DEF6CF010895462F75
:1056B0004770405D4193B3E00FD0C9F7F6CF462F56
:1056C0004F70405D4A3318F0495D31FD40524193BF
:1056D00002D0A9F7EACFB4E0A6959795879577957C
:1056E0006795BA95C9F700976105710508959B0103
:1056F000AC010A2E06945795479537952795BA958C
:10570000C9F7620F731F841F951FA01D0895992765
:1057100088270895F999FECF92BD81BDF89A9927FF
:1057200080B50895262FF999FECF1FBA92BD81BD8D
:1057300020BD0FB6F894FA9AF99A0FBE0196089513
:105740002F923F924F925F926F927F928F929F9291
:10575000AF92BF92CF92DF92EF92FF920F931F937F
:10576000CF93DF93CDB7DEB7CA1BDB0B0FB6F89430
:10577000DEBF0FBECDBF09942A88398848885F8470
:105780006E847D848C849B84AA84B984C884DF80E1
:10579000EE80FD800C811B81AA81B981CE0FD11DC5
:1057A0000FB6F894DEBF0FBECDBFED01089511E036
:1057B000CAE9D1E004C0FE010E9465242196CB39DC
:0857C000D107C9F7F894FFCFEF
:1057C8000141542B50494E25303464007700610064
:1057D800204C0020560000000000780398030000C9
:1057E8000000FC01F101DC01DF0100000000E10321
:1057F800EC01E2010000000007024202A802A50233
:10580800AB02E21800000000AE024502E501E90122
:1058180000000000EA049C04E501E9010000000022
:1058280016194A218319F5186B196A190D0A006EA1
:0E583800616E00696E66006F7666002E0000DD
:00000001FF
