:100000000C9436020C945E020C945E020C94FD1A61
:100010000C94FD1A0C94FD1A0C945E020C945E0272
:100020000C945E020C945E020C945E020C945E02D0
:100030000C945E020C945E020C945E020C945E02C0
:100040000C94B31A0C945E020C9425190C94FF18AE
:100050000C945E020C945E020C945E020C945E02A0
:100060000C945E020C945E0253206A206D2097204F
:100070009A209D20A020A320A720C620E5200821AB
:100080007A227A220C212921462165218221A5216B
:10009000C821EB210A22292240225D229F22C5226B
:1000A000EE22172340237123AA23DB230C243D24B3
:1000B0006E249F24D02405254E414E494E49545963
:1000C000494E46CDCCCC3D0AD7233C17B7D1387723
:1000D000CC2B329595E6241FB14F0A000020410039
:1000E00000C84200401C4620BCBE4CCA1B0E5AAE83
:1000F000C59D7400407A10F35A00A0724E18090092
:1001000010A5D4E80000E87648170000E40B54027C
:100110000000CA9A3B000000E1F5050000809698B7
:1001200000000040420F000000A086010000001007
:100130002700000000E80300000000640000000049
:10014000000A00000000000100000000002C76D82A
:1001500088DC674F0823DFC1DFAE59E1B1B796E510
:10016000E3E453C63AE651997696E8E6C28426EB74
:10017000898C9B62ED407C6FFCEFBC9C9F40F2BA87
:10018000A56FA5F490055A2AF75C936B6CF9676D1F
:10019000C11BFCE0E40D47FEF520E6B500D0ED9074
:1001A0002E0300943577050080841E080000204E41
:1001B0000A000000C80C333333330F986E128311DA
:1001C00041EF8D2114893BE65516CFFEE6DB18D1B1
:1001D000844B381BF77C1D901DA4BBE42420328483
:1001E000725E228100C9F124ECA1E53D275E010188
:1001F0001F0103030100008A02010A01020201003B
:100200000064001E47040B090600007C0101060182
:100210000303010000F401060E010202010000C206
:1002200001170101020201010000000000000101AC
:10023000000000726E723A00626F6E3A00626D6783
:100240003A006270663A0062706E3A00626B643A1D
:1002500000626B693A00626B703A006261743A0046
:100260006269743A006274643A006273743A0062BC
:1002700062633A006268613A00626E723A007370BB
:10028000733A00736F683A00736C733A00736C735F
:100290003A00736E723A007370773A0073626C3A88
:1002A000007373753A007373613A007373623A00B6
:1002B0007373703A007373723A007373743A007315
:1002C00070643A007370743A00736B6D3A00737027
:1002D000693A003A006D61006D64007200200020F0
:1002E0004B00205700204F002044002042003000E7
:1002F00031002048002053002051002047002049B1
:1003000000204E004100300031003000310000007C
:100310000000250028002B0000000000230026001C
:100320002900040404040404040402020202020278
:1003300003030303030301020408102040800102A9
:1003400004081020010204081020005EBCE2613F96
:10035000DD83C29C7E20A3FD1F419DC3217FFCA2A3
:10036000401E5F01E3BD3E6082DC237D9FC1421CD5
:10037000FEA0E1BF5D0380DE3C62BEE0025CDF8187
:10038000633D7C22C09E1D43A1FF4618FAA4277935
:100390009BC584DA3866E5BB5907DB856739BAE463
:1003A00006581947A5FB7826C49A653BD987045A95
:1003B000B8E6A7F91B45C6987A24F8A6441A99C747
:1003C000257B3A6486D85B05E7B98CD2306EEDB3F5
:1003D000510F4E10F2AC2F7193CD114FADF3702E23
:1003E000CC92D38D6F31B2EC0E50AFF1134DCE9055
:1003F000722C6D33D18F0C52B0EE326C8ED0530D07
:10040000EFB1F0AE4C1291CF2D73CA947628ABF5B4
:1004100017490856B4EA6937D58B5709EBB53668E2
:100420008AD495CB2977F4AA4816E9B7550B88D614
:10043000346A2B7597C94A14F6A8742AC896154BC6
:10044000A9F7B6E80A54D7896B35000000002400EC
:1004500027002A0000000008000201000003040732
:1004600000000000000000000227F42611241FBE37
:10047000CFEFD8E0DEBFCDBF27E0ACEAB1E001C0EE
:100480001D92A330B207E1F711E0A0E0B1E0E4EC87
:10049000F7E602C005900D92AC3AB107D9F712E029
:1004A000C5E3D2E004C02197FE010E940C31C433A1
:1004B000D107C9F70E942F1D0C94D5330C9400006E
:1004C000FC0186810895FC01878117820895FC0153
:1004D000168217820895CF93DF93EC016C96CE01BC
:1004E0000E948A18892B29F0CE01DF91CF910C94BC
:1004F000A21880E090E0DF91CF910895CF93DF9331
:10050000EC011E821F8208960E941411CE014B96A8
:10051000DF91CF910C9414112F923F924F925F92E2
:100520006F927F928F929F92AF92BF92CF92DF9203
:10053000EF92FF920F931F93CF93DF9300D000D0E1
:10054000CDB7DEB79C838B834A015B0168017901DB
:10055000DC0116968C91169714962D903C90159769
:100560001296ED91FC911397FA83E9838823C9F1E0
:1005700087E2829D8001839D100D11240E0F1F1FA5
:10058000F801E05CFF4FD801A45BBF4F2D913D9176
:100590004D915C9160817181828193810E94A52F30
:1005A0002B013C01F801E05BFF4F2081318142814A
:1005B0005381C701B6010E947C2E9B01AC01C3018F
:1005C000B2010E94A42F9B01AC0111E0C501B4014E
:1005D0000E94B23018160CF010E081E0912E98269F
:1005E00037C087E2829D8001839D100D11242981EF
:1005F0003A81020F131FF801E05CFF4FD801A85B9E
:10060000BF4F2D913D914D915C91608171818281AF
:1006100093810E94A52F2B013C01F801E05BFF4F65
:100620002081318142815381C701B6010E947C2E15
:100630009B01AC01C301B2010E94A42F9B01AC013C
:10064000C501B4010E94162E982E991C9924991C5C
:1006500027E2229DC001239D900D1124A981BA811A
:100660008A0F9B1FFC01E45AFF4F20813181211525
:10067000310511F1329680819181892BE9F00B814E
:100680001C81085F1F4F992009F4B2C0EB81FC81E7
:10069000818D882309F45BC084899589A689B789EF
:1006A00084879587A687B787C8010E940211C80171
:1006B0000E94D410811159C0EB81FC81A480B580C7
:1006C0000281138187E28A9DF0018B9DF00D112438
:1006D000E00FF11FE05AFF4F40805180628073802D
:1006E00020E030E0A901C301B2010E94B230181627
:1006F00044F4A7019601C301B2010E94162E87FDA2
:10070000912C27E22A9DC0012B9D900D1124080FEA
:10071000191FD801A45BBF4FF801E85BFF4F208190
:100720003181428153816D917D918D919C910E9487
:10073000162E87FD67C0AB81BC8116968C911697EB
:10074000891509F462C081E017968C935EC048EE6B
:1007500053E0249FC001259F900D349F900D1124DC
:10076000A0E0B0E0EB81FC819BCFAB81BC81129615
:10077000ED91FC91139714962D913C91159747E2BA
:10078000429FC001439F900D1124E80FF91FE25AC8
:10079000FF4F208131815D01BBE1AB0EB11CEB81CC
:1007A000FC8184A5882349F087A190A5A1A5B2A5C5
:1007B000878F90A3A1A3B2A313C088EE93E0289FD4
:1007C000A001299F500D389F500D112460E070E06A
:1007D000AB81BC815F964D935D936D937C939297B3
:1007E000C5010E940211C5010E94D410882341F066
:1007F000C8010E9414118B819C814B960E94141198
:10080000912C5ACF81E0982696CFEB81FC8196827D
:10081000892D0F900F900F900F90DF91CF911F9126
:100820000F91FF90EF90DF90CF90BF90AF909F908F
:100830008F907F906F905F904F903F902F90089592
:100840002F923F924F925F926F927F928F929F92E0
:10085000AF92BF92CF92DF92EF92FF920F931F93CE
:10086000CF93DF93CDB7DEB72E970FB6F894DEBFE8
:100870000FBECDBF9E878D874C0181E4880E911CF1
:10088000D4014D935D936D937C931397AD84BE8497
:10089000B9E4AB0EB11CAD85BE851296ED91FC910D
:1008A000139714962D913C91159747E2429FC001F2
:1008B000439F900D1124E80FF91FE05CFF4F8081EA
:1008C0009181A281B381F50180839183A283B38357
:1008D0000E94A71AED85FE85E35BFF4F0081118121
:1008E000228133816B017C01C01AD10AE20AF30A2A
:1008F000AD85BE8512960D911C911397F401208150
:10090000318142815381D5016D917D918D919C9171
:100910000E94A42FF80122893389448955890E94B5
:10092000162E87FFFCC0ED85FE85E05CFF4F8081C1
:10093000882309F407C10E94A71A69837A838B83ED
:100940009C83ED85FE8580A591A5A2A5B3A54981CF
:100950005A816B817C81481B590B6A0B7B0B84A9E4
:1009600095A9A6A9B7A9481759076A077B0708F4EC
:10097000E9C002A0F3A1E02D408051806280738025
:10098000AD85BE859696ED91FC919797A301920156
:1009900060817181828193810E94A42F6D837E8307
:1009A0008F839887ED85FE85208D318D428D538D07
:1009B0000E947C2EAD85BE859C962D913D914D91DA
:1009C0005C919F970E94A52F4B015C01ED85FE85F0
:1009D00064A775A786A797A714AD05AD36AC27AC5D
:1009E000212F302F432D522D0E94B23018162CF497
:1009F000812F902FA32DB22D18C0AD85BE85D8961E
:100A00008D919D910D90BC91A02D89879A87AB8780
:100A1000BC879C01AD01C501B4010E94162E87FF61
:100A20000AC089859A85AB85BC85ED85FE8584A73E
:100A300095A7A6A7B7A7AD85BE8554962D913D91E4
:100A40004D915C9157976D817E818F8198850E9431
:100A50007C2EED85FE8524A535A546A557A50E94CB
:100A6000A52F4B015C01AD85BE85D0962D913D91A2
:100A70004D915C91D397C301B2010E94A42FED85E3
:100A8000FE85248D358D468D578D0E947C2E9B01D1
:100A9000AC01C501B4010E94A42F4B015C01212FC0
:100AA000302F432D522D0E94B2301816DCF0AD8548
:100AB000BE85D8961C91D897D9960C91D997DA967D
:100AC0003C90DA97DB962C90212F302F432D522D1E
:100AD000B401C5010E94162E87FD04C0182D092DF2
:100AE0003A2C2B2CAD85BE859496ED91FC91959773
:100AF000812F902FA32DB22D80839183A283B38366
:100B0000ED85FE8540AA51AA62AA73AA89819A81BD
:100B1000AB81BC8180A791A7A2A7B3A713C0AD8466
:100B2000BE84F5E4AF0EB11CD8011E966D917C9188
:100B30001F9780E090E00E941B2EF5016083718377
:100B400082839383AD85BE851296ED91FC911397B8
:100B50006685778580E090E00E941B2E4B015C014A
:100B6000C701B6010E941B2EA50194010E94B2305C
:100B70001816D4F40D851E85035B1F4FF8016081A4
:100B80007181828193810E941B2EA50194010E9494
:100B9000A52F0E948330D8016D937D938D939C93F4
:100BA0001397C12CD12C7601C701B6010E941B2ED0
:100BB0009B01AC01ED85FE85EB5BFF4F6081718190
:100BC000828193810E94B230ED85FE85968187FDFA
:100BD0000AC0911102C081E0878381E0AD85BE85A6
:100BE00016968C930AC0992321F081E0ED85FE854D
:100BF0008783AD85BE8516961C92ED85FE85868120
:100C00002E960FB6F894DEBF0FBECDBFDF91CF9109
:100C10001F910F91FF90EF90DF90CF90BF90AF901A
:100C20009F908F907F906F905F904F903F902F900C
:100C300008952F923F924F925F926F927F928F9280
:100C40009F92AF92BF92CF92DF92EF92FF920F935B
:100C50001F93CF93DF9300D000D0CDB7DEB71C0138
:100C6000DC0116961C92169717961C9217971296EF
:100C70000D911C911397F801C088D1881C141D0494
:100C8000F4F50D2C000CEE08FF08C701B6010E9418
:100C90001D2E4B015C01D101D4966D917D918D91FA
:100CA0009C91D7970E941B2E9B01AC01C501B401FA
:100CB0000E9411304B015C019B01AC01F101608D80
:100CC000718D828D938D0E947C2ED10158966D93EB
:100CD0007D938D939C935B97A50194015C966D9198
:100CE0007D918D919C915F970E941130F101648FED
:100CF000758F868F978FC4AAD5AAE6AAF7AAF101A5
:100D00002481358147E2429FC001439F900D112409
:100D1000800F911FFC01E85AFF4FC080D180E28014
:100D2000F380349780809180A280B3803497408094
:100D300051806280738020E030E0A901C301B201DC
:100D40000E94162E87FD85C020E030E0A901C50174
:100D5000B4010E94162E87FD7CC020E030E0A9017E
:100D6000C701B6010E94162E87FD73C0D1011896E7
:100D70004D925D926D927C921B97F10184869586CF
:100D8000A686B7865096CD92DD92ED92FC9253974F
:100D9000D4966D917D918D919C91D7970E941B2E39
:100DA00020E030E04AE754E40E94113069837A83FE
:100DB0008B839C83F101448A558A668A778A9B01DA
:100DC000AC01C501B4010E947C2E4B015C01D10134
:100DD00058966D937D938D939C935B9729813A816F
:100DE0004B815C81C701B6010E9411306B017C010F
:100DF000F101648F758F868F978F80A191A10197E4
:100E000041F5A301920160E070E0CB010E94A42FA4
:100E1000D10154966D937D938D939C935797A50123
:100E2000940160E070E0CB010E94A42FF101608F7B
:100E3000718F828F938FA701960160E070E0CB01E4
:100E40000E94A42FD1015C966D937D938D939C930A
:100E50005F97F8016685778580E090E00E941B2E01
:100E60006B017C0120E030E0A9010E94162E810177
:100E7000005C1F4F18160CF05EC0D101D8961D9271
:100E80001D921D921C92DB97F101C4AED5AEE6AE69
:100E9000F7AED8018C91882309F44DC0A4A0B5A069
:100EA000F5014080518062807380A7019601C301E3
:100EB000B2010E94B23018163CF4D501CD92DD92F9
:100EC000ED92FC9213970EC020E030E0A901C3011F
:100ED000B2010E94162E87FF05C0F5011082118213
:100EE00012821382D1019C968D909D90AD90BC9002
:100EF0009F97DC96CD90DD90ED90FC90DF97A70159
:100F00009601C501B4010E94B23018167CF0D101DF
:100F1000D896CD90DD90ED90FC90DB97A7019601DF
:100F2000C501B4010E94162E87FF05C0F101C4A6B9
:100F3000D5A6E6A6F7A6D8018C9181113AC0D101B9
:100F40009496ED91FC919597C080D180E280F380DA
:100F5000F101C4A6D5A6E6A6F7A602A0F3A1E02D4E
:100F600080819181A281B381F10180AB91ABA2AB71
:100F7000B3AB84AC95ACA6ACB7ACA5019401C701EA
:100F8000B6010E94B23018166CF0F10180AC91AC41
:100F9000A2ACB3ACA5019401C701B6010E94162E04
:100FA00087FF07C0D1019C968D929D92AD92BC9215
:100FB0009F9781E0F80180830E94A71AF101E35B0B
:100FC000FF4F60837183828393830F900F900F9004
:100FD0000F90DF91CF911F910F91FF90EF90DF90D5
:100FE000CF90BF90AF909F908F907F906F905F90C9
:100FF0004F903F902F900895CF93DF93EC016C9624
:10100000CE010E94EA1864E871E0CE01DF91CF9131
:101010000C94EA184C960C94EA18CF93DF93EC01E9
:101020006C96CE010E94C61864E871E0CE01DF9193
:10103000CF910C94EA184C960C94C618FC01908140
:101040000180F281E02DF8948181892B81832281B6
:10105000892F809528232283A7E0B0E01197F1F72C
:10106000218182238183A3E2B0E01197F1F780818F
:101070007894EFECF0E03197F1F7982381E009F4F0
:1010800080E00895FC0190810180F281E02D892F9C
:10109000809560FF12C0F89422818223828381812F
:1010A000892B8183A3E2B0E01197F1F78281982B1D
:1010B0009283789487ED90E011C0F8942281822386
:1010C00082838181892B8183AFEFB0E01197F1F7A3
:1010D0008281982B928378948FE090E00197F1F7CA
:1010E0000895FC0190810180F281E02DF8948181C6
:1010F000292F20958223818378948DE743E050E067
:10110000815021F1DA011197F1F730813923C1F3D0
:10111000F8948281822382838181892B81837894D0
:10112000ABE7B7E01197F1F7F89481812823218389
:10113000A3E1B1E01197F1F78081982381E009F0F4
:1011400080E07894E3E6F6E03197F1F708958F9226
:101150009F92AF92BF92CF92DF92EF92FF920F9346
:101160001F93CF93DF93DC015E962C912111FEC17A
:10117000F62EEC018C01015E1F4FC8010E94021186
:10118000C8010E94D410882309F408C1C8010E9434
:10119000141188859985DC01ED91FC910190F08115
:1011A000E02D09954B015C0169AF7AAF8BAF9CAF25
:1011B00020E030E040EF52EC0E94162E0E5D1F4FF3
:1011C00087FF04C084E0F801808302C0D8011C922C
:1011D000E885F9858681DF0194E0899FA00DB11D26
:1011E000112417968D929D92AD92BC921A978F5FA3
:1011F0008F3010F4868301C016826E01A2E4CA0EFD
:10120000D11CF6018081811109C049AD5AAD6BAD89
:101210007CAD35974083518362837383FF2051F007
:10122000E885F9859681911105C0E881F98195A538
:10123000911146C18E819F81DC01ED91FC91068068
:10124000F781E02D0995811102C0F6011082E88135
:10125000F98195A5D6018C91981790F41C92FE0106
:10126000FD96208131814281538169AD7AAD8BAD8C
:101270009CAD0E94162E18161CF083E0F8018083A6
:101280008E819F81DC01ED91FC910480F581E02D40
:101290000995811119C18C819D81DC01ED91FC9131
:1012A0000480F581E02D099581110EC18AA98F5F17
:1012B000823010F48AAB72C01AAACA80DB80F601B1
:1012C00080810E944B1ABC01990F880B990B0E94D8
:1012D0001D2E2FEC32ED47EA5CE30E947C2ED601F6
:1012E0001196ED91FC91129723A134A145A156A12D
:1012F0000E94162E881F8827881F8EAB882319F01E
:1013000081E0F8018083FF2079F1AE81BF811296E0
:10131000ED91FC91139714968D919C91159727E26E
:10132000289F6001299FD00C1124CE0EDF1E80E47F
:10133000C80ED11C64A570E080E090E00E941D2ED4
:10134000D6012D913D914D915C910E94A52F9B015D
:10135000AC0169AD7AAD8BAD9CAD0E94B230181670
:101360001CF482E0F80180832DA98A859B852223C5
:1013700071F0FF2061F0D8012C91211108C0DC012F
:10138000ED91FC910190F081E02D09950AC0DC01FE
:10139000ED91FC910280F381E02D0995FF2009F485
:1013A000E5C0C9ACDAACEBACFCACE881F981848176
:1013B000882371F08C819D81DC01ED91FC9101907D
:1013C000F081E02D00E010E09801B701A60136C0E1
:1013D0008E809F80D401ED91FC91A080B180E88542
:1013E000F9852681422F50E0211107C0DF01DF96E9
:1013F0006D917D918D919C910EC0DA011197AA0F8C
:10140000BB1FAA0FBB1FAE0FBF1F17966D917D911B
:101410008D919C911A979A01220F331F220F331F2F
:10142000E20FF31F27813085418552850E94A42F4A
:101430008B019C01B701A601C401F50109958DAB93
:101440008CA9811139C0EE81FF81448155812281AF
:10145000338117E2149FC001159F900D1124820F54
:10146000931FDC01A45BBF4FFC01E85BFF4F2081B1
:101470003181428153816D917D918D919C910E942A
:10148000162EE881F9812FA938AD87FD20C0129F63
:10149000C001139F900D1124E80FF91FE05CFF4F6E
:1014A0002081318142815381C701B6010E94B2304F
:1014B00087FD02C081E08CAB8CA981111CC056C095
:1014C0008F5FD6018C93B6CE82E08AABEFCE129FAF
:1014D000C001139F900D1124E80FF91FE05CFF4F2E
:1014E0002081318142815381C701B6010E94162EAD
:1014F000181604F7E1CFE881F9812FA938AD47E24A
:10150000429FC001439F900D1124E80FF91FEC5B2F
:10151000FF4F2081318142815381A0E6BAEE0E94C3
:10152000532F8E01045F1F4F2D8D222349F0888D8C
:10153000998DAA8DBB8D888B998BAA8BBB8B04C090
:10154000688B798B8A8B9B8BC8010E940211C80122
:10155000DF91CF911F910F91FF90EF90DF90CF908F
:10156000BF90AF909F908F900C94D41080E0DF914B
:10157000CF911F910F91FF90EF90DF90CF90BF9090
:10158000AF909F908F9008950F931F93CF93DF9309
:10159000EC018E8D882391F01E8E0E94A71A0C8973
:1015A0001D892E893F89DC01CB01801B910BA20B89
:1015B000B30B8C879D87AE87BF8712C081E08E8F6B
:1015C0000E94A71A0C851D852E853F85DC01CB0165
:1015D000801B910BA20BB30B8C8B9D8BAE8BBF8BA7
:1015E000DF91CF911F910F910895CF93DF93EC017D
:1015F0001BAA1CAA1DAA8A859B85DC01ED91FC9182
:101600000280F381E02D099518AE1FAACE010C9639
:101610000E94141188859985DC01ED91FC9101905F
:10162000F081E02D099569AF7AAF8BAF9CAFE8856B
:10163000F9851682DF011796ED5BFF4F6D937D9361
:101640008D939D93AE17BF07C9F782E08AABFE0169
:10165000EF5BFF4F1082CE5BDF4F1882DF91CF919F
:1016600008950F931F93CF93DF93EC018B010E949A
:10167000F50A18AF0FAB8C819D81DC0115961C9388
:101680000E931497ED91FC910280F381E02D099562
:101690002FA938AD8E819F81FC0135832483019071
:1016A000F081E02D0280F381E02DDF91CF911F9139
:1016B0000F910994FC0185810895FC0183810895AF
:1016C000FC0184810895FC018481811105C083811E
:1016D000882311F081E0848313820895FC018481C2
:1016E000811105C08381811102C081E0848381E082
:1016F000838308958F929F92AF92BF92EF92FF9251
:101700000F931F93CF93DF93CDB7DEB761970FB6DB
:10171000F894DEBF0FBECDBF8C017C0143E4E40E24
:10172000F11CF701A080B18040E0BE01665F7F4FF1
:10173000C5010E949A1B811107C0812C912CFEEFDC
:10174000AF2EF2ECBF2E4DC0AE014F5F5F4FBE011A
:10175000665F7F4FC5010E94CE1C882359F16981C5
:10176000F8E06F9FB00111248A81282F30E0322FDA
:101770002227330F330F330F262B372B8A858031E7
:10178000E1F4688570E08F81AB01481B5109CA0103
:101790009695982F8827979587950E94B730605126
:1017A0007109207F53E0220F331F5A95E1F7620F32
:1017B000731F04C060E874EE01C0B901613854EED3
:1017C00075070CF4BACF072E000C880B990B0E94FA
:1017D0001D2E20E030E040E05CE30E947C2E4B01B7
:1017E0005C01F701808191810E94181CF80103813E
:1017F0001481F8012681378140855185C501B401E6
:101800000E947C2EF80122853385448555850E94EF
:10181000A52F61960FB6F894DEBF0FBECDBFDF9146
:10182000CF911F910F91FF90EF90BF90AF909F903D
:101830008F9008958F929F92AF92BF92CF92DF9236
:10184000EF92FF920F931F93CF93DF93CDB7DEB745
:1018500062970FB6F894DEBF0FBECDBF7C0160E08B
:10186000DC0112968C910E94B019B3E4EB0EF11CCE
:10187000F70100811181D8011596ED91FC91169721
:10188000138615861486DF011B9633961E92AE17BB
:10189000BF07E1F7F8011482DD24D394BE01665F2F
:1018A0007F4FF801858196810E948D12882309F46B
:1018B00062C067E0CE010A960E948D1B9989891348
:1018C000EDCFD8018C91811127C015968D919C91F7
:1018D00016970E947108BE01665F7F4FF8018581EF
:1018E00096810E94471C40E064EBD80115968D91CB
:1018F0009C9116970E94D61BF801858196810E94C3
:101900001E08C82ED80115968D919C9116970E949D
:101910007108CC2009F4ECC0F801858196810E9401
:101920007108882349F0AE014F5F5F4FBE01665FCB
:101930007F4FC8010E94741CD8011196CC90BE0143
:10194000665F7F4FC8010E94FD1C8C1518F4F801DA
:10195000818106C0BE01665F7F4FC8010E94FD1CE9
:10196000D80111968C93119714968C9114978F5FD0
:1019700014968C9393CFD7010D911C918BE0F801B5
:101980008183C12CD12C8FE5B82E9FE7A92E2FE1A2
:10199000922E3FE3832ED80114968C9190E0C816C6
:1019A000D9060CF08AC04C2DBE01665F7F4FC8017E
:1019B0000E949A1BD80111962C91AE014F5F5F4F88
:1019C000BE01665F7F4FC8012A8B0E94CE1C2A8908
:1019D000882309F46EC08A85803109F46AC02B30EF
:1019E00041F02C3021F02A3031F48D8205C0AD82D7
:1019F00003C0BD8201C09D82F801858196810E944D
:101A00007108BE01665F7F4FD80115968D919C913C
:101A100016970E94471C40E06EE4F801858196818C
:101A20000E94D61B40E06B81D80115968D919C9148
:101A300016970E94D61B40E06C81F8018581968143
:101A40000E94D61B8A85803149F040E06D81D80123
:101A500015968D919C9116970E94D61BF801858151
:101A600096810E947108BE01665F7F4FD80115966E
:101A70008D919C9116970E94471CF801408168E463
:101A8000858196810E94D61B64E170E080E090E041
:101A90000E946D1AD8018C91882331F06AE070E0C1
:101AA00080E090E00E946D1AF801858196810E9485
:101AB0007108FFEFCF1ADF0A6ECFF70180819181A5
:101AC000DC0112961C920E94181C62960FB6F894C4
:101AD000DEBF0FBECDBFDF91CF911F910F91FF9061
:101AE000EF90DF90CF90BF90AF909F908F90089530
:101AF000F801D08211CFCF93DF93EC0161E08A81AE
:101B00000E948019ED81FE81808D918D0E94621A64
:101B100060E08A810E948019ED81FE81808D918D27
:101B20009C01220F331F820F931FDF91CF910C94E2
:101B3000621A3F924F925F926F927F928F929F9222
:101B4000AF92BF92CF92DF92EF92FF920F931F93CB
:101B5000CF93DF93EC014A015B01E12CF12C690189
:101B600081E0C81AD108412C512C3201439465E21E
:101B7000362EED81FE81878990E0E816F9060CF09B
:101B800056C0860117FD32C0D301C201002E04C029
:101B9000880F991FAA1FBB1F0A94D2F78821992189
:101BA000AA21BB21892B8A2B8B2B21F0CE010E94ED
:101BB0007B0D19C061E08A810E948019ED81FE8150
:101BC000808D918D9C01220F331F820F931F0E94E5
:101BD000621A60E08A810E948019ED81FE81808D09
:101BE000918D0E94621A01501109CCCFCE010E9442
:101BF0007B0D61E08A810E948019ED81FE81808DDC
:101C0000918D0E94621A60E08A810E948019ED81A4
:101C1000FE81808D918D9C01329EC001339E900D7E
:101C200011240E94621A3FEFE31AF30AA2CFDF9158
:101C3000CF911F910F91FF90EF90DF90CF90BF90C9
:101C4000AF909F908F907F906F905F904F903F905C
:101C50000895CF92DF92EF92FF920F931F93CF934D
:101C6000DF931F92CDB7DEB78C01E62EDC011F9605
:101C70008C91882321F060E0FF24F39402C061E09E
:101C8000F12CD8011596ED91FC911697C08CD18C52
:101C9000C114D10419F4F801C780D084D801129678
:101CA0008C9179830E948019EC9CC001ED9C900D71
:101CB00011240E94621A6F2DF80182810E948019FE
:101CC00079817C9DC0017D9D900D11240F90DF9145
:101CD000CF911F910F91FF90EF90DF90CF900C94D8
:101CE000621A4F925F926F927F928F929F92AF9201
:101CF000BF92CF92DF92EF92FF920F931F93CF93F9
:101D0000DF93EC014A015B01E12CF12C690181E0D8
:101D1000C81AD108412C512C32014394ED81FE8127
:101D2000878990E0E816F906A4F58889882329F0C8
:101D300069857A85CE010E94290E860117FD1DC096
:101D4000D301C201002E04C0880F991FAA1FBB1F18
:101D50000A94D2F788219921AA21BB21892B8A2BA9
:101D60008B2B19F06D857E8502C06B857C85CE013D
:101D70000E94290E01501109E1CF8889811105C007
:101D800069857A85CE010E94290E8FEFE81AF80A3C
:101D9000C5CFDF91CF911F910F91FF90EF90DF9012
:101DA000CF90BF90AF909F908F907F906F905F90FB
:101DB0004F900895CF93DF93EC01662371F161E0BA
:101DC0008A810E948019ED81FE81808D918D0E9413
:101DD000621A60E08A810E948019ED81FE81808D07
:101DE000918D25E0AC01249FC001259F900D112409
:101DF0000E94621A61E08A810E948019ED81FE8151
:101E0000808D918D0E94621A60E08A810E94801903
:101E1000ED81FE81808D918D2DC061E08A810E94CF
:101E20008019ED81FE81808D918D0E94621A60E0A3
:101E30008A810E948019ED81FE81808D918D0E94A2
:101E4000621A61E08A810E948019ED81FE81808D95
:101E5000918D0E94621A60E08A810E948019ED8152
:101E6000FE81808D918D25E0AC01249FC001259FCE
:101E7000900D1124DF91CF910C94621A4F925F92D2
:101E80006F927F92AF92BF92CF92DF92EF92FF92CA
:101E90000F931F93CF93DF93EC01E62EED81FE812C
:101EA000F7889AE0B92ECC24C394D12C38E2A32E23
:101EB000F7FC7FC0ED81FE81438C548C658C768C61
:101EC00061E08A810E948019ED81FE81808D918D73
:101ED0000E94621A60E08A810E948019ED81FE8171
:101EE000208D318DA90156954795B29EC001B39EB4
:101EF000900D1124840F951F0E94621A09E110E0D1
:101F0000D301C201002E04C0B695A7959795879579
:101F10000A94D2F7682F6170CE010E94DA0E015048
:101F2000110970F760E0CE010E94DA0E6E2DCE012D
:101F30000E94DA0E03E010E0C601002E02C0880FF6
:101F4000991F0A94E2F7092E000CAA0BBB0BED8136
:101F5000FE81478D50A161A172A184239523A62300
:101F6000B72361E0892B8A2B8B2B09F460E0CE012B
:101F70000E94DA0E01501109F8F661E08A810E9490
:101F80008019ED81FE81808D918D0E94621A60E042
:101F90008A810E948019ED81FE81808D918D9C0146
:101FA000A29EC001A39E900D11240E94621AFA9471
:101FB0007FCFDF91CF911F910F91FF90EF90DF9036
:101FC000CF90BF90AF907F906F905F904F900895AB
:101FD000CF93DF93EC010E94630BED81FE81868934
:101FE000811106C060E0CE01DF91CF910C943E0FCD
:101FF000813091F0228D478D50A161A172A130E016
:10200000823029F4CE01DF91CF910C94990DCE014D
:10201000DF91CF910C94710EDF91CF910895CF9302
:10202000DF93EC010E946E0BED81FE8186898111A8
:1020300006C061E0CE01DF91CF910C943E0F81305C
:1020400091F0228D438D548D658D768D30E08230F8
:1020500029F4CE01DF91CF910C94990DCE01DF913F
:10206000CF910C94710EDF91CF910895CF92DF92B2
:10207000EF92FF920F931F93CF93DF931F92CDB7F1
:10208000DEB779018A01060F171F6B01C016D10652
:10209000B9F0C11484E0D80698F4F999FECFF7019D
:1020A00061917F01C60169830E943D2F6981681794
:1020B00019F0C6010E94452FFFEFCF1ADF0AE6CFC5
:1020C0000F90DF91CF911F910F91FF90EF90DF90D4
:1020D000CF900895EF92FF920F931F93CF93DF93CA
:1020E00089017901E40EF51EEB010E151F0571F053
:1020F000C115F4E0DF0750F4F999FECFCE010E943C
:102100003D2FF80181938F012196EFCFDF91CF9181
:102110001F910F91FF90EF900895CF93DF93EC0103
:10212000E881F9810284F385E02D099518161906D6
:1021300054F58D30910561F024F48A30910591F4C5
:1021400022C084319105F9F08F3F910559F41BC0ED
:102150008E899F891F8A1E8A18161906A4F4CE013B
:10216000029613C02E893F892331310560F4A901FD
:102170004F5F5F4F5F8B4E8BFE01E20FF31F828339
:10218000C40FD51F1A8280E090E0DF91CF910895AF
:10219000CF93FC01C08161E08C2F0E94B01960E0F8
:1021A0008C2FCF910C9480190F931F93CF93DF93B3
:1021B000FC012289222311F080E01FC0EC010E9463
:1021C000A71A088119812A813B81DC01CB01801B80
:1021D000910BA20BB30B88879987AA87BB870C81C9
:1021E0001D812E813F8180179107A207B30720F33D
:1021F000088719872A873B8781E0DF91CF911F915C
:102200000F910895CF93DF93FC012089211109C01C
:10221000EC010E94A71A688379838A839B8381E0FB
:10222000888BDF91CF910895FC0110821182128278
:1022300013821486158616861786108A118A128ACA
:102240000895CF93DF93FC0186A997A9EC01A8819B
:10225000B9819F01225D3F4F1296ED91FC9113973A
:1022600048E050E06EE972E0DF91CF9109940F935E
:102270001F93CF93DF93EC01288D398D4A8D5B8DB1
:102280001FAA1EAA1DAA1CAA1BAA1AAA60E079E00E
:102290008DE390E00E94ED30F9012430310518F013
:1022A000C901039702C081E090E099AF88AF68A5AB
:1022B000663108F069C0C90196958795843191050A
:1022C00010F0439702C081E090E09BAB8AAB369759
:1022D00018F0C901059702C081E090E09DAB8CAB7E
:1022E000C901880F991F280F391F369527953695F4
:1022F00027952D30310518F02C50310902C021E00E
:1023000030E03FAB2EAB90916800683050F021E098
:102310006E3008F420E081E001C0880F2A95EAF7CA
:1023200001C084E0892B8093680098A5983038F02C
:102330009E3040F0963148F020E030E008C02DE6B5
:1023400030E005C02BE630E002C02CE630E038ABD0
:102350002FA7983030F481E001C0880F9A95EAF7F2
:102360000EC0292F30E09E3018F42850310902C0E9
:102370002E50310981E001C0880F2A95EAF789AB18
:1023800088AD99AD0197F1F78EA99FA9892BF9F036
:102390008E01045E1F4F8091B6069091B70680179C
:1023A0009107A9F0009711F00E94771B8AAD8E7FEC
:1023B0008AAF1092B4061092B5061093B706009338
:1023C000B606EFA5F8A9908189A9892B808368EECC
:1023D00073E080E090E00E946D1AEBADFCAD86A545
:1023E0008823E1F18E010E5F1F4F80A58F9387A197
:1023F0008F9387E891E09F938F931F930F930E9491
:102400003431E881F9810280F381E02DB801CE01F9
:1024100009956CED75E080E090E00E946D1AE8810E
:10242000F9810280F381E02D62E971E0CE01099526
:102430006CED75E080E090E00E946D1A8BAD9CAD74
:10244000FC0116A60F900F900F900F900F900F9019
:10245000DF91CF911F910F910C942111DF91CF91BA
:102460001F910F9108950F931F93CF93DF938C01CA
:10247000DC01D6968D919C91D797DC01ED91FC9172
:102480000280F381E02D98014EE250E060E070E0C0
:102490000995CEE2D0E0F80186A997A9DC01ED917B
:1024A000FC919E01215F3F4F200F311F0280F3817D
:1024B000E02D47E250E0BE010995A796CE39B2E083
:1024C000DB0749F7DF91CF911F910F910895CF93CB
:1024D000DF93EC018EE2DE011D928A95E9F7FE01A1
:1024E000FD96CE0183559D4F27E2DF01322F1D92CD
:1024F0003A95E9F7B796E817F907B9F7FE01BE96DE
:1025000088E0DF011D928A95E9F7CE010E9433121F
:10251000CE01DF91CF910C942111AF92BF92CF9257
:10252000DF92EF92FF920F931F93CF93DF931F924F
:10253000CDB7DEB75C01D62EE72EFC018585811173
:1025400005C0C5010E947108811106C0F5011386FE
:102550001586148680E065C040E060EFC5010E94EA
:10256000D61B01E0F12CC12C11E0C5010E941E0810
:10257000682FC50169830E941E086981613019F4C2
:102580008130B9F433C04F2D50E068131BC0F50102
:102590008385181730F4E40FF51F8381802349F4F5
:1025A00002C0181731F060E0193058F4F5011487B3
:1025B00008C0F501EF0DF11D8381802B838361E05D
:1025C00009C0C12EF501E40FF51F9381802F80957E
:1025D00089238383C5010E9442081F5F000F11F405
:1025E000F39401E0F7E0FF1508F0BFCF113408F4D1
:1025F000ADCFF501C386C11002C081E08587F5012A
:102600008381882309F4A2CFD5011396ED2DFE2DE9
:102610009501255F3F4F8D918193A217B307D9F79D
:1026200081E00F90DF91CF911F910F91FF90EF907C
:10263000DF90CF90BF90AF900895CF93DF93EB01E1
:1026400020916F02211123C021E020936F02A091FD
:102650004902B0914A02ED91FC9111970680F781F1
:10266000E02DBC01CD01099528818091490290910E
:102670004A02DC01ED91FC910084F185E02D2223DA
:1026800019F06CE073E002C06AE073E00995809194
:10269000490290914A02DC01ED91FC910284F3859C
:1026A000E02D09959C01C0970297F8F410926F02F3
:1026B0008091490290914A022033310551F41882E9
:1026C000DC01ED91FC910084F185E02D66E073E082
:1026D0000AC021E02883DC01ED91FC910084F185A2
:1026E000E02D68E073E0099509C02737310531F026
:1026F0002136310529F410926F0202C081E001C039
:1027000080E0DF91CF9108950F931F93CF93DF93D4
:10271000C82FD62F8091490290914A02DC01ED9199
:10272000FC910680F781E02D64E073E009950E943A
:10273000A71A009187021091880220918902309196
:102740008A02601B710B820B930B0E941B2E03E706
:1027500012E020E041E00E94C92980914902909155
:102760004A02DC01ED91FC910280F381E02DB80179
:1027700009958091490290914A02DC01ED91FC910A
:102780000680F781E02D61E073E0099560916D02AC
:1027900070916E02072E000C880B990B0E941D2E63
:1027A00020E041E00E94C9298091490290914A02AB
:1027B000DC01ED91FC910280F381E02DB8010995D7
:1027C0008091490290914A02DC01ED91FC910680D2
:1027D000F781E02D6EEF72E00995A0915102B09162
:1027E0005202DD2349F0ED91FC9111970190F081A7
:1027F000E02DCD01099518C016968C911697811180
:1028000006C0DF966D917D918D919C910BC094E0F7
:10281000899FA00DB11D112413966D917D918D910D
:102820009C91169703E712E022E041E00E94C9293B
:102830008091490290914A02DC01ED91FC91028065
:10284000F381E02D63E772E0099580914902909150
:102850004A02DC01ED91FC910680F781E02D6BEFDF
:1028600072E00995E0915102F09152028681282F81
:1028700030E0811107C0DF01DF966D917D918D9170
:102880009C910EC0D9011197AA0FBB1FAA0FBB1FA5
:10289000AE0FBF1F17966D917D918D919C911A97E8
:1028A000220F331F220F331FE20FF31F27813085C2
:1028B000418552850E94A42F03E712E022E042E006
:1028C0000E94C9298091490290914A02DC01ED9150
:1028D000FC910280F381E02DB8010995E0914D0251
:1028E000F0914E02EF5BFF4F8081882399F1809138
:1028F000490290914A02DC01ED91FC910680F7813A
:10290000E02D68EF72E00995E0914D02F0914E02E2
:10291000EF5BFF4F608170E080E090E00E941B2E33
:1029200020E041E00E94C9298091490290914A0229
:10293000DC01ED91FC910280F381E02DB801099555
:10294000E0914F02F091500264EB70E080810E94B0
:10295000EC1906C080914F02909150020E94C8105D
:102960008091490290914A02DC01ED91FC91068030
:10297000F781E02D65EF72E00995E0914B02F0914F
:102980004C0220916D0230916E0247E2429FC001DD
:10299000439F900D1124E80FF91FE05CFF4F608109
:1029A00071818281938103E712E022E041E00E947D
:1029B000C9298091490290914A02DC01ED91FC9174
:1029C0000280F381E02DB801099580914902909130
:1029D0004A02DC01ED91FC910680F781E02D62EF67
:1029E00072E00995E0914D02F0914E028285938547
:1029F000DC01ED91FC910680F781E02D0995A09115
:102A00004902B0914A02ED91FC9111970680F7813D
:102A1000E02D882319F060EF72E002C06EEE72E0E4
:102A2000CD0109958091490290914A02DC01ED9116
:102A3000FC910680F781E02D6BEE72E00995E09144
:102A40004D02F0914E020280F381E02D80810E94C0
:102A50004B1ABC01990F880B990B0E941D2E2FEC6D
:102A600032ED47EA5CE30E947C2E03E712E022E0AD
:102A700041E00E94C9298091490290914A02DC01FB
:102A8000ED91FC910280F381E02DB8010995E09170
:102A90004D02F0914E0284A98823D9F18091490218
:102AA00090914A02DC01ED91FC910680F781E02DC6
:102AB00068EE72E00995E0914D02F0914E02808936
:102AC0009189A289B3890489158926893789BC012E
:102AD000CD01601B710B820B930B28EE33E040E0BD
:102AE00050E00E94CB30CA01B9010E941B2E03E7BF
:102AF00012E020E041E00E94C929809149029091B2
:102B00004A02DC01ED91FC910280F381E02DB801D5
:102B10000995E0914B02F0914C028481882361F188
:102B20008091490290914A02DC01ED91FC9106806E
:102B3000F781E02D65EE72E00995E0914D02F0918C
:102B40004E020480F581E02DEB5BFF4F60817181C7
:102B50008281938103E712E022E041E00E94C929CB
:102B60008091490290914A02DC01ED91FC91028032
:102B7000F381E02DB8010995CC23F1F08091490251
:102B800090914A02DC01ED91FC910680F781E02DE5
:102B900062EE72E0099580917202882369F080915B
:102BA000490290914A02DC01ED91FC910680F78187
:102BB000E02D6FED72E009958091490290914A02F3
:102BC000DC01ED91FC910084F185E02D6DED72E06A
:102BD000DF91CF911F910F910994EF92FF920F9384
:102BE0001F93CF93DF93EC017B0180916F028111E2
:102BF00028C0DB016D917D918D919C910E941D2ECD
:102C000003E712E020E041E00E94C92981E08093BF
:102C10006F028091490290914A02DC01ED91FC9192
:102C20000680F781E02DBE010995809149029091BF
:102C30004A02DC01ED91FC910480F581E02DB801A0
:102C400009958091490290914A020E948D10EC01F1
:102C5000009729F168EA71E00E942B31892B09F174
:102C60006AEA71E0CE010E942B31892B19F410928F
:102C70006F0215C0CE010E94ED29F70160837183B8
:102C8000828393838091490290914A02DC01ED9105
:102C9000FC910480F581E02DBE01099502C080E021
:102CA00001C081E0DF91CF911F910F91FF90EF90D4
:102CB0000895EF92FF920F931F93CF93DF93EC0150
:102CC0007B0180916F02811126C0DB016D917D91A6
:102CD0008D919C9103E712E022E041E00E94C92916
:102CE00081E080936F028091490290914A02DC0159
:102CF000ED91FC910680F781E02DBE010995809150
:102D0000490290914A02DC01ED91FC910480F58129
:102D1000E02DB80109958091490290914A020E94E4
:102D20008D10EC01009729F168EA71E00E942B31C7
:102D3000892B09F16AEA71E0CE010E942B31892BBF
:102D400019F410926F0215C0CE010E94E929F70113
:102D500060837183828393838091490290914A02B8
:102D6000DC01ED91FC910480F581E02DBE01099517
:102D700002C080E001C081E0DF91CF911F910F91EF
:102D8000FF90EF900895CF93DF93C9E4D2E08A815A
:102D90009B810E94671288819981DC01ED91FC91F1
:102DA0000084F185E02D6BED72E0DF91CF91099405
:102DB000CF92DF92EF92FF920F931F93CF93DF9307
:102DC0006C017A018B01C0E0D0E0CE15DF0589F0FF
:102DD000D8016D918D01D601ED91FC910190F081AA
:102DE000E02DC6010995892B11F47E0102C02196C0
:102DF000ECCFC701DF91CF911F910F91FF90EF9022
:102E0000DF90CF900895FC01918D828D981761F02D
:102E1000828DDF01A80FB11D5D968C91928D9F5F11
:102E20009F73928F90E008958FEF9FEF0895FC01BC
:102E3000918D828D981731F0828DE80FF11D858D6F
:102E400090E008958FEF9FEF0895FC01918D228D02
:102E5000892F90E0805C9F4F821B91098F73992787
:102E600008958CEA91E00E94251721E0892B09F44E
:102E700020E0822F0895FC01848DDF01A80FB11D91
:102E8000A35ABF4F2C91848D90E001968F739927A0
:102E9000848FA689B7892C93A089B1898C9180648D
:102EA0008C93938D848D981306C00288F389E02D4E
:102EB00080818F7D80830895EF92FF920F931F93FF
:102EC000CF93DF93EC0181E0888F9B8D8C8D9813DD
:102ED00005C0E889F989808185FD24C0F62E0B8D17
:102EE00010E00F5F1F4F0F731127E02E8C8DE8123B
:102EF0000CC00FB607FCFACFE889F989808185FFFD
:102F0000F5CFCE010E943B17F1CF8B8DFE01E80F6C
:102F1000F11DE35AFF4FF0820B8FEA89FB89808114
:102F2000806207C0EE89FF896083E889F989808122
:102F30008064808381E090E0DF91CF911F910F91B9
:102F4000FF90EF900895CF93DF93EC01888D882355
:102F5000C9F0EA89FB89808185FD05C0A889B98906
:102F60008C9186FD0FC00FB607FCF5CF808185FFE1
:102F7000F2CFA889B9898C9185FFEDCFCE010E944F
:102F80003B17E7CFDF91CF91089580E090E0892B48
:102F900029F00E94311781110C94000008958330AC
:102FA00081F028F4813099F08230A1F008958730C3
:102FB000A9F08830B9F08430D1F4809180008F7D01
:102FC00003C0809180008F7780938000089584B53E
:102FD0008F7702C084B58F7D84BD08958091B00045
:102FE0008F7703C08091B0008F7D8093B0000895EB
:102FF0003FB7F8948091FD069091FE06A091FF06E0
:10300000B091000726B5A89B05C02F3F19F0019687
:10301000A11DB11D3FBFBA2FA92F982F8827820F5E
:10302000911DA11DB11DBC01CD0142E0660F771FAE
:10303000881F991F4A95D1F708952091B6063091BF
:10304000B7062817390771F49091B5068091B40638
:10305000981741F0E091B506F0E0E854F94F80810F
:1030600090E008958FEF9FEF089508951F93CF93F9
:10307000DF93DC015C962D913C915D972115310524
:1030800039F481E090E013969C938E9312973DC0A3
:103090005196ED91FC91529750969C915097892FA3
:1030A00080951FB75E964C915E9741FB772770F92C
:1030B00041FD6095F8944081772311F0492B01C0C0
:1030C00048234083E9012197F1F748E0508160FFF0
:1030D00002C0592B01C058235083E9012197F1F711
:1030E0006695415099F7772321F090818923808359
:1030F00003C08081982B90831FBF5C968D919C911B
:103100005D970197F1F721E030E0C901DF91CF91A0
:103110001F9108952091B6063091B70628173907F8
:1031200071F48091B4062091B50690E0805C9F4FC9
:10313000821B910960E470E00E94B730089580E03E
:1031400090E008952091B6063091B7062817390708
:10315000B9F49091B5068091B406981789F0E09182
:10316000B506F0E0E854F94F80812091B50630E0D3
:103170002F5F3F4F2F7333272093B50690E00895BC
:103180008FEF9FEF089508950E942631EF92FF92EE
:103190000F931F93CF93DF938C017B01C0E0D0E0AE
:1031A000F701EC0FFD1F6491662361F0D801ED91EA
:1031B000FC910190F081E02DC8010995892B11F057
:1031C0002196EECFCE01DF91CF911F910F91FF900D
:1031D000EF9008956115710579F0FB0101900020D1
:1031E000E9F73197AF01461B570BDC01ED91FC91DC
:1031F0000280F381E02D099480E090E008951F9211
:103200000F920FB60F9211242F933F934F935F931A
:103210006F937F938F939F93AF93BF93EF93FF939E
:103220008CEA91E00E943B17FF91EF91BF91AF9123
:103230009F918F917F916F915F914F913F912F91CE
:103240000F900FBE0F901F9018951F920F920FB600
:103250000F9211242F938F939F93EF93FF93E091FD
:10326000BC01F091BD018081E091C201F091C301E8
:1032700082FD12C090818091C5018F5F8F73209174
:10328000C601821751F0E091C501F0E0E455FE4F10
:10329000958F8093C50101C08081FF91EF919F912F
:1032A0008F912F910F900FBE0F901F901895CF9375
:1032B000DF93282F30E0F901EC5AFB4F8491F9019C
:1032C000EA5CFC4FD491F901EE5DFC4FC491CC2334
:1032D00091F081110E94CF17EC2FF0E0EE0FFF1F4D
:1032E000E85EFC4FA591B491EC91ED2381E090E074
:1032F00021F480E002C080E090E0DF91CF9108955A
:103300001F93CF93DF93282F30E0F901EC5AFB4F46
:103310008491F901EA5CFC4FD491F901EE5DFC4F18
:10332000C491CC23C9F0162F81110E94CF17EC2F26
:10333000F0E0EE0FFF1FE25FFC4FA591B4918FB755
:10334000F894111105C09C91ED2FE095E92302C07E
:10335000EC91ED2BEC938FBFDF91CF911F910895EE
:10336000CF93DF9390E0FC01EA5CFC4F2491FC01D9
:10337000EE5DFC4F8491882361F190E0880F991FE6
:10338000FC01E65BFB4FC591D491FC01E25FFC4F71
:10339000A591B491611109C09FB7F89488812095D7
:1033A00082238883EC912E230BC0623061F49FB797
:1033B000F8943881822F809583238883EC912E2B7B
:1033C0002C939FBF06C08FB7F894E8812E2B2883DB
:1033D0008FBFDF91CF9108951F93CF93DF93182F65
:1033E000EB0161E00E94B019209711F460E004C085
:1033F000CF3FD10539F461E0812FDF91CF911F914B
:103400000C948019E12FF0E0EC5AFB4FE491E3308B
:10341000F9F048F4E130B9F0E230A1F584B580620A
:1034200084BDC8BD34C0E730E9F0E83019F1E430BC
:1034300049F580918000806280938000D0938B005A
:10344000C0938A0024C084B5806884BDC7BD1FC0F6
:1034500080918000806880938000D0938900C09321
:10346000880015C08091B00080688093B000C09340
:10347000B3000DC08091B00080628093B000C09313
:10348000B40005C0C038D1050CF0B5CFAFCFDF9187
:10349000CF911F9108958E3008F08E508770806410
:1034A00080937C0080917A00806480937A00809180
:1034B0007A0086FDFCCF809178002091790090E021
:1034C000922B08958230910538F0880F991F880F4C
:1034D000991F05970197F1F708958F929F92AF92E8
:1034E000BF92CF92DF92EF92FF926B017C010E941C
:1034F000F8174B015C01C114D104E104F104F1F0AF
:103500000E94F817DC01CB0188199909AA09BB09A7
:10351000883E9340A105B10570F321E0C21AD1089D
:10352000E108F10888EE880E83E0981EA11CB11C0A
:10353000C114D104E104F10419F7DDCFFF90EF903D
:10354000DF90CF90BF90AF909F908F9008952FB74E
:10355000F8946091F9067091FA068091FB069091BB
:10356000FC062FBF08951F920F920FB60F921124E1
:103570002F933F938F939F93AF93BF938091F906BF
:103580009091FA06A091FB06B091FC063091F806E6
:1035900023E0230F2D3720F40196A11DB11D05C096
:1035A00026E8230F0296A11DB11D2093F8068093F3
:1035B000F9069093FA06A093FB06B093FC0680915F
:1035C000FD069091FE06A091FF06B09100070196BE
:1035D000A11DB11D8093FD069093FE06A093FF06EA
:1035E000B0930007BF91AF919F918F913F912F9121
:1035F0000F900FBE0F901F9018951F920F920FB64D
:103600000F9211242F933F934F935F936F937F9368
:103610008F939F93AF93BF93EF93FF93E091B60681
:10362000F091B706309709F451C0968DA685B785FD
:10363000858591FF04C09C91892329F447C09C9102
:10364000892309F043C0A389B4899C918589809519
:1036500089238C93868997890197F1F7608D718D05
:10366000A685B785558538E020E0CB010197F1F7B5
:10367000822F90E095958795282F4C91452309F04E
:103680002068315091F7868D81FD20958091B40698
:1036900090E001968F7399273091B506381749F05D
:1036A000A091B406B0E0A854B94F2C938093B4060F
:1036B00003C0868D8160868F828D938D0197F1F78F
:1036C000A389B4899C918589892B8C93FF91EF9173
:1036D000BF91AF919F918F917F916F915F914F912A
:1036E0003F912F910F900FBE0F901F901895E09172
:1036F000B606F091B706E817F90769F4A389B4890B
:103700009C918589809589238C931092B70610929D
:10371000B60681E0089580E00895DC01E0E06150A4
:1037200038F08D91E827F0E0E65BFC4FE491F7CFAD
:103730008E2F0895EF92FF920F931F93CF93DF93F5
:103740007C018B01D42FDC011596ED91FC9116972D
:10375000138615861486DF011B9633961E92AE17CC
:10376000BF07E1F7C0E0B801D70115968D919C9194
:1037700016970E948D12811102C080E010C0CD13F7
:103780000AC067E0C8010E948D1BF8019781891368
:1037900002C081E004C0CF5FDC1778F3E4CFDF9193
:1037A000CF911F910F91FF90EF900895CF92DF92EC
:1037B000EF92FF920F931F93CF93DF931F92CDB79A
:1037C000DEB76C01E62E08E010E0FF24F39461E020
:1037D0008F2D8E2109F460E0C60149830E944208C2
:1037E000FF0C0150110949810115110581F74111A3
:1037F00015C0F894D6011196ED91FC911297918124
:103800008C918095892381831196ED91FC9112977B
:1038100092818C9180958923828378940F90DF9197
:10382000CF911F910F91FF90EF90DF90CF9008956F
:10383000CF93DF93EC018D819E810E94710840E05F
:103840006CEC8D819E810E94D61B488164E48D8141
:103850009E810E94D61B8A818823B1F0E981E950BC
:10386000E33040F4F0E0EE0FFF1FE258FE4F6081BE
:10387000718102C06EEE72E0072E000C880B990B6E
:10388000DF91CF910C946D1ADF91CF910895CF9273
:10389000DF92EF92FF920F931F93CF93DF931F92CC
:1038A000CDB7DEB78C01F62E40E065E579830E9446
:1038B000D61BCF2C7981D72E760188E0E80EF11C3B
:1038C000F60161916F0140E0C8010E94D61BCE1441
:1038D000DF04B1F70F90DF91CF911F910F91FF900F
:1038E000EF90DF90CF9008956F927F928F929F928A
:1038F000AF92BF92CF92DF92EF92FF920F931F93FE
:10390000CF93DF931F92CDB7DEB78C01F42EFC016D
:103910008581968159830E94471C40E06EEBF80137
:10392000858196810E94D61B6F2C5981752E53017B
:10393000F9E0AF0EB11CF8018580968088E0C82EB2
:10394000D12CEE24E394F12CC4010E941E088111B5
:10395000FE28EE0CF1E0CF1AD108B1F7F301F19295
:103960003F01EA15FB0539F7F801858196810E9430
:10397000710891E0813009F090E0892F0F90DF917C
:10398000CF911F910F91FF90EF90DF90CF90BF905C
:10399000AF909F908F907F906F900895EF92FF92DD
:1039A0000F931F93CF93DF9300D0CDB7DEB78C0179
:1039B0007A01FC018581968169837A830E9471086E
:1039C00069817A81882371F0A701C8010E94741C63
:1039D000882341F068E0C7010E948D1B91E0F70148
:1039E0002085821390E0892F0F900F90DF91CF9167
:1039F0001F910F91FF90EF900895CF93DF93CDB774
:103A0000DEB729970FB6F894DEBF0FBECDBFFB011E
:103A100020812031D1F0AE014F5F5F4F0E94CE1C5C
:103A2000882389F08D818F3361F020F48F3159F430
:103A300089E00CC08F3519F08F3739F004C08BE066
:103A400005C08AE003C080E001C08CE029960FB673
:103A5000F894DEBF0FBECDBFDF91CF910895CF9315
:103A6000DF9300D000D0CDB7DEB7789484B5826004
:103A700084BD84B5816084BD85B5826085BD85B512
:103A8000816085BD80916E00816080936E00109290
:103A9000810080918100826080938100809181000B
:103AA000816080938100809180008160809380009C
:103AB0008091B10084608093B1008091B0008160FA
:103AC0008093B00080917A00846080937A00809126
:103AD0007A00826080937A0080917A00816080937E
:103AE0007A0080917A00806880937A001092C100F9
:103AF00061E083E00E94B01961E083E00E948019D8
:103B000080913D0490913E04DC01ED91FC91019087
:103B1000F081E02D27E034E04EE250E060E070E01C
:103B200009950EE210E080913D0490913E04DC0185
:103B3000ED91FC9198012A5E3B4F0190F081E02DC0
:103B400047E250E0B8010995095D1F4F0E39B2E018
:103B50001B0749F740913F04509140046091410494
:103B6000709142048091070490910804A091090487
:103B7000B0910A04481759076A077B0709F4ADC0DA
:103B800087E094E00E94671280913F049091400486
:103B9000A0914104B09142048093070490930804DB
:103BA000A0930904B0930A0481E0809335048DE466
:103BB00094E090932F0480932E0480E090E0A0EF97
:103BC000B0E480932A0490932B04A0932C04B09328
:103BD0002D0410921D0480E090E6ACE1B0E08093EB
:103BE000220490932304A0932404B093250481E03D
:103BF00090E0A0E0B0E08093260490932704A09387
:103C00002804B093290487E091E0909320048093E6
:103C10001F0487E080931E048EEA97E4A1E8BFE3C7
:103C200080930D0490930E04A0930F04B09310049E
:103C30008AE0809333048093340410920B0488E864
:103C400093E1909316048093150484E690E090939A
:103C500018048093170480E090E0A0E2B1E4809320
:103C6000190490931A04A0931B04B0931C04EFE46E
:103C7000F4E000E010E020E83FE34DEC5CEC6CEC9D
:103C80007DEBADECCA2EACECDA2EED2CADE3FA2ECA
:103C90001086118612861386148615861686178658
:103CA000008B118B228B338B408351836283738310
:103CB000C482D582E682F782B79686E0EF3BF807AA
:103CC00039F787E094E00E94331287E094E00E9485
:103CD000211181E08093430413C01092430480912A
:103CE0003D0490913E04DC01ED91FC910190F08146
:103CF000E02D25E334E048E050E06EE972E00995FC
:103D000083E593E00E94371161E0809192030E9465
:103D1000B019E0919503F091960386898330C8F03D
:103D200090E09C01235031090497079710F021E09F
:103D300030E0215031098AE0829FB001839F700DED
:103D4000112463517E4F4AE050E087E993E00E94DE
:103D5000142A81EA93E00E941A0C60E080915003DB
:103D60000E94B01961E080914F030E94B01980ED6C
:103D700092E00E94190681E293E00E947E028DE8A3
:103D800092E00E94F50A62E080918B020E94B019D5
:103D9000109270021092710210926F0210926802DB
:103DA0001092690210926A0210926B0210926C02D9
:103DB00010926E0210926D0280914F02909150020B
:103DC0000E94C81080914D0290914E020E94F50A07
:103DD000EE24E39483E0D82E97E2F92E24E0C22E5D
:103DE00035E0B32E42E0A42E57E0752E66E0662E35
:103DF00080917002811144C0E0927002E0914B0208
:103E0000F0914C0287A58823D9F117A61092700271
:103E1000E0927102D0926802E0926B0280916D0292
:103E200090916E02F89ED001F99EB00D1124AE0F54
:103E3000BF1FDD968C918093720260A971A9709367
:103E40006E0260936D0280914D0290914E020E942D
:103E5000310BE0914B02F0914C0282A993A9A4A9E5
:103E6000B5A9E0914D02F0914E0214861586168692
:103E70001786808F918FA28FB38F148E168EE58E4A
:103E800080918B020E945719892B21F40E94C3163E
:103E900010926802E0914D02F0914E0286A98823AB
:103EA00011F060E001C061E080918C020E948019F5
:103EB00080916802823009F431C330F4882369F0BC
:103EC000813009F4E3C076C7833009F4E9C5853051
:103ED00009F070C70E94C3166DC780916F028111EF
:103EE0005DC08091510290915202DC01ED91FC91F4
:103EF0000480F581E02D0995A0914902B0914A0214
:103F0000ED91FC9111970680F781E02D813019F435
:103F100068ED72E002C065ED72E0CD01099503E73E
:103F200012E020E041E060E070E080E891E40E946F
:103F3000C9298091490290914A02DC01ED91FC91DE
:103F40000280F381E02DB80109958091490290919A
:103F50004A02DC01ED91FC910680F781E02D63EDD2
:103F600072E00995E0914B02F0914C026081718101
:103F7000828193810E941B2E20E041E00E94C9298A
:103F80008091490290914A02DC01ED91FC910480FC
:103F9000F581E02DB8010995E0926F028091490208
:103FA00090914A02DC01ED91FC910284F385E02DB1
:103FB00009958C0160E080914D0290914E020E9423
:103FC000A7080336110509F44EC0CCF402331105DD
:103FD000C1F16CF40033110509F4A3C501331105D7
:103FE00009F0EAC610926F02E0926802E5C6033358
:103FF000110561F10136110509F493C5DDC60F36CF
:104000001105E9F194F40436110529F1083611057A
:1040100009F0D2C68091530290915402DC01ED91D7
:10402000FC910190F081E02D28C000371105B1F01E
:104030000437110509F0C0C610926F02C0926802E1
:10404000BBC610926F02A0926802B6C610926F02B1
:10405000D0926802B1C6B0926802AEC661E080E05C
:104060000E948413A9C68091530290915402DC01EE
:10407000ED91FC910280F381E02D09959DC6809120
:104080004D0290914E020E94C40A96C6E0916902C8
:104090008E2F90E08A31910508F02CC2FC01EC5C77
:1040A000FF4F0C940C31E0914B02F0914C02848153
:1040B0008983BE016F5F7F4F8EEC92E00E941D13DB
:1040C000882309F479C6E0914B02F0914C02898172
:1040D000848325C0A09269026FC6E0914B02F091E3
:1040E0004C0286819781A085B18589839A83AB83B1
:1040F000BC83BE016F5F7F4F89EC92E00E9459162E
:10410000882309F459C6E0914B02F0914C02898151
:104110009A81AB81BC8186839783A087B1871092F7
:104120006F02809169028F5F8093690245C6C092D9
:10413000690242C6B09269023FC6609269023CC6FB
:104140007092690239C6B8E0B093690235C6E09151
:104150004B02F0914C0286859785A0E0B0E0898300
:104160009A83AB83BC83BE016F5F7F4F8EE792E083
:104170000E94ED15882309F41FC6E0914B02F091CF
:104180004C0289819A8197878687C9CFE0914B023B
:10419000F0914C0280899189A0E0B0E089839A83F4
:1041A000AB83BC83BE016F5F7F4F84EC92E00E94C3
:1041B000ED15882309F400C6E0914B02F0914C0202
:1041C00089819A81918B808BAACFE0914B02F091EB
:1041D0004C0282899389A489B58989839A83AB83A8
:1041E000BC83BE016F5F7F4F8FEB92E00E94591638
:1041F000882309F4E1C5E0914B02F0914C028981DA
:104200009A81AB81BC81828B938BA48BB58B87CF3A
:10421000EEE0E0936902D0C5E0914B02F0914C02D0
:10422000868990E0A0E0B0E089839A83AB83BC8369
:10423000BE016F5F7F4F8AEB92E00E94ED158823ED
:1042400009F4BAC5E0914B02F0914C028981868B4A
:1042500066CFE0914B02F0914C02878990E0A0E09C
:10426000B0E089839A83AB83BC83BE016F5F7F4FCD
:1042700085EB92E00E94ED15882309F49DC5E0913D
:104280004B02F0914C028981878B49CFE0914B0220
:10429000F0914C02808D918DA0E0B0E089839A83EB
:1042A000AB83BC83BE016F5F7F4F80EB92E00E94C7
:1042B000ED15882309F480C5E0914B02F0914C0282
:1042C00089819A81918F808F2ACFE0914B02F09162
:1042D0004C02828D90E0A0E0B0E089839A83AB83AA
:1042E000BC83BE016F5F7F4F8BEA92E00E94ED15A9
:1042F000882309F461C5E0914B02F0914C02898159
:10430000828F0DCFE0914B02F0914C02838D948D02
:10431000A58DB68D89839A83AB83BC83BE016F5F05
:104320007F4F86EA92E00E94ED15882309F444C588
:10433000E0914B02F0914C0289819A81AB81BC8162
:10434000838F948FA58FB68FEACEE0914B02F091C8
:104350004C02878D90A1A1A1B2A189839A83AB83DE
:10436000BC83BE016F5F7F4F81EA92E00E94ED1532
:10437000882309F421C5E0914B02F0914C02898118
:104380009A81AB81BC81878F90A3A1A3B2A3C7CE32
:10439000E0914B02F0914C0283A194A1A5A1B6A19A
:1043A00089839A83AB83BC83BE016F5F7F4F8CE9A7
:1043B00092E00E945916882309F4FEC4E0914B0252
:1043C000F0914C0289819A81AB81BC8183A394A333
:1043D000A5A3B6A3A4CEE0914B02F0914C0287A115
:1043E00090A5A0E0B0E089839A83AB83BC83BE0133
:1043F0006F5F7F4F87E992E00E94ED15882309F4F3
:10440000DBC4E0914B02F0914C0289819A8190A724
:1044100087A385CEE0914B02F0914C0281A592A535
:10442000A0E0B0E089839A83AB83BC83BE016F5F59
:104430007F4F82E992E00E94ED15882309F4BCC405
:10444000E0914B02F0914C0289819A8192A781A759
:1044500066CEE0914B02F0914C0283A58983BE01A8
:104460006F5F7F4F8DE892E00E941D13882309F44F
:10447000A3C4E0914B02F0914C02898183A74FCEF7
:10448000E0914B02F0914C0285A590E0A0E0B0E0F5
:1044900089839A83AB83BC83BE016F5F7F4F88E8BB
:1044A00092E00E94ED15882309F486C4E0914B0246
:1044B000F0914C02898185A732CEE0914B02F091B8
:1044C0004C0284A590E0A0E0B0E089839A83AB839E
:1044D000BC83BE016F5F7F4F83E892E00E94ED15C1
:1044E000882309F469C4E0914B02F0914C02898160
:1044F00084A715CE80914B0290914C020E943312FA
:10450000109268021092690280914B0290914C02C5
:10451000DC019E96EC920E9421114EC4E0916A0249
:104520008E2F90E08E30910508F0AFC2FC01E25B67
:10453000FF4F80916D0290916E020C940C31092E08
:10454000000CAA0BBB0B89839A83AB83BC83BE018F
:104550006F5F7F4F89E792E00E94ED15882309F491
:104560002BC489819A81AB81BC8180319105A105E1
:10457000B1050CF0D6C290936E0280936D028091CB
:104580006A028F5F80936A02CCC2E0914B02F09185
:104590004C02F89E9001F99E300D1124E20FF31F9A
:1045A00087AD8983BE016F5F7F4F88E392E00E94F1
:1045B0001D13882309F400C4E0914B02F0914C02D2
:1045C00020916D0230916E02F29EC001F39E900D1B
:1045D0001124E80FF91F898187AF4FC2E0914B0288
:1045E000F0914C02F89E9001F99E300D1124E20FDB
:1045F000F31F86AD8983BE016F5F7F4F84E792E032
:104600000E941D13882309F4D7C3E0914B02F09157
:104610004C0220916D0230916E02F29EC001F39E19
:10462000900D1124E80FF91F898186AF26C2E09111
:104630004B02F0914C02F89E9001F99E300D11242E
:10464000E20FF31F85AD8983BE016F5F7F4F8FE659
:1046500092E00E941D13882309F4AEC3E0914B023F
:10466000F0914C0220916D0230916E02F29EC001D9
:10467000F39E900D1124E80FF91F898185AFFDC1CC
:10468000E0914B02F0914C02F89E9001F99E300DA2
:104690001124E20FF31FE05CFF4F80819181A28122
:1046A000B38189839A83AB83BC83BE016F5F7F4FE5
:1046B0008AE692E00E945916882309F47DC3E091AE
:1046C0004B02F0914C0220916D0230916E02F29EED
:1046D000C001F39E900D1124E80FF91FE05CFF4F1D
:1046E000C4C1E0914B02F0914C02F89E9001F99EFA
:1046F000300D1124E20FF31FEC5BFF4F808191819D
:10470000A281B38189839A83AB83BC83BE016F5F2F
:104710007F4F85E692E00E94ED15882309F44CC393
:10472000E0914B02F0914C0220916D0230916E02AB
:10473000F29EC001F39E900D1124E80FF91FEC5B6F
:10474000FF4F89819A81AB81BC8180839183A28351
:10475000B38393C1E0914B02F0914C02F89E90011B
:10476000F99E300D1124E20FF31FE85BFF4F8081AB
:104770009181A281B38189839A83AB83BC83BE017B
:104780006F5F7F4F80E692E00E945916882309F4FC
:1047900013C3E0914B02F0914C0220916D023091D5
:1047A0006E02F29EC001F39E900D1124E80FF91FD6
:1047B000E85BFF4F5AC1E0914B02F0914C02F89E2A
:1047C0009001F99E300D1124E20FF31FE45BFF4FBF
:1047D00080819181A281B38189839A83AB83BC83D9
:1047E000BE016F5F7F4F8BE592E00E9459168823D0
:1047F00009F4E2C2E0914B02F0914C0220916D026B
:1048000030916E02F29EC001F39E900D1124E80FCC
:10481000F91FE45BFF4F29C1E0914B02F0914C027C
:10482000F89E9001F99E300D1124E20FF31FE05B1A
:10483000FF4F80819181A281B38189839A83AB8369
:10484000BC83BE016F5F7F4F86E592E00E945916E0
:10485000882309F4B1C2E0914B02F0914C022091FF
:104860006D0230916E02F29EC001F39E900D1124F4
:10487000E80FF91FE05BFF4FF8C0E0914B02F091A9
:104880004C02F89E9001F99E300D1124E20FF31FA7
:10489000EC5AFF4F80819181A281B38189839A83F1
:1048A000AB83BC83BE016F5F7F4F81E592E00E94C6
:1048B0005916882309F480C2E0914B02F0914C0212
:1048C00020916D0230916E02F29EC001F39E900D18
:1048D0001124E80FF91FEC5AFF4FC7C0E0914B02BB
:1048E000F0914C02F89E9001F99E300D1124E20FD8
:1048F000F31FE85AFF4F80819181A281B3818983A0
:104900009A83AB83BC83BE016F5F7F4F8CE492E0E0
:104910000E945916882309F44FC2E0914B02F0918E
:104920004C0220916D0230916E02F29EC001F39E06
:10493000900D1124E80FF91FE85AFF4F96C0E0913F
:104940004B02F0914C02F89E9001F99E300D11241B
:10495000E20FF31FE45AFF4F80819181A0E0B0E0A5
:1049600089839A83AB83BC83BE016F5F7F4F87E4EB
:1049700092E00E94ED15882309F41EC2E0914B02DB
:10498000F0914C0220916D0230916E02F29EC001B6
:10499000F39E900D1124E80FF91FE45AFF4F30C029
:1049A000E0914B02F0914C02F89E9001F99E300D7F
:1049B0001124E20FF31FE25AFF4F80819181A0E0A2
:1049C000B0E089839A83AB83BC83BE016F5F7F4F66
:1049D00082E492E00E94ED15882309F4EDC1E09194
:1049E0004B02F0914C0220916D0230916E02F29ECA
:1049F000C001F39E900D1124E80FF91FE25AFF4FFA
:104A000089819A819183808338C0E0914B02F09133
:104A10004C02F89E9001F99E300D1124E20FF31F15
:104A2000E05AFF4F80819181A281B38189839A836B
:104A3000AB83BC83BE016F5F7F4F8DE392E00E942A
:104A40005916882309F4B8C1E0914B02F0914C0249
:104A500020916D0230916E02F29EC001F39E900D86
:104A60001124E80FF91FE05AFF4F89819A81AB8129
:104A7000BC8180839183A283B38310926F02809163
:104A80006A028F5F80936A0297C180914B02909176
:104A90004C020E9433121092680210926A028CC17A
:104AA00080916B02882319F08130F1F154C180911B
:104AB0006D0290916E02092E000CAA0BBB0B89832C
:104AC0009A83AB83BC83BE016F5F7F4F83E392E029
:104AD0000E94ED15882309F46FC149815A816B81C9
:104AE0007C814031510561057105DCF450936E0203
:104AF00040936D02E0914B02F0914C02F49EC00194
:104B0000F59E900D1124E80FF91F85AD8093720278
:104B1000109270021092710280916B028F5F8093ED
:104B20006B0210926F0248C18091490290914A0233
:104B3000DC01ED91FC910284F385E02D09958C0157
:104B40008237910509F43BC180918B020E9457196D
:104B5000892B09F434C180916D0290916E028031ED
:104B600091050CF0F2C0E0914B02F0914C02F89EDE
:104B70009001F99E300D1124E20FF31F27AD22237F
:104B800009F4DDC00136110531F460E080916F0257
:104B90000E94841309C00037110531F480914D0241
:104BA00090914E020E94C40AE0914B02F0914C0297
:104BB00083A5882309F452C085E592E00E94021182
:104BC00085E592E00E94D410882309F447C085E56A
:104BD00092E00E941411E0914B02F0914C02E7A682
:104BE000A0914D02B0914E02D4968C91D4978090B2
:104BF0006D0290906E028823B9F050964D915D91B0
:104C00006D917C91539754968D919D910D90BC918F
:104C1000A02D1A012B01281A390A4A0A5B0A22AA76
:104C200033AA44AA55AA15C0F89CD001F99CB00D2E
:104C30001124AE0FBF1FAC5BBF4F2D913D914D9125
:104C40005C91A0E6BAEE0E94532F62AB73AB84ABCB
:104C500095AB91AA80AACF010E9421118091710287
:104C600081112AC0E092710260916D0270916E0212
:104C700080914D0290914E020E94310BE0914B02C7
:104C8000F0914C0220916D0230916E02F29EC001B3
:104C9000F39E900D1124E80FF91F85AD80937202E9
:104CA00010926F020E94A71A609387027093880285
:104CB0008093890290938A0261E080914D029091E5
:104CC0004E020E94A708882309F476C0E0914B02A7
:104CD000F0914C0220916D0230916E02F29EC00163
:104CE000F39E900D1124E80FF91F86AD8823D9F0AB
:104CF000E0926F0280917202882349F0E0914F02A6
:104D0000F091500264EB70E080810E94EC1907374B
:104D1000110509F05DC080914F02909150020E94F0
:104D2000C81010926F0280916D0290916E020196F0
:104D300090936E0280936D02109271023DC00196B5
:104D400090936E0280936D0237C080916B028F5FEB
:104D500080936B0231C080914B0290914C02DC0138
:104D60009B962C919B97222321F09F961C920E9448
:104D70002111109270021092710210926F02109223
:104D800068021092690210926A0210926B021092ED
:104D90006C0210926E0210926D0280914F029091FF
:104DA00050020E94C81080914D0290914E020E94C4
:104DB000F50A02C0109268020E94C51719C8E09156
:104DC0004B02F0914C0217A6B4E1B0936B02C3CE34
:104DD0000236110589F780914F02909150020E948E
:104DE000C81010927202E8CFE3E5F3E086E491E0A8
:104DF0009183808386E391E0958F848F8FE693E0A3
:104E00000C94771BEF92FF920F931F93CF93DF9336
:104E10001092AF011092AE0188EE93E0A0E0B0E0F6
:104E20008093B0019093B101A093B201B093B3010C
:104E30008EE091E09093AD018093AC0185EC90E021
:104E40009093B9018093B80184EC90E09093BB01FA
:104E50008093BA0180EC90E09093BD018093BC01F7
:104E600081EC90E09093BF018093BE0182EC90E0D2
:104E70009093C1018093C00186EC90E09093C301B0
:104E80008093C2011092C5011092C6011092C70111
:104E90001092C80180E091E090933E0480933D041D
:104EA0008BE89AE9A4E0B0E080933F04909340043B
:104EB000A0934104B093420481E08093430460E0F6
:104EC0008CE00E94B019E2E4F3E0E491E093F9038E
:104ED000EEE2F3E0E491F0E0EE0FFF1FE85EFC4F3E
:104EE000859194919093FB038093FA0310920404AC
:104EF0001092060410920504E4E0F4E0129283E0BC
:104F0000EC3FF807D9F783EC98E19093F80380938E
:104F1000F70389EF93E09093EC038093EB031092F7
:104F2000EA031092E60389E08093E70361E060936F
:104F3000E8036093E9038CE08093A30387E094E0A7
:104F40009093A5038093A4031092A7032EE631E06B
:104F50003093A2032093A10326EE33E03093E503C0
:104F60002093E4036093A60310929303109294039A
:104F700028E02093920326E531E0309391032093BB
:104F80009003909396038093950380E091EEA0E0C8
:104F9000B0E080936B0390936C03A0936D03B09388
:104FA0006E0386E491E09093540380935303109230
:104FB00072031092710388EE93E0A0E0B0E080935A
:104FC000730390937403A0937503B093760386E301
:104FD00091E09093700380936F0310928603109278
:104FE0008503109288031092870310928A0310920F
:104FF000890310928C0310928B0380918D038E7F16
:105000008D7F80938D038695817068278BE00E9449
:10501000801961E08BE00E94B019E1E4F3E0E491D3
:10502000E0937F03EDE2F3E0E491F0E0EE0FFF1F89
:10503000E25FFC4F8591949190938103809380036C
:1050400060E08AE00E94B01980918D0381FD04C068
:1050500061E08AE00E9480198AE080937B03E0E4AB
:10506000F3E0E491E0937C03ECE2F3E0E491F0E020
:10507000EE0FFF1FE85EFC4F8591949190937E03A5
:1050800080937D03C7E0D4E0D0938F03C0938E0359
:105090008FE080935003D0935203C093510389E073
:1050A00080934F03D0932403C093230310922603CD
:1050B0001092250310922703109228038AE291E0B0
:1050C000909322038093210310922D0310922E03BC
:1050D00010922F031092300389E293E00E94141182
:1050E0001092400310924103109242031092430326
:1050F0008CE393E00E941411D093D302C093D202A8
:105100001092D5021092D4021092D6021092D702B9
:105110008EE191E09093D1028093D00285E193E0FB
:105120009093F5028093F40281E193E09093F3026F
:105130008093F20289E193E09093F7028093F60264
:1051400010921003109208031092090310920A03A0
:1051500010920B0380E090E0AFE7B3E480930C0380
:1051600090930D03A0930E03B0930F0384E690E099
:10517000A0E0B0E08093040390930503A09306039E
:10518000B09307031092F1021092F0028EEA97E4B6
:10519000A1E8B1E48093D8029093D902A093DA02F7
:1051A000B093DB0249E25CE56FE07EE34093DC0212
:1051B0005093DD026093DE027093DF024DEC5CE001
:1051C00060EF73E44093E0025093E1026093E202E7
:1051D0007093E3028093E4029093E502A093E602C9
:1051E000B093E70282E490E6A5E6BCE38093E80290
:1051F0009093E902A093EA02B093EB0280E098E07A
:10520000A6E9B5E48093EC029093ED02A093EE0240
:10521000B093EF020E94A71A0091040310910503B6
:105220002091060330910703DC01CB01801B910B19
:10523000A20BB30B8093F8029093F902A093FA02A9
:10524000B093FB0210921D0310921E0310921F03D5
:1052500010922003D0938E02C0938D0280E593E0DC
:105260009093900280938F0280ED92E0909392024F
:105270008093910281E293E0909394028093930251
:1052800091EAE92E93E0F92EF0929602E0929502CF
:1052900000E913E0109398020093970210929D0288
:1052A00010929E0210929F021092A00289E992E051
:1052B0000E94141180EA9FE0A0E0B0E08093B00269
:1052C0009093B102A093B202B093B3028CEA92E041
:1052D0000E9414111092C0021092C1021092C302D7
:1052E0001092C5021092C4021092C6021092C70218
:1052F0001092C8021092C90283E593E090934A028B
:1053000080934902D0934C02C0934B028DE892E007
:1053100090934E0280934D028FE493E0909350025D
:1053200080934F02F0925202E09251021093540285
:105330000093530280E395E7A0E0B0E08093590228
:1053400090935A02A0935B02B0935C0285E592E0D1
:105350000E941411109268021092690210926A025F
:1053600010926B0210926C0210926E0210926D02FB
:1053700010926F021092700282E080938B0283E0A1
:1053800080938C02DF91CF911F910F91FF90EF904E
:105390000895EF920F931F93CF93DF93E80147FD9A
:1053A00002C034E001C034E1E42F440FFF0BF7FFEB
:1053B00003C0F195E195F109E32E022F2E2FAE01E6
:1053C0000E94322ACE01DF91CF911F910F91EF9071
:1053D0000895662777270C94C02B1F93FC0199270B
:1053E0008827BC01E89411911032E9F3193010F0CC
:1053F0001E30C8F31B3251F01D3249F4689406C0C8
:105400000E941D2A610F711D811D911D1191105364
:105410001A30B0F33EF490958095709561957F4F6A
:105420008F4F9F4F1F910895FB01DC0102C0059033
:105430000D9241505040D8F70895592F482F372FDB
:10544000262F660F771F881F991F660F771F881FEB
:10545000991F620F731F841F951F660F771F881F88
:10546000991F08954F925F926F927F929F92AF9291
:10547000BF92CF92DF92EF92FF920F931F93CF9341
:10548000DF93CDB7DEB729970FB6F894DEBF0FBE16
:10549000CDBF6A01122FB02E2BE3201720F0FF247E
:1054A000F394F00E02C0BCE3FB2E0F2D27E0AE01FB
:1054B0004F5F5F4F0E941D2DAC018981982F99701D
:1054C000913031F0E1FC06C0E0FE06C090E205C07C
:1054D0009DE203C09BE201C090E0EE2DE07183FFEE
:1054E0003CC0911102C083E001C084E0811718F430
:1054F000212F281B01C020E0E1110BC0F601822FF3
:1055000030E2882319F031938150FBCFC20ED11CB9
:1055100020E0992329F0D6019C93F60131966F0182
:10552000C6010396E2FE0AC03EE4D6013C9341E484
:1055300011964C93119712963C9306C03EE6F601E5
:10554000308341E641833283FC01322F40E2332332
:1055500009F442C041933150FACF82FF44C0911107
:1055600002C083E001C084E0811718F4212F281BBA
:1055700001C020E0E1110BC0F601822F30E2882348
:1055800019F031938150FBCFC20ED11C20E099233A
:1055900029F0D6019C93F60131966F01C60103965E
:1055A000E2FE0BC039E4D6013C933EE411963C93F5
:1055B000119736E412963C9307C039E6F601308322
:1055C0003EE6318336E63283FC01322F40E233235C
:1055D00019F041933150FBCFFC01E20FF11D108215
:1055E0008EEF9FEFB7C0F1E0911101C0F0E06F2F97
:1055F00070E01416150624F49A012F5F3F4F02C085
:1056000021E030E0260F371FBB2029F06B2D70E022
:105610006F5F7F4F02C060E070E0260F371F612F81
:1056200070E0261737071CF4121B212F01C020E061
:105630003E2D387159F4D601322F60E2332319F030
:105640006D933150FBCFC20ED11C20E0FF2331F00F
:10565000D6019C93B6016F5F7F4F6B01E1110BC0C8
:10566000F601922F30E3992319F031939150FBCF3B
:10567000C20ED11C20E09F2D940F3A81782F7071BB
:10568000A72E84FF03C0313309F49150191624F476
:10569000993018F098E001C091E0E42F852F57FF72
:1056A00002C0E0E080E06E2F782FE0E0F0E0AEE2B4
:1056B0009A2E3A01691A71082A01461A570A0B2DC7
:1056C00010E01195019511096F3F8FEF780729F4CC
:1056D000D6019C92C60101966C014617570784F0CB
:1056E000661677066CF47F01E40CF51CA1E0B0E0CF
:1056F000AC0FBD1FEA0EFB1ED7011196BC9002C075
:1057000090E3B92E615071093196C60101967C0172
:105710006017710724F0D601BC926C01D5CF6417D5
:10572000750741F4363320F4353321F4A11002C05B
:1057300081E3B82EF601B082F701822F90E2882330
:1057400019F091938150FBCFF701E20FF11D108208
:1057500080E090E029960FB6F894DEBF0FBECDBF73
:10576000DF91CF911F910F91FF90EF90DF90CF903D
:10577000BF90AF909F907F906F905F904F900895F3
:10578000A0E0B0E0E6ECFBE20C94622FEC017B01C0
:105790006115710519F0DB018D939C938E010F5FEC
:1057A0001F4F7880872D90E00E94F52D892B11F0F6
:1057B000E801F4CFBDE27B1205C00F5F1F4F798077
:1057C000C1E008C0EBE27E1204C08E010E5F1F4FE5
:1057D0007980C0E06801F1E0CF1AD10843E050E0E1
:1057E00060EC70E0C6010E94FE2D892BF1F4680187
:1057F00022E0C20ED11C45E050E06BEB70E0C60128
:105800000E94FE2D892B21F4680187E0C80ED11C6F
:10581000E114F10419F0D701CD92DC92C111FFC05F
:1058200060E070E080E89FE703C143E050E068EB90
:1058300070E0C6010E94FE2D892B51F4E114F104A1
:1058400009F4F2C00E5F1F4FF70111830083ECC013
:10585000680160E070E0CB0100E010E0F601D0EDFF
:10586000D70DDA3058F52C2F2260622E2C2F28709D
:10587000C2FF05C0211128C00F5F1F4F25C0222382
:1058800011F001501109A5E0B0E09B01AC010E94AC
:10589000532F4B015C01880C991CAA1CBB1CC50131
:1058A000B4016D0F711D811D911D6839A9E97A0739
:1058B0008A07A9E19A0740F0C66005C0DE3F51F4AF
:1058C000C3FD44C0C8606C2EBFEFCB1ADB0A7080EA
:1058D000C62DC4CF2D2F2F7D2531C1F540814D32EE
:1058E00011F4C06106C04B3221F0319621E030E066
:1058F00006C03296D60111964C9122E030E0A0ED20
:10590000A40FAA3018F0E21BF30B20C040E050E0D7
:105910004038BCE05B075CF49A01220F331F220F72
:10592000331F420F531F440F551F4A0F511D31960D
:10593000DF0111972C91A0EDA20FAA3048F3C4FF0C
:1059400003C0519541955109040F151FC1FF07C0B0
:10595000E114F10421F03197D701ED93FC930E94FB
:105960001B2EC370C33019F06B017C0106C06B01A4
:105970007C01F7FAF094F7F8F09420E030E0A90108
:10598000C701B6010E94162E882309F445C017FFEF
:1059900006C0119501951109C7EDD0E002C0CFEE08
:1059A000D0E05E01B8E1AB1AB1084601BE2DAF2DC3
:1059B00090E2E92EF12C0E151F0584F0FE012591D1
:1059C000359145915491B4018B2F9A2F0E947C2ED2
:1059D0004B01B82FA92F0E191F09EDCF2497F5946D
:1059E000E794CA15DB0539F76401EB2EFA2E8E2DEC
:1059F000880F8F2D881F8F3F49F020E030E0A901EC
:105A0000C701B6010E94162E811106C082E290E005
:105A10009093020780930107C701B60109C060E0B7
:105A200070E080E89FEF04C060E070E080EC9FE7EA
:105A3000CDB7DEB7EEE00C947E2F283008F027E0DB
:105A40003327DA01990F311D87FD916000966105BA
:105A5000710539F432602E5F3D9330E32A95E1F70A
:105A600008959F3F30F080387105610509F03C5F73
:105A70003C5F3D93913008F08068911DDF93CF9398
:105A80001F930F93FF92EF92192F987F9695E92F0E
:105A900096959695E90FFF27E35BFE4F99273327ED
:105AA000EE24FF24A701E70105900894079428F449
:105AB000360FE71EF81E491F511D660F771F881FFE
:105AC000991F0694A1F70590079428F4E70EF81E95
:105AD000491F561FC11D770F881F991F661F069407
