:100000000C9439020C9461020C9461020C94381B1C
:100010000C94381B0C94381B0C9461020C946102F4
:100020000C9461020C9461020C9461020C946102C4
:100030000C9461020C9461020C9461020C946102B4
:100040000C94EE1A0C9461020C9460190C943A19F9
:100050000C9461020C9461020C9461020C94610294
:100060000C9461020C9461028F20A620A920D32059
:10007000D620D920DC20DF20E320022121214421C9
:10008000B622B622482165218221A121BE21E1218B
:1000900004222722462265227C229922DB22012388
:1000A0002A2353237C23AD23E623172448247924D1
:1000B000AA24DB240C2541254E414E494E49545972
:1000C000494E46CDCCCC3D0AD7233C17B7D1387723
:1000D000CC2B329595E6241FB14F0A000020410039
:1000E00000C84200401C4620BCBE4CCA1B0E5AAE83
:1000F000C59D7400407A10F35A00A0724E18090092
:1001000010A5D4E80000E87648170000E40B54027C
:100110000000CA9A3B000000E1F5050000809698B7
:1001200000000040420F000000A086010000001007
:100130002700000000E80300000000640000000049
:10014000000A00000000000100000000002C76D82A
:1001500088DC674F0823DFC1DFAE59E1B1B796E510
:10016000E3E453C63AE651997696E8E6C28426EB74
:10017000898C9B62ED407C6FFCEFBC9C9F40F2BA87
:10018000A56FA5F490055A2AF75C936B6CF9676D1F
:10019000C11BFCE0E40D47FEF520E6B500D0ED9074
:1001A0002E0300943577050080841E080000204E41
:1001B0000A000000C80C333333330F986E128311DA
:1001C00041EF8D2114893BE65516CFFEE6DB18D1B1
:1001D000844B381BF77C1D901DA4BBE42420328483
:1001E000725E228100C9F124ECA1E53D275E010188
:1001F0001F0103030100008A02010A01020201003B
:100200000064001E47040B090600007C0101060182
:100210000303010000F401060E010202010000C206
:1002200001170101020201010000000000000101AC
:10023000000000726E723A00626F6E3A00626D6783
:100240003A006270663A0062706E3A00626B643A1D
:1002500000626B693A00626B703A006261743A0046
:100260006269743A006274643A006273743A0062BC
:1002700062633A006268613A00626E723A007370BB
:10028000733A00736F683A00736C733A00736C735F
:100290003A00736E723A007370773A0073626C3A88
:1002A000007373753A007373613A007373623A00B6
:1002B0007373703A007373723A007373743A007315
:1002C00070643A007370743A00736B6D3A00737027
:1002D000693A003A006D61006D64007200200020F0
:1002E0004B00205700204F002050002044002042A7
:1002F0000030003100204800204A002053002051E7
:1003000000204700204900204E004100300031000D
:100310003000310000000000250028002B00000004
:10032000000023002600290004040404040404043B
:100330000202020202020303030303030102040890
:10034000102040800102040810200102040810203F
:10035000005EBCE2613FDD83C29C7E20A3FD1F41A5
:100360009DC3217FFCA2401E5F01E3BD3E6082DC95
:10037000237D9FC1421CFEA0E1BF5D0380DE3C6285
:10038000BEE0025CDF81633D7C22C09E1D43A1FF75
:100390004618FAA427799BC584DA3866E5BB590765
:1003A000DB856739BAE406581947A5FB7826C49A55
:1003B000653BD987045AB8E6A7F91B45C6987A2445
:1003C000F8A6441A99C7257B3A6486D85B05E7B935
:1003D0008CD2306EEDB3510F4E10F2AC2F7193CD25
:1003E000114FADF3702ECC92D38D6F31B2EC0E5015
:1003F000AFF1134DCE90722C6D33D18F0C52B0EE05
:10040000326C8ED0530DEFB1F0AE4C1291CF2D73F4
:10041000CA947628ABF517490856B4EA6937D58BE4
:100420005709EBB536688AD495CB2977F4AA4816D4
:10043000E9B7550B88D6346A2B7597C94A14F6A8C4
:10044000742AC896154BA9F7B6E80A54D7896B35B4
:1004500000000000240027002A000000000800021D
:100460000100000304070000000000000000402716
:10047000322711241FBECFEFD8E0DEBFCDBF27E06B
:10048000A0EBB1E001C01D92A730B207E1F711E087
:10049000A0E0B1E0E0E4F8E602C005900D92A03BD8
:1004A000B107D9F712E0C8E3D2E004C02197FE01FA
:1004B0000E944A31C733D107C9F70E946A1D0C94C4
:1004C00013340C940000FC0186810895FC0187819F
:1004D00017820895FC01168217820895CF93DF9347
:1004E000EC016C96CE010E94C118892B29F0CE0137
:1004F000DF91CF910C94D91880E090E0DF91CF91FB
:100500000895CF93DF93EC011E821F8208960E940C
:100510001A11CE014B96DF91CF910C941A112F92A4
:100520003F924F925F926F927F928F929F92AF9283
:10053000BF92CF92DF92EF92FF920F931F93CF93D0
:10054000DF9300D000D0CDB7DEB79C838B834A0108
:100550005B0168017901DC0116968C91169714965F
:100560002D903C9015971296ED91FC911397FA837C
:10057000E9838823C9F187E2829D8001839D100D64
:1005800011240E0F1F1FF801E05CFF4FD801A45B80
:10059000BF4F2D913D914D915C9160817181828120
:1005A00093810E94E32F2B013C01F801E05BFF4F98
:1005B0002081318142815381C701B6010E94BA2E48
:1005C0009B01AC01C301B2010E94E22F9B01AC016F
:1005D00011E0C501B4010E94F03018160CF010E0D3
:1005E00081E0912E982637C087E2829D8001839D0D
:1005F000100D112429813A81020F131FF801E05CCC
:10060000FF4FD801A85BBF4F2D913D914D915C915B
:1006100060817181828193810E94E32F2B013C01D3
:10062000F801E05BFF4F2081318142815381C70196
:10063000B6010E94BA2E9B01AC01C301B2010E9417
:10064000E22F9B01AC01C501B4010E94542E982EEB
:10065000991C9924991C27E2229DC001239D900D8D
:100660001124A981BA818A0F9B1FFC01E45AFF4F14
:10067000208131812115310511F1329680819181DE
:10068000892BE9F00B811C81085F1F4F992009F429
:10069000B2C0EB81FC81818D882309F45BC0848921
:1006A0009589A689B78984879587A687B787C80162
:1006B0000E940811C8010E94DA10811159C0EB8113
:1006C000FC81A480B5800281138187E28A9DF001BC
:1006D0008B9DF00D1124E00FF11FE05AFF4F408079
:1006E00051806280738020E030E0A901C301B20133
:1006F0000E94F030181644F4A7019601C301B2011C
:100700000E94542E87FD912C27E22A9DC0012B9D2B
:10071000900D1124080F191FD801A45BBF4FF801D9
:10072000E85BFF4F20813181428153816D917D9142
:100730008D919C910E94542E87FD67C0AB81BC8136
:1007400016968C911697891509F462C081E0179668
:100750008C935EC048EE53E0249FC001259F900D0E
:10076000349F900D1124A0E0B0E0EB81FC819BCF81
:10077000AB81BC811296ED91FC91139714962D914B
:100780003C91159747E2429FC001439F900D112471
:10079000E80FF91FE25AFF4F208131815D01BBE173
:1007A000AB0EB11CEB81FC8184A5882349F087A1A5
:1007B00090A5A1A5B2A5878F90A3A1A3B2A313C0B2
:1007C00088EE93E0289FA001299F500D389F500D7F
:1007D000112460E070E0AB81BC815F964D935D9326
:1007E0006D937C939297C5010E940811C5010E94E8
:1007F000DA10882341F0C8010E941A118B819C8174
:100800004B960E941A11912C5ACF81E0982696CFD0
:10081000EB81FC819682892D0F900F900F900F90A5
:10082000DF91CF911F910F91FF90EF90DF90CF90CC
:10083000BF90AF909F908F907F906F905F904F9000
:100840003F902F9008952F923F924F925F926F9218
:100850007F928F929F92AF92BF92CF92DF92EF9250
:10086000FF920F931F93CF93DF93CDB7DEB72E97F1
:100870000FB6F894DEBF0FBECDBF9E878D874C01AB
:1008800081E4880E911CD4014D935D936D937C930C
:100890001397AD84BE84B9E4AB0EB11CAD85BE85A3
:1008A0001296ED91FC91139714962D913C9115970A
:1008B00047E2429FC001439F900D1124E80FF91FAA
:1008C000E05CFF4F80819181A281B381F50180833B
:1008D0009183A283B3830E94E21AED85FE85E35BD8
:1008E000FF4F00811181228133816B017C01C01A8D
:1008F000D10AE20AF30AAD85BE8512960D911C91CC
:100900001397F4012081318142815381D5016D918A
:100910007D918D919C910E94E22FF801228933896B
:10092000448955890E94542E87FFFCC0ED85FE85C1
:10093000E05CFF4F8081882309F407C10E94E21A1E
:1009400069837A838B839C83ED85FE8580A591A541
:10095000A2A5B3A549815A816B817C81481B590BA3
:100960006A0B7B0B84A995A9A6A9B7A948175907B3
:100970006A077B0708F4E9C002A0F3A1E02D4080DC
:10098000518062807380AD85BE859696ED91FC9115
:100990009797A301920160817181828193810E9466
:1009A000E22F6D837E838F839887ED85FE85208D72
:1009B000318D428D538D0E94BA2EAD85BE859C9699
:1009C0002D913D914D915C919F970E94E32F4B019A
:1009D0005C01ED85FE8564A775A786A797A714AD72
:1009E00005AD36AC27AC212F302F432D522D0E9460
:1009F000F03018162CF4812F902FA32DB22D18C093
:100A0000AD85BE85D8968D919D910D90BC91A02D00
:100A100089879A87AB87BC879C01AD01C501B4016A
:100A20000E94542E87FF0AC089859A85AB85BC85B4
:100A3000ED85FE8584A795A7A6A7B7A7AD85BE853A
:100A400054962D913D914D915C9157976D817E818A
:100A50008F8198850E94BA2EED85FE8524A535A547
:100A600046A557A50E94E32F4B015C01AD85BE85CD
:100A7000D0962D913D914D915C91D397C301B201D8
:100A80000E94E22FED85FE85248D358D468D578D94
:100A90000E94BA2E9B01AC01C501B4010E94E22F55
:100AA0004B015C01212F302F432D522D0E94F0303D
:100AB0001816DCF0AD85BE85D8961C91D897D996CE
:100AC0000C91D997DA963C90DA97DB962C90212FEF
:100AD000302F432D522DB401C5010E94542E87FDA5
:100AE00004C0182D092D3A2C2B2CAD85BE8594966B
:100AF000ED91FC919597812F902FA32DB22D80839E
:100B00009183A283B383ED85FE8540AA51AA62AA90
:100B100073AA89819A81AB81BC8180A791A7A2A782
:100B2000B3A713C0AD84BE84F5E4AF0EB11CD801E9
:100B30001E966D917C911F9780E090E00E94592E47
:100B4000F5016083718382839383AD85BE851296A0
:100B5000ED91FC9113976685778580E090E00E9487
:100B6000592E4B015C01C701B6010E94592EA50107
:100B700094010E94F0301816D4F40D851E85035B95
:100B80001F4FF80160817181828193810E94592EEB
:100B9000A50194010E94E32F0E94C130D8016D93FA
:100BA0007D938D939C931397C12CD12C7601C70113
:100BB000B6010E94592E9B01AC01ED85FE85EB5BD1
:100BC000FF4F60817181828193810E94F030ED85B9
:100BD000FE85968187FD0AC0911102C081E087835E
:100BE00081E0AD85BE8516968C930AC0992321F0CD
:100BF00081E0ED85FE858783AD85BE8516961C92C6
:100C0000ED85FE8586812E960FB6F894DEBF0FBE69
:100C1000CDBFDF91CF911F910F91FF90EF90DF90AB
:100C2000CF90BF90AF909F908F907F906F905F908C
:100C30004F903F902F9008952F923F924F925F9246
:100C40006F927F928F929F92AF92BF92CF92DF92DC
:100C5000EF92FF920F931F93CF93DF9300D000D0BA
:100C6000CDB7DEB71C01DC0116961C9216971796BD
:100C70001C92179712960D911C911397F801C0883A
:100C8000D1881C141D04F4F50D2C000CEE08FF088F
:100C9000C701B6010E945B2E4B015C01D101D496C5
:100CA0006D917D918D919C91D7970E94592E9B01BA
:100CB000AC01C501B4010E944F304B015C019B01A6
:100CC000AC01F101608D718D828D938D0E94BA2EE1
:100CD000D10158966D937D938D939C935B97A5015D
:100CE00094015C966D917D918D919C915F970E948E
:100CF0004F30F101648F758F868F978FC4AAD5AA64
:100D0000E6AAF7AAF1012481358147E2429FC0019A
:100D1000439F900D1124800F911FFC01E85AFF4F53
:100D2000C080D180E280F380349780809180A2805F
:100D3000B3803497408051806280738020E030E03F
:100D4000A901C301B2010E94542E87FD85C020E095
:100D500030E0A901C501B4010E94542E87FD7CC07A
:100D600020E030E0A901C701B6010E94542E87FDA2
:100D700073C0D10118964D925D926D927C921B9733
:100D8000F10184869586A686B7865096CD92DD922F
:100D9000ED92FC925397D4966D917D918D919C919B
:100DA000D7970E94592E20E030E04AE754E40E9491
:100DB0004F3069837A838B839C83F101448A558AFF
:100DC000668A778A9B01AC01C501B4010E94BA2EE4
:100DD0004B015C01D10158966D937D938D939C934B
:100DE0005B9729813A814B815C81C701B6010E94E2
:100DF0004F306B017C01F101648F758F868F978F67
:100E000080A191A1019741F5A301920160E070E0FA
:100E1000CB010E94E22FD10154966D937D938D9367
:100E20009C935797A501940160E070E0CB010E946C
:100E3000E22FF101608F718F828F938FA70196014E
:100E400060E070E0CB010E94E22FD1015C966D93CF
:100E50007D938D939C935F97F8016685778580E0FD
:100E600090E00E94592E6B017C0120E030E0A90146
:100E70000E94542E8101005C1F4F18160CF05EC0BA
:100E8000D101D8961D921D921D921C92DB97F10103
:100E9000C4AED5AEE6AEF7AED8018C91882309F486
:100EA0004DC0A4A0B5A0F501408051806280738040
:100EB000A7019601C301B2010E94F03018163CF45C
:100EC000D501CD92DD92ED92FC9213970EC020E0F9
:100ED00030E0A901C301B2010E94542E87FF05C072
:100EE000F5011082118212821382D1019C968D909D
:100EF0009D90AD90BC909F97DC96CD90DD90ED904D
:100F0000FC90DF97A7019601C501B4010E94F03063
:100F100018167CF0D101D896CD90DD90ED90FC9024
:100F2000DB97A7019601C501B4010E94542E87FFEB
:100F300005C0F101C4A6D5A6E6A6F7A6D8018C91F6
:100F400081113AC0D1019496ED91FC919597C080A2
:100F5000D180E280F380F101C4A6D5A6E6A6F7A66B
:100F600002A0F3A1E02D80819181A281B381F101E2
:100F700080AB91ABA2ABB3AB84AC95ACA6ACB7AC39
:100F8000A5019401C701B6010E94F03018166CF05B
:100F9000F10180AC91ACA2ACB3ACA5019401C70146
:100FA000B6010E94542E87FF07C0D1019C968D92F6
:100FB0009D92AD92BC929F9781E0F80180830E9440
:100FC000E21AF101E35BFF4F6083718382839383B5
:100FD0000F900F900F900F90DF91CF911F910F9175
:100FE000FF90EF90DF90CF90BF90AF909F908F9049
:100FF0007F906F905F904F903F902F900895CF9388
:10100000DF93EC016C96CE010E94251968E871E02F
:10101000CE01DF91CF910C9425194C960C94251993
:10102000CF93DF93EC016C96CE010E94011968E822
:1010300071E0CE01DF91CF910C9425194C960C9460
:101040000119FC0190810180F281E02DF8948181E9
:10105000892B81832281892F809528232283A7E0F1
:10106000B0E01197F1F7218182238183A3E2B0E000
:101070001197F1F780817894EFECF0E03197F1F778
:10108000982381E009F480E00895FC0190810180BB
:10109000F281E02D892F809560FF12C0F8942281A3
:1010A000822382838181892B8183A3E2B0E011971F
:1010B000F1F78281982B9283789487ED90E011C0AC
:1010C000F8942281822382838181892B8183AFEFEF
:1010D000B0E01197F1F78281982B928378948FE09A
:1010E00090E00197F1F70895FC0190810180F28171
:1010F000E02DF8948181292F209582238183789493
:101100008DE743E050E0815021F1DA011197F1F7CA
:1011100030813923C1F3F8948281822382838181D3
:10112000892B81837894ABE7B7E01197F1F7F894B6
:10113000818128232183A3E1B1E01197F1F7808118
:10114000982381E009F080E07894E3E6F6E03197B7
:10115000F1F708958F929F92AF92BF92CF92DF9254
:10116000EF92FF920F931F93CF93DF93DC015E9674
:101170002C91211101C2F62EEC018C01015E1F4F52
:10118000C8010E940811C8010E94DA10882309F4DE
:1011900007C1C8010E941A1188859985DC01ED916B
:1011A000FC910190F081E02D09954B015C0169AF44
:1011B0007AAF8BAF9CAF20E030E040EF52EC0E9462
:1011C000542E0E5D1F4F87FF04C084E0F80180831A
:1011D00002C0D8011C92E885F9858681DF0194E080
:1011E000899FA00DB11D112417968D929D92AD92ED
:1011F000BC921A978F5F8F3010F4868301C01682DD
:101200006E01A2E4CA0ED11CF6018081811109C0D1
:1012100049AD5AAD6BAD7CAD359740835183628348
:101220007383FF2051F0E885F9859681911105C0FF
:10123000E881F98195A5911145C18E819F81DC01DD
:10124000ED91FC910680F781E02D0995811102C096
:10125000F6011082E881F98195A5D6018C91981745
:1012600090F41C92FE01FD962081318142815381D0
:1012700069AD7AAD8BAD9CAD0E94542E18161CF052
:1012800083E0F80180838E819F81DC01ED91FC91E8
:101290000480F581E02D0995811118C18C819D8113
:1012A000DC01ED91FC910480F581E02D099581111F
:1012B0000DC18AA98F5F823010F48AAB71C01AAA5F
:1012C000CA80DB80F60180810E94861ABC01990FDA
:1012D000880B990B0E945B2E2FEC32ED47EA5CE302
:1012E0000E94BA2ED6011196ED91FC91129723A17E
:1012F00034A145A156A10E94542E881F8827881F1B
:101300008EAB882319F081E0F8018083FF2071F112
:10131000EE81FF81A281B3819C96EC909C97248101
:10132000358147E2429FC001439F900D11246D011A
:10133000C80ED91EF0E4CF0ED11C6E2D70E080E0F7
:1013400090E00E945B2ED6012D913D914D915C91D4
:101350000E94E32F9B01AC0169AD7AAD8BAD9CADD2
:101360000E94F030181614F4E110B3C02DA98A853C
:101370009B85222371F0FF2061F0F801208121116B
:1013800008C0DC01ED91FC910190F081E02D099500
:101390000AC0DC01ED91FC910280F381E02D0995FA
:1013A000FF2009F4E9C0C9ACDAACEBACFCACE881D5
:1013B000F9818481882371F08C819D81DC01ED911C
:1013C000FC910190F081E02D00E010E09801B70160
:1013D000A60136C08E809F80D401ED91FC91A08043
:1013E000B180E885F9852681422F50E0211107C0A0
:1013F000DF01DF966D917D918D919C910EC0DA0198
:101400001197AA0FBB1FAA0FBB1FAE0FBF1F1796C6
:101410006D917D918D919C911A979A01220F331FA6
:10142000220F331FE20FF31F27813085418552853C
:101430000E94E22F8B019C01B701A601C401F501B6
:1014400009958DAB8CA9811139C0EE81FF81448152
:1014500055812281338117E2149FC001159F900DA1
:101460001124820F931FDC01A45BBF4FFC01E85BDA
:10147000FF4F20813181428153816D917D918D910A
:101480009C910E94542EE881F9812FA938AD87FFE5
:1014900024C0129FC001139F900D1124E80FF91F63
:1014A000E05CFF4F2081318142815381C701B60149
:1014B0000E94542E181614F081E08CAB8CA9811177
:1014C00020C05AC08F5FD6018C93B7CE82E08AAB22
:1014D000F0CE82E0F801808349CF129FC001139FB4
:1014E000900D1124E80FF91FE05CFF4F208131813E
:1014F00042815381C701B6010E94F03087FFDCCFE3
:10150000DDCFE881F9812FA938AD47E2429FC001C4
:10151000439F900D1124E80FF91FEC5BFF4F2081D2
:10152000318142815381A0E6BAEE0E94912F8E0153
:10153000045F1F4F2D8D222349F0888D998DAA8D30
:10154000BB8D888B998BAA8BBB8B04C0688B798BE6
:101550008A8B9B8BC8010E940811C801DF91CF9133
:101560001F910F91FF90EF90DF90CF90BF90AF90C1
:101570009F908F900C94DA1080E0DF91CF911F91B3
:101580000F91FF90EF90DF90CF90BF90AF909F9022
:101590008F9008950F931F93CF93DF93EC018E8D5F
:1015A000882391F01E8E0E94E21A0C891D892E89D3
:1015B0003F89DC01CB01801B910BA20BB30B8C8705
:1015C0009D87AE87BF8712C081E08E8F0E94E21A8E
:1015D0000C851D852E853F85DC01CB01801B910B81
:1015E000A20BB30B8C8B9D8BAE8BBF8BDF91CF91FE
:1015F0001F910F910895CF93DF93EC011BAA1CAAB2
:101600001DAA8A859B85DC01ED91FC910280F38106
:10161000E02D099518AE1FAACE010C960E941A1152
:1016200088859985DC01ED91FC910190F081E02D98
:10163000099569AF7AAF8BAF9CAFE885F9851682C3
:10164000DF011796ED5BFF4F6D937D938D939D9317
:10165000AE17BF07C9F782E08AABFE01EF5BFF4F11
:101660001082CE5BDF4F1882DF91CF9108950F93E8
:101670001F93CF93DF93EC018B010E94FB0A18AFFD
:101680000FAB8C819D81DC0115961C930E931497F2
:10169000ED91FC910280F381E02D09952FA938ADE1
:1016A0008E819F81FC01358324830190F081E02DA0
:1016B0000280F381E02DDF91CF911F910F9109946A
:1016C000FC0185810895FC0183810895FC018481DA
:1016D0000895FC018481811105C08381882311F064
:1016E00081E0848313820895FC018481811105C007
:1016F0008381811102C081E0848381E08383089526
:101700008F929F92AF92BF92EF92FF920F931F938F
:10171000CF93DF93CDB7DEB761970FB6F894DEBFF6
:101720000FBECDBF8C017C0143E4E40EF11CF70138
:10173000A080B18040E0BE01665F7F4FC5010E947E
:10174000D51B811107C0812C912CFEEFAF2EF2EC3E
:10175000BF2E4DC0AE014F5F5F4FBE01665F7F4F32
:10176000C5010E94091D882359F16981F8E06F9F26
:10177000B00111248A81282F30E0322F2227330F25
:10178000330F330F262B372B8A858031E1F46885A0
:1017900070E08F81AB01481B5109CA019695982FC3
:1017A0008827979587950E94F53060517109207FB1
:1017B00053E0220F331F5A95E1F7620F731F04C0E5
:1017C00060E874EE01C0B901613854EE75070CF49D
:1017D000BACF072E000C880B990B0E945B2E20E0DD
:1017E00030E040E05CE30E94BA2E4B015C01F7015F
:1017F000808191810E94531CF80103811481F801BA
:101800002681378140855185C501B4010E94BA2ED9
:10181000F80122853385448555850E94E32F619622
:101820000FB6F894DEBF0FBECDBFDF91CF911F91F1
:101830000F91FF90EF90BF90AF909F908F90089581
:101840008F929F92AF92BF92CF92DF92EF92FF92D0
:101850000F931F93CF93DF93CDB7DEB762970FB689
:10186000F894DEBF0FBECDBF7C0160E0DC011296B4
:101870008C910E94EB19B3E4EB0EF11CF70100818F
:101880001181D8011596ED91FC9116971386158656
:101890001486DF011B9633961E92AE17BF07E1F741
:1018A000F8011482DD24D394BE01665F7F4FF801F6
:1018B000858196810E949312882309F462C067E0B3
:1018C000CE010A960E94C81B99898913EDCFD801D1
:1018D0008C91811127C015968D919C9116970E942D
:1018E0007408BE01665F7F4FF801858196810E9472
:1018F000821C40E064EBD80115968D919C9116975F
:101900000E94111CF801858196810E942108C82E31
:10191000D80115968D919C9116970E947408CC2041
:1019200009F4ECC0F801858196810E94740888232F
:1019300049F0AE014F5F5F4FBE01665F7F4FC80148
:101940000E94AF1CD8011196CC90BE01665F7F4FFC
:10195000C8010E94381D8C1518F4F801818106C059
:10196000BE01665F7F4FC8010E94381DD8011196E5
:101970008C93119714968C9114978F5F14968C9377
:1019800093CFD7010D911C918BE0F8018183C12C7D
:10199000D12C8FE5B82E9FE7A92E2FE1922E3FE3A1
:1019A000832ED80114968C9190E0C816D9060CF0BD
:1019B0008AC04C2DBE01665F7F4FC8010E94D51BB7
:1019C000D80111962C91AE014F5F5F4FBE01665F4B
:1019D0007F4FC8012A8B0E94091D2A89882309F498
:1019E0006EC08A85803109F46AC02B3041F02C30FA
:1019F00021F02A3031F48D8205C0AD8203C0BD8252
:101A000001C09D82F801858196810E947408BE0103
:101A1000665F7F4FD80115968D919C9116970E9415
:101A2000821C40E06EE4F801858196810E94111CC1
:101A300040E06B81D80115968D919C9116970E947C
:101A4000111C40E06C81F801858196810E94111C77
:101A50008A85803149F040E06D81D80115968D91DD
:101A60009C9116970E94111CF801858196810E9415
:101A70007408BE01665F7F4FD80115968D919C91C9
:101A800016970E94821CF801408168E48581968146
:101A90000E94111C64E170E080E090E00E94A81AAE
:101AA000D8018C91882331F06AE070E080E090E00A
:101AB0000E94A81AF801858196810E947408FFEFA0
:101AC000CF1ADF0A6ECFF70180819181DC01129677
:101AD0001C920E94531C62960FB6F894DEBF0FBE94
:101AE000CDBFDF91CF911F910F91FF90EF90DF90CD
:101AF000CF90BF90AF909F908F900895F801D082C3
:101B000011CFCF93DF93EC0161E08A810E94BB1972
:101B1000ED81FE81808D918D0E949D1A60E08A8109
:101B20000E94BB19ED81FE81808D918D9C01220F59
:101B3000331F820F931FDF91CF910C949D1A3F9218
:101B40004F925F926F927F928F929F92AF92BF92CD
:101B5000CF92DF92EF92FF920F931F93CF93DF9379
:101B6000EC014A015B01E12CF12C690181E0C81A0A
:101B7000D108412C512C3201439465E2362EED817F
:101B8000FE81878990E0E816F9060CF056C08601C0
:101B900017FD32C0D301C201002E04C0880F991F67
:101BA000AA1FBB1F0A94D2F788219921AA21BB2121
:101BB000892B8A2B8B2B21F0CE010E94810D19C01D
:101BC00061E08A810E94BB19ED81FE81808D918D3B
:101BD0009C01220F331F820F931F0E949D1A60E009
:101BE0008A810E94BB19ED81FE81808D918D0E94BA
:101BF0009D1A01501109CCCFCE010E94810D61E0E8
:101C00008A810E94BB19ED81FE81808D918D0E9499
:101C10009D1A60E08A810E94BB19ED81FE81808D52
:101C2000918D9C01329EC001339E900D11240E9423
:101C30009D1A3FEFE31AF30AA2CFDF91CF911F91D4
:101C40000F91FF90EF90DF90CF90BF90AF909F905B
:101C50008F907F906F905F904F903F900895CF92BC
:101C6000DF92EF92FF920F931F93CF93DF931F9218
:101C7000CDB7DEB78C01E62EDC011F968C91882350
:101C800021F060E0FF24F39402C061E0F12CD80160
:101C90001596ED91FC911697C08CD18CC114D1048E
:101CA00019F4F801C780D084D80112968C917983F9
:101CB0000E94BB19EC9CC001ED9C900D11240E9468
:101CC0009D1A6F2DF80182810E94BB1979817C9D3C
:101CD000C0017D9D900D11240F90DF91CF911F9138
:101CE0000F91FF90EF90DF90CF900C949D1A4F9240
:101CF0005F926F927F928F929F92AF92BF92CF929C
:101D0000DF92EF92FF920F931F93CF93DF93EC013B
:101D10004A015B01E12CF12C690181E0C81AD1086C
:101D2000412C512C32014394ED81FE81878990E052
:101D3000E816F906A4F58889882329F069857A854B
:101D4000CE010E942F0E860117FD1DC0D301C201D6
:101D5000002E04C0880F991FAA1FBB1F0A94D2F738
:101D600088219921AA21BB21892B8A2B8B2B19F041
:101D70006D857E8502C06B857C85CE010E942F0E0D
:101D800001501109E1CF8889811105C069857A85E3
:101D9000CE010E942F0E8FEFE81AF80AC5CFDF910F
:101DA000CF911F910F91FF90EF90DF90CF90BF9058
:101DB000AF909F908F907F906F905F904F9008951D
:101DC000CF93DF93EC01662371F161E08A810E9479
:101DD000BB19ED81FE81808D918D0E949D1A60E07E
:101DE0008A810E94BB19ED81FE81808D918D25E055
:101DF000AC01249FC001259F900D11240E949D1AC3
:101E000061E08A810E94BB19ED81FE81808D918DF8
:101E10000E949D1A60E08A810E94BB19ED81FE81BB
:101E2000808D918D2DC061E08A810E94BB19ED816A
:101E3000FE81808D918D0E949D1A60E08A810E94B2
:101E4000BB19ED81FE81808D918D0E949D1A61E00C
:101E50008A810E94BB19ED81FE81808D918D0E9447
:101E60009D1A60E08A810E94BB19ED81FE81808D00
:101E7000918D25E0AC01249FC001259F900D112478
:101E8000DF91CF910C949D1A4F925F926F927F9247
:101E9000AF92BF92CF92DF92EF92FF920F931F9378
:101EA000CF93DF93EC01E62EED81FE81F7889AE077
:101EB000B92ECC24C394D12C38E2A32EF7FC7FC0DA
:101EC000ED81FE81438C548C658C768C61E08A8137
:101ED0000E94BB19ED81FE81808D918D0E949D1A1B
:101EE00060E08A810E94BB19ED81FE81208D318DD9
:101EF000A90156954795B29EC001B39E900D11243D
:101F0000840F951F0E949D1A09E110E0D301C201C0
:101F1000002E04C0B695A795979587950A94D2F799
:101F2000682F6170CE010E94E00E0150110970F718
:101F300060E0CE010E94E00E6E2DCE010E94E00E08
:101F400003E010E0C601002E02C0880F991F0A941A
:101F5000E2F7092E000CAA0BBB0BED81FE81478D29
:101F600050A161A172A184239523A623B72361E028
:101F7000892B8A2B8B2B09F460E0CE010E94E00EA6
:101F800001501109F8F661E08A810E94BB19ED81C8
:101F9000FE81808D918D0E949D1A60E08A810E9451
:101FA000BB19ED81FE81808D918D9C01A29EC001A7
:101FB000A39E900D11240E949D1AFA947FCFDF9169
:101FC000CF911F910F91FF90EF90DF90CF90BF9036
:101FD000AF907F906F905F904F900895CF93DF9375
:101FE000EC010E94690BED81FE818689811106C09A
:101FF00060E0CE01DF91CF910C94440F813091F0DD
:10200000228D478D50A161A172A130E0823029F468
:10201000CE01DF91CF910C949F0DCE01DF91CF9136
:102020000C94770EDF91CF910895CF93DF93EC015D
:102030000E94740BED81FE818689811106C061E0EA
:10204000CE01DF91CF910C94440F813091F0228D1D
:10205000438D548D658D768D30E0823029F4CE012C
:10206000DF91CF910C949F0DCE01DF91CF910C9415
:10207000770EDF91CF910895CF92DF92EF92FF928A
:102080000F931F93CF93DF931F92CDB7DEB77901E4
:102090008A01060F171F6B01C016D106B9F0C114D3
:1020A00084E0D80698F4F999FECFF70161917F0199
:1020B000C60169830E947B2F6981681719F0C601E8
:1020C0000E94832FFFEFCF1ADF0AE6CF0F90DF9138
:1020D000CF911F910F91FF90EF90DF90CF900895D7
:1020E000EF92FF920F931F93CF93DF9389017901B2
:1020F000E40EF51EEB010E151F0571F0C115F4E09D
:10210000DF0750F4F999FECFCE010E947B2FF80132
:1021100081938F012196EFCFDF91CF911F910F9186
:10212000FF90EF900895CF93DF93EC01E881F98160
:102130000284F385E02D09951816190654F58D30A3
:10214000910561F024F48A30910591F422C0843124
:102150009105F9F08F3F910559F41BC08E899F8935
:102160001F8A1E8A18161906A4F4CE01029613C0FF
:102170002E893F892331310560F4A9014F5F5F4FFC
:102180005F8B4E8BFE01E20FF31F8283C40FD51FBE
:102190001A8280E090E0DF91CF910895CF93FC0107
:1021A000C08161E08C2F0E94EB1960E08C2FCF91F1
:1021B0000C94BB190F931F93CF93DF93FC012289DB
:1021C000222311F080E01FC0EC010E94E21A088176
:1021D00019812A813B81DC01CB01801B910BA20B71
:1021E000B30B88879987AA87BB870C811D812E81B5
:1021F0003F8180179107A207B30720F3088719874B
:102200002A873B8781E0DF91CF911F910F9108953D
:10221000CF93DF93FC012089211109C0EC010E94BA
:10222000E21A688379838A839B8381E0888BDF91BC
:10223000CF910895FC0110821182128213821486BC
:10224000158616861786108A118A128A0895CF93EA
:10225000DF93FC0186A997A9EC01A881B9819F01B0
:10226000225D3F4F1296ED91FC91139748E050E0AC
:102270006EE972E0DF91CF9109940F931F93CF9392
:10228000DF93EC01288D398D4A8D5B8D1FAA1EAA24
:102290001DAA1CAA1BAA1AAA60E079E08DE390E0AF
:1022A0000E942B31F9012430310518F0C901039740
:1022B00002C081E090E099AF88AF68A5663108F070
:1022C00069C0C901969587958431910510F04397AF
:1022D00002C081E090E09BAB8AAB369718F0C90151
:1022E000059702C081E090E09DAB8CABC901880FDF
:1022F000991F280F391F36952795369527952D302C
:10230000310518F02C50310902C021E030E03FAB1C
:102310002EAB90916800683050F021E06E3008F4E8
:1023200020E081E001C0880F2A95EAF701C084E02F
:10233000892B8093680098A5983038F09E3040F043
:10234000963148F020E030E008C02DE630E005C0CE
:102350002BE630E002C02CE630E038AB2FA79830F7
:1023600030F481E001C0880F9A95EAF70EC0292F5A
:1023700030E09E3018F42850310902C02E50310947
:1023800081E001C0880F2A95EAF789AB88AD99AD45
:102390000197F1F78EA99FA9892BF9F08E01045EB0
:1023A0001F4F8091BA069091BB0680179107A9F044
:1023B000009711F00E94B21B8AAD8E7F8AAF1092F7
:1023C000B8061092B9061093BB060093BA06EFA5A3
:1023D000F8A9908189A9892B808368EE73E080E059
:1023E00090E00E94A81AEBADFCAD86A58823E1F130
:1023F0008E010E5F1F4F80A58F9387A18F938BE86F
:1024000091E09F938F931F930F930E947231E88105
:10241000F9810280F381E02DB801CE0109956CEDC0
:1024200075E080E090E00E94A81AE881F9810280BE
:10243000F381E02D66E971E0CE0109956CED75E060
:1024400080E090E00E94A81A8BAD9CADFC0116A61E
:102450000F900F900F900F900F900F90DF91CF91F2
:102460001F910F910C942711DF91CF911F910F9124
:1024700008950F931F93CF93DF938C01DC01D696C1
:102480008D919C91D797DC01ED91FC910280F381B5
:10249000E02D98014EE250E060E070E00995CEE258
:1024A000D0E0F80186A997A9DC01ED91FC919E018D
:1024B000215F3F4F200F311F0280F381E02D47E263
:1024C00050E0BE010995A796CE39B2E0DB0749F787
:1024D000DF91CF911F910F910895CF93DF93EC017E
:1024E0008EE2DE011D928A95E9F7FE01FD96CE018E
:1024F00083559D4F27E2DF01322F1D923A95E9F770
:10250000B796E817F907B9F7FE01BE9688E0DF0134
:102510001D928A95E9F7CE010E943912CE01DF9112
:10252000CF910C942711AF92BF92CF92DF92EF928E
:10253000FF920F931F93CF93DF931F92CDB7DEB718
:102540005C01D62EE72EFC018585811105C0C501F1
:102550000E947408811106C0F50113861586148641
:1025600080E065C040E060EFC5010E94111C01E001
:10257000F12CC12C11E0C5010E942108682FC50172
:1025800069830E9421086981613019F48130B9F4AE
:1025900033C04F2D50E068131BC0F5018385181719
:1025A00030F4E40FF51F8381802349F402C018172B
:1025B00031F060E0193058F4F501148708C0F501D6
:1025C000EF0DF11D8381802B838361E009C0C12E53
:1025D000F501E40FF51F9381802F80958923838374
:1025E000C5010E9445081F5F000F11F4F39401E03C
:1025F000F7E0FF1508F0BFCF113408F4ADCFF501B7
:10260000C386C11002C081E08587F50183818823DC
:1026100009F4A2CFD5011396ED2DFE2D9501255F6E
:102620003F4F8D918193A217B307D9F781E00F90A7
:10263000DF91CF911F910F91FF90EF90DF90CF909E
:10264000BF90AF900895CF93DF93EB012091730279
:10265000211123C021E020937302A0914D02B0917B
:102660004E02ED91FC9111970680F781E02DBC019F
:10267000CD010995288180914D0290914E02DC0197
:10268000ED91FC910084F185E02D222319F062E1A7
:1026900073E002C060E173E0099580914D02909172
:1026A0004E02DC01ED91FC910284F385E02D099549
:1026B0009C01C0970297F8F41092730280914D022A
:1026C00090914E022033310551F41882DC01ED91D6
:1026D000FC910084F185E02D6CE073E00AC021E0FC
:1026E0002883DC01ED91FC910084F185E02D6EE002
:1026F00073E0099509C02737310531F021363105DE
:1027000029F41092730202C081E001C080E0DF91E1
:10271000CF9108950F931F93CF93DF93C82FD62F98
:1027200080914D0290914E02DC01ED91FC9106806A
:10273000F781E02D6AE073E009950E94E21A0091AA
:102740008B0210918C0220918D0230918E02601BC1
:10275000710B820B930B0E94592E07E712E020E0C9
:1027600041E00E94072A80914D0290914E02DC01C7
:10277000ED91FC910280F381E02DB80109958091E3
:102780004D0290914E02DC01ED91FC910680F781A3
:10279000E02D67E073E0099560917102709172021B
:1027A000072E000C880B990B0E945B2E20E041E065
:1027B0000E94072A80914D0290914E02DC01ED911A
:1027C000FC910280F381E02DB801099580914D02C2
:1027D00090914E02DC01ED91FC910680F781E02D95
:1027E00064E073E00995A0915502B0915602DD2393
:1027F00049F0ED91FC9111970190F081E02DCD0110
:10280000099518C016968C911697811106C0DF960F
:102810006D917D918D919C910BC094E0899FA00D4D
:10282000B11D112413966D917D918D919C911697F8
:1028300007E712E022E041E00E94072A80914D0262
:1028400090914E02DC01ED91FC910280F381E02D2C
:1028500067E772E0099580914D0290914E02DC018C
:10286000ED91FC910680F781E02D61E073E0099520
:10287000E0915502F09156028681282F30E08111B7
:1028800007C0DF01DF966D917D918D919C910EC007
:10289000D9011197AA0FBB1FAA0FBB1FAE0FBF1FF5
:1028A00017966D917D918D919C911A97220F331FF0
:1028B000220F331FE20FF31F278130854185528598
:1028C0000E94E22F07E712E022E042E00E94072A7E
:1028D00080914D0290914E02DC01ED91FC910280BD
:1028E000F381E02DB8010995E0915102F091520277
:1028F000EF5BFF4F8081882399F180914D02909189
:102900004E02DC01ED91FC910680F781E02D6EEF27
:1029100072E00995E0915102F0915202EF5BFF4F96
:10292000608170E080E090E00E94592E20E041E05C
:102930000E94072A80914D0290914E02DC01ED9198
:10294000FC910280F381E02DB8010995E0915302DA
:10295000F091540264EB70E080810E94271A06C057
:1029600080915302909154020E94CE1080914D02AA
:1029700090914E02DC01ED91FC910680F781E02DF3
:102980006BEF72E00995E0914F02F09150022091B7
:1029900071023091720247E2429FC001439F900D45
:1029A0001124E80FF91FE05CFF4F60817181828183
:1029B000938107E712E022E041E00E94072A80911C
:1029C0004D0290914E02DC01ED91FC910280F38169
:1029D000E02DB801099580914D0290914E02DC01E5
:1029E000ED91FC910680F781E02D68EF72E009958A
:1029F00060E070E0CB010E945B2E20E041E00E948D
:102A0000072A80914D0290914E02DC01ED91FC91DC
:102A10000280F381E02DB801099580914D029091DB
:102A20004E02DC01ED91FC910680F781E02D65EF0F
:102A300072E00995E0915102F091520282859385EE
:102A4000DC01ED91FC910680F781E02D0995A091C4
:102A50004D02B0914E02ED91FC9111970680F781E5
:102A6000E02D882319F063EF72E002C061EF72E09D
:102A7000CD01099580914D0290914E02DC01ED91BE
:102A8000FC910680F781E02D6EEE72E00995E091F1
:102A90005102F09152020280F381E02D80810E9468
:102AA000861ABC01990F880B990B0E945B2E2FECA4
:102AB00032ED47EA5CE30E94BA2E07E712E022E01B
:102AC00041E00E94072A80914D0290914E02DC0164
:102AD000ED91FC910280F381E02DB8010995E09120
:102AE0005102F091520284A98823D9F180914D02BC
:102AF00090914E02DC01ED91FC910680F781E02D72
:102B00006BEE72E00995E0915102F09152028089DA
:102B10009189A289B3890489158926893789BC01DD
:102B2000CD01601B710B820B930B28EE33E040E06C
:102B300050E00E940931CA01B9010E94592E07E7ED
:102B400012E020E041E00E94072A80914D0290911E
:102B50004E02DC01ED91FC910280F381E02DB80181
:102B60000995E0914F02F09150028481882361F130
:102B700080914D0290914E02DC01ED91FC91068016
:102B8000F781E02D65EE72E00995E0915102F09138
:102B900052020480F581E02DEB5BFF4F6081718173
:102BA0008281938107E712E022E041E00E94072A38
:102BB00080914D0290914E02DC01ED91FC910280DA
:102BC000F381E02DB8010995CC23F1F080914D02FD
:102BD00090914E02DC01ED91FC910680F781E02D91
:102BE00062EE72E0099580917602882369F0809107
:102BF0004D0290914E02DC01ED91FC910680F7812F
:102C0000E02D6FED72E0099580914D0290914E029A
:102C1000DC01ED91FC910084F185E02D6DED72E019
:102C2000DF91CF911F910F910994EF92FF920F9333
:102C30001F93CF93DF93EC017B018091730281118D
:102C400028C0DB016D917D918D919C910E945B2E3E
:102C500007E712E020E041E00E94072A81E080932C
:102C6000730280914D0290914E02DC01ED91FC9136
:102C70000680F781E02DBE01099580914D0290916B
:102C80004E02DC01ED91FC910480F581E02DB8014C
:102C9000099580914D0290914E020E949310EC0193
:102CA000009729F16CEA71E00E946931892B09F1E2
:102CB0006EEA71E0CE010E946931892B19F41092FD
:102CC000730215C0CE010E942B2AF7016083718325
:102CD0008283938380914D0290914E02DC01ED91AD
:102CE000FC910480F581E02DBE01099502C080E0D1
:102CF00001C081E0DF91CF911F910F91FF90EF9084
:102D00000895EF92FF920F931F93CF93DF93EC01FF
:102D10007B0180917302811126C0DB016D917D9151
:102D20008D919C9107E712E022E041E00E94072A82
:102D300081E08093730280914D0290914E02DC01FC
:102D4000ED91FC910680F781E02DBE0109958091FF
:102D50004D0290914E02DC01ED91FC910480F581D1
:102D6000E02DB801099580914D0290914E020E948C
:102D70009310EC01009729F16CEA71E00E9469312F
:102D8000892B09F16EEA71E0CE010E946931892B2D
:102D900019F41092730215C0CE010E94272AF70180
:102DA000608371838283938380914D0290914E0260
:102DB000DC01ED91FC910480F581E02DBE010995C7
:102DC00002C080E001C081E0DF91CF911F910F919F
:102DD000FF90EF900895CF93DF93CDE4D2E08A8106
:102DE0009B810E946D1288819981DC01ED91FC919B
:102DF0000084F185E02D6BED72E0DF91CF910994B5
:102E0000CF92DF92EF92FF920F931F93CF93DF93B6
:102E10006C017A018B01C0E0D0E0CE15DF0589F0AE
:102E2000D8016D918D01D601ED91FC910190F08159
:102E3000E02DC6010995892B11F47E0102C021966F
:102E4000ECCFC701DF91CF911F910F91FF90EF90D1
:102E5000DF90CF900895FC01538D448D252F30E0F5
:102E6000842F90E0821B930B541710F0CF96089597
:102E700001970895FC01918D828D981761F0828DE4
:102E8000DF01A80FB11D5D968C91928D9F5F9F739E
:102E9000928F90E008958FEF9FEF0895FC01918D40
:102EA000828D981731F0828DE80FF11D858D90E0AD
:102EB00008958FEF9FEF0895FC01918D228D892F4A
:102EC00090E0805C9F4F821B91098F739927089532
:102ED00080EB91E00E945C1721E0892B09F420E04F
:102EE000822F0895FC01848DDF01A80FB11DA35A24
:102EF000BF4F2C91848D90E001968F739927848F1A
:102F0000A689B7892C93A089B1898C9180648C9310
:102F1000938D848D981306C00288F389E02D8081FB
:102F20008F7D80830895EF92FF920F931F93CF932D
:102F3000DF93EC0181E0888F9B8D8C8D981305C009
:102F4000E889F989808185FD24C0F62E0B8D10E07B
:102F50000F5F1F4F0F731127E02E8C8DE8120CC0EE
:102F60000FB607FCFACFE889F989808185FFF5CF94
:102F7000CE010E947217F1CF8B8DFE01E80FF11D7B
:102F8000E35AFF4FF0820B8FEA89FB8980818062D0
:102F900007C0EE89FF896083E889F98980818064B0
:102FA000808381E090E0DF91CF911F910F91FF909E
:102FB000EF900895CF93DF93EC01888D8823C9F0BB
:102FC000EA89FB89808185FD05C0A889B9898C9132
:102FD00086FD0FC00FB607FCF5CF808185FFF2CFCD
:102FE000A889B9898C9185FFEDCFCE010E94721717
:102FF000E7CFDF91CF91089580E090E0892B29F011
:103000000E94681781110C9400000895833081F0AC
:1030100028F4813099F08230A1F008958730A9F02A
:103020008830B9F08430D1F4809180008F7D03C066
:10303000809180008F7780938000089584B58F778A
:1030400002C084B58F7D84BD08958091B0008F77D4
:1030500003C08091B0008F7D8093B00008953FB78A
:10306000F8948091010790910207A0910307B09115
:10307000040726B5A89B05C02F3F19F00196A11D96
:10308000B11D3FBFBA2FA92F982F8827820F911DFE
:10309000A11DB11DBC01CD0142E0660F771F881F45
:1030A000991F4A95D1F708952091BA063091BB0631
:1030B0002817390771F49091B9068091B8069817CE
:1030C00041F0E091B906F0E0E454F94F808190E0DE
:1030D00008958FEF9FEF089508951F93CF93DF9387
:1030E000DC015C962D913C915D972115310539F4F9
:1030F00081E090E013969C938E9312973DC0519679
:10310000ED91FC91529750969C915097892F809504
:103110001FB75E964C915E9741FB772770F941FD92
:103120006095F8944081772311F0492B01C0482322
:103130004083E9012197F1F748E0508160FF02C028
:10314000592B01C058235083E9012197F1F7669567
:10315000415099F7772321F090818923808303C020
:103160008081982B90831FBF5C968D919C915D9779
:103170000197F1F721E030E0C901DF91CF911F9174
:1031800008952091BA063091BB062817390771F4CB
:103190008091B8062091B90690E0805C9F4F821B19
:1031A000910960E470E00E94F530089580E090E0BD
:1031B00008952091BA063091BB0628173907B9F453
:1031C0009091B9068091B806981789F0E091B906F8
:1031D000F0E0E454F94F80812091B90630E02F5F90
:1031E0003F4F2F7333272093B90690E008958FEF58
:1031F0009FEF0895089580E090E0089508950E945B
:103200006431EF92FF920F931F93CF93DF938C0162
:103210007B01C0E0D0E0F701EC0FFD1F6491662355
:1032200061F0D801ED91FC910190F081E02DC80191
:103230000995892B11F02196EECFCE01DF91CF9128
:103240001F910F91FF90EF9008956115710579F02E
:10325000FB0101900020E9F73197AF01461B570BA6
:10326000DC01ED91FC910280F381E02D099480E076
:1032700090E008951F920F920FB60F9211242F9392
:103280003F934F935F936F937F938F939F93AF93EE
:10329000BF93EF93FF9380EB91E00E947217FF9131
:1032A000EF91BF91AF919F918F917F916F915F91BE
:1032B0004F913F912F910F900FBE0F901F90189537
:1032C0001F920F920FB60F9211242F938F939F93FB
:1032D000EF93FF93E091C001F091C1018081E091F3
:1032E000C601F091C70182FD12C090818091C90191
:1032F0008F5F8F732091CA01821751F0E091C9014D
:10330000F0E0E055FE4F958F8093C90101C08081A8
:10331000FF91EF919F918F912F910F900FBE0F9082
:103320001F901895CF93DF93282F30E0F901E65ACC
:10333000FB4F8491F901E45CFC4FD491F901E85D05
:10334000FC4FC491CC2391F081110E940618EC2F00
:10335000F0E0EE0FFF1FE25EFC4FA591B491EC91FF
:10336000ED2381E090E021F480E002C080E090E075
:10337000DF91CF9108951F93CF93DF93282F30E0F3
:10338000F901E65AFB4F8491F901E45CFC4FD491BA
:10339000F901E85DFC4FC491CC23C9F0162F8111CF
:1033A0000E940618EC2FF0E0EE0FFF1FEC5EFC4FC2
:1033B000A591B4918FB7F894111105C09C91ED2F90
:1033C000E095E92302C0EC91ED2BEC938FBFDF91E8
:1033D000CF911F910895CF93DF9390E0FC01E45CBF
:1033E000FC4F2491FC01E85DFC4F8491882361F13E
:1033F00090E0880F991FFC01E05BFB4FC591D491D1
:10340000FC01EC5EFC4FA591B491611109C09FB71E
:10341000F8948881209582238883EC912E230BC019
:10342000623061F49FB7F8943881822F80958323AE
:103430008883EC912E2B2C939FBF06C08FB7F894F6
:10344000E8812E2B28838FBFDF91CF9108951F93A2
:10345000CF93DF93182FEB0161E00E94EB192097C7
:1034600011F460E004C0CF3FD10539F461E0812F51
:10347000DF91CF911F910C94BB19E12FF0E0E65A38
:10348000FB4FE491E330F9F048F4E130B9F0E23079
:10349000A1F584B5806284BDC8BD34C0E730E9F0D1
:1034A000E83019F1E43049F5809180008062809322
:1034B0008000D0938B00C0938A0024C084B58068BC
:1034C00084BDC7BD1FC0809180008068809380004C
:1034D000D0938900C093880015C08091B0008068A7
:1034E0008093B000C093B3000DC08091B0008062A3
:1034F0008093B000C093B40005C0C038D1050CF073
:10350000B5CFAFCFDF91CF911F9108958E3008F0E6
:103510008E508770806480937C0080917A008064F4
:1035200080937A0080917A0086FDFCCF80917800AC
:103530002091790090E0922B08958230910538F027
:10354000880F991F880F991F05970197F1F7089524
:103550008F929F92AF92BF92CF92DF92EF92FF92A3
:103560006B017C010E942F184B015C01C114D10436
:10357000E104F104F1F00E942F18DC01CB0188195D
:103580009909AA09BB09883E9340A105B10570F3CA
:1035900021E0C21AD108E108F10888EE880E83E024
:1035A000981EA11CB11CC114D104E104F10419F747
:1035B000DDCFFF90EF90DF90CF90BF90AF909F90C6
:1035C0008F9008952FB7F8946091FD067091FE06D4
:1035D0008091FF06909100072FBF08951F920F92D0
:1035E0000FB60F9211242F933F938F939F93AF9316
:1035F000BF938091FD069091FE06A091FF06B091C9
:1036000000073091FC0623E0230F2D3720F40196AC
:10361000A11DB11D05C026E8230F0296A11DB11DF5
:103620002093FC068093FD069093FE06A093FF0670
:10363000B09300078091010790910207A0910307C2
:10364000B09104070196A11DB11D809301079093CD
:103650000207A0930307B0930407BF91AF919F9116
:103660008F913F912F910F900FBE0F901F90189543
:103670001F920F920FB60F9211242F933F934F93E7
:103680005F936F937F938F939F93AF93BF93EF93CA
:10369000FF93E091BA06F091BB06309709F451C050
:1036A000968DA685B785858591FF04C09C91892359
:1036B00029F447C09C91892309F043C0A389B489A8
:1036C0009C918589809589238C9386899789019718
:1036D000F1F7608D718DA685B785558538E020E0BE
:1036E000CB010197F1F7822F90E095958795282FD0
:1036F0004C91452309F02068315091F7868D81FD6A
:1037000020958091B80690E001968F7399273091AB
:10371000B906381749F0A091B806B0E0A454B94FE3
:103720002C938093B80603C0868D8160868F828D2E
:10373000938D0197F1F7A389B4899C918589892B91
:103740008C93FF91EF91BF91AF919F918F917F915A
:103750006F915F914F913F912F910F900FBE0F90FE
:103760001F901895E091BA06F091BB06E817F9078B
:1037700069F4A389B4899C918589809589238C9368
:103780001092BB061092BA0681E0089580E0089579
:10379000DC01E0E0615038F08D91E827F0E0E05B7B
:1037A000FC4FE491F7CF8E2F0895EF92FF920F9385
:1037B0001F93CF93DF937C018B01D42FDC011596EF
:1037C000ED91FC911697138615861486DF011B96E2
:1037D00033961E92AE17BF07E1F7C0E0B801D701DC
:1037E00015968D919C9116970E949312811102C09B
:1037F00080E010C0CD130AC067E0C8010E94C81B5A
:10380000F8019781891302C081E004C0CF5FDC1703
:1038100078F3E4CFDF91CF911F910F91FF90EF905C
:103820000895CF92DF92EF92FF920F931F93CF9361
:10383000DF931F92CDB7DEB76C01E62E08E010E0F3
:10384000FF24F39461E08F2D8E2109F460E0C6011E
:1038500049830E944508FF0C015011094981011557
:10386000110581F7411115C0F894D6011196ED911B
:10387000FC91129791818C91809589238183119677
:10388000ED91FC91129792818C918095892382838E
:1038900078940F90DF91CF911F910F91FF90EF904F
:1038A000DF90CF900895CF93DF93EC018D819E81BF
:1038B0000E94740840E06CEC8D819E810E94111C76
:1038C000488164E48D819E810E94111C8A81882335
:1038D000B1F0E981E950E33040F4F0E0EE0FFF1F72
:1038E000EE57FE4F6081718102C06EEE72E0072ECE
:1038F000000C880B990BDF91CF910C94A81ADF91E3
:10390000CF910895CF92DF92EF92FF920F931F9382
:10391000CF93DF931F92CDB7DEB78C01F62E40E038
:1039200065E579830E94111CCF2C7981D72E760111
:1039300088E0E80EF11CF60161916F0140E0C801DA
:103940000E94111CCE14DF04B1F70F90DF91CF91CC
:103950001F910F91FF90EF90DF90CF9008956F929D
:103960007F928F929F92AF92BF92CF92DF92EF920F
:10397000FF920F931F93CF93DF931F92CDB7DEB7C4
:103980008C01F42EFC018581968159830E94821C52
:1039900040E06EEBF801858196810E94111C6F2C2E
:1039A0005981752E5301F9E0AF0EB11CF8018580E5
:1039B000968088E0C82ED12CEE24E394F12CC4012B
:1039C0000E9421088111FE28EE0CF1E0CF1AD108E7
:1039D000B1F7F301F1923F01EA15FB0539F7F80160
:1039E000858196810E94740891E0813009F090E011
:1039F000892F0F90DF91CF911F910F91FF90EF9042
:103A0000DF90CF90BF90AF909F908F907F906F90FE
:103A10000895EF92FF920F931F93CF93DF9300D0FF
:103A2000CDB7DEB78C017A01FC018581968169836F
:103A30007A830E94740869817A81882371F0A701D2
:103A4000C8010E94AF1C882341F068E0C7010E94B2
:103A5000C81B91E0F7012085821390E0892F0F9019
:103A60000F90DF91CF911F910F91FF90EF900895EC
:103A7000CF93DF93CDB7DEB729970FB6F894DEBFAB
:103A80000FBECDBFFB0120812031D1F0AE014F5FD1
:103A90005F4F0E94091D882389F08D818F3361F06B
:103AA00020F48F3159F489E00CC08F3519F08F372D
:103AB00039F004C08BE005C08AE003C080E001C09B
:103AC0008CE029960FB6F894DEBF0FBECDBFDF9114
:103AD000CF910895CF93DF9300D000D0CDB7DEB75C
:103AE000789484B5826084BD84B5816084BD85B5D9
:103AF000826085BD85B5816085BD80916E008160E5
:103B000080936E001092810080918100826080938A
:103B1000810080918100816080938100809180008C
:103B20008160809380008091B10084608093B100B7
:103B30008091B00081608093B00080917A008460B1
:103B400080937A0080917A00826080937A008091DD
:103B50007A00816080937A0080917A0080688093F7
:103B60007A001092C10061E083E00E94EB1961E0ED
:103B700083E00E94BB198091410490914204DC01D2
:103B8000ED91FC910190F081E02D2BE034E04EE2CC
:103B900050E060E070E009950EE210E08091410491
:103BA00090914204DC01ED91FC919801265E3B4F1F
:103BB0000190F081E02D47E250E0B8010995095DE0
:103BC0001F4F0E39B2E01B0749F740914304509153
:103BD0004404609145047091460480910B049091D7
:103BE0000C04A0910D04B0910E04481759076A0700
:103BF0007B0709F4AFC08BE094E00E946D128091C6
:103C0000430490914404A0914504B09146048093EC
:103C10000B0490930C04A0930D04B0930E0481E068
:103C2000809339048DE494E09093330480933204BC
:103C300080E090E0A0EEB0E480932E0490932F04F7
:103C4000A0933004B093310483E08093210488E191
:103C50008093250410922404109223048FE790ECA3
:103C6000AEEBB0E08093260490932704A093280441
:103C7000B09329048EE790ECAEEBB0E080932A0479
:103C800090932B04A0932C04B0932D0487E0809391
:103C900022048EEA97E4A1E8BFE380931104909395
:103CA0001204A0931304B09314048AE080933704A1
:103CB0001092380410920F0488E893E190931A044C
:103CC0008093190484E690E090931C0480931B0475
:103CD00080E090E0A0E2B1E480931D0490931E0484
:103CE000A0931F04B0932004E3E5F4E000E010E0AB
:103CF00020E83FE34DEC5CEC6CEC7DEBADECCA2EC8
:103D0000ACECDA2EED2CADE3FA2E1086118612867D
:103D100013861486158616861786008B118B228BC8
:103D2000338B4083518362837383C482D582E6825E
:103D3000F782B79686E0E33CF80739F78BE094E02A
:103D40000E9439128BE094E00E94271181E0809359
:103D5000470413C01092470480914104909142049B
:103D6000DC01ED91FC910190F081E02D29E334E03C
:103D700048E050E06EE972E0099587E593E00E9423
:103D80003D1161E0809196030E94EB19E091990347
:103D9000F0919A0386898330C8F090E09C0123500B
:103DA00031090497079710F021E030E021503109E4
:103DB0008AE0829FB001839F700D112463517E4F72
:103DC0004AE050E08BE993E00E94522A85EA93E0B2
:103DD0000E94200C60E0809154030E94EB1961E086
:103DE000809153030E94EB1984ED92E00E941C061F
:103DF00085E293E00E94810281E992E00E94FB0A41
:103E000062E080918F020E94EB191092740210926E
:103E100075021092730210926C0210926D02109251
:103E20006E0210926F021092700210927202109243
:103E3000710280915302909154020E94CE108091A1
:103E40005102909152020E94FB0AEE24E39483E017
:103E5000D82E97E2F92E24E0C22E35E0B32E42E0B0
:103E6000A42E57E0752E66E0662E809174028111B3
:103E700044C0E0927402E0914F02F091500287A595
:103E80008823D9F117A610927402E0927502D0929D
:103E90006C02E0926F028091710290917202F89E22
:103EA000D001F99EB00D1124AE0FBF1FDD968C918D
:103EB0008093760260A971A9709372026093710277
:103EC00080915102909152020E94370BE0914F0273
:103ED000F091500282A993A9A4A9B5A9E091510239
:103EE000F09152021486158616861786808F918F60
:103EF000A28FB38F148E168EE58E80918F020E9452
:103F00009219892B21F40E94EB1610926C02E09119
:103F10005102F091520286A9882311F060E001C09D
:103F200061E0809190020E94BB1980916C02823006
:103F300009F430C330F4882369F0813009F4E2C019
:103F400077C7833009F4E8C5853009F071C70E944E
:103F5000EB166EC78091730281115DC0809155028E
:103F600090915602DC01ED91FC910480F581E02DE9
:103F70000995A0914D02B0914E02ED91FC911197DF
:103F80000680F781E02D813019F468ED72E002C0FF
:103F900065ED72E0CD01099507E712E020E041E010
:103FA00060E070E080E891E40E94072A80914D0271
:103FB00090914E02DC01ED91FC910280F381E02DA5
:103FC000B801099580914D0290914E02DC01ED916E
:103FD000FC910680F781E02D63ED72E00995E09198
:103FE0004F02F091500260817181828193810E9421
:103FF000592E20E041E00E94072A80914D029091C5
:104000004E02DC01ED91FC910480F581E02DB801B8
:104010000995E092730280914D0290914E02DC016D
:10402000ED91FC910284F385E02D09958C0160E00F
:1040300080915102909152020E94AA080136110506
:1040400009F4ABC5FCF402331105B1F16CF4003393
:10405000110509F4A2C50133110509F0EBC6109250
:104060007302E0926C02E6C60333110551F104338A
:10407000110509F0DFC680915102909152020E9411
:10408000CA0AD8C60836110531F154F403361105B1
:1040900069F10436110509F0CDC6B0926C02CAC6AA
:1040A0000037110599F00437110509F0C3C61092C5
:1040B0007302C0926C02BEC610927302A0926C0290
:1040C000B9C610927302D0926C02B4C661E080E06F
:1040D0000E948A13AFC68091570290915802DC016A
:1040E000ED91FC910190F081E02D0AC08091570282
:1040F00090915802DC01ED91FC910280F381E02D5A
:10410000099598C6E0916D028E2F90E08A31910555
:1041100008F02CC2FC01EC5CFF4F0C944A31E0919A
:104120004F02F091500284818983BE016F5F7F4FFF
:104130008EEC92E00E942313882309F47BC6E09161
:104140004F02F09150028981848325C0A0926D02B4
:1041500071C6E0914F02F091500286819781A0854F
:10416000B18589839A83AB83BC83BE016F5F7F4F28
:1041700089EC92E00E948116882309F45BC6E091E5
:104180004F02F091500289819A81AB81BC81868374
:104190009783A087B1871092730280916D028F5F21
:1041A00080936D0247C6C0926D0244C6B0926D0204
:1041B00041C660926D023EC670926D023BC6B8E089
:1041C000B0936D0237C6E0914F02F09150028685A0
:1041D0009785A0E0B0E089839A83AB83BC83BE015E
:1041E0006F5F7F4F8EE792E00E941516882309F4D7
:1041F00021C6E0914F02F091500289819A81978700
:104200008687C9CFE0914F02F09150028089918951
:10421000A0E0B0E089839A83AB83BC83BE016F5F6B
:104220007F4F84EC92E00E941516882309F402C6A1
:10423000E0914F02F091500289819A81918B808B9D
:10424000AACFE0914F02F091500282899389A4890C
:10425000B58989839A83AB83BC83BE016F5F7F4F2F
:104260008FEB92E00E948116882309F4E3C5E09168
:104270004F02F091500289819A81AB81BC81828B7F
:10428000938BA48BB58B87CFEEE0E0936D02D2C504
:10429000E0914F02F0915002868990E0A0E0B0E0FA
:1042A00089839A83AB83BC83BE016F5F7F4F8AEBA8
:1042B00092E00E941516882309F4BCC5E0914F02D4
:1042C000F09150028981868B66CFE0914F02F09188
:1042D0005002878990E0A0E0B0E089839A83AB83A5
:1042E000BC83BE016F5F7F4F85EB92E00E94151685
:1042F000882309F49FC5E0914F02F0915002898113
:10430000878B49CFE0914F02F0915002808D918DC3
:10431000A0E0B0E089839A83AB83BC83BE016F5F6A
:104320007F4F80EB92E00E941516882309F482C526
:10433000E0914F02F091500289819A81918F808F94
:104340002ACFE0914F02F0915002828D90E0A0E0E0
:10435000B0E089839A83AB83BC83BE016F5F7F4FDC
:104360008BEA92E00E941516882309F463C5E09158
:104370004F02F09150028981828F0DCFE0914F0260
:10438000F0915002838D948DA58DB68D89839A838B
:10439000AB83BC83BE016F5F7F4F86EA92E00E94D1
:1043A0001516882309F446C5E0914F02F09150029A
:1043B00089819A81AB81BC81838F948FA58FB68FC1
:1043C000EACEE0914F02F0915002878D90A1A1A119
:1043D000B2A189839A83AB83BC83BE016F5F7F4F99
:1043E00081EA92E00E941516882309F423C5E09122
:1043F0004F02F091500289819A81AB81BC81878FF5
:1044000090A3A1A3B2A3C7CEE0914F02F0915002B6
:1044100083A194A1A5A1B6A189839A83AB83BC8310
:10442000BE016F5F7F4F8CE992E00E948116882366
:1044300009F400C5E0914F02F091500289819A8100
:10444000AB81BC8183A394A3A5A3B6A3A4CEE09122
:104450004F02F091500287A190A5A0E0B0E08983BF
:104460009A83AB83BC83BE016F5F7F4F87E992E085
:104470000E941516882309F4DDC4E0914F02F091E3
:10448000500289819A8190A787A385CEE0914F023F
:10449000F091500281A592A5A0E0B0E089839A83B3
:1044A000AB83BC83BE016F5F7F4F82E992E00E94C5
:1044B0001516882309F4BEC4E0914F02F091500212
:1044C00089819A8192A781A766CEE0914F02F091EF
:1044D000500283A58983BE016F5F7F4F8DE892E014
:1044E0000E942313882309F4A5C4E0914F02F091A0
:1044F0005002898183A74FCEE0914F02F091500284
:1045000085A590E0A0E0B0E089839A83AB83BC836B
:10451000BE016F5F7F4F88E892E00E9415168823E6
:1045200009F488C4E0914F02F0915002898185A777
:1045300032CEE0914F02F091500284A590E0A0E0CD
:10454000B0E089839A83AB83BC83BE016F5F7F4FEA
:1045500083E892E00E941516882309F46BC4E09169
:104560004F02F0915002898184A715CE80914F02AD
:10457000909150020E94391210926C0210926D02BA
:1045800080914F0290915002DC019E96EC920E9425
:10459000271150C4E0916E028E2F90E08E3091056D
:1045A00008F0AFC2FC01E25BFF4F80917102909175
:1045B00072020C944A31092E000CAA0BBB0B8983A2
:1045C0009A83AB83BC83BE016F5F7F4F89E792E024
:1045D0000E941516882309F42DC489819A81AB8124
:1045E000BC8180319105A105B1050CF0D6C2909334
:1045F00072028093710280916E028F5F80936E02CF
:10460000CCC2E0914F02F0915002F89E9001F99EC9
:10461000300D1124E20FF31F87AD8983BE016F5F58
:104620007F4F88E392E00E942313882309F402C499
:10463000E0914F02F091500220917102309172028C
:10464000F29EC001F39E900D1124E80FF91F89819D
:1046500087AF4FC2E0914F02F0915002F89E900157
:10466000F99E300D1124E20FF31F86AD8983BE0140
:104670006F5F7F4F84E792E00E942313882309F441
:10468000D9C3E0914F02F091500220917102309114
:104690007202F29EC001F39E900D1124E80FF91FE3
:1046A000898186AF26C2E0914F02F0915002F89EB8
:1046B0009001F99E300D1124E20FF31F85AD89831F
:1046C000BE016F5F7F4F8FE692E00E942313882325
:1046D00009F4B0C3E0914F02F091500220917102B1
:1046E00030917202F29EC001F39E900D1124E80FEA
:1046F000F91F898185AFFDC1E0914F02F091500211
:10470000F89E9001F99E300D1124E20FF31FE05C3A
:10471000FF4F80819181A281B38189839A83AB838A
:10472000BC83BE016F5F7F4F8AE692E00E948116D4
:10473000882309F47FC3E0914F02F0915002209149
:10474000710230917202F29EC001F39E900D11240D
:10475000E80FF91FE05CFF4FC4C1E0914F02F091F8
:104760005002F89E9001F99E300D1124E20FF31FC4
:10477000EC5BFF4F80819181A281B38189839A8311
:10478000AB83BC83BE016F5F7F4F85E692E00E94E2
:104790001516882309F44EC3E0914F02F0915002A0
:1047A0002091710230917202F29EC001F39E900D31
:1047B0001124E80FF91FEC5BFF4F89819A81AB81CF
:1047C000BC8180839183A283B38393C1E0914F0224
:1047D000F0915002F89E9001F99E300D1124E20FE5
:1047E000F31FE85BFF4F80819181A281B3818983B0
:1047F0009A83AB83BC83BE016F5F7F4F80E692E0FC
:104800000E948116882309F415C3E0914F02F091AC
:1048100050022091710230917202F29EC001F39E0B
:10482000900D1124E80FF91FE85BFF4F5AC1E0918A
:104830004F02F0915002F89E9001F99E300D112424
:10484000E20FF31FE45BFF4F80819181A281B3816E
:1048500089839A83AB83BC83BE016F5F7F4F8BE5F7
:1048600092E00E948116882309F4E4C2E0914F028D
:10487000F09150022091710230917202F29EC001BB
:10488000F39E900D1124E80FF91FE45BFF4F29C13F
:10489000E0914F02F0915002F89E9001F99E300D88
:1048A0001124E20FF31FE05BFF4F80819181A28111
:1048B000B38189839A83AB83BC83BE016F5F7F4FD3
:1048C00086E592E00E948116882309F4B3C2E09144
:1048D0004F02F09150022091710230917202F29ECB
:1048E000C001F39E900D1124E80FF91FE05BFF4F0C
:1048F000F8C0E0914F02F0915002F89E9001F99EAD
:10490000300D1124E20FF31FEC5AFF4F808191818B
:10491000A281B38189839A83AB83BC83BE016F5F1D
:104920007F4F81E592E00E948116882309F482C2BC
:10493000E0914F02F0915002209171023091720289
:10494000F29EC001F39E900D1124E80FF91FEC5A5E
:10495000FF4FC7C0E0914F02F0915002F89E9001C6
:10496000F99E300D1124E20FF31FE85AFF4F8081AA
:104970009181A281B38189839A83AB83BC83BE0179
:104980006F5F7F4F8CE492E00E948116882309F4C8
:1049900051C2E0914F02F09150022091710230918A
:1049A0007202F29EC001F39E900D1124E80FF91FD0
:1049B000E85AFF4F96C0E0914F02F0915002F89EE6
:1049C0009001F99E300D1124E20FF31FE45AFF4FBE
:1049D00080819181A0E0B0E089839A83AB83BC831E
:1049E000BE016F5F7F4F87E492E00E941516882317
:1049F00009F420C2E0914F02F0915002209171021F
:104A000030917202F29EC001F39E900D1124E80FC6
:104A1000F91FE45AFF4F30C0E0914F02F09150026D
:104A2000F89E9001F99E300D1124E20FF31FE25A17
:104A3000FF4F80819181A0E0B0E089839A83AB83AE
:104A4000BC83BE016F5F7F4F82E492E00E94151627
:104A5000882309F4EFC1E0914F02F09150022091B8
:104A6000710230917202F29EC001F39E900D1124EA
:104A7000E80FF91FE25AFF4F89819A819183808361
:104A800038C0E0914F02F0915002F89E9001F99EDB
:104A9000300D1124E20FF31FE05AFF4F8081918106
:104AA000A281B38189839A83AB83BC83BE016F5F8C
:104AB0007F4F8DE392E00E948116882309F4BAC1EA
:104AC000E0914F02F09150022091710230917202F8
:104AD000F29EC001F39E900D1124E80FF91FE05AD9
:104AE000FF4F89819A81AB81BC8180839183A283AE
:104AF000B3831092730280916E028F5F80936E0277
:104B000099C180914F02909150020E9439121092E7
:104B10006C0210926E028EC180916F02882319F090
:104B20008130F1F156C18091710290917202092E8B
:104B3000000CAA0BBB0B89839A83AB83BC83BE0199
:104B40006F5F7F4F83E392E00E941516882309F47C
:104B500071C149815A816B817C8140315105610568
:104B60007105DCF45093720240937102E0914F02A0
:104B7000F0915002F49EC001F59E900D1124E80FB3
:104B8000F91F85AD8093760210927402109275021F
:104B900080916F028F5F80936F02109273024AC1FF
:104BA00080914D0290914E02DC01ED91FC910284C6
:104BB000F385E02D09958C018237910509F43DC1FB
:104BC00080918F020E949219892B09F436C180913D
:104BD000710290917202803191050CF0F4C0E09165
:104BE0004F02F0915002F89E9001F99E300D112471
:104BF000E20FF31F27AD222309F4DFC001361105B0
:104C000031F460E0809173020E948A1309C004337A
:104C1000110531F480915102909152020E94CA0A0A
:104C2000E0914F02F091500283A5882309F452C00D
:104C300089E592E00E94081189E592E00E94DA106D
:104C4000882309F447C089E592E00E941A11E09197
:104C50004F02F0915002E7A6A0915102B09152028A
:104C6000D4968C91D4978090710290907202882390
:104C7000B9F050964D915D916D917C9153975496FA
:104C80008D919D910D90BC91A02D1A012B01281A98
:104C9000390A4A0A5B0A22AA33AA44AA55AA15C0AD
:104CA000F89CD001F99CB00D1124AE0FBF1FAC5B76
:104CB000BF4F2D913D914D915C91A0E6BAEE0E94BF
:104CC000912F62AB73AB84AB95AB91AA80AACF0155
:104CD0000E9427118091750281112AC0E09275020D
:104CE0006091710270917202809151029091520212
:104CF0000E94370BE0914F02F09150022091710217
:104D000030917202F29EC001F39E900D1124E80FC3
:104D1000F91F85AD80937602109273020E94E21A09
:104D200060938B0270938C0280938D0290938E021D
:104D300061E080915102909152020E94AA0888235A
:104D400009F478C0E0914F02F09150022091710275
:104D500030917202F29EC001F39E900D1124E80F73
:104D6000F91F86AD882309F471C0E0927302809127
:104D70007602882349F0E0915302F091540264EBEB
:104D800070E080810E94271A0737110549F480914D
:104D90005302909154020E94CE101092730256C09A
:104DA0000236110509F046C08091530290915402D9
:104DB0000E94CE10109276023DC00196909372022E
:104DC0008093710237C080916F028F5F80936F0272
:104DD00031C080914F0290915002DC019B962C9142
:104DE0009B97222321F09F961C920E9427111092DC
:104DF0007402109275021092730210926C0210925B
:104E00006D0210926E0210926F0210927002109258
:104E100072021092710280915302909154020E948A
:104E2000CE1080915102909152020E94FB0A02C062
:104E300010926C020E94FC1718C8E0914F02F0918A
:104E4000500217A6B4E1B0936F02C1CE80917102F7
:104E50009091720201969093720280937102109267
:104E60007502E8CFE7E5F3E08AE491E0918380837F
:104E700088E391E0958F848F83E793E00C94B21BD5
:104E8000EF92FF920F931F93CF93DF931092B30192
:104E90001092B20188EE93E0A0E0B0E08093B401FC
:104EA0009093B501A093B601B093B7018EE091E065
:104EB0009093B1018093B00185EC90E09093BD0197
:104EC0008093BC0184EC90E09093BF018093BE017D
:104ED00080EC90E09093C1018093C00181EC90E060
:104EE0009093C3018093C20182EC90E09093C5013E
:104EF0008093C40186EC90E09093C7018093C60133
:104F00001092C9011092CA011092CB011092CC01EB
:104F100080E091E090934204809341048CE89AE908
:104F2000A4E0B0E08093430490934404A09345042C
:104F3000B093460481E08093470460E08CE00E94D7
:104F4000EB19E8E4F3E0E491E093FD03E4E3F3E03C
:104F5000E491F0E0EE0FFF1FE25EFC4F859194912B
:104F60009093FF038093FE031092080410920A04AA
:104F700010920904E8E0F4E0129284E0E030F807CF
:104F8000D9F78EEF98E19093FC038093FB038DEFAC
:104F900093E09093F0038093EF031092EE0310924E
:104FA000EA0389E08093EB0361E06093EC03609394
:104FB000ED038CE08093A7038BE094E09093A9032A
:104FC0008093A8031092AB0322E731E03093A6034D
:104FD0002093A5032AEE33E03093E9032093E803FE
:104FE0006093AA03109297031092980328E02093ED
:104FF00096032AE531E03093950320939403909330
:105000009A038093990380E091EEA0E0B0E0809352
:105010006F0390937003A0937103B09372038AE4BB
:1050200091E0909358038093570310927603109267
:10503000750388EE93E0A0E0B0E08093770390934F
:105040007803A0937903B0937A0388E391E0909377
:1050500074038093730310928A0310928903109251
:105060008C0310928B0310928E0310928D0310927A
:10507000900310928F03809191038E7F8D7F809398
:1050800091038695817068278BE00E94BB1961E0CF
:105090008BE00E94EB19E7E4F3E0E491E0938303F3
:1050A000E3E3F3E0E491F0E0EE0FFF1FEC5EFC4F72
:1050B00085919491909385038093840360E08AE0C6
:1050C0000E94EB198091910381FD04C061E08AE0A8
:1050D0000E94BB198AE080937F03E6E4F3E0E49149
:1050E000E0938003E2E3F3E0E491F0E0EE0FFF1FD2
:1050F000E25EFC4F859194919093820380938103AB
:10510000CBE0D4E0D0939303C09392038FE08093DD
:105110005403D0935603C093550389E080935303FF
:10512000D0932803C093270310922A0310922903D7
:1051300010922B0310922C038CE291E090932603A3
:10514000809325031092310310923203109233039F
:10515000109234038DE293E00E941A1110924403DE
:1051600010924503109246031092470380E493E0A7
:105170000E941A11D093D702C093D6021092D9027E
:105180001092D8021092DA021092DB0280E291E0D3
:105190009093D5028093D40289E193E09093F90231
:1051A0008093F80285E193E09093F7028093F602F2
:1051B0008DE193E09093FB028093FA021092140326
:1051C00010920C0310920D0310920E0310920F0315
:1051D00080E090E0AFE7B3E4809310039093110375
:1051E000A0931203B093130384E690E0A0E0B0E034
:1051F0008093080390930903A0930A03B0930B03D1
:105200001092F5021092F4028EEA97E4A1E8B1E45C
:105210008093DC029093DD02A093DE02B093DF0264
:1052200049E25CE56FE07EE34093E0025093E102E7
:105230006093E2027093E3024DEC5CE060EF73E494
:105240004093E4025093E5026093E6027093E70214
:105250008093E8029093E902A093EA02B093EB02F4
:1052600082E490E6A5E6BCE38093EC029093ED0225
:10527000A093EE02B093EF0280E098E0A6E9B5E4D7
:105280008093F0029093F102A093F202B093F302A4
:105290000E94E21A009108031091090320910A0369
:1052A00030910B03DC01CB01801B910BA20BB30BE4
:1052B0008093FC029093FD02A093FE02B093FF0244
:1052C00010922103109222031092230310922403C0
:1052D000D0939202C093910284E593E0909394025C
:1052E0008093930284ED92E09093960280939502CE
:1052F00085E293E0909398028093970295EAE92ED5
:1053000093E0F92EF0929A02E092990204E913E0F8
:1053100010939C0200939B021092A1021092A20291
:105320001092A3021092A4028DE992E00E941A1139
:1053300080EA9FE0A0E0B0E08093B4029093B502D1
:10534000A093B602B093B70280EB92E00E941A11CC
:105350001092C4021092C5021092C7021092C902A4
:105360001092C8021092CA021092CB021092CC0284
:105370001092CD0287E593E090934E0280934D0208
:10538000D0935002C0934F0281E992E09093520271
:105390008093510283E593E09093540280935302EB
:1053A000F0925602E0925502109358020093570271
:1053B00080E395E7A0E0B0E080935D0290935E0209
:1053C000A0935F02B093600289E592E00E941A11F7
:1053D00010926C0210926D0210926E0210926F0287
:1053E0001092700210927202109271021092730267
:1053F0001092740282E080938F0283E08093900287
:10540000DF91CF911F910F91FF90EF900895EF9250
:105410000F931F93CF93DF93E80147FD02C034E061
:1054200001C034E1E42F440FFF0BF7FF03C0F195F7
:10543000E195F109E32E022F2E2FAE010E94702A72
:10544000CE01DF91CF911F910F91EF9008956627C4
:1054500077270C94FE2B1F93FC0199278827BC010A
:10546000E89411911032E9F3193010F01E30C8F3AE
:105470001B3251F01D3249F4689406C00E945B2A29
:10548000610F711D811D911D119110531A30B0F3E0
:105490003EF490958095709561957F4F8F4F9F4F0B
:1054A0001F910895FB01DC0102C005900D9241504F
:1054B0005040D8F70895592F482F372F262F660FC1
:1054C000771F881F991F660F771F881F991F620F0C
:1054D000731F841F951F660F771F881F991F0895DC
:1054E0004F925F926F927F929F92AF92BF92CF92B4
:1054F000DF92EF92FF920F931F93CF93DF93CDB77D
:10550000DEB729970FB6F894DEBF0FBECDBF6A0194
:10551000122FB02E2BE3201720F0FF24F394F00E6F
:1055200002C0BCE3FB2E0F2D27E0AE014F5F5F4FA3
:105530000E945B2DAC018981982F9970913031F0D8
:10554000E1FC06C0E0FE06C090E205C09DE203C09B
:105550009BE201C090E0EE2DE07183FF3CC0911111
:1055600002C083E001C084E0811718F4212F281BBA
:1055700001C020E0E1110BC0F601822F30E2882348
:1055800019F031938150FBCFC20ED11C20E099233A
:1055900029F0D6019C93F60131966F01C60103965E
:1055A000E2FE0AC03EE4D6013C9341E411964C93DE
:1055B000119712963C9306C03EE6F601308341E611
:1055C00041833283FC01322F40E2332309F442C08D
:1055D00041933150FACF82FF44C0911102C083E061
:1055E00001C084E0811718F4212F281B01C020E09E
:1055F000E1110BC0F601822F30E2882319F03193BC
:105600008150FBCFC20ED11C20E0992329F0D60196
:105610009C93F60131966F01C6010396E2FE0BC022
:1056200039E4D6013C933EE411963C93119736E45D
:1056300012963C9307C039E6F60130833EE631838B
:1056400036E63283FC01322F40E2332319F04193D6
:105650003150FBCFFC01E20FF11D10828EEF9FEF66
:10566000B7C0F1E0911101C0F0E06F2F70E01416A7
:10567000150624F49A012F5F3F4F02C021E030E06D
:10568000260F371FBB2029F06B2D70E06F5F7F4F17
:1056900002C060E070E0260F371F612F70E0261710
:1056A00037071CF4121B212F01C020E03E2D38715A
:1056B00059F4D601322F60E2332319F06D93315043
:1056C000FBCFC20ED11C20E0FF2331F0D6019C930A
:1056D000B6016F5F7F4F6B01E1110BC0F601922F96
:1056E00030E3992319F031939150FBCFC20ED11CB6
:1056F00020E09F2D940F3A81782F7071A72E84FFA0
:1057000003C0313309F49150191624F4993018F07C
:1057100098E001C091E0E42F852F57FF02C0E0E040
:1057200080E06E2F782FE0E0F0E0AEE29A2E3A01B2
:10573000691A71082A01461A570A0B2D10E01195B3
:10574000019511096F3F8FEF780729F4D6019C92DC
:10575000C60101966C014617570784F06616770656
:105760006CF47F01E40CF51CA1E0B0E0AC0FBD1FB0
:10577000EA0EFB1ED7011196BC9002C090E3B92E31
:10578000615071093196C60101967C01601771075D
:1057900024F0D601BC926C01D5CF6417750741F493
:1057A000363320F4353321F4A11002C081E3B82E42
:1057B000F601B082F701822F90E2882319F09193CD
:1057C0008150FBCFF701E20FF11D108280E090E0E5
:1057D00029960FB6F894DEBF0FBECDBFDF91CF91F3
:1057E0001F910F91FF90EF90DF90CF90BF90AF90FF
:1057F0009F907F906F905F904F900895A0E0B0E0F1
:10580000E4E0FCE20C94A02FEC017B016115710532
:1058100019F0DB018D939C938E010F5F1F4F7880F1
:10582000872D90E00E94332E892B11F0E801F4CFF0
:10583000BDE27B1205C00F5F1F4F7980C1E008C039
:10584000EBE27E1204C08E010E5F1F4F7980C0E034
:105850006801F1E0CF1AD10843E050E060EC70E05D
:10586000C6010E943C2E892BF1F4680122E0C20E91
:10587000D11C45E050E06BEB70E0C6010E943C2E6D
:10588000892B21F4680187E0C80ED11CE114F104D2
:1058900019F0D701CD92DC92C111FFC060E070E039
:1058A00080E89FE703C143E050E068EB70E0C60189
:1058B0000E943C2E892B51F4E114F10409F4F2C04A
:1058C0000E5F1F4FF70111830083ECC0680160E099
:1058D00070E0CB0100E010E0F601D0EDD70DDA303A
:1058E00058F52C2F2260622E2C2F2870C2FF05C085
:1058F000211128C00F5F1F4F25C0222311F0015036
:105900001109A5E0B0E09B01AC010E94912F4B0171
:105910005C01880C991CAA1CBB1CC501B4016D0F4D
:10592000711D811D911D6839A9E97A078A07A9E1CE
:105930009A0740F0C66005C0DE3F51F4C3FD44C085
:10594000C8606C2EBFEFCB1ADB0A7080C62DC4CFA7
:105950002D2F2F7D2531C1F540814D3211F4C061CD
:1059600006C04B3221F0319621E030E006C032967D
:10597000D60111964C9122E030E0A0EDA40FAA30A0
:1059800018F0E21BF30B20C040E050E04038BCE0D0
:105990005B075CF49A01220F331F220F331F420F63
:1059A000531F440F551F4A0F511D3196DF011197A8
:1059B0002C91A0EDA20FAA3048F3C4FF03C051956B
:1059C00041955109040F151FC1FF07C0E114F104EF
:1059D00021F03197D701ED93FC930E94592EC370AB
:1059E000C33019F06B017C0106C06B017C01F7FA32
:1059F000F094F7F8F09420E030E0A901C701B60177
:105A00000E94542E882309F445C017FF06C0119543
:105A100001951109C7EDD0E002C0CFEED0E05E01E4
:105A2000B8E1AB1AB1084601BE2DAF2D90E2E92EC8
:105A3000F12C0E151F0584F0FE012591359145913D
:105A40005491B4018B2F9A2F0E94BA2E4B01B82F7C
:105A5000A92F0E191F09EDCF2497F594E794CA15C5
:105A6000DB0539F76401EB2EFA2E8E2D880F8F2D72
:105A7000881F8F3F49F020E030E0A901C701B6013F
:105A80000E94542E811106C082E290E09093060796
:105A900080930507C701B60109C060E070E080E8A7
:105AA0009FEF04C060E070E080EC9FE7CDB7DEB709
:105AB000EEE00C94BC2F283008F027E03327DA0101
:105AC000990F311D87FD916000966105710539F4CC
:105AD00032602E5F3D9330E32A95E1F708959F3FB2
