:100000000C941D020C9445020C9445020C94391377
:100010000C9439130C9439130C9445020C9445023A
:100020000C9445020C9445020C9445020C94450234
:100030000C9445020C9445020C9445020C94450224
:100040000C94EF120C9445020C94C0110C949A116C
:100050000C9445020C9445020C9445020C94450204
:100060000C9445020C944502461D5E1D8A1DAE1D72
:10007000D21DF61D191E3C1E5F1E7E1E9D1EC01E3B
:10008000DB1FDB1FC41EE11EFE1E1D1F401F631F62
:10009000861FA51FC41FFF1F252050207B20A820DE
:1000A000D920122143217421A521D62107223822EB
:1000B0006D22000000080002010000030407000098
:1000C000000000000000726E723A00626F6E3A002B
:1000D000626D673A006270663A0062706E3A006262
:1000E0006B643A00626B693A00626B703A0062615D
:1000F000743A006269743A006274643A006273741C
:100100003A006262633A006268613A00626E723A73
:10011000007370733A00736C733A00736E723A0036
:100120007370773A0073626C3A007373753A0073B8
:1001300073613A007373703A007373723A007373A9
:10014000743A007370643A007370743A007376778F
:100150003A0073726F3A0073746F3A00736B743ABB
:100160000073727A3A00736B6D3A0073747A3A00D6
:100170007370693A003A006D61006D64007200208E
:1001800000204B00205700204F0020440020420058
:10019000300031002048003000310020430020535F
:1001A00000204A00204700204500204900204E0042
:1001B0004100300031003000310000000000250017
:1001C00028002B0000000000230026002900040462
:1001D00004040404040402020202020203030303EF
:1001E00003030102040810204080010204081020CB
:1001F000010204081020005EBCE2613FDD83C29C66
:100200007E20A3FD1F419DC3217FFCA2401E5F01F4
:10021000E3BD3E6082DC237D9FC1421CFEA0E1BFA6
:100220005D0380DE3C62BEE0025CDF81633D7C22D8
:10023000C09E1D43A1FF4618FAA427799BC584DA06
:100240003866E5BB5907DB856739BAE406581947B4
:10025000A5FB7826C49A653BD987045AB8E6A7F966
:100260001B45C6987A24F8A6441A99C7257B3A6498
:1002700086D85B05E7B98CD2306EEDB3510F4E10C6
:10028000F2AC2F7193CD114FADF3702ECC92D38D74
:100290006F31B2EC0E50AFF1134DCE90722C6D3326
:1002A000D18F0C52B0EE326C8ED0530DEFB1F0AE58
:1002B0004C1291CF2D73CA947628ABF51749085686
:1002C000B4EA6937D58B5709EBB536688AD495CB34
:1002D0002977F4AA4816E9B7550B88D6346A2B75E6
:1002E00097C94A14F6A8742AC896154BA9F7B6E818
:1002F0000A54D7896B3500000000240027002A002B
:100300004E414E494E495459494E46CDCCCC3D0AFA
:10031000D7233C17B7D13877CC2B329595E6241FDD
:10032000B14F0A000020410000C84200401C462096
:10033000BCBE4CCA1B0E5AAEC59D7400407A10F369
:100340005A00A0724E18090010A5D4E80000E87603
:1003500048170000E40B54020000CA9A3B0000005A
:10036000E1F505000080969800000040420F000073
:1003700000A08601000000102700000000E8030034
:100380000000006400000000000A000000000001FE
:1003900000000000002C76D888DC674F0823DFC1FE
:1003A000DFAE59E1B1B796E5E3E453C63AE65199B9
:1003B0007696E8E6C28426EB898C9B62ED407C6FE2
:1003C000FCEFBC9C9F40F2BAA56FA5F490055A2A99
:1003D000F75C936B6CF9676DC11BFCE0E40D47FEA5
:1003E000F520E6B500D0ED902E030094357705009A
:1003F00080841E080000204E0A000000C80C333321
:1004000033330F986E12831141EF8D2114893BE62F
:100410005516CFFEE6DB18D1844B381BF77C1D90B8
:100420001DA4BBE424203284725E228100C9F12421
:10043000ECA1E53D27003126232611241FBECFEF76
:10044000D8E0DEBFCDBF11E0A0E0B1E0E4E2F6E627
:1004500002C005900D92AA39B107D9F726E0AAE9A2
:10046000B1E001C01D92AB3FB207E1F712E0CCE171
:10047000D2E004C02197FE010E945729CB31D10759
:10048000C9F70E94151A0C9405330C940000FC0166
:1004900086810895FC01878117820895FC011682E8
:1004A00017820895CF93DF93EC016C96CE010E94E2
:1004B0002511892B29F0CE01DF91CF910C943D11AC
:1004C00080E090E0DF91CF910895CF93DF93EC012E
:1004D0001E821F8208960E949419CE014B96DF91CE
:1004E000CF910C9494192F923F924F925F926F92FA
:1004F0007F928F929F92AF92BF92CF92DF92EF92B4
:10050000FF920F931F93CF93DF93CDB7DEB72E9754
:100510000FB6F894DEBF0FBECDBF9E878D874C010E
:1005200081E4880E911CD4014D935D936D937C936F
:100530001397AD84BE84B9E4AB0EB11CAD85BE8506
:100540001296ED91FC91139714962D913C9115976D
:1005500047E2429FC001439F900D1124E80FF91F0D
:10056000EF5AFF4F80819181A281B381F501808391
:100570009183A283B3830E94E312ED85FE85E35B42
:10058000FF4F00811181228133816B017C01C01AF0
:10059000D10AE20AF30AAD85BE8512960D911C912F
:1005A0001397F4012081318142815381D5016D91EE
:1005B0007D918D919C910E947129F80126A137A10E
:1005C00040A551A50E94773187FFFCC0ED85FE85CF
:1005D000E05CFF4F8081882309F407C10E94E31289
:1005E00069837A838B839C83ED85FE8580A591A5A5
:1005F000A2A5B3A549815A816B817C81481B590B07
:100600006A0B7B0B84A995A9A6A9B7A94817590716
:100610006A077B0708F4E9C002A0F3A1E02D40803F
:10062000518062807380AD85BE859696ED91FC9178
:100630009797A301920160817181828193810E94C9
:1006400071296D837E838F839887ED85FE85208D4C
:10065000318D428D538D0E94DD31AD85BE859C96D6
:100660002D913D914D915C919F970E9472294B0174
:100670005C01ED85FE8564A775A786A797A714ADD5
:1006800005AD36AC27AC212F302F432D522D0E94C3
:100690007F2A18162CF4812F902FA32DB22D18C06D
:1006A000AD85BE85D8968D919D910D90BC91A02D64
:1006B00089879A87AB87BC879C01AD01C501B401CE
:1006C0000E94773187FF0AC089859A85AB85BC85F2
:1006D000ED85FE8584A795A7A6A7B7A7AD85BE859E
:1006E00054962D913D914D915C9157976D817E81EE
:1006F0008F8198850E94DD31ED85FE8524A535A585
:1007000046A557A50E9472294B015C01AD85BE85A7
:10071000D0962D913D914D915C91D397C301B2013B
:100720000E947129ED85FE85248D358D468D578D6E
:100730000E94DD319B01AC01C501B4010E94712909
:100740004B015C01212F302F432D522D0E947F2A17
:100750001816DCF0AD85BE85D8961C91D897D99631
:100760000C91D997DA963C90DA97DB962C90212F52
:10077000302F432D522DB401C5010E94773187FDE2
:1007800004C0182D092D3A2C2B2CAD85BE859496CE
:10079000ED91FC919597812F902FA32DB22D808301
:1007A0009183A283B383ED85FE8540AA51AA62AAF4
:1007B00073AA89819A81AB81BC8180A791A7A2A7E6
:1007C000B3A713C0AD84BE84F5E4AF0EB11CD8014D
:1007D00092966D917C91939780E090E00E947C319D
:1007E000F5016083718382839383AD85BE85129604
:1007F000ED91FC91139762A173A180E090E00E94BB
:100800007C314B015C01C701B6010E947C31A5011E
:1008100094010E947F2A1816D4F40D851E85035B6F
:100820001F4FF80160817181828193810E947C3128
:10083000A50194010E9472290E94502AD8016D934B
:100840007D938D939C931397C12CD12C7601C70176
:10085000B6010E947C319B01AC01ED85FE85EB5B0E
:10086000FF4F60817181828193810E947F2AED8593
:10087000FE85968187FD0AC0911102C081E08783C1
:1008800081E0AD85BE8516968C930AC0992321F030
:1008900081E0ED85FE858783AD85BE8516961C9229
:1008A000ED85FE8586812E960FB6F894DEBF0FBECD
:1008B000CDBFDF91CF911F910F91FF90EF90DF900F
:1008C000CF90BF90AF909F908F907F906F905F90F0
:1008D0004F903F902F9008952F923F924F925F92AA
:1008E0006F927F928F929F92AF92BF92CF92DF9240
:1008F000EF92FF920F931F93CF93DF9300D000D01E
:10090000CDB7DEB71C01DC0116961C921697179620
:100910001C92179712960D911C911397F801C4A081
:10092000D5A01C141D04F4F50D2C000CEE08FF08D6
:10093000C701B6010E947E314B015C01D101D49602
:100940006D917D918D919C91D7970E947C319B01F7
:10095000AC01C501B4010E94DE294B015C019B0181
:10096000AC01F101608D718D828D938D0E94DD311E
:10097000D10158966D937D938D939C935B97A501C0
:1009800094015C966D917D918D919C915F970E94F1
:10099000DE29F101648F758F868F978FC4AAD5AA3F
:1009A000E6AAF7AAF1012481358147E2429FC001FE
:1009B000439F900D1124800F911FFC01E759FF4FB9
:1009C000C080D180E280F380349780809180A280C3
:1009D000B3803497408051806280738020E030E0A3
:1009E000A901C301B2010E94773187FD85C020E0D3
:1009F00030E0A901C501B4010E94773187FD7CC0B8
:100A000020E030E0A901C701B6010E94773187FDDF
:100A100073C0D10118964D925D926D927C921B9796
:100A2000F10184869586A686B7865096CD92DD9292
:100A3000ED92FC925397D4966D917D918D919C91FE
:100A4000D7970E947C3120E030E04AE754E40E94CE
:100A5000DE2969837A838B839C83F101448A558ADA
:100A6000668A778A9B01AC01C501B4010E94DD3121
:100A70004B015C01D10158966D937D938D939C93AE
:100A80005B9729813A814B815C81C701B6010E9445
:100A9000DE296B017C01F101648F758F868F978F42
:100AA00080A191A1019741F5A301920160E070E05E
:100AB000CB010E947129D10154966D937D938D9342
:100AC0009C935797A501940160E070E0CB010E94D0
:100AD0007129F101608F718F828F938FA701960129
:100AE00060E070E0CB010E947129D1015C966D93AA
:100AF0007D938D939C935F97F80162A173A180E031
:100B000090E00E947C316B017C0120E030E0A90183
:100B10000E9477318101005C1F4F18160CF05EC0F7
:100B2000D101D8961D921D921D921C92DB97F10166
:100B3000C4AED5AEE6AEF7AED8018C91882309F4E9
:100B40004DC0A4A0B5A0F5014080518062807380A3
:100B5000A7019601C301B2010E947F2A18163CF436
:100B6000D501CD92DD92ED92FC9213970EC020E05C
:100B700030E0A901C301B2010E94773187FF05C0AF
:100B8000F5011082118212821382D1019C968D9000
:100B90009D90AD90BC909F97DC96CD90DD90ED90B0
:100BA000FC90DF97A7019601C501B4010E947F2A3E
:100BB00018167CF0D101D896CD90DD90ED90FC9088
:100BC000DB97A7019601C501B4010E94773187FF29
:100BD00005C0F101C4A6D5A6E6A6F7A6D8018C915A
:100BE00081113AC0D1019496ED91FC919597C08006
:100BF000D180E280F380F101C4A6D5A6E6A6F7A6CF
:100C000002A0F3A1E02D80819181A281B381F10145
:100C100080AB91ABA2ABB3AB84AC95ACA6ACB7AC9C
:100C2000A5019401C701B6010E947F2A18166CF035
:100C3000F10180AC91ACA2ACB3ACA5019401C701A9
:100C4000B6010E94773187FF07C0D1019C968D9233
:100C50009D92AD92BC929F9781E0F80180830E94A3
:100C6000E312F101E35BFF4F60837183828393831F
:100C70000F900F900F900F90DF91CF911F910F91D8
:100C8000FF90EF90DF90CF90BF90AF909F908F90AC
:100C90007F906F905F904F903F902F900895CF93EB
:100CA000DF93EC016C96CE010E94851164E871E03F
:100CB000CE01DF91CF910C9485114C960C94851147
:100CC000CF93DF93EC016C96CE010E94611164E832
:100CD00071E0CE01DF91CF910C9485114C960C946C
:100CE00061110F931F93CF93DF93EC01288D398D02
:100CF0004A8D5B8D1FAA1EAA1DAA1CAA1BAA1AAA8E
:100D000060E079E08DE390E00E943829F901243019
:100D1000310518F0C901039702C081E090E099AF56
:100D200088AF68A5663108F069C0C90196958795B6
:100D30008431910510F0439702C081E090E09BABB5
:100D40008AAB369718F0C901059702C081E090E0A0
:100D50009DAB8CABC901880F991F280F391F3695A1
:100D60002795369527952D30310518F02C503109EF
:100D700002C021E030E03FAB2EAB909168006830BC
:100D800050F021E06E3008F420E081E001C0880FCF
:100D90002A95EAF701C084E0892B8093680098A522
:100DA000983038F09E3040F0963148F020E030E046
:100DB00008C02DE630E005C02BE630E002C02CE68E
:100DC00030E038AB2FA7983030F481E001C0880FB5
:100DD0009A95EAF70EC0292F30E09E3018F428507B
:100DE000310902C02E50310981E001C0880F2A95D7
:100DF000EAF789AB88AD99AD0197F1F78EA99FA964
:100E0000892BF9F08E01045E1F4F8091AE06909100
:100E1000AF0680179107A9F0009711F00E94B31355
:100E20008AAD8E7F8AAF1092AC061092AD061093F9
:100E3000AF060093AE06EFA5F8A9908189A9892B8A
:100E4000808364EF71E080E090E00E94A912EBAD36
:100E5000FCAD87AD882369F18E010E5F1F4F83AD16
:100E60008F9382AD8F9387E891E09F938F931F9329
:100E70000F930E94922AE881F9810280F381E02D8C
:100E8000B801CE01099568EE73E080E090E00E9421
:100E9000A9128BAD9CADFC0117AE0F900F900F9077
:100EA0000F900F900F90DF91CF911F910F910C94A5
:100EB000A119DF91CF911F910F910895FC019081AD
:100EC0000180F281E02DF8948181892B8183228138
:100ED000892F809528232283A7E0B0E01197F1F7AE
:100EE000218182238183A3E2B0E01197F1F7808111
:100EF0007894EFECF0E03197F1F7982381E009F472
:100F000080E00895FC0190810180F281E02D892F1D
:100F1000809560FF12C0F8942281822382838181B0
:100F2000892B8183A3E2B0E01197F1F78281982B9E
:100F30009283789487ED90E011C0F8942281822307
:100F400082838181892B8183AFEFB0E01197F1F724
:100F50008281982B928378948FE090E00197F1F74B
:100F60000895CF92DF92EF92FF920F931F93CF934A
:100F7000DF931F92CDB7DEB76C01E62E08E010E0DC
:100F8000FF24F39461E08F2D8E2109F460E0C60107
:100F900049830E948207FF0C015011094981011504
:100FA000110581F7411115C0F894D6011196ED9104
:100FB000FC91129791818C91809589238183119660
:100FC000ED91FC91129792818C9180958923828377
:100FD00078940F90DF91CF911F910F91FF90EF9038
:100FE000DF90CF900895FC0190810180F281E02D87
:100FF000F8948181292F20958223818378948DE72D
:1010000043E050E0815021F1DA011197F1F730818E
:101010003923C1F3F8948281822382838181892BD1
:1010200081837894ABE7B7E01197F1F7F894818169
:1010300028232183A3E1B1E01197F1F78081982360
:1010400081E009F080E07894E3E6F6E03197F1F78B
:1010500008951F93CF93DF93EC011CAA1DAA1EAA2B
:101060008C859D85DC01ED91FC910280F381E02D62
:101070000995EC81FD81108161E0812F0E944B1266
:1010800060E0812F0E941B1219AE18AECE010E96A1
:101090000E9494198A859B85DC01ED91FC91019059
:1010A000F081E02D09956AAF7BAF8CAF9DAFEA85EB
:1010B000FB851682DF011796ED5BFF4F6D937D93E5
:1010C0008D939D93AE17BF07C9F7DF91CF911F9105
:1010D00008950F931F93CF93DF93EC018B010E9430
:1010E000290819AF08AF8E819F81DC0115961C93EA
:1010F0000E93149728AD39ADE885F985358324839F
:10110000ED91FC910280F381E02D09958885998508
:10111000DC01ED91FC910280F381E02DDF91CF9114
:101120001F910F910994CF93DF93EC01E881F9812E
:101130000284F385E02D09951816190654F58D30B3
:10114000910561F024F48A30910591F422C0843134
:101150009105F9F08F3F910559F41BC08E899F8945
:101160001F8A1E8A18161906A4F4CE01029613C00F
:101170002E893F892331310560F4A9014F5F5F4F0C
:101180005F8B4E8BFE01E20FF31F8283C40FD51FCE
:101190001A8280E090E0DF91CF910895CF93FC0117
:1011A000C08161E08C2F0E944B12EC2FF0E0EE54D6
:1011B000FF4FE491E33019F150F4E130D1F0E23027
:1011C000E1F584B5806284BD84EB88BD3BC0E73027
:1011D00011F1E83049F1E43081F5809180008062BE
:1011E0008093800084EB90E090938B0080938A0042
:1011F00029C084B5806884BD84EB87BD23C08091FD
:10120000800080688093800084EB90E09093890058
:101210008093880017C08091B00080688093B000F0
:1012200084EB8093B3000EC08091B0008062809305
:10123000B00084EB8093B40005C061E08C2FCF91A7
:101240000C941B12CF9108950F931F93CF93DF93AC
:10125000FC012289222311F080E01FC0EC010E94D2
:10126000E312088119812A813B81DC01CB01801BBB
:10127000910BA20BB30B88879987AA87BB870C8138
:101280001D812E813F8180179107A207B30720F3AC
:10129000088719872A873B8781E0DF91CF911F91CB
:1012A0000F910895CF93DF93FC012089211109C08C
:1012B000EC010E94E312688379838A839B8381E037
:1012C000888BDF91CF9108952F923F924F925F923A
:1012D0006F927F928F929F92AF92BF92CF92DF9246
:1012E000EF92FF920F931F93CF93DF9300D000D024
:1012F000CDB7DEB79C838B834A015B01680179011E
:10130000DC0116968C91169714962D903C901597AB
:101310001296ED91FC911397FA83E9838823C9F122
:1013200087E2829D8001839D100D11240E0F1F1FE7
:10133000F801EF5AFF4FD801A35ABF4F2D913D91AD
:101340004D915C9160817181828193810E947229AB
:101350002B013C01F801EF59FF4F2081318142817F
:101360005381C701B6010E94DD319B01AC01C3016D
:10137000B2010E9471299B01AC0111E0C501B401C9
:101380000E947F2A18160CF010E081E0912E98261A
:1013900037C087E2829D8001839D100D1124298131
:1013A0003A81020F131FF801EF5AFF4FD801A75AD5
:1013B000BF4F2D913D914D915C91608171818281F2
:1013C00093810E9472292B013C01F801EF59FF4FD4
:1013D0002081318142815381C701B6010E94DD31F4
:1013E0009B01AC01C301B2010E9471299B01AC01B8
:1013F000C501B4010E947731982E991C9924991C3B
:1014000027E2229DC001239D900D1124A981BA815C
:101410008A0F9B1FFC01E359FF4F20813181211569
:10142000310511F1329680819181892BE9F00B8190
:101430001C81085F1F4F992009F4B2C0EB81FC8129
:10144000818D882309F45BC084899589A689B78931
:1014500084879587A687B787C8010E945209C8016B
:101460000E942409811159C0EB81FC81A480B580C0
:101470000281138187E28A9DF0018B9DF00D11247A
:10148000E00FF11FEF58FF4F408051806280738062
:1014900020E030E0A901C301B2010E947F2A1816A2
:1014A00044F4A7019601C301B2010E94773187FD80
:1014B000912C27E22A9DC0012B9D900D1124080F2D
:1014C000191FD801A35ABF4FF801E75AFF4F2081D7
:1014D0003181428153816D917D918D919C910E94CA
:1014E000773187FD67C0AB81BC8116968C911697CA
:1014F000891509F462C081E017968C935EC048EEAE
:1015000053E0249FC001259F900D349F900D11241E
:10151000A0E0B0E0EB81FC819BCFAB81BC81129657
:10152000ED91FC91139714962D913C91159747E2FC
:10153000429FC001439F900D1124E80FF91FE1590C
:10154000FF4F208131815D01BBE1AB0EB11CEB810E
:10155000FC8184A5882349F087A190A5A1A5B2A507
:10156000878F90A3A1A3B2A313C088EE93E0289F16
:10157000A001299F500D389F500D112460E070E0AC
:10158000AB81BC815F964D935D936D937C939297F5
:10159000C5010E945209C5010E942409882341F017
:1015A000C8010E9494198B819C814B960E949419CA
:1015B000912C5ACF81E0982696CFEB81FC819682C0
:1015C000892D0F900F900F900F90DF91CF911F9169
:1015D0000F91FF90EF90DF90CF90BF90AF909F90D2
:1015E0008F907F906F905F904F903F902F900895D5
:1015F000AF92BF92CF92DF92EF92FF920F931F9321
:10160000CF93DF931F92CDB7DEB75C01D62EE72EC6
:10161000FC018585811105C0C5010E94F307811178
:1016200006C0F50113861586148680E065C040E08B
:1016300060EFC5010E94B10701E0F12CC12C11E05F
:10164000C5010E945E07682FC50169830E945E077D
:101650006981613019F48130B9F433C04F2D50E005
:1016600068131BC0F5018385181730F4E40FF51FCC
:101670008381802349F402C0181731F060E01930EB
:1016800058F4F501148708C0F501EF0DF11D8381B1
:10169000802B838361E009C0C12EF501E40FF51FA3
:1016A0009381802F809589238383C5010E948207BF
:1016B0001F5F000F11F4F39401E0F7E0FF1508F04D
:1016C000BFCF113408F4ADCFF501C386C11002C0FD
:1016D00081E08587F5018381882309F4A2CFD501B4
:1016E0001396ED2DFE2D9501255F3F4F8D91819332
:1016F000A217B307D9F781E00F90DF91CF911F9127
:101700000F91FF90EF90DF90CF90BF90AF90089532
:10171000CF93DF93EB0120915D02211123C021E0E3
:1017200020935D02A0913702B0913802ED91FC91B7
:1017300011970680F781E02DBC01CD010995288124
:101740008091370290913802DC01ED91FC91008488
:10175000F185E02D222319F068EB71E002C066EB01
:1017600071E009958091370290913802DC01ED918A
:10177000FC910284F385E02D09959C01C0970297A6
:10178000F8F410925D028091370290913802203374
:10179000310551F41882DC01ED91FC910084F18552
:1017A000E02D62EB71E00AC021E02883DC01ED91BD
:1017B000FC910084F185E02D64EB71E0099509C08E
:1017C0002737310531F02136310529F410925D02B9
:1017D00002C081E001C080E0DF91CF9108950F93B6
:1017E0001F93CF93C82F8091370290913802DC016C
:1017F000ED91FC910680F781E02D60EB71E0099599
:101800000E94E312009175021091760220917702F6
:1018100030917802601B710B820B930B0E947C311C
:1018200001E612E020E041E00E94332D8091370272
:1018300090913802DC01ED91FC910280F381E02D62
:10184000B80109958091370290913802DC01ED9141
:10185000FC910680F781E02D6DEA71E009956091B9
:101860005B0270915C02072E000C880B990B0E94A2
:101870007E3120E041E00E94332D8091370290912B
:101880003802DC01ED91FC910280F381E02DB8017A
:1018900009958091370290913802DC01ED91FC911D
:1018A0000680F781E02D6AEA71E0099580913F0298
:1018B00090914002DC01ED91FC910190F081E02DCE
:1018C000099522E041E00E94332D809137029091EA
:1018D0003802DC01ED91FC910280F381E02DB8012A
:1018E00009958091370290913802DC01ED91FC91CD
:1018F0000680F781E02D67EA71E00995E0913F02EB
:10190000F09140028681811106C0FF96608171814D
:101910008281938109C0B4E08B9FE00DF11D1124F9
:10192000638174818581968101E612E022E041E0C5
:101930000E94332D8091370290913802DC01ED91A5
:10194000FC910280F381E02DB80109958091370266
:1019500090913802DC01ED91FC910680F781E02D39
:1019600064EA71E00995E0913F02F09140028681BE
:10197000282F30E0811107C0DF01DF966D917D9146
:101980008D919C910EC0D9011197AA0FBB1FAA0F70
:10199000BB1FAE0FBF1F17966D917D918D919C91CE
:1019A0001A97220F331F220F331FE20FF31F2781D5
:1019B0003085418552850E94712901E612E022E0BE
:1019C00042E00E94332D8091370290913802DC0171
:1019D000ED91FC910280F381E02DB8010995809191
:1019E000370290913802DC01ED91FC910680F7817D
:1019F000E02D61EA71E00995E0913F02F09140022B
:101A0000668170E080E090E00E947C3120E041E05F
:101A10000E94332D8091370290913802DC01ED91C4
:101A2000FC910280F381E02DB80109958091370285
:101A300090913802DC01ED91FC910680F781E02D58
:101A40006EE971E00995E0913902F0913A02209136
:101A50005B0230915C0247E2429FC001439F900DC0
:101A60001124E80FF91FEF5AFF4F608171818281C5
:101A7000938122E041E00E94332D809137029091C2
:101A80003802DC01ED91FC910280F381E02DB80178
:101A900009958091370290913802DC01ED91FC911B
:101AA0000680F781E02D6BE971E00995E0913B023A
:101AB000F0913C0226A98091370290913802DC0116
:101AC000ED91FC910680F781E02D222319F069E960
:101AD00071E002C067E971E0099580913702909149
:101AE0003802DC01ED91FC910680F781E02D64E97C
:101AF00071E00995E0913B02F0913C028485958567
:101B0000DC01ED91FC910680F781E02D0995A09113
:101B10003702B0913802ED91FC9111970680F78160
:101B2000E02D882319F062E971E002C060E971E0FC
:101B3000CD0109958091370290913802DC01ED9139
:101B4000FC910680F781E02D6DE871E00995E09148
:101B50003B02F0913C020280F381E02D80810E94E3
:101B60008712BC01990F880B990B0E947E312FECD4
:101B700032ED47EA5CE30E94DD3101E612E022E04B
:101B800041E00E94332D8091370290913802DC01B0
:101B9000ED91FC910280F381E02DB8010995E0916F
:101BA0003B02F0913C0287A9882369F080913702BB
:101BB00090913802DC01ED91FC910280F381E02DDF
:101BC00062E971E00995E0913B02F0913C0285A940
:101BD0008823D9F18091370290913802DC01ED9190
:101BE000FC910680F781E02D6AE871E00995E091AB
:101BF0003B02F0913C0282899389A489B5890689C8
:101C00001789208D318DBC01CD01601B710B820BBA
:101C1000930B28EE33E040E050E00E941629CA0101
:101C2000B9010E947C3101E612E020E041E00E940F
:101C3000332D8091370290913802DC01ED91FC91B7
:101C40000280F381E02DB8010995E0913902F0910D
:101C50003A028481882361F18091370290913802A1
:101C6000DC01ED91FC910680F781E02D67E871E0E1
:101C70000995E0913B02F0913C020680F781E02D4E
:101C8000EB5BFF4F608171818281938101E612E0FD
:101C900022E041E00E94332D80913702909138027A
:101CA000DC01ED91FC910280F381E02DB8010995F2
:101CB000CC23F1F08091370290913802DC01ED9154
:101CC000FC910680F781E02D64E871E00995809130
:101CD0006002882369F08091370290913802DC011C
:101CE000ED91FC910680F781E02D61E871E00995A6
:101CF0008091370290913802DC01ED91FC910084D3
:101D0000F185E02D6FE771E0CF911F910F9109945C
:101D1000EF92FF920F931F93CF93DF93EC017B0120
:101D200080915D02811128C0DB016D917D918D91C3
:101D30009C910E947E3101E612E020E041E00E9489
:101D4000332D81E080935D028091370290913802BB
:101D5000DC01ED91FC910680F781E02DBE01099533
:101D60008091370290913802DC01ED91FC91048062
:101D7000F581E02DB80109958091370290913802E4
:101D80000E949308EC01009729F165E971E00E9437
:101D9000892A892B09F167E971E0CE010E94892A1D
:101DA000892B19F410925D0215C0CE010E94572DA7
:101DB000F7016083718382839383809137029091CE
:101DC0003802DC01ED91FC910480F581E02DBE012B
:101DD000099502C080E001C081E0DF91CF911F91A1
:101DE0000F91FF90EF900895EF92FF920F931F9342
:101DF000CF93DF93EC017B0180915D02811126C0BE
:101E0000DB016D917D918D919C9101E612E022E0C4
:101E100041E00E94332D81E080935D028091370282
:101E200090913802DC01ED91FC910680F781E02D64
:101E3000BE0109958091370290913802DC01ED9145
:101E4000FC910480F581E02DB8010995809137025D
:101E5000909138020E949308EC01009729F165E9FE
:101E600071E00E94892A892B09F167E971E0CE01AE
:101E70000E94892A892B19F410925D0215C0CE01A7
:101E80000E94532DF7016083718382839383809135
:101E9000370290913802DC01ED91FC910480F581CC
:101EA000E02DBE01099502C080E001C081E0DF9114
:101EB000CF911F910F91FF90EF900895CF93DF93F3
:101EC000C7E3D2E08A819B810E94EE1988819981C3
:101ED000DC01ED91FC910084F185E02D6DE771E06E
:101EE000DF91CF910994CF92DF92EF92FF920F93FF
:101EF0001F93CF93DF936C017A018B01C0E0D0E098
:101F0000CE15DF0589F0D8016D918D01D601ED91D7
:101F1000FC910190F081E02DC6010995892B11F407
:101F20007E0102C02196ECCFC701DF91CF911F91B6
:101F30000F91FF90EF90DF90CF900895FC01918D6D
:101F4000828D981761F0828DDF01A80FB11D5D961B
:101F50008C91928D9F5F9F73928F90E008958FEF89
:101F60009FEF0895FC01918D828D981731F0828D3D
:101F7000E80FF11D858D90E008958FEF9FEF089594
:101F8000FC01918D228D892F90E0805C9F4F821BF8
:101F900091098F73992708958AE991E00E94C00FF3
:101FA00021E0892B09F420E0822F0895FC01848D23
:101FB000DF01A80FB11DA35ABF4F2C91848D90E073
:101FC00001968F739927848FA689B7892C93A0894E
:101FD000B1898C9180648C93938D848D981306C005
:101FE0000288F389E02D80818F7D80830895EF92B0
:101FF000FF920F931F93CF93DF93EC0181E0888FC3
:102000009B8D8C8D981305C0E889F989808185FDA9
:1020100024C0F62E0B8D10E00F5F1F4F0F7311279A
:10202000E02E8C8DE8120CC00FB607FCFACFE889C1
:10203000F989808185FFF5CFCE010E94D60FF1CFBF
:102040008B8DFE01E80FF11DE35AFF4FF0820B8FDD
:10205000EA89FB898081806207C0EE89FF896083FD
:10206000E889F98980818064808381E090E0DF9154
:10207000CF911F910F91FF90EF900895CF93DF9331
:10208000EC01888D8823C9F0EA89FB89808185FD70
:1020900005C0A889B9898C9186FD0FC00FB607FCD1
:1020A000F5CF808185FFF2CFA889B9898C9185FF12
:1020B000EDCFCE010E94D60FE7CFDF91CF910895EB
:1020C00080E090E0892B29F00E94CC0F81110C94C4
:1020D00000000895833081F028F4813099F0823037
:1020E000A1F008958730A9F08830B9F08430D1F498
:1020F000809180008F7D03C0809180008F778093D6
:102100008000089584B58F7702C084B58F7D84BD2B
:1021100008958091B0008F7703C08091B0008F7DCB
:102120008093B00008953FB7F8948091F5069091A0
:10213000F606A091F706B091F80626B5A89B05C053
:102140002F3F19F00196A11DB11D3FBFBA2FA92F36
:10215000982F8827820F911DA11DB11DBC01CD01B3
:1021600042E0660F771F881F991F4A95D1F708959F
:102170002091AE063091AF062817390771F490917F
:10218000AD068091AC06981741F0E091AD06F0E005
:10219000E055F94F808190E008958FEF9FEF08950B
:1021A00008951F93CF93DF93DC015C962D913C91B2
:1021B0005D972115310539F481E090E013969C93E9
:1021C0008E9312973DC05196ED91FC915297509687
:1021D0009C915097892F80951FB75E964C915E9782
:1021E00041FB772770F941FD6095F8944081772392
:1021F00011F0492B01C048234083E9012197F1F7F1
:1022000048E0508160FF02C0592B01C05823508321
:10221000E9012197F1F76695415099F7772321F06D
:1022200090818923808303C08081982B90831FBF76
:102230005C968D919C915D970197F1F721E030E0DC
:10224000C901DF91CF911F9108952091AE06309181
:10225000AF062817390771F48091AC062091AD06BE
:1022600090E0805C9F4F821B910960E470E00E94C7
:102270000229089580E090E008952091AE06309103
:10228000AF0628173907B9F49091AD068091AC06D6
:10229000981789F0E091AD06F0E0E055F94F8081A4
:1022A0002091AD0630E02F5F3F4F2F7333272093EF
:1022B000AD0690E008958FEF9FEF089508950E9476
:1022C000842AEF92FF920F931F93CF93DF938C0199
:1022D0007B01C0E0D0E0F701EC0FFD1F64916623A5
:1022E00061F0D801ED91FC910190F081E02DC801E1
:1022F0000995892B11F02196EECFCE01DF91CF9178
:102300001F910F91FF90EF9008956115710579F07D
:10231000FB0101900020E9F73197AF01461B570BF5
:10232000DC01ED91FC910280F381E02D099480E0C5
:1023300090E008951F920F920FB60F9211242F93E1
:102340003F934F935F936F937F938F939F93AF933D
:10235000BF93EF93FF938AE991E00E94D60FFF911C
:10236000EF91BF91AF919F918F917F916F915F910D
:102370004F913F912F910F900FBE0F901F90189586
:102380001F920F920FB60F9211242F938F939F934A
:10239000EF93FF93E091AA01F091AB018081E0916E
:1023A000B001F091B10182FD12C090818091B30122
:1023B0008F5F8F732091B401821751F0E091B301C8
:1023C000F0E0E656FE4F958F8093B30101C0808107
:1023D000FF91EF919F918F912F910F900FBE0F90D2
:1023E0001F901895CF93DF93282F30E0F901EE541A
:1023F000FF4F8491F901EE51FE4FD491F901E25360
:10240000FE4FC491CC2391F081110E946A10EC2FF1
:10241000F0E0EE0FFF1FEC53FE4FA591B491EC914D
:10242000ED2381E090E021F480E002C080E090E0C4
:10243000DF91CF9108951F93CF93DF93282F30E042
:10244000F901EE54FF4F8491F901EE51FE4FD49102
:10245000F901E253FE4FC491CC23C9F0162F81112C
:102460000E946A10EC2FF0E0EE0FFF1FE654FE4FC3
:10247000A591B4918FB7F894111105C09C91ED2FDF
:10248000E095E92302C0EC91ED2BEC938FBFDF9137
:10249000CF911F910895CF93DF9390E0FC01EE510F
:1024A000FE4F2491FC01E253FE4F8491882361F199
:1024B00090E0880F991FFC01EA50FD4FC591D4911F
:1024C000FC01E654FE4FA591B491611109C09FB77C
:1024D000F8948881209582238883EC912E230BC069
:1024E000623061F49FB7F8943881822F80958323FE
:1024F0008883EC912E2B2C939FBF06C08FB7F89446
:10250000E8812E2B28838FBFDF91CF9108958E30E5
:1025100008F08E508770806480937C0080917A00F0
:10252000806480937A0080917A0086FDFCCF809150
:1025300078002091790090E0922B089582309105E7
:1025400038F0880F991F880F991F05970197F1F7A9
:1025500008958F929F92AF92BF92CF92DF92EF92A7
:10256000FF926B017C010E9493104B015C01C1142E
:10257000D104E104F104F1F00E949310DC01CB01DD
:1025800088199909AA09BB09883E9340A105B1059C
:1025900070F321E0C21AD108E108F10888EE880E34
:1025A00083E0981EA11CB11CC114D104E104F10404
:1025B00019F7DDCFFF90EF90DF90CF90BF90AF90F5
:1025C0009F908F9008952FB7F8946091F1067091C5
:1025D000F2068091F3069091F4062FBF08951F92A2
:1025E0000F920FB60F9211242F933F938F939F93C7
:1025F000AF93BF938091F1069091F206A091F306FC
:10260000B091F4063091F00623E0230F2D3720F42B
:102610000196A11DB11D05C026E8230F0296A11D3C
:10262000B11D2093F0068093F1069093F206A093DB
:10263000F306B093F4068091F5069091F606A0910A
:10264000F706B091F8060196A11DB11D8093F5061D
:102650009093F606A093F706B093F806BF91AF915A
:102660009F918F913F912F910F900FBE0F901F90D0
:1026700018951F920F920FB60F9211242F933F932C
:102680004F935F936F937F938F939F93AF93BF937A
:10269000EF93FF93E091AE06F091AF06309709F407
:1026A00051C0968DA685B785858591FF04C09C9104
:1026B000892329F447C09C91892309F043C0A38949
:1026C000B4899C918589809589238C938689978983
:1026D0000197F1F7608D718DA685B785558538E036
:1026E00020E0CB010197F1F7822F90E09595879537
:1026F000282F4C91452309F02068315091F7868DA1
:1027000081FD20958091AC0690E001968F7399270A
:102710003091AD06381749F0A091AC06B0E0A05555
:10272000B94F2C938093AC0603C0868D8160868F51
:10273000828D938D0197F1F7A389B4899C91858946
:10274000892B8C93FF91EF91BF91AF919F918F91C6
:102750007F916F915F914F913F912F910F900FBE9D
:102760000F901F901895E091AE06F091AF06E81714
:10277000F90769F4A389B4899C9185898095892397
:102780008C931092AF061092AE0681E0089580E01F
:102790000895CF93DF93EC018D819E810E94F30712
:1027A00040E06CEC8D819E810E94B107488164E419
:1027B0008D819E810E94B1078A818823B1F0E981D1
:1027C000E950E33040F4F0E0EE0FFF1FE258FE4F17
:1027D0006081718102C06EEE72E0072E000C880BE2
:1027E000990BDF91CF910C94A912DF91CF910895AD
:1027F000DC01E0E0615038F08D91E827F0E0EA502C
:10280000FE4FE491F7CF8E2F0895CF92DF92EF9293
:10281000FF920F931F93CF93DF931F92CDB7DEB735
:102820008C01F62E40E065E579830E94B107CF2C3C
:102830007981D72E760188E0E80EF11CF6016191CE
:102840006F0140E0C8010E94B107CE14DF04B1F768
:102850000F90DF91CF911F910F91FF90EF90DF903C
:10286000CF9008956F927F928F929F92AF92BF9276
:10287000CF92DF92EF92FF920F931F93CF93DF934C
:102880001F92CDB7DEB78C01F42EFC0185819681B5
:1028900059830E94051440E06EEBF8018581968112
:1028A0000E94B1076F2C5981752E5301F9E0AF0ECC
:1028B000B11CF8018580968088E0C82ED12CEE24CA
:1028C000E394F12CC4010E945E078111FE28EE0CF6
:1028D000F1E0CF1AD108B1F7F301F1923F01EA1507
:1028E000FB0539F7F801858196810E94F30791E095
:1028F000813009F090E0892F0F90DF91CF911F91E7
:102900000F91FF90EF90DF90CF90BF90AF909F908E
:102910008F907F906F900895EF92FF920F931F9387
:10292000CF93DF9300D0CDB7DEB78C017A01FC01E5
:102930008581968169837A830E94F30769817A8110
:10294000882371F0A701C8010E943214882341F046
:1029500068E0C7010E94F81391E0F7012085821317
:1029600090E0892F0F900F90DF91CF911F910F91E1
:10297000FF90EF900895CF93DF93CDB7DEB72997FF
:102980000FB6F894DEBF0FBECDBFFB012081203112
:10299000D1F0AE014F5F5F4F0E948C14882389F005
:1029A0008D818F3361F020F48F3159F489E00CC0B0
:1029B0008F3519F08F3739F004C08BE005C08AE0FD
:1029C00003C080E001C08CE029960FB6F894DEBF0A
:1029D0000FBECDBFDF91CF910895FC018581089591
:1029E000FC0183810895FC0184810895FC018481A8
:1029F000811105C08381882311F081E084831382D3
:102A00000895FC018481811105C08381811102C078
:102A100081E0848381E0838308958F929F92AF92B7
:102A2000BF92CF92DF92EF92FF920F931F93CF93BB
:102A3000DF93CDB7DEB729970FB6F894DEBF0FBE90
:102A4000CDBF8C016C0145E4C40ED11C7C0153E464
:102A5000E50EF11CAE014F5F5F4FB601F7018081BB
:102A600091810E948C14882361F16981F8E06F9F45
:102A7000B00111248A81282F30E0322F2227330F12
:102A8000330F330F262B372BF60180818031E1F491
:102A9000688570E08F81AB01481B5109CA0196958A
:102AA000982F8827979587950E9402296051710970
:102AB000207F53E0220F331F5A95E1F7620F731FF7
:102AC00004C060E874EE01C0B901613854EE7507C6
:102AD0007CF0072E000C880B990B0E947E3120E0C1
:102AE00030E040E05CE30E94DD314B015C0106C058
:102AF000812C912C8EEFA82E82ECB82EF7018081CC
:102B000091810E94C913F80103811481F801268183
:102B1000378140855185C501B4010E94DD31F8013E
:102B200022853385448555850E94722929960FB6E2
:102B3000F894DEBF0FBECDBFDF91CF911F910F91F3
:102B4000FF90EF90DF90CF90BF90AF909F908F90CD
:102B50000895AF92BF92CF92DF92EF92FF920F93C0
:102B60001F93CF93DF93CDB7DEB761970FB6F8947D
:102B7000DEBF0FBECDBF7C0160E0DC0112968C9100
:102B80000E944B126701B3E4CB0ED11CF601008109
:102B90001181D8011596ED91FC9116971386158633
:102BA0001486DF011B9633961E92AE17BF07E1F71E
:102BB000F8011482BB24B394BE01665F7F4FF80115
:102BC000858196810E94F80A882309F462C067E033
:102BD000CE010A960E94F81399898913EDCFD80186
:102BE0008C91811127C015968D919C9116970E940A
:102BF000F307BE01665F7F4FF801858196810E94D1
:102C0000051440E064EBD80115968D919C911697C0
:102C10000E94B107F801858196810E945E07A82E67
:102C2000D80115968D919C9116970E94F307AA20C2
:102C300009F4D6C0F801858196810E94F3078823A4
:102C400049F0AE014F5F5F4FBE01665F7F4FC80125
:102C50000E943214D8011196AC90BE01665F7F4F7E
:102C6000C8010E94BB148A1518F4F801818106C0BE
:102C7000BE01665F7F4FC8010E94BB14D801119648
:102C80008C93119714968C9114978F5F14968C9354
:102C900093CFF5E4EF0EF11CD6018D919C91DC01F0
:102CA0001596ED91FC911697138615861486DF0113
:102CB0001B9633961E92AE17BF07E1F7B701FC01D2
:102CC000858196810E94F80A882321F067E0C70178
:102CD0000E94F813D6010D911C91AE014F5F5F4F1A
:102CE000B701C8010E948C14882309F463C0F7015E
:102CF0008081803109F45EC08FE58D83D8011596FF
:102D00008D919C9116970E94F307B701F801858178
:102D100096810E94051440E06EE4D80115968D91CD
:102D20009C9116970E94B10740E06B81F801858164
:102D300096810E94B10740E06C81D80115968D9173
:102D40009C9116970E94B107F7018081803149F06C
:102D500040E06D81D80115968D919C9116970E9447
:102D6000B107F801858196810E94F307B701D80168
:102D700015968D919C9116970E940514F80140813B
:102D800068E4858196810E94B10764E170E080E08B
:102D900090E00E94A912D8018C91882331F06AE05A
:102DA00070E080E090E00E94A912F8018581968190
:102DB0000E94F307D6018D919C910E94C9136196E0
:102DC0000FB6F894DEBF0FBECDBFDF91CF911F913C
:102DD0000F91FF90EF90DF90CF90BF90AF9008954C
:102DE000F801B08227CF6F927F928F929F92AF921D
:102DF000BF92CF92DF92EF92FF920F931F93CF93E8
:102E0000DF93EC01CB01BA018F7099271CE0C12C34
:102E1000D12C7601B3E08B2E912CA12CB12CA2E009
:102E2000CC0CDD1CEE1CFF1CAA95D1F7A50194016A
:102E30000E941629C62AD72AE82AF92AB901CA0106
:102E4000115069F7ED81FE8183A5877091E0692EAD
:102E500001C0660C8A95EAF700E0FFE17F2E46018B
:102E600057011CE0D501C40183709927AA27BB270D
:102E700081309105A105B10509F44FC0E8F0029732
:102E8000A105B10509F07BC061E08A810E941B1297
:102E9000ED81FE8184A595A50E949E1260E08A8145
:102EA0000E941B12ED81FE8184A595A59C01220F35
:102EB000331F820F931F48C061E08A810E941B125A
:102EC000ED81FE8184A595A50E949E1260E08A8115
:102ED0000E941B12ED81FE8184A595A59C01220F05
:102EE000331F820F931F0E949E1261E08A810E940D
:102EF0001B12ED81FE8184A595A50E949E1260E0C3
:102F00008A810E941B12ED81FE8184A595A59C01FA
:102F1000220F331F820F931F30C061E08A810E940D
:102F20001B12ED81FE8184A595A59C01220F331F04
:102F3000820F931F0E949E1260E08A810E941B12E2
:102F4000ED81FE8184A595A50E949E1261E08A8193
:102F50000E941B12ED81FE8184A595A59C01220F84
:102F6000331F820F931F0E949E1260E08A810E948D
:102F70001B12ED81FE8184A595A50E949E1282E020
:102F8000B694A794979487948A95D1F7115009F035
:102F900069CF61E08A810E941B12ED81FE8184A5C8
:102FA00095A50E949E1260E08A810E941B12ED810D
:102FB000FE8184A595A59C01729EC001739E900D13
:102FC00011240E949E120F5F061508F448CFDF916E
:102FD000CF911F910F91FF90EF90DF90CF90BF9016
:102FE000AF909F908F907F906F900895CF93DF93D5
:102FF000EC01662371F161E08A810E941B12ED8170
:10300000FE8184A595A50E949E1260E08A810E949F
:103010001B12ED81FE8184A595A525E0AC01249FBE
:10302000C001259F900D11240E949E1261E08A81AB
:103030000E941B12ED81FE8184A595A50E949E121F
:1030400060E08A810E941B12ED81FE8184A595A516
:103050002DC061E08A810E941B12ED81FE8184A552
:1030600095A50E949E1260E08A810E941B12ED814C
:10307000FE8184A595A50E949E1261E08A810E942E
:103080001B12ED81FE8184A595A50E949E1260E031
:103090008A810E941B12ED81FE8184A595A525E001
:1030A000AC01249FC001259F900D1124DF91CF9189
:1030B0000C949E124F925F926F927F92AF92BF924A
:1030C000CF92DF92EF92FF920F931F93CF93DF93F4
:1030D000EC01E62EED81FE81F3A49AE0B92ECC241A
:1030E000C394D12C38E2A32EF7FC7FC0ED81FE8182
:1030F00046A457A460A871A861E08A810E941B12AF
:10310000ED81FE8184A595A50E949E1260E08A81D2
:103110000E941B12ED81FE8124A535A5A9015695BB
:103120004795B29EC001B39E900D1124840F951F48
:103130000E949E1209E110E0D301C201002E04C0DA
:10314000B695A795979587950A94D2F7682F6170E1
:10315000CE010E94F6170150110970F760E0CE0110
:103160000E94F6176E2DCE010E94F61703E010E0C4
:10317000C601002E02C0880F991F0A94E2F7092E9B
:10318000000CAA0BBB0BED81FE8142A953A964A9D7
:1031900075A984239523A623B72361E0892B8A2B65
:1031A0008B2B09F460E0CE010E94F6170150110943
:1031B000F8F661E08A810E941B12ED81FE8184A5F0
:1031C00095A50E949E1260E08A810E941B12ED81EB
:1031D000FE8184A595A59C01A29EC001A39E900D91
:1031E00011240E949E12FA947FCFDF91CF911F91FC
:1031F0000F91FF90EF90DF90CF90BF90AF907F90B6
:103200006F905F904F900895CF93DF93EC010E94F1
:10321000F614ED81FE8182A5811106C060E0CE0129
:10322000DF91CF910C945A18813049F442A953A9E7
:1032300064A975A9CE01DF91CF910C94F316DF91AB
:10324000CF910895CF93DF93EC010E940115ED819A
:10325000FE8182A5811106C061E0CE01DF91CF9190
:103260000C945A1846A557A560A971A9CE01DF9103
:10327000CF910C94F316CF92DF92EF92FF920F93BF
:103280001F93CF93DF931F92CDB7DEB7F999FECF8F
:1032900089017A01E60EF71E6B01CE14DF04B9F046
:1032A000C11484E0D80698F4F999FECFF801619131
:1032B0008F01C60169830E949E326981681719F0E7
:1032C000C6010E94A632FFEFCF1ADF0AE6CF0F90A9
:1032D000DF91CF911F910F91FF90EF90DF90CF90F2
:1032E0000895EF92FF920F931F93CF93DF9389017D
:1032F0007901E40EF51EEB010E151F0571F0C115E5
:10330000F4E0DF0750F4F999FECFCE010E949E321F
:10331000F80181938F012196EFCFDF91CF911F911B
:103320000F91FF90EF900895FC011082118212829C
:1033300013821486158616861786108A118A128AB9
:1033400008959C01FC01E95BFF4F80819181DC01C4
:10335000ED91FC91215C3F4F0280F381E02D48E02C
:1033600050E06FEA72E00994EF92FF920F931F937F
:10337000CF93DF938C017C0187E4E80EF11CD70129
:103380008D919C91DC01ED91FC910280F381E02D07
:1033900098014FE350E060E070E00995CFE3D0E0A2
:1033A000F70180819181DC01ED91FC919E01215F0B
:1033B0003F4F200F311F0280F381E02D47E250E0A4
:1033C000BE010995A796CF3AB2E0DB0749F7DF9136
:1033D000CF911F910F91FF90EF900895CF93DF93BE
:1033E000EC018FE3DE011D928A95E9F7FE01E25BB5
:1033F000FF4FCE0182549D4F27E2DF01322F1D92F5
:103400003A95E9F7B796E817F907B9F7FE01FF967D
:1034100088E0DF011D928A95E9F7CE010E94B41978
:10342000CE01DF91CF910C94A119CF93DF9300D0FF
:1034300000D0CDB7DEB7789484B5826084BD84B502
:10344000816084BD85B5826085BD85B5816085BD9F
:1034500080916E00816080936E0010928100809157
:1034600081008260809381008091810081608093DF
:103470008100809180008160809380008091B10004
:1034800084608093B1008091B00081608093B0002F
:1034900080917A00846080937A0080917A008260C3
:1034A00080937A0080917A00816080937A00809185
:1034B0007A00806880937A001092C10061E083E016
:1034C0000E944B1261E083E00E941B128091350440
:1034D00090913604DC01ED91FC910190F081E02D9A
:1034E0002EEE33E04FE350E060E070E009950FE32B
:1034F00010E08091350490913604DC01ED91FC914F
:10350000980123503C4F0190F081E02D47E250E0BC
:10351000B8010995095D1F4F0F3AB2E01B0749F743
:1035200040913704509138046091390470913A0405
:103530008091EE039091EF03A091F003B091F1031D
:10354000481759076A077B0709F4E4C08EEE93E039
:103550000E94EE198091370490913804A0913904AB
:10356000B0913A048093EE039093EF03A093F0039D
:10357000B093F10381E080932D048DE494E0909367
:103580002904809328041092F20381E090E0A0E0E7
:10359000B0E08093200490932104A0932204B09380
:1035A000230480E090E6ACE1B0E080931C049093AB
:1035B0001D04A0931E04B0931F0488E893E1909328
:1035C00011048093100484E690E090931304809398
:1035D000120480E090E0A0E2B1E4809314049093A0
:1035E0001504A0931604B09317041092180488E0F1
:1035F00091E090931B0480931A0483E08093190454
:103600008EEA97E4A1E8BFE38093F4039093F50377
:10361000A093F603B093F70383E393E3A3E6B1E447
:103620008093FC039093FD03A093FE03B093FF03EC
:1036300080E090EBA5E6B6E480930004909301044B
:10364000A0930204B09303048AE999E9AEEAB2E4D4
:103650008093040490930504A0930604B093070498
:1036600080E090E0AFEAB4E480930804909309040A
:10367000A0930A04B0930B0486E696E6A6ECB0E4A9
:103680008093240490932504A0932604B0932704E8
:1036900080E197E2A0E0B0E080930C0490930D04E9
:1036A000A0930E04B0930F04E7E4F4E000E010E010
:1036B00020E83FE34DEC5CEC6CEC7DEBADECCA2E0E
:1036C000ACECDA2EED2CADE3FA2E108611861286C4
:1036D00013861486158616861786008B118B228B0F
:1036E000338B4083518362837383C482D582E682A5
:1036F000F782B79686E0E73BF80739F78EEE93E05E
:103700000E94B4198EEE93E00E94A11981E080938B
:103710003B0413C010923B04809135049091360411
:10372000DC01ED91FC910190F081E02D2DE234E07F
:1037300048E050E06FEA72E009958CE393E00E9464
:10374000710661E080917B030E944B1280E893E058
:103750000E94A91560E0809139030E944B1261E03C
:10376000809138030E944B1289EB92E00E946C0416
:103770008AE093E00E9465028BE792E00E942908AC
:1037800062E0809179020E944B1210925E021092C8
:103790005F0210925D021092560210925702109230
:1037A00058021092590210925A0210925C02109222
:1037B0005B0280913B0290913C020E942908EE241A
:1037C000E394E7E2FE2E80915E0281114FC0E09209
:1037D0005E028091390290913A02FC01E05CFF4F59
:1037E0002081222309F442C0108210925E02E092EE
:1037F0005F02B3E0B0935602E092590220915B025F
:1038000030915C02F29EF001F39EF00D1124E80F5E
:10381000F91FE25BFF4F208120936002FC01EF5B08
:10382000FF4F6081718170935C0260935B028091B5
:103830003B0290913C020E946908E0913902F091AC
:103840003A02ED5BFF4F80819181A281B381E091CB
:103850003B02F0913C0216861786108A118A828FED
:10386000938FA48FB58F168E10A2E78E8091790268
:103870000E94F211892B21F40E945E0F10925602D1
:10388000E0913B02F0913C0287A9882311F060E0AF
:1038900001C061E080917A020E941B128091560261
:1038A000823009F49BC338F4882381F0813009F415
:1038B000E0C00C94E725833009F45AC6853011F036
:1038C0000C94E7250E945E0F0C94E72580915D0221
:1038D00081115DC080913F0290914002DC01ED9129
:1038E000FC910480F581E02D0995A0913702B091FB
:1038F0003802ED91FC9111970680F781E02D81301F
:1039000019F46AE771E002C067E771E0CD0109953B
:1039100001E612E020E041E060E070E080E891E440
:103920000E94332D8091370290913802DC01ED9195
:10393000FC910280F381E02DB80109958091370256
:1039400090913802DC01ED91FC910680F781E02D29
:1039500065E771E00995E0913902F0913A026081E2
:103960007181828193810E947C3120E041E00E943C
:10397000332D8091370290913802DC01ED91FC915A
:103980000480F581E02DB8010995E0925D028091F7
:10399000370290913802DC01ED91FC910284F385AD
:1039A000E02D09958136910509F426C6BCF48133D2
:1039B0009105D1F12CF4C09709F41EC60C94E925A9
:1039C00082339105B9F1C39711F00C94E925109257
:1039D0005D02E3E0E09356020C94E92580379105FF
:1039E000B1F19CF483369105B9F18836910511F057
:1039F0000C94E9258091410290914202DC01ED9105
:103A0000FC910190F081E02D31C082379105C9F021
:103A10008437910511F00C94E92510925D02F4E0D1
:103A2000F09356020C94E92510925D02E092560242
:103A30000C94E92510925D02B2E0B09356020C940A
:103A4000E92575E0672E609256020C94E92580E026
:103A50000E94EF0B0C94E925809141029091420263
:103A6000DC01ED91FC910280F381E02D09950C942D
:103A7000E925E09157028E2F90E08731910508F0FB
:103A80009AC2FC01EC5CFF4F0C945729E09139027B
:103A9000F0913A0284818983BE016F5F7F4F80E796
:103AA00091E00E94880B882311F40C94E925E091A1
:103AB0003902F0913A028981848323C0E09139026E
:103AC000F0913A0286859785A089B18989839A8386
:103AD000AB83BC83BE016F5F7F4F8BE691E00E949A
:103AE000F40E882311F40C94E925E0913902F09149
:103AF0003A0289819A81AB81BC8186879787A08BA6
:103B0000B18B10925D02809157028F5F80935702B4
:103B10000C94E925E0913902F0913A02868197816F
:103B2000A085B18589839A83AB83BC83BE016F5F17
:103B30007F4F86E691E00E94F40E882311F40C94E6
:103B4000E925E0913902F0913A0289819A81AB81AD
:103B5000BC8186839783A087B187D3CFE091390258
:103B6000F0913A0282899389A489B58989839A83DD
:103B7000AB83BC83BE016F5F7F4F81E691E00E9403
:103B8000F40E882311F40C94E925E0913902F091A8
:103B90003A0289819A81AB81BC81828B938BA48B01
:103BA000B58BAFCFE0913902F0913A0282859385CF
:103BB000A485B58589839A83AB83BC83BE016F5F7F
:103BC0007F4F8CE591E00E94F40E882311F40C9451
:103BD000E925E0913902F0913A0289819A81AB811D
:103BE000BC8182879387A487B5878BCFE091390208
:103BF000F0913A0286899789A08DB18D89839A8345
:103C0000AB83BC83BE016F5F7F4F87E591E00E946D
:103C1000F40E882309F4DDC7E0913902F0913A02ED
:103C200089819A81AB81BC81868B978BA08FB18F64
:103C300068CFE0913902F0913A02828D938DA48D84
:103C4000B58D89839A83AB83BC83BE016F5F7F4F41
:103C500082E591E00E94F40E882309F4BAC7E0914E
:103C60003902F0913A0289819A81AB81BC81828FBD
:103C7000938FA48FB58F45CFE0913902F0913A022E
:103C8000868D978DA0A1B1A189839A83AB83BC83D4
:103C9000BE016F5F7F4F8DE491E00E94880E882304
:103CA00009F497C7E0913902F0913A0289819A812B
:103CB000AB81BC81868F978FA0A3B1A322CFE09167
:103CC0003902F0913A0282A193A1A0E0B0E0898389
:103CD0009A83AB83BC83BE016F5F7F4F81E191E02C
:103CE0000E94880E882309F474C7E0913902F0918C
:103CF0003A0289819A8193A382A303CFE09139028A
:103D0000F0913A0284A195A1A0E0B0E089839A8362
:103D1000AB83BC83BE016F5F7F4F88E491E00E945C
:103D2000880E882309F455C7E0913902F0913A02D0
:103D300089819A8195A384A3E4CEE0913902F09120
:103D40003A0286A197A1A0A5B1A589839A83AB83E6
:103D5000BC83BE016F5F7F4F83E491E00E94F40E4D
:103D6000882309F436C7E0913902F0913A0289813B
:103D70009A81AB81BC8186A397A3A0A7B1A7C1CE2E
:103D8000BEE0B093570225C7E0913902F0913A02A4
:103D900082A590E0A0E0B0E089839A83AB83BC83E6
:103DA000BE016F5F7F4F8EE391E00E94880E8823F3
:103DB00009F40FC7E0913902F0913A02898182A794
:103DC000A0CEE0913902F0913A0283A590E0A0E004
:103DD000B0E089839A83AB83BC83BE016F5F7F4F62
:103DE00089E391E00E94880E882309F4F2C6E091ED
:103DF0003902F0913A02898183A783CEE09139029A
:103E0000F0913A0284A595A5A0E0B0E089839A8359
:103E1000AB83BC83BE016F5F7F4F84E391E00E9460
:103E2000880E882309F4D5C6E0913902F0913A0250
:103E300089819A8195A784A764CEE0913902F09197
:103E40003A0286A597A5A0A9B1A989839A83AB83D5
:103E5000BC83BE016F5F7F4F8FE291E00E94880EAE
:103E6000882309F4B6C6E0913902F0913A028981BB
:103E70009A81AB81BC8186A797A7A0ABB1AB41CE9D
:103E8000E0913902F0913A0282A993A9A4A9B5A9B7
:103E900089839A83AB83BC83BE016F5F7F4F8AE2C5
:103EA00091E00E94880E882309F493C6E0913902BC
:103EB000F0913A0289819A81AB81BC8182AB93AB4C
:103EC000A4ABB5AB1ECEE0913902F0913A0286A9BF
:103ED00097A9A0ADB1AD89839A83AB83BC83BE01A2
:103EE0006F5F7F4F85E291E00E94F40E882309F412
:103EF00070C6E0913902F0913A0289819A81AB81D2
:103F0000BC8186AB97ABA0AFB1AFFBCDE0913902DE
:103F1000F0913A0282AD93ADA0E0B0E089839A833C
:103F2000AB83BC83BE016F5F7F4F80E291E00E9454
:103F3000880E882309F44DC6E0913902F0913A02C7
:103F400089819A8193AF82AFDCCDE0913902F09103
:103F50003A0284AD95ADA0E0B0E089839A83AB834B
:103F6000BC83BE016F5F7F4F8BE191E00E94880EA2
:103F7000882309F42EC6E0913902F0913A02898132
:103F80009A8195AF84AFBDCDE0913902F0913A02AC
:103F900086AD8983BE016F5F7F4F86E191E00E940D
:103FA000880B882309F415C6E0913902F0913A0292
:103FB000898186AFA6CD8091390290913A020E9404
:103FC000B4191092560210925702809139029091C2
:103FD0003A02FC01E7AE0E94A119FBC5E09158022C
:103FE0008E2F90E08E30910508F0B7C2FC01E55BA2
:103FF000FF4F80915B0290915C020C945729092E2F
:10400000000CAA0BBB0B89839A83AB83BC83BE01D4
:104010006F5F7F4F8CE091E00E94880E882309F447
:10402000D8C589819A81AB81BC8180319105A10578
:10403000B1050CF0E1C290935C0280935B02809129
:1040400058028F5F80935802D7C2E0913902F091F5
:104050003A02F89E9001F99E300D1124E20FF31FF1
:10406000E05BFF4F80818983BE016F5F7F4F8BECE8
:1040700090E00E94880B882309F4ABC5E0913902D7
:10408000F0913A0220915B0230915C02F29EC001F5
:10409000F39E900D1124E80FF91FE05BFF4F55C010
:1040A000E0913902F0913A02F89E9001F99E300DAC
:1040B0001124E20FF31FE15BFF4F80818983BE0172
:1040C0006F5F7F4F87E091E00E94880B882309F49F
:1040D00080C5E0913902F0913A0220915B02309163
:1040E0005C02F29EC001F39E900D1124E80FF91FAF
:1040F000E15BFF4F2AC0E0913902F0913A02F89E4D
:104100009001F99E300D1124E20FF31FE25BFF4F87
:1041100080818983BE016F5F7F4F82E091E00E94C2
:10412000880B882309F455C5E0913902F0913A02D1
:1041300020915B0230915C02F29EC001F39E900DD3
:104140001124E80FF91FE25BFF4F89818083FDC1D5
:10415000E0913902F0913A02F89E9001F99E300DFB
:104160001124E20FF31FEF5AFF4F80819181A2814A
:10417000B38189839A83AB83BC83BE016F5F7F4F1A
:104180008DEF90E00E94F40E882309F422C5E0919F
:104190003902F0913A0220915B0230915C02F29E6A
:1041A000C001F39E900D1124E80FF91FEF5AFF4F45
:1041B000C4C1E0913902F0913A02F89E9001F99E53
:1041C000300D1124E20FF31FEB5AFF4F80819181D4
:1041D000A281B38189839A83AB83BC83BE016F5F65
:1041E0007F4F88EF90E00E94880E882309F4F1C485
:1041F000E0913902F0913A0220915B0230915C0229
:10420000F29EC001F39E900D1124E80FF91FEB5AA6
:10421000FF4F89819A81AB81BC8180839183A28386
:10422000B38393C1E0913902F0913A02F89E900174
:10423000F99E300D1124E20FF31FE75AFF4F8081E2
:104240009181A281B38189839A83AB83BC83BE01B0
:104250006F5F7F4F83EF90E00E94F40E882309F494
:10426000B8C4E0913902F0913A0220915B0230919A
:104270005C02F29EC001F39E900D1124E80FF91F1D
:10428000E75AFF4F5AC1E0913902F0913A02F89E85
:104290009001F99E300D1124E20FF31FE35AFF4FF6
:1042A00080819181A281B38189839A83AB83BC830E
:1042B000BE016F5F7F4F8EEE90E00E94F40E882368
:1042C00009F487C4E0913902F0913A0220915B022F
:1042D00030915C02F29EC001F39E900D1124E80F14
:1042E000F91FE35AFF4F29C1E0913902F0913A02D8
:1042F000F89E9001F99E300D1124E20FF31FEF5943
:10430000FF4F80819181A281B38189839A83AB839E
:10431000BC83BE016F5F7F4F89EE90E00E94F40E78
:10432000882309F456C4E0913902F0913A022091B1
:104330005B0230915C02F29EC001F39E900D11244D
:10434000E80FF91FEF59FF4FF8C0E0913902F091E3
:104350003A02F89E9001F99E300D1124E20FF31FEE
:10436000EB59FF4F80819181A281B38189839A8328
:10437000AB83BC83BE016F5F7F4F84EE90E00E94F1
:10438000F40E882309F425C4E0913902F0913A0231
:1043900020915B0230915C02F29EC001F39E900D71
:1043A0001124E80FF91FEB59FF4FC7C0E091390204
:1043B000F0913A02F89E9001F99E300D1124E20F1F
:1043C000F31FE759FF4F80819181A281B3818983D7
:1043D0009A83AB83BC83BE016F5F7F4F8FED90E00C
:1043E0000E94F40E882309F4F4C3E0913902F0919D
:1043F0003A0220915B0230915C02F29EC001F39E72
:10440000900D1124E80FF91FE759FF4F96C0E09176
:104410003902F0913A02F89E9001F99E300D112474
:10442000E20FF31FE359FF4F80819181A0E0B0E0DC
:1044300089839A83AB83BC83BE016F5F7F4F8AED14
:1044400090E00E94880E882309F4C3C3E0913902EA
:10445000F0913A0220915B0230915C02F29EC00121
:10446000F39E900D1124E80FF91FE359FF4F30C060
:10447000E0913902F0913A02F89E9001F99E300DD8
:104480001124E20FF31FE159FF4F80819181A0E0D9
:10449000B0E089839A83AB83BC83BE016F5F7F4F9B
:1044A00085ED90E00E94880E882309F492C3E09184
:1044B0003902F0913A0220915B0230915C02F29E47
:1044C000C001F39E900D1124E80FF91FE159FF4F31
:1044D00089819A819183808338C0E0913902F0917B
:1044E0003A02F89E9001F99E300D1124E20FF31F5D
:1044F000EF58FF4F80819181A281B38189839A8394
:10450000AB83BC83BE016F5F7F4F80ED90E00E9464
:10451000F40E882309F45DC3E0913902F0913A0268
:1045200020915B0230915C02F29EC001F39E900DDF
:104530001124E80FF91FEF58FF4F89819A81AB8151
:10454000BC8180839183A283B38310925D028091AA
:1045500058028F5F809358023CC38091390290913A
:104560003A020E94B419109256021092580231C3B6
:1045700080915902882321F0813009F440C0FFC2A4
:1045800080915B0290915C02092E000CAA0BBB0B80
:1045900089839A83AB83BC83BE016F5F7F4F86ECB8
:1045A00090E00E94880E882309F413C349815A8140
:1045B0006B817C814031510561057105ECF45093AC
:1045C0005C0240935B02E0913902F0913A02F49E62
:1045D000C001F59E900D1124E80FF91FE25BFF4F1B
:1045E00080818093600210925E0210925F0280913F
:1045F00059028F5F8093590210925D02EAC2809146
:10460000370290913802DC01ED91FC910284F38530
:10461000E02D09955C018237910509F4DEC2809195
:1046200079020E94F211892B09F4D7C280915B02B2
:1046300090915C02803191050CF09BC2E0913902AF
:10464000F0913A02F89E9001F99E300D1124E20F8C
:10465000F31FE05BFF4F2081222309F484C2E1E6CF
:10466000AE16B10429F480915D020E94EF0B3FC0A9
:10467000F0E7AF16B104D9F500913B0210913C026E
:10468000D80190968C9190978823A1F090961C92D7
:104690000E94E312F80146885788608C718CDC0117
:1046A000CB0184199509A609B70986879787A08B3E
:1046B000B18B1DC0D8019096EC920E94E312F801D4
:1046C0004684578460887188DC01CB018419950980
:1046D000A609B709868B978BA08FB18F84859585A6
:1046E000DC01ED91FC910280F381E02D0995E091D0
:1046F0003902F0913A0286AD882309F45DC083E463
:1047000092E00E94520983E492E00E9424098823E7
:1047100009F452C083E492E00E949419E0913902B6
:10472000F0913A02DF01A05CBF4FEC92A0913B02F6
:10473000B0913C02D5968C91D597C0905B02D090F9
:104740005C028F010D5B1F4F8823B9F052964D918B
:104750005D916D917C91559756968D919D910D909F
:10476000BC91A02D481B590B6A0B7B0BD8014D93B4
:104770005D936D937C93139717C0FC9CD001FD9CB7
:10478000B00D1124AE0FBF1FAB5ABF4F2D913D91FD
:104790004D915C91A0E6BAEE0E94B432D8016D93BF
:1047A0007D938D939C931397DF01AF5BBF4FCD92A9
:1047B000DC92CF010E94A11980915F0281112CC06F
:1047C000E0925F0260915B0270915C0280913B021B
:1047D00090913C020E946908E0913902F0913A02FE
:1047E00020915B0230915C02F29EC001F39E900D1D
:1047F0001124E80FF91FE25BFF4F80818093600274
:1048000010925D020E94E31260937502709376022B
:104810008093770290937802C0903B02D0903C0244
:10482000F60180A18111D5C186010F5D1F4FC8011E
:104830000E945209C8010E942409882309F472C009
:10484000C8010E949419D6011A968D919C911B97CC
:10485000DC01ED91FC910190F081E02D0995F601CC
:1048600062AF73AF84AF95AF0284F385E02D2681EC
:10487000DF0134E0239FA00DB11D112417966D9325
:104880007D938D939C931A9781E0820F8F3010F463
:10489000868301C01682D60112960D911C91139742
:1048A000F80180810E948712BC01990F880B990B37
:1048B0000E947E312FEC32ED47EA5CE30E94DD314D
:1048C000D8011196ED91FC91129726A937A940AD18
:1048D00051AD0E947731881F8827881FF60187AB6A
:1048E000882321F0848195810E94CE08D601D69636
:1048F0002C91D6971C968D919C911D97222359F04F
:10490000D7962C91211107C0DC01ED91FC9101900B
:10491000F081E02D06C0DC01ED91FC910280F38175
:10492000E02D0995F60122AC33AC44AC55AC0190B6
:10493000F081E02D8481D601882399F016968D911F
:104940009C911797DC01ED91FC910190F081E02D95
:1049500000E010E09801B201A1010995F60186ABD3
:104960003FC018968D909C901997D401ED91FC91C1
:1049700060807180D6011A96ED91FC911B9726817B
:10498000422F50E0211107C0DF01DF966D917D912C
:104990008D919C910EC0DA011197AA0FBB1FAA0F2F
:1049A000BB1FAE0FBF1F17966D917D918D919C918E
:1049B0001A979A01220F331F220F331FE20FF31FA2
:1049C00027813085418552850E9471298B019C0188
:1049D000B201A101C401F3010995D601D6968C93C9
:1049E000F60185A981113DC00084F185E02D448147
:1049F000558122813381F49EC001F59E900D1124D2
:104A0000820F931FDC01A35ABF4FFC01E75AFF4FEF
:104A100020813181428153816D917D918D919C9155
:104A20000E947731D601ED91FC911197D8962D9186
:104A30003C91D99787FFDCC0F29EC001F39E900D98
:104A40001124E80FF91FEF5AFF4F20813181428175
:104A50005381C201B1010E947731181614F0F6019A
:104A6000E5AAF60185A9882309F4B3C00190F08175
:104A7000E02DD601D8962D913C91D997F29EC00198
:104A8000F39E900D1124E80FF91FEB5AFF4F208180
:104A90003181428153818601025F1F4F5F968C9165
:104AA0005F97882361F05A968D919D910D90BC91EE
:104AB000A02DF601828B938BA48BB58B0BC0A0E647
:104AC000BAEE0E94B432D60152966D937D938D93C7
:104AD0009C935597C8010E945209C8010E9424095D
:104AE000882309F476C0E0913902F0913A022091CE
:104AF0005B0230915C02F29EC001F39E900D112486
:104B0000E80FF91FE15BFF4F8081882301F1E092FC
:104B10005D0280916002882331F080913D02909186
:104B20003E020E94CE08B7E7AB16B10409F077C089
:104B3000E0913D02F0913E02108161E0812F0E94E0
:104B40004B1260E0812F0E941B1210925D02809137
:104B50005B0290915C02019690935C0280935B02F1
:104B600010925F0236C0019690935C0280935B02C4
:104B700030C0809159028F5F809359022AC0809182
:104B8000390290913A02FC0126AD222329F0E05C23
:104B9000FF4F10820E94A11910925E0210925F02D4
:104BA00010925D0210925602109257021092580213
:104BB0001092590210925A0210925C0210925B02FB
:104BC00080913B0290913C020E94290802C0109201
:104BD00056020E9460100C94E31BE0913902F091A0
:104BE0003A02E05CFF4F1082F4E1F09359021ECDCF
:104BF000F29EC001F39E900D1124E80FF91FEF5AA9
:104C0000FF4F2081318142815381C201B1010E9455
:104C10007F2A87FD26CFD601D596EC9222CF22E6B9
:104C2000A216B104B1F6E0913D02F0913E0210816E
:104C300061E0812F0E944B1260E0812F0E941B12C5
:104C400010926002C6CFECE3F3E086E491E091833A
:104C5000808386E391E0958F848F88E593E00C94C0
:104C6000B313CF92DF92EF92FF920F931F93CF93E4
:104C7000DF9310929D0110929C0188EE93E0A0E0DA
:104C8000B0E080939E0190939F01A093A001B09308
:104C9000A1018EE091E090939B0180939A0185ECB5
:104CA00090E09093A7018093A60184EC90E090930C
:104CB000A9018093A80180EC90E09093AB018093D0
:104CC000AA0181EC90E09093AD018093AC0182EC5D
:104CD00090E09093AF018093AE0186EC90E09093CA
:104CE000B1018093B0011092B3011092B4011092FF
:104CF000B5011092B60180E091E090933604809364
:104D000035048AE998E9A4E0B0E0809337049093F1
:104D10003804A0933904B0933A0481E080933B04B3
:104D200060E08CE00E944B12EEEEF1E0E491E09343
:104D3000E003EAEDF1E0E491F0E0EE0FFF1FEC5349
:104D4000FE4F859194919093E2038093E10310923A
:104D5000EB031092ED031092EC03EBEEF3E01292F2
:104D600083E0E33EF807D9F78EE591E19093DF0306
:104D70008093DE0380EE93E09093D3038093D2037D
:104D80001092D1031092CD0389E08093CE0361E0AD
:104D90006093CF036093D0038CE0809382038EEE08
:104DA00093E09093840380938303109286032EE60E
:104DB00031E030938103209380032DEC33E0309376
:104DC000C4032093C3036093850310927C03109265
:104DD0007D0328E020937B0326E531E030937A03BE
:104DE0002093790390937F0380937E0380E091EE7C
:104DF000A0E0B0E08093540390935503A093560332
:104E0000B093570386E491E090933D0380933C0375
:104E100010925B0310925A0388EE93E0A0E0B0E09A
:104E200080935C0390935D03A0935E03B0935F0354
:104E300086E391E0909359038093580310926F0397
:104E400010926E031092710310927003109273030C
:104E5000109272031092750310927403809176037E
:104E60008E7F8D7F809376038695817068278BE097
:104E70000E941B1261E08BE00E944B12EDEEF1E00C
:104E8000E491E0936803E9EDF1E0E491F0E0EE0FE6
:104E9000FF1FE654FE4F8591949190936A0380938F
:104EA000690360E08AE00E944B128091760381FDE5
:104EB00004C061E08AE00E941B128AE080936403D0
:104EC000ECEEF1E0E491E0936503E8EDF1E0E491CC
:104ED000F0E0EE0FFF1FEC53FE4F859194919093FD
:104EE000670380936603CEEED3E0D0937803C0933C
:104EF00077038FE080933903D0933B03C0933A0349
:104F000089E080933803D0930D03C0930C03109273
:104F10000F0310920E0310921003109211038AE2F5
:104F200091E090930B0380930A0310921603109262
:104F30001703109218031092190382E193E00E9464
:104F400094191092290310922A0310922B031092A5
:104F50002C0385E293E00E949419D093BC02C09385
:104F6000BB021092BE021092BD021092BF021092BC
:104F7000C0028EE191E09093BA028093B9028EEF65
:104F800092E09093DE028093DD028AEF92E09093AC
:104F9000DC028093DB0282E093E09093E002809356
:104FA000DF021092F9021092F1021092F2021092B6
:104FB000F3021092F40280E090E0AFE7B3E4809354
:104FC000F5029093F602A093F702B093F80284E6FC
:104FD00090E0A0E0B0E08093ED029093EE02A09309
:104FE000EF02B093F0021092DA021092D9028EEA28
:104FF00097E4A1E8B1E48093C1029093C202A09328
:10500000C302B093C40249E25CE56FE07EE34093E3
:10501000C5025093C6026093C7027093C8024DEC5C
:105020005CE060EF73E44093C9025093CA0260935E
:10503000CB027093CC028093CD029093CE02A093CA
:10504000CF02B093D00282E490E6A5E6BCE3809361
:10505000D1029093D202A093D302B093D40280E005
:1050600098E0A6E9B5E48093D5029093D602A09388
:10507000D702B093D8020E94E3120091ED02109182
:10508000EE022091EF023091F002DC01CB01801B97
:10509000910BA20BB30B8093E1029093E202A093D9
:1050A000E302B093E40210920603109207031092F9
:1050B000080310920903D0937C02C0937B0289E31A
:1050C00093E090937E0280937D0298E3C92E93E053
:1050D000D92ED0928002C0927F0289EB92E0909309
:1050E0008202809381028AE093E09093840280930D
:1050F000830220E8E22E23E0F22EF0928602E09274
:10510000850209E713E0109388020093870210924A
:105110008D0210928E0210928F021092900289E8F6
:1051200092E00E94941980EA9FE0A0E0B0E08093B2
:10513000A0029093A102A093A202B093A3028CE9D3
:1051400092E00E9494191092AF021092B002109255
:10515000B2021092B4021092B3021092B5021092F1
:10516000B6021092B7021092B8028CE393E09093CB
:10517000380280933702D0933A02C09339028BE70A
:1051800092E090933C0280933B02D0923E02C09208
:105190003D02F0924002E0923F02109342020093DF
:1051A000410280E395E7A0E0B0E08093470290934E
:1051B0004802A0934902B0934A0283E492E00E941D
:1051C000941910925602109257021092580210929F
:1051D000590210925A0210925C0210925B021092D5
:1051E0005D0210925E0282E08093790283E08093F8
:1051F0007A02DF91CF911F910F91FF90EF90DF9096
:10520000CF90089597FB072E16F4009407D077FDF2
:1052100009D00E945D2907FC05D03EF49095819548
:105220009F4F0895709561957F4F0895A1E21A2EC2
:10523000AA1BBB1BFD010DC0AA1FBB1FEE1FFF1F3A
:10524000A217B307E407F50720F0A21BB30BE40B8A
:10525000F50B661F771F881F991F1A9469F76095D1
:105260007095809590959B01AC01BD01CF0108958B
:10527000052E97FB1EF400940E944F2957FD07D07E
:105280000E94162907FC03D04EF40C944F29509528
:105290004095309521953F4F4F4F5F4F0895909522
:1052A0008095709561957F4F8F4F9F4F0895EE0FBA
:1052B000FF1F0590F491E02D0994AA1BBB1B51E13F
:1052C00007C0AA1FBB1FA617B70710F0A61BB70B76
:1052D000881F991F5A95A9F780959095BC01CD011B
:1052E00008955058BB27AA270E9489290C9464323C
:1052F0000E94563238F00E945D3220F039F49F3F10
:1053000019F426F40C9453320EF4E095E7FB0C9458
:105310004D32E92F0E94753258F3BA1762077307AE
:105320008407950720F079F4A6F50C9497320EF4D3
:10533000E0950B2EBA2FA02D0B01B90190010C01A5
:10534000CA01A0011124FF27591B99F0593F50F4BD
:10535000503E68F11A16F040A22F232F342F442715
:10536000585FF3CF469537952795A795F04053950D
:10537000C9F77EF41F16BA0B620B730B840BBAF0DD
:105380009150A1F0FF0FBB1F661F771F881FC2F748
:105390000EC0BA0F621F731F841F48F4879577955C
:1053A0006795B795F7959E3F08F0B0CF9395880F16
:1053B00008F09927EE0F9795879508950E94F22996
:1053C0000C9464320E945D3258F00E94563240F0D4
:1053D00029F45F3F29F00C944D3251110C9498320E
:1053E0000C9453320E94753268F39923B1F355231C
:1053F00091F3951B550BBB27AA27621773078407E8
:1054000038F09F5F5F4F220F331F441FAA1FA9F37D
:1054100035D00E2E3AF0E0E832D091505040E6956B
:10542000001CCAF72BD0FE2F29D0660F771F881FCC
:10543000BB1F261737074807AB07B0E809F0BB0BBF
:10544000802DBF01FF2793585F4F3AF09E3F5105D3
:1054500078F00C944D320C9498325F3FE4F3983E10
:10546000D4F3869577956795B795F7959F5FC9F7BC
:10547000880F911D9695879597F90895E1E0660F3D
:10548000771F881FBB1F621773078407BA0720F0B6
:10549000621B730B840BBA0BEE1F88F7E09508951F
:1054A0000E947D3288F09F5798F0B92F9927B75105
:1054B000B0F0E1F0660F771F881F991F1AF0BA95B8
:1054C000C9F714C0B13091F00E949732B1E008954D
:1054D0000C949732672F782F8827B85F39F0B93F3F
:1054E000CCF3869577956795B395D9F73EF490956B
:1054F0008095709561957F4F8F4F9F4F08950E94C3
:10550000B93108F48FEF089581E090E0F8940C949D
:105510000533FB01DC018D91019080190110D9F355
:10552000990B0895AEE0B0E0E8E9FAE20C94CD32D0
:105530000D891E8986E08C831A8309838FEF9FE78C
:105540009E838D83AE01475E5F4F6F89788DCE015C
:1055500001960E94B52A2F813885F801E20FF31FCA
:1055600010822E96E4E00C94E932ACE0B0E0EBEB74
:10557000FAE20C94BF327C016B018A01FC011782B4
:105580001682838181FFBDC1CE0101964C01F701D6
:105590009381F60193FD859193FF81916F0188239B
:1055A00009F4ABC1853239F493FD859193FF819164
:1055B0006F01853229F4B70190E00E949D2CE7CF5E
:1055C000512C312C20E02032A0F48B3269F030F4E1
:1055D000803259F0833269F420612CC08D3239F069
:1055E000803339F4216026C02260246023C0286003
:1055F00021C027FD27C030ED380F3A3078F426FF60
:1056000006C0FAE05F9E300D1124532E13C08AE0CD
:10561000389E300D1124332E20620CC08E3221F4BE
:1056200026FD6BC1206406C08C3611F4206802C0D0
:10563000883641F4F60193FD859193FF81916F01C6
:105640008111C1CF982F9F7D9554933028F40C5F22
:105650001F4FFFE3F9830DC0833631F0833771F0BC
:10566000833509F05BC022C0F801808189830E5F19
:105670001F4F44244394512C540115C03801F2E0CB
:105680006F0E711CF801A080B18026FF03C0652D4C
:1056900070E002C06FEF7FEFC5012C870E94922C53
:1056A0002C0183012C852F77222E17C03801F2E0C0
:1056B0006F0E711CF801A080B18026FF03C0652D1C
:1056C00070E002C06FEF7FEFC5012C870E94872C2E
:1056D0002C012C852068222E830123FC1BC0832DE6
:1056E00090E048165906B0F4B70180E290E00E94BD
:1056F0009D2C3A94F4CFF50127FC859127FE8191EA
:105700005F01B70190E00E949D2C31103A94F1E0C6
:105710004F1A51084114510471F7E5C0843611F055
:10572000893639F5F80127FF07C0608171818281D0
:1057300093810C5F1F4F08C060817181072E000CA0
:10574000880B990B0E5F1F4F2F76722E97FF09C0A3
:1057500090958095709561957F4F8F4F9F4F2068F2
:10576000722E2AE030E0A4010E94D52CA82EA818A1
:1057700044C0853729F42F7EB22E2AE030E025C0C0
:10578000F22FF97FBF2E8F36C1F018F4883579F0EB
:10579000B4C0803719F0883721F0AFC02F2F2061B7
:1057A000B22EB4FE0DC08B2D8460B82E09C024FF2C
:1057B0000AC09F2F9660B92E06C028E030E005C0D1
:1057C00020E130E002C020E132E0F801B7FE07C07E
:1057D00060817181828193810C5F1F4F06C060815F
:1057E000718180E090E00E5F1F4FA4010E94D52CD4
:1057F000A82EA818FB2DFF777F2E76FE0BC0372D25
:105800003E7FA51450F474FE0AC072FC08C0372D08
:105810003E7E05C0BA2C372D03C0BA2C01C0B52C72
:1058200034FF0DC0FE01EA0DF11D8081803311F4BB
:10583000397E09C032FF06C0B394B39404C0832FED
:10584000867809F0B39433FD13C030FF06C05A2C9C
:10585000B31418F4530C5B18B32CB31468F4B701E9
:1058600080E290E03C870E949D2CB3943C85F5CF6C
:10587000B31410F43B1801C0312C34FF12C0B7012F
:1058800080E390E03C870E949D2C3C8532FF17C04E
:1058900031FD03C088E790E002C088E590E0B701E1
:1058A0000CC0832F867859F031FF02C08BE201C013
:1058B00080E237FD8DE2B70190E00E949D2CA51497
:1058C00038F4B70180E390E00E949D2C5A94F7CF02
:1058D000AA94F401EA0DF11D8081B70190E00E94C5
:1058E0009D2CA110F5CF332009F451CEB70180E2F1
:1058F00090E00E949D2C3A94F6CFF7018681978123
:1059000002C08FEF9FEF2C96E2E10C94DB32FC019A
:105910000590615070400110D8F7809590958E0FDA
:105920009F1F0895FC016150704001900110D8F74D
:10593000809590958E0F9F1F08950F931F93CF937F
:10594000DF93FB01238121FD03C08FEF9FEF28C070
:1059500022FF16C0468157812481358142175307A3
:1059600044F4A081B1819D012F5F3F4F318320839B
:105970008C93268137812F5F3F4F3783268310C05A
:10598000EB01092F182F0084F185E02D0995892B53
:10599000E1F68E819F8101969F838E83812F902FC8
:1059A000DF91CF911F910F910895FA01AA27283016
:1059B00051F1203181F1E8946F936E7F6E5F7F4FDC
:1059C0008F4F9F4FAF4FB1E03ED0B4E03CD0670F58
:1059D000781F891F9A1FA11D680F791F8A1F911DAB
:1059E000A11D6A0F711D811D911DA11D20D009F4FB
:1059F00068943F912AE0269F11243019305D31933D
:105A0000DEF6CF010895462F4770405D4193B3E025
:105A10000FD0C9F7F6CF462F4F70405D4A3318F0CC
:105A2000495D31FD4052419302D0A9F7EACFB4E07D
:105A3000A6959795879577956795BA95C9F7009735
:105A40006105710508959B01AC010A2E06945795D6
:105A5000479537952795BA95C9F7620F731F841F2D
:105A6000951FA01D0895EF920F931F93CF93DF937F
:105A7000E80147FD02C034E001C034E1E42F440FE7
:105A8000FF0BF7FF03C0F195E195F109E32E022F1B
:105A90002E2FAE010E94932DCE01DF91CF911F9149
:105AA0000F91EF900895662777270C94212F1F936D
:105AB000FC0199278827BC01E89411911032E9F381
:105AC000193010F01E30C8F31B3251F01D3249F46A
:105AD000689406C00E947E2D610F711D811D911D6D
