:100000000C94C9010C94F1010C94F1010C941F1C87
:100010000C941F1C0C941F1C0C94F1010C94F10106
:100020000C94F1010C94F1010C94F1010C94F10188
:100030000C94F1010C94F1010C94F1010C94F10178
:100040000C94D51B0C94F1010C94471A0C94211AB2
:100050000C94F1010C94F1010C94F1010C94F10158
:100060000C94F1010C94F10153216A216D21972127
:100070009A219D21A021A321A721C621E5210822A3
:100080007A237A230C222922462265228222A52263
:10009000C822EB220A23292340235D239F23C52363
:1000A000EE23172440247124AA24DB240C253D25AB
:1000B0006E259F25D02505264E414E494E4954595F
:1000C000494E46CDCCCC3D0AD7233C17B7D1387723
:1000D000CC2B329595E6241FB14F0A000020410039
:1000E00000C84200401C4620BCBE4CCA1B0E5AAE83
:1000F000C59D7400407A10F35A00A0724E18090092
:1001000010A5D4E80000E87648170000E40B54027C
:100110000000CA9A3B000000E1F5050000809698B7
:1001200000000040420F000000A086010000001007
:100130002700000000E80300000000640000000049
:10014000000A00000000000100000000002C76D82A
:1001500088DC674F0823DFC1DFAE59E1B1B796E510
:10016000E3E453C63AE651997696E8E6C28426EB74
:10017000898C9B62ED407C6FFCEFBC9C9F40F2BA87
:10018000A56FA5F490055A2AF75C936B6CF9676D1F
:10019000C11BFCE0E40D47FEF520E6B500D0ED9074
:1001A0002E0300943577050080841E080000204E41
:1001B0000A000000C80C333333330F986E128311DA
:1001C00041EF8D2114893BE65516CFFEE6DB18D1B1
:1001D000844B381BF77C1D901DA4BBE42420328483
:1001E000725E228100C9F124ECA1E53D275E010188
:1001F0001F0103030100008A02010A01020201003B
:100200000064001E47040B090600007C0101060182
:100210000303010000F401060E010202010000C206
:1002200001170101020201010000000000000101AC
:10023000000000726E723A00626F6E3A00626D6783
:100240003A006270663A0062706E3A00626B643A1D
:1002500000626B693A00626B703A006261743A0046
:100260006269743A006274643A006273743A0062BC
:1002700062633A006268613A00626E723A007370BB
:10028000733A00736F683A00736C733A00736C735F
:100290003A00736E723A007370773A0073626C3A88
:1002A000007373753A007373613A007373623A00B6
:1002B0007373703A007373723A007373743A007315
:1002C00070643A007370743A00736B6D3A00737027
:1002D000693A003A006D61006D6400005EBCE26145
:1002E0003FDD83C29C7E20A3FD1F41009D23BE46AF
:1002F000DB65F88C11AF32CA57E9742000204B003F
:10030000205700204F0020500020440020420030A1
:10031000003100204800204A0020530020510020D6
:100320004700204900204E004100300031003000DD
:10033000310000000000250028002B000000000014
:100340002300260029000404040404040404020217
:100350000202020203030303030301020408102044
:10036000408001020408102001020408102000004F
:100370000000240027002A000000000800020100FD
:100380000003040700000000000000007200E527E1
:10039000D72711241FBECFEFD8E0DEBFCDBF27E0A7
:1003A000A8EBB1E001C01D92A731B207E1F711E05F
:1003B000A0E0B1E0EAEBF9E602C005900D92A83B9F
:1003C000B107D9F711E0C8ECD1E004C02197FE01D4
:1003D0000E940732C73CD107C9F70E944C1E0C94FB
:1003E000D0340C940000FC0186810895FC018781C3
:1003F00017820895FC01168217820895FC018581F9
:100400000895FC0183810895FC0184810895FC0115
:100410008481811105C08381882311F081E0848368
:1004200013820895FC018481811105C083818111AB
:1004300002C081E0848381E0838308952F923F92FC
:100440004F925F926F927F928F929F92AF92BF92E4
:10045000CF92DF92EF92FF920F931F93CF93DF9390
:10046000CDB7DEB763970FB6F894DEBF0FBECDBF32
:100470009B8B8A8B6C0184E4C80ED11CD6014D93F2
:100480005D936D937C931397EA88FB88BCE4EB0E35
:10049000F11CAA89BB891296ED91FC9113971496D1
:1004A0002D913C91159747E2429FC001439F900DCB
:1004B0001124E80FF91FE05CFF4F80819181A28138
:1004C000B381F70180839183A283B3830E94C91B08
:1004D000EA89FB89E05BFF4F008111812281338132
:1004E0004B015C01801A910AA20AB30A8D829E8296
:1004F000AF82B886AA89BB8912960D911C91139779
:10050000F6012081318142815381D7016D917D9126
:100510008D919C910E949F30F801228933894489F2
:1005200055890E94112F87FF2FC1EA89FB89EE5B55
:10053000FF4F8081882309F439C10E94C91B698754
:100540007A878B879C87EA89FB8982A593A5A4A5D6
:10055000B5A549855A856B857C85481B590B6A0B67
:100560007B0B86A997A9A0ADB1AD481759076A07BB
:100570007B0708F41BC124A135A1D9018D909D9062
:10058000AD90BC9089829A82AB82BC8200A4F1A516
:10059000E02DA501940160817181828193810E9487
:1005A0009F304B015C01EA89FB8922A933A944A948
:1005B00055A969817A818B819C810E949F306B0152
:1005C0007C01AA89BB8958962D913D914D915C91F2
:1005D0005B97C501B4010E94772FEA89FB8926A5A4
:1005E00037A540A951A90E94A0302B013C01AA893E
:1005F000BB899E966D937D938D939C93D197FD01BE
:10060000ED5BFF4FB081BD87B11118C0EA89FB894E
:100610002489358946895789C701B6010E94772FF9
:100620009B01AC01C301B2010E949F30AA89BB8922
:100630009E966D937D938D939C93D197EA89FB89C8
:1006400046A457A460A871A8FE963080218002813C
:100650001381232D322DA801C301B2010E94AD31B7
:10066000181624F4832D922DD80118C0AA89BB89AD
:10067000DA968D919D910D90BC91A02D8E879F87CC
:10068000A88BB98B9C01AD01C301B2010E94112F4F
:1006900087FF0AC08E859F85A889B989EA89FB8969
:1006A00086A797A7A0ABB1ABFD85FF2379F0AA89F8
:1006B000BB8954962D913D914D915C915797C50101
:1006C000B4010E94772F4B015C0103C0812C912C57
:1006D0005401EA89FB89248D358D468D578DC701DC
:1006E000B6010E94772F9B01AC01AA89BB899E9617
:1006F0006D917D918D919C91D1970E949F309B012E
:10070000AC01C501B4010E94A0306B017C01232D16
:10071000322DA8010E94AD31181694F0EA89FB89A8
:1007200032AC23AC04AD15AD232D322DA801B6019A
:10073000C7010E94112F87FD03C03C2C2D2C87017F
:10074000AA89BB899696ED91FC919797832D922D5E
:10075000D80180839183A283B38389809A80AB8000
:10076000BC80AA89BB89D2968D929D92AD92BC9293
:10077000D59789849A84AB84BC849A968D929D92F5
:10078000AD92BC929D9712C0EA88FB88B8E4EB0E4C
:10079000F11CF8016685778580E090E00E94162FB5
:1007A000D7016D937D938D939C931397AA89BB89F1
:1007B0001296ED91FC9113976685778580E090E025
:1007C0000E94162F6B017C016D817E818F8198853F
:1007D0000E94162FA70196010E94AD311816DCF475
:1007E0000A891B89005B1F4FF8016081718182813A
:1007F00093810E94162FA70196010E94A0300E94AB
:100800007E31D8016D937D938D939C9313971D82B8
:100810001E821F8218866D817E818F8198850E943D
:10082000162F9B01AC01EA89FB89E85BFF4F6081D1
:100830007181828193810E94AD31EA89FB89968121
:1008400087FD0AC0911102C081E0878381E0AA89F7
:10085000BB8916968C930AC0992321F081E0EA891E
:10086000FB898783AA89BB8916961C92EA89FB8932
:10087000868163960FB6F894DEBF0FBECDBFDF91C1
:10088000CF911F910F91FF90EF90DF90CF90BF908D
:10089000AF909F908F907F906F905F904F903F9020
:1008A0002F9008952F923F924F925F926F927F9276
:1008B0008F929F92AF92BF92CF92DF92EF92FF9270
:1008C0000F931F93CF93DF9300D000D000D0CDB70C
:1008D000DEB79E838D83DC0116961C9216971796C1
:1008E0001C92179712962D903C901397F101C08897
:1008F000D1881C141D040CF042C00D2C000CEE0815
:10090000FF08C701B6010E94182F4B015C01AD81A1
:10091000BE81D6966D917D918D919C91D9970E94C3
:10092000162F9B01AC01C501B4010E940C314B0193
:100930005C019B01AC01ED81FE81608D718D828D2A
:10094000938D0E94772FAD81BE8158966D937D93D4
:100950008D939C935B97A50194015C966D917D911D
:100960008D919C915F970E940C31ED81FE81648F87
:10097000758F868F978FC6AAD7AAE0AEF1AEED81AC
:10098000FE812481358147E2429FC001439F900D43
:100990001124820D931DFC01E85AFF4FC080D180C5
:1009A000E280F380349780809180A280B380349776
:1009B0004080518062807380AD81BE8192960D919E
:1009C0001C91939720E030E0A901C301B2010E947D
:1009D000112F87FD91C020E030E0A901C501B401CD
:1009E0000E94112F87FD88C020E030E0A901C701D7
:1009F000B6010E94112F87FD7FC0ED81FE81ED5B66
:100A0000FF4F81E00130110509F080E08083ED8126
:100A1000FE81408651866286738684869586A68688
:100A2000B786C08AD18AE28AF38A66A977A980AD9F
:100A300091AD0E94162F20E030E04AE754E40E9476
:100A40000C3169837A838B839C83AD81BE815496FC
:100A50004D925D926D927C9257979B01AC01C501BE
:100A6000B4010E94772F4B015C01ED81FE81608F04
:100A7000718F828F938F29813A814B815C81C7016D
:100A8000B6010E940C316B017C01AD81BE815C9688
:100A90006D937D938D939C935F9790968D919C9190
:100AA0009197019749F5A301920160E070E0CB01B5
:100AB0000E949F30ED81FE81648B758B868B978BB6
:100AC000A501940160E070E0CB010E949F30AD81F0
:100AD000BE8158966D937D938D939C935B97A701F0
:100AE000960160E070E0CB010E949F30ED81FE81B5
:100AF000648F758F868F978FD1011E966D917C9133
:100B00001F9780E090E00E94162F6B017C0120E08F
:100B100030E0A9010E94112F0D811E810E5B1F4F35
:100B200018160CF068C0ED81FE8112AE13AE14AE43
:100B300015AE4F01FEE38F0E911CD401CD92DD92D4
:100B4000ED92FC921397F8018081882309F453C039
:100B5000AD81BE819696AD90BC909797F50140808F
:100B6000518062807380A7019601C301B2010E9487
:100B7000AD3118163CF4D501CD92DD92ED92FC9288
:100B800013970EC020E030E0A901C301B2010E941A
:100B9000112F87FF05C0F501108211821282138286
:100BA000AD81BE819E964D905D906D907C90D19769
:100BB000F401C080D180E280F380A7019601C301D7
:100BC000B2010E94AD31181674F0ED81FE81C2AC05
:100BD000D3ACE4ACF5ACA7019601C301B2010E940D
:100BE000112F87FF08C0AD81BE819E96CD92DD9208
:100BF000ED92FC92D197F8018081811140C0AD81C6
:100C0000BE819696ED91FC919797C080D180E2804D
:100C1000F380FD01C6A6D7A6E0AAF1AA9496ED91AD
:100C2000FC91959780819181A281B381ED81FE81B4
:100C300082AB93ABA4ABB5ABFE9680809180A280D3
:100C4000B380A5019401C701B6010E94AD31181609
:100C500074F0ED81FE8182AC93ACA4ACB5ACA5017F
:100C60009401C701B6010E94112F87FF08C0AD8112
:100C7000BE819E968D929D92AD92BC92D19781E05D
:100C8000F80180830E94C91BED81FE81E05BFF4F6C
:100C9000608371838283938326960FB6F894DEBFB8
:100CA0000FBECDBFDF91CF911F910F91FF90EF90BD
:100CB000DF90CF90BF90AF909F908F907F906F907C
:100CC0005F904F903F902F900895CF93DF93EC016A
:100CD0006C96CE010E94A919892B29F0CE01DF91D3
:100CE000CF910C94C11980E090E0DF91CF910895ED
:100CF000CF93DF93EC016C96CE010E940C1A66E94B
:100D000071E0CE01DF91CF910C940C1A4C960C94AB
:100D10000C1ACF93DF93EC016C96CE010E94E81978
:100D200066E971E0CE01DF91CF910C940C1A4C96DC
:100D30000C94E819CF93DF93EC0160E08A810E9464
:100D4000D21ACE018D5B9F4FDF91CF910C9434105E
:100D50008F929F92AF92BF92EF92FF920F931F9349
:100D6000CF93DF93CDB7DEB761970FB6F894DEBFB0
:100D70000FBECDBF7C018C010D5B1F4FF801A08021
:100D8000B18040E0BE01665F7F4FC5010E94900EBA
:100D9000811107C0812C912CFEEFAF2EF2ECBF2EFB
:100DA0004DC0AE014F5F5F4FBE01665F7F4FC50113
:100DB0000E94C60F882359F16981F8E06F9FB00146
:100DC00011248A81282F30E0322F2227330F330F4E
:100DD000330F262B372B8A858031E1F4688570E04C
:100DE0008F81AB01481B5109CA019695982F88271E
:100DF000979587950E94B23160517109207F53E029
:100E0000220F331F5A95E1F7620F731F04C060E889
:100E100074EE01C0B901613854EE75070CF4BACF15
:100E2000072E000C880B990B0E94182F20E030E051
:100E300040E05CE30E94772F4B015C01F801808168
:100E400091810E94DD1C20E030E04CEF52ECC501A6
:100E5000B4010E94112F87FF03C0C8010E94341003
:100E6000F70103811481F80126813781408551857E
:100E7000C501B4010E94772FF8012285338544858E
:100E800055850E94A03061960FB6F894DEBF0FBE64
:100E9000CDBFDF91CF911F910F91FF90EF90BF9049
:100EA000AF909F908F900895CF93DF93EC0161E016
:100EB0008A810E94A21AED81FE81808D918D0E940F
:100EC000841B60E08A810E94A21AED81FE81808DE0
:100ED000918D9C01220F331F820F931FDF91CF91C1
:100EE0000C94841B3F924F925F926F927F928F92ED
:100EF0009F92AF92BF92CF92DF92EF92FF920F93A9
:100F00001F93CF93DF93EC014A015B01E12CF12C9D
:100F1000690181E0C81AD108412C512C3201439457
:100F200065E2362EED81FE81878990E0E816F906AC
:100F30000CF056C0860117FD32C0D301C201002E4D
:100F400004C0880F991FAA1FBB1F0A94D2F78821DB
:100F50009921AA21BB21892B8A2B8B2B21F0CE0131
:100F60000E94540719C061E08A810E94A21AED8193
:100F7000FE81808D918D9C01220F331F820F931F64
:100F80000E94841B60E08A810E94A21AED81FE818A
:100F9000808D918D0E94841B01501109CCCFCE0110
:100FA0000E94540761E08A810E94A21AED81FE81AD
:100FB000808D918D0E94841B60E08A810E94A21A1C
:100FC000ED81FE81808D918D9C01329EC001339E0A
:100FD000900D11240E94841B3FEFE31AF30AA2CF65
:100FE000DF91CF911F910F91FF90EF90DF90CF9005
:100FF000BF90AF909F908F907F906F905F904F9039
:101000003F900895CF92DF92EF92FF920F931F933C
:10101000CF93DF931F92CDB7DEB78C01E62EDC01B4
:101020001F968C91882321F060E0FF24F39402C086
:1010300061E0F12CD8011596ED91FC911697C08CCA
:10104000D18CC114D10419F4F801C780D084D8011F
:1010500012968C9179830E94A21AEC9CC001ED9C9F
:10106000900D11240E94841B6F2DF80182810E9433
:10107000A21A79817C9DC0017D9D900D11240F9055
:10108000DF91CF911F910F91FF90EF90DF90CF9064
:101090000C94841B4F925F926F927F928F929F92DB
:1010A000AF92BF92CF92DF92EF92FF920F931F9376
:1010B000CF93DF93EC014A015B01E12CF12C690134
:1010C00081E0C81AD108412C512C32014394ED81A2
:1010D000FE81878990E0E816F906A4F588898823BF
:1010E00029F069857A85CE010E940208860117FDE4
:1010F0001DC0D301C201002E04C0880F991FAA1F72
:10110000BB1F0A94D2F788219921AA21BB21892BE0
:101110008A2B8B2B19F06D857E8502C06B857C85B3
:10112000CE010E94020801501109E1CF8889811186
:1011300005C069857A85CE010E9402088FEFE81A02
:10114000F80AC5CFDF91CF911F910F91FF90EF90DB
:10115000DF90CF90BF90AF909F908F907F906F90D7
:101160005F904F900895CF93DF93EC01662371F168
:1011700061E08A810E94A21AED81FE81808D918DAD
:101180000E94841B60E08A810E94A21AED81FE8188
:10119000808D918D25E0AC01249FC001259F900D8D
:1011A00011240E94841B61E08A810E94A21AED81B1
:1011B000FE81808D918D0E94841B60E08A810E9457
:1011C000A21AED81FE81808D918D2DC061E08A8112
:1011D0000E94A21AED81FE81808D918D0E94841B58
:1011E00060E08A810E94A21AED81FE81808D918D3E
:1011F0000E94841B61E08A810E94A21AED81FE8117
:10120000808D918D0E94841B60E08A810E94A21AC9
:10121000ED81FE81808D918D25E0AC01249FC00180
:10122000259F900D1124DF91CF910C94841B4F9238
:101230005F926F927F92AF92BF92CF92DF92EF92C6
:10124000FF920F931F93CF93DF93EC01E62EED8176
:10125000FE81F7889AE0B92ECC24C394D12C38E2D1
:10126000A32EF7FC7FC0ED81FE81438C548C658CEE
:10127000768C61E08A810E94A21AED81FE81808DC8
:10128000918D0E94841B60E08A810E94A21AED81E8
:10129000FE81208D318DA90156954795B29EC001E2
:1012A000B39E900D1124840F951F0E94841B09E1A9
:1012B00010E0D301C201002E04C0B695A795979502
:1012C00087950A94D2F7682F6170CE010E94B30807
:1012D0000150110970F760E0CE010E94B3086E2D35
:1012E000CE010E94B30803E010E0C601002E02C048
:1012F000880F991F0A94E2F7092E000CAA0BBB0B6A
:10130000ED81FE81478D50A161A172A184239523B7
:10131000A623B72361E0892B8A2B8B2B09F460E08D
:10132000CE010E94B30801501109F8F661E08A81EC
:101330000E94A21AED81FE81808D918D0E94841BF6
:1013400060E08A810E94A21AED81FE81808D918DDC
:101350009C01A29EC001A39E900D11240E94841B9B
:10136000FA947FCFDF91CF911F910F91FF90EF9073
:10137000DF90CF90BF90AF907F906F905F904F9035
:101380000895CF93DF93EC010E940702ED81FE8167
:101390008689811106C060E0CE01DF91CF910C9467
:1013A0001709813091F0228D478D50A161A172A162
:1013B00030E0823029F4CE01DF91CF910C94720796
:1013C000CE01DF91CF910C944A08DF91CF9108951F
:1013D000CF93DF93EC010E941202ED81FE8186899A
:1013E000811106C061E0CE01DF91CF910C94170905
:1013F000813091F0228D438D548D658D768D30E056
:10140000823029F4CE01DF91CF910C947207CE0186
:10141000DF91CF910C944A08DF91CF910895CF923C
:10142000DF92EF92FF920F931F93CF93DF931F9260
:10143000CDB7DEB779018A01060F171F6B01C01601
:10144000D106B9F0C11484E0D80698F4F999FECF1A
:10145000F70161917F01C60169830E94383069817B
:10146000681719F0C6010E944030FFEFCF1ADF0A5B
:10147000E6CF0F90DF91CF911F910F91FF90EF90EA
:10148000DF90CF900895EF92FF920F931F93CF9329
:10149000DF9389017901E40EF51EEB010E151F059E
:1014A00071F0C115F4E0DF0750F4F999FECFCE01D9
:1014B0000E943830F80181938F012196EFCFDF91A0
:1014C000CF911F910F91FF90EF900895CF93DF93ED
:1014D000EC01E881F9810284F385E02D0995181665
:1014E000190654F58D30910561F024F48A30910588
:1014F00091F422C084319105F9F08F3F910559F4A0
:101500001BC08E899F891F8A1E8A18161906A4F48B
:10151000CE01029613C02E893F892331310560F434
:10152000A9014F5F5F4F5F8B4E8BFE01E20FF31FF0
:101530008283C40FD51F1A8280E090E0DF91CF91A3
:101540000895CF93FC01C08161E08C2F0E94D21AD4
:1015500060E08C2FCF910C94A21A0F931F93CF931E
:10156000DF93FC012289222311F080E01FC0EC01EF
:101570000E94C91B088119812A813B81DC01CB01B2
:10158000801B910BA20BB30B88879987AA87BB8717
:101590000C811D812E813F8180179107A207B3071F
:1015A00020F3088719872A873B8781E0DF91CF9155
:1015B0001F910F910895CF93DF93FC012089211192
:1015C00009C0EC010E94C91B688379838A839B83CD
:1015D00081E0888BDF91CF910895FC011082118208
:1015E000128213821486158616861786108A118A2F
:1015F000128A0895CF93DF93EC011BAA1CAA1DAA9F
:101600008A859B85DC01ED91FC910280F381E02DC0
:10161000099518AE1FAACE010C960E94ED0A888586
:101620009985DC01ED91FC910190F081E02D099507
:1016300069AF7AAF8BAF9CAFE885F9851682DF0181
:101640001796ED5BFF4F6D937D938D939D93AE1732
:10165000BF07C9F782E08AABFE01EB5BFF4F108248
:10166000CA5BDF4F1882DF91CF9108950F931F93CC
:10167000CF93DF93EC018B010E94FA0A18AF0FABF6
:101680008C819D81DC0115961C930E931497ED912E
:10169000FC910280F381E02D09952FA938AD8E8150
:1016A0009F81FC01358324830190F081E02D02802D
:1016B000F381E02D0995FE01EF5BFF4F89AD9AADF7
:1016C000ABADBCAD80839183A283B383DF91CF9117
:1016D0001F910F9108952F923F924F925F926F92B8
:1016E0007F928F929F92AF92BF92CF92DF92EF92B2
:1016F000FF920F931F93CF93DF9300D000D0CDB70D
:10170000DEB79C838B834A015B0168017901DC01B0
:1017100016968C91169714962D903C9015971296CC
:10172000ED91FC911397FA83E9838823C9F187E24D
:10173000829D8001839D100D11240E0F1F1FF80143
:10174000E05CFF4FD801A45BBF4F2D913D914D91BF
:101750005C9160817181828193810E94A0302B0114
:101760003C01F801E05BFF4F2081318142815381D0
:10177000C701B6010E94772F9B01AC01C301B201E2
:101780000E949F309B01AC0111E0C501B4010E9491
:10179000AD3118160CF010E081E0912E982637C07C
:1017A00087E2829D8001839D100D112429813A8159
:1017B000020F131FF801E05CFF4FD801A85BBF4F79
:1017C0002D913D914D915C916081718182819381D8
:1017D0000E94A0302B013C01F801E05BFF4F20810B
:1017E000318142815381C701B6010E94772F9B014D
:1017F000AC01C301B2010E949F309B01AC01C50145
:10180000B4010E94112F982E991C9924991C27E24B
:10181000229DC001239D900D1124A981BA818A0FB8
:101820009B1FFC01E45AFF4F2081318121153105B6
:1018300011F1329680819181892BE9F00B811C8115
:10184000085F1F4F992009F4B2C0EB81FC81818DA4
:10185000882309F45BC084899589A689B789848720
:101860009587A687B787C8010E94DB0AC8010E9436
:10187000AD0A811159C0EB81FC81A480B580028141
:10188000138187E28A9DF0018B9DF00D1124E00FFA
:10189000F11FE05AFF4F408051806280738020E04A
:1018A00030E0A901C301B2010E94AD31181644F421
:1018B000A7019601C301B2010E94112F87FD912C4F
:1018C00027E22A9DC0012B9D900D1124080F191F9E
:1018D000D801A45BBF4FF801E85BFF4F2081318145
:1018E000428153816D917D918D919C910E94112F28
:1018F00087FD67C0AB81BC8116968C9116978915C0
:1019000009F462C081E017968C935EC048EE53E004
:10191000249FC001259F900D349F900D1124A0E0BD
:10192000B0E0EB81FC819BCFAB81BC811296ED9145
:10193000FC91139714962D913C91159747E2429F85
:10194000C001439F900D1124E80FF91FE25AFF4F89
:10195000208131815D01BBE1AB0EB11CEB81FC81CB
:1019600084A5882349F087A190A5A1A5B2A5878F5A
:1019700090A3A1A3B2A313C088EE93E0289FA00177
:10198000299F500D389F500D112460E070E0AB810D
:10199000BC815F964D935D936D937C939297C50147
:1019A0000E94DB0AC5010E94AD0A882341F0C801EC
:1019B0000E94ED0A8B819C814B960E94ED0A912C2E
:1019C0005ACF81E0982696CFEB81FC819682892DB3
:1019D0000F900F900F900F90DF91CF911F910F916B
:1019E000FF90EF90DF90CF90BF90AF909F908F903F
:1019F0007F906F905F904F903F902F900895CF937E
:101A0000DF93EC011E821F8208960E94ED0ACE0130
:101A10004B96DF91CF910C94ED0ACF93DF93FC01AD
:101A200086A997A9EC01A881B9819F01225D3F4F4A
:101A30001296ED91FC91139748E050E06EE972E048
:101A4000DF91CF9109940F931F93CF93DF93EC0114
:101A5000288D398D4A8D5B8D1FAA1EAA1DAA1CAA2E
:101A60001BAA1AAA60E079E08DE390E00E94E831B9
:101A7000F9012430310518F0C901039702C081E053
:101A800090E099AF88AF68A5663108F069C0C901D8
:101A9000969587958431910510F0439702C081E0B7
:101AA00090E09BAB8AAB369718F0C901059702C04E
:101AB00081E090E09DAB8CABC901880F991F280F86
:101AC000391F36952795369527952D30310518F015
:101AD0002C50310902C021E030E03FAB2EAB909199
:101AE0006800683050F021E06E3008F420E081E0BA
:101AF00001C0880F2A95EAF701C084E0892B809302
:101B0000680098A5983038F09E3040F0963148F043
:101B100020E030E008C02DE630E005C02BE630E0E4
:101B200002C02CE630E038AB2FA7983030F481E0CB
:101B300001C0880F9A95EAF70EC0292F30E09E3039
:101B400018F42850310902C02E50310981E001C03B
:101B5000880F2A95EAF789AB88AD99AD0197F1F71F
:101B60008EA99FA9892BF9F08E01045E1F4F8091E9
:101B7000CA069091CB0680179107A9F0009711F043
:101B80000E94991C8AAD8E7F8AAF1092C80610926F
:101B9000C9061093CB060093CA06EFA5F8A9908159
:101BA00089A9892B808368EE73E080E090E00E9431
:101BB0008F1BEBADFCAD86A58823E1F18E010E5F96
:101BC0001F4F80A58F9387A18F9388E891E09F9303
:101BD0008F931F930F930E942F32E881F981048025
:101BE000F581E02DB801CE0109956CED75E080E03E
:101BF00090E00E948F1BE881F9810480F581E02D3F
:101C000069E971E0CE0109956CED75E080E090E046
:101C10000E948F1B8BAD9CADFC0116A60F900F9000
:101C20000F900F900F900F90DF91CF911F910F9118
:101C30000C940D0DDF91CF911F910F9108950F938B
:101C40001F93CF93DF938C01DC01D6968D919C91ED
:101C5000D797DC01ED91FC910280F381E02D980192
:101C60004EE250E060E070E00995CEE2D0E0F8018D
:101C700086A997A9DC01ED91FC919E01215F3F4F60
:101C8000200F311F0280F381E02D47E250E0BE01BA
:101C90000995A796CE39B2E0DB0749F7DF91CF91DE
:101CA0001F910F910895CF93DF93EC018EE2DE0137
:101CB0001D928A95E9F7FE01FD96CE0183559D4F51
:101CC00027E2DF01322F1D923A95E9F7B796E81720
:101CD000F907B9F7FE01BE9688E0DF011D928A95EB
:101CE000E9F7CE010E941F0ECE01DF91CF910C9437
:101CF0000D0DDC0180E0615090F09D919827E92F57
:101D0000EF70F0E0E552FD4F249192959F70E92F1E
:101D1000F0E0E551FD4FE4918E2F8227ECCF08953E
:101D2000DF92EF92FF920F931F93CF93DF937C018B
:101D30008B01D42EDC011696ED91FC91179713863A
:101D400015861486DF011B9633961E92AE17BF07C9
:101D5000E1F7C0E0B801D70116968D919C911797D5
:101D60000E944814D82F811102C0D0E00EC0CD11BE
:101D700008C067E0C8010E94790EF80197818917B1
:101D800021F0CF5FDC1688F3E5CF8D2FDF91CF9167
:101D90001F910F91FF90EF90DF900895FC019081CB
:101DA0000180F281E02DF8948181892B8183228149
:101DB000892F809528232283A7E0B0E01197F1F7BF
:101DC000218182238183A3E2B0E01197F1F7808122
:101DD0007894EFECF0E03197F1F7982381E009F483
:101DE00080E00895FC0190810180F281E02D892F2F
:101DF000809560FF12C0F8942281822382838181C2
:101E0000892B8183A3E2B0E01197F1F78281982BAF
:101E10009283789487ED90E011C0F8942281822318
:101E200082838181892B8183AFEFB0E01197F1F735
:101E30008281982B928378948FE090E00197F1F75C
:101E40000895CF92DF92EF92FF920F931F93CF935B
:101E5000DF931F92CDB7DEB76C01E62E08E010E0ED
:101E6000FF24F39461E08F2D8E2109F460E0C60118
:101E700049830E94F20EFF0C01501109498101159E
:101E8000110581F7411115C0F894D6011196ED9115
:101E9000FC91129791818C91809589238183119671
:101EA000ED91FC91129792818C9180958923828388
:101EB00078940F90DF91CF911F910F91FF90EF9049
:101EC000DF90CF900895CF92DF92EF92FF920F9321
:101ED0001F93CF93DF931F92CDB7DEB78C01F62E01
:101EE00040E065E579830E94210FCF2C7981D72EC0
:101EF000760188E0E80EF11CF60161916F0140E087
:101F0000C8010E94210FCE14DF04B1F70F90DF91BA
:101F1000CF911F910F91FF90EF90DF90CF90089598
:101F2000FC0190810180F281E02DF8948181292FBC
:101F300020958223818378948DE743E050E081509F
:101F400021F1DA011197F1F730813923C1F3F894C7
:101F50008281822382838181892B81837894ABE77C
:101F6000B7E01197F1F7F894818128232183A3E149
:101F7000B1E01197F1F78081982381E009F080E0CA
:101F80007894E3E6F6E03197F1F708954F925F9287
:101F90006F927F928F929F92AF92BF92CF92DF9279
:101FA000EF92FF920F931F93CF93DF9300D0CDB7A3
:101FB000DEB72C018A01FC018681978169837A83CF
:101FC0000E94900F69817A818823C9F1F20186818C
:101FD00097810E94630F40E06EEBF201868197814A
:101FE0000E94210F78014801F9E08F0E911CF20147
:101FF0006680778088E0A82EB12CCC24C394D12CA5
:10200000C3010E94CE0E8111DC28CC0CF1E0AF1A86
:10201000B108B1F7F701D1927F01E815F90539F759
:10202000F201868197810E94900F813041F468E02F
:10203000C8010E94790E91E0F8012085821390E09A
:10204000892F0F900F90DF91CF911F910F91FF90EB
:10205000EF90DF90CF90BF90AF909F908F907F9048
:102060006F905F904F9008957F928F929F92AF9262
:10207000BF92CF92DF92EF92FF920F931F93CF9375
:10208000DF93CDB7DEB761970FB6F894DEBF0FBE12
:10209000CDBF6C01DC010D911C91D8011696ED911C
:1020A000FC911797138615861486DF011B963396CD
:1020B0001E92AE17BF07E1F7F80114821582EE24D5
:1020C000E394BE016F5F7F4FF801868197810E9484
:1020D0004814882309F46CC067E0CE0101960E9481
:1020E000790E98858913EDCFD8018C91811127C085
:1020F00016968D919C9117970E94900FBE016F5F6D
:102100007F4FF801868197810E94630F40E064EB66
:10211000D80116968D919C9117970E94210FF80176
:10212000868197810E94CE0EF82ED80116968D9149
:102130009C9117970E94900FFF2009F41BC1F80192
:10214000F1808981803109F418C1BE016F5F7F4F32
:10215000C8010E94AF1C8F1520F4D80111968C91F4
:102160000BC08981803111F48CE006C0BE016F5F25
:102170007F4FC8010E94AF1CF801818384818F5F6B
:1021800084838981883261F030F4803149F0823271
:1021900009F097CF05C08B3319F0823409F091CF45
:1021A000D80115968C9115978F5F15968C9389CFD2
:1021B000D6010D911C918BE0F8018183A12CB12CEB
:1021C0002FE5E22E3FE7932E4FE1842E5FE3752E3D
:1021D000F801848190E0A816B9060CF0B0C04A2D31
:1021E000BE01665F7F4FC8010E94900ED801119614
:1021F0008C91893038F0F82EBCE0B81728F49CE0B8
:10220000F92E02C089E0F82E8A85803139F0BE01AE
:10221000665F7F4FC8010E94AF1C01C08CE08F1524
:1022200009F489C0AE014F5F5F4FBE01665F7F4F0B
:10223000C8010E94C60F882309F47DC08A858031B9
:1022400009F479C0EBE0FE1651F0FCE0FF1629F02E
:102250008AE0F81206C07D8205C09D8203C0ED822F
:1022600001C08D82D80116968D919C9117970E947E
:10227000900FBE01665F7F4FF801868197810E94B3
:10228000630F40E06EE4D80116968D919C911797EC
:102290000E94210F40E06B81F801868197810E94A6
:1022A000210F40E06C81D80116968D919C91179773
:1022B0000E94210F8A85803139F040E06D81F8015C
:1022C000868197810E94210FD80116968D919C914D
:1022D00017970E94900FBE01665F7F4FF8018681BD
:1022E00097810E94630FD8014C9168E416968D91F6
:1022F0009C9117970E94210F64E170E080E090E0CC
:102300000E948F1BF8018081882331F06AE070E021
:1023100080E090E00E948F1BD80116968D919C91D1
:1023200017970E94900FF8018181F81608F4F82E93
:10233000D8011196FC92BFEFAB1ABB0A49CFD60168
:102340008D919C91FC0112820E94DD1C61960FB65A
:10235000F894DEBF0FBECDBFDF91CF911F910F91DB
:10236000FF90EF90DF90CF90BF90AF909F908F90B5
:102370007F900895D801EC92E2CEBCE0BF1508F43E
:10238000ECCEF2CE4F925F926F927F928F929F929D
:10239000AF92BF92CF92DF92EF92FF920F931F9373
:1023A000CF93DF93DC015E962C9121112EC2F62E85
:1023B000EC018C01015E1F4FC8010E94DB0AC801BD
:1023C0000E94AD0A882309F47DC0C8010E94ED0A6D
:1023D00088859985DC01ED91FC910190F081E02DDB
:1023E00009954B015C0169AF7AAF8BAF9CAF20E0E0
:1023F00030E040EF52EC0E94112FFE01EB5BFF4FEB
:102400006F0187FF03C084E0808301C01082E885EC
:10241000F9858681DF0124E0829FA00DB11D112482
:1024200017968D929D92AD92BC921A978F5F8F30C6
:1024300010F4868301C016828E010A5B1F4FD801FB
:102440008C9181110AC049AD5AAD6BAD7CADFE01D6
:10245000FD964083518362837383FF2051F0E885AA
:10246000F9859681911105C0E881F98195A59111B1
:1024700072C18E819F81DC01ED91FC910680F78114
:10248000E02D0995811102C0F8011082E881F981DF
:1024900095A5D8018C91981790F41C92FE01FD9699
:1024A000208131814281538169AD7AAD8BAD9CAD84
:1024B0000E94112F18161CF083E0F60180838AA970
:1024C0008F5F8AAB8E819F81DC01ED91FC9104804E
:1024D000F581E02D0995811142C18C819D81DC013E
:1024E000ED91FC910480F581E02D0995811137C1B2
:1024F0008AA9823008F49DC01AAA0A811B81F801BA
:1025000080810E946D1BBC01990F880B990B0E9462
:10251000182F2FEC32ED47EA5CE30E94772FD801A9
:102520001196ED91FC91129723A134A145A156A1DA
:102530000E94112F881F8827881F8EAB882329F0BF
:1025400081E0FE01EB5BFF4F8083FF2009F455C063
:10255000FE01EF5BFF4F4080518062807380EE810F
:10256000FF81848195810280F381E02DE4A427E23C
:10257000289F8001299F100D11240E0F1F1F680135
:10258000B0E4CB0ED11C6E2D70E080E090E00E9494
:10259000182FF60120813181428153810E94A030A1
:1025A0004B015C019B01AC0169AD7AAD8BAD9CAD7B
:1025B0000E94AD3118160CF5EE20F9F0A50194013A
:1025C000C301B2010E94AD311816BCF0D801A45B62
:1025D000BF4FF801E85BFF4F208131814281538179
:1025E0006D917D918D919C910E94112F87FD05C069
:1025F00082E0FE01EB5BFF4F80832DA98A859B85DE
:10260000222381F0FF2071F0FE01EB5BFF4F208160
:10261000211108C0DC01ED91FC910190F081E02DC9
:1026200009950AC0DC01ED91FC910280F381E02D57
:102630000995FF2009F4E9C0C9ACDAACEBACFCACFD
:10264000E881F9818481882371F08C819D81DC018E
:10265000ED91FC910190F081E02D00E010E09801F7
:10266000B701A60136C08E809F80D401ED91FC9108
:10267000A080B18048855985FA012681E22FF0E0DB
:10268000211107C0DA01DF966D917D918D919C91AA
:102690000EC0DF011197AA0FBB1FAA0FBB1FA40F0B
:1026A000B51F17966D917D918D919C911A97EE0FA4
:1026B000FF1FEE0FFF1FE40FF51F278130854185B7
:1026C00052850E949F308B019C01B701A601C40175
:1026D000F50109958DAB8CA9811139C0EE81FF817F
:1026E000448155812281338117E2149FC001159FD7
:1026F000900D1124820F931FDC01A45BBF4FFC01DE
:10270000E85BFF4F20813181428153816D917D9142
:102710008D919C910E94112FE881F9812FA938ADEC
:1027200087FF20C0129FC001139F900D1124E80F56
:10273000F91FE05CFF4F2081318142815381C70145
:10274000B6010E94112F181614F081E08CAB8CA9F1
:1027500081111CC05AC08F5FD8018C938ACE82E051
:102760008AABC6CE129FC001139F900D1124E80FB3
:10277000F91FE05CFF4F2081318142815381C70105
:10278000B6010E94AD3187FFE0CFE1CFE881F9814A
:102790002FA938AD47E2429FC001439F900D1124FD
:1027A000E80FF91FEC5BFF4F20813181428153819B
:1027B000A0E6BAEE0E944E308E01045F1F4F2D8DB1
:1027C000222349F0888D998DAA8DBB8D888B998B9A
:1027D000AA8BBB8B04C0688B798B8A8B9B8BC801BF
:1027E0000E94DB0AC801DF91CF911F910F91FF90EA
:1027F000EF90DF90CF90BF90AF909F908F907F90A1
:102800006F905F904F900C94AD0A80E0DF91CF9174
:102810001F910F91FF90EF90DF90CF90BF90AF90FE
:102820009F908F907F906F905F904F9008950F933F
:102830001F93CF93DF93EC018E8D882391F01E8E32
:102840000E94C91B0C891D892E893F89DC01CB019F
:10285000801B910BA20BB30B8C879D87AE87BF8724
:1028600012C081E08E8F0E94C91B0C851D852E85AC
:102870003F85DC01CB01801B910BA20BB30B8C8B32
:102880009D8BAE8BBF8BDF91CF911F910F910895E0
:10289000AF92BF92CF92DF92EF92FF920F931F936E
:1028A000CF93DF931F92CDB7DEB75C01D62EE72E14
:1028B000FC018585811105C0C5010E94900F811121
:1028C00006C0F50113861586148680E065C040E0D9
:1028D00060EFC5010E94210F01E0F12CC12C11E035
:1028E000C5010E94CE0E682FC50169830E94CE0EDD
:1028F0006981613019F48130B9F433C04F2D50E053
:1029000068131BC0F5018385181730F4E40FF51F19
:102910008381802349F402C0181731F060E0193038
:1029200058F4F501148708C0F501EF0DF11D8381FE
:10293000802B838361E009C0C12EF501E40FF51FF0
:102940009381802F809589238383C5010E94F20E95
:102950001F5F000F11F4F39401E0F7E0FF1508F09A
:10296000BFCF113408F4ADCFF501C386C11002C04A
:1029700081E08587F5018381882309F4A2CFD50101
:102980001396ED2DFE2D9501255F3F4F8D9181937F
:10299000A217B307D9F781E00F90DF91CF911F9174
:1029A0000F91FF90EF90DF90CF90BF90AF90089580
:1029B000CF93DF93C5E5D2E01FA218A61EA21F8EFB
:1029C00018A219A21AA21BA21DA21CA28E819F816D
:1029D0000E94A10A8C819D81DF91CF910C94FA0A0B
:1029E000CF93DF93EB0120917B02211123C021E0E3
:1029F00020937B02A0915502B0915602ED91FC917B
:102A000011970680F781E02DBC01CD010995288141
:102A10008091550290915602DC01ED91FC91008469
:102A2000F185E02D222319F060E373E002C06EE22D
:102A300073E009958091550290915602DC01ED9169
:102A4000FC910284F385E02D09959C01C0970297C3
:102A5000F8F410927B028091550290915602203337
:102A6000310551F41882DC01ED91FC910084F1856F
:102A7000E02D6AE273E00AC021E02883DC01ED91D9
:102A8000FC910084F185E02D6CE273E009950FC0A4
:102A90002737310561F02837310519F40E94D81421
:102AA00006C02136310529F410927B0202C081E074
:102AB00001C080E0DF91CF9108950F931F93CF93D2
:102AC000DF93C82FD62F8091550290915602DC01DA
:102AD000ED91FC910680F781E02D68E273E00995A5
:102AE0000E94C91B009193021091940220919502BB
:102AF00030919602601B710B820B930B0E94162F74
:102B00000FE712E020E041E00E94C42A80915502C4
:102B100090915602DC01ED91FC910280F381E02D51
:102B2000B80109958091550290915602DC01ED9112
:102B3000FC910680F781E02D65E273E009956091D4
:102B4000790270917A02072E000C880B990B0E9473
:102B5000182F20E041E00E94C42A809155029091F4
:102B60005602DC01ED91FC910280F381E02DB80169
:102B700009958091550290915602DC01ED91FC91EE
:102B80000680F781E02D62E273E00995A0915D0275
:102B9000B0915E02DD2349F0ED91FC911197019017
:102BA000F081E02DCD01099518C016968C911697ED
:102BB000811106C0DF966D917D918D919C910BC026
:102BC00094E0899FA00DB11D112413966D917D9104
:102BD0008D919C9116970FE712E022E041E00E9450
:102BE000C42A8091550290915602DC01ED91FC912E
:102BF0000280F381E02D6FE772E009958091550224
:102C000090915602DC01ED91FC910680F781E02D58
:102C10006FE173E00995E0915D02F0915E028681BB
:102C2000282F30E0811107C0DF01DF966D917D9183
:102C30008D919C910EC0D9011197AA0FBB1FAA0FAD
:102C4000BB1FAE0FBF1F17966D917D918D919C910B
:102C50001A97220F331F220F331FE20FF31F278112
:102C60003085418552850E949F300FE712E022E0B7
:102C700042E00E94C42A8091550290915602DC01E4
:102C8000ED91FC910280F381E02DB8010995E0916E
:102C90005902F0915A02EB5BFF4F8081882399F132
:102CA0008091550290915602DC01ED91FC910680D5
:102CB000F781E02D6CE173E00995E0915902F09104
:102CC0005A02EB5BFF4F608170E080E090E00E9471
:102CD000162F20E041E00E94C42A80915502909175
:102CE0005602DC01ED91FC910280F381E02DB801E8
:102CF0000995E0915B02F0915C0264EB70E08081E9
:102D00000E940E1B06C080915B0290915C020E94A3
:102D1000A10A8091550290915602DC01ED91FC913F
:102D20000680F781E02D69E173E00995E091570293
:102D3000F09158022091790230917A0247E2429F45
:102D4000C001439F900D1124E80FF91FE05CFF4F75
:102D500060817181828193810FE712E022E041E07E
:102D60000E94C42A8091550290915602DC01ED9197
:102D7000FC910280F381E02DB80109958091550204
:102D800090915602DC01ED91FC910680F781E02DD7
:102D900066E173E0099560E070E0CB010E94182FB6
:102DA00020E041E00E94C42A809155029091560291
:102DB000DC01ED91FC910280F381E02DB8010995D1
:102DC0008091550290915602DC01ED91FC910680B4
:102DD000F781E02D63E173E00995E0915902F091EC
:102DE0005A0282859385DC01ED91FC910680F78182
:102DF000E02D0995A0915502B0915602ED91FC91FC
:102E000011970680F781E02D882319F061E173E0C6
:102E100002C06FE073E0CD01099580915502909159
:102E20005602DC01ED91FC910680F781E02D6CE00B
:102E300073E00995E0915902F0915A020280F38102
:102E4000E02D80810E946D1BBC01990F880B990BAE
:102E50000E94182F2FEC32ED47EA5CE30E94772F97
:102E60000FE712E022E041E00E94C42A809155025F
:102E700090915602DC01ED91FC910280F381E02DEE
:102E8000B8010995E0915902F0915A0284A988236A
:102E9000D9F18091550290915602DC01ED91FC919F
:102EA0000680F781E02D69E073E00995E091590211
:102EB000F0915A0280899189A289B3890489158980
:102EC00026893789BC01CD01601B710B820B930BE6
:102ED00028EE33E040E050E00E94C631CA01B9015B
:102EE0000E94162F0FE712E020E041E00E94C42A62
:102EF0008091550290915602DC01ED91FC91028087
:102F0000F381E02DB8010995E0915702F091580244
:102F10008481882361F18091550290915602DC01F1
:102F2000ED91FC910680F781E02D63E073E0099557
:102F3000E0915902F0915A020480F581E02DE85B9E
:102F4000FF4F60817181828193810FE712E022E05F
:102F500041E00E94C42A8091550290915602DC0102
:102F6000ED91FC910280F381E02DB8010995CC230D
:102F7000F1F08091550290915602DC01ED91FC91A7
:102F80000680F781E02D60E073E0099580917E0274
:102F9000882369F08091550290915602DC01ED91F1
:102FA000FC910680F781E02D6DEF72E0099580912C
:102FB000550290915602DC01ED91FC910084F1855F
:102FC000E02D6BEF72E0DF91CF911F910F9109948B
:102FD000CF92DF92EF92FF920F931F93CF93DF93E5
:102FE0006C017A018B01C0E0D0E0CE15DF0589F0DD
:102FF000D8016D918D01D601ED91FC910190F08188
:10300000E02DC6010995892B11F47E0102C021969D
:10301000ECCFC701DF91CF911F910F91FF90EF90FF
:10302000DF90CF900895FC01538D448D252F30E023
:10303000842F90E0821B930B541710F0CF960895C5
:1030400001970895FC01918D828D981761F0828D12
:10305000DF01A80FB11D5D968C91928D9F5F9F73CC
:10306000928F90E008958FEF9FEF0895FC01918D6E
:10307000828D981731F0828DE80FF11D858D90E0DB
:1030800008958FEF9FEF0895FC01918D228D892F78
:1030900090E0805C9F4F821B91098F739927089560
:1030A00088EB91E00E94441821E0892B09F420E08C
:1030B000822F0895FC01848DDF01A80FB11DA35A52
:1030C000BF4F2C91848D90E001968F739927848F48
:1030D000A689B7892C93A089B1898C9180648C933F
:1030E000938D848D981306C00288F389E02D80812A
:1030F0008F7D80830895EF92FF920F931F93CF935C
:10310000DF93EC0181E0888F9B8D8C8D981305C037
:10311000E889F989808185FD24C0F62E0B8D10E0A9
:103120000F5F1F4F0F731127E02E8C8DE8120CC01C
:103130000FB607FCFACFE889F989808185FFF5CFC2
:10314000CE010E945A18F1CF8B8DFE01E80FF11DC0
:10315000E35AFF4FF0820B8FEA89FB8980818062FE
:1031600007C0EE89FF896083E889F98980818064DE
:10317000808381E090E0DF91CF911F910F91FF90CC
:10318000EF900895CF93DF93EC01888D8823C9F0E9
:10319000EA89FB89808185FD05C0A889B9898C9160
:1031A00086FD0FC00FB607FCF5CF808185FFF2CFFB
:1031B000A889B9898C9185FFEDCFCE010E945A185C
:1031C000E7CFDF91CF91089580E090E0892B29F03F
:1031D0000E94501881110C9400000895833081F0F2
:1031E00028F4813099F08230A1F008958730A9F059
:1031F0008830B9F08430D1F4809180008F7D03C095
:10320000809180008F7780938000089584B58F77B8
:1032100002C084B58F7D84BD08958091B0008F7702
:1032200003C08091B0008F7D8093B00008953FB7B8
:10323000F8948091110790911207A0911307B09113
:10324000140726B5A89B05C02F3F19F00196A11DB4
:10325000B11D3FBFBA2FA92F982F8827820F911D2C
:10326000A11DB11DBC01CD0142E0660F771F881F73
:10327000991F4A95D1F708952091CA063091CB063F
:103280002817390771F49091C9068091C8069817DC
:1032900041F0E091C906F0E0E453F94F808190E0FD
:1032A00008958FEF9FEF089508951F93CF93DF93B5
:1032B000DC015C962D913C915D972115310539F427
:1032C00081E090E013969C938E9312973DC05196A7
:1032D000ED91FC91529750969C915097892F809533
:1032E0001FB75E964C915E9741FB772770F941FDC1
:1032F0006095F8944081772311F0492B01C0482351
:103300004083E9012197F1F748E0508160FF02C056
:10331000592B01C058235083E9012197F1F7669595
:10332000415099F7772321F090818923808303C04E
:103330008081982B90831FBF5C968D919C915D97A7
:103340000197F1F721E030E0C901DF91CF911F91A2
:1033500008952091CA063091CB062817390771F4D9
:103360008091C8062091C90690E0805C9F4F821B27
:10337000910960E470E00E94B231089580E090E02D
:1033800008952091CA063091CB0628173907B9F461
:103390009091C9068091C806981789F0E091C906F6
:1033A000F0E0E453F94F80812091C90630E02F5FAF
:1033B0003F4F2F7333272093C90690E008958FEF76
:1033C0009FEF0895089580E090E008950E942132D3
:1033D000EF92FF920F931F93CF93DF938C017B01AA
:1033E000C0E0D0E0F701EC0FFD1F6491662361F0AF
:1033F000D801ED91FC910190F081E02DC801099573
:10340000892B11F02196EECFCE01DF91CF911F9144
:103410000F91FF90EF9008956115710579F0FB0110
:1034200001900020E9F73197AF01461B570BDC01F3
:10343000ED91FC910280F381E02D099480E090E011
:1034400008951F920F920FB60F9211242F933F935E
:103450004F935F936F937F938F939F93AF93BF939C
:10346000EF93FF9388EB91E00E945A18FF91EF9140
:10347000BF91AF919F918F917F916F915F914F918C
:103480003F912F910F900FBE0F901F9018951F9294
:103490000F920FB60F9211242F938F939F93EF9358
:1034A000FF93E091C801F091C9018081E091CE01C4
:1034B000F091CF0182FD12C090818091D1018F5F88
:1034C0008F732091D201821751F0E091D101F0E089
:1034D000E854FE4F958F8093D10101C08081FF9108
:1034E000EF919F918F912F910F900FBE0F901F9092
:1034F0001895CF93DF93282F30E0F901E858FC4F5F
:103500008491F901E65AFC4FD491F901EA5BFC4F32
:10351000C491CC2391F081110E94EE18EC2FF0E0C1
:10352000EE0FFF1FE45CFC4FA591B491EC91ED23ED
:1035300081E090E021F480E002C080E090E0DF9143
:10354000CF9108951F93CF93DF93282F30E0F90197
:10355000E858FC4F8491F901E65AFC4FD491F901E7
:10356000EA5BFC4FC491CC23C9F0162F81110E9455
:10357000EE18EC2FF0E0EE0FFF1FEE5CFC4FA59174
:10358000B4918FB7F894111105C09C91ED2FE0957F
:10359000E92302C0EC91ED2BEC938FBFDF91CF912B
:1035A0001F910895CF93DF9390E0FC01E65AFC4F02
:1035B0002491FC01EA5BFC4F8491882361F190E047
:1035C000880F991FFC01E259FC4FC591D491FC0171
:1035D000EE5CFC4FA591B491611109C09FB7F894BE
:1035E0008881209582238883EC912E230BC0623042
:1035F00061F49FB7F8943881822F80958323888364
:10360000EC912E2B2C939FBF06C08FB7F894E881C6
:103610002E2B28838FBFDF91CF9108951F93CF93D7
:10362000DF93182FEB0161E00E94D21A209711F46A
:1036300060E004C0CF3FD10539F461E0812FDF9114
:10364000CF911F910C94A21AE12FF0E0E858FC4FA3
:10365000E491E330F9F048F4E130B9F0E230A1F55B
:1036600084B5806284BDC8BD34C0E730E9F0E8307D
:1036700019F1E43049F580918000806280938000E8
:10368000D0938B00C0938A0024C084B5806884BD29
:10369000C7BD1FC080918000806880938000D09358
:1036A0008900C093880015C08091B0008068809325
:1036B000B000C093B3000DC08091B00080628093D1
:1036C000B000C093B40005C0C038D1050CF0B5CF30
:1036D000AFCFDF91CF911F9108958E3008F08E50BB
:1036E0008770806480937C0080917A0080648093EE
:1036F0007A0080917A0086FDFCCF8091780020913D
:10370000790090E0922B08958230910538F0880F6F
:10371000991F880F991F05970197F1F708958F92C8
:103720009F92AF92BF92CF92DF92EF92FF926B0186
:103730007C010E9417194B015C01C114D104E10402
:10374000F104F1F00E941719DC01CB0188199909E5
:10375000AA09BB09883E9340A105B10570F321E099
:10376000C21AD108E108F10888EE880E83E0981E9D
:10377000A11CB11CC114D104E104F10419F7DDCF7F
:10378000FF90EF90DF90CF90BF90AF909F908F9081
:1037900008952FB7F89460910D0770910E078091EE
:1037A0000F07909110072FBF08951F920F920FB629
:1037B0000F9211242F933F938F939F93AF93BF93B7
:1037C00080910D0790910E07A0910F07B0911007FF
:1037D00030910C0723E0230F2D3720F40196A11D13
:1037E000B11D05C026E8230F0296A11DB11D20932F
:1037F0000C0780930D0790930E07A0930F07B093CB
:1038000010078091110790911207A0911307B091B2
:1038100014070196A11DB11D809311079093120703
:10382000A0931307B0931407BF91AF919F918F910D
:103830003F912F910F900FBE0F901F9018951F92E0
:103840000F920FB60F9211242F933F934F935F93D4
:103850006F937F938F939F93AF93BF93EF93FF9358
:10386000E091CA06F091CB06309709F451C0968DCD
:10387000A685B785858591FF04C09C91892329F48D
:1038800047C09C91892309F043C0A389B4899C91C6
:103890008589809589238C93868997890197F1F78B
:1038A000608D718DA685B785558538E020E0CB0108
:1038B0000197F1F7822F90E095958795282F4C91ED
:1038C000452309F02068315091F7868D81FD2095C0
:1038D0008091C80690E001968F7399273091C906B0
:1038E000381749F0A091C806B0E0A453B94F2C9303
:1038F0008093C80603C0868D8160868F828D938DEC
:103900000197F1F7A389B4899C918589892B8C93C0
:10391000FF91EF91BF91AF919F918F917F916F91A7
:103920005F914F913F912F910F900FBE0F901F907D
:103930001895E091CA06F091CB06E817F90769F4EB
:10394000A389B4899C918589809589238C93109251
:10395000CB061092CA0681E0089580E00895CF93C7
:10396000DF93CDB7DEB729970FB6F894DEBF0FBE51
:10397000CDBFAE014F5F5F4F0E94C60F882389F015
:103980008D818F3361F020F48F3159F489E00CC0C0
:103990008F3519F08F3739F004C08BE005C08AE00D
:1039A00003C080E001C08CE029960FB6F894DEBF1A
:1039B0000FBECDBFDF91CF9108958F929F92AF92AE
:1039C000BF92CF92DF92EF92FF920F931F93CF930C
:1039D000DF93EC018E819F810E94900F40E06CECA0
:1039E0008E819F810E94210F488164E48E819F8196
:1039F0000E94210F8A81882309F442C0E981E9509D
:103A0000E33040F4F0E0EE0FFF1FEE57FE4F008171
:103A1000118102C00EEE12E08B818823F9F08881BB
:103A200081111CC00E94C91B4B015C016801110F70
:103A3000EE08FF088E819F810E94CE0E813001F139
:103A40000E94C91BDC01CB018C199D09AE09BF097D
:103A500088159905AA05BB0568F312C0B801110FB6
:103A6000880B990BDF91CF911F910F91FF90EF90F1
:103A7000DF90CF90BF90AF909F908F900C948F1B52
:103A8000DF91CF911F910F91FF90EF90DF90CF903A
:103A9000BF90AF909F908F900895EF92FF920F93F9
:103AA0001F93CF93DF93EC017B0180917B02811107
:103AB00028C0DB016D917D918D919C910E94182F02
:103AC0000FE712E020E041E00E94C42A81E08093E9
:103AD0007B028091550290915602DC01ED91FC91A0
:103AE0000680F781E02DBE010995809155029091E5
:103AF0005602DC01ED91FC910480F581E02DB801C6
:103B0000099580915502909156020E94660AEC0137
:103B1000009779F162EB71E00E942632892B59F10E
:103B200064EB71E0CE010E942632892B19F41092C9
:103B30007B021FC066EB71E0CE010E942632892B0A
:103B400019F40E94D81417C0CE010E94E82AF70188
:103B50006083718382839383809155029091560292
:103B6000DC01ED91FC910480F581E02DBE01099509
:103B700002C080E001C081E0DF91CF911F910F91E1
:103B8000FF90EF900895EF92FF920F931F93CF93C2
:103B9000DF93EC017B0180917B02811126C0DB0168
:103BA0006D917D918D919C910FE712E022E041E0B3
:103BB0000E94C42A81E080937B02809155029091FB
:103BC0005602DC01ED91FC910680F781E02DBE01EB
:103BD00009958091550290915602DC01ED91FC917E
:103BE0000480F581E02DB8010995809155029091EE
:103BF00056020E94660AEC01009779F162EB71E0CF
:103C00000E942632892B59F164EB71E0CE010E94AB
:103C10002632892B19F410927B021FC066EB71E0EB
:103C2000CE010E942632892B19F40E94D81417C0A5
:103C3000CE010E94E42AF70160837183828393831B
:103C40008091550290915602DC01ED91FC91048027
:103C5000F581E02DBE01099502C080E001C081E040
:103C6000DF91CF911F910F91FF90EF900895CF9327
:103C7000DF93C5E5D2E08A819B810E94530E888143
:103C80009981DC01ED91FC910084F185E02D6CE8D7
:103C900073E0DF91CF910994CF93DF9300D000D0F0
:103CA000CDB7DEB7789484B5826084BD84B5816079
:103CB00084BD85B5826085BD85B5816085BD8091F7
:103CC0006E00816080936E0010928100809181006F
:103CD0008260809381008091810081608093810067
:103CE000809180008160809380008091B100846029
:103CF0008093B1008091B00081608093B00080918A
:103D00007A00846080937A0080917A008260809348
:103D10007A0080917A00816080937A0080917A00A5
:103D2000806880937A001092C10061E083E00E9475
:103D3000D21A61E083E00E94A21A8091510490910E
:103D40005204DC01ED91FC910190F081E02D2BE11A
:103D500034E04EE250E060E070E009950EE210E0E1
:103D60008091510490915204DC01ED91FC919801F5
:103D7000265D3B4F0190F081E02D47E250E0B80115
:103D80000995095D1F4F0E39B2E01B0749F74091B5
:103D900053045091540460915504709156048091DD
:103DA0001B0490911C04A0911D04B0911E0448179F
:103DB00059076A077B0709F4AFC08BE194E00E94C2
:103DC000530E8091530490915404A0915504B091E6
:103DD000560480931B0490931C04A0931D04B0937D
:103DE0001E0481E0809349048DE494E090934304A1
:103DF0008093420480E090E0A0EEB0E480933E0423
:103E000090933F04A0934004B093410483E08093D7
:103E1000310488E180933504109234041092330405
:103E20008FE790ECAEEBB0E08093360490933704CC
:103E3000A0933804B09339048EE790ECAEEBB0E079
:103E400080933A0490933B04A0933C04B0933D04C8
:103E500087E0809332048EEA97E4A1E8BFE3809381
:103E6000210490932204A0932304B09324048AE0B5
:103E7000809347041092480410921F0488E893E14D
:103E800090932A048093290484E690E090932C0474
:103E900080932B0480E090E0A0E2B1E480932D04B5
:103EA00090932E04A0932F04B0933004E3E6F4E043
:103EB00000E010E020E83FE34DEC5CEC6CEC7DEBC7
:103EC000ADECCA2EACECDA2EED2CADE3FA2E10865A
:103ED0001186128613861486158616861786008B21
:103EE000118B228B338B4083518362837383C48213
:103EF000D582E682F782B79686E0E33DF80739F788
:103F00008BE194E00E941F0E8BE194E00E940D0D66
:103F100081E08093570413C010925704809151049C
:103F200090915204DC01ED91FC910190F081E02D23
:103F300029E434E048E050E06EE972E0099586E655
:103F400093E00E94230D61E08091A5030E94D21AA4
:103F5000E091A803F091A90386898330C8F090E02E
:103F60009C01235031090497079710F021E030E0BD
:103F7000215031098AE0829FB001839F700D112486
:103F800063517E4F4AE050E08AEA93E00E940F2B93
:103F900084EB93E00E949A0660E0809163030E94A4
:103FA000D21A61E0809162030E94D21A80EE92E000
:103FB0000E94520484E393E00E94FF0C89E992E09E
:103FC0000E94FA0A62E0809197020E94D21A0E942F
:103FD000D814EE24E39483E0D82E97E2F92E24E05F
:103FE000C22E35E0B32E42E0A42E57E0752E66E0D7
:103FF000662E80917C02811144C0E0927C02E091A7
:104000005702F091580287A58823D9F117A610927C
:104010007C02E0927D02D0927402E092770280915D
:10402000790290917A02F89ED001F99EB00D112488
:10403000AE0FBF1FDD968C9180937E0260A971A99F
:1040400070937A02609379028091590290915A029A
:104050000E94360BE0915702F091580282A993A971
:10406000A4A9B5A9E0915902F0915A0214861586C7
:1040700016861786808F918FA28FB38F148E168E1F
:10408000E58E809197020E94791A892B21F40E9473
:10409000371E10927402E0915902F0915A0286A9DB
:1040A000882311F060E001C061E0809198020E94D5
:1040B000A21A80917402823009F430C330F488234C
:1040C00069F0813009F4E2C058C7833009F4E8C5CB
:1040D000853009F052C70E94371E4FC780917B027E
:1040E00081115DC080915D0290915E02DC01ED91D5
:1040F000FC910480F581E02D0995A0915502B091C5
:104100005602ED91FC9111970680F781E02D8130E8
:1041100019F468ED72E002C065ED72E0CD01099519
:104120000FE712E020E041E060E070E080E891E419
:104130000E94C42A8091550290915602DC01ED91B3
:10414000FC910280F381E02DB80109958091550220
:1041500090915602DC01ED91FC910680F781E02DF3
:1041600063ED72E00995E0915702F0915802608189
:104170007181828193810E94162F20E041E00E948C
:10418000C42A8091550290915602DC01ED91FC9178
:104190000480F581E02DB8010995E0927B028091C1
:1041A000550290915602DC01ED91FC910284F38559
:1041B000E02D09958C0160E08091590290915A029E
:1041C0000E94C2110136110509F4ABC5FCF402339B
:1041D0001105B1F16CF40033110509F4A2C50133E6
:1041E000110509F0CCC610927B02E0927402C7C69A
:1041F0000333110551F10433110509F0C0C6809154
:10420000590290915A020E941714B9C60836110536
:1042100031F154F40336110569F10436110509F042
:10422000AEC6B0927402ABC60037110599F00437E0
:10423000110509F0A4C610927B02C09274029FC6B9
:1042400010927B02A09274029AC610927B02D092C6
:10425000740295C661E080E00E945D1590C6809171
:104260005F0290916002DC01ED91FC910190F08180
:10427000E02D0AC080915F0290916002DC01ED9117
:10428000FC910280F381E02D099579C6E0917502D9
:104290008E2F90E08A31910508F02CC2FC01EC5C75
:1042A000FF4F0C940732E0915702F091580284813D
:1042B0008983BE016F5F7F4F8EEC92E00E94F01405
:1042C000882309F45CC6E0915702F0915802898175
:1042D000848325C0A092750252C6E0915702F091E6
:1042E000580286819781A085B18589839A83AB83A3
:1042F000BC83BE016F5F7F4F89EC92E00E94C31DBB
:10430000882309F43CC6E0915702F0915802898154
:104310009A81AB81BC8186839783A087B1871092F5
:104320007B02809175028F5F8093750228C6C092D0
:10433000750225C6B092750222C6609275021FC62C
:10434000709275021CC6B8E0B093750218C6E09171
:104350005702F091580286859785A0E0B0E08983E6
:104360009A83AB83BC83BE016F5F7F4F8EE792E081
:104370000E944D1D882309F402C6E0915702F09176
:10438000580289819A8197878687C9CFE091570221
:10439000F091580280899189A0E0B0E089839A83E6
:1043A000AB83BC83BE016F5F7F4F84EC92E00E94C1
:1043B0004D1D882309F4E3C5E0915702F09158029E
:1043C00089819A81918B808BAACFE0915702F091DD
:1043D000580282899389A489B58989839A83AB839A
:1043E000BC83BE016F5F7F4F8FEB92E00E94C31DC5
:1043F000882309F4C4C5E0915702F09158028981DD
:104400009A81AB81BC81828B938BA48BB58B87CF38
:10441000EEE0E0937502B3C5E0915702F0915802C7
:10442000868990E0A0E0B0E089839A83AB83BC8367
:10443000BE016F5F7F4F8AEB92E00E944D1D882383
:1044400009F49DC5E0915702F09158028981868B4D
:1044500066CFE0915702F0915802878990E0A0E082
:10446000B0E089839A83AB83BC83BE016F5F7F4FCB
:1044700085EB92E00E944D1D882309F480C5E091F0
:104480005702F09158028981878B49CFE0915702FA
:10449000F0915802808D918DA0E0B0E089839A83DD
:1044A000AB83BC83BE016F5F7F4F80EB92E00E94C5
:1044B0004D1D882309F463C5E0915702F09158021D
:1044C00089819A81918F808F2ACFE0915702F09154
:1044D0005802828D90E0A0E0B0E089839A83AB839C
:1044E000BC83BE016F5F7F4F8BEA92E00E944D1D3F
:1044F000882309F444C5E0915702F091580289815C
:10450000828F0DCFE0915702F0915802838D948DE8
:10451000A58DB68D89839A83AB83BC83BE016F5F03
:104520007F4F86EA92E00E944D1D882309F427C53B
:10453000E0915702F091580289819A81AB81BC8148
:10454000838F948FA58FB68FEACEE0915702F091BA
:104550005802878D90A1A1A1B2A189839A83AB83D0
:10456000BC83BE016F5F7F4F81EA92E00E944D1DC8
:10457000882309F404C5E0915702F091580289811B
:104580009A81AB81BC81878F90A3A1A3B2A3C7CE30
:10459000E0915702F091580283A194A1A5A1B6A180
:1045A00089839A83AB83BC83BE016F5F7F4F8CE9A5
:1045B00092E00E94C31D882309F4E1C4E0915702F0
:1045C000F091580289819A81AB81BC8183A394A325
:1045D000A5A3B6A3A4CEE0915702F091580287A1FB
:1045E00090A5A0E0B0E089839A83AB83BC83BE0131
:1045F0006F5F7F4F87E992E00E944D1D882309F489
:10460000BEC4E0915702F091580289819A8190A727
:1046100087A385CEE0915702F091580281A592A51B
:10462000A0E0B0E089839A83AB83BC83BE016F5F57
:104630007F4F82E992E00E944D1D882309F49FC4B8
:10464000E0915702F091580289819A8192A781A73F
:1046500066CEE0915702F091580283A58983BE018E
:104660006F5F7F4F8DE892E00E94F014882309F479
:1046700086C4E0915702F0915802898183A74FCEFA
:10468000E0915702F091580285A590E0A0E0B0E0DB
:1046900089839A83AB83BC83BE016F5F7F4F88E8B9
:1046A00092E00E944D1D882309F469C4E0915702ED
:1046B000F0915802898185A732CEE0915702F0919E
:1046C000580284A590E0A0E0B0E089839A83AB8390
:1046D000BC83BE016F5F7F4F83E892E00E944D1D57
:1046E000882309F44CC4E0915702F0915802898163
:1046F00084A715CE80915702909158020E941F0EF8
:104700001092740210927502809157029091580293
:10471000DC019E96EC920E940D0D31C4E091760270
:104720008E2F90E08E30910508F0AFC2FC01E25B65
:10473000FF4F8091790290917A020C940732092EF2
:10474000000CAA0BBB0B89839A83AB83BC83BE018D
:104750006F5F7F4F89E792E00E944D1D882309F427
:104760000EC489819A81AB81BC8180319105A105FC
:10477000B1050CF0D6C290937A02809379028091B1
:1047800076028F5F80937602CCC2E0915702F0915F
:104790005802F89E9001F99E300D1124E20FF31F8C
:1047A00087AD8983BE016F5F7F4F88E392E00E94EF
:1047B000F014882309F4E3C3E0915702F091580202
:1047C0002091790230917A02F29EC001F39E900D01
:1047D0001124E80FF91F898187AF4FC2E09157027A
:1047E000F0915802F89E9001F99E300D1124E20FCD
:1047F000F31F86AD8983BE016F5F7F4F84E792E030
:104800000E94F014882309F4BAC3E0915702F09192
:1048100058022091790230917A02F29EC001F39EF3
:10482000900D1124E80FF91F898186AF26C2E0910F
:104830005702F0915802F89E9001F99E300D112414
:10484000E20FF31F85AD8983BE016F5F7F4F8FE657
:1048500092E00E94F014882309F491C3E09157027A
:10486000F09158022091790230917A02F29EC001B3
:10487000F39E900D1124E80FF91F898185AFFDC1CA
:10488000E0915702F0915802F89E9001F99E300D88
:104890001124E20FF31FE05CFF4F80819181A28120
:1048A000B38189839A83AB83BC83BE016F5F7F4FE3
:1048B0008AE692E00E94C31D882309F460C3E09158
:1048C0005702F09158022091790230917A02F29EBB
:1048D000C001F39E900D1124E80FF91FE05CFF4F1B
:1048E000C4C1E0915702F0915802F89E9001F99EE0
:1048F000300D1124E20FF31FEC5BFF4F808191819B
:10490000A281B38189839A83AB83BC83BE016F5F2D
:104910007F4F85E692E00E944D1D882309F42FC346
:10492000E0915702F09158022091790230917A0279
:10493000F29EC001F39E900D1124E80FF91FEC5B6D
:10494000FF4F89819A81AB81BC8180839183A2834F
:10495000B38393C1E0915702F0915802F89E900101
:10496000F99E300D1124E20FF31FE85BFF4F8081A9
:104970009181A281B38189839A83AB83BC83BE0179
:104980006F5F7F4F80E692E00E94C31D882309F489
:10499000F6C2E0915702F0915802209179023091CD
:1049A0007A02F29EC001F39E900D1124E80FF91FC8
:1049B000E85BFF4F5AC1E0915702F0915802F89E10
:1049C0009001F99E300D1124E20FF31FE45BFF4FBD
:1049D00080819181A281B38189839A83AB83BC83D7
:1049E000BE016F5F7F4F8BE592E00E94C31D88235D
:1049F00009F4C5C2E0915702F09158022091790262
:104A000030917A02F29EC001F39E900D1124E80FBE
:104A1000F91FE45BFF4F29C1E0915702F091580262
:104A2000F89E9001F99E300D1124E20FF31FE05B18
:104A3000FF4F80819181A281B38189839A83AB8367
:104A4000BC83BE016F5F7F4F86E592E00E94C31D6D
:104A5000882309F494C2E0915702F0915802209102
:104A6000790230917A02F29EC001F39E900D1124DA
:104A7000E80FF91FE05BFF4FF8C0E0915702F0919B
:104A80005802F89E9001F99E300D1124E20FF31F99
:104A9000EC5AFF4F80819181A281B38189839A83EF
:104AA000AB83BC83BE016F5F7F4F81E592E00E94C4
:104AB000C31D882309F463C2E0915702F0915802A4
:104AC0002091790230917A02F29EC001F39E900DFE
:104AD0001124E80FF91FEC5AFF4FC7C0E0915702AD
:104AE000F0915802F89E9001F99E300D1124E20FCA
:104AF000F31FE85AFF4F80819181A281B38189839E
:104B00009A83AB83BC83BE016F5F7F4F8CE492E0DE
:104B10000E94C31D882309F432C2E0915702F0912C
:104B200058022091790230917A02F29EC001F39EE0
:104B3000900D1124E80FF91FE85AFF4F96C0E0913D
:104B40005702F0915802F89E9001F99E300D112401
:104B5000E20FF31FE45AFF4F80819181A0E0B0E0A3
:104B600089839A83AB83BC83BE016F5F7F4F87E4E9
:104B700092E00E944D1D882309F401C2E091570282
:104B8000F09158022091790230917A02F29EC00190
:104B9000F39E900D1124E80FF91FE45AFF4F30C027
:104BA000E0915702F0915802F89E9001F99E300D65
:104BB0001124E20FF31FE25AFF4F80819181A0E0A0
:104BC000B0E089839A83AB83BC83BE016F5F7F4F64
:104BD00082E492E00E944D1D882309F4D0C1E09147
:104BE0005702F09158022091790230917A02F29E98
:104BF000C001F39E900D1124E80FF91FE25AFF4FF8
:104C000089819A819183808338C0E0915702F09125
:104C10005802F89E9001F99E300D1124E20FF31F07
:104C2000E05AFF4F80819181A281B38189839A8369
:104C3000AB83BC83BE016F5F7F4F8DE392E00E9428
:104C4000C31D882309F49BC1E0915702F0915802DB
:104C50002091790230917A02F29EC001F39E900D6C
:104C60001124E80FF91FE05AFF4F89819A81AB8127
:104C7000BC8180839183A283B38310927B02809155
:104C800076028F5F809376027AC18091570290916D
:104C900058020E941F0E10927402109276026FC189
:104CA00080917702882319F08130F1F155C180910C
:104CB000790290917A02092E000CAA0BBB0B898312
:104CC0009A83AB83BC83BE016F5F7F4F83E392E027
:104CD0000E944D1D882309F452C149815A816B817C
:104CE0007C814031510561057105DCF450937A02F5
:104CF00040937902E0915702F0915802F49EC0016E
:104D0000F59E900D1124E80FF91F85AD80937E026A
:104D100010927C0210927D02809177028F5F8093C7
:104D2000770210927B022BC180915502909156021E
:104D3000DC01ED91FC910284F385E02D09958C0155
:104D40008237910509F41EC1809197020E94791A59
:104D5000892B09F417C18091790290917A028031F0
:104D600091050CF0F3C0E0915702F0915802F89EC3
:104D70009001F99E300D1124E20FF31F27AD22237D
:104D800009F4DEC00136110531F460E080917B0248
:104D90000E945D1509C00433110531F48091590258
:104DA00090915A020E941714E0915702F091580214
:104DB00083A5882309F452C081E692E00E94DB0AB1
:104DC00081E692E00E94AD0A882309F447C081E69B
:104DD00092E00E94ED0AE0915702F0915802E7A696
:104DE000A0915902B0915A02D4968C91D497809098
:104DF000790290907A028823B9F050964D915D9196
:104E00006D917C91539754968D919D910D90BC918D
:104E1000A02D1A012B01281A390A4A0A5B0A22AA74
:104E200033AA44AA55AA15C0F89CD001F99CB00D2C
:104E30001124AE0FBF1FAC5BBF4F2D913D914D9123
:104E40005C91A0E6BAEE0E944E3062AB73AB84ABCD
:104E500095AB91AA80AACF010E940D0D80917D0291
:104E600081112AC0E0927D026091790270917A02EC
:104E70008091590290915A020E94360BE09157029C
:104E8000F09158022091790230917A02F29EC0018D
:104E9000F39E900D1124E80FF91F85AD80937E02DB
:104EA00010927B020E94C91B60939302709394023C
:104EB000809395029093960261E0809159029091BF
:104EC0005A020E94C211882309F459C0E091570286
:104ED000F09158022091790230917A02F29EC0013D
:104EE000F39E900D1124E80FF91F86AD882309F475
:104EF00052C0E0927B0280917E02882349F0E091CB
:104F00005B02F0915C0264EB70E080810E940E1BFA
:104F10000737110549F480915B0290915C020E9471
:104F2000A10A10927B0237C00236110541F580912B
:104F30005B0290915C020E94A10A10927E021FC047
:104F4000019690937A028093790219C0809177023A
:104F50008F5F8093770213C080915702909158021F
:104F6000DC019B962C919B97222321F09F961C920B
:104F70000E940D0D0E94D81402C0109274020E946B
:104F8000E41837C8E0915702F091580217A6B4E12F
:104F9000B0937702E0CE8091790290917A020196E7
:104FA00090937A028093790210927D02E8CFE6E630
:104FB000F3E08AE491E09183808388E391E0958F28
:104FC000848F82E893E00C94991CEF92FF920F93E8
:104FD0001F93CF93DF931092BB011092BA0188EE1A
:104FE00093E0A0E0B0E08093BC019093BD01A0935A
:104FF000BE01B093BF018EE091E09093B901809320
:10500000B80185EC90E09093C5018093C40184ECD5
:1050100090E09093C7018093C60180EC90E090935C
:10502000C9018093C80181EC90E09093CB018093FB
:10503000CA0182EC90E09093CD018093CC0186EC84
:1050400090E09093CF018093CE011092D101109205
:10505000D2011092D3011092D40180E091E090939C
:105060005204809351048DE89AE9A4E0B0E0809363
:10507000530490935404A0935504B093560481E0D4
:105080008093570460E08CE00E94D21AE6E6F3E0D9
:10509000E491E0930D04E2E5F3E0E491F0E0EE0F3B
:1050A000FF1FE45CFC4F8591949190930F048093D3
:1050B0000E041092180410921A0410921904E8E1D8
:1050C000F4E0129284E0E031F807D9F78DE094E043
:1050D000909300048093FF031092FD031092FE034F
:1050E0001092F90389E08093FA0361E06093FB0377
:1050F0006093FC0310920C0410920B048CE08093DC
:10510000B6038BE194E09093B8038093B7031092B9
:10511000BA0322E731E03093B5032093B40329EFBB
:1051200033E03093F8032093F7036093B9031092B0
:10513000A6031092A70328E02093A5032AE531E0F7
:105140003093A4032093A3039093A9038093A8030F
:1051500080E091EEA0E0B0E080937E0390937F0327
:10516000A0938003B09381038AE491E09093670356
:1051700080936603109285031092840388EE93E077
:10518000A0E0B0E08093860390938703A093880308
:10519000B093890388E391E0909383038093820323
:1051A000109299031092980310929B0310929A0305
:1051B00010929D0310929C0310929F0310929E03E5
:1051C0008091A0038E7F8D7F8093A0038695817050
:1051D00068278BE00E94A21A61E08BE00E94D21A3D
:1051E000E5E6F3E0E491E0939203E1E5F3E0E49196
:1051F000F0E0EE0FFF1FEE5CFC4F859194919093D1
:1052000094038093930360E08AE00E94D21A809115
:10521000A00381FD04C061E08AE00E94A21A8AE036
:1052200080938E03E4E6F3E0E491E0938F03E0E5FE
:10523000F3E0E491F0E0EE0FFF1FE45CFC4F85919A
:1052400094919093910380939003CBE1D4E0D09319
:10525000A203C093A1038FE080936303D0936503FF
:10526000C093640389E080936203D0933703C093B3
:105270003603109239031092380310923A031092B9
:105280003B038CE291E090933503809334031092BA
:1052900040031092410310924203109243038CE3A7
:1052A00093E00E94ED0A109253031092540310925F
:1052B0005503109256038FE493E00E94ED0AD093B9
:1052C000E302C093E2021092E5021092E40210920F
:1052D000E6021092E70280E291E09093E10280936F
:1052E000E00288E293E0909307038093060384E250
:1052F00093E090930503809304038CE293E09093F2
:105300000903809308031092220310921A0310924B
:105310001B0310921C0310921D0380E090E0AFE786
:10532000B3E480931E0390931F03A0932003B093D4
:10533000210384E690E0A0E0B0E080931603909310
:105340001703A0931803B09319031092010310924E
:10535000000381E090E09093030380930203809325
:1053600023038EEA97E4A1E8B1E48093E8029093E6
:10537000E902A093EA02B093EB0249E25CE56FE038
:105380007EE34093EC025093ED026093EE02709343
:10539000EF024DEC5CE060EF73E44093F002509359
:1053A000F1026093F2027093F3028093F4029093FF
:1053B000F502A093F602B093F70282E490E6A5E628
:1053C000BCE38093F8029093F902A093FA02B093A1
:1053D000FB0280E098E0A6E9B5E48093FC0290939C
:1053E000FD02A093FE02B093FF020E94C91B009130
:1053F0001603109117032091180330911903DC0153
:10540000CB01801B910BA20BB30B80930A039093EB
:105410000B03A0930C03B0930D0310923003109272
:1054200031031092320310923303D0939A02C09347
:10543000990283E693E090939C0280939B0280EE16
:1054400092E090939E0280939D0284E393E0909378
:10545000A00280939F0294EBE92E93E0F92EF09244
:10546000A202E092A10203EA13E01093A4020093C7
:10547000A3021092A9021092AA021092AB021092FB
:10548000AC0285EA92E00E94ED0A80EA9FE0A0E08B
:10549000B0E08093BC029093BD02A093BE02B09393
:1054A000BF0288EB92E00E94ED0A1092CC021092AB
:1054B000CD021092CF021092D1021092D00210921F
:1054C000D2021092D3021092D4021092D5021092FE
:1054D000D6021092D7021092D8021092D9021092DE
:1054E000DA021092DB021092DC021092DD0286E6F4
:1054F00093E09093560280935502D0935802C09344
:10550000570289E992E090935A028093590282E609
:1055100093E090935C0280935B02F0925E02E092D3
:105520005D021093600200935F0280E395E7A0E0C4
:10553000B0E08093650290936602A0936702B093F7
:10554000680281E692E00E94ED0A109274021092C5
:1055500075021092760210927702109278021092E1
:105560007A021092790210927B0210927C0282E001
:105570008093970283E080939802DF91CF911F91EF
:105580000F91FF90EF900895EF920F931F93CF9399
:10559000DF93E80147FD02C034E001C034E1E42FAD
:1055A000440FFF0BF7FF03C0F195E195F109E32EDE
:1055B000022F2E2FAE010E942D2BCE01DF91CF9115
:1055C0001F910F91EF900895662777270C94BB2CBD
:1055D0001F93FC0199278827BC01E8941191103290
:1055E000E9F3193010F01E30C8F31B3251F01D32B0
:1055F00049F4689406C00E94182B610F711D811D2B
:10560000911D119110531A30B0F33EF4909580958E
:10561000709561957F4F8F4F9F4F1F910895FB01AC
:10562000DC0102C005900D9241505040D8F708951A
:10563000592F482F372F262F660F771F881F991F46
:10564000660F771F881F991F620F731F841F951F96
:10565000660F771F881F991F08954F925F926F9270
:105660007F929F92AF92BF92CF92DF92EF92FF9282
:105670000F931F93CF93DF93CDB7DEB729970FB664
:10568000F894DEBF0FBECDBF6A01122FB02E2BE300
:10569000201720F0FF24F394F00E02C0BCE3FB2E91
:1056A0000F2D27E0AE014F5F5F4F0E94182EAC0117
:1056B0008981982F9970913031F0E1FC06C0E0FEAD
:1056C00006C090E205C09DE203C09BE201C090E0ED
:1056D000EE2DE07183FF3CC0911102C083E001C058
:1056E00084E0811718F4212F281B01C020E0E1116C
:1056F0000BC0F601822F30E2882319F031938150DC
:10570000FBCFC20ED11C20E0992329F0D6019C9337
:10571000F60131966F01C6010396E2FE0AC03EE42F
:10572000D6013C9341E411964C93119712963C9309
:1057300006C03EE6F601308341E641833283FC0138
:10574000322F40E2332309F442C041933150FACF63
:1057500082FF44C0911102C083E001C084E0811740
:1057600018F4212F281B01C020E0E1110BC0F60125
:10577000822F30E2882319F031938150FBCFC20E83
:10578000D11C20E0992329F0D6019C93F601319693
:105790006F01C6010396E2FE0BC039E4D6013C93CB
:1057A0003EE411963C93119736E412963C9307C061
:1057B00039E6F60130833EE6318336E63283FC017A
:1057C000322F40E2332319F041933150FBCFFC01DB
:1057D000E20FF11D10828EEF9FEFB7C0F1E0911143
:1057E00001C0F0E06F2F70E01416150624F49A0142
:1057F0002F5F3F4F02C021E030E0260F371FBB2054
:1058000029F06B2D70E06F5F7F4F02C060E070E0A9
:10581000260F371F612F70E0261737071CF4121B65
:10582000212F01C020E03E2D387159F4D601322FCE
:1058300060E2332319F06D933150FBCFC20ED11CBF
:1058400020E0FF2331F0D6019C93B6016F5F7F4FBC
:105850006B01E1110BC0F601922F30E3992319F08F
:1058600031939150FBCFC20ED11C20E09F2D940F9D
:105870003A81782F7071A72E84FF03C0313309F469
:105880009150191624F4993018F098E001C091E075
:10589000E42F852F57FF02C0E0E080E06E2F782FC5
:1058A000E0E0F0E0AEE29A2E3A01691A71082A01AE
:1058B000461A570A0B2D10E01195019511096F3FFB
:1058C0008FEF780729F4D6019C92C60101966C01EE
:1058D0004617570784F0661677066CF47F01E40CD0
:1058E000F51CA1E0B0E0AC0FBD1FEA0EFB1ED70116
:1058F0001196BC9002C090E3B92E615071093196A7
:10590000C60101967C016017710724F0D601BC9294
:105910006C01D5CF6417750741F4363320F4353365
:1059200021F4A11002C081E3B82EF601B082F70184
:10593000822F90E2882319F091938150FBCFF701D9
:10594000E20FF11D108280E090E029960FB6F894E6
:10595000DEBF0FBECDBFDF91CF911F910F91FF90A2
:10596000EF90DF90CF90BF90AF909F907F906F901F
:105970005F904F900895A0E0B0E0E1ECFCE20C9461
:105980005D30EC017B016115710519F0DB018D9330
:105990009C938E010F5F1F4F7880872D90E00E94AF
:1059A000F02E892B11F0E801F4CFBDE27B1205C087
:1059B0000F5F1F4F7980C1E008C0EBE27E1204C088
:1059C0008E010E5F1F4F7980C0E06801F1E0CF1AB1
:1059D000D10843E050E060EC70E0C6010E94F92E6F
:1059E000892BF1F4680122E0C20ED11C45E050E0A1
:1059F0006BEB70E0C6010E94F92E892B21F468013F
:105A000087E0C80ED11CE114F10419F0D701CD9242
:105A1000DC92C111FFC060E070E080E89FE703C145
:105A200043E050E068EB70E0C6010E94F92E892B3C
:105A300051F4E114F10409F4F2C00E5F1F4FF701B5
:105A400011830083ECC0680160E070E0CB0100E0EE
:105A500010E0F601D0EDD70DDA3058F52C2F22608A
:105A6000622E2C2F2870C2FF05C0211128C00F5FA5
:105A70001F4F25C0222311F001501109A5E0B0E00D
:105A80009B01AC010E944E304B015C01880C991CBB
:105A9000AA1CBB1CC501B4016D0F711D811D911D98
:105AA0006839A9E97A078A07A9E19A0740F0C66030
:105AB00005C0DE3F51F4C3FD44C0C8606C2EBFEF8B
:105AC000CB1ADB0A7080C62DC4CF2D2F2F7D253138
:105AD000C1F540814D3211F4C06106C04B3221F056
