:100000000C94C9010C94F1010C94F1010C94D022D0
:100010000C94D0220C94D0220C94F1010C94F10198
:100020000C94F1010C94F1010C94F1010C94F10188
:100030000C94F1010C94F1010C94F1010C94F10178
:100040000C94AB280C94F1010C94F1010C94F10187
:100050000C94F1010C94F1010C94F1010C94F10158
:100060000C94F1010C94F101320E4C0E4E0E790EEF
:100070007B0E7E0E810E830E850EA70EC90EEF0E2F
:100080008B108B10F10E110F310F530F730F990F4F
:10009000BF0FE50F0710291043106310C610EC10B6
:1000A0001A1148117611AC11EA11201256128C1255
:1000B000C212F8122E1371137200726E723A00623D
:1000C0006D673A006270663A0062706E3A00626B69
:1000D000643A00626B693A00626B703A0062617464
:1000E0003A006269743A006274643A006273743A66
:1000F000006262633A006268613A00626F6E3A00C1
:10010000626E723A003100300030003100736F6867
:100110003A00736C733A00736C733A00736E723A00
:10012000007370773A0073626C3A007373753A002B
:100130007373613A007373623A007373703A0073B9
:1001400073723A007373743A007370643A00737098
:10015000743A007370733A00736B6D3A0073706990
:100160003A002000204B00205700204F0020440080
:1001700020420030003100204800204A0020530077
:10018000205100204700204900204E00410054002B
:100190003A006D61006D64005E01011F01030301FF
:1001A00000008A02010A01020201000064001E47E9
:1001B000040B090600007C01010601030301000095
:1001C000F401060E010202010000C2011701010242
:1001D0000201010000000000000101000000005EBB
:1001E000BCE2613FDD83C29C7E20A3FD1F41009DD8
:1001F00023BE46DB65F88C11AF32CA57E9740000A4
:1002000000080002010000030407000000000000D5
:1002100000000102040810204080010204081020A0
:10022000010204081020040404040404040402026B
:100230000202020203030303030300000000230081
:100240002600290000000000250028002B000000E7
:100250000000240027002A004E414E494E495459BF
:10026000494E46CDCCCC3D0AD7233C17B7D1387781
:10027000CC2B329595E6241FB14F0A000020410097
:1002800000C84200401C4620BCBE4CCA1B0E5AAEE1
:10029000C59D7400407A10F35A00A0724E180900F0
:1002A00010A5D4E80000E87648170000E40B5402DB
:1002B0000000CA9A3B000000E1F505000080969816
:1002C00000000040420F000000A086010000001066
:1002D0002700000000E803000000006400000000A8
:1002E000000A00000000000100000000002C76D889
:1002F00088DC674F0823DFC1DFAE59E1B1B796E56F
:10030000E3E453C63AE651997696E8E6C28426EBD2
:10031000898C9B62ED407C6FFCEFBC9C9F40F2BAE5
:10032000A56FA5F490055A2AF75C936B6CF9676D7D
:10033000C11BFCE0E40D47FEF520E6B500D0ED90D2
:100340002E0300943577050080841E080000204E9F
:100350000A000000C80C333333330F986E12831138
:1003600041EF8D2114893BE65516CFFEE6DB18D10F
:10037000844B381BF77C1D901DA4BBE424203284E1
:10038000725E228100C9F124ECA1E53D2700871AA5
:10039000E61B11241FBECFEFD8E0DEBFCDBF11E0BA
:1003A000A0E0B1E0ECECFAE602C005900D92A439B1
:1003B000B107D9F726E0A4E9B1E001C01D92A83544
:1003C000B207E1F711E0C8ECD1E004C02197FE01CB
:1003D0000E94DE2DC73CD107C9F70E94E32A0C9486
:1003E00059350C940000FC018481811105C0838182
:1003F000811102C081E0848381E083830895FC0140
:100400008481811105C08381882311F081E0848378
:1004100013820895FC0184810895FC01838108956D
:10042000FC0185810895FC01878117820895FC01F4
:10043000868108954C960C94562BAF92BF92CF9222
:10044000DF92EF92FF920F931F93CF93DF93EC0114
:100450001E821F825C0188E0A80EB11C60EA7FE06A
:10046000C5010E94A3264C815D812A813B8167E200
:10047000649FC001659F900D1124820F931FFC01A2
:10048000E85AFF4FC080D180E280F380349700812A
:10049000118122813381349740815181628173813E
:1004A000C5010E948D26EA80FB80F701668577856D
:1004B00080E090E00E94652C8B019C01F70142894D
:1004C000538964897589C5010E94F12660E070E056
:1004D000C5010E94B727FE01E85BFF4F1082118221
:1004E0001282138261E070E0C5010E94B7270E946A
:1004F000F528C05BDF4F688379838A839B83DF9114
:10050000CF911F910F91FF90EF90DF90CF90BF9010
:10051000AF9008954C960C94322B4C960C946E2B05
:100520008F929F92AF92BF92CF92DF92EF92FF9203
:100530000F931F93CF93DF93EC01FC01EC5BFF4F14
:100540004083518362837383DC01A45BBF4FEA81E4
:10055000FB812C813D8147E2429FC001439F900D6A
:100560001124E80FF91FE05CFF4F40815181628147
:1005700073814D935D936D937C9313970E94F5283F
:100580004B015C018E01005B1F4FF801808191815E
:10059000A281B381A5019401281B390B4A0B5B0B87
:1005A000CA01B9010E94652C6B017C01EA81FB81C3
:1005B0006685778580E090E00E94652C9B01AC0108
:1005C000C701B6010E94172D18164CF4F80180825D
:1005D0009182A282B382CE0108960E945C24FE0121
:1005E000E85BFF4F80809180A280B380A7019601D5
:1005F000C501B4010E94172D1E8187FD13C0EA8139
:10060000FB812289338944895589C501B4010E943F
:10061000172D18163CF4111102C081E08F8381E080
:100620008E8305C0112311F081E08F831E828E819D
:10063000DF91CF911F910F91FF90EF90DF90CF90BE
:10064000BF90AF909F908F9008954C960C945C2B28
:10065000CF92DF92EF92FF920F931F93CF93DF938E
:100660001F92CDB7DEB779018A01060F171F6B0104
:10067000C016D106B9F0C11484E0D80698F4F999EF
:10068000FECFF70161917F01C60169830E940C359D
:100690006981681719F0C6010E941435FFEFCF1A5F
:1006A000DF0AE6CF0F90DF91CF911F910F91FF905E
:1006B000EF90DF90CF900895CF93DF93EC01888186
:1006C00099810E948A1F6BE0888199810E94822013
:1006D00060E0888199810E94C32088819981DF919F
:1006E000CF910C942C21CF93DF93EC0160E08A81B1
:1006F0000E944D2ACE018D5B9F4FDF91CF910C94CC
:100700005C03CF92DF92EF92FF920F931F93CF93F0
:10071000DF938C01EC01CD5BDF4F60E08881998134
:100720000E94C0216B017C01888199810E942C214B
:1007300020E030E04CEF52ECC701B6010E94EE2BF6
:1007400087FF03C0CE010E945C03F801C381D481FE
:100750002E813F8148855985C701B6010E941C2D15
:100760002A853B854C855D850E94822BDF91CF9148
:100770001F910F91FF90EF90DF90CF900895EF922F
:10078000FF920F931F93CF93DF9389017901E40EBA
:10079000F51EEB010E151F0571F0C115F4E0DF0722
:1007A00050F4F999FECFCE010E940C35F8018193E7
:1007B0008F012196EFCFDF91CF911F910F91FF9085
:1007C000EF9008950F931F93CF93DF938C01DC017B
:1007D000D6968D919C91D797DC01ED91FC9102808A
:1007E000F381E02D98014EE250E060E070E0099561
:1007F000CEE2D0E0F80186A997A9DC01ED91FC9149
:100800009E01215F3F4F200F311F0280F381E02DB9
:1008100047E250E0BE010995A796CE39B2E0DB076A
:1008200049F7DF91CF911F910F910895CF93DF93F7
:10083000FC0186A997A9EC01A881B9819F01225DDD
:100840003F4F1296ED91FC91139748E050E06EE90E
:1008500072E0DF91CF910994CF93DF93EC018EE2A8
:10086000DE011D928A95E9F7FE01FD96CE018355C2
:100870009D4F27E2DF01322F1D923A95E9F7B79697
:10088000E817F907B9F7FE01BE9688E0DF011D926F
:100890008A95E9F7CE010E94E203CE01DF91CF9164
:1008A0000C9416040F931F93CF93DF93EC01488DA4
:1008B000598D6A8D7B8D4C960E94CE2368EE73E035
:1008C00080E090E00E942629EBADFCAD86A5882350
:1008D000E1F18E010E5F1F4F80A58F9387A18F934B
:1008E00081E091E09F938F931F930F930E94842E3A
:1008F000E881F9810280F381E02DB801CE010995EC
:100900006CED75E080E090E00E942629E881F98195
:100910000280F381E02D6CE071E0CE0109956CED71
:1009200075E080E090E00E9426298BAD9CADFC0133
:1009300016A60F900F900F900F900F900F90DF91D1
:10094000CF911F910F910C941604DF91CF911F91BD
:100950000F910895CF93DF93EC01662371F161E06D
:100960008A810E94892AED81FE81808D918D0E946D
:10097000622960E08A810E94892AED81FE81808D52
:10098000918D25E0AC01249FC001259F900D11247D
:100990000E94622961E08A810E94892AED81FE819C
:1009A000808D918D0E94622960E08A810E94892A4F
:1009B000ED81FE81808D918D2DC061E08A810E9444
:1009C000892AED81FE81808D918D0E94622960E0EF
:1009D0008A810E94892AED81FE81808D918D0E94FD
:1009E000622961E08A810E94892AED81FE81808DE1
:1009F000918D0E94622960E08A810E94892AED819E
:100A0000FE81808D918D25E0AC01249FC001259F42
:100A1000900D1124DF91CF910C9462294F925F9237
:100A20006F927F92AF92BF92CF92DF92EF92FF923E
:100A30000F931F93CF93DF93EC01E62EED81FE81A0
:100A4000F7889AE0B92ECC24C394D12C38E2A32E97
:100A5000F7FC7FC0ED81FE81438C548C658C768CD5
:100A600061E08A810E94892AED81FE81808D918DCD
:100A70000E94622960E08A810E94892AED81FE81BC
:100A8000208D318DA90156954795B29EC001B39E28
:100A9000900D1124840F951F0E94622909E110E036
:100AA000D301C201002E04C0B695A79597958795EE
:100AB0000A94D2F7682F6170CE010E94AA040150F7
:100AC000110970F760E0CE010E94AA046E2DCE01DC
:100AD0000E94AA0403E010E0C601002E02C0880FA5
:100AE000991F0A94E2F7092E000CAA0BBB0BED81AB
:100AF000FE81478D50A161A172A184239523A62375
:100B0000B72361E0892B8A2B8B2B09F460E0CE019F
:100B10000E94AA0401501109F8F661E08A810E943E
:100B2000892AED81FE81808D918D0E94622960E08D
:100B30008A810E94892AED81FE81808D918D9C01A0
:100B4000A29EC001A39E900D11240E946229FA94D6
:100B50007FCFDF91CF911F910F91FF90EF90DF90AA
:100B6000CF90BF90AF907F906F905F904F9008951F
:100B7000CF92DF92EF92FF920F931F93CF93DF9369
:100B80001F92CDB7DEB78C01E62EDC011F968C914B
:100B9000882321F060E0FF24F39402C061E0F12C8F
:100BA000D8011596ED91FC911697C08CD18CC1148B
:100BB000D10419F4F801C780D084D80112968C9121
:100BC00079830E94892AEC9CC001ED9C900D112430
:100BD0000E9462296F2DF80182810E94892A798101
:100BE0007C9DC0017D9D900D11240F90DF91CF91D0
:100BF0001F910F91FF90EF90DF90CF900C9462299E
:100C00004F925F926F927F928F929F92AF92BF921C
:100C1000CF92DF92EF92FF920F931F93CF93DF93C8
:100C2000EC014A015B01E12CF12C690181E0C81A59
:100C3000D108412C512C32014394ED81FE818789EA
:100C400090E0E816F906A4F58889882329F06985DB
:100C50007A85CE010E94B805860117FD1DC0D3011B
:100C6000C201002E04C0880F991FAA1FBB1F0A943F
:100C7000D2F788219921AA21BB21892B8A2B8B2B82
:100C800019F06D857E8502C06B857C85CE010E9442
:100C9000B80501501109E1CF8889811105C0698526
:100CA0007A85CE010E94B8058FEFE81AF80AC5CF01
:100CB000DF91CF911F910F91FF90EF90DF90CF9038
:100CC000BF90AF909F908F907F906F905F904F906C
:100CD0000895CF93DF93EC0161E08A810E94892A15
:100CE000ED81FE81808D918D0E94622960E08A8174
:100CF0000E94892AED81FE81808D918D9C01220FB9
:100D0000331F820F931FDF91CF910C9462293F9282
:100D10004F925F926F927F928F929F92AF92BF920B
:100D2000CF92DF92EF92FF920F931F93CF93DF93B7
:100D3000EC014A015B01E12CF12C690181E0C81A48
:100D4000D108412C512C3201439465E2362EED81BD
:100D5000FE81878990E0E816F9060CF056C08601FE
:100D600017FD32C0D301C201002E04C0880F991FA5
:100D7000AA1FBB1F0A94D2F788219921AA21BB215F
:100D8000892B8A2B8B2B21F0CE010E94690619C07A
:100D900061E08A810E94892AED81FE81808D918D9A
:100DA0009C01220F331F820F931F0E94622960E073
:100DB0008A810E94892AED81FE81808D918D0E9419
:100DC000622901501109CCCFCE010E94690661E071
:100DD0008A810E94892AED81FE81808D918D0E94F9
:100DE000622960E08A810E94892AED81FE81808DDE
:100DF000918D9C01329EC001339E900D11240E9462
:100E000062293FEFE31AF30AA2CFDF91CF911F913E
:100E10000F91FF90EF90DF90CF90BF90AF909F9099
:100E20008F907F906F905F904F903F900895CF93F9
:100E3000DF93EC010E94FF01ED81FE818689811123
:100E400006C060E0CE01DF91CF910C940E05813099
:100E500091F0228D478D50A161A172A130E08230C6
:100E600029F4CE01DF91CF910C948706CE01DF915A
:100E7000CF910C940006DF91CF910895CF93DF932B
:100E8000EC010E94F301ED81FE818689811106C08B
:100E900061E0CE01DF91CF910C940E05813091F08D
:100EA000228D438D548D658D768D30E0823029F40E
:100EB000CE01DF91CF910C948706CE01DF91CF91C7
:100EC0000C940006DF91CF910895FC0110821182ED
:100ED000128213821486158616861786108A118A46
:100EE000128A0895CF93DF93EC011E821F82089629
:100EF0000E946507CE014B96DF91CF910C94650758
:100F0000CF93DF93FC012089211109C0EC010E94DD
:100F1000F528688379838A839B8381E0888BDF91BE
:100F2000CF9108950F931F93CF93DF93FC012289F4
:100F3000222311F080E01FC0EC010E94F5280881F7
:100F400019812A813B81DC01CB01801B910BA20B13
:100F5000B30B88879987AA87BB870C811D812E8157
:100F60003F8180179107A207B30720F308871987ED
:100F70002A873B8781E0DF91CF911F910F910895E0
:100F80002F923F924F925F926F927F928F929F9299
:100F9000AF92BF92CF92DF92EF92FF920F931F9387
:100FA000CF93DF9300D000D0CDB7DEB79C838B8387
:100FB0004A015B0168017901DC0116968C91169754
:100FC00014962D903C9015971296ED91FC911397E5
:100FD000FA83E9838823C9F187E2829D8001839D9A
:100FE000100D11240E0F1F1FF801E05CFF4FD801F8
:100FF000A45BBF4F2D913D914D915C9160817181BA
:10100000828193810E94822B2B013C01F801E05BDD
:10101000FF4F2081318142815381C701B6010E9477
:101020001C2D9B01AC01C301B2010E94812B9B01CD
:10103000AC0111E0C501B4010E94172D18160CF087
:1010400010E081E0912E982637C087E2829D8001D2
:10105000839D100D112429813A81020F131FF8017D
:10106000E05CFF4FD801A85BBF4F2D913D914D91A2
:101070005C9160817181828193810E94822B2B011E
:101080003C01F801E05BFF4F2081318142815381B7
:10109000C701B6010E941C2D9B01AC01C301B20126
:1010A0000E94812B9B01AC01C501B4010E94EE2B73
:1010B000982E991C9924991C27E2229DC001239DFA
:1010C000900D1124A981BA818A0F9B1FFC01E45A5B
:1010D000FF4F208131812115310511F13296808138
:1010E0009181892BE9F00B811C81085F1F4F9920AA
:1010F00009F4B2C0EB81FC81818D882309F45BC0C7
:1011000084899589A689B78984879587A687B787B3
:10111000C8010E948007C8010E949207811159C02E
:10112000EB81FC81A480B5800281138187E28A9DD6
:10113000F0018B9DF00D1124E00FF11FE05AFF4FDD
:10114000408051806280738020E030E0A901C301BB
:10115000B2010E94172D181644F4A7019601C3018D
:10116000B2010E94EE2B87FD912C27E22A9DC0013F
:101170002B9D900D1124080F191FD801A45BBF4FA0
:10118000F801E85BFF4F20813181428153816D91ED
:101190007D918D919C910E94EE2B87FD67C0AB8164
:1011A000BC8116968C911697891509F462C081E06E
:1011B00017968C935EC048EE53E0249FC001259F94
:1011C000900D349F900D1124A0E0B0E0EB81FC81E4
:1011D0009BCFAB81BC811296ED91FC911397149635
:1011E0002D913C91159747E2429FC001439F900D7E
:1011F0001124E80FF91FE25AFF4F208131815D0170
:10120000BBE1AB0EB11CEB81FC8184A5882349F0C6
:1012100087A190A5A1A5B2A5878F90A3A1A3B2A3F2
:1012200013C088EE93E0289FA001299F500D389F9E
:10123000500D112460E070E0AB81BC815F964D934E
:101240005D936D937C939297C5010E948007C501C1
:101250000E949207882341F0C8010E9465078B8194
:101260009C814B960E946507912C5ACF81E098266D
:1012700096CFEB81FC819682892D0F900F900F9075
:101280000F90DF91CF911F910F91FF90EF90DF9022
:10129000CF90BF90AF909F908F907F906F905F9016
:1012A0004F903F902F90089560E070E0FC018081A6
:1012B0000C94C529CF93DF93EC01E881F981028476
:1012C000F385E02D09951816190654F58D30910512
:1012D00061F024F48A30910591F422C084319105A3
:1012E000F9F08F3F910559F41BC08E899F891F8AA1
:1012F0001E8A18161906A4F4CE01029613C02E8970
:101300003F892331310560F4A9014F5F5F4F5F8B47
:101310004E8BFE01E20FF31F8283C40FD51F1A828A
:1013200080E090E0DF91CF910895CF93DF93EC01BF
:1013300088859985DC01ED91FC910190F081E02D8B
:10134000099569AF7AAF8BAF9CAFE885F9851682B6
:10135000DF011796ED5BFF4F6D937D938D939D930A
:10136000AE17BF07C9F7DF91CF910895CF93DF93F1
:10137000EC011BAA1CAA1DAA8A859B85DC01ED91A4
:10138000FC910280F381E02D099518AE1FAACE01D1
:101390000C960E94650782E08AABFE01EB5BFF4F73
:1013A0001082CA5BDF4F1882DF91CF9108950F93AF
:1013B0001F93CF93DF93EC018B010E94B60918AF06
:1013C0000FAB8C819D81DC0115961C930E931497B5
:1013D000ED91FC910280F381E02D09952FA938ADA4
:1013E0008E819F81FC01358324830190F081E02D63
:1013F0000280F381E02D0995FE01EF5BFF4F89AD7F
:101400009AADABADBCAD80839183A283B383DF91F2
:10141000CF911F910F9108950F931F93CF93DF9357
:10142000EC018E8D882391F01E8E0E94F5280C8988
:101430001D892E893F89DC01CB01801B910BA20BFA
:10144000B30B8C879D87AE87BF8712C081E08E8FDC
:101450000E94F5280C851D852E853F85DC01CB017A
:10146000801B910BA20BB30B8C8B9D8BAE8BBF8B18
:10147000DF91CF911F910F9108954F925F926F92DC
:101480007F928F929F92AF92BF92CF92DF92EF9214
:10149000FF920F931F93CF93DF93DC015E962C9105
:1014A000211134C2F62EEC018C01015E1F4FC801E0
:1014B0000E948007C8010E949207882309F47DC01A
:1014C000C8010E94650788859985DC01ED91FC9132
:1014D0000190F081E02D09954B015C0169AF7AAF75
:1014E0008BAF9CAF20E030E040EF52EC0E94EE2B3F
:1014F000FE01EB5BFF4F6F0187FF03C084E0808339
:1015000001C01082E885F9858681DF0124E0829F91
:10151000A00DB11D112417968D929D92AD92BC9293
:101520001A978F5F8F3010F4868301C016828E0168
:101530000A5B1F4FD8018C9181110AC049AD5AAD89
:101540006BAD7CADFE01FD96408351836283738356
:10155000FF2051F0E885F9859681911105C0E88159
:10156000F98195A5911178C18E819F81DC01ED9162
:10157000FC910680F781E02D0995811102C0F801E8
:101580001082E881F98195A5D8018C91981790F483
:101590001C92FE01FD96208131814281538169AD0B
:1015A0007AAD8BAD9CAD0E94EE2B18161CF083E03B
:1015B000F60180838AA98F5F8AAB8E819F81DC01CF
:1015C000ED91FC910480F581E02D0995811148C1D0
:1015D0008C819D81DC01ED91FC910480F581E02DF1
:1015E000099581113DC18AA9823008F4A3C01AAAC5
:1015F0000A811B81F80180810E94A829BC01990FF2
:10160000880B990B0E94672C2FEC32ED47EA5CE3C4
:101610000E941C2D20E030E040E85EE30E94822B17
:10162000D8011196ED91FC91129723A134A145A107
:1016300056A10E94EE2B881F8827881F8EAB882317
:1016400029F081E0FE01EB5BFF4F8083FF2009F46E
:1016500055C0FE01EF5BFF4F408051806280738078
:10166000EE81FF81848195810280F381E02DE4A4E5
:1016700027E2289F8001299F100D11240E0F1F1FA4
:101680006801B0E4CB0ED11C6E2D70E080E090E0DC
:101690000E94672CF60120813181428153810E9492
:1016A000822B4B015C019B01AC0169AD7AAD8BAD26
:1016B0009CAD0E94172D18160CF5EE20F9F0A5012F
:1016C0009401C301B2010E94172D1816BCF0D80175
:1016D000A45BBF4FF801E85BFF4F2081318142815D
:1016E00053816D917D918D919C910E94EE2B87FD90
:1016F00005C082E0FE01EB5BFF4F80832DA98A8548
:101700009B85222381F0FF2071F0FE01EB5BFF4FF0
:101710002081211108C0DC01ED91FC910190F08144
:10172000E02D09950AC0DC01ED91FC910280F38166
:10173000E02D0995FF2009F4E9C0C9ACDAACEBACA7
:10174000FCACE881F9818481882371F08C819D81D2
:10175000DC01ED91FC910190F081E02D00E010E0C2
:101760009801B701A60136C08E809F80D401ED910B
:10177000FC91A080B18048855985FA012681E22F2D
:10178000F0E0211107C0DA01DF966D917D918D9116
:101790009C910EC0DF011197AA0FBB1FAA0FBB1FA0
:1017A000A40FB51F17966D917D918D919C911A97FD
:1017B000EE0FFF1FEE0FFF1FE40FF51F278130858F
:1017C000418552850E94812B8B019C01B701A601A6
:1017D000C401F50109958DAB8CA9811139C0EE8149
:1017E000FF81448155812281338117E2149FC0011A
:1017F000159F900D1124820F931FDC01A45BBF4F36
:10180000FC01E85BFF4F20813181428153816D9162
:101810007D918D919C910E94EE2BE881F9812FA9F9
:1018200038AD87FF20C0129FC001139F900D112477
:10183000E80FF91FE05CFF4F208131814281538125
:10184000C701B6010E94EE2B181614F081E08CAB94
:101850008CA981111CC05AC08F5FD8018C9384CE93
:1018600082E08AABC0CE129FC001139F900D11245D
:10187000E80FF91FE05CFF4F2081318142815381E5
:10188000C701B6010E94172D87FFE0CFE1CFE881A5
:10189000F9812FA938AD47E2429FC001439F900DC7
:1018A0001124E80FF91FEC5BFF4F20813181428149
:1018B0005381A0E6BAEE0E94E42D8E01045F1F4F13
:1018C0002D8D222349F0888D998DAA8DBB8D888B13
:1018D000998BAA8BBB8B04C0688B798B8A8B9B8B73
:1018E000C8010E948007C801DF91CF911F910F911D
:1018F000FF90EF90DF90CF90BF90AF909F908F9030
:101900007F906F905F904F900C94920780E0DF91F2
:10191000CF911F910F91FF90EF90DF90CF90BF90EC
:10192000AF909F908F907F906F905F904F900895B1
:10193000CF93DF93EC011FA218A61EA21F8E18A240
:1019400019A21AA21BA21DA21CA28E819F810E9415
:1019500054098C819D810E94B6098C819D81DF9103
:10196000CF910C9495090F931F93CF93DF93EC01C4
:101970008A018EA181111DC081E08EA38881998189
:10198000DC01ED91FC910680F781E02D0995F801CD
:10199000208188819981DC01ED91FC910084F185A1
:1019A000E02D222319F06BE071E002C069E071E0E4
:1019B000099588819981DC01ED91FC910284F38580
:1019C000E02D09959C01C0970297F0F41EA2888132
:1019D00099812033310559F4F8011082DC01ED9131
:1019E000FC910084F185E02D67E071E00BC021E0FF
:1019F000F8012083DC01ED91FC910084F185E02D5C
:101A000065E071E0099509C02737310531F02837C5
:101A1000310529F4CE010E94980C81E005C02136E1
:101A2000310509F41EA280E0DF91CF911F910F9143
:101A30000895AF92BF92CF92DF92EF92FF920F93F1
:101A40001F93CF93DF93EC015B016A018EA181119B
:101A500026C0DA016D917D918D919C910E94672C39
:101A60007E01BAE2EB0EF11C870120E041E00E940A
:101A7000122E81E08EA388819981DC01ED91FC9189
:101A80000680F781E02DB501099588819981DC01F7
:101A9000ED91FC910480F581E02DB70109958881D5
:101AA00099810E945A098C01009769F162E271E004
:101AB0000E94662E892B49F164E271E0C8010E9400
:101AC000662E892B11F41EA21EC066E271E0C801C9
:101AD0000E94662E892B21F4CE010E94980C15C01D
:101AE000C8010E94362EF60160837183828393833E
:101AF00088819981DC01ED91FC910480F581E02DD4
:101B0000B801099502C080E001C081E0DF91CF916A
:101B10001F910F91FF90EF90DF90CF90BF90AF900B
:101B20000895AF92BF92CF92DF92EF92FF920F9300
:101B30001F93CF93DF93EC015B016A018EA18111AA
:101B400024C0DA016D917D918D919C917E01BAE264
:101B5000EB0EF11C870122E041E00E94122E81E091
:101B60008EA388819981DC01ED91FC910680F7813B
:101B7000E02DB501099588819981DC01ED91FC91F9
:101B80000480F581E02DB7010995888199810E9433
:101B90005A098C01009769F162E271E00E94662E99
:101BA000892B49F164E271E0C8010E94662E892BFD
:101BB00011F41EA21EC066E271E0C8010E94662EEA
:101BC000892B21F4CE010E94980C15C0C8010E94F7
:101BD000322EF60160837183828393838881998199
:101BE000DC01ED91FC910480F581E02DB8010995AF
:101BF00002C080E001C081E0DF91CF911F910F9181
:101C0000FF90EF90DF90CF90BF90AF900895CF936B
:101C1000DF93EC018A819B810E942C048881998149
:101C2000DC01ED91FC910084F185E02D68EB70E022
:101C3000DF91CF9109940F931F93CF93DF9300D03F
:101C400000D0CDB7DEB78C01DC019096EC918E2FE1
:101C500090E08A31910508F05EC2FC01EC5CFF4F18
:101C60000C94DE2DD8011296ED91FC91139784818E
:101C70008983AE014F5F5F4F6DE571E0C8010E943F
:101C8000B30C882309F45CC2D8011296ED91FC9143
:101C900013978981848335C282E02EC0D8011296C1
:101CA000ED91FC91139786819781A085B1858983F9
:101CB0009A83AB83BC83AE014F5F5F4F68E571E0F1
:101CC000C8010E94910D882309F43AC2D8011296E6
:101CD000ED91FC91139789819A81AB81BC818683B8
:101CE0009783A087B187F80116A280A18F5F80A398
:101CF00027C284E004C085E0F801F9CF86E0D8016E
:101D000007C287E0F9CF88E0FACFD8011296ED91AB
:101D1000FC91139786859785A0E0B0E089839A832C
:101D2000AB83BC83AE014F5F5F4F63E571E0C801D9
:101D30000E94190D882309F403C2D8011296ED916F
:101D4000FC91139789819A8197878687DAC1D80198
:101D50001296ED91FC91139780899189A0E0B0E0F3
:101D600089839A83AB83BC83AE014F5F5F4F6EE480
:101D700071E0C8010E94190D882309F4E1C1D8015E
:101D80001296ED91FC91139789819A81918B808BAA
:101D9000B8C1D8011296ED91FC911397828993896D
:101DA000A489B58989839A83AB83BC83AE014F5FD5
:101DB0005F4F69E471E0C8010E94910D882309F426
:101DC000BFC1D8011296ED91FC91139789819A8138
:101DD000AB81BC81828B938BA48BB58B84CF8EE03F
:101DE0008ECFD8011296ED91FC911397868990E0E1
:101DF000A0E0B0E089839A83AB83BC83AE014F5FE0
:101E00005F4F64E471E0C8010E94190D882309F452
:101E100097C1D8011296ED91FC9113978981868B19
:101E200070C1D8011296ED91FC911397878990E0CB
:101E3000A0E0B0E089839A83AB83BC83AE014F5F9F
:101E40005F4F6FE371E0C8010E94190D882309F408
:101E500077C1D8011296ED91FC9113978981878BF8
:101E600050C1D8011296ED91FC911397808D918D00
:101E7000A0E0B0E089839A83AB83BC83AE014F5F5F
:101E80005F4F6AE371E0C8010E94190D882309F4CD
:101E900057C1D8011296ED91FC91139789819A81CF
:101EA000918F808F2EC1D8011296ED91FC911397DE
:101EB000828D90E0A0E0B0E089839A83AB83BC83FD
:101EC000AE014F5F5F4F65E371E0C8010E94190DDD
:101ED000882309F435C1D8011296ED91FC9113972E
:101EE0008981828F0EC1D8011296ED91FC911397D2
:101EF000838D948DA58DB68D89839A83AB83BC83A6
:101F0000AE014F5F5F4F60E371E0C8010E94190DA1
:101F1000882309F415C1D8011296ED91FC9113970D
:101F200089819A81AB81BC81838F948FA58FB68F75
:101F3000DACED8011296ED91FC911397878D90A17E
:101F4000A1A1B2A189839A83AB83BC83AE014F5F09
:101F50005F4F6BE271E0C8010E94190D882309F4FC
:101F6000EFC0D8011296ED91FC91139789819A8167
:101F7000AB81BC81878F90A3A1A3B2A3B4CED801BB
:101F80001296ED91FC91139783A194A1A5A1B6A1FE
:101F900089839A83AB83BC83AE014F5F5F4F66E258
:101FA00071E0C8010E94910D882309F4C9C0D801CD
:101FB0001296ED91FC91139789819A81AB81BC8136
:101FC00083A394A3A5A3B6A38ECED8011296ED91B8
:101FD000FC91139787A190A5A0E0B0E089839A8334
:101FE000AB83BC83AE014F5F5F4F61E271E0C8011C
:101FF0000E94190D882309F4A3C0D8011296ED910F
:10200000FC91139789819A8190A787A37AC0D80100
:102010001296ED91FC91139781A592A5A0E0B0E0F6
:1020200089839A83AB83BC83AE014F5F5F4F6CE1C2
:1020300071E0C8010E94190D882309F481C0D801FC
:102040001296ED91FC91139789819A8192A781A7AD
:1020500058C0D8011296ED91FC91139783A58983FE
:10206000AE014F5F5F4F67E171E0C8010E94B30CA2
:10207000882309F465C0D8011296ED91FC9113975D
:10208000898183A73EC0D8011296ED91FC911397E8
:1020900085A590E0A0E0B0E089839A83AB83BC8300
:1020A000AE014F5F5F4F62E171E0C8010E94190D00
:1020B000882309F445C0D8011296ED91FC9113973D
:1020C000898185A71EC0D8011296ED91FC911397C6
:1020D00084A590E0A0E0B0E089839A83AB83BC83C1
:1020E000AE014F5F5F4F6DE071E0C8010E94190DB6
:1020F000882331F1D8011296ED91FC9113978981D3
:1021000084A796961C92969790968C9190978F5F45
:1021100090968C9315C0F801828193810E94E2030E
:10212000D8015F961C925F9790961C92909712969A
:102130008D919C91139721E0FC0126A70E94160423
:102140000F900F900F900F90DF91CF911F910F91F3
:102150000895FF920F931F93CF93DF9300D000D089
:10216000CDB7DEB78C01DC019196EC918E2F90E01B
:102170008E30910508F0F7C2FC01E25BFF4FD801F9
:1021800094968D919C9195970C94DE2D092E000CC0
:10219000AA0BBB0B89839A83AB83BC83AE014F5FD1
:1021A0005F4F60E071E0C8010E94190D882309F4B7
:1021B000E4C289819A81AB81BC8180319105A105FE
:1021C000B10534F4F80195A384A381A18F5F81A3A5
:1021D000D80196961C92D1C2D8011296ED91FC912D
:1021E000139767E2F62EF89E9001F99E300D1124A8
:1021F000E20FF31F87AD8983AE014F5F5F4F6BEF37
:1022000070E0C8010E94B30C882309F4B6C2D8015B
:102210001296ED91FC91139794962D913C91959780
:10222000F29EC001F39E900D1124E80FF91F8981E1
:1022300087AF4DC2D8011296ED91FC91139757E2EA
:10224000F52EF89E9001F99E300D1124E20FF31F38
:1022500086AD8983AE014F5F5F4F66EF70E0C801C6
:102260000E94B30C882309F488C2D8011296ED911C
:10227000FC91139794962D913C919597F29EC001F5
:10228000F39E900D1124E80FF91F898186AF1FC2BC
:10229000D8011296ED91FC91139747E2F42EF89E27
:1022A0009001F99E300D1124E20FF31F85AD898353
:1022B000AE014F5F5F4F61EF70E0C8010E94B30C49
:1022C000882309F45AC2D8011296ED91FC91139714
:1022D00094962D913C919597F29EC001F39E900D9E
:1022E0001124E80FF91F898185AFF1C1D801129639
:1022F000ED91FC91139737E2F32EF89E9001F99E31
:10230000300D1124E20FF31FE05CFF4F80819181BB
:10231000A281B38189839A83AB83BC83AE014F5F73
:102320005F4F6CEE70E0C8010E94910D882309F4A4
:1023300024C2D8011296ED91FC91139794962D9199
:102340003C919597F29EC001F39E900D1124E80FE9
:10235000F91FE05CFF4FF9C1D8011296ED91FC9195
:10236000139727E2F22EF89E9001F99E300D11246A
:10237000E20FF31FEC5BFF4F80819181A281B3815B
:1023800089839A83AB83BC83AE014F5F5F4F67EE57
:1023900070E0C8010E94190D882309F4EEC1D8012C
:1023A0001296ED91FC91139794962D913C919597EF
:1023B000F29EC001F39E900D1124E80FF91FEC5B13
:1023C000FF4F89819A81AB81BC8180839183A283F5
:1023D000B383C3C1D8011296ED91FC911397B7E274
:1023E000FB2EF89E9001F99E300D1124E20FF31F91
:1023F000E85BFF4F80819181A281B38189839A83B9
:10240000AB83BC83AE014F5F5F4F62EE70E0C801EB
:102410000E94910D882309F4B0C1D8011296ED9164
:10242000FC91139794962D913C919597F29EC00143
:10243000F39E900D1124E80FF91FE85BFF4F85C153
:10244000D8011296ED91FC911397A7E2FA2EF89E0F
:102450009001F99E300D1124E20FF31FE45BFF4F52
:1024600080819181A281B38189839A83AB83BC836C
:10247000AE014F5F5F4F6DED70E0C8010E94910D9E
:10248000882309F47AC1D8011296ED91FC91139733
:1024900094962D913C919597F29EC001F39E900DDC
:1024A0001124E80FF91FE45BFF4F4FC1D8011296CA
:1024B000ED91FC91139777E2F72EF89E9001F99E2B
:1024C000300D1124E20FF31FE05BFF4F80819181FB
:1024D000A281B38189839A83AB83BC83AE014F5FB2
:1024E0005F4F68ED70E0C8010E94910D882309F4E8
:1024F00044C1D8011296ED91FC91139794962D91B9
:102500003C919597F29EC001F39E900D1124E80F27
:10251000F91FE05BFF4F19C1D8011296ED91FC91B4
:10252000139767E2F62EF89E9001F99E300D112464
:10253000E20FF31FEC5AFF4F80819181A281B3819A
:1025400089839A83AB83BC83AE014F5F5F4F63ED9A
:1025500070E0C8010E94910D882309F40EC1D801D2
:102560001296ED91FC91139794962D913C9195972D
:10257000F29EC001F39E900D1124E80FF91FEC5A52
:10258000FF4FE3C0D8011296ED91FC91139757E2EB
:10259000F52EF89E9001F99E300D1124E20FF31FE5
:1025A000E85AFF4F80819181A281B38189839A8308
:1025B000AB83BC83AE014F5F5F4F6EEC70E0C80130
:1025C0000E94910D882309F4D8C0D8011296ED918C
:1025D000FC91139794962D913C919597F29EC00192
:1025E000F39E900D1124E80FF91FE85AFF4FADC07C
:1025F000D8011296ED91FC91139747E2F42EF89EC4
:102600009001F99E300D1124E20FF31FE45AFF4FA1
:1026100080819181A0E0B0E089839A83AB83BC8301
:10262000AE014F5F5F4F69EC70E0C8010E94190D69
:10263000882309F4A2C0D8011296ED91FC9113975A
:1026400094962D913C919597F29EC001F39E900D2A
:102650001124E80FF91FE45AFF4F35C0D801129634
:10266000ED91FC91139737E2F32EF89E9001F99EBD
:10267000300D1124E20FF31FE25AFF4F8081918148
:10268000A0E0B0E089839A83AB83BC83AE014F5F47
:102690005F4F64EC70E0C8010E94190D882309F4B3
:1026A0006CC0D8011296ED91FC91139794962D91E0
:1026B0003C919597F29EC001F39E900D1124E80F76
:1026C000F91FE25AFF4F89819A8191838083969600
:1026D0001C92969791968C9191978F5F91968C937F
:1026E0004CC0D8011296ED91FC91139727E2F22E7F
:1026F000F89E9001F99E300D1124E20FF31FE05A6D
:10270000FF4F80819181A281B38189839A83AB83BA
:10271000BC83AE014F5F5F4F6FEB70E0C8010E945A
:10272000910D882351F1D8011296ED91FC911397E8
:1027300094962D913C919597F29EC001F39E900D39
:102740001124E80FF91FE05AFF4F89819A81AB816C
:10275000BC8180839183A283B383F80116A281A1F7
:102760008F5F81A30AC0D80112968D919C91139717
:102770000E94E203F801178E11A20F900F900F90A4
:102780000F90DF91CF911F910F91FF9008950F93BC
:102790001F93CF93DF93DC011296ED91FC91139779
:1027A00023A5222309F451C0EC018C01045F1F4FC3
:1027B000C8010E948007C8010E949207882309F47B
:1027C00044C0C8010E946507EA81FB8181E087A7B8
:1027D0002C813D81D901D4968C91D4970CA11DA157
:1027E0008823A1F050968D919D910D90BC91A02DC4
:1027F000E9014C895D896E897F89841B950BA60B45
:10280000B70B82AB93ABA4ABB5AB16C087E2809F8E
:10281000D001819FB00D1124AE0FBF1FAC5BBF4F25
:102820002D913D914D915C91A0E6BAEE0E94E42D70
:1028300062AB73AB84AB95AB11AB00ABCF01DF9157
:10284000CF911F910F910C941604DF91CF911F919E
:102850000F9108958F929F92AF92BF92CF92DF9285
:10286000EF92FF920F931F93CF93DF93EC01D62E3D
:10287000C22E88819981DC01ED91FC910680F7815F
:10288000E02D442319F06EE871E002C06CE871E0BD
:1028900009957E01BAE2EB0EF11C0E94F528FE01BB
:1028A000FE9680809180A280B380681979098A0998
:1028B0009B090E94652C870120E041E00E94122EB6
:1028C00088819981DC01ED91FC910280F381E02DFA
:1028D000B701099588819981DC01ED91FC91068011
:1028E000F781E02D69E871E009956CA17DA1072EC3
:1028F000000C880B990B0E94672C20E041E00E949D
:10290000122E88819981DC01ED91FC910280F38186
:10291000E02DB701099588819981DC01ED91FC9149
:102920000680F781E02D66E871E009958885998534
:10293000CC2041F0DC01ED91FC910190F081E02D83
:10294000099515C0FC012681211106C0FF96608102
:102950007181828193810AC0FC0134E0239FE00DE4
:10296000F11D11246381748185819681870122E0A4
:1029700041E00E94122E88819981DC01ED91FC9149
:102980000280F381E02DB701099588819981DC01EE
:10299000ED91FC910680F781E02D63E871E00995E7
:1029A000E885F9852681422F50E0211107C0DF011B
:1029B000DF966D917D918D919C910EC0DA011197FA
:1029C000AA0FBB1FAA0FBB1FAE0FBF1F17966D919B
:1029D0007D918D919C911A979A01220F331F220F9E
:1029E000331FE20FF31F27813085418552850E94F6
:1029F000812B870122E042E00E94122E888199817A
:102A0000DC01ED91FC910280F381E02DB701099585
:102A1000EC81FD81EB5BFF4F8081882359F1888138
:102A20009981DC01ED91FC910680F781E02D60E851
:102A300071E00995EC81FD81EB5BFF4F608170E0F7
:102A400080E090E00E94652C20E041E00E94122E80
:102A500088819981DC01ED91FC910280F381E02D68
:102A6000B7010995EE81FF8164EB70E080810E94DF
:102A7000C52904C08E819F810E9454098881998153
:102A8000DC01ED91FC910680F781E02D6DE771E0AE
:102A90000995EA81FB812CA13DA147E2429FC0013B
:102AA000439F900D1124E80FF91FE05CFF4F6081F8
:102AB000718182819381870122E041E00E94122E80
:102AC00088819981DC01ED91FC910280F381E02DF8
:102AD000B701099588819981DC01ED91FC9106800F
:102AE000F781E02D6AE771E0099560E070E0CB01C5
:102AF0000E94672C20E041E00E94122E888199817B
:102B0000DC01ED91FC910280F381E02DB701099584
:102B100088819981DC01ED91FC910680F781E02D9F
:102B200067E771E00995EC81FD8182859385DC0181
:102B3000ED91FC910680F781E02D0995A881B9817E
:102B4000ED91FC9111970680F781E02D882319F013
:102B500065E771E002C063E771E0CD010995888106
:102B60009981DC01ED91FC910680F781E02D60E711
:102B700071E00995EC81FD810280F381E02D808177
:102B80000E94A829BC01990F880B990B0E94672C01
:102B90002FEC32ED47EA5CE30E941C2D20E030E090
:102BA00040E85EE30E94822B870122E041E00E9420
:102BB000122E88819981DC01ED91FC910280F381D4
:102BC000E02DB7010995EC81FD8184A9882399F155
:102BD00088819981DC01ED91FC910680F781E02DDF
:102BE0006DE671E00995EC81FD8180899189A2896A
:102BF000B38984889588A688B788BC01CD016819F7
:102C000079098A099B0928EE33E040E050E00E94F0
:102C10009D2DCA01B9010E94652C20E041E00E946F
:102C2000122E88819981DC01ED91FC910280F38163
:102C3000E02DB7010995EA81FB818481882329F180
:102C400088819981DC01ED91FC910680F781E02D6E
:102C50006AE671E00995EC81FD810480F581E02D43
:102C6000E85BFF4F6081718182819381870122E05F
:102C700041E00E94122E88819981DC01ED91FC9146
:102C80000280F381E02DB7010995DD20C9F088812C
:102C90009981DC01ED91FC910680F781E02D67E6DA
:102CA00071E0099589A5882359F088819981DC0113
:102CB000ED91FC910680F781E02D64E671E00995C5
:102CC00088819981DC01ED91FC910084F185E02DF2
:102CD00062E671E0DF91CF911F910F91FF90EF902D
:102CE000DF90CF90BF90AF909F908F900994EF921C
:102CF000FF920F931F93CF93DF93EC018EA181116D
:102D000054C088859985DC01ED91FC910480F581A2
:102D1000E02D0995A881B981ED91FC91119706806C
:102D2000F781E02D813019F465E971E002C062E9B4
:102D300071E0CD0109957E01BAE2EB0EF11C87012D
:102D400020E041E060E070E080E891E40E94122E13
:102D500088819981DC01ED91FC910280F381E02D65
:102D6000B701099588819981DC01ED91FC9106807C
:102D7000F781E02D60E971E00995EA81FB816081CE
:102D80007181828193810E94652C20E041E00E9444
:102D9000122E88819981DC01ED91FC910480F581EE
:102DA000E02DB701099581E08EA388819981DC012E
:102DB000ED91FC910284F385E02D09958C0160E092
:102DC0008C819D810E943D0A0136110509F461C084
:102DD00004F50233110591F15CF40033110509F497
:102DE00058C00133110509F055C01EA281E02BC067
:102DF0000333110531F10433110509F04BC08C8107
:102E00009D81DF91CF911F910F91FF90EF900C94D6
:102E10000C0A0836110529F144F40336110551F165
:102E200004361105B9F585E00EC00037110569F0CB
:102E30000437110579F51EA284E005C01EA282E0C8
:102E400002C01EA283E08F8F25C021E040E060E039
:102E5000CE01DF91CF911F910F91FF90EF900C94D5
:102E60002A148A859B85DC01ED91FC910190F0810B
:102E7000E02D08C08A859B85DC01ED91FC910280E4
:102E8000F381E02DDF91CF911F910F91FF90EF9093
:102E900009941EA2DF91CF911F910F91FF90EF90A7
:102EA0000895EF92FF920F931F93CF93DF9300D07B
:102EB00000D0CDB7DEB78C01DC0192968C918823CF
:102EC00021F0813009F444C010C1F80184A195A11A
:102ED000092E000CAA0BBB0B89839A83AB83BC839E
:102EE000AE014F5F5F4F6AEB70E0C8010E94190DA1
:102EF000882309F41CC149815A816B817C8140314E
:102F00005105610571050CF5D80195965C934E93BA
:102F100094971296ED91FC91139727E2249FC0019C
:102F2000259F900D1124E80FF91F85AD99968C937C
:102F3000999797961C92979798961C929897929625
:102F40008C9192978F5F92968C93F80116A2EFC0A6
:102F5000D8018D919C91DC01ED91FC910284F38567
:102F6000E02D09957C018237910509F4CFC0F80165
:102F7000EE5BFF4F80810E94B92A892B09F4C6C0FD
:102F8000F80184A195A1803191050CF0AAC00280BE
:102F9000F381E02D47E2489F9001499F300D1124B5
:102FA000E20FF31F27AD222309F496C0F1E6EF16D6
:102FB000F10449F420E040E0D80196966C91C801F4
:102FC0000E942A1409C0B4E3EB16F10429F4F801B5
:102FD000848195810E940C0AC8010E94C713D80100
:102FE00098968C91989781112DC081E098968C933A
:102FF000989794966D917C91959714968D919C914C
:1030000015970E94D709D8011296ED91FC9113975C
:1030100094962D913C91959747E2429FC001439F22
:10302000900D1124E80FF91F85AD99968C9399970F
:1030300096961C920E94F528F801FE966083718393
:103040008283938361E0F801848195810E943D0A27
:10305000882309F46CC0D8011296ED91FC91139766
:1030600094962D913C91959747E2429FC001439FD2
:10307000900D1124E80FF91F86AD882309F450C084
:1030800081E096968C93969799968C919997882340
:1030900049F01696ED91FC91179764EB70E08081F2
:1030A0000E94C529B7E7EB16F10449F4F8018681BF
:1030B00097810E945409D80196961C9231C0B2E6BD
:1030C000EB16F104A1F5F801868197810E9454095D
:1030D000D80199961C922BC00196F80195A384A360
:1030E00026C082A18F5F82A322C0F80182819381D2
:1030F000DC019B962C919B97222321F09F961C929A
:103100000E941604C8010E94980C11C0D8011296A2
:10311000ED91FC91139717A684E192968C9330CF92
:10312000F80184A195A1019695A384A310A60F9000
:103130000F900F900F90DF91CF911F910F91FF9003
:10314000EF9008951F93CF93DF93EC018FA181112E
:1031500035C011E01FA3EA81FB8187A5882371F1A7
:1031600017A61FA218A783E08F8F1AA38CA19DA179
:1031700027E2289FD001299FB00D1124AE0FBF1F59
:10318000DD968C9189A760A971A97DA36CA38C8120
:103190009D810E94D709EA81FB8182A993A9A4A9F4
:1031A000B5A9EC81FD811486158616861786808F59
:1031B000918FA28FB38F148E168E158FFE01EE5B4A
:1031C000FF4F80810E94B92A892B21F4CE010E94F1
:1031D000070E1F8EEC81FD8186A9FE01ED5BFF4F7E
:1031E000882311F060E001C061E080810E94892A9B
:1031F0008F8D8230C9F050F4882381F0813001F541
:10320000CE01DF91CF911F910C941B0E833091F072
:103210008530B1F4CE010E94070E12C0CE01DF91BD
:10322000CF911F910C947716CE01DF91CF911F9112
:103230000C94A910CE01DF91CF911F910C945117DE
:103240001F8EDF91CF911F9108950F931F93CF93FE
:10325000DF9361E083E00E944D2A61E083E00E94F9
:10326000892A8091900390919103DC01ED91FC916A
:103270000190F081E02D2AE533E04EE250E060E07D
:1032800070E00995CEE2D0E0809190039091910397
:10329000DC01ED91FC919E0127593C4F0190F0819A
:1032A000E02D47E250E0BE010995A796CE39B2E085
:1032B000DB0751F74091920350919303609194037F
:1032C0007091950380915A0390915B03A0915C03E8
:1032D000B0915D03481759076A077B0709F4ACC032
:1032E0008AE593E00E942C048091920390919303CD
:1032F000A0919403B091950380935A0390935B033C
:10330000A0935C03B0935D0381E0809388038DE418
:1033100094E0909382038093810380E090E0A0EE9C
:10332000B0E480937D0390937E03A0937F03B093DA
:10333000800383E08093700388E18093740310928C
:103340007303109272038FE790ECAEEBB0E08093C2
:10335000750390937603A0937703B09378038EE779
:1033600090ECAEEBB0E08093790390937A03A09356
:103370007B03B0937C0387E0809371038EEA97E42C
:10338000A1E8BFE38093600390936103A09362037D
:10339000B09363038AE080938603109287031092B0
:1033A0005E0388E893E1909369038093680384E661
:1033B00090E090936B0380936A0380E090E0A0E23A
:1033C000B1E480936C0390936D03A0936E03B0936C
:1033D0006F03E2EAF3E000E010E020E83FE34DECA9
:1033E0005CEC6CEC7DEB8DEC9CECACECBDE3108606
:1033F0001186128613861486158616861786008B0C
:10340000118B228B338B408351836283738384833C
:103410009583A683B783B796C6E0E231FC0739F7F8
:103420008AE593E00E94E2038AE593E00E94160495
:1034300081E08093960313C01092960380919003CD
:1034400090919103DC01ED91FC910190F081E02DD0
:1034500028E833E048E050E06EE972E0099585EA3B
:1034600092E00E94520461E08091E4020E944D2AA1
:10347000E091E702F091E80286898330C8F090E09D
:103480009C01235031090497079710F021E030E0A8
:10349000215031098AE0829FB001839F700D112471
:1034A00068567E4F4AE050E089EE92E00E945D2E21
:1034B00083EF92E00E94730360E08091A2020E9479
:1034C0004D2A61E08091A1020E944D2A8FE192E095
:1034D0000E941D0283E792E00E94720788ED91E04E
:1034E0000E94B60988ED91E00E94950962E0809102
:1034F000D6010E944D2A84E991E0DF91CF911F917E
:103500000F910C94980C84E991E00C94A2182F92DE
:103510003F924F925F926F927F928F929F92AF9263
:10352000BF92CF92DF92EF92FF920F931F93CF93B0
:10353000DF93E7E0F6E08CE291E091838083CAE5D7
:10354000D3E0FFABEEAB87E19CE9A4E0B0E088AF4D
:1035500099AFAAAFBBAF01E00CAF6CE08CE493E095
:103560000E943B1D6CE473E088E393E00E942C1EF4
:1035700083EF682E82E0782E1CE0F3011283D4835F
:10358000C383168280E491E09183808388E393E093
:103590009093370380933603058392EE492E92E091
:1035A000592EF2011382148288E0828384E391E031
:1035B00091838083D683C58380E091EEA0E0B0E064
:1035C0008093BD029093BE02A093BF02B093C0024D
:1035D0008AE491E0E5EAF2E09183808320E04BE029
:1035E0006AE081EC92E00E94A323D093E102C093B1
:1035F000E0028FE0E2EAF2E08083D093A402C0937D
:10360000A30289E08093A10223E7822E22E0922E7A
:10361000F401D383C283158214821682178286E650
:1036200091E09183808314861586168617868BE732
:1036300092E00E946507F401178E10A211A212A257
:103640008EE892E00E9465073FE1232E32E0332EA0
:10365000F101D383C28315821482168217828AE510
:1036600091E0918380831F921F9283E48F9380EF78
:103670008F931F938DEC8F9349E2A42E4CE5B42ECB
:103680004FE0C42E4EE3D42E1EEAE12E17E4F12EB5
:1036900001E811E42BE632E047E652E063E672E02F
:1036A00087E292E00E94792810926F0210927002D5
:1036B000109271021092720268EDE62E61E0F62E11
:1036C000F701D183C08382EA92E0938382833582BB
:1036D0002482978286827186608653864286108A0B
:1036E000118A128A138A84EE91E00E94650780EAAB
:1036F0009FE0A0E0B0E0F70183A394A3A5A3B6A345
:1037000087EF91E00E946507F70113AA14AA16AA91
:1037100010AE17AA11AE12AE13AE14AE109215026F
:1037200010921602109217021092180210921902AB
:1037300010921A0210921B0210921C0204E911E06E
:1037400085EA92E0F80191838083D383C283F58276
:10375000E48281EA92E0978386837186608653864D
:10376000428680E395E7A0E0B0E0808B918BA28B4E
:10377000B38B80EA91E00E946507F801178E10A2D2
:1037800011A212A213A215A214A216A217A282E0DD
:103790008093D60183E08093D7010F900F900F9014
:1037A0000F900F900F90DF91CF911F910F91FF908D
:1037B000EF90DF90CF90BF90AF909F908F907F90D1
:1037C0006F905F904F903F902F9008958AE491E022
:1037D0009093A6028093A50281EC92E00C944A2378
:1037E000CF93DF93EC016C96CE010E947922892B56
:1037F00029F0CE01DF91CF910C94EB2180E090E095
:10380000DF91CF910895FF920F931F93CF93DF9392
:10381000FC010081C181D281F8948981F02EF0945D
:103820008F21898378941DE7115029F182E090E07F
:103830000E94622988818023B9F3F8948A818F21BC
:103840008A838981802B8983789480EE91E00E941D
:103850006229F8948981F822F98286E490E00E9436
:1038600062298881082311E009F010E078948AE940
:1038700091E00E946229812FDF91CF911F910F91DA
:10388000FF9008951F93CF93DF93FC011081C181B6
:10389000D281812F809560FF12C0F8949A8189238C
:1038A0008A838981812B89838AE090E00E94622942
:1038B0008A81182B1A83789487E390E011C0F894DA
:1038C0009A8189238A838981812B898381E490E08D
:1038D0000E9462298A81182B1A83789485E090E0EF
:1038E000DF91CF911F910C9462290F931F93CF9377
:1038F000DF93FC011081C181D281F8948981812BF1
:1039000089838A81012F009580238A8383E090E058
:103910000E9462298981082309838AE090E00E943D
:103920006229C881789485E390E00E9462291C2373
:1039300081E009F480E0DF91CF911F910F9108950C
:10394000CF92DF92EF92FF920F931F93CF93DF936B
:103950001F92CDB7DEB76C01E62E08E010E0FF2421
:10396000F39461E08F2D8E2109F460E0C601498354
:103970000E94421CFF0C01501109498101151105DB
:1039800081F7411115C0F894D6011196ED91FC9183
:10399000129791818C918095892381831196ED9165
:1039A000FC91129792818C918095892382837894DF
:1039B0000F90DF91CF911F910F91FF90EF90DF90CB
:1039C000CF900895EF92FF920F931F93CF93DF93C1
:1039D0007C0108E010E0C0E0D1E0C7010E94751C46
:1039E0008111CD2BDD0F01501109B9F78C2FDF911B
:1039F000CF911F910F91FF90EF900895CF92DF929A
:103A0000EF92FF920F931F93CF93DF931F92CDB747
:103A1000DEB78C01F62E40E065E579830E94A01C9C
:103A2000CF2C7981D72E760188E0E80EF11CF601C3
:103A300061916F0140E0C8010E94A01CCE14DF0418
:103A4000B1F70F90DF91CF911F910F91FF90EF9001
:103A5000DF90CF90089540E06CEC0C94A01CFC012A
:103A6000138615861486DC011B9633961E92AE17BC
:103A7000BF07E1F708950F931F93CF938C01C62FD3
:103A800060E08C2F0E944D2A6C2F70E0FB01EE5EEF
:103A9000FD4FE491D801EC93FB01EA5DFD4FE49109
:103AA000F0E0EE0FFF1FE65CFD4F85919491F80169
:103AB00092838183C801CF911F910F910C942F1D88
:103AC000AF92BF92CF92DF92EF92FF920F931F932C
:103AD000CF93DF931F92CDB7DEB75C01D62EE72ED2
:103AE000FC018585811107C0C50149830E94031C23
:103AF0004981811106C0F50113861586148680E080
:103B00006AC0442319F040E060EF02C040E06CEE70
:103B1000C5010E94A01C01E0F12CC12C11E0C501DF
:103B20000E94751C682FC50169830E94751C6981FC
:103B3000613019F48130B9F433C04F2D50E068136F
:103B40001BC0F5018385181730F4E40FF51F83813E
:103B5000802349F402C0181731F060E0193058F49E
:103B6000F501148708C0F501EF0DF11D8381802B4D
:103B7000838361E009C0C12EF501E40FF51F938135
:103B8000802F809589238383C5010E94421C1F5F7B
:103B9000000F11F4F39401E0F7E0FF1508F0BFCF38
:103BA000113408F4A8CFF501C386C11002C081E02A
:103BB0008587F5018381882309F49DCFD50113966C
:103BC000ED2DFE2D9501255F3F4F8D918193A2171D
:103BD000B307D9F781E00F90DF91CF911F910F913B
:103BE000FF90EF90DF90CF90BF90AF900895DC01F1
:103BF00080E0615090F09D919827E92FEF70F0E000
:103C0000E252FE4F249192959F70E92FF0E0E2512D
:103C1000FE4FE4918E2F8227ECCF0895FB01808127
:103C2000883261F028F4803149F0823229F406C0EC
:103C30008B3321F0823411F080E0089581E0089503
:103C4000FC017783668314821582108289E0818368
:103C500081E0828383830895CF93DF93EC010E94F8
:103C6000201E1B8A1A8ADF91CF910895CF93DF938C
:103C7000EB0167E0CE010E94F71D91E02F818213D6
:103C800090E0892FDF91CF910895EF92FF920F93EB
:103C90001F93CF93DF938C017B01D42FFC0186818E
:103CA00097810E942F1DC0E041E0B701F801868195
:103CB00097810E94601D882359F0CD1306C0B7017B
:103CC000C8010E94361E811104C0CF5FDC1760F767
:103CD00080E0DF91CF911F910F91FF90EF900895B9
:103CE000CF92DF92EF92FF920F931F93CF93DF93C8
:103CF00000D0CDB7DEB78C017A01FC0186819781B7
:103D000069837A830E94031C69817A81882319F16F
:103D1000F801868197810E94FE1C40E06EEBF8015D
:103D2000868197810E94A01C6701F9E0EF0EF11CCB
:103D3000F801868197810E94E21CF60181936F0150
:103D4000EE15FF05A9F7F801868197810E94031CF3
:103D500091E0813009F090E0892F0F900F90DF9172
:103D6000CF911F910F91FF90EF90DF90CF9008952A
:103D7000CF93DF93EA010E94701E882339F068E038
:103D8000CE010E94F71D91E02885821390E0892FD3
:103D9000DF91CF910895EF92FF920F931F93CF93EE
:103DA000DF93EC018B017A018E819F810E94031CBD
:103DB000B8018E819F810E94FE1C40E06EE48E81DE
:103DC0009F810E94A01C40E0F70162818E819F814B
:103DD0000E94A01C40E0F70163818E819F810E94B8
:103DE000A01CF8018081803139F040E0F701648146
:103DF0008E819F810E94A01C8E819F810E94031C46
:103E0000B8018E819F810E94FE1C488168E48E81EA
:103E10009F810E94A01C64E170E080E090E00E941D
:103E200026298881882331F06AE070E080E090E004
:103E30000E9426298E819F81DF91CF911F910F9142
:103E4000FF90EF900C94031CEF92FF921F93CF937F
:103E5000DF9300D0CDB7DEB77C01FC01868197816E
:103E600069837A830E94031C69817A81F7018681C4
:103E700097810E94FE1C40E064EBF70186819781E8
:103E80000E94A01CF701868197810E94751C182F43
:103E9000F701868197810E94031C81E0111180E067
:103EA0000F900F90DF91CF911F91FF90EF900895A9
:103EB000CF93DF93CDB7DEB729970FB6F894DEBF67
:103EC0000FBECDBFFB0120812031D1F0AE014F5F8D
:103ED0005F4F0E94B81E882389F08D818F3361F077
:103EE00020F48F3159F489E00CC08F3519F08F37E9
:103EF00039F004C08BE005C08AE003C080E001C057
:103F00008CE029960FB6F894DEBF0FBECDBFDF91CF
:103F1000CF910895FF920F931F93CF93DF93CDB767
:103F2000DEB728970FB6F894DEBF0FBECDBF8C0169
:103F3000FC01868197810E942F1DF8011482158251
:103F400041E0BE016F5F7F4FF801868197810E943B
:103F5000601D8823E9F1BE016F5F7F4FC8010E9499
:103F6000361E882369F3F8018081811108C0BE01E3
:103F70006F5F7F4FC8010E94241F811125C0F80187
:103F8000F180BE016F5F7F4FC8010E94581F8F15DF
:103F900018F4F801818106C0BE016F5F7F4FC80130
:103FA0000E94581FF801818384818F5F8483BE0142
:103FB0006F5F7F4FC8010E940E1E882309F2F8012F
:103FC00085818F5F8583BCCF81E0F8018083D7CF67
:103FD00028960FB6F894DEBF0FBECDBFDF91CF910C
:103FE0001F910F91FF900895BF92CF92DF92EF92B1
:103FF000FF920F931F93CF93DF93CDB7DEB76197F7
:104000000FB6F894DEBF0FBECDBF7C016B01022F4F
:10401000493028F0142F4D3018F01CE001C019E091
:10402000B601C7010E94581F811303C0BB24B3947B
:1040300058C0AE014F5F5F4FB601C7010E94B81E66
:10404000B82E882309F44DC0F6018081803171F3C8
:104050001B3041F01C3021F01A3031F48FE305C0E1
:104060008FE703C08FE501C08FE18D83AE014F5F05
:104070005F4FB601C7010E94CB1EF7019181812FCE
:10408000191708F4892FF70181830111CFCF181771
:1040900068F6118300E010E0F701848190E00817D2
:1040A0001907FCF4402FBE01665F7F4FC7010E94D5
:1040B000451EF701D180BE01665F7F4FC7010E9498
:1040C000581F8D1518F4F701818106C0BE01665F87
:1040D0007F4FC7010E94581FF70181830F5F1F4F59
:1040E000DBCF8B2D61960FB6F894DEBF0FBECDBF30
:1040F000DF91CF911F910F91FF90EF90DF90CF90C4
:10410000BF900895EF92FF920F931F93CF93DF9389
:10411000CDB7DEB728970FB6F894DEBF0FBECDBF80
:104120008C01693020F06D3018F06CE001C069E05E
:10413000F8016183E12CF12CF801848190E0E8160C
:10414000F906A4F44E2DBE016F5F7F4FC8010E9497
:10415000451E21E0F8014181BE016F5F7F4FC8011C
:104160000E94F41FFFEFEF1AFF0AE6CF28960FB662
:10417000F894DEBF0FBECDBFDF91CF911F910F919D
:10418000FF90EF900895FC0162830895FC01868101
:1041900097810E94751C91E0813009F090E0892F91
:1041A00008958F929F92AF92BF92CF92DF92EF923B
:1041B000FF920F931F93CF93DF93EC01695063300D
:1041C00048F4E62FF0E0EE0FFF1FE259FE4F0081AA
:1041D000118102C00EEE12E08B818823F1F08881FC
:1041E00081111BC00E94F5284B015C016801110F71
:1041F000EE08FF08CE010E94C620811120C00E9457
:10420000F528DC01CB018C199D09AE09BF09881581
:104210009905AA05BB0570F312C0B801110F880BF0
:10422000990BDF91CF911F910F91FF90EF90DF904D
:10423000CF90BF90AF909F908F900C942629DF91E4
:10424000CF911F910F91FF90EF90DF90CF90BF9093
:10425000AF909F908F900895CF93DF93EC018E8164
:104260009F810E94031C8E819F810E942B1D48818B
:1042700064E48E819F810E94A01C8A81882331F092
:104280006981CE01DF91CF910C94D120DF91CF9144
:104290000895FA01208188E0289FA00111248181DE
:1042A000282F30E0322F2227330F330F330F242BE8
:1042B000352BDB018C918031C1F4678170E0868100
:1042C000AB01481B5109CA019695982F88279795ED
:1042D00087950E94892D60517109207F53E0220F3C
:1042E000331F5A95E1F7260F371FC9010895EF9242
:1042F000FF920F931F93CF93DF93CDB7DEB729972C
:104300000FB6F894DEBF0FBECDBF8C017B01AE01AE
:104310004F5F5F4F0E94B81E882341F0AE014F5F90
:104320005F4FB701C8010E94492102C080E894EEA6
:1043300029960FB6F894DEBF0FBECDBFDF91CF91A7
:104340001F910F91FF90EF900895813824EE92070E
:1043500074F0BC01072E000C880B990B0E94672C8F
:1043600020E030E040E05CE30E941C2D089560E016
:1043700070E08EEF92EC08950E9477210C94A521B5
:104380000F931F93CF93DF93CDB7DEB728970FB668
:10439000F894DEBF0FBECDBF8C01462FBE016F5F0C
:1043A0007F4F0E94451E882339F0BE016F5F7F4F0B
:1043B000C8010E94BC2104C060E070E08EEF92EC66
:1043C00028960FB6F894DEBF0FBECDBFDF91CF9118
:1043D0001F910F91089520914B0630914C0628179C
:1043E0003907B9F49091090680910A06981789F067
:1043F000E0910906F0E0E55FF94F80812091090620
:1044000030E02F5F3F4F2F7333272093090690E052
:1044100008958FEF9FEF08951F93CF93DF93DC01F3
:104420005C962D913C915D972115310539F481E021
:1044300090E013969C938E9312973DC05196ED9108
:10444000FC91529750969C915097892F80951FB759
:104450005E964C915E9741FB772770F941FD609520
:10446000F8944081772311F0492B01C04823408301
:10447000E9012197F1F748E0508160FF02C0592B14
:1044800001C058235083E9012197F1F76695415007
:1044900099F7772321F090818923808303C080815D
:1044A000982B90831FBF5C968D919C915D9701978F
:1044B000F1F721E030E0C901DF91CF911F9108951C
:1044C000089520914B0630914C062817390771F456
:1044D0009091090680910A06981741F0E09109062B
:1044E000F0E0E55FF94F808190E008958FEF9FEF56
:1044F000089520914B0630914C062817390771F426
:1045000080910A062091090690E0805C9F4F821BF3
:10451000910960E470E00E94892D089580E090E0A8
:104520000895E0914B06F0914C06E817F90769F4FD
:10453000A389B4899C918589809589238C93109255
:104540004C0610924B0681E0089580E00895CF93C9
:10455000DF93EC018A8D9B8D892BF1F080914B06C6
:1045600090914C068C179D07B9F0009711F00E94AE
:1045700091228E8D8E7F8E8F10920A0610920906E0
:10458000D0934C06C0934B06EB89FC8990818D89B2
:10459000892B808381E001C080E0DF91CF91089575
:1045A0001F920F920FB60F9211242F933F934F93A8
:1045B0005F936F937F938F939F93AF93BF93EF938B
:1045C000FF93E0914B06F0914C06309709F451C0EF
:1045D000968DA685B785858591FF04C09C9189231A
:1045E00029F447C09C91892309F043C0A389B48969
:1045F0009C918589809589238C93868997890197D9
:10460000F1F7608D718DA685B785558538E020E07E
:10461000CB010197F1F7822F90E095958795282F90
:104620004C91452309F02068315091F7868D81FD2A
:10463000209580910A0690E001968F73992730911A
:104640000906381749F0A0910A06B0E0A55FB94FF6
:104650002C9380930A0603C0868D8160868F828D9D
:10466000938D0197F1F7A389B4899C918589892B52
:104670008C93FF91EF91BF91AF919F918F917F911B
:104680006F915F914F913F912F910F900FBE0F90BF
:104690001F90189528E731E0FC01318320830C94AA
:1046A00091221F93CF93DF93EC01162F6E8D6695A9
:1046B000617081E06827812F0E94892A61E0812F43
:1046C0000E944D2A612F70E0FB01EE5EFD4FE491E8
:1046D000E88BFB01EA5DFD4FE491F0E0EE0FFF1F78
:1046E000EC5BFD4F859194919A8B898BDF91CF91F3
:1046F0001F9108951F93CF93DF93EC01162F60E075
:10470000812F0E944D2A8E8D81FD04C061E0812F92
:104710000E94892A1C87612F70E0FB01EE5EFD4F2D
:10472000E491ED87FB01EA5DFD4FE491F0E0EE0FCF
:10473000FF1FE65CFD4F859194919F878E87DF91E7
:10474000CF911F9108951F93CF93DF93EC01162F04
:104750001B821A8288EE93E0A0E0B0E08C839D83F8
:10476000AE83BF8388E791E0998388831F8A1E8A7E
:10477000198E188E1B8E1A8E1D8E1C8E8E8D8E7F1E
:1047800020FB81F98E8F642FCE010E945123612F6F
:10479000CE01DF91CF911F910C947A23CF93DF93B9
:1047A000EC019A01AB011B8E1A8E198E188E1F8A8E
:1047B0001E8A60E079E08DE390E00E94BF2DF90150
:1047C0002430310518F0C901039702C081E090E060
:1047D0009D8F8C8F6C85663108F069C0C9019695F4
:1047E00087958431910510F0439702C081E090E0F5
:1047F0009F8B8E8B369718F0C901059702C081E018
:1048000090E0998F888FC901880F991F280F391F51
:1048100036952795369527952D30310518F02C5073
:10482000310902C021E030E03B8F2A8F909168006F
:10483000683050F021E06E3008F420E081E001C0E3
:10484000880F2A95EAF701C084E0892B80936800DD
:104850008C85883038F08E3040F0863148F020E08A
:1048600030E008C02DE630E005C02BE630E002C0A5
:104870002CE630E03C8B2B8B883030F491E001C08B
:10488000990F8A95EAF70EC0282F30E08E3018F481
:104890002850310902C02E50310991E001C0990F12
:1048A0002A95EAF79D8B8C8D9D8D0197F1F7CE01AE
:1048B000DF91CF910C94A7222F923F924F925F925B
:1048C0006F927F928F929F92AF92BF92CF92DF9220
:1048D000EF92FF920F931F93CF93DF93CDB7DEB785
:1048E00060970FB6F894DEBF0FBECDBFDC01DA963D
:1048F000BC91B983B11102C0198227C1988B8F87EF
:104900000E94F5286E837F8388879987EF85F889D1
:1049100082A193A1A4A1B5A14E815F81688579850B
:10492000481B590B6A0B7B0B86A597A5A0A9B1A9BB
:10493000481759076A077B07F8F2248D358DD9018E
:104940008D919D910D90BC91A02D8A839B83AC830A
:10495000BD8300A0F1A1E02D9C01AD0160817181BA
:10496000828193810E94812B4B015C01EF85F88944
:1049700022A533A544A555A56A817B818C819D81A3
:104980000E94812B6B017C01AF85B88950962D91D7
:104990003D914D915C915397C501B4010E941C2D2E
:1049A000EF85F88926A137A140A551A50E94822B49
:1049B0002B013C01AF85B88996966D937D938D93BD
:1049C0009C939997DB96BC91BA87B11118C0EF857B
:1049D000F8892485358546855785C701B6010E942B
:1049E0001C2D9B01AC01C301B2010E94812BAF853C
:1049F000B88996966D937D938D939C939997EF8547
:104A0000F88946A057A060A471A416A907A930ACE4
:104A100021AC212F302F432D522DC301B2010E9412
:104A2000172D18162CF4812F902FA32DB22D18C0FE
:104A3000AF85B889D2968D919D910D90BC91A02D96
:104A40008B879C87AD87BE879C01AD01C301B201F6
:104A50000E94EE2B87FF0AC08B859C85AD85BE85A5
:104A6000EF85F88986A397A3A0A7B1A7FA85FF23AE
:104A700079F0AF85B8891C962D913D914D915C914F
:104A80001F97C501B4010E941C2D4B015C0103C09E
:104A9000812C912C5401EF85F88924893589468928
:104AA0005789C701B6010E941C2D9B01AC01AF853F
:104AB000B88996966D917D918D919C9199970E9460
:104AC000812B9B01AC01C501B4010E94822B6B01BB
:104AD0007C01212F302F432D522D0E94172D1816A7
:104AE000A4F0EF85F88912A903A934A825A8212FDD
:104AF000302F432D522DB601C7010E94EE2B87FDAA
:104B000004C01C2D0D2D3E2C2F2CAF85B8895E9630
:104B1000ED91FC915F97812F902FA32DB22D808373
:104B20009183A283B3838A819B81AC81BD81EF8510
:104B3000F88982A793A7A4A7B5A78E819F81A8858E
:104B4000B98582A393A3A4A3B5A3898160960FB668
:104B5000F894DEBF0FBECDBFDF91CF911F910F91B3
:104B6000FF90EF90DF90CF90BF90AF909F908F908D
:104B70007F906F905F904F903F902F9008952F926D
:104B80003F924F925F926F927F928F929F92AF92DD
:104B9000BF92CF92DF92EF92FF920F931F93CF932A
:104BA000DF9300D000D0CDB7DEB71C0149835A8314
:104BB0006B837C832801390120E030E0A901698101
:104BC0007A818B819C810E94EE2B87FD8FC020E033
:104BD00030E0A901C301B2010E94EE2B87FD86C01F
:104BE00020E030E0A901C701B6010E94EE2B87FD4D
:104BF0007DC0D1015B96BC92AE925A9781E0AA9497
:104C0000AB2809F080E0F10183AF89819A81AB8103
:104C1000BC8180839183A283B38344825582668260
:104C20007782C086D186E286F38666A577A580A9BD
:104C300091A90E94652C20E030E04AE754E40E94EC
:104C4000F32B4B015C0189819A81AB81BC81F1011D
:104C500084879587A687B787A5019401C301B20110
:104C60000E941C2D2B013C01D10150966D937D9328
:104C70008D939C935397A5019401C701B6010E949F
:104C8000F32B6B017C01F101648B758B868B978B09
:104C9000808D918D019751F529813A814B815C81FD
:104CA00060E070E0CB010E94812BD1011C966D93D6
:104CB0007D938D939C931F97A301920160E070E018
:104CC000CB010E94812BF101608B718B828B938BC6
:104CD000A701960160E070E0CB010E94812BD10119
:104CE00054966D937D938D939C9357970F900F904F
:104CF0000F900F90DF91CF911F910F91FF90EF9048
:104D0000DF90CF90BF90AF909F908F907F906F90EB
:104D10005F904F903F902F900895AF92BF92CF92A7
:104D2000DF92EF92FF920F931F93FC01A28CB38C42
:104D30000E94BF251F910F91FF90EF90DF90CF90C1
:104D4000BF90AF9008958F929F92AF92BF92CF92F3
:104D5000DF92EF92FF92CF93DF9316161706B4F50A
:104D60006B01EC010D2C000CEE08FF08C701B60129
:104D70000E94672C4B015C016EA57FA588A999A9AB
:104D80000E94652C9B01AC01C501B4010E94F32B6C
:104D90004B015C019B01AC01688979898A899B89F7
:104DA0000E941C2D688B798B8A8B9B8BA5019401AB
:104DB0006C897D898E899F890E94F32B6C8B7D8BFA
:104DC0008E8B9F8BCEA6DFA6E8AAF9AADF91CF91A2
:104DD000FF90EF90DF90CF90BF90AF909F908F901B
:104DE00008952F923F924F925F926F927F928F928F
:104DF0009F92AF92BF92CF92DF92EF92FF920F936A
:104E00001F93CF93DF93EC016A017B0148015901A5
:104E1000A9019801C701B6010E94172D87FF4EC056
:104E2000CAAADBAAECAAFDAA8EAA9FAAA8AEB9AE0E
:104E30008AAD882309F442C02E8C3F8CF10140805A
:104E4000518062807380A5019401C301B2010E9468
:104E5000172D181634F4F10180829182A282B38258
:104E60000DC0A7019601C301B2010E94EE2B87FF7E
:104E700005C0F101C082D182E282F3828EA09FA0A0
:104E8000A8A4B9A4CEA8DFA8E8ACF9ACA701960104
:104E9000C501B4010E94172D181664F0CAA8DBA83A
:104EA000ECA8FDA8A7019601C501B4010E94EE2B54
:104EB00087FF04C0CEA2DFA2E8A6F9A6DF91CF91BA
:104EC0001F910F91FF90EF90DF90CF90BF90AF9028
:104ED0009F908F907F906F905F904F903F902F901A
:104EE00008958F929F92AF92BF92CF92DF92EF92EE
:104EF000FF92CF93DF93EC01EE8DFF8DC080D180C8
:104F0000E280F380CEA2DFA2E8A6F9A6EC8DFD8DAB
:104F100080819181A281B3818AA79BA7ACA7BDA7FD
:104F20008EA89FA8A8ACB9ACA5019401C701B60191
:104F30000E94172D181664F08AA89BA8ACA8BDA8DB
:104F4000A5019401C701B6010E94EE2B87FF04C0A2
:104F50008EA29FA2A8A6B9A6DF91CF91FF90EF9055
:104F6000DF90CF90BF90AF909F908F9008951F9348
:104F7000CF93DF93EC0111E06130710511F010E087
:104F800006C08AAD811103C0CE010E9471271AAFFD
:104F9000DF91CF911F9108950F931F93CF93DF93CC
:104FA000EC018B018AAD882361F1888D998D68179A
:104FB000790739F12C853D854E855F8560E070E08D
:104FC000CB010E94812B6C877D878E879F872889E4
:104FD00039894A895B8960E070E0CB010E94812BAE
:104FE000688B798B8A8B9B8B2C893D894E895F8955
:104FF00060E070E0CB010E94812B6C8B7D8B8E8BEF
:105000009F8B198F088FDF91CF911F910F9108957A
:105010004F925F926F927F928F929F92AF92BF92C8
:10502000CF92DF92EF92FF920F931F93CF93DF9374
:1050300000D000D0CDB7DEB74C0127013801A982DE
:10504000BA82CB82DC82FC01578F468F758F648FCA
:1050500031A320A312AE12AA13AA14AA15AA80E0A3
:1050600090E0AFE7B3E486AB97ABA0AFB1AF84E617
:1050700090E0A0E0B0E086A797A7A0ABB1AB6D8DA4
:105080007E8DC4010E94CC27AB8CBC8CCF88D88C81
:10509000E98CFA8C09811A812B813C81B301A20130
:1050A000C4010E94BF250E94F528F40106A517A59A
:1050B00020A931A9DC01CB01801B910BA20BB30B02
:1050C00082A393A3A4A3B5A30F900F900F900F906A
:1050D000DF91CF911F910F91FF90EF90DF90CF90D4
:1050E000BF90AF909F908F907F906F905F904F9008
:1050F00008958F929F92AF92BF92CF92DF92EF92DC
:10510000FF920F931F93CF93DF93CDB7DEB7EF8559
:10511000F889A989BA899B888C888F929F921F925F
:10512000992493949F92BF93AF93FF93EF930E9420
:1051300008280FB6F894DEBF0FBECDBFDF91CF9128
:105140001F910F91FF90EF90DF90CF90BF90AF90A5
:105150009F908F9008951F920F920FB60F92112477
:105160002F933F938F939F93AF93BF9380914E065E
:1051700090914F06A0915006B091510630914D0686
:1051800023E0230F2D3720F40196A11DB11D05C08A
:1051900026E8230F0296A11DB11D20934D06809392
:1051A0004E0690934F06A0935006B09351068091FF
:1051B000520690915306A0915406B091550601965F
:1051C000A11DB11D8093520690935306A0935406DF
:1051D000B0935506BF91AF919F918F913F912F91C1
:1051E0000F900FBE0F901F9018952FB7F8946091F5
:1051F0004E0670914F0680915006909151062FBF38
:1052000008953FB7F8948091520690915306A0916B
:105210005406B091550626B5A89B05C02F3F19F03E
:105220000196A11DB11D3FBFBA2FA92F982F882726
:10523000820F911DA11DB11DBC01CD0142E0660F81
:10524000771F881F991F4A95D1F708958F929F92D3
:10525000AF92BF92CF92DF92EF92FF926B017C01EF
:105260000E9401294B015C01C114D104E104F10445
:1052700001F10E94802B0E940129DC01CB018819D9
:105280009909AA09BB09883E9340A105B10560F3BD
:1052900021E0C21AD108E108F10888EE880E83E007
:1052A000981EA11CB11CC114D104E104F10419F72A
:1052B000DBCFFF90EF90DF90CF90BF90AF909F90AB
:1052C0008F9008958230910538F0880F991F880FCC
:1052D000991F05970197F1F70895789484B5826036
:1052E00084BD84B5816084BD85B5826085BD85B58A
:1052F000816085BDEEE6F0E0808181608083E1E839
:10530000F0E0108280818260808380818160808370
:10531000E0E8F0E0808181608083E1EBF0E0808173
:1053200084608083E0EBF0E0808181608083EAE745
:10533000F0E08081846080838081826080838081CE
:10534000816080838081806880831092C10008958D
:105350008E3008F08E5087702091000190E4299FD4
:1053600090011124822B80937C0080917A008064CC
:1053700080937A0080917A0086FDFCCF809178003E
:105380002091790090E0922B08951F93CF93DF93A3
:10539000182FEB0161E00E944D2A209711F460E084
:1053A00004C0CF3FD10539F461E0812FDF91CF9167
:1053B0001F910C94892AE12FF0E0E250FE4FE49116
:1053C000E330F9F048F4E130B9F0E230A1F584B50A
:1053D000806284BDC8BD34C0E730E9F0E83019F11F
:1053E000E43049F580918000806280938000D09302
:1053F0008B00C0938A0024C084B5806884BDC7BD7B
:105400001FC080918000806880938000D0938900C5
:10541000C093880015C08091B00080688093B00070
:10542000C093B3000DC08091B00080628093B00043
:10543000C093B40005C0C038D1050CF0B5CFAFCFD4
:10544000DF91CF911F910895833081F028F481304E
:1054500099F08230A1F008958730A9F08830B9F032
:105460008430D1F4809180008F7D03C080918000D2
:105470008F7780938000089584B58F7702C084B5BC
:105480008F7D84BD08958091B0008F7703C0809197
:10549000B0008F7D8093B0000895CF93DF9390E0AC
:1054A000FC01EE5EFD4F2491FC01EA5DFD4F84910D
:1054B000882361F190E0880F991FFC01E25BFD4FAA
:1054C000C591D491FC01EC5BFD4FA591B4916111A4
:1054D00009C09FB7F8948881209582238883EC9136
:1054E0002E230BC0623061F49FB7F8943881822F6D
:1054F000809583238883EC912E2B2C939FBF06C02D
:105500008FB7F894E8812E2B28838FBFDF91CF913E
:1055100008951F93CF93DF93282F30E0F901E250D5
:10552000FE4F8491F901EE5EFD4FD491F901EA5DE1
:10553000FD4FC491CC23C9F0162F81110E94242A5B
:10554000EC2FF0E0EE0FFF1FEC5BFD4FA591B49147
:105550008FB7F894111105C09C91ED2FE095E923C8
:1055600002C0EC91ED2BEC938FBFDF91CF911F9197
:105570000895CF93DF93282F30E0F901E250FE4FDA
:105580008491F901EE5EFD4FD491F901EA5DFD4F82
:10559000C491CC2391F081110E94242AEC2FF0E0D9
:1055A000EE0FFF1FE65CFD4FA591B491EC91ED234A
:1055B00081E090E021F480E002C080E090E0DF91A3
:1055C000CF91089508950E946D290E94E22A0E94B9
:1055D0002519C0E0D0E00E94831A2097E1F30E94D1
:1055E0000000F9CFCF92DF92EF92FF920F931F93BB
:1055F000CF93DF936C017A018B01C0E0D0E0CE1530
:10560000DF0589F0D8016D918D01D601ED91FC91F6
:105610000190F081E02DC6010995892B11F47E01DE
:1056200002C02196ECCFC701DF91CF911F910F915E
:10563000FF90EF90DF90CF9008956115710579F09C
:10564000FB0101900020E9F73197AF01461B570B92
:10565000DC01ED91FC910280F381E02D099480E062
:1056600090E00895EF92FF920F931F93CF93DF93F3
:105670008C017B01C0E0D0E0F701EC0FFD1F6491CD
:10568000662361F0D801ED91FC910190F081E02D4D
:10569000C8010995892B11F02196EECFCE01DF913B
:1056A000CF911F910F91FF90EF9008950C941D2BB7
:1056B00064E871E00C941D2B0F931F93CF93DF933D
:1056C000EC010E94322B8C01CE010E94582B800FDE
:1056D000911FDF91CF911F910F9108950F931F9309
:1056E000CF93DF93EC010E941D2B8C01CE010E9411
:1056F000582B800F911FDF91CF911F910F9108952B
:1057000008955058BB27AA270E94992B0C94DD2C92
:105710000E94CF2C38F00E94D62C20F039F49F3F05
:1057200019F426F40C94CC2C0EF4E095E7FB0C94C1
:10573000C62CE92F0E94EE2C58F3BA1762077307A4
:105740008407950720F079F4A6F50C94102D0EF43B
:10575000E0950B2EBA2FA02D0B01B90190010C0181
:10576000CA01A0011124FF27591B99F0593F50F499
:10577000503E68F11A16F040A22F232F342F4427F1
:10578000585FF3CF469537952795A795F0405395E9
:10579000C9F77EF41F16BA0B620B730B840BBAF0B9
:1057A0009150A1F0FF0FBB1F661F771F881FC2F724
:1057B0000EC0BA0F621F731F841F48F48795779538
:1057C0006795B795F7959E3F08F0B0CF9395880FF2
:1057D00008F09927EE0F9795879508950E94A22CBF
:1057E00008F481E008950E94072C0C94DD2C0E949F
:1057F000D62C58F00E94CF2C40F029F45F3F29F0BE
:105800000C94C62C51110C94112D0C94CC2C0E948C
:10581000EE2C68F39923B1F3552391F3951B550BA7
:10582000BB27AA2762177307840738F09F5F5F4F73
:10583000220F331F441FAA1FA9F335D00E2E3AF0B2
:10584000E0E832D091505040E695001CCAF72BD0CA
:10585000FE2F29D0660F771F881FBB1F261737071B
:105860004807AB07B0E809F0BB0B802DBF01FF274D
:1058700093585F4F3AF09E3F510578F00C94C62C38
:105880000C94112D5F3FE4F3983ED4F38695779501
:105890006795B795F7959F5FC9F7880F911D969506
:1058A000879597F90895E1E0660F771F881FBB1F62
:1058B000621773078407BA0720F0621B730B840B0F
:1058C000BA0BEE1F88F7E0950895E89409C097FB9E
:1058D0003EF490958095709561957F4F8F4F9F4FC7
:1058E0009923A9F0F92F96E9BB279395F69587950B
:1058F00077956795B795F111F8CFFAF4BB0F11F4CE
:1059000060FF1BC06F5F7F4F8F4F9F4F16C0882374
:1059100011F096E911C0772321F09EE8872F762FAA
:1059200005C0662371F096E8862F70E060E02AF0EB
:105930009A95660F771F881FDAF7880F96958795D7
:1059400097F90895990F0008550FAA0BE0E8FEEFAC
:1059500016161706E807F907C0F012161306E40733
:10596000F50798F0621B730B840B950B39F40A262C
:1059700061F0232B242B252B21F408950A2609F40A
:10598000A140A6958FEF811D811D089597F99F670E
:1059900080E870E060E008959FEF80EC08950024B7
:1059A0000A941616170618060906089500240A9484
:1059B00012161306140605060895092E0394000C0A
:1059C00011F4882352F0BB0F40F4BF2B11F460FF99
:1059D00004C06F5F7F4F8F4F9F4F089557FD9058C2
:1059E000440F551F59F05F3F71F04795880F97FBA3
:1059F000991F61F09F3F79F087950895121613065D
:105A00001406551FF2CF4695F1DF08C0161617068B
:105A10001806991FF1CF86957105610508940895C0
:105A2000E894BB2766277727CB0197F908950E9452
:105A3000A22C08F48FEF08950E942F2D0C94DD2CDA
:105A40000E94CF2C38F00E94D62C20F0952311F024
:105A50000C94C62C0C94CC2C11240C94112D0E9467
:105A6000EE2C70F3959FC1F3950F50E0551F629F88
:105A7000F001729FBB27F00DB11D639FAA27F00DA7
:105A8000B11DAA1F649F6627B00DA11D661F829FCE
:105A90002227B00DA11D621F739FB00DA11D621FB3
:105AA000839FA00D611D221F749F3327A00D611DD0
:105AB000231F849F600D211D822F762F6A2F1124B2
:105AC0009F5750409AF0F1F088234AF0EE0FFF1FE5
:105AD000BB1F661F771F881F91505040A9F79E3F3C
