:100000000C9418020C9440020C9440020C94A4131B
:100010000C94A4130C94A4130C9440020C9440026E
:100020000C9440020C9440020C9440020C94400248
:100030000C9440020C9440020C9440020C94400238
:100040000C945A130C9440020C94CC110C94A611ED
:100050000C9440020C9440020C9440020C94400218
:100060000C9440020C944002641D7C1DA81DCC1D04
:10007000F01D131E361E591E7C1E9B1EBA1EDD1E51
:10008000F81FF81FE11EFE1E1B1F3A1F5D1F801F79
:10009000A31FC21FE11F1C2042206D209820C520F5
:1000A000F6202F2160219121C221F3212422552203
:1000B0008A2200000008000201000003040700007B
:1000C000000000000000726E723A00626F6E3A002B
:1000D000626D673A006270663A0062706E3A006262
:1000E0006B643A00626B693A00626B703A0062615D
:1000F000743A006269743A006274643A006273741C
:100100003A006262633A006268613A00626E723A73
:10011000007370733A00736C733A00736E723A0036
:100120007370773A0073626C3A007373753A0073B8
:1001300073613A007373703A007373723A007373A9
:10014000743A007370643A007370743A007376778F
:100150003A0073726F3A0073746F3A00736B743ABB
:100160000073727A3A00736B6D3A0073747A3A00D6
:100170007370693A003A006D61006D6400005EBC06
:10018000E2613FDD83C29C7E20A3FD1F419DC32110
:100190007FFCA2401E5F01E3BD3E6082DC237D9FA9
:1001A000C1421CFEA0E1BF5D0380DE3C62BEE002F6
:1001B0005CDF81633D7C22C09E1D43A1FF4618FA8F
:1001C000A427799BC584DA3866E5BB5907DB8567C8
:1001D00039BAE406581947A5FB7826C49A653BD975
:1001E00087045AB8E6A7F91B45C6987A24F8A644AE
:1001F0001A99C7257B3A6486D85B05E7B98CD2305B
:100200006EEDB3510F4E10F2AC2F7193CD114FAD77
:10021000F3702ECC92D38D6F31B2EC0E50AFF11340
:100220004DCE90722C6D33D18F0C52B0EE326C8E5D
:10023000D0530DEFB1F0AE4C1291CF2D73CA94761E
:1002400028ABF517490856B4EA6937D58B5709EB3F
:10025000B536688AD495CB2977F4AA4816E9B755FC
:100260000B88D6346A2B7597C94A14F6A8742AC825
:1002700096154BA9F7B6E80A54D7896B357200205A
:1002800000204B00205700204F0020440020420057
:1002900030003100204800205300204A0020470051
:1002A000204900204E004100300031003000310074
:1002B00000000000250028002B00000000002300A3
:1002C00026002900040404040404040402020202B7
:1002D0000202030303030303010204081020408009
:1002E0000102040810200102040810200000000090
:1002F000240027002A004E414E494E495459494E88
:1003000046CDCCCC3D0AD7233C17B7D13877CC2B80
:10031000329595E6241FB14F0A000020410000C825
:100320004200401C4620BCBE4CCA1B0E5AAEC59DA6
:100330007400407A10F35A00A0724E18090010A5FC
:10034000D4E80000E87648170000E40B54020000EF
:10035000CA9A3B000000E1F5050000809698000075
:100360000040420F000000A086010000001027009E
:10037000000000E803000000006400000000000A24
:1003800000000000000100000000002C76D888DC8E
:10039000674F0823DFC1DFAE59E1B1B796E5E3E46B
:1003A00053C63AE651997696E8E6C28426EB898CE4
:1003B0009B62ED407C6FFCEFBC9C9F40F2BAA56F46
:1003C000A5F490055A2AF75C936B6CF9676DC11B15
:1003D000FCE0E40D47FEF520E6B500D0ED902E03DD
:1003E00000943577050080841E080000204E0A0026
:1003F0000000C80C333333330F986E12831141EF72
:100400008D2114893BE65516CFFEE6DB18D1844BCF
:10041000381BF77C1D901DA4BBE424203284725E3F
:10042000228100C9F124ECA1E53D270036262826CB
:1004300011241FBECFEFD8E0DEBFCDBF11E0A0E09A
:10044000B1E0EEE2F6E602C005900D92AA39B107DE
:10045000D9F726E0AAE9B1E001C01D92A43FB20796
:10046000E1F712E0C7E1D2E004C02197FE010E944B
:100470005C29C631D107C9F70E94321A0C940A339D
:100480000C940000FC0186810895FC01878117828D
:100490000895FC01168217820895CF93DF93EC0133
:1004A0006C96CE010E943111892B29F0CE01DF918B
:1004B000CF910C94491180E090E0DF91CF910895A5
:1004C000CF93DF93EC011E821F8208960E94B11920
:1004D000CE014B96DF91CF910C94B1192F923F92A0
:1004E0004F925F926F927F928F929F92AF92BF9244
:1004F000CF92DF92EF92FF920F931F93CF93DF93F0
:10050000CDB7DEB72E970FB6F894DEBF0FBECDBFC6
:100510009E878D874C0181E4880E911CD4014D93F8
:100520005D936D937C931397AD84BE84B9E4AB0E59
:10053000B11CAD85BE851296ED91FC911397149672
:100540002D913C91159747E2429FC001439F900D2A
:100550001124E80FF91FEF5AFF4F80819181A2818A
:10056000B381F50180839183A283B3830E944E13EC
:10057000ED85FE85E35BFF4F008111812281338190
:100580006B017C01C01AD10AE20AF30AAD85BE856F
:1005900012960D911C911397F401208131814281B3
:1005A0005381D5016D917D918D919C910E94762909
:1005B000F80126A137A140A551A50E947C3187FFF3
:1005C000FCC0ED85FE85E05CFF4F8081882309F447
:1005D00007C10E944E1369837A838B839C83ED85C8
:1005E000FE8580A591A5A2A5B3A549815A816B81FD
:1005F0007C81481B590B6A0B7B0B84A995A9A6A982
:10060000B7A9481759076A077B0708F4E9C002A091
:10061000F3A1E02D4080518062807380AD85BE855E
:100620009696ED91FC919797A3019201608171815B
:10063000828193810E9476296D837E838F83988740
:10064000ED85FE85208D318D428D538D0E94E231E6
:10065000AD85BE859C962D913D914D915C919F9766
:100660000E9477294B015C01ED85FE8564A775A783
:1006700086A797A714AD05AD36AC27AC212F302F38
:10068000432D522D0E94842A18162CF4812F902F6E
:10069000A32DB22D18C0AD85BE85D8968D919D91A4
:1006A0000D90BC91A02D89879A87AB87BC879C0150
:1006B000AD01C501B4010E947C3187FF0AC0898564
:1006C0009A85AB85BC85ED85FE8584A795A7A6A7F1
:1006D000B7A7AD85BE8554962D913D914D915C9106
:1006E00057976D817E818F8198850E94E231ED85DB
:1006F000FE8524A535A546A557A50E9477294B015F
:100700005C01AD85BE85D0962D913D914D915C915A
:10071000D397C301B2010E947629ED85FE85248D11
:10072000358D468D578D0E94E2319B01AC01C5018C
:10073000B4010E9476294B015C01212F302F432DFB
:10074000522D0E94842A1816DCF0AD85BE85D896FD
:100750001C91D897D9960C91D997DA963C90DA9754
:10076000DB962C90212F302F432D522DB401C50143
:100770000E947C3187FD04C0182D092D3A2C2B2CAA
:10078000AD85BE859496ED91FC919597812F902F24
:10079000A32DB22D80839183A283B383ED85FE8543
:1007A00040AA51AA62AA73AA89819A81AB81BC81AD
:1007B00080A791A7A2A7B3A713C0AD84BE84F5E418
:1007C000AF0EB11CD80192966D917C91939780E009
:1007D00090E00E948131F50160837183828393836D
:1007E000AD85BE851296ED91FC91139762A173A120
:1007F00080E090E00E9481314B015C01C701B601AD
:100800000E948131A50194010E94842A1816D4F413
:100810000D851E85035B1F4FF80160817181828108
:1008200093810E948131A50194010E9477290E9441
:10083000552AD8016D937D938D939C931397C12C6A
:10084000D12C7601C701B6010E9481319B01AC0118
:10085000ED85FE85EB5BFF4F608171818281938125
:100860000E94842AED85FE85968187FD0AC091113C
:1008700002C081E0878381E0AD85BE8516968C93AA
:100880000AC0992321F081E0ED85FE858783AD853F
:10089000BE8516961C92ED85FE8586812E960FB636
:1008A000F894DEBF0FBECDBFDF91CF911F910F91A6
:1008B000FF90EF90DF90CF90BF90AF909F908F9080
:1008C0007F906F905F904F903F902F9008952F9260
:1008D0003F924F925F926F927F928F929F92AF92D0
:1008E000BF92CF92DF92EF92FF920F931F93CF931D
:1008F000DF9300D000D0CDB7DEB71C01DC01169627
:100900001C92169717961C92179712960D911C9190
:100910001397F801C4A0D5A01C141D04F4F50D2CE8
:10092000000CEE08FF08C701B6010E9483314B019D
:100930005C01D101D4966D917D918D919C91D79759
:100940000E9481319B01AC01C501B4010E94E329E1
:100950004B015C019B01AC01F101608D718D828DB9
:10096000938D0E94E231D10158966D937D938D93C2
:100970009C935B97A50194015C966D917D918D91FF
:100980009C915F970E94E329F101648F758F868F98
:10099000978FC4AAD5AAE6AAF7AAF10124813581C6
:1009A00047E2429FC001439F900D1124800F911F89
:1009B000FC01E759FF4FC080D180E280F38034977B
:1009C00080809180A280B380349740805180628083
:1009D000738020E030E0A901C301B2010E947C31A4
:1009E00087FD85C020E030E0A901C501B4010E9467
:1009F0007C3187FD7CC020E030E0A901C701B60151
:100A00000E947C3187FD73C0D10118964D925D9292
:100A10006D927C921B97F10184869586A686B78697
:100A20005096CD92DD92ED92FC925397D4966D91B3
:100A30007D918D919C91D7970E94813120E030E08B
:100A40004AE754E40E94E32969837A838B839C8379
:100A5000F101448A558A668A778A9B01AC01C501F7
:100A6000B4010E94E2314B015C01D10158966D93B3
:100A70007D938D939C935B9729813A814B815C8117
:100A8000C701B6010E94E3296B017C01F101648F6B
:100A9000758F868F978F80A191A1019741F5A30152
:100AA000920160E070E0CB010E947629D10154965A
:100AB0006D937D938D939C935797A501940160E06E
:100AC00070E0CB010E947629F101608F718F828FD7
:100AD000938FA701960160E070E0CB010E94762918
:100AE000D1015C966D937D938D939C935F97F801F4
:100AF00062A173A180E090E00E9481316B017C01D2
:100B000020E030E0A9010E947C318101005C1F4F90
:100B100018160CF05EC0D101D8961D921D921D9240
:100B20001C92DB97F101C4AED5AEE6AEF7AED801AC
:100B30008C91882309F44DC0A4A0B5A0F501408094
:100B4000518062807380A7019601C301B2010E94A7
:100B5000842A18163CF4D501CD92DD92ED92FC92D8
:100B600013970EC020E030E0A901C301B2010E943A
:100B70007C3187FF05C0F501108211821282138239
:100B8000D1019C968D909D90AD90BC909F97DC96E6
:100B9000CD90DD90ED90FC90DF97A7019601C50107
:100BA000B4010E94842A18167CF0D101D896CD9009
:100BB000DD90ED90FC90DB97A7019601C501B40193
:100BC0000E947C3187FF05C0F101C4A6D5A6E6A628
:100BD000F7A6D8018C9181113AC0D1019496ED917C
:100BE000FC919597C080D180E280F380F101C4A68A
:100BF000D5A6E6A6F7A602A0F3A1E02D80819181FB
:100C0000A281B381F10180AB91ABA2ABB3AB84AC59
:100C100095ACA6ACB7ACA5019401C701B6010E9482
:100C2000842A18166CF0F10180AC91ACA2ACB3AC84
:100C3000A5019401C701B6010E947C3187FF07C05E
:100C4000D1019C968D929D92AD92BC929F9781E02E
:100C5000F80180830E944E13F101E35BFF4F608334
:100C60007183828393830F900F900F900F90DF9189
:100C7000CF911F910F91FF90EF90DF90CF90BF9099
:100C8000AF909F908F907F906F905F904F903F902C
:100C90002F900895CF93DF93EC016C96CE010E94C4
:100CA000911164E871E0CE01DF91CF910C94911124
:100CB0004C960C949111CF93DF93EC016C96CE017E
:100CC0000E946D1164E871E0CE01DF91CF910C9428
:100CD00091114C960C946D110F931F93CF93DF934A
:100CE000EC01288D398D4A8D5B8D1FAA1EAA1DAA85
:100CF0001CAA1BAA1AAA60E079E08DE390E00E948A
:100D00003D29F9012430310518F0C901039702C0CB
:100D100081E090E099AF88AF68A5663108F069C0BE
:100D2000C901969587958431910510F0439702C0CB
:100D300081E090E09BAB8AAB369718F0C90105972C
:100D400002C081E090E09DAB8CABC901880F991F78
:100D5000280F391F36952795369527952D30310563
:100D600018F02C50310902C021E030E03FAB2EAB2F
:100D700090916800683050F021E06E3008F420E077
:100D800081E001C0880F2A95EAF701C084E0892B31
:100D90008093680098A5983038F09E3040F09631E6
:100DA00048F020E030E008C02DE630E005C02BE63A
:100DB00030E002C02CE630E038AB2FA7983030F49A
:100DC00081E001C0880F9A95EAF70EC0292F30E024
:100DD0009E3018F42850310902C02E50310981E0AC
:100DE00001C0880F2A95EAF789AB88AD99AD0197C4
:100DF000F1F78EA99FA9892BF9F08E01045E1F4F90
:100E00008091A7069091A80680179107A9F00097F6
:100E100011F00E941E148AAD8E7F8AAF1092A50633
:100E20001092A6061093A8060093A706EFA5F8A9AE
:100E3000908189A9892B808364EF71E080E090E044
:100E40000E941413EBADFCAD87AD882369F18E01D0
:100E50000E5F1F4F83AD8F9382AD8F9387E891E034
:100E60009F938F931F930F930E94972AE881F98194
:100E70000280F381E02DB801CE01099568EE73E0A0
:100E800080E090E00E9414138BAD9CADFC0117AE86
:100E90000F900F900F900F900F900F90DF91CF91C8
:100EA0001F910F910C94BE19DF91CF911F910F915B
:100EB0000895DC01E0E0615038F08D91E827F0E022
:100EC000E358FE4FE491F7CF8E2F0895EF92FF92F3
:100ED0000F931F93CF93DF937C018B01D42FDC0101
:100EE0001596ED91FC911697138615861486DF01F1
:100EF0001B9633961E92AE17BF07E1F7C0E0B8010C
:100F0000D70115968D919C9116970E943D0B8111EA
:100F100002C080E010C0CD130AC067E0C8010E9483
:100F20005907F8019781891302C081E004C0CF5F9F
:100F3000DC1778F3E4CFDF91CF911F910F91FF90F1
:100F4000EF900895FC0190810180F281E02DF894EA
:100F50008181892B81832281892F80952823228377
:100F6000A7E0B0E01197F1F7218182238183A3E20A
:100F7000B0E01197F1F780817894EFECF0E03197D1
:100F8000F1F7982381E009F480E00895FC01908155
:100F90000180F281E02D892F809560FF12C0F894C6
:100FA0002281822382838181892B8183A3E2B0E025
:100FB0001197F1F78281982B9283789487ED90E0D6
:100FC00011C0F8942281822382838181892B8183BD
:100FD000AFEFB0E01197F1F78281982B928378946C
:100FE0008FE090E00197F1F70895CF92DF92EF92B2
:100FF000FF920F931F93CF93DF931F92CDB7DEB76E
:101000006C01E62E08E010E0FF24F39461E08F2DE0
:101010008E2109F460E0C60149830E94C607FF0CD7
:101020000150110949810115110581F7411115C0C0
:10103000F894D6011196ED91FC91129791818C91C3
:101040008095892381831196ED91FC91129792816D
:101050008C9180958923828378940F90DF91CF9132
:101060001F910F91FF90EF90DF90CF900895CF9256
:10107000DF92EF92FF920F931F93CF93DF931F9214
:10108000CDB7DEB78C01F62E40E065E579830E948E
:10109000F507CF2C7981D72E760188E0E80EF11C78
:1010A000F60161916F0140E0C8010E94F507CE147E
:1010B000DF04B1F70F90DF91CF911F910F91FF9057
:1010C000EF90DF90CF900895FC0190810180F28134
:1010D000E02DF8948181292F2095822381837894B3
:1010E0008DE743E050E0815021F1DA011197F1F7EB
:1010F00030813923C1F3F8948281822382838181F4
:10110000892B81837894ABE7B7E01197F1F7F894D6
:10111000818128232183A3E1B1E01197F1F7808138
:10112000982381E009F080E07894E3E6F6E03197D7
:10113000F1F70895EF92FF920F931F93CF93DF93F0
:1011400000D0CDB7DEB78C017A01FC018581968194
:1011500069837A830E94640869817A81882371F0A7
:10116000A701C8010E943414882341F068E0C70138
:101170000E94590791E0F7012085821390E0892FA2
:101180000F900F90DF91CF911F910F91FF90EF90F3
:101190000895CF93DF93EC011DAA1EAA1FAA8C8588
:1011A0009D85DC01ED91FC910280F381E02D099594
:1011B000EC81FD8160E070E080810E9493121AAEA4
:1011C00019AECE010E960E94B1198A859B85DC016D
:1011D000ED91FC910190F081E02D09956BAF7CAF12
:1011E0008DAF9EAFEA85FB851682DF011796ED5B1A
:1011F000FF4F6D937D938D939D93AE17BF07C9F7F6
:101200001CAADF91CF9108950F931F93CF93DF9383
:10121000EC018B010E94C9081AAF09AF8E819F8132
:10122000DC0115961C930E93149729AD3AADE88511
:10123000F98535832483ED91FC910280F381E02DC3
:10124000099588859985DC01ED91FC910280F381F7
:10125000E02DDF91CF911F910F910994CF93DF93F0
:10126000EC01E881F9810284F385E02D09951816D7
:10127000190654F58D30910561F024F48A309105FA
:1012800091F422C084319105F9F08F3F910559F412
:101290001BC08E899F891F8A1E8A18161906A4F4FE
:1012A000CE01029613C02E893F892331310560F4A7
:1012B000A9014F5F5F4F5F8B4E8BFE01E20FF31F63
:1012C0008283C40FD51F1A8280E090E0DF91CF9116
:1012D00008950F931F93CF93DF93FC01228922235C
:1012E00011F080E01FC0EC010E944E1308811981AB
:1012F0002A813B81DC01CB01801B910BA20BB30B3C
:1013000088879987AA87BB870C811D812E813F81A1
:1013100080179107A207B30720F3088719872A8748
:101320003B8781E0DF91CF911F910F910895CF937B
:10133000DF93FC012089211109C0EC010E944E13AA
:10134000688379838A839B8381E0888BDF91CF9147
:1013500008952F923F924F925F926F927F928F9259
:101360009F92AF92BF92CF92DF92EF92FF920F9334
:101370001F93CF93DF9300D000D0CDB7DEB79C830F
:101380008B834A015B0168017901DC0116968C911F
:10139000169714962D903C9015971296ED91FC910E
:1013A0001397FA83E9838823C9F187E2829D80013C
:1013B000839D100D11240E0F1F1FF801EF5AFF4FD0
:1013C000D801A35ABF4F2D913D914D915C91608101
:1013D0007181828193810E9477292B013C01F80160
:1013E000EF59FF4F2081318142815381C701B601FE
:1013F0000E94E2319B01AC01C301B2010E94762937
:101400009B01AC0111E0C501B4010E94842A1816A9
:101410000CF010E081E0912E982637C087E2829D83
:101420008001839D100D112429813A81020F131F21
:10143000F801EF5AFF4FD801A75ABF4F2D913D91A8
:101440004D915C9160817181828193810E947729A5
:101450002B013C01F801EF59FF4F2081318142817E
:101460005381C701B6010E94E2319B01AC01C30167
:10147000B2010E9476299B01AC01C501B4010E9412
:101480007C31982E991C9924991C27E2229DC00139
:10149000239D900D1124A981BA818A0F9B1FFC0105
:1014A000E359FF4F208131812115310511F1329629
:1014B00080819181892BE9F00B811C81085F1F4F8E
:1014C000992009F4B2C0EB81FC81818D882309F455
:1014D0005BC084899589A689B78984879587A68703
:1014E000B787C8010E949709C8010E946909811144
:1014F00059C0EB81FC81A480B5800281138187E211
:101500008A9DF0018B9DF00D1124E00FF11FEF5823
:10151000FF4F408051806280738020E030E0A9015D
:10152000C301B2010E94842A181644F4A70196014F
:10153000C301B2010E947C3187FD912C27E22A9DD4
:10154000C0012B9D900D1124080F191FD801A35A1B
:10155000BF4FF801E75AFF4F20813181428153810B
:101560006D917D918D919C910E947C3187FD67C02A
:10157000AB81BC8116968C911697891509F462C0CF
:1015800081E017968C935EC048EE53E0249FC00123
:10159000259F900D349F900D1124A0E0B0E0EB81C9
:1015A000FC819BCFAB81BC811296ED91FC9113978E
:1015B00014962D913C91159747E2429FC001439F9D
:1015C000900D1124E80FF91FE159FF4F208131815F
:1015D0005D01BBE1AB0EB11CEB81FC8184A58823CE
:1015E00049F087A190A5A1A5B2A5878F90A3A1A33B
:1015F000B2A313C088EE93E0289FA001299F500D4D
:10160000389F500D112460E070E0AB81BC815F9683
:101610004D935D936D937C939297C5010E949709BA
:10162000C5010E946909882341F0C8010E94B119CF
:101630008B819C814B960E94B119912C5ACF81E0ED
:10164000982696CFEB81FC819682892D0F900F9082
:101650000F900F90DF91CF911F910F91FF90EF901E
:10166000DF90CF90BF90AF909F908F907F906F90C2
:101670005F904F903F902F900895AF92BF92CF927E
:10168000DF92EF92FF920F931F93CF93DF931F92FE
:10169000CDB7DEB75C01D62EE72EFC018585811122
:1016A00005C0C5010E946408811106C0F5011386BA
:1016B0001586148680E065C040E060EFC5010E9499
:1016C000F50701E0F12CC12C11E0C5010E94A20731
:1016D000682FC50169830E94A2076981613019F4EE
:1016E0008130B9F433C04F2D50E068131BC0F501B1
:1016F0008385181730F4E40FF51F8381802349F4A4
:1017000002C0181731F060E0193058F4F501148761
:1017100008C0F501EF0DF11D8381802B838361E00B
:1017200009C0C12EF501E40FF51F9381802F80952C
:1017300089238383C5010E94C6071F5F000F11F430
:10174000F39401E0F7E0FF1508F0BFCF113408F47F
:10175000ADCFF501C386C11002C081E08587F501D8
:101760008381882309F4A2CFD5011396ED2DFE2D98
:101770009501255F3F4F8D918193A217B307D9F74C
:1017800081E00F90DF91CF911F910F91FF90EF902B
:10179000DF90CF90BF90AF900895CF93DF93EB0190
:1017A00020915D02211123C021E020935D02A091D0
:1017B0003702B0913802ED91FC9111970680F781C4
:1017C000E02DBC01CD0109952881809137029091CF
:1017D0003802DC01ED91FC910084F185E02D22239B
:1017E00019F06EEA72E002C06CEA72E0099580912D
:1017F000370290913802DC01ED91FC910284F3856F
:10180000E02D09959C01C0970297F8F410925D02B3
:1018100080913702909138022033310551F41882BB
:10182000DC01ED91FC910084F185E02D68EA72E025
:101830000AC021E02883DC01ED91FC910084F18550
:10184000E02D6AEA72E0099509C02737310531F0C9
:101850002136310529F410925D0202C081E001C0F9
:1018600080E0DF91CF9108950F931F93CF93DF9383
:10187000C82FD62F8091370290913802DC01ED916C
:10188000FC910680F781E02D66EA72E009950E94DE
:101890004E130091750210917602209177023091DB
:1018A0007802601B710B820B930B0E94813101E661
:1018B00012E020E041E00E94382D809137029091A3
:1018C0003802DC01ED91FC910280F381E02DB8013A
:1018D00009958091370290913802DC01ED91FC91DD
:1018E0000680F781E02D63EA72E0099560915B0262
:1018F00070915C02072E000C880B990B0E948331BB
:1019000020E041E00E94382D80913702909138020A
:10191000DC01ED91FC910280F381E02DB801099585
:101920008091370290913802DC01ED91FC910680A4
:10193000F781E02D60EA72E00995A0913F02B09135
:101940004002DD2349F0ED91FC9111970190F08167
:10195000E02DCD01099518C016968C91169781112E
:1019600006C0DF966D917D918D919C910BC094E0A6
:10197000899FA00DB11D112413966D917D918D91BC
:101980009C91169701E612E022E041E00E94382D7A
:101990008091370290913802DC01ED91FC91028038
:1019A000F381E02D61E672E0099580913702909114
:1019B0003802DC01ED91FC910680F781E02D6DE9A4
:1019C00072E00995E0913F02F09140028681282F54
:1019D00030E0811107C0DF01DF966D917D918D911F
:1019E0009C910EC0D9011197AA0FBB1FAA0FBB1F54
:1019F000AE0FBF1F17966D917D918D919C911A9797
:101A0000220F331F220F331FE20FF31F2781308570
:101A1000418552850E94762901E612E022E042E0EB
:101A20000E94382D8091370290913802DC01ED91AF
:101A3000FC910280F381E02DB80109958091370275
:101A400090913802DC01ED91FC910680F781E02D48
:101A50006AE972E00995E0913F02F09140026681E7
:101A600070E080E090E00E94813120E041E00E943F
:101A7000382D8091370290913802DC01ED91FC9174
:101A80000280F381E02DB801099580913702909191
:101A90003802DC01ED91FC910680F781E02D67E9C9
:101AA00072E00995E0913902F0913A0220915B02CF
:101AB00030915C0247E2429FC001439F900D112488
:101AC000E80FF91FEF5AFF4F608171818281938186
:101AD00022E041E00E94382D809137029091380237
:101AE000DC01ED91FC910280F381E02DB8010995B4
:101AF0008091370290913802DC01ED91FC910680D3
:101B0000F781E02D64E972E00995E0913B02F091E4
:101B10003C0284859585DC01ED91FC910680F7817E
:101B2000E02D0995A0913702B0913802ED91FC911A
:101B300011970680F781E02D882319F062E972E0A1
:101B400002C060E972E0CD01099580913702909161
:101B50003802DC01ED91FC910680F781E02D6DE803
:101B600072E00995E0913B02F0913C020280F38122
:101B7000E02D80810E94F212BC01990F880B990B15
:101B80000E9483312FEC32ED47EA5CE30E94E231A0
:101B900001E612E022E041E00E94382D80913702F8
:101BA00090913802DC01ED91FC910280F381E02DEF
:101BB000B8010995E0913B02F0913C0280AD882389
:101BC00069F08091370290913802DC01ED91FC912F
:101BD0000280F381E02D62E971E00995E0913B021A
:101BE000F0913C0286A98823D9F180913702909127
:101BF0003802DC01ED91FC910680F781E02D6AE866
:101C000072E00995E0913B02F0913C028289938950
:101C1000A489B58906891789208D318DBC01CD0134
:101C2000601B710B820B930B28EE33E040E050E019
:101C30000E941B29CA01B9010E94813101E612E00C
:101C400020E041E00E94382D8091370290913802C7
:101C5000DC01ED91FC910280F381E02DB801099542
:101C6000E0913902F0913A028481882361F18091F8
:101C7000370290913802DC01ED91FC910680F781EA
:101C8000E02D67E872E00995E0913B02F0913C029B
:101C90000680F781E02DEB5BFF4F608171818281CF
:101CA000938101E612E022E041E00E94382D80910C
:101CB000370290913802DC01ED91FC910280F381B2
:101CC000E02DB8010995CC23F1F080913702909175
:101CD0003802DC01ED91FC910680F781E02D64E88B
:101CE00072E0099580916002882369F08091370243
:101CF00090913802DC01ED91FC910680F781E02D96
:101D000061E872E009958091370290913802DC0118
:101D1000ED91FC910084F185E02D6FE772E0DF9199
:101D2000CF911F910F910994EF92FF920F931F9300
:101D3000CF93DF93EC017B0180915D02811128C07C
:101D4000DB016D917D918D919C910E94833101E623
:101D500012E020E041E00E94382D81E080935D0296
:101D60008091370290913802DC01ED91FC91068060
:101D7000F781E02DBE0109958091370290913802DC
:101D8000DC01ED91FC910480F581E02DB80109950D
:101D900080913702909138020E942E09EC01009741
:101DA00029F165E971E00E948E2A892B09F167E922
:101DB00071E0CE010E948E2A892B19F410925D02E7
:101DC00015C0CE010E945C2DF70160837183828370
:101DD00093838091370290913802DC01ED91FC9160
:101DE0000480F581E02DBE01099502C080E001C0AC
:101DF00081E0DF91CF911F910F91FF90EF900895B7
:101E0000EF92FF920F931F93CF93DF93EC017B012F
:101E100080915D02811126C0DB016D917D918D91D4
:101E20009C9101E612E022E041E00E94382D81E021
:101E300080935D028091370290913802DC01ED9130
:101E4000FC910680F781E02DBE0109958091370253
:101E500090913802DC01ED91FC910480F581E02D38
:101E6000B801099580913702909138020E942E099D
:101E7000EC01009729F165E971E00E948E2A892B17
:101E800009F167E971E0CE010E948E2A892B19F4CD
:101E900010925D0215C0CE010E94582DF70160839B
:101EA0007183828393838091370290913802DC01A1
:101EB000ED91FC910480F581E02DBE01099502C0F1
:101EC00080E001C081E0DF91CF911F910F91FF90E1
:101ED000EF900895CF93DF93C7E3D2E08A819B818F
:101EE0000E940B1A88819981DC01ED91FC9100849C
:101EF000F185E02D6DE772E0DF91CF910994CF92EB
:101F0000DF92EF92FF920F931F93CF93DF936C01B9
:101F10007A018B01C0E0D0E0CE15DF0589F0D80151
:101F20006D918D01D601ED91FC910190F081E02D34
:101F3000C6010995892B11F47E0102C02196ECCFD0
:101F4000C701DF91CF911F910F91FF90EF90DF902C
:101F5000CF900895FC01918D828D981761F0828D4C
:101F6000DF01A80FB11D5D968C91928D9F5F9F73CD
:101F7000928F90E008958FEF9FEF0895FC01918D6F
:101F8000828D981731F0828DE80FF11D858D90E0DC
:101F900008958FEF9FEF0895FC01918D228D892F79
:101FA00090E0805C9F4F821B91098F739927089561
:101FB0008AE991E00E94CC0F21E0892B09F420E00E
:101FC000822F0895FC01848DDF01A80FB11DA35A53
:101FD000BF4F2C91848D90E001968F739927848F49
:101FE000A689B7892C93A089B1898C9180648C9340
:101FF000938D848D981306C00288F389E02D80812B
:102000008F7D80830895EF92FF920F931F93CF935C
:10201000DF93EC0181E0888F9B8D8C8D981305C038
:10202000E889F989808185FD24C0F62E0B8D10E0AA
:102030000F5F1F4F0F731127E02E8C8DE8120CC01D
:102040000FB607FCFACFE889F989808185FFF5CFC3
:10205000CE010E94E20FF1CF8B8DFE01E80FF11D42
:10206000E35AFF4FF0820B8FEA89FB8980818062FF
:1020700007C0EE89FF896083E889F98980818064DF
:10208000808381E090E0DF91CF911F910F91FF90CD
:10209000EF900895CF93DF93EC01888D8823C9F0EA
:1020A000EA89FB89808185FD05C0A889B9898C9161
:1020B00086FD0FC00FB607FCF5CF808185FFF2CFFC
:1020C000A889B9898C9185FFEDCFCE010E94E20FDE
:1020D000E7CFDF91CF91089580E090E0892B29F040
:1020E0000E94D80F81110C9400000895833081F074
:1020F00028F4813099F08230A1F008958730A9F05A
:102100008830B9F08430D1F4809180008F7D03C095
:10211000809180008F7780938000089584B58F77B9
:1021200002C084B58F7D84BD08958091B0008F7703
:1021300003C08091B0008F7D8093B00008953FB7B9
:10214000F8948091EE069091EF06A091F006B09180
:10215000F10626B5A89B05C02F3F19F00196A11DD9
:10216000B11D3FBFBA2FA92F982F8827820F911D2D
:10217000A11DB11DBC01CD0142E0660F771F881F74
:10218000991F4A95D1F708952091A7063091A80686
:102190002817390771F49091A6068091A506981723
:1021A00041F0E091A606F0E0E755F94F808190E01C
:1021B00008958FEF9FEF089508951F93CF93DF93B6
:1021C000DC015C962D913C915D972115310539F428
:1021D00081E090E013969C938E9312973DC05196A8
:1021E000ED91FC91529750969C915097892F809534
:1021F0001FB75E964C915E9741FB772770F941FDC2
:102200006095F8944081772311F0492B01C0482351
:102210004083E9012197F1F748E0508160FF02C057
:10222000592B01C058235083E9012197F1F7669596
:10223000415099F7772321F090818923808303C04F
:102240008081982B90831FBF5C968D919C915D97A8
:102250000197F1F721E030E0C901DF91CF911F91A3
:1022600008952091A7063091A8062817390771F420
:102270008091A5062091A60690E0805C9F4F821B6E
:10228000910960E470E00E940729089580E090E0E1
:1022900008952091A7063091A80628173907B9F4A8
:1022A0009091A6068091A506981789F0E091A60660
:1022B000F0E0E755F94F80812091A60630E02F5FCE
:1022C0003F4F2F7333272093A60690E008958FEF9A
:1022D0009FEF089508950E94892AEF92FF920F932D
:1022E0001F93CF93DF938C017B01C0E0D0E0F70117
:1022F000EC0FFD1F6491662361F0D801ED91FC9114
:102300000190F081E02DC8010995892B11F02196EB
:10231000EECFCE01DF91CF911F910F91FF90EF9003
:1023200008956115710579F0FB0101900020E9F72E
:102330003197AF01461B570BDC01ED91FC910280F8
:10234000F381E02D099480E090E008951F920F92B0
:102350000FB60F9211242F933F934F935F936F9378
:102360007F938F939F93AF93BF93EF93FF938AE9EC
:1023700091E00E94E20FFF91EF91BF91AF919F9189
:102380008F917F916F915F914F913F912F910F901E
:102390000FBE0F901F9018951F920F920FB60F92BD
:1023A00011242F938F939F93EF93FF93E091AA01B2
:1023B000F091AB018081E091B001F091B10182FD1B
:1023C00012C090818091B3018F5F8F732091B4010F
:1023D000821751F0E091B301F0E0E656FE4F958F81
:1023E0008093B30101C08081FF91EF919F918F9104
:1023F0002F910F900FBE0F901F901895CF93DF93E2
:10240000282F30E0F901EE54FF4F8491F901E85292
:10241000FD4FD491F901EC53FD4FC491CC2391F0C1
:1024200081110E947610EC2FF0E0EE0FFF1FE654B2
:10243000FD4FA591B491EC91ED2381E090E021F462
:1024400080E002C080E090E0DF91CF9108951F937B
:10245000CF93DF93282F30E0F901EE54FF4F8491A2
:10246000F901E852FD4FD491F901EC53FD4FC491AD
:10247000CC23C9F0162F81110E947610EC2FF0E0CA
:10248000EE0FFF1FE055FD4FA591B4918FB7F89463
:10249000111105C09C91ED2FE095E92302C0EC914C
:1024A000ED2BEC938FBFDF91CF911F910895CF93C8
:1024B000DF9390E0FC01E852FD4F2491FC01EC53C6
:1024C000FD4F8491882361F190E0880F991FFC01F2
:1024D000E451FD4FC591D491FC01E055FD4FA5910C
:1024E000B491611109C09FB7F89488812095822327
:1024F0008883EC912E230BC0623061F49FB7F8946F
:102500003881822F809583238883EC912E2B2C9306
:102510009FBF06C08FB7F894E8812E2B28838FBF0A
:10252000DF91CF9108951F93CF93DF93182FEB0185
:1025300061E00E945712209711F460E004C0CF3F81
:10254000D10539F461E0812FDF91CF911F910C9477
:102550002712E12FF0E0EE54FF4FE491E330F9F061
:1025600048F4E130B9F0E230A1F584B5806284BD71
:10257000C8BD34C0E730E9F0E83019F1E43049F57E
:1025800080918000806280938000D0938B00C09304
:102590008A0024C084B5806884BDC7BD1FC08091F7
:1025A0008000806880938000D0938900C093880069
:1025B00015C08091B00080688093B000C093B300D4
:1025C0000DC08091B00080628093B000C093B400D1
:1025D00005C0C038D1050CF0B5CFAFCFDF91CF919A
:1025E0001F9108958E3008F08E508770806480931C
:1025F0007C0080917A00806480937A0080917A00D8
:1026000086FDFCCF809178002091790090E0922B9C
:1026100008958230910538F0880F991F880F991F0F
:1026200005970197F1F708958F929F92AF92BF920D
:10263000CF92DF92EF92FF926B017C010E949F107C
:102640004B015C01C114D104E104F104F1F00E94DA
:102650009F10DC01CB0188199909AA09BB09883EA2
:102660009340A105B10570F321E0C21AD108E10839
:10267000F10888EE880E83E0981EA11CB11CC114DD
:10268000D104E104F10419F7DDCFFF90EF90DF9062
:10269000CF90BF90AF909F908F9008952FB7F894F0
:1026A0006091EA067091EB068091EC069091ED0640
:1026B0002FBF08951F920F920FB60F9211242F93E0
:1026C0003F938F939F93AF93BF938091EA0690912E
:1026D000EB06A091EC06B091ED063091E90623E0FF
:1026E000230F2D3720F40196A11DB11D05C026E84A
:1026F000230F0296A11DB11D2093E9068093EA06DF
:102700009093EB06A093EC06B093ED068091EE0655
:102710009091EF06A091F006B091F1060196A11DEF
:10272000B11D8093EE069093EF06A093F006B09350
:10273000F106BF91AF919F918F913F912F910F9093
:102740000FBE0F901F9018951F920F920FB60F9209
:1027500011242F933F934F935F936F937F938F93A6
:102760009F93AF93BF93EF93FF93E091A706F091F0
:10277000A806309709F451C0968DA685B785858542
:1027800091FF04C09C91892329F447C09C9189231F
:1027900009F043C0A389B4899C91858980958923D8
:1027A0008C93868997890197F1F7608D718DA68545
:1027B000B785558538E020E0CB010197F1F7822FEE
:1027C00090E095958795282F4C91452309F0206836
:1027D000315091F7868D81FD20958091A50690E07E
:1027E00001968F7399273091A606381749F0A0916A
:1027F000A506B0E0A755B94F2C938093A50603C05A
:10280000868D8160868F828D938D0197F1F7A389E4
:10281000B4899C918589892B8C93FF91EF91BF910D
:10282000AF919F918F917F916F915F914F913F9168
:102830002F910F900FBE0F901F901895E091A70653
:10284000F091A806E817F90769F4A389B4899C9167
:102850008589809589238C931092A8061092A706EB
:1028600081E0089580E008956F927F928F929F9209
:10287000AF92BF92CF92DF92EF92FF920F931F938E
:10288000CF93DF931F92CDB7DEB78C01F42EFC01FE
:102890008581968159830E94370840E06EEBF801EC
:1028A000858196810E94F5076F2C5981752E530101
:1028B000F9E0AF0EB11CF8018580968088E0C82E43
:1028C000D12CEE24E394F12CC4010E94A2078111C3
:1028D000FE28EE0CF1E0CF1AD108B1F7F301F19226
:1028E0003F01EA15FB0539F7F801858196810E94C1
:1028F000640891E0813009F090E0892F0F90DF911A
:10290000CF911F910F91FF90EF90DF90CF90BF90EC
:10291000AF909F908F907F906F900895CF93DF93AB
:10292000EC018D819E810E94640840E06CEC8D81F9
:102930009E810E94F507488164E48D819E810E94FA
:10294000F5078A818823B1F0E981E950E33040F44A
:10295000F0E0EE0FFF1FE258FE4F6081718102C070
:102960006EEE72E0072E000C880B990BDF91CF9171
:102970000C941413DF91CF910895CF93DF93CDB7CB
:10298000DEB729970FB6F894DEBF0FBECDBFFB01AF
:1029900020812031D1F0AE014F5F5F4F0E949A0835
:1029A000882389F08D818F3361F020F48F3159F4C1
:1029B00089E00CC08F3519F08F3739F004C08BE0F7
:1029C00005C08AE003C080E001C08CE029960FB604
:1029D000F894DEBF0FBECDBFDF91CF910895FC010B
:1029E00085810895FC0183810895FC018481089507
:1029F000FC018481811105C08381882311F081E06D
:102A0000848313820895FC018481811105C0838130
:102A1000811102C081E0848381E0838308958F92D5
:102A20009F92AF92BF92EF92FF920F931F93CF931B
:102A3000DF93CDB7DEB761970FB6F894DEBF0FBE58
:102A4000CDBF8C017C0143E4E40EF11CF701A080B2
:102A5000B18040E0BE01665F7F4FC5010E946607FE
:102A6000811107C0812C912CFEEFAF2EF2ECBF2E0E
:102A70004DC0AE014F5F5F4FBE01665F7F4FC50126
:102A80000E949A08882359F16981F8E06F9FB0018C
:102A900011248A81282F30E0322F2227330F330F61
:102AA000330F262B372B8A858031E1F4688570E05F
:102AB0008F81AB01481B5109CA019695982F882731
:102AC000979587950E94072960517109207F53E0EF
:102AD000220F331F5A95E1F7620F731F04C060E89D
:102AE00074EE01C0B901613854EE75070CF4BACF29
:102AF000072E000C880B990B0E94833120E030E0F8
:102B000040E05CE30E94E2314B015C01F70180810F
:102B100091810E948E14F80103811481F8012681AD
:102B2000378140855185C501B4010E94E231F80129
:102B300022853385448555850E94772961960FB695
:102B4000F894DEBF0FBECDBFDF91CF911F910F91E3
:102B5000FF90EF90BF90AF909F908F9008958F92CD
:102B60009F92AF92BF92CF92DF92EF92FF920F931C
:102B70001F93CF93DF93CDB7DEB762970FB6F8946C
:102B8000DEBF0FBECDBF7C0160E0DC0112968C91F0
:102B90000E945712B3E4EB0EF11CF7010081118182
:102BA000D8011596ED91FC9116971386158614861B
:102BB000DF011B9633961E92AE17BF07E1F7F801AF
:102BC0001482DD24D394BE01665F7F4FF8018581B6
:102BD00096810E943D0B882309F462C067E0CE0114
:102BE0000A960E94590799898913EDCFD8018C91D3
:102BF000811127C015968D919C9116970E946408AB
:102C0000BE01665F7F4FF801858196810E9437087B
:102C100040E064EBD80115968D919C9116970E9427
:102C2000F507F801858196810E94A207C82ED80178
:102C300015968D919C9116970E946408CC2009F4FA
:102C4000ECC0F801858196810E946408882349F0D0
:102C5000AE014F5F5F4FBE01665F7F4FC8010E94AC
:102C60003414D8011196CC90BE01665F7F4FC80125
:102C70000E94BD148C1518F4F801818106C0BE01B4
:102C8000665F7F4FC8010E94BD14D80111968C93D6
:102C9000119714968C9114978F5F14968C9393CF01
:102CA000D7010D911C918BE0F8018183C12CD12CAF
:102CB0008FE5B82E9FE7A92E2FE1922E3FE3832EBA
:102CC000D80114968C9190E0C816D9060CF08AC0F1
:102CD0004C2DBE01665F7F4FC8010E946607D80178
:102CE00011962C91AE014F5F5F4FBE01665F7F4F23
:102CF000C8012A8B0E949A082A89882309F46EC089
:102D00008A85803109F46AC02B3041F02C3021F0E3
:102D10002A3031F48D8205C0AD8203C0BD8201C06E
:102D20009D82F801858196810E946408BE01665FDC
:102D30007F4FD80115968D919C9116970E94370868
:102D400040E06EE4F801858196810E94F50740E03D
:102D50006B81D80115968D919C9116970E94F5076D
:102D600040E06C81F801858196810E94F5078A8593
:102D7000803149F040E06D81D80115968D919C918C
:102D800016970E94F507F801858196810E946408D4
:102D9000BE01665F7F4FD80115968D919C91169765
:102DA0000E943708F801408168E4858196810E947D
:102DB000F50764E170E080E090E00E941413D80110
:102DC0008C91882331F06AE070E080E090E00E940E
:102DD0001413F801858196810E946408FFEFCF1AD1
:102DE000DF0A6ECFF70180819181DC0112961C927F
:102DF0000E948E1462960FB6F894DEBF0FBECDBF50
:102E0000DF91CF911F910F91FF90EF90DF90CF90C6
:102E1000BF90AF909F908F900895F801D08211CF0E
:102E20006F927F928F929F92AF92BF92CF92DF92DA
:102E3000EF92FF920F931F93CF93DF93EC01CB019F
:102E4000BA018F7099271CE0C12CD12C7601B3E018
:102E50008B2E912CA12CB12CA2E0CC0CDD1CEE1CF5
:102E6000FF1CAA95D1F7A50194010E941B29C62A2F
:102E7000D72AE82AF92AB901CA01115069F7ED8168
:102E8000FE8183A5877091E0692E01C0660C8A954A
:102E9000EAF700E0FFE17F2E460157011CE0D50173
:102EA000C40183709927AA27BB2781309105A1050A
:102EB000B10509F44FC0E8F00297A105B10509F08A
:102EC0007BC061E08A810E942712ED81FE8184A58A
:102ED00095A50E94091360E08A810E942712ED8166
:102EE000FE8184A595A59C01220F331F820F931F9D
:102EF00048C061E08A810E942712ED81FE8184A58D
:102F000095A50E94091360E08A810E942712ED8135
:102F1000FE8184A595A59C01220F331F820F931F6C
:102F20000E94091361E08A810E942712ED81FE81CF
:102F300084A595A50E94091360E08A810E9427124A
:102F4000ED81FE8184A595A59C01220F331F820F80
:102F5000931F30C061E08A810E942712ED81FE81BB
:102F600084A595A59C01220F331F820F931F0E94F9
:102F7000091360E08A810E942712ED81FE8184A5F9
:102F800095A50E94091361E08A810E942712ED81B4
:102F9000FE8184A595A59C01220F331F820F931FEC
:102FA0000E94091360E08A810E942712ED81FE8150
:102FB00084A595A50E94091382E0B694A7949794DE
:102FC00087948A95D1F7115009F069CF61E08A8121
:102FD0000E942712ED81FE8184A595A50E94091308
:102FE00060E08A810E942712ED81FE8184A595A56B
:102FF0009C01729EC001739E900D11240E940913C2
:103000000F5F061508F448CFDF91CF911F910F9104
:10301000FF90EF90DF90CF90BF90AF909F908F90F8
:103020007F906F900895CF93DF93EC01662371F149
:1030300061E08A810E942712ED81FE8184A595A519
:103040000E94091360E08A810E942712ED81FE81AF
:1030500084A595A525E0AC01249FC001259F900D76
:1030600011240E94091361E08A810E942712ED81D8
:10307000FE8184A595A50E94091360E08A810E94C3
:103080002712ED81FE8184A595A52DC061E08A817E
:103090000E942712ED81FE8184A595A50E94091347
:1030A00060E08A810E942712ED81FE8184A595A5AA
:1030B0000E94091361E08A810E942712ED81FE813E
:1030C00084A595A50E94091360E08A810E942712B9
:1030D000ED81FE8184A595A525E0AC01249FC0016A
:1030E000259F900D1124DF91CF910C9409134F92DD
:1030F0005F926F927F92AF92BF92CF92DF92EF92E8
:10310000FF920F931F93CF93DF93EC01E62EED8197
:10311000FE81F3A49AE0B92ECC24C394D12C38E2DA
:10312000A32EF7FC7FC0ED81FE8146A457A460A8C2
:1031300071A861E08A810E942712ED81FE8184A539
:1031400095A50E94091360E08A810E942712ED81F3
:10315000FE8124A535A5A90156954795B29EC001CB
:10316000B39E900D1124840F951F0E94091309E14D
:1031700010E0D301C201002E04C0B695A795979523
:1031800087950A94D2F7682F6170CE010E941318B8
:103190000150110970F760E0CE010E9413186E2DE6
:1031A000CE010E94131803E010E0C601002E02C0F9
:1031B000880F991F0A94E2F7092E000CAA0BBB0B8B
:1031C000ED81FE8142A953A964A975A984239523A1
:1031D000A623B72361E0892B8A2B8B2B09F460E0AF
:1031E000CE010E94131801501109F8F661E08A819E
:1031F0000E942712ED81FE8184A595A50E940913E6
:1032000060E08A810E942712ED81FE8184A595A548
:103210009C01A29EC001A39E900D11240E9409133F
:10322000FA947FCFDF91CF911F910F91FF90EF9094
:10323000DF90CF90BF90AF907F906F905F904F9056
:103240000895CF93DF93EC010E94F814ED81FE8185
:1032500082A5811106C060E0CE01DF91CF910C9470
:103260007718813049F442A953A964A975A9CE0100
:10327000DF91CF910C941017DF91CF910895CF93E8
:10328000DF93EC010E940315ED81FE8182A581117F
:1032900006C061E0CE01DF91CF910C94771846A56E
:1032A00057A560A971A9CE01DF91CF910C94101799
:1032B000CF92DF92EF92FF920F931F93CF93DF9302
:1032C0001F92CDB7DEB7F999FECF89017A01E60EDC
:1032D000F71E6B01CE14DF04B9F0C11484E0D806E8
:1032E00098F4F999FECFF80161918F01C6016983C5
:1032F0000E94A3326981681719F0C6010E94AB329F
:10330000FFEFCF1ADF0AE6CF0F90DF91CF911F9129
:103310000F91FF90EF90DF90CF900895EF92FF9282
:103320000F931F93CF93DF9389017901E40EF51E6C
:10333000EB010E151F0571F0C115F4E0DF0750F425
:10334000F999FECFCE010E94A332F80181938F013B
:103350002196EFCFDF91CF911F910F91FF90EF90CA
:103360000895FC0110821182128213821486158640
:1033700016861786108A118A128A08959C01FC010C
:10338000E95BFF4F80819181DC01ED91FC91215C33
:103390003F4F0280F381E02D48E050E06FEA72E099
:1033A0000994EF92FF920F931F93CF93DF938C01B9
:1033B0007C0187E4E80EF11CD7018D919C91DC0122
:1033C000ED91FC910280F381E02D98014FE350E0F4
:1033D00060E070E00995CFE3D0E0F7018081918152
:1033E000DC01ED91FC919E01215F3F4F200F311FC9
:1033F0000280F381E02D47E250E0BE010995A796D7
:10340000CF3AB2E0DB0749F7DF91CF911F910F91DF
:10341000FF90EF900895CF93DF93EC018FE3DE01EF
:103420001D928A95E9F7FE01E25BFF4FCE018254BF
:103430009D4F27E2DF01322F1D923A95E9F7B796AB
:10344000E817F907B9F7FE01FF9688E0DF011D9242
:103450008A95E9F7CE010E94D119CE01DF91CF9173
:103460000C94BE19CF93DF9300D000D0CDB7DEB758
:10347000789484B5826084BD84B5816084BD85B54F
:10348000826085BD85B5816085BD80916E0081605B
:1034900080936E0010928100809181008260809301
:1034A0008100809181008160809381008091800003
:1034B0008160809380008091B10084608093B1002E
:1034C0008091B00081608093B00080917A00846028
:1034D00080937A0080917A00826080937A00809154
:1034E0007A00816080937A0080917A00806880936E
:1034F0007A001092C10061E083E00E94571261E0FF
:1035000083E00E94271280912E0490912F04DC0109
:10351000ED91FC910190F081E02D27EE33E04FE337
:1035200050E060E070E009950FE310E080912E0418
:1035300090912F04DC01ED91FC9198012A503C4FB1
:103540000190F081E02D47E250E0B8010995095D56
:103550001F4F0F3AB2E01B0749F7409130045091DA
:10356000310460913204709133048091E7039091AB
:10357000E803A091E903B091EA03481759076A07E5
:103580007B0709F4E4C087EE93E00E940B1A809158
:10359000300490913104A0913204B09133048093AF
:1035A000E7039093E803A093E903B093EA0381E073
:1035B000809326048DE494E0909322048093210468
:1035C0001092EB0381E090E0A0E0B0E0809319045A
:1035D00090931A04A0931B04B0931C0480E090E61F
:1035E000ACE1B0E08093150490931604A093170407
:1035F000B093180488E893E190930A048093090437
:1036000084E690E090930C0480930B0480E090E0BB
:10361000A0E2B1E480930D0490930E04A0930F04F4
:10362000B09310041092110488E091E09093140478
:103630008093130483E0809312048EEA97E4A1E858
:10364000BFE38093ED039093EE03A093EF03B09359
:10365000F00383E393E3A3E6B1E48093F50390934F
:10366000F603A093F703B093F80380E090EBA5E690
:10367000B6E48093F9039093FA03A093FB03B0930D
:10368000FC038AE999E9AEEAB2E48093FD039093E2
:10369000FE03A093FF03B093000480E090E0AFEA44
:1036A000B4E48093010490930204A0930304B093C4
:1036B000040486E696E6A6ECB0E480931D0490939D
:1036C0001E04A0931F04B093200480E197E2A0E0C1
:1036D000B0E08093050490930604A0930704B09390
:1036E0000804E0E4F4E000E010E020E83FE34DEC03
:1036F0005CEC6CEC7DEBADECCA2EACECDA2EED2C78
:10370000ADE3FA2E1086118612861386148615866E
:1037100016861786008B118B228B338B4083518347
:1037200062837383C482D582E682F782B79686E08D
:10373000E03BF80739F787EE93E00E94D11987EE56
:1037400093E00E94BE1981E08093340413C010926C
:10375000340480912E0490912F04DC01ED91FC91B2
:103760000190F081E02D26E234E048E050E06FEA7D
:1037700072E009958DE393E00E946C0661E0809110
:103780007C030E94571281E893E00E94AF1560E02D
:1037900080913A030E94571261E0809139030E94A0
:1037A00057128AEB92E00E9467048BE093E00E943C
:1037B00060028BE792E00E94C90862E08091790282
:1037C0000E94571210925E0210925F0210925D02E8
:1037D00010925602109257021092580210925902FB
:1037E00010925A0210925C0210925B0280913B028E
:1037F00090913C020E94C908CC24C394E7E2DE2EDB
:1038000080915E0281114FC0C0925E0280913902A8
:1038100090913A02FC01E05CFF4F2081222309F4E1
:1038200042C0108210925E02C0925F02B3E0B09379
:103830005602C092590220915B0230915C02D29EE6
:10384000F001D39EF00D1124E80FF91FE25BFF4F4A
:10385000208120936002FC01EF5BFF4F608171814A
:1038600070935C0260935B0280913B0290913C02FA
:103870000E940409E0913902F0913A02ED5BFF4F9A
:1038800080819181A281B381E0913B02F0913C0261
:1038900016861786108A118A828F938FA48FB58F10
:1038A000168E10A2C78E809179020E94FE11892B7C
:1038B00021F40E946A0F10925602E0913B02F091AF
:1038C0003C0280AD882311F060E001C061E080918E
:1038D0007A020E94271280915602823009F49BC31B
:1038E00038F4882381F0813009F4E1C00C94E62596
:1038F000833009F45AC6853011F00C94E6250E94F5
:103900006A0F0C94E62580915D0281115DC0809163
:103910003F0290914002DC01ED91FC910480F58121
:10392000E02D0995A0913702B0913802ED91FC91FC
:1039300011970680F781E02D813019F46AE771E074
:1039400002C067E771E0CD01099501E612E020E0D1
:1039500041E060E070E080E891E40E94382D8091C1
:10396000370290913802DC01ED91FC910280F381E5
:10397000E02DB80109958091370290913802DC0161
:10398000ED91FC910680F781E02D65E771E00995E6
:10399000E0913902F0913A026081718182819381D4
:1039A0000E94813120E041E00E94382D8091370251
:1039B00090913802DC01ED91FC910480F581E02DBD
:1039C000B8010995C0925D0280913702909138024A
:1039D000DC01ED91FC910284F385E02D099581369F
:1039E000910509F426C6BCF481339105A9F12CF4A4
:1039F000C09709F41EC60C94E8258233910591F115
:103A0000C39711F00C94E82510925D02E3E0E09377
:103A100056020C94E8258836910589F174F48336B2
:103A20009105C1F18436910511F00C94E82575E0FB
:103A3000672E609256020C94E82580379105C9F0F4
:103A40008437910511F00C94E82510925D02F4E0A2
:103A5000F09356020C94E82510925D02C092560233
:103A60000C94E82510925D02B2E0B09356020C94DB
:103A7000E82561E080E00E94340C0C94E8258091F8
:103A8000410290914202DC01ED91FC910190F081A4
:103A9000E02D0AC08091410290914202DC01ED913B
:103AA000FC910280F381E02D09950C94E825E091CA
:103AB00057028E2F90E08731910508F099C2FC01E2
:103AC000EC5CFF4F0C945C29E0913902F0913A02D2
:103AD00084818983BE016F5F7F4F80E791E00E9400
:103AE000CD0B882311F40C94E825E0913902F09174
:103AF0003A028981848323C0E0913902F0913A022D
:103B000086859785A089B18989839A83AB83BC8395
:103B1000BE016F5F7F4F8BE691E00E94000F88230C
:103B200011F40C94E825E0913902F0913A02898170
:103B30009A81AB81BC8186879787A08BB18B1092CD
:103B40005D02809157028F5F809357020C94E825A5
:103B5000E0913902F0913A0286819781A085B18582
:103B600089839A83AB83BC83BE016F5F7F4F86E6F8
:103B700091E00E94000F882311F40C94E825E09155
:103B80003902F0913A0289819A81AB81BC818683A6
:103B90009783A087B187D3CFE0913902F0913A02A1
:103BA00082899389A489B58989839A83AB83BC83ED
:103BB000BE016F5F7F4F81E691E00E94000F882376
:103BC00011F40C94E825E0913902F0913A028981D0
:103BD0009A81AB81BC81828B938BA48BB58BAFCF49
:103BE000E0913902F0913A0282859385A485B585EA
:103BF00089839A83AB83BC83BE016F5F7F4F8CE563
:103C000091E00E94000F882309F4E2C7E091390295
:103C1000F0913A0289819A81AB81BC818287938736
:103C2000A487B5878CCFE0913902F0913A0286895A
:103C30009789A08DB18D89839A83AB83BC83BE01A4
:103C40006F5F7F4F87E591E00E94000F882309F4A2
:103C5000BFC7E0913902F0913A0289819A81AB8124
:103C6000BC81868B978BA08FB18F69CFE091390291
:103C7000F0913A02828D938DA48DB58D89839A83BC
:103C8000AB83BC83BE016F5F7F4F82E591E00E94F2
:103C9000000F882309F49CC7E0913902F0913A02A1
:103CA00089819A81AB81BC81828F938FA48FB58FDC
:103CB00046CFE0913902F0913A02868D978DA0A10E
:103CC000B1A189839A83AB83BC83BE016F5F7F4FB1
:103CD0008DE491E00E94940E882309F479C7E09165
:103CE0003902F0913A0289819A81AB81BC81868F39
:103CF000978FA0A3B1A323CFE0913902F0913A02AC
:103D000082A193A1A0E0B0E089839A83AB83BC83B6
:103D1000BE016F5F7F4F81E191E00E94940E882386
:103D200009F456C7E0913902F0913A0289819A81EB
:103D300093A382A304CFE0913902F0913A0284A1C7
:103D400095A1A0E0B0E089839A83AB83BC83BE01D8
:103D50006F5F7F4F88E491E00E94940E882309F4FE
:103D600037C7E0913902F0913A0289819A8195A38F
:103D700084A3E5CEE0913902F0913A0286A197A1A1
:103D8000A0A5B1A589839A83AB83BC83BE016F5F75
:103D90007F4F83E491E00E94000F882309F418C745
:103DA000E0913902F0913A0289819A81AB81BC811C
:103DB00086A397A3A0A7B1A7C2CEBEE0B093570237
:103DC00007C7E0913902F0913A0282A590E0A0E0A5
:103DD000B0E089839A83AB83BC83BE016F5F7F4F62
:103DE0008EE391E00E94940E882309F4F1C6E091DD
:103DF0003902F0913A02898182A7A1CEE09139027D
:103E0000F0913A0283A590E0A0E0B0E089839A8324
:103E1000AB83BC83BE016F5F7F4F89E391E00E945B
:103E2000940E882309F4D4C6E0913902F0913A0245
:103E3000898183A784CEE0913902F0913A0284A56A
:103E400095A5A0E0B0E089839A83AB83BC83BE01D3
:103E50006F5F7F4F84E391E00E94940E882309F402
:103E6000B7C6E0913902F0913A0289819A8195A70B
:103E700084A765CEE0913902F0913A0286A597A514
:103E8000A0A9B1A989839A83AB83BC83BE016F5F6C
:103E90007F4F8FE291E00E94940E882309F498C628
:103EA000E0913902F0913A0289819A81AB81BC811B
:103EB00086A797A7A0ABB1AB42CEE0913902F091B3
:103EC0003A0282A993A9A4A9B5A989839A83AB834D
:103ED000BC83BE016F5F7F4F8AE291E00E94940E27
:103EE000882309F475C6E0913902F0913A0289817C
:103EF0009A81AB81BC8182AB93ABA4ABB5AB1FCE37
:103F0000E0913902F0913A0286A997A9A0ADB1AD2E
:103F100089839A83AB83BC83BE016F5F7F4F85E249
:103F200091E00E94000F882309F452C6E091390203
:103F3000F0913A0289819A81AB81BC8186AB97ABC3
:103F4000A0AFB1AFFCCDE0913902F0913A0282AD61
:103F500093ADA0E0B0E089839A83AB83BC83BE01BC
:103F60006F5F7F4F80E291E00E94940E882309F4F6
:103F70002FC6E0913902F0913A0289819A8193AF7C
:103F800082AFDDCDE0913902F0913A0284AD95AD7A
:103F9000A0E0B0E089839A83AB83BC83BE016F5FEE
:103FA0007F4F8BE191E00E94940E882309F410C6A4
:103FB000E0913902F0913A0289819A8195AF84AFFC
:103FC000BECDE0913902F0913A0286AD8983BE01FF
:103FD0006F5F7F4F86E191E00E94CD0B882309F44B
:103FE000F7C5E0913902F0913A02898186AFA7CDF9
:103FF0008091390290913A020E94D1191092560292
:10400000109257028091390290913A02FC01C7AE9A
:104010000E94BE19DDC5E09158028E2F90E08E30CF
:10402000910508F0B7C2FC01E55BFF4F80915B0290
:1040300090915C020C945C29092E000CAA0BBB0B1E
:1040400089839A83AB83BC83BE016F5F7F4F8CE013
:1040500091E00E94940E882309F4BAC589819A815F
:10406000AB81BC8180319105A105B1050CF0E1C2A5
:1040700090935C0280935B02809158028F5F8093E3
:104080005802D7C2E0913902F0913A02D89E9001CD
:10409000D99E300D1124E20FF31FE05BFF4F8081AA
:1040A0008983BE016F5F7F4F8BEC90E00E94CD0B48
:1040B000882309F48DC5E0913902F0913A022091EC
:1040C0005B0230915C02D29EC001D39E900D112400
:1040D000E80FF91FE05BFF4F55C0E0913902F09106
:1040E0003A02D89E9001D99E300D1124E20FF31FA1
:1040F000E15BFF4F80818983BE016F5F7F4F87E067
:1041000091E00E94CD0B882309F462C5E091390249
:10411000F0913A0220915B0230915C02D29EC00184
:10412000D39E900D1124E80FF91FE15BFF4F2AC0C9
:10413000E0913902F0913A02D89E9001D99E300D5B
:104140001124E20FF31FE25BFF4F80818983BE01E0
:104150006F5F7F4F82E091E00E94CD0B882309F4CE
:1041600037C5E0913902F0913A0220915B0230911B
:104170005C02D29EC001D39E900D1124E80FF91F5E
:10418000E25BFF4F89818083FDC1E0913902F091AC
:104190003A02D89E9001D99E300D1124E20FF31FF0
:1041A000EF5AFF4F80819181A281B38189839A83E5
:1041B000AB83BC83BE016F5F7F4F8DEF90E00E94A9
:1041C000000F882309F404C5E0913902F0913A0206
:1041D00020915B0230915C02D29EC001D39E900D73
:1041E0001124E80FF91FEF5AFF4FC4C1E0913902C3
:1041F000F0913A02D89E9001D99E300D1124E20F21
:10420000F31FEB5AFF4F80819181A281B381898393
:104210009A83AB83BC83BE016F5F7F4F88EF90E0D2
:104220000E94940E882309F4D3C4E0913902F091DE
:104230003A0220915B0230915C02D29EC001D39E73
:10424000900D1124E80FF91FEB5AFF4F89819A81D5
:10425000AB81BC8180839183A283B38393C1E091BE
:104260003902F0913A02D89E9001D99E300D112466
:10427000E20FF31FE75AFF4F80819181A281B38142
:1042800089839A83AB83BC83BE016F5F7F4F83EFCB
:1042900090E00E94000F882309F49AC4E09139024B
:1042A000F0913A0220915B0230915C02D29EC001F3
:1042B000D39E900D1124E80FF91FE75AFF4F5AC102
:1042C000E0913902F0913A02D89E9001D99E300DCA
:1042D0001124E20FF31FE35AFF4F80819181A281E5
:1042E000B38189839A83AB83BC83BE016F5F7F4FA9
:1042F0008EEE90E00E94000F882309F469C4E091DB
:104300003902F0913A0220915B0230915C02D29E18
:10431000C001D39E900D1124E80FF91FE35AFF4FFF
:1043200029C1E0913902F0913A02D89E9001D99EBC
:10433000300D1124E20FF31FEF59FF4F808191815F
:10434000A281B38189839A83AB83BC83BE016F5FF3
:104350007F4F89EE90E00E94000F882309F438C453
:10436000E0913902F0913A0220915B0230915C02B7
:10437000D29EC001D39E900D1124E80FF91FEF5972
:10438000FF4FF8C0E0913902F0913A02D89E9001B7
:10439000D99E300D1124E20FF31FEB59FF4F80819E
:1043A0009181A281B38189839A83AB83BC83BE014F
:1043B0006F5F7F4F84EE90E00E94000F882309F426
:1043C00007C4E0913902F0913A0220915B023091EA
:1043D0005C02D29EC001D39E900D1124E80FF91FFC
:1043E000EB59FF4FC7C0E0913902F0913A02D89ED5
:1043F0009001D99E300D1124E20FF31FE759FF4FB2
:1044000080819181A281B38189839A83AB83BC83AC
:10441000BE016F5F7F4F8FED90E00E94000F8823F9
:1044200009F4D6C3E0913902F0913A0220915B027F
:1044300030915C02D29EC001D39E900D1124E80FF2
:10444000F91FE759FF4F96C0E0913902F0913A0207
:10445000D89E9001D99E300D1124E20FF31FE3592D
:10446000FF4F80819181A0E0B0E089839A83AB8384
:10447000BC83BE016F5F7F4F8AED90E00E94940E77
:10448000882309F4A5C3E0913902F0913A02209102
:104490005B0230915C02D29EC001D39E900D11242C
:1044A000E80FF91FE359FF4F30C0E0913902F09156
:1044B0003A02D89E9001D99E300D1124E20FF31FCD
:1044C000E159FF4F80819181A0E0B0E089839A8318
:1044D000AB83BC83BE016F5F7F4F85ED90E00E9490
:1044E000940E882309F474C3E0913902F0913A02E2
:1044F00020915B0230915C02D29EC001D39E900D50
:104500001124E80FF91FE159FF4F89819A819183A6
:10451000808338C0E0913902F0913A02D89E900130
:10452000D99E300D1124E20FF31FEF58FF4F808109
:104530009181A281B38189839A83AB83BC83BE01BD
:104540006F5F7F4F80ED90E00E94000F882309F499
:104550003FC3E0913902F0913A0220915B02309121
:104560005C02D29EC001D39E900D1124E80FF91F6A
:10457000EF58FF4F89819A81AB81BC818083918301
:10458000A283B38310925D02809158028F5F809363
:1045900058021EC38091390290913A020E94D119AB
:1045A000109256021092580213C380915902882328
:1045B00021F0813009F440C0E1C280915B0290910A
:1045C0005C02092E000CAA0BBB0B89839A83AB8378
:1045D000BC83BE016F5F7F4F86EC90E00E94940E1B
:1045E000882309F4F5C249815A816B817C8140316D
:1045F000510561057105ECF450935C0240935B0238
:10460000E0913902F0913A02D49EC001D59E900DFE
:104610001124E80FF91FE25BFF4F80818093600255
:1046200010925E0210925F02809159028F5F809318
:10463000590210925D02CCC28091370290913802EB
:10464000DC01ED91FC910284F385E02D09955C017C
:104650008237910509F4C0C2809179020E94FE114F
:10466000892B09F4B9C280915B0290915C02803180
:1046700091050CF07DC2E0913902F0913A02D89E8A
:104680009001D99E300D1124E20FF31FE05BFF4F24
:104690002081222309F466C2E1E6AE16B10429F4B2
:1046A00060E080915D020E94340CE0913902F0914B
:1046B0003A0286AD882309F45DC083E492E00E944B
:1046C000970983E492E00E946909882309F452C0A3
:1046D00083E492E00E94B119E0913902F0913A022C
:1046E000DF01A05CBF4FCC92A0913B02B0913C0295
:1046F000D6968C91D697E0905B02F0905C028F0189
:104700000D5B1F4F8823B9F052964D915D916D91CD
:104710007C91559756968D919D910D90BC91A02DB1
:10472000481B590B6A0B7B0BD8014D935D936D931E
:104730007C93139717C0DE9CD001DF9CB00D112431
:10474000AE0FBF1FAB5ABF4F2D913D914D915C9164
:10475000A0E6BAEE0E94B932D8016D937D938D9395
:104760009C931397DF01AF5BBF4FED92FC92CF019B
:104770000E94BE1980915F0281112CC0C0925F021D
:1047800060915B0270915C0280913B0290913C02CF
:104790000E940409E0913902F0913A0220915B02F3
:1047A00030915C02D29EC001D39E900D1124E80F7F
:1047B000F91FE25BFF4F80818093600210925D02DF
:1047C0000E944E1360937502709376028093770275
:1047D00090937802E0903B02F0903C0287010F5DDD
:1047E0001F4FC8010E949709C8010E9469098823C8
:1047F000A9F1C8010E94B119F70182859385DC01F6
:10480000ED91FC910190F081E02D0995F70163AFE6
:1048100074AF85AF96AF0284F385E02D2681DF016A
:1048200034E0239FA00DB11D112417966D937D9345
:104830008D939C931A9781E0820F8F3010F48683BA
:1048400001C01682D701D4968C91D4978F5F8230A5
:1048500018F4D4968C9302C0F70114AAD7011696C7
:104860008D919C911797DC01ED91FC910480F5816D
:10487000E02D0995811110C0F70180859185DC013B
:10488000ED91FC910480F581E02D0995811104C022
:10489000F70184A9811142C0D70112960D911C9194
:1048A0001397F80180810E94F212BC01990F880BC6
:1048B000990B0E9483312FEC32ED47EA5CE30E94B2
:1048C000E231D8011196ED91FC91129726A937A9F2
:1048D00040AD51AD0E947C31881F8827881FF701A9
:1048E00080AF882351F0D7011496ED91FC91159774
:1048F00064EB70E080810E949312F70127A9848500
:104900009585DC01222309F472C120AD21116FC10C
:10491000ED91FC910190F081E02D0995F70123AC18
:1049200034AC45AC56AC0190F081E02D8481D701C8
:10493000882399F016968D919C911797DC01ED9143
:10494000FC910190F081E02D00E010E09801B201AF
:10495000A1010995F70187AB3FC018968D909C90F7
:104960001997D401ED91FC9160807180D7011A965E
:10497000ED91FC911B972681422F50E0211107C039
:10498000DF01DF966D917D918D919C910EC0DA01D2
:104990001197AA0FBB1FAA0FBB1FAE0FBF1F179601
:1049A0006D917D918D919C911A979A01220F331FE1
:1049B000220F331FE20FF31F278130854185528577
:1049C0000E9476298B019C01B201A101C401F3016F
:1049D0000995D701D7968C93F70186A981113DC01F
:1049E0000084F185E02D4481558122813381D49E5C
:1049F000C001D59E900D1124820F931FDC01A35A94
:104A0000BF4FFC01E75AFF4F208131814281538122
:104A10006D917D918D919C910E947C31D701ED919A
:104A2000FC911197D9962D913C91DA9787FFE5C0BB
:104A3000D29EC001D39E900D1124E80FF91FEF5AAA
:104A4000FF4F2081318142815381C201B1010E9417
:104A50007C31181614F0F701C6AAF70186A988233D
:104A600009F4B6C00190F081E02DD701D9962D91BF
:104A70003C91DA97D29EC001D39E900D1124E80F8D
:104A8000F91FEB5AFF4F2081318142815381870109
:104A9000025F1F4F5F968C915F97882361F05A9653
:104AA0008D919D910D90BC91A02DF701828B938BE0
:104AB000A48BB58B0BC0A0E6BAEE0E94B932D70129
:104AC00052966D937D938D939C935597C8010E9448
:104AD0009709C8010E946909882309F479C0E09107
:104AE0003902F0913A0220915B0230915C02D29E31
:104AF000C001D39E900D1124E80FF91FE15BFF4F19
:104B00008081882319F1C0925D0280916002882320
:104B100049F0E0913D02F0913E0264EB70E080814B
:104B20000E949312B7E7AB16B10409F07DC0E09183
:104B30003D02F0913E02108161E0812F0E945712E8
:104B400060E0812F0E94271210925D0280915B022B
:104B500090915C02019690935C0280935B021092AC
:104B60005F0236C0019690935C0280935B0230C076
:104B7000809159028F5F809359022AC08091390237
:104B800090913A02FC0126AD222329F0E05CFF4F10
:104B900010820E94BE1910925E0210925F02109263
:104BA0005D02109256021092570210925802109213
:104BB000590210925A0210925C0210925B0280918C
:104BC0003B0290913C020E94C90802C0109256021A
:104BD0000E946C100C94001CE0913902F0913A0292
:104BE000E05CFF4F1082F4E1F09359023CCDED916F
:104BF000FC910280F381E02D90CED29EC001D39E25
:104C0000900D1124E80FF91FEF5AFF4F20813181D9
:104C100042815381C201B1010E94842A87FD1DCFC8
:104C2000D701D696CC9219CFF2E6AF16B10481F631
:104C3000E0913D02F0913E02108161E0812F0E94DF
:104C4000571260E0812F0E94271210926002C0CF9D
:104C5000EDE3F3E086E491E09183808386E391E0E5
:104C6000958F848F89E593E00C941E14CF92DF9288
:104C7000EF92FF920F931F93CF93DF9310929D01BA
:104C800010929C0188EE93E0A0E0B0E080939E013A
:104C900090939F01A093A001B093A1018EE091E0B9
:104CA00090939B0180939A0185EC90E09093A701EB
:104CB0008093A60184EC90E09093A9018093A801D1
:104CC00080EC90E09093AB018093AA0181EC90E09E
:104CD0009093AD018093AC0182EC90E09093AF0192
:104CE0008093AE0186EC90E09093B1018093B00187
:104CF0001092B3011092B4011092B5011092B60156
:104D000080E091E090932F0480932E048AE998E943
:104D1000A4E0B0E08093300490933104A093320477
:104D2000B093330481E08093340460E08CE00E940F
:104D30005712E4EEF2E0E491E093D903E0EDF2E003
:104D4000E491F0E0EE0FFF1FE654FD4F8591949142
:104D50009093DB038093DA031092E4031092E6034E
:104D60001092E503E4EEF3E0129283E0EC3DF807E5
:104D7000D9F78AE691E19093D8038093D70389ED20
:104D800093E09093CC038093CB031092CA031092CC
:104D9000C60389E08093C70361E06093C803609312
:104DA000C9038CE08093830387EE93E0909385039F
:104DB00080938403109287032EE631E030938203C0
:104DC0002093810326EC33E03093C5032093C40382
:104DD0006093860310927D0310927E0328E0209357
:104DE0007C0326E531E030937B0320937A03909394
:104DF000800380937F0380E091EEA0E0B0E0809399
:104E0000550390935603A0935703B093580386E439
:104E100091E090933E0380933D0310925C031092C7
:104E20005B0388EE93E0A0E0B0E080935D03909395
:104E30005E03A0935F03B093600386E391E09093D9
:104E40005A03809359031092700310926F031092CB
:104E500072031092710310927403109273031092F4
:104E6000760310927503809177038E7F8D7F8093F8
:104E700077038695817068278BE00E94271261E096
:104E80008BE00E945712E3EEF2E0E491E0936903B5
:104E9000EFECF2E0E491F0E0EE0FFF1FE055FD4F84
:104EA0008591949190936B0380936A0360E08AE00C
:104EB0000E9457128091770381FD04C061E08AE06F
:104EC0000E9427128AE080936503E2EEF2E0E4910B
:104ED000E0936603EEECF2E0E491F0E0EE0FFF1FEA
:104EE000E654FD4F859194919093680380936703F6
:104EF000C7EED3E0D0937903C09378038FE080931B
:104F00003A03D0933C03C0933B0389E08093390379
:104F1000D0930E03C0930D031092100310920F0351
:104F200010921103109212038AE291E090930C0305
:104F300080930B0310921703109218031092190319
:104F400010921A0383E193E00E94B11910922A0390
:104F500010922B0310922C0310922D0386E293E003
:104F60000E94B119D093BD02C093BC021092BF023F
:104F70001092BE021092C0021092C1028EE191E026
:104F80009093BB028093BA028FEF92E09093DF027E
:104F90008093DE028BEF92E09093DD028093DC023F
:104FA00083E093E09093E1028093E0021092FA0292
:104FB0001092F2021092F3021092F4021092F50293
:104FC00080E090E0AFE7B3E48093F6029093F702BD
:104FD000A093F802B093F90284E690E0A0E0B0E07C
:104FE0008093EE029093EF02A093F002B093F1024F
:104FF0001092DB021092DA028EEA97E4A1E8B1E4A3
:105000008093C2029093C302A093C402B093C502DE
:1050100049E25CE56FE07EE34093C6025093C7022D
:105020006093C8027093C9024DEC5CE060EF73E4DA
:105030004093CA025093CB026093CC027093CD028E
:105040008093CE029093CF02A093D002B093D1026E
:1050500082E490E6A5E6BCE38093D2029093D3026B
:10506000A093D402B093D50280E098E0A6E9B5E41D
:105070008093D6029093D702A093D802B093D9021E
:105080000E944E130091EE021091EF022091F00267
:105090003091F102DC01CB01801B910BA20BB30B11
:1050A0008093E2029093E302A093E402B093E502BE
:1050B00010920703109208031092090310920A033A
:1050C000D0937C02C0937B028AE393E090937E02AC
:1050D00080937D0299E3C92E93E0D92ED09280026D
:1050E000C0927F028AEB92E09093820280938102C9
:1050F0008BE093E0909384028093830221E8E22E78
:1051000023E0F22EF0928602E09285020AE713E095
:10511000109388020093870210928D0210928E02E3
:1051200010928F021092900289E892E00E94B119C9
:1051300080EA9FE0A0E0B0E08093A0029093A102FB
:10514000A093A202B093A3028CE992E00E94B1194D
:105150001092B0021092B1021092B3021092B502F6
:105160001092B4021092B6021092B7021092B802D6
:105170001092B9028DE393E0909338028093370246
:10518000D0933A02C09339028BE792E090933C02AD
:1051900080933B02D0923E02C0923D02F0924002C8
:1051A000E0923F02109342020093410280E395E7B0
:1051B000A0E0B0E08093470290934802A093490298
:1051C000B0934A0283E492E00E94B1191092560211
:1051D00010925702109258021092590210925A02DD
:1051E00010925C0210925B0210925D0210925E02BD
:1051F00082E08093790283E080937A02DF91CF91FD
:105200001F910F91FF90EF90DF90CF90089597FB43
:10521000072E16F4009407D077FD09D00E9462296A
:1052200007FC05D03EF4909581959F4F08957095A9
:1052300061957F4F0895A1E21A2EAA1BBB1BFD01A9
:105240000DC0AA1FBB1FEE1FFF1FA217B307E40765
:10525000F50720F0A21BB30BE40BF50B661F771FBD
:10526000881F991F1A9469F760957095809590959D
:105270009B01AC01BD01CF010895052E97FB1EF4E3
:1052800000940E94542957FD07D00E941B2907FC57
:1052900003D04EF40C9454295095409530952195A7
:1052A0003F4F4F4F5F4F0895909580957095619552
:1052B0007F4F8F4F9F4F0895EE0FFF1F0590F49182
:1052C000E02D0994AA1BBB1B51E107C0AA1FBB1FFD
:1052D000A617B70710F0A61BB70B881F991F5A9582
:1052E000A9F780959095BC01CD0108955058BB2732
:1052F000AA270E948E290C9469320E945B3238F0F2
:105300000E94623220F039F49F3F19F426F40C9485
:1053100058320EF4E095E7FB0C945232E92F0E94CC
:105320007A3258F3BA17620773078407950720F09B
:1053300079F4A6F50C949C320EF4E0950B2EBA2F5E
:10534000A02D0B01B90190010C01CA01A00111248B
:10535000FF27591B99F0593F50F4503E68F11A1637
:10536000F040A22F232F342F4427585FF3CF4695C8
:1053700037952795A795F0405395C9F77EF41F16EA
:10538000BA0B620B730B840BBAF09150A1F0FF0FB4
:10539000BB1F661F771F881FC2F70EC0BA0F621FA0
:1053A000731F841F48F4879577956795B795F79590
:1053B0009E3F08F0B0CF9395880F08F09927EE0F25
:1053C0009795879508950E94F7290C9469320E9459
:1053D000623258F00E945B3240F029F45F3F29F0BE
:1053E0000C94523251110C949D320C9458320E94FC
:1053F0007A3268F39923B1F3552391F3951B550B3A
:10540000BB27AA2762177307840738F09F5F5F4F97
:10541000220F331F441FAA1FA9F335D00E2E3AF0D6
:10542000E0E832D091505040E695001CCAF72BD0EE
:10543000FE2F29D0660F771F881FBB1F261737073F
:105440004807AB07B0E809F0BB0B802DBF01FF2771
:1054500093585F4F3AF09E3F510578F00C945232CA
:105460000C949D325F3FE4F3983ED4F38695779594
:105470006795B795F7959F5FC9F7880F911D96952A
:10548000879597F90895E1E0660F771F881FBB1F86
:10549000621773078407BA0720F0621B730B840B33
:1054A000BA0BEE1F88F7E09508950E94823288F0CB
:1054B0009F5798F0B92F9927B751B0F0E1F0660FD8
:1054C000771F881F991F1AF0BA95C9F714C0B13019
:1054D00091F00E949C32B1E008950C949C32672FA9
:1054E000782F8827B85F39F0B93FCCF38695779548
:1054F0006795B395D9F73EF4909580957095619531
:105500007F4F8F4F9F4F08950E94BE3108F48FEF59
:10551000089581E090E0F8940C940A33FB01DC01DB
:105520008D91019080190110D9F3990B0895AEE087
:10553000B0E0EDE9FAE20C94D2320D891E8986E0E2
:105540008C831A8309838FEF9FE79E838D83AE013F
:10555000475E5F4F6F89788DCE0101960E94BA2A0F
:105560002F813885F801E20FF31F10822E96E4E0B8
:105570000C94EE32ACE0B0E0E0ECFAE20C94C43211
:105580007C016B018A01FC0117821682838181FFF5
:10559000BDC1CE0101964C01F7019381F60193FD47
:1055A000859193FF81916F01882309F4ABC1853206
:1055B00039F493FD859193FF81916F01853229F430
:1055C000B70190E00E94A22CE7CF512C312C20E0B3
:1055D0002032A0F48B3269F030F4803259F08332FB
:1055E00069F420612CC08D3239F0803339F42160A8
:1055F00026C02260246023C0286021C027FD27C068
:1056000030ED380F3A3078F426FF06C0FAE05F9E9E
:10561000300D1124532E13C08AE0389E300D112412
:10562000332E20620CC08E3221F426FD6BC1206423
:1056300006C08C3611F4206802C0883641F4F601A9
:1056400093FD859193FF81916F018111C1CF982FB7
:105650009F7D9554933028F40C5F1F4FFFE3F9832F
:105660000DC0833631F0833771F0833509F05BC0AC
:1056700022C0F801808189830E5F1F4F4424439428
:10568000512C540115C03801F2E06F0E711CF80165
:10569000A080B18026FF03C0652D70E002C06FEFCF
:1056A0007FEFC5012C870E94972C2C0183012C854C
:1056B0002F77222E17C03801F2E06F0E711CF8010F
:1056C000A080B18026FF03C0652D70E002C06FEF9F
:1056D0007FEFC5012C870E948C2C2C012C85206823
:1056E000222E830123FC1BC0832D90E0481659060F
:1056F000B0F4B70180E290E00E94A22C3A94F4CF7B
:10570000F50127FC859127FE81915F01B70190E0AB
:105710000E94A22C31103A94F1E04F1A5108411422
:10572000510471F7E5C0843611F0893639F5F80176
:1057300027FF07C060817181828193810C5F1F4FB9
:1057400008C060817181072E000C880B990B0E5FD9
:105750001F4F2F76722E97FF09C0909580957095F8
:1057600061957F4F8F4F9F4F2068722E2AE030E067
:10577000A4010E94DA2CA82EA81844C0853729F469
:105780002F7EB22E2AE030E025C0F22FF97FBF2E07
:105790008F36C1F018F4883579F0B4C0803719F02D
:1057A000883721F0AFC02F2F2061B22EB4FE0DC07C
:1057B0008B2D8460B82E09C024FF0AC09F2F9660ED
:1057C000B92E06C028E030E005C020E130E002C07C
:1057D00020E132E0F801B7FE07C06081718182816B
:1057E00093810C5F1F4F06C06081718180E090E063
:1057F0000E5F1F4FA4010E94DA2CA82EA818FB2DC3
:10580000FF777F2E76FE0BC0372D3E7FA51450F418
:1058100074FE0AC072FC08C0372D3E7E05C0BA2C4B
:10582000372D03C0BA2C01C0B52C34FF0DC0FE01CA
:10583000EA0DF11D8081803311F4397E09C032FFF9
:1058400006C0B394B39404C0832F867809F0B39450
:1058500033FD13C030FF06C05A2CB31418F4530C98
:105860005B18B32CB31468F4B70180E290E03C8776
:105870000E94A22CB3943C85F5CFB31410F43B18CE
:1058800001C0312C34FF12C0B70180E390E03C87A7
:105890000E94A22C3C8532FF17C031FD03C088E76F
:1058A00090E002C088E590E0B7010CC0832F8678B5
:1058B00059F031FF02C08BE201C080E237FD8DE27A
:1058C000B70190E00E94A22CA51438F4B70180E340
:1058D00090E00E94A22C5A94F7CFAA94F401EA0D0A
:1058E000F11D8081B70190E00E94A22CA110F5CF9C
:1058F000332009F451CEB70180E290E00E94A22C3F
:105900003A94F6CFF7018681978102C08FEF9FEF1F
:105910002C96E2E10C94E032FC010590615070405D
:105920000110D8F7809590958E0F9F1F0895FC0168
:105930006150704001900110D8F7809590958E0FBE
:105940009F1F08950F931F93CF93DF93FB01238134
:1059500021FD03C08FEF9FEF28C022FF16C04681B4
:105960005781248135814217530744F4A081B181C6
:105970009D012F5F3F4F318320838C932681378198
:105980002F5F3F4F3783268310C0EB01092F182F5D
:105990000084F185E02D0995892BE1F68E819F81A8
:1059A00001969F838E83812F902FDF91CF911F913E
:1059B0000F910895FA01AA27283051F1203181F181
:1059C000E8946F936E7F6E5F7F4F8F4F9F4FAF4F07
:1059D000B1E03ED0B4E03CD0670F781F891F9A1F1A
:1059E000A11D680F791F8A1F911DA11D6A0F711DCE
:1059F000811D911DA11D20D009F468943F912AE0DA
:105A0000269F11243019305D3193DEF6CF010895C1
:105A1000462F4770405D4193B3E00FD0C9F7F6CFF2
:105A2000462F4F70405D4A3318F0495D31FD4052BA
:105A3000419302D0A9F7EACFB4E0A6959795879550
:105A400077956795BA95C9F700976105710508952F
:105A50009B01AC010A2E06945795479537952795DB
:105A6000BA95C9F7620F731F841F951FA01D089573
:105A7000EF920F931F93CF93DF93E80147FD02C08E
:105A800034E001C034E1E42F440FFF0BF7FF03C003
:105A9000F195E195F109E32E022F2E2FAE010E9420
:105AA000982DCE01DF91CF911F910F91EF90089526
:105AB000662777270C94262F1F93FC0199278827A8
:105AC000BC01E89411911032E9F3193010F01E3046
:105AD000C8F31B3251F01D3249F4689406C00E948D
