:100000000C9439020C9461020C9461020C94341C1F
:100010000C94341C0C94341C0C9461020C946102FA
:100020000C9461020C9461020C9461020C946102C4
:100030000C9461020C9461020C9461020C946102B4
:100040000C94EA1B0C9461020C945C1A0C94361A02
:100050000C9461020C9461020C9461020C94610294
:100060000C9461020C94610268217F218221AC21F1
:10007000AF21B221B521B821BC21DB21FA211D22FB
:100080008F238F2321223E225B227A229722BA22BB
:10009000DD2200231F233E2355237223B423DA23BA
:1000A00003242C2455248624BF24F0242125522502
:1000B0008325B425E5251A264E414E494E4954590B
:1000C000494E46CDCCCC3D0AD7233C17B7D1387723
:1000D000CC2B329595E6241FB14F0A000020410039
:1000E00000C84200401C4620BCBE4CCA1B0E5AAE83
:1000F000C59D7400407A10F35A00A0724E18090092
:1001000010A5D4E80000E87648170000E40B54027C
:100110000000CA9A3B000000E1F5050000809698B7
:1001200000000040420F000000A086010000001007
:100130002700000000E80300000000640000000049
:10014000000A00000000000100000000002C76D82A
:1001500088DC674F0823DFC1DFAE59E1B1B796E510
:10016000E3E453C63AE651997696E8E6C28426EB74
:10017000898C9B62ED407C6FFCEFBC9C9F40F2BA87
:10018000A56FA5F490055A2AF75C936B6CF9676D1F
:10019000C11BFCE0E40D47FEF520E6B500D0ED9074
:1001A0002E0300943577050080841E080000204E41
:1001B0000A000000C80C333333330F986E128311DA
:1001C00041EF8D2114893BE65516CFFEE6DB18D1B1
:1001D000844B381BF77C1D901DA4BBE42420328483
:1001E000725E228100C9F124ECA1E53D275E010188
:1001F0001F0103030100008A02010A01020201003B
:100200000064001E47040B090600007C0101060182
:100210000303010000F401060E010202010000C206
:1002200001170101020201010000000000000101AC
:10023000000000726E723A00626F6E3A00626D6783
:100240003A006270663A0062706E3A00626B643A1D
:1002500000626B693A00626B703A006261743A0046
:100260006269743A006274643A006273743A0062BC
:1002700062633A006268613A00626E723A007370BB
:10028000733A00736F683A00736C733A00736C735F
:100290003A00736E723A007370773A0073626C3A88
:1002A000007373753A007373613A007373623A00B6
:1002B0007373703A007373723A007373743A007315
:1002C00070643A007370743A00736B6D3A00737027
:1002D000693A003A006D61006D6400005EBCE26145
:1002E0003FDD83C29C7E20A3FD1F419DC3217FFC77
:1002F000A2401E5F01E3BD3E6082DC237D9FC142C0
:100300001CFEA0E1BF5D0380DE3C62BEE0025CDF5C
:1003100081633D7C22C09E1D43A1FF4618FAA4279D
:10032000799BC584DA3866E5BB5907DB856739BA3E
:10033000E406581947A5FB7826C49A653BD987047B
:100340005AB8E6A7F91B45C6987A24F8A6441A9924
:10035000C7257B3A6486D85B05E7B98CD2306EED51
:10036000B3510F4E10F2AC2F7193CD114FADF3700E
:100370002ECC92D38D6F31B2EC0E50AFF1134DCE27
:1003800090722C6D33D18F0C52B0EE326C8ED053F4
:100390000DEFB1F0AE4C1291CF2D73CA947628AB0D
:1003A000F517490856B4EA6937D58B5709EBB536C6
:1003B000688AD495CB2977F4AA4816E9B7550B88F3
:1003C000D6346A2B7597C94A14F6A8742AC89615AC
:1003D0004BA9F7B6E80A54D7896B352000204B00AB
:1003E000205700204F0020500020440020420030C1
:1003F000003100204800204A0020530020510020F6
:100400004700204900204E004100300031003000FC
:10041000310000000000250028002B000000000033
:100420002300260029000404040404040404020236
:100430000202020203030303030301020408102063
:10044000408001020408102001020408102000006E
:100450000000240027002A0000000008000201001C
:100460000003040700000000000000007200FA27EB
:10047000EC2711241FBECFEFD8E0DEBFCDBF27E0B1
:10048000A2EBB1E001C01D92A131B207E1F711E08A
:10049000A0E0B1E0E6E8F9E602C005900D92A23BCB
:1004A000B107D9F712E0C8E3D2E004C02197FE01FA
:1004B0000E94ED31C733D107C9F70E94611E0C9429
:1004C000B6340C940000FC0186810895FC018781FC
:1004D00017820895FC01168217820895FC01858118
:1004E0000895FC0183810895FC0184810895FC0135
:1004F0008481811105C08381882311F081E0848388
:1005000013820895FC018481811105C083818111CA
:1005100002C081E0848381E0838308952F923F921B
:100520004F925F926F927F928F929F92AF92BF9203
:10053000CF92DF92EF92FF920F931F93CF93DF93AF
:10054000CDB7DEB763970FB6F894DEBF0FBECDBF51
:100550009B8B8A8BFC01EC5BFF4F40835183628352
:100560007383DC01A45BBF4FFC0162817381248132
:10057000358147E2429FC001439F900D1124FB014A
:10058000E80FF91FE05CFF4F408151816281738168
:100590004D935D936D937C9313970E94DE1B6B01CB
:1005A0007C010A891B89005B1F4FF80180819181C2
:1005B000A281B381A7019601281B390B4A0B5B0B63
:1005C000CA01B9010E942B2F6D837E838F83988788
:1005D000AA89BB891296ED91FC9113976685778560
:1005E00080E090E00E942B2F9B01AC016D817E8109
:1005F0008F8198850E94933118160CF03FC1F80145
:10060000C082D182E282F382EA89FB89EE5BFF4FEE
:100610008081882309F432C10E94DE1B69877A87B2
:100620008B879C87EA89FB8982A593A5A4A5B5A59C
:1006300049855A856B857C85481B590B6A0B7B0B5A
:1006400086A997A9A0ADB1AD481759076A077B07DE
:1006500008F414C124A135A1D9018D919D910D906B
:10066000BC91A02D89839A83AB83BC8300A4F1A5A0
:10067000E02D9C01AD0160817181828193810E9496
:10068000B4304B015C01EA89FB8922A933A944A952
:1006900055A969817A818B819C810E94B4306B015C
:1006A0007C01AA89BB8958962D913D914D915C9111
:1006B0005B97C501B4010E948C2FEA89FB8926A5AE
:1006C00037A540A951A90E94B5302B013C01AA8948
:1006D000BB899E966D937D938D939C93D197FD01DD
:1006E000ED5BFF4FB081BD87B11118C0EA89FB896E
:1006F0002489358946895789C701B6010E948C2F04
:100700009B01AC01C301B2010E94B430AA89BB892C
:100710009E966D937D938D939C93D197EA89FB89E7
:1007200046A457A460A871A8FE963080218002815B
:100730001381232D322DA801C301B2010E949331F0
:10074000181654F4832D922DD801EA89FB8986A7C7
:1007500097A7A0ABB1AB1EC0AA89BB89DA962D9131
:100760003D914D915C91DD972E873F87488B598B4A
:10077000C301B2010E94262F87FF0CC02E853F8542
:1007800048895989AA89BB899E962D933D934D939B
:100790005C93D197BD85BB2369F0EA89FB892489E5
:1007A000358946895789C501B4010E948C2F4B01B8
:1007B0005C0103C0812C912C5401AA89BB895C96F1
:1007C0002D913D914D915C915F97C701B6010E94BB
:1007D0008C2F9B01AC01EA89FB8966A577A580A9CE
:1007E00091A90E94B4309B01AC01C501B4010E94E3
:1007F000B5306B017C01232D322DA8010E9493316D
:100800001816CCF0AA89BB89DA963C90DA97DB9669
:100810002C90DB97DC960C91DC97DD961C91232DB8
:10082000322DA801B601C7010E94262F87FD03C003
:100830003C2C2D2C8701AA89BB899696ED91FC91C1
:100840009797832D922DD80180839183A283B383C0
:1008500029813A814B815C81AA89BB89D2962D93EB
:100860003D934D935C93D59729853A854B855C855F
:100870009A962D933D934D935C939D97EA89FB89BE
:10088000E85BFF4FC080D180E280F3802D813E8104
:100890004F815885C701B6010E949331EA89FB89CF
:1008A000168187FD19C00280F381E02D22893389EA
:1008B00044895589C701B6010E949331181664F422
:1008C000111105C081E0AA89BB8917968C9381E03C
:1008D000EA89FB8986830AC0112329F081E0AA896D
:1008E000BB8917968C93EA89FB891682AA89BB89F2
:1008F00016968C9163960FB6F894DEBF0FBECDBFEF
:10090000DF91CF911F910F91FF90EF90DF90CF90EB
:10091000BF90AF909F908F907F906F905F904F901F
:100920003F902F9008952F923F924F925F926F9237
:100930007F928F929F92AF92BF92CF92DF92EF926F
:10094000FF920F931F93CF93DF9300D000D0CDB7CA
:10095000DEB79C838B83DC0116961C921697179644
:100960001C921797D6966D917D918D919C91D997F8
:100970000E942B2F9B01AC0160E070E08AE795E4B8
:100980000E9421316B017C019B01AC01EB81FC8158
:10099000608D718D828D938D0E948C2FAB81BC8177
:1009A00058966D937D938D939C935B97A7019601C9
:1009B0005C966D917D918D919C915F970E94213104
:1009C000EB81FC81648F758F868F978F80EA9FE023
:1009D000A0E0B0E086AB97ABA0AFB1AF248135818A
:1009E0002280338047E2429FC001439F900D112433
:1009F000820D931DFC01E85AFF4FC080D180E28038
:100A0000F380349780809180A280B38034974080B7
:100A1000518062807380AB81BC8192960D911C9154
:100A2000939720E030E0A901C301B2010E94262F74
:100A300087FD7FC020E030E0A901C501B4010E941C
:100A4000262F87FD76C020E030E0A901C701B6015E
:100A50000E94262F87FD6DC0EB81FC81ED5BFF4F6F
:100A600081E00130110509F080E08083EB81FC8199
:100A7000408651866286738684869586A686B7866A
:100A8000C08AD18AE28AF38A448A558A668A778A3A
:100A900020E030E040E850E4C501B4010E948C2F12
:100AA0004B015C01EB81FC81608F718F828F938F92
:100AB00020E030E040E85EE3C701B6010E948C2FE1
:100AC0006B017C01AB81BC815C966D937D938D93B2
:100AD0009C935F9790968D919C919197019749F582
:100AE000A301920160E070E0CB010E94B430EB8181
:100AF000FC81648B758B868B978BA501940160E0DC
:100B000070E0CB010E94B430AB81BC8158966D93EC
:100B10007D938D939C935B97A701960160E070E0B5
:100B2000CB010E94B430EB81FC81648F758F868F7E
:100B3000978FD1011E966D917C911F9780E090E078
:100B40000E942B2F4B015C01F101C288D388E488FD
:100B5000F5889B01AC01C701B6010E9493312B813E
:100B60003C81225C3F4F1901AB81BC81AE5BBF4F22
:100B7000BA83A983EB81FC8106A117A187FF5BC023
:100B8000C2AED3AEE4AEF5AEF90180829182A2820C
:100B9000B382A981BA818C91882309F44CC0F801F1
:100BA0004080518062807380A5019401C301B2012D
:100BB0000E94933118163CF4D8018D929D92AD920B
:100BC000BC9213970DC0A7019601C301B2010E9408
:100BD000262F87FF05C0F801C082D182E282F3820E
:100BE000AB81BC819E968D909D90AD90BC90D1972D
:100BF000F101C080D180E280F380A7019601C50198
:100C0000B4010E949331181674F0EB81FC81C2ACE0
:100C1000D3ACE4ACF5ACA7019601C501B4010E94C8
:100C2000262F87FF08C0AB81BC819E96CD92DD92B6
:100C3000ED92FC92D197E981FA811082EB81FC81DF
:100C4000E85BFF4F1082118212821382D801CD908F
:100C5000DD90ED90FC90EB81FC81C6A6D7A6E0AAC2
:100C6000F1AA04A0F5A1E02D80819181A281B38138
:100C7000EB81FC8182AB93ABA4ABB5ABD1018D9082
:100C80009D90AD90BC90A5019401C701B6010E9452
:100C90009331181684F0AB81BC81DA968D909D90CB
:100CA000AD90BC90DD97A5019401C701B6010E94EB
:100CB000262F87FF06C0EB81FC8186A697A6A0AAF7
:100CC000B1AA81E0A981BA818C930E94DE1BEB81DD
:100CD000FC81E05BFF4F60837183828393830F907D
:100CE0000F900F900F90DF91CF911F910F91FF9078
:100CF000EF90DF90CF90BF90AF909F908F907F90BC
:100D00006F905F904F903F902F900895CF93DF9317
:100D1000EC016C96CE010E94BE19892B29F0CE0100
:100D2000DF91CF910C94D61980E090E0DF91CF91C4
:100D30000895CF93DF93EC016C96CE010E94211AA7
:100D400068E871E0CE01DF91CF910C94211A4C96A6
:100D50000C94211ACF93DF93EC016C96CE010E9484
:100D6000FD1968E871E0CE01DF91CF910C94211A52
:100D70004C960C94FD19CF93DF93EC0160E08A81CF
:100D80000E94E71ACE018D5B9F4FDF91CF910C94AB
:100D900049108F929F92AF92BF92EF92FF920F9362
:100DA0001F93CF93DF93CDB7DEB761970FB6F8945B
:100DB000DEBF0FBECDBF7C018C010D5B1F4FF80164
:100DC000A080B18040E0BE01665F7F4FC5010E94F8
:100DD000A70E811107C0812C912CFEEFAF2EF2ECF3
:100DE000BF2E4DC0AE014F5F5F4FBE01665F7F4FAC
:100DF000C5010E94DB0F882359F16981F8E06F9FDC
:100E0000B00111248A81282F30E0322F2227330F9E
:100E1000330F330F262B372B8A858031E1F4688519
:100E200070E08F81AB01481B5109CA019695982F3C
:100E30008827979587950E94983160517109207F86
:100E400053E0220F331F5A95E1F7620F731F04C05E
:100E500060E874EE01C0B901613854EE75070CF416
:100E6000BACF072E000C880B990B0E942D2F20E083
:100E700030E040E05CE30E948C2F4B015C01F80104
:100E8000808191810E94F21C20E030E04CEF52EC16
:100E9000C501B4010E94262F87FF03C0C8010E942C
:100EA0004910F70103811481F801268137814085BB
:100EB0005185C501B4010E948C2FF801228533852C
:100EC000448555850E94B53061960FB6F894DEBF13
:100ED0000FBECDBFDF91CF911F910F91FF90EF908B
:100EE000BF90AF909F908F900895CF93DF93EC01C8
:100EF00061E08A810E94B71AED81FE81808D918D1B
:100F00000E94991B60E08A810E94B71AED81FE81E0
:100F1000808D918D9C01220F331F820F931FDF91D3
:100F2000CF910C94991B3F924F925F926F927F9258
:100F30008F929F92AF92BF92CF92DF92EF92FF92E9
:100F40000F931F93CF93DF93EC014A015B01E12CD8
:100F5000F12C690181E0C81AD108412C512C3201D1
:100F6000439465E2362EED81FE81878990E0E81694
:100F7000F9060CF056C0860117FD32C0D301C2013C
:100F8000002E04C0880F991FAA1FBB1F0A94D2F716
:100F900088219921AA21BB21892B8A2B8B2B21F017
:100FA000CE010E94750719C061E08A810E94B71ABC
:100FB000ED81FE81808D918D9C01220F331F820F68
:100FC000931F0E94991B60E08A810E94B71AED81ED
:100FD000FE81808D918D0E94991B01501109CCCF0B
:100FE000CE010E94750761E08A810E94B71AED81E7
:100FF000FE81808D918D0E94991B60E08A810E9404
:10100000B71AED81FE81808D918D9C01329EC001C9
:10101000339E900D11240E94991B3FEFE31AF30AAF
:10102000A2CFDF91CF911F910F91FF90EF90DF90B2
:10103000CF90BF90AF909F908F907F906F905F9078
:101040004F903F900895CF92DF92EF92FF920F93CF
:101050001F93CF93DF931F92CDB7DEB78C01E62E9F
:10106000DC011F968C91882321F060E0FF24F3942B
:1010700002C061E0F12CD8011596ED91FC91169714
:10108000C08CD18CC114D10419F4F801C780D0846C
:10109000D80112968C9179830E94B71AEC9CC001FA
:1010A000ED9C900D11240E94991B6F2DF8018281F7
:1010B0000E94B71A79817C9DC0017D9D900D1124FD
:1010C0000F90DF91CF911F910F91FF90EF90DF90E4
:1010D000CF900C94991B4F925F926F927F928F9258
:1010E0009F92AF92BF92CF92DF92EF92FF920F93B7
:1010F0001F93CF93DF93EC014A015B01E12CF12CAC
:10110000690181E0C81AD108412C512C3201439465
:10111000ED81FE81878990E0E816F906A4F58889BB
:10112000882329F069857A85CE010E9423088601EB
:1011300017FD1DC0D301C201002E04C0880F991FE6
:10114000AA1FBB1F0A94D2F788219921AA21BB218B
:10115000892B8A2B8B2B19F06D857E8502C06B85C0
:101160007C85CE010E94230801501109E1CF8889B6
:10117000811105C069857A85CE010E9423088FEF11
:10118000E81AF80AC5CFDF91CF911F910F91FF9018
:10119000EF90DF90CF90BF90AF909F908F907F9017
:1011A0006F905F904F900895CF93DF93EC0166238B
:1011B00071F161E08A810E94B71AED81FE81808D14
:1011C000918D0E94991B60E08A810E94B71AED817F
:1011D000FE81808D918D25E0AC01249FC001259F6B
:1011E000900D11240E94991B61E08A810E94B71A18
:1011F000ED81FE81808D918D0E94991B60E08A8136
:101200000E94B71AED81FE81808D918D2DC061E025
:101210008A810E94B71AED81FE81808D918D0E9496
:10122000991B60E08A810E94B71AED81FE81808D52
:10123000918D0E94991B61E08A810E94B71AED810D
:10124000FE81808D918D0E94991B60E08A810E94B1
:10125000B71AED81FE81808D918D25E0AC01249F30
:10126000C001259F900D1124DF91CF910C94991B03
:101270004F925F926F927F92AF92BF92CF92DF9226
:10128000EF92FF920F931F93CF93DF93EC01E62E23
:10129000ED81FE81F7889AE0B92ECC24C394D12C3D
:1012A00038E2A32EF7FC7FC0ED81FE81438C548C85
:1012B000658C768C61E08A810E94B71AED81FE818F
:1012C000808D918D0E94991B60E08A810E94B71ADF
:1012D000ED81FE81208D318DA90156954795B29EF5
:1012E000C001B39E900D1124840F951F0E94991B7D
:1012F00009E110E0D301C201002E04C0B695A79504
:10130000979587950A94D2F7682F6170CE010E9455
:10131000D4080150110970F760E0CE010E94D40892
:101320006E2DCE010E94D40803E010E0C601002E0D
:1013300002C0880F991F0A94E2F7092E000CAA0B2D
:10134000BB0BED81FE81478D50A161A172A1842369
:101350009523A623B72361E0892B8A2B8B2B09F4D5
:1013600060E0CE010E94D40801501109F8F661E056
:101370008A810E94B71AED81FE81808D918D0E9435
:10138000991B60E08A810E94B71AED81FE81808DF1
:10139000918D9C01A29EC001A39E900D11240E94DC
:1013A000991BFA947FCFDF91CF911F910F91FF90FE
:1013B000EF90DF90CF90BF90AF907F906F905F9055
:1013C0004F900895CF93DF93EC010E947702ED8157
:1013D000FE818689811106C060E0CE01DF91CF9148
:1013E0000C943809813091F0228D478D50A161A174
:1013F00072A130E0823029F4CE01DF91CF910C94BC
:101400009307CE01DF91CF910C946B08DF91CF91C0
:101410000895CF93DF93EC010E948202ED81FE815B
:101420008689811106C061E0CE01DF91CF910C94D5
:101430003809813091F0228D438D548D658D768DE4
:1014400030E0823029F4CE01DF91CF910C949307E4
:10145000CE01DF91CF910C946B08DF91CF9108956D
:10146000CF92DF92EF92FF920F931F93CF93DF9370
:101470001F92CDB7DEB779018A01060F171F6B01E6
:10148000C016D106B9F0C11484E0D80698F4F999D1
:10149000FECFF70161917F01C60169830E944D3043
:1014A0006981681719F0C6010E945530FFEFCF1A05
:1014B000DF0AE6CF0F90DF91CF911F910F91FF9040
:1014C000EF90DF90CF900895EF92FF920F931F93CC
:1014D000CF93DF9389017901E40EF51EEB010E1520
:1014E0001F0571F0C115F4E0DF0750F4F999FECF44
:1014F000CE010E944D30F80181938F012196EFCFEC
:10150000DF91CF911F910F91FF90EF900895CF93AE
:10151000DF93EC01E881F9810284F385E02D0995E0
:101520001816190654F58D30910561F024F48A30AF
:10153000910591F422C084319105F9F08F3F910516
:1015400059F41BC08E899F891F8A1E8A1816190696
:10155000A4F4CE01029613C02E893F8923313105B0
:1015600060F4A9014F5F5F4F5F8B4E8BFE01E20F6E
:10157000F31F8283C40FD51F1A8280E090E0DF91B1
:10158000CF910895CF93FC01C08161E08C2F0E9420
:10159000E71A60E08C2FCF910C94B71A0F931F932A
:1015A000CF93DF93FC012289222311F080E01FC03A
:1015B000EC010E94DE1B088119812A813B81DC013C
:1015C000CB01801B910BA20BB30B88879987AA874D
:1015D000BB870C811D812E813F8180179107A20757
:1015E000B30720F3088719872A873B8781E0DF91BB
:1015F000CF911F910F910895CF93DF93FC01208924
:10160000211109C0EC010E94DE1B688379838A8363
:101610009B8381E0888BDF91CF910895FC0110823C
:101620001182128213821486158616861786108AF6
:10163000118A128A0895CF93DF93EC011BAA1CAA8A
:101640001DAA8A859B85DC01ED91FC910280F381C6
:10165000E02D099518AE1FAACE010C960E940E0B24
:1016600088859985DC01ED91FC910190F081E02D58
:10167000099569AF7AAF8BAF9CAFE885F985168283
:10168000DF011796ED5BFF4F6D937D938D939D93D7
:10169000AE17BF07C9F782E08AABFE01EB5BFF4FD5
:1016A0001082CA5BDF4F1882DF91CF9108950F93AC
:1016B0001F93CF93DF93EC018B010E941B0B18AF9C
:1016C0000FAB8C819D81DC0115961C930E931497B2
:1016D000ED91FC910280F381E02D09952FA938ADA1
:1016E0008E819F81FC01358324830190F081E02D60
:1016F0000280F381E02D0995FE01EF5BFF4F89AD7C
:101700009AADABADBCAD80839183A283B383DF91EF
:10171000CF911F910F9108952F923F924F925F9218
:101720006F927F928F929F92AF92BF92CF92DF92F1
:10173000EF92FF920F931F93CF93DF9300D000D0CF
:10174000CDB7DEB79C838B834A015B0168017901C9
:10175000DC0116968C91169714962D903C90159757
:101760001296ED91FC911397FA83E9838823C9F1CE
:1017700087E2829D8001839D100D11240E0F1F1F93
:10178000F801E05CFF4FD801A45BBF4F2D913D9164
:101790004D915C9160817181828193810E94B5300D
:1017A0002B013C01F801E05BFF4F20813181428138
:1017B0005381C701B6010E948C2F9B01AC01C3016C
:1017C000B2010E94B4309B01AC0111E0C501B4012B
:1017D0000E94933118160CF010E081E0912E9826AB
:1017E00037C087E2829D8001839D100D11242981DD
:1017F0003A81020F131FF801E05CFF4FD801A85B8C
:10180000BF4F2D913D914D915C916081718182819D
:1018100093810E94B5302B013C01F801E05BFF4F42
:101820002081318142815381C701B6010E948C2FF2
:101830009B01AC01C301B2010E94B4309B01AC0119
:10184000C501B4010E94262F982E991C9924991C39
:1018500027E2229DC001239D900D1124A981BA8108
:101860008A0F9B1FFC01E45AFF4F20813181211513
:10187000310511F1329680819181892BE9F00B813C
:101880001C81085F1F4F992009F4B2C0EB81FC81D5
:10189000818D882309F45BC084899589A689B789DD
:1018A00084879587A687B787C8010E94FC0AC8016C
:1018B0000E94CE0A811159C0EB81FC81A480B580C1
:1018C0000281138187E28A9DF0018B9DF00D112426
:1018D000E00FF11FE05AFF4F40805180628073801B
:1018E00020E030E0A901C301B2010E949331181633
:1018F00044F4A7019601C301B2010E94262F87FD7F
:10190000912C27E22A9DC0012B9D900D1124080FD8
:10191000191FD801A45BBF4FF801E85BFF4F20817E
:101920003181428153816D917D918D919C910E9475
:10193000262F87FD67C0AB81BC8116968C911697C8
:10194000891509F462C081E017968C935EC048EE59
:1019500053E0249FC001259F900D349F900D1124CA
:10196000A0E0B0E0EB81FC819BCFAB81BC81129603
:10197000ED91FC91139714962D913C91159747E2A8
:10198000429FC001439F900D1124E80FF91FE25AB6
:10199000FF4F208131815D01BBE1AB0EB11CEB81BA
:1019A000FC8184A5882349F087A190A5A1A5B2A5B3
:1019B000878F90A3A1A3B2A313C088EE93E0289FC2
:1019C000A001299F500D389F500D112460E070E058
:1019D000AB81BC815F964D935D936D937C939297A1
:1019E000C5010E94FC0AC5010E94CE0A882341F06D
:1019F000C8010E940E0B8B819C814B960E940E0B9E
:101A0000912C5ACF81E0982696CFEB81FC8196826B
:101A1000892D0F900F900F900F90DF91CF911F9114
:101A20000F91FF90EF90DF90CF90BF90AF909F907D
:101A30008F907F906F905F904F903F902F90089580
:101A4000CF93DF93EC011E821F8208960E940E0B3B
:101A5000CE014B96DF91CF910C940E0BCF93DF9379
:101A6000FC0186A997A9EC01A881B9819F01225D9B
:101A70003F4F1296ED91FC91139748E050E06EE9CC
:101A800072E0DF91CF9109940F931F93CF93DF936F
:101A9000EC01288D398D4A8D5B8D1FAA1EAA1DAAC7
:101AA0001CAA1BAA1AAA60E079E08DE390E00E94CC
:101AB000CE31F9012430310518F0C901039702C075
:101AC00081E090E099AF88AF68A5663108F069C001
:101AD000C901969587958431910510F0439702C00E
:101AE00081E090E09BAB8AAB369718F0C90105976F
:101AF00002C081E090E09DAB8CABC901880F991FBB
:101B0000280F391F36952795369527952D303105A5
:101B100018F02C50310902C021E030E03FAB2EAB71
:101B200090916800683050F021E06E3008F420E0B9
:101B300081E001C0880F2A95EAF701C084E0892B73
:101B40008093680098A5983038F09E3040F0963128
:101B500048F020E030E008C02DE630E005C02BE67C
:101B600030E002C02CE630E038AB2FA7983030F4DC
:101B700081E001C0880F9A95EAF70EC0292F30E066
:101B80009E3018F42850310902C02E50310981E0EE
:101B900001C0880F2A95EAF789AB88AD99AD019706
:101BA000F1F78EA99FA9892BF9F08E01045E1F4FD2
:101BB0008091C4069091C50680179107A9F00097FF
:101BC00011F00E94AE1C8AAD8E7F8AAF1092C206C1
:101BD0001092C3061093C5060093C406EFA5F8A99A
:101BE000908189A9892B808368EE73E080E090E082
:101BF0000E94A41BEBADFCAD86A58823E1F18E010C
:101C00000E5F1F4F80A58F9387A18F938BE891E084
:101C10009F938F931F930F930E941532E881F98150
:101C20000280F381E02DB801CE0109956CED75E0DD
:101C300080E090E00E94A41BE881F9810280F3819A
:101C4000E02D66E971E0CE0109956CED75E080E06C
:101C500090E00E94A41B8BAD9CADFC0116A60F90DA
:101C60000F900F900F900F900F90DF91CF911F91D9
:101C70000F910C942E0DDF91CF911F910F9108952C
:101C80000F931F93CF93DF938C01DC01D6968D9138
:101C90009C91D797DC01ED91FC910280F381E02DBE
:101CA00098014EE250E060E070E00995CEE2D0E0AD
:101CB000F80186A997A9DC01ED91FC919E01215FB5
:101CC0003F4F200F311F0280F381E02D47E250E0AB
:101CD000BE010995A796CE39B2E0DB0749F7DF913F
:101CE000CF911F910F910895CF93DF93EC018EE276
:101CF000DE011D928A95E9F7FE01FD96CE0183551E
:101D00009D4F27E2DF01322F1D923A95E9F7B796F2
:101D1000E817F907B9F7FE01BE9688E0DF011D92CA
:101D20008A95E9F7CE010E94400ECE01DF91CF9156
:101D30000C942E0DDC01E0E0615038F08D91E82725
:101D4000F0E0E552FD4FE491F7CF8E2F0895EF922A
:101D5000FF920F931F93CF93DF937C018B01D42FBE
:101D6000DC011696ED91FC91179713861586148663
:101D7000DF011B9633961E92AE17BF07E1F7C0E056
:101D8000B801D70116968D919C9117970E945D140A
:101D9000811102C080E010C0CD130AC067E0C80105
:101DA0000E949A0EF8019781891302C081E004C055
:101DB000CF5FDC1778F3E4CFDF91CF911F910F91C4
:101DC000FF90EF900895FC0190810180F281E02D59
:101DD000F8948181892B81832281892F8095282302
:101DE0002283A7E0B0E01197F1F72181822381835C
:101DF000A3E2B0E01197F1F780817894EFECF0E086
:101E00003197F1F7982381E009F480E00895FC010F
:101E100090810180F281E02D892F809560FF12C0B2
:101E2000F8942281822382838181892B8183A3E29A
:101E3000B0E01197F1F78281982B9283789487ED27
:101E400090E011C0F8942281822382838181892BC2
:101E50008183AFEFB0E01197F1F78281982B9283E5
:101E600078948FE090E00197F1F70895CF92DF9298
:101E7000EF92FF920F931F93CF93DF931F92CDB7F3
:101E8000DEB76C01E62E08E010E0FF24F39461E079
:101E90008F2D8E2109F460E0C60149830E94070F4F
:101EA000FF0C0150110949810115110581F74111FC
:101EB00015C0F894D6011196ED91FC91129791817D
:101EC0008C918095892381831196ED91FC911297D5
:101ED00092818C9180958923828378940F90DF91F1
:101EE000CF911F910F91FF90EF90DF90CF900895C9
:101EF000CF92DF92EF92FF920F931F93CF93DF93D6
:101F00001F92CDB7DEB78C01F62E40E065E57983F0
:101F10000E94360FCF2C7981D72E760188E0E80E0B
:101F2000F11CF60161916F0140E0C8010E94360F7B
:101F3000CE14DF04B1F70F90DF91CF911F910F9175
:101F4000FF90EF90DF90CF900895FC019081018089
:101F5000F281E02DF8948181292F209582238183BD
:101F600078948DE743E050E0815021F1DA01119738
:101F7000F1F730813923C1F3F8948281822382837F
:101F80008181892B81837894ABE7B7E01197F1F7D2
:101F9000F894818128232183A3E1B1E01197F1F71F
:101FA0008081982381E009F080E07894E3E6F6E010
:101FB0003197F1F708954F925F926F927F928F92CF
:101FC0009F92AF92BF92CF92DF92EF92FF920F93C8
:101FD0001F93CF93DF9300D0CDB7DEB72C018A01DA
:101FE000FC018681978169837A830E94A50F6981AC
:101FF0007A818823C9F1F201868197810E94780F46
:1020000040E06EEBF201868197810E94360F7801E5
:102010004801F9E08F0E911CF2016680778088E01C
:10202000A82EB12CCC24C394D12CC3010E94E30E62
:102030008111DC28CC0CF1E0AF1AB108B1F7F7013F
:10204000D1927F01E815F90539F7F2018681978170
:102050000E94A50F813041F468E0C8010E949A0EE9
:1020600091E0F8012085821390E0892F0F900F9066
:10207000DF91CF911F910F91FF90EF90DF90CF9064
:10208000BF90AF909F908F907F906F905F904F9098
:1020900008957F928F929F92AF92BF92CF92DF92DC
:1020A000EF92FF920F931F93CF93DF93CDB7DEB7DD
:1020B00061970FB6F894DEBF0FBECDBF6C01DC0197
:1020C0000D911C91D8011696ED91FC9117971386EE
:1020D00015861486DF011B9633961E92AE17BF0736
:1020E000E1F7F80114821582EE24E394BE016F5FDC
:1020F0007F4FF801868197810E945D14882309F43F
:102100006CC067E0CE0101960E949A0E98858913F3
:10211000EDCFD8018C91811127C016968D919C919D
:1021200017970E94A50FBE016F5F7F4FF801868150
:1021300097810E94780F40E064EBD80116968D914C
:102140009C9117970E94360FF801868197810E9413
:10215000E30EF82ED80116968D919C9117970E9448
:10216000A50FFF2009F41BC1F801F180898180319E
:1021700009F418C1BE016F5F7F4FC8010E94C41CE3
:102180008F1520F4D80111968C910BC08981803174
:1021900011F48CE006C0BE016F5F7F4FC8010E9442
:1021A000C41CF801818384818F5F84838981883294
:1021B00061F030F4803149F0823209F097CF05C0E8
:1021C0008B3319F0823409F091CFD80115968C9198
:1021D00015978F5F15968C9389CFD6010D911C9121
:1021E0008BE0F8018183A12CB12C2FE5E22E3FE793
:1021F000932E4FE1842E5FE3752EF801848190E0E9
:10220000A816B9060CF0B0C04A2DBE01665F7F4F1C
:10221000C8010E94A70ED80111968C91893038F020
:10222000F82EBCE0B81728F49CE0F92E02C089E033
:10223000F82E8A85803139F0BE01665F7F4FC80174
:102240000E94C41C01C08CE08F1509F489C0AE0146
:102250004F5F5F4FBE01665F7F4FC8010E94DB0F7B
:10226000882309F47DC08A85803109F479C0EBE0C8
:10227000FE1651F0FCE0FF1629F08AE0F81206C0C5
:102280007D8205C09D8203C0ED8201C08D82D80190
:1022900016968D919C9117970E94A50FBE01665FBF
:1022A0007F4FF801868197810E94780F40E06EE4AD
:1022B000D80116968D919C9117970E94360F40E099
:1022C0006B81F801868197810E94360F40E06C8116
:1022D000D80116968D919C9117970E94360F8A858A
:1022E000803139F040E06D81F801868197810E944C
:1022F000360FD80116968D919C9117970E94A50FC5
:10230000BE01665F7F4FF801868197810E94780F3A
:10231000D8014C9168E416968D919C9117970E9474
:10232000360F64E170E080E090E00E94A41BF801A9
:102330008081882331F06AE070E080E090E00E94C4
:10234000A41BD80116968D919C9117970E94A50FFA
:10235000F8018181F81608F4F82ED8011196FC9244
:10236000BFEFAB1ABB0A49CFD6018D919C91FC01FE
:1023700012820E94F21C61960FB6F894DEBF0FBE67
:10238000CDBFDF91CF911F910F91FF90EF90DF9024
:10239000CF90BF90AF909F908F907F900895D8017D
:1023A000EC92E2CEBCE0BF1508F4ECCEF2CE4F9238
:1023B0005F926F927F928F929F92AF92BF92CF92D5
:1023C000DF92EF92FF920F931F93CF93DF93DC0185
:1023D0005E962C9121112EC2F62EEC018C01015E2D
:1023E0001F4FC8010E94FC0AC8010E94CE0A882320
:1023F00009F47DC0C8010E940E0B88859985DC0117
:10240000ED91FC910190F081E02D09954B015C016B
:1024100069AF7AAF8BAF9CAF20E030E040EF52EC79
:102420000E94262FFE01EB5BFF4F6F0187FF03C069
:1024300084E0808301C01082E885F9858681DF0110
:1024400024E0829FA00DB11D112417968D929D92BC
:10245000AD92BC921A978F5F8F3010F4868301C0C3
:1024600016828E010A5B1F4FD8018C9181110AC020
:1024700049AD5AAD6BAD7CADFE01FD9640835183F5
:1024800062837383FF2051F0E885F985968191116D
:1024900005C0E881F98195A5911172C18E819F8156
:1024A000DC01ED91FC910680F781E02D0995811109
:1024B00002C0F8011082E881F98195A5D8018C91BC
:1024C000981790F41C92FE01FD9620813181428183
:1024D000538169AD7AAD8BAD9CAD0E94262F181645
:1024E0001CF083E0F60180838AA98F5F8AAB8E811E
:1024F0009F81DC01ED91FC910480F581E02D09952F
:10250000811142C18C819D81DC01ED91FC9104809F
:10251000F581E02D0995811137C18AA9823008F42F
:102520009DC01AAA0A811B81F80180810E94821B2A
:10253000BC01990F880B990B0E942D2F2FEC32EDC7
:1025400047EA5CE30E948C2FD8011196ED91FC9133
:10255000129723A134A145A156A10E94262F881FBE
:102560008827881F8EAB882329F081E0FE01EB5B72
:10257000FF4F8083FF2009F455C0FE01EF5BFF4F42
:102580004080518062807380EE81FF8184819581DB
:102590000280F381E02DE4A427E2289F8001299F97
:1025A000100D11240E0F1F1F6801B0E4CB0ED11CBB
:1025B0006E2D70E080E090E00E942D2FF6012081CA
:1025C0003181428153810E94B5304B015C019B01F6
:1025D000AC0169AD7AAD8BAD9CAD0E9493311816FC
:1025E0000CF5EE20F9F0A5019401C301B2010E949F
:1025F00093311816BCF0D801A45BBF4FF801E85B1B
:10260000FF4F20813181428153816D917D918D9168
:102610009C910E94262F87FD05C082E0FE01EB5BA6
:10262000FF4F80832DA98A859B85222381F0FF207F
:1026300071F0FE01EB5BFF4F2081211108C0DC012E
:10264000ED91FC910190F081E02D09950AC0DC012B
:10265000ED91FC910280F381E02D0995FF2009F4B2
:10266000E9C0C9ACDAACEBACFCACE881F98184819F
:10267000882371F08C819D81DC01ED91FC910190AA
:10268000F081E02D00E010E09801B701A60136C00E
:102690008E809F80D401ED91FC91A080B18048850F
:1026A0005985FA012681E22FF0E0211107C0DA01F5
:1026B000DF966D917D918D919C910EC0DF011197F8
:1026C000AA0FBB1FAA0FBB1FA40FB51F17966D91B2
:1026D0007D918D919C911A97EE0FFF1FEE0FFF1FBA
:1026E000E40FF51F27813085418552850E94B43063
:1026F0008B019C01B701A601C401F50109958DABC1
:102700008CA9811139C0EE81FF81448155812281DC
:10271000338117E2149FC001159F900D1124820F81
:10272000931FDC01A45BBF4FFC01E85BFF4F2081DE
:102730003181428153816D917D918D919C910E9457
:10274000262FE881F9812FA938AD87FF20C0129F7D
:10275000C001139F900D1124E80FF91FE05CFF4F9B
:102760002081318142815381C701B6010E94262F09
:10277000181614F081E08CAB8CA981111CC05AC0D2
:102780008F5FD8018C938ACE82E08AABC6CE129F2F
:10279000C001139F900D1124E80FF91FE05CFF4F5B
:1027A0002081318142815381C701B6010E9493315A
:1027B00087FFE0CFE1CFE881F9812FA938AD47E26B
:1027C000429FC001439F900D1124E80FF91FEC5B5D
:1027D000FF4F2081318142815381A0E6BAEE0E94F1
:1027E00063308E01045F1F4F2D8D222349F0888DA9
:1027F000998DAA8DBB8D888B998BAA8BBB8B04C0BE
:10280000688B798B8A8B9B8BC8010E94FC0AC8015C
:10281000DF91CF911F910F91FF90EF90DF90CF90BC
:10282000BF90AF909F908F907F906F905F904F90F0
:102830000C94CE0A80E0DF91CF911F910F91FF9011
:10284000EF90DF90CF90BF90AF909F908F907F9050
:102850006F905F904F9008950F931F93CF93DF93E6
:10286000EC018E8D882391F01E8E0E94DE1B0C8958
:102870001D892E893F89DC01CB01801B910BA20BA6
:10288000B30B8C879D87AE87BF8712C081E08E8F88
:102890000E94DE1B0C851D852E853F85DC01CB014A
:1028A000801B910BA20BB30B8C8B9D8BAE8BBF8BC4
:1028B000DF91CF911F910F910895AF92BF92CF9268
:1028C000DF92EF92FF920F931F93CF93DF931F92AC
:1028D000CDB7DEB75C01D62EE72EFC0185858111D0
:1028E00005C0C5010E94A50F811106C0F501138620
:1028F0001586148680E065C040E060EFC5010E9447
:10290000360F01E0F12CC12C11E0C5010E94E30E4D
:10291000682FC50169830E94E30E6981613019F453
:102920008130B9F433C04F2D50E068131BC0F5015E
:102930008385181730F4E40FF51F8381802349F451
:1029400002C0181731F060E0193058F4F50114870F
:1029500008C0F501EF0DF11D8381802B838361E0B9
:1029600009C0C12EF501E40FF51F9381802F8095DA
:1029700089238383C5010E94070F1F5F000F11F495
:10298000F39401E0F7E0FF1508F0BFCF113408F42D
:10299000ADCFF501C386C11002C081E08587F50186
:1029A0008381882309F4A2CFD5011396ED2DFE2D46
:1029B0009501255F3F4F8D918193A217B307D9F7FA
:1029C00081E00F90DF91CF911F910F91FF90EF90D9
:1029D000DF90CF90BF90AF900895CF93DF93CFE477
:1029E000D2E01FA218A61EA21F8E18A219A21AA218
:1029F0001BA21DA21CA28E819F810E94C20A8C81F3
:102A00009D81DF91CF910C941B0BCF93DF93EB0152
:102A100020917502211123C021E020937502A0911D
:102A20004F02B0915002ED91FC9111970680F78111
:102A3000E02DBC01CD010995288180914F02909134
:102A40005002DC01ED91FC910084F185E02D222300
:102A500019F060E174E002C06EE074E009958091C5
:102A60004F0290915002DC01ED91FC910284F385BC
:102A7000E02D09959C01C0970297F8F41092750219
:102A800080914F02909150022033310551F4188209
:102A9000DC01ED91FC910084F185E02D6AE074E0A9
:102AA0000AC021E02883DC01ED91FC910084F185CE
:102AB000E02D6CE074E009950FC02737310561F017
:102AC0002837310519F40E94ED1406C0213631056E
:102AD00029F41092750202C081E001C080E0DF910C
:102AE000CF9108950F931F93CF93DF93C82FD62FC5
:102AF00080914F0290915002DC01ED91FC91068093
:102B0000F781E02D68E074E009950E94DE1B0091DA
:102B10008D0210918E0220918F0230919002601BE5
:102B2000710B820B930B0E942B2F09E712E020E020
:102B300041E00E94D92A80914F0290915002DC011D
:102B4000ED91FC910280F381E02DB801099580910F
:102B50004F0290915002DC01ED91FC910680F781CB
:102B6000E02D65E074E00995609173027091740244
:102B7000072E000C880B990B0E942D2F20E041E0BE
:102B80000E94D92A80914F0290915002DC01ED9170
:102B9000FC910280F381E02DB801099580914F02EC
:102BA00090915002DC01ED91FC910680F781E02DBF
:102BB00062E074E00995A0915702B0915802DD23BC
:102BC00049F0ED91FC9111970190F081E02DCD013C
:102BD000099518C016968C911697811106C0DF963C
:102BE0006D917D918D919C910BC094E0899FA00D7A
:102BF000B11D112413966D917D918D919C91169725
:102C000009E712E022E041E00E94D92A80914F02B8
:102C100090915002DC01ED91FC910280F381E02D56
:102C200069E772E0099580914F0290915002DC01B2
:102C3000ED91FC910680F781E02D6FEF73E009952F
:102C4000E0915702F09158028681282F30E08111DF
:102C500007C0DF01DF966D917D918D919C910EC033
:102C6000D9011197AA0FBB1FAA0FBB1FAE0FBF1F21
:102C700017966D917D918D919C911A97220F331F1C
:102C8000220F331FE20FF31F2781308541855285C4
:102C90000E94B43009E712E022E042E00E94D92A03
:102CA00080914F0290915002DC01ED91FC910280E5
:102CB000F381E02DB8010995E0915302F09154029F
:102CC000EB5BFF4F8081882399F180914F029091B7
:102CD0005002DC01ED91FC910680F781E02D6CEF54
:102CE00073E00995E0915302F0915402EB5BFF4FC2
:102CF000608170E080E090E00E942B2F20E041E0B6
:102D00000E94D92A80914F0290915002DC01ED91EE
:102D1000FC910280F381E02DB8010995E091550204
:102D2000F091560264EB70E080810E94231B06C084
:102D300080915502909156020E94C20A80914F02E2
:102D400090915002DC01ED91FC910680F781E02D1D
:102D500069EF73E00995E0915102F09152022091E0
:102D600073023091740247E2429FC001439F900D6D
:102D70001124E80FF91FE05CFF4F608171818281AF
:102D8000938109E712E022E041E00E94D92A809174
:102D90004F0290915002DC01ED91FC910280F38191
:102DA000E02DB801099580914F0290915002DC010D
:102DB000ED91FC910680F781E02D66EF73E00995B7
:102DC00060E070E0CB010E942D2F20E041E00E94E6
:102DD000D92A80914F0290915002DC01ED91FC9133
:102DE0000280F381E02DB801099580914F02909106
:102DF0005002DC01ED91FC910680F781E02D63EF3C
:102E000073E00995E0915302F09154028285938515
:102E1000DC01ED91FC910680F781E02D0995A091F0
:102E20004F02B0915002ED91FC9111970680F7810D
:102E3000E02D882319F061EF73E002C06FEE73E0BC
:102E4000CD01099580914F0290915002DC01ED91E6
:102E5000FC910680F781E02D6CEE73E00995E0911E
:102E60005302F09154020280F381E02D80810E9490
:102E7000821BBC01990F880B990B0E942D2F2FEC00
:102E800032ED47EA5CE30E948C2F09E712E022E072
:102E900041E00E94D92A80914F0290915002DC01BA
:102EA000ED91FC910280F381E02DB8010995E0914C
:102EB0005302F091540284A98823D9F180914F02E2
:102EC00090915002DC01ED91FC910680F781E02D9C
:102ED00069EE73E00995E0915302F0915402808904
:102EE0009189A289B3890489158926893789BC010A
:102EF000CD01601B710B820B930B28EE33E040E099
:102F000050E00E94AC31CA01B9010E942B2F09E7A1
:102F100012E020E041E00E94D92A80914F02909176
:102F20005002DC01ED91FC910280F381E02DB801AB
:102F30000995E0915102F09152028481882361F158
:102F400080914F0290915002DC01ED91FC9106803E
:102F5000F781E02D63EE73E00995E0915302F09163
:102F600054020480F581E02DE85BFF4F60817181A0
:102F70008281938109E712E022E041E00E94D92A90
:102F800080914F0290915002DC01ED91FC91028002
:102F9000F381E02DB8010995CC23F1F080914F0227
:102FA00090915002DC01ED91FC910680F781E02DBB
:102FB00060EE73E0099580917802882369F0809132
:102FC0004F0290915002DC01ED91FC910680F78157
:102FD000E02D6DED73E0099580914F0290915002C4
:102FE000DC01ED91FC910084F185E02D6BED73E047
:102FF000DF91CF911F910F910994CF92DF92EF92C1
:10300000FF920F931F93CF93DF936C017A018B0193
:10301000C0E0D0E0CE15DF0589F0D8016D918D01BB
:10302000D601ED91FC910190F081E02DC60109954A
:10303000892B11F47E0102C02196ECCFC701DF91EC
:10304000CF911F910F91FF90EF90DF90CF90089557
:10305000FC01538D448D252F30E0842F90E0821B9E
:10306000930B541710F0CF96089501970895FC0123
:10307000918D828D981761F0828DDF01A80FB11DAF
:103080005D968C91928D9F5F9F73928F90E00895D3
:103090008FEF9FEF0895FC01918D828D981731F08D
:1030A000828DE80FF11D858D90E008958FEF9FEFE1
:1030B0000895FC01918D228D892F90E0805C9F4FB7
:1030C000821B91098F739927089582EB91E00E94EA
:1030D000591821E0892B09F420E0822F0895FC0182
:1030E000848DDF01A80FB11DA35ABF4F2C91848D91
:1030F00090E001968F739927848FA689B7892C93C6
:10310000A089B1898C9180648C93938D848D981360
:1031100006C00288F389E02D80818F7D8083089529
:10312000EF92FF920F931F93CF93DF93EC0181E017
:10313000888F9B8D8C8D981305C0E889F9898081D3
:1031400085FD24C0F62E0B8D10E00F5F1F4F0F730F
:103150001127E02E8C8DE8120CC00FB607FCFACFB9
:10316000E889F989808185FFF5CFCE010E946F182B
:10317000F1CF8B8DFE01E80FF11DE35AFF4FF08276
:103180000B8FEA89FB898081806207C0EE89FF8905
:103190006083E889F98980818064808381E090E0A0
:1031A000DF91CF911F910F91FF90EF900895CF93F2
:1031B000DF93EC01888D8823C9F0EA89FB8980813F
:1031C00085FD05C0A889B9898C9186FD0FC00FB611
:1031D00007FCF5CF808185FFF2CFA889B9898C9152
:1031E00085FFEDCFCE010E946F18E7CFDF91CF9121
:1031F000089580E090E0892B29F00E9465188111E4
:103200000C9400000895833081F028F4813099F007
:103210008230A1F008958730A9F08830B9F0843069
:10322000D1F4809180008F7D03C0809180008F77E2
:1032300080938000089584B58F7702C084B58F7D18
:1032400084BD08958091B0008F7703C08091B00055
:103250008F7D8093B00008953FB7F89480910B075D
:1032600090910C07A0910D07B0910E0726B5A89B71
:1032700005C02F3F19F00196A11DB11D3FBFBA2F08
:10328000A92F982F8827820F911DA11DB11DBC0168
:10329000CD0142E0660F771F881F991F4A95D1F72D
:1032A00008952091C4063091C5062817390771F496
:1032B0009091C3068091C206981741F0E091C30631
:1032C000F0E0EA53F94F808190E008958FEF9FEF8F
:1032D000089508951F93CF93DF93DC015C962D91A1
:1032E0003C915D972115310539F481E090E013960A
:1032F0009C938E9312973DC05196ED91FC915297FD
:1033000050969C915097892F80951FB75E964C914F
:103310005E9741FB772770F941FD6095F8944081F5
:10332000772311F0492B01C048234083E9012197FD
:10333000F1F748E0508160FF02C0592B01C05823CB
:103340005083E9012197F1F76695415099F777236A
:1033500021F090818923808303C08081982B908302
:103360001FBF5C968D919C915D970197F1F721E0CD
:1033700030E0C901DF91CF911F9108952091C406DB
:103380003091C5062817390771F48091C206209143
:10339000C30690E0805C9F4F821B910960E470E05F
:1033A0000E949831089580E090E008952091C4062D
:1033B0003091C50628173907B9F49091C30680915A
:1033C000C206981789F0E091C306F0E0EA53F94F7E
:1033D00080812091C30630E02F5F3F4F2F7333274A
:1033E0002093C30690E008958FEF9FEF089508950E
:1033F00080E090E008950E940732EF92FF920F93D1
:103400001F93CF93DF938C017B01C0E0D0E0F701E5
:10341000EC0FFD1F6491662361F0D801ED91FC91E2
:103420000190F081E02DC8010995892B11F02196BA
:10343000EECFCE01DF91CF911F910F91FF90EF90D2
:1034400008956115710579F0FB0101900020E9F7FD
:103450003197AF01461B570BDC01ED91FC910280C7
:10346000F381E02D099480E090E008951F920F927F
:103470000FB60F9211242F933F934F935F936F9347
:103480007F938F939F93AF93BF93EF93FF9382EBC1
:1034900091E00E946F18FF91EF91BF91AF919F91C2
:1034A0008F917F916F915F914F913F912F910F90ED
:1034B0000FBE0F901F9018951F920F920FB60F928C
:1034C00011242F938F939F93EF93FF93E091C20169
:1034D000F091C3018081E091C801F091C90182FDA2
:1034E00012C090818091CB018F5F8F732091CC01AE
:1034F000821751F0E091CB01F0E0EE54FE4F958F32
:103500008093CB0101C08081FF91EF919F918F91BA
:103510002F910F900FBE0F901F901895CF93DF93B0
:10352000282F30E0F901E85AFB4F8491F901E65C5D
:10353000FB4FD491F901EA5DFB4FC491CC2391F08C
:1035400081110E940319EC2FF0E0EE0FFF1FE45EE3
:10355000FB4FA591B491EC91ED2381E090E021F433
:1035600080E002C080E090E0DF91CF9108951F934A
:10357000CF93DF93282F30E0F901E85AFB4F849175
:10358000F901E65CFB4FD491F901EA5DFB4FC49170
:10359000CC23C9F0162F81110E940319EC2FF0E003
:1035A000EE0FFF1FEE5EFB4FA591B4918FB7F8941D
:1035B000111105C09C91ED2FE095E92302C0EC911B
:1035C000ED2BEC938FBFDF91CF911F910895CF9397
:1035D000DF9390E0FC01E65CFB4F2491FC01EA5D87
:1035E000FB4F8491882361F190E0880F991FFC01C3
:1035F000E25BFB4FC591D491FC01EE5EFB4FA591C0
:10360000B491611109C09FB7F894888120958223F5
:103610008883EC912E230BC0623061F49FB7F8943D
:103620003881822F809583238883EC912E2B2C93D5
:103630009FBF06C08FB7F894E8812E2B28838FBFD9
:10364000DF91CF9108951F93CF93DF93182FEB0154
:1036500061E00E94E71A209711F460E004C0CF3FB8
:10366000D10539F461E0812FDF91CF911F910C9446
:10367000B71AE12FF0E0E85AFB4FE491E330F9F09C
:1036800048F4E130B9F0E230A1F584B5806284BD40
:10369000C8BD34C0E730E9F0E83019F1E43049F54D
:1036A00080918000806280938000D0938B00C093D3
:1036B0008A0024C084B5806884BDC7BD1FC08091C6
:1036C0008000806880938000D0938900C093880038
:1036D00015C08091B00080688093B000C093B300A3
:1036E0000DC08091B00080628093B000C093B400A0
:1036F00005C0C038D1050CF0B5CFAFCFDF91CF9169
:103700001F9108958E3008F08E50877080648093EA
:103710007C0080917A00806480937A0080917A00A6
:1037200086FDFCCF809178002091790090E0922B6B
:1037300008958230910538F0880F991F880F991FDE
:1037400005970197F1F708958F929F92AF92BF92DC
:10375000CF92DF92EF92FF926B017C010E942C19B5
:103760004B015C01C114D104E104F104F1F00E94A9
:103770002C19DC01CB0188199909AA09BB09883EDB
:103780009340A105B10570F321E0C21AD108E10808
:10379000F10888EE880E83E0981EA11CB11CC114AC
:1037A000D104E104F10419F7DDCFFF90EF90DF9031
:1037B000CF90BF90AF909F908F9008952FB7F894BF
:1037C00060910707709108078091090790910A0797
:1037D0002FBF08951F920F920FB60F9211242F93AF
:1037E0003F938F939F93AF93BF93809107079091DF
:1037F0000807A0910907B0910A073091060723E056
:10380000230F2D3720F40196A11DB11D05C026E818
:10381000230F0296A11DB11D209306078093070771
:1038200090930807A0930907B0930A0780910B07AC
:1038300090910C07A0910D07B0910E070196A11D64
:10384000B11D80930B0790930C07A0930D07B093C5
:103850000E07BF91AF919F918F913F912F910F9044
:103860000FBE0F901F9018951F920F920FB60F92D8
:1038700011242F933F934F935F936F937F938F9375
:103880009F93AF93BF93EF93FF93E091C406F091A2
:10389000C506309709F451C0968DA685B7858585F4
:1038A00091FF04C09C91892329F447C09C918923EE
:1038B00009F043C0A389B4899C91858980958923A7
:1038C0008C93868997890197F1F7608D718DA68514
:1038D000B785558538E020E0CB010197F1F7822FBD
:1038E00090E095958795282F4C91452309F0206805
:1038F000315091F7868D81FD20958091C20690E030
:1039000001968F7399273091C306381749F0A0911B
:10391000C206B0E0AA53B94F2C938093C20603C0ED
:10392000868D8160868F828D938D0197F1F7A389B3
:10393000B4899C918589892B8C93FF91EF91BF91DC
:10394000AF919F918F917F916F915F914F913F9137
:103950002F910F900FBE0F901F901895E091C40605
:10396000F091C506E817F90769F4A389B4899C9119
:103970008589809589238C931092C5061092C40680
:1039800081E0089580E00895CF93DF93CDB7DEB74F
:1039900029970FB6F894DEBF0FBECDBFAE014F5FC3
:1039A0005F4F0E94DB0F882389F08D818F3361F098
:1039B00020F48F3159F489E00CC08F3519F08F371E
:1039C00039F004C08BE005C08AE003C080E001C08C
:1039D0008CE029960FB6F894DEBF0FBECDBFDF9105
:1039E000CF9108958F929F92AF92BF92CF92DF9224
:1039F000EF92FF920F931F93CF93DF93EC018E8191
:103A00009F810E94A50F40E06CEC8E819F810E94F7
:103A1000360F488164E48E819F810E94360F8A812F
:103A2000882309F442C0E981E950E33040F4F0E032
:103A3000EE0FFF1FEE57FE4F0081118102C00EEE08
:103A400012E08B818823F9F0888181111CC00E94CB
:103A5000DE1B4B015C016801110FEE08FF088E812F
:103A60009F810E94E30E813001F10E94DE1BDC0188
:103A7000CB018C199D09AE09BF0988159905AA05C6
:103A8000BB0568F312C0B801110F880B990BDF91C9
:103A9000CF911F910F91FF90EF90DF90CF90BF904B
:103AA000AF909F908F900C94A41BDF91CF911F91AA
:103AB0000F91FF90EF90DF90CF90BF90AF909F90CD
:103AC0008F900895EF92FF920F931F93CF93DF9300
:103AD000EC017B0180917502811128C0DB016D91A1
:103AE0007D918D919C910E942D2F09E712E020E09D
:103AF00041E00E94D92A81E08093750280914F02B3
:103B000090915002DC01ED91FC910680F781E02D4F
:103B1000BE01099580914F0290915002DC01ED9118
:103B2000FC910480F581E02DB801099580914F0248
:103B3000909150020E94870AEC01009779F16CEA9B
:103B400071E00E940C32892B59F16EEA71E0CE01CE
:103B50000E940C32892B19F4109275021FC060EB81
:103B600071E0CE010E940C32892B19F40E94ED14F1
:103B700017C0CE010E94FD2AF70160837183828302
:103B8000938380914F0290915002DC01ED91FC9162
:103B90000480F581E02DBE01099502C080E001C0DE
:103BA00081E0DF91CF911F910F91FF90EF900895E9
:103BB000EF92FF920F931F93CF93DF93EC017B0162
:103BC00080917502811126C0DB016D917D918D91EF
:103BD0009C9109E712E022E041E00E94D92A81E0AD
:103BE0008093750280914F0290915002DC01ED911B
:103BF000FC910680F781E02DBE01099580914F026E
:103C000090915002DC01ED91FC910480F581E02D52
:103C1000B801099580914F02909150020E94870A45
:103C2000EC01009779F16CEA71E00E940C32892B6B
:103C300059F16EEA71E0CE010E940C32892B19F421
:103C4000109275021FC060EB71E0CE010E940C3231
:103C5000892B19F40E94ED1417C0CE010E94F92A95
:103C6000F701608371838283938380914F029091E7
:103C70005002DC01ED91FC910480F581E02DBE0144
:103C8000099502C080E001C081E0DF91CF911F91D2
:103C90000F91FF90EF900895CF93DF93CFE4D2E0A0
:103CA0008A819B810E94740E88819981DC01ED914B
:103CB000FC910084F185E02D6CE674E0DF91CF91FA
:103CC0000994CF93DF9300D000D0CDB7DEB77894BE
:103CD00084B5826084BD84B5816084BD85B5826011
:103CE00085BD85B5816085BD80916E0081608093C2
:103CF0006E0010928100809181008260809381002B
:103D0000809181008160809381008091800081603A
:103D1000809380008091B10084608093B100809195
:103D2000B00081608093B00080917A0084608093BD
:103D30007A0080917A00826080937A0080917A0084
:103D4000816080937A0080917A00806880937A0005
:103D50001092C10061E083E00E94E71A61E083E015
:103D60000E94B71A80914B0490914C04DC01ED91B4
:103D7000FC910190F081E02D25E134E04EE250E02D
:103D800060E070E009950EE210E080914B049091A4
:103D90004C04DC01ED91FC9198012C5D3B4F0190AE
:103DA000F081E02D47E250E0B8010995095D1F4F11
:103DB0000E39B2E01B0749F740914D0450914E0473
:103DC00060914F04709150048091150490911604F5
:103DD000A0911704B0911804481759076A077B0788
:103DE00009F4AFC085E194E00E94740E80914D0407
:103DF00090914E04A0914F04B0915004809315040B
:103E000090931604A0931704B093180481E0809354
:103E100043048DE494E090933D0480933C0480E05F
:103E200090E0A0EEB0E48093380490933904A0931E
:103E30003A04B0933B0483E080932B0488E18093A1
:103E40002F0410922E0410922D048FE790ECAEEB0D
:103E5000B0E08093300490933104A0933204B09387
:103E600033048EE790ECAEEBB0E080933404909393
:103E70003504A0933604B093370487E080932C0474
:103E80008EEA97E4A1E8BFE380931B0490931C049F
:103E9000A0931D04B0931E048AE080934104109205
:103EA00042041092190488E893E1909324048093CB
:103EB000230484E690E0909326048093250480E018
:103EC00090E0A0E2B1E48093270490932804A093AB
:103ED0002904B0932A04EDE5F4E000E010E020E8C6
:103EE0003FE34DEC5CEC6CEC7DEBADECCA2EACEC46
:103EF000DA2EED2CADE3FA2E10861186128613868B
:103F00001486158616861786008B118B228B338BB1
:103F10004083518362837383C482D582E682F782B1
:103F2000B79686E0ED3CF80739F785E194E00E940A
:103F3000400E85E194E00E942E0D81E080935104B3
:103F400013C01092510480914B0490914C04DC01F9
:103F5000ED91FC910190F081E02D23E434E048E004
:103F600050E06EE972E0099580E693E00E94440D0E
:103F700061E080919F030E94E71AE091A203F09113
:103F8000A30386898330C8F090E09C012350310957
:103F90000497079710F021E030E0215031098AE0C2
:103FA000829FB001839F700D112463517E4F4AE0C0
:103FB00050E084EA93E00E94242B8EEA93E00E9472
:103FC000BB0660E080915D030E94E71A61E080918A
:103FD0005C030E94E71A8AED92E00E9493048EE24D
:103FE00093E00E94200D83E992E00E941B0B62E0A7
:103FF000809191020E94E71A0E94ED14EE24E3944E
:1040000083E0D82E97E2F92E24E0C22E35E0B32EBD
:1040100042E0A42E57E0752E66E0662E809176026F
:10402000811144C0E0927602E0915102F091520277
:1040300087A58823D9F117A610927602E09277021D
:10404000D0926E02E092710280917302909174029C
:10405000F89ED001F99EB00D1124AE0FBF1FDD9662
:104060008C918093780260A971A970937402609317
:10407000730280915302909154020E94570BE09179
:104080005102F091520282A993A9A4A9B5A9E09185
:104090005302F09154021486158616861786808F77
:1040A000918FA28FB38F148E168EE58E8091910220
:1040B0000E948E1A892B21F40E944C1E10926E02CF
:1040C000E0915302F091540286A9882311F060E038
:1040D00001C061E0809192020E94B71A80916E0245
:1040E000823009F430C330F4882369F0813009F458
:1040F000E2C058C7833009F4E8C5853009F052C7DB
:104100000E944C1E4FC78091750281115DC0809145
:10411000570290915802DC01ED91FC910480F581E9
:10412000E02D0995A0914F02B0915002ED91FC91C4
:1041300011970680F781E02D813019F468ED72E067
:1041400002C065ED72E0CD01099509E712E020E0BB
:1041500041E060E070E080E891E40E94D92A80911B
:104160004F0290915002DC01ED91FC910280F381AD
:10417000E02DB801099580914F0290915002DC0129
:10418000ED91FC910680F781E02D63ED72E00995D9
:10419000E0915102F091520260817181828193819C
:1041A0000E942B2F20E041E00E94D92A80914F02EB
:1041B00090915002DC01ED91FC910480F581E02D9D
:1041C000B8010995E092750280914F0290915002DA
:1041D000DC01ED91FC910284F385E02D09958C01C1
:1041E00060E080915302909154020E94D7110136F1
:1041F000110509F4ABC5FCF402331105B1F16CF4FF
:104200000033110509F4A2C50133110509F0CCC62C
:1042100010927502E0926E02C7C60333110551F188
:104220000433110509F0C0C68091530290915402E5
:104230000E942C14B9C60836110531F154F4033626
:10424000110569F10436110509F0AEC6B0926E028F
:10425000ABC60037110599F00437110509F0A4C663
:1042600010927502C0926E029FC610927502A092C3
:104270006E029AC610927502D0926E0295C661E0E7
:1042800080E00E94721590C68091590290915A0266
:10429000DC01ED91FC910190F081E02D0AC080914C
:1042A000590290915A02DC01ED91FC910280F38158
:1042B000E02D099579C6E0916F028E2F90E08A314A
:1042C000910508F02CC2FC01EC5CFF4F0C94ED3121
:1042D000E0915102F091520284818983BE016F5FA7
:1042E0007F4F8EEC92E00E940515882309F45CC68E
:1042F000E0915102F09152028981848325C0A092FD
:104300006F0252C6E0915102F0915202868197816C
:10431000A085B18589839A83AB83BC83BE016F5F1F
:104320007F4F89EC92E00E94D81D882309F43CC697
:10433000E0915102F091520289819A81AB81BC8156
:1043400086839783A087B1871092750280916F0250
:104350008F5F80936F0228C6C0926F0225C6B0920D
:104360006F0222C660926F021FC670926F021CC657
:10437000B8E0B0936F0218C6E0915102F09152027A
:1043800086859785A0E0B0E089839A83AB83BC8360
:10439000BE016F5F7F4F8EE792E00E94621D88230F
:1043A00009F402C6E0915102F091520289819A818A
:1043B00097878687C9CFE0915102F0915202808998
:1043C0009189A0E0B0E089839A83AB83BC83BE016E
:1043D0006F5F7F4F84EC92E00E94621D882309F496
:1043E000E3C5E0915102F091520289819A81918B4B
:1043F000808BAACFE0915102F09152028289938979
:10440000A489B58989839A83AB83BC83BE016F5F1E
:104410007F4F8FEB92E00E94D81D882309F4C4C51A
:10442000E0915102F091520289819A81AB81BC8165
:10443000828B938BA48BB58B87CFEEE0E0936F02DA
:10444000B3C5E0915102F0915202868990E0A0E05C
:10445000B0E089839A83AB83BC83BE016F5F7F4FDB
:104460008AEB92E00E94621D882309F49DC5E091C9
:104470005102F09152028981868B66CFE091510200
:10448000F0915202878990E0A0E0B0E089839A839E
:10449000AB83BC83BE016F5F7F4F85EB92E00E94D0
:1044A000621D882309F480C5E0915102F091520207
:1044B0008981878B49CFE0915102F0915202808D22
:1044C000918DA0E0B0E089839A83AB83BC83BE0169
:1044D0006F5F7F4F80EB92E00E94621D882309F49A
:1044E00063C5E0915102F091520289819A81918FC6
:1044F000808F2ACFE0915102F0915202828D90E09C
:10450000A0E0B0E089839A83AB83BC83BE016F5F78
:104510007F4F8BEA92E00E94621D882309F444C514
:10452000E0915102F09152028981828F0DCFE0918A
:104530005102F0915202838D948DA58DB68D8983A1
:104540009A83AB83BC83BE016F5F7F4F86EA92E0A4
:104550000E94621D882309F427C5E0915102F09161
:10456000520289819A81AB81BC81838F948FA58F00
:10457000B68FEACEE0915102F0915202878D90A160
:10458000A1A1B2A189839A83AB83BC83BE016F5F73
:104590007F4F81EA92E00E94621D882309F404C5DE
:1045A000E0915102F091520289819A81AB81BC81E4
:1045B000878F90A3A1A3B2A3C7CEE0915102F0913F
:1045C000520283A194A1A5A1B6A189839A83AB834A
:1045D000BC83BE016F5F7F4F8CE992E00E94D81DC3
:1045E000882309F4E1C4E0915102F09152028981DB
:1045F0009A81AB81BC8183A394A3A5A3B6A3A4CEC7
:10460000E0915102F091520287A190A5A0E0B0E0A4
:1046100089839A83AB83BC83BE016F5F7F4F87E939
:1046200092E00E94621D882309F4BEC4E091510209
:10463000F091520289819A8190A787A385CEE0915B
:104640005102F091520281A592A5A0E0B0E08983C9
:104650009A83AB83BC83BE016F5F7F4F82E992E098
:104660000E94621D882309F49FC4E0915102F091D9
:10467000520289819A8192A781A766CEE091510268
:10468000F091520283A58983BE016F5F7F4F8DE851
:1046900092E00E940515882309F486C4E091510236
:1046A000F0915202898183A74FCEE0915102F0919F
:1046B000520285A590E0A0E0B0E089839A83AB83A5
:1046C000BC83BE016F5F7F4F88E892E00E94621D4D
:1046D000882309F469C4E0915102F0915202898162
:1046E00085A732CEE0915102F091520284A590E06C
:1046F000A0E0B0E089839A83AB83BC83BE016F5F87
:104700007F4F83E892E00E94621D882309F44CC425
:10471000E0915102F0915202898184A715CE8091D7
:104720005102909152020E94400E10926E0210921D
:104730006F028091510290915202DC019E96EC92A0
:104740000E942E0D31C4E09170028E2F90E08E30C9
:10475000910508F0AFC2FC01E25BFF4F809173024C
:10476000909174020C94ED31092E000CAA0BBB0B36
:1047700089839A83AB83BC83BE016F5F7F4F89E7D8
:1047800092E00E94621D882309F40EC489819A81F7
:10479000AB81BC8180319105A105B1050CF0D6C279
:1047A0009093740280937302809170028F5F809364
:1047B0007002CCC2E0915102F0915202F89E900139
:1047C000F99E300D1124E20FF31F87AD8983BE01DE
:1047D0006F5F7F4F88E392E00E940515882309F4FC
:1047E000E3C3E0915102F0915202209173023091A3
:1047F0007402F29EC001F39E900D1124E80FF91F80
:10480000898187AF4FC2E0915102F0915202F89E28
:104810009001F99E300D1124E20FF31F86AD8983BC
:10482000BE016F5F7F4F84E792E00E9405158823E9
:1048300009F4BAC3E0915102F0915202209173023F
:1048400030917402F29EC001F39E900D1124E80F86
:10485000F91F898186AF26C2E0915102F091520280
:10486000F89E9001F99E300D1124E20FF31F85ADE3
:104870008983BE016F5F7F4F8FE692E00E9405152E
:10488000882309F491C3E0915102F09152022091E2
:10489000730230917402F29EC001F39E900D1124B8
:1048A000E80FF91F898185AFFDC1E0915102F091B8
:1048B0005202F89E9001F99E300D1124E20FF31F71
:1048C000E05CFF4F80819181A281B38189839A83CB
:1048D000AB83BC83BE016F5F7F4F8AE692E00E948C
:1048E000D81D882309F460C3E0915102F09152026F
:1048F0002091730230917402F29EC001F39E900DDC
:104900001124E80FF91FE05CFF4FC4C1E091510290
:10491000F0915202F89E9001F99E300D1124E20FA1
:10492000F31FEC5BFF4F80819181A281B38189836A
:104930009A83AB83BC83BE016F5F7F4F85E692E0B5
:104940000E94621D882309F42FC3E0915102F09167
:1049500052022091730230917402F29EC001F39EC4
:10496000900D1124E80FF91FEC5BFF4F89819A81AC
:10497000AB81BC8180839183A283B38393C1E09197
:104980005102F0915202F89E9001F99E300D1124CF
:10499000E20FF31FE85BFF4F80819181A281B38119
:1049A00089839A83AB83BC83BE016F5F7F4F80E6B0
:1049B00092E00E94D81D882309F4F6C2E0915102CA
:1049C000F09152022091730230917402F29EC00164
:1049D000F39E900D1124E80FF91FE85BFF4F5AC1B9
:1049E000E0915102F0915202F89E9001F99E300D33
:1049F0001124E20FF31FE45BFF4F80819181A281BC
:104A0000B38189839A83AB83BC83BE016F5F7F4F81
:104A10008BE592E00E94D81D882309F4C5C2E0917D
:104A20005102F09152022091730230917402F29E71
:104A3000C001F39E900D1124E80FF91FE45BFF4FB6
:104A400029C1E0915102F0915202F89E9001F99E25
:104A5000300D1124E20FF31FE05BFF4F8081918145
:104A6000A281B38189839A83AB83BC83BE016F5FCC
:104A70007F4F86E592E00E94D81D882309F494C2F6
:104A8000E0915102F0915202209173023091740230
:104A9000F29EC001F39E900D1124E80FF91FE05B18
:104AA000FF4FF8C0E0915102F0915202F89E900140
:104AB000F99E300D1124E20FF31FEC5AFF4F808155
:104AC0009181A281B38189839A83AB83BC83BE0128
:104AD0006F5F7F4F81E592E00E94D81D882309F423
:104AE00063C2E0915102F091520220917302309121
:104AF0007402F29EC001F39E900D1124E80FF91F7D
:104B0000EC5AFF4FC7C0E0915102F0915202F89E5B
:104B10009001F99E300D1124E20FF31FE85AFF4F68
:104B200080819181A281B38189839A83AB83BC8385
:104B3000BE016F5F7F4F8CE492E00E94D81D8823F6
:104B400009F432C2E0915102F091520220917302B5
:104B500030917402F29EC001F39E900D1124E80F73
:104B6000F91FE85AFF4F96C0E0915102F0915202AE
:104B7000F89E9001F99E300D1124E20FF31FE45AC4
:104B8000FF4F80819181A0E0B0E089839A83AB835D
:104B9000BC83BE016F5F7F4F87E492E00E94621D7D
:104BA000882309F401C2E0915102F0915202209150
:104BB000730230917402F29EC001F39E900D112495
:104BC000E80FF91FE45AFF4F30C0E0915102F09115
:104BD0005202F89E9001F99E300D1124E20FF31F4E
:104BE000E25AFF4F80819181A0E0B0E089839A83EF
:104BF000AB83BC83BE016F5F7F4F82E492E00E9473
:104C0000621D882309F4D0C1E0915102F091520253
:104C10002091730230917402F29EC001F39E900DB8
:104C20001124E80FF91FE25AFF4F89819A8191837D
:104C3000808338C0E0915102F0915202F89E9001B9
:104C4000F99E300D1124E20FF31FE05AFF4F8081CF
:104C50009181A281B38189839A83AB83BC83BE0196
:104C60006F5F7F4F8DE392E00E94D81D882309F487
:104C70009BC1E0915102F091520220917302309158
:104C80007402F29EC001F39E900D1124E80FF91FEB
:104C9000E05AFF4F89819A81AB81BC8180839183E7
:104CA000A283B38310927502809170028F5F80930C
:104CB00070027AC180915102909152020E94400E7E
:104CC00010926E02109270026FC18091710288235F
:104CD00019F08130F1F155C1809173029091740205
:104CE000092E000CAA0BBB0B89839A83AB83BC8370
:104CF000BE016F5F7F4F83E392E00E94621D8823B5
:104D000009F452C149815A816B817C81403151053E
:104D100061057105DCF45093740240937302E091D5
:104D20005102F0915202F49EC001F59E900D1124A3
:104D3000E80FF91F85AD80937802109276021092E9
:104D40007702809171028F5F8093710210927502D9
:104D50002BC180914F0290915002DC01ED91FC91AA
:104D60000284F385E02D09958C018237910509F4C1
:104D70001EC1809191020E948E1A892B09F417C1DD
:104D80008091730290917402803191050CF0F3C010
:104D9000E0915102F0915202F89E9001F99E300D7F
:104DA0001124E20FF31F27AD222309F4DEC00136E0
:104DB000110531F460E0809175020E94721509C0FE
:104DC0000433110531F480915302909154020E94F2
:104DD0002C14E0915102F091520283A5882309F42A
:104DE00052C08BE592E00E94FC0A8BE592E00E94A3
:104DF000CE0A882309F447C08BE592E00E940E0B8F
:104E0000E0915102F0915202E7A6A0915302B091B5
:104E10005402D4968C91D49780907302909074022F
:104E20008823B9F050964D915D916D917C91539787
:104E300054968D919D910D90BC91A02D1A012B013E
:104E4000281A390A4A0A5B0A22AA33AA44AA55AA8E
:104E500015C0F89CD001F99CB00D1124AE0FBF1FF6
:104E6000AC5BBF4F2D913D914D915C91A0E6BAEEA8
:104E70000E94633062AB73AB84AB95AB91AA80AAFE
:104E8000CF010E942E0D8091770281112AC0E092FD
:104E90007702609173027091740280915302909135
:104EA00054020E94570BE0915102F091520220915E
:104EB000730230917402F29EC001F39E900D112492
:104EC000E80FF91F85AD80937802109275020E9459
:104ED000DE1B60938D0270938E0280938F029093FD
:104EE000900261E080915302909154020E94D71188
:104EF000882309F459C0E0915102F09152022091A7
:104F0000730230917402F29EC001F39E900D112441
:104F1000E80FF91F86AD882309F452C0E0927502AC
:104F200080917802882349F0E0915502F091560271
:104F300064EB70E080810E94231B0737110549F460
:104F400080915502909156020E94C20A10927502F9
:104F500037C00236110541F58091550290915602F5
:104F60000E94C20A109278021FC0019690937402A8
:104F70008093730219C0809171028F5F80937102D8
:104F800013C08091510290915202DC019B962C91AA
:104F90009B97222321F09F961C920E942E0D0E9427
:104FA000ED1402C010926E020E94F91837C8E09109
:104FB0005102F091520217A6B4E1B0937102E0CE13
:104FC0008091730290917402019690937402809381
:104FD000730210927702E8CFE0E6F3E08AE491E012
:104FE0009183808388E391E0958F848F8CE793E0B1
:104FF0000C94AE1CEF92FF920F931F93CF93DF930D
:105000001092B5011092B40188EE93E0A0E0B0E0F8
:105010008093B6019093B701A093B801B093B90102
:105020008EE091E09093B3018093B20185EC90E023
:105030009093BF018093BE0184EC90E09093C101F6
:105040008093C00180EC90E09093C3018093C201F3
:1050500081EC90E09093C5018093C40182EC90E0D4
:105060009093C7018093C60186EC90E09093C901AC
:105070008093C8011092CB011092CC011092CD0107
:105080001092CE0180E091E090934C0480934B0409
:105090008BEE9AE9A4E0B0E080934D0490934E0427
:1050A000A0934F04B093500481E08093510460E0DA
:1050B0008CE00E94E71AE6E4F4E0E491E093070450
:1050C000E2E3F4E0E491F0E0EE0FFF1FE45EFB4F5B
:1050D000859194919093090480930804109212048E
:1050E0001092140410921304E2E1F4E0129284E0AE
:1050F000EA30F807D9F787E094E09093FA038093B9
:10510000F9031092F7031092F8031092F30389E069
:105110008093F40361E06093F5036093F6031092CB
:105120000604109205048CE08093B00385E194E0BE
:105130009093B2038093B1031092B40322E731E05D
:105140003093AF032093AE0323EF33E03093F203A9
:105150002093F1036093B3031092A0031092A10374
:1051600028E020939F032AE531E030939E032093AB
:105170009D039093A3038093A20380E091EEA0E0AF
:10518000B0E08093780390937903A0937A03B0936F
:105190007B038AE491E09093610380936003109213
:1051A0007F0310927E0388EE93E0A0E0B0E080934E
:1051B000800390938103A0938203B093830388E3D9
:1051C00091E090937D0380937C031092930310925F
:1051D00092031092950310929403109297031092E9
:1051E0009603109299031092980380919A038E7FF0
:1051F0008D7F80939A038695817068278BE00E944B
:10520000B71A61E08BE00E94E71AE5E4F4E0E4916C
:10521000E0938C03E1E3F4E0E491F0E0EE0FFF1F94
:10522000EE5EFB4F8591949190938E0380938D0356
:1052300060E08AE00E94E71A80919A0381FD04C031
:1052400061E08AE00E94B71A8AE080938803E4E470
:10525000F4E0E491E0938903E0E3F4E0E491F0E02A
:10526000EE0FFF1FE45EFB4F8591949190938B03AB
:1052700080938A03C5E1D4E0D0939C03C0939B0341
:105280008FE080935D03D0935F03C0935E0389E05A
:1052900080935C03D0933103C093300310923303A7
:1052A0001092320310923403109235038CE291E095
:1052B00090932F0380932E0310923A0310923B0396
:1052C00010923C0310923D0386E393E00E940E0B84
:1052D00010924D0310924E0310924F031092500300
:1052E00089E493E00E940E0BD093DD02C093DC02B0
:1052F0001092DF021092DE021092E0021092E102A0
:1053000080E291E09093DB028093DA0282E293E004
:1053100090930103809300038EE193E09093FF024A
:105320008093FE0286E293E090930303809302034E
:1053300010921C031092140310921503109216037E
:105340001092170380E090E0AFE7B3E48093180376
:1053500090931903A0931A03B0931B0384E690E083
:10536000A0E0B0E08093100390931103A093120388
:10537000B09313031092FB021092FA0281E090E0C6
:105380009093FD028093FC0280931D038EEA97E4C4
:10539000A1E8B1E48093E2029093E302A093E402D7
:1053A000B093E50249E25CE56FE07EE34093E602FC
:1053B0005093E7026093E8027093E9024DEC5CE0E1
:1053C00060EF73E44093EA025093EB026093EC02C7
:1053D0007093ED028093EE029093EF02A093F0029F
:1053E000B093F10282E490E6A5E6BCE38093F2027A
:1053F0009093F302A093F402B093F50280E098E05A
:10540000A6E9B5E48093F6029093F702A093F80220
:10541000B093F9020E94DE1B00911003109111035A
:105420002091120330911303DC01CB01801B910BFF
:10543000A20BB30B8093040390930503A093060380
:10544000B093070310922A0310922B0310922C039F
:1054500010922D03D0939402C09393028DE593E0B4
:1054600090939602809395028AED92E09093980231
:10547000809397028EE293E090939A028093990230
:105480009EEAE92E93E0F92EF0929C02E0929B02B4
:105490000DE913E010939E0200939D021092A30267
:1054A0001092A4021092A5021092A6028FE992E037
:1054B0000E940E0B80EA9FE0A0E0B0E08093B6026D
:1054C0009093B702A093B802B093B90282EB92E036
:1054D0000E940E0B1092C6021092C7021092C902CF
:1054E0001092CB021092CA021092CC021092CD02FE
:1054F0001092CE021092CF021092D0021092D102DE
:105500001092D2021092D3021092D4021092D502BD
:105510001092D6021092D70280E693E09093500248
:1055200080934F02D0935202C093510283E992E0DC
:1055300090935402809353028CE593E0909356022B
:1055400080935502F0925802E092570210935A024B
:105550000093590280E395E7A0E0B0E080935F02FA
:1055600090936002A0936102B09362028BE592E097
:105570000E940E0B10926E0210926F021092700237
:1055800010927102109272021092740210927302C1
:10559000109275021092760282E08093910283E06D
:1055A00080939202DF91CF911F910F91FF90EF9026
:1055B0000895EF920F931F93CF93DF93E80147FD78
:1055C00002C034E001C034E1E42F440FFF0BF7FFC9
:1055D00003C0F195E195F109E32E022F2E2FAE01C4
:1055E0000E94422BCE01DF91CF911F910F91EF903E
:1055F0000895662777270C94D02C1F93FC019927D8
:105600008827BC01E89411911032E9F3193010F0A9
:105610001E30C8F31B3251F01D3249F4689406C0A5
:105620000E942D2B610F711D811D911D1191105331
:105630001A30B0F33EF490958095709561957F4F48
:105640008F4F9F4F1F910895FB01DC0102C0059011
:105650000D9241505040D8F70895592F482F372FB9
:10566000262F660F771F881F991F660F771F881FC9
:10567000991F620F731F841F951F660F771F881F66
:10568000991F08954F925F926F927F929F92AF926F
:10569000BF92CF92DF92EF92FF920F931F93CF931F
:1056A000DF93CDB7DEB729970FB6F894DEBF0FBEF4
:1056B000CDBF6A01122FB02E2BE3201720F0FF245C
:1056C000F394F00E02C0BCE3FB2E0F2D27E0AE01D9
:1056D0004F5F5F4F0E942D2EAC018981982F9970EA
:1056E000913031F0E1FC06C0E0FE06C090E205C05A
:1056F0009DE203C09BE201C090E0EE2DE07183FFCC
:105700003CC0911102C083E001C084E0811718F40D
:10571000212F281B01C020E0E1110BC0F601822FD0
:1057200030E2882319F031938150FBCFC20ED11C97
:1057300020E0992329F0D6019C93F60131966F0160
:10574000C6010396E2FE0AC03EE4D6013C9341E462
:1057500011964C93119712963C9306C03EE6F601C3
:10576000308341E641833283FC01322F40E2332310
:1057700009F442C041933150FACF82FF44C09111E5
:1057800002C083E001C084E0811718F4212F281B98
:1057900001C020E0E1110BC0F601822F30E2882326
:1057A00019F031938150FBCFC20ED11C20E0992318
:1057B00029F0D6019C93F60131966F01C60103963C
:1057C000E2FE0BC039E4D6013C933EE411963C93D3
:1057D000119736E412963C9307C039E6F601308300
:1057E0003EE6318336E63283FC01322F40E233233A
:1057F00019F041933150FBCFFC01E20FF11D1082F3
:105800008EEF9FEFB7C0F1E0911101C0F0E06F2F74
:1058100070E01416150624F49A012F5F3F4F02C062
:1058200021E030E0260F371FBB2029F06B2D70E000
:105830006F5F7F4F02C060E070E0260F371F612F5F
:1058400070E0261737071CF4121B212F01C020E03F
:105850003E2D387159F4D601322F60E2332319F00E
:105860006D933150FBCFC20ED11C20E0FF2331F0ED
:10587000D6019C93B6016F5F7F4F6B01E1110BC0A6
:10588000F601922F30E3992319F031939150FBCF19
:10589000C20ED11C20E09F2D940F3A81782F707199
:1058A000A72E84FF03C0313309F49150191624F454
:1058B000993018F098E001C091E0E42F852F57FF50
:1058C00002C0E0E080E06E2F782FE0E0F0E0AEE292
:1058D0009A2E3A01691A71082A01461A570A0B2DA5
:1058E00010E01195019511096F3F8FEF780729F4AA
:1058F000D6019C92C60101966C014617570784F0A9
:10590000661677066CF47F01E40CF51CA1E0B0E0AC
:10591000AC0FBD1FEA0EFB1ED7011196BC9002C052
:1059200090E3B92E615071093196C60101967C0150
:105930006017710724F0D601BC926C01D5CF6417B3
:10594000750741F4363320F4353321F4A11002C039
:1059500081E3B82EF601B082F701822F90E288230E
:1059600019F091938150FBCFF701E20FF11D1082E6
:1059700080E090E029960FB6F894DEBF0FBECDBF51
:10598000DF91CF911F910F91FF90EF90DF90CF901B
:10599000BF90AF909F907F906F905F904F900895D1
:1059A000A0E0B0E0E6EDFCE20C947230EC017B018B
:1059B0006115710519F0DB018D939C938E010F5FCA
:1059C0001F4F7880872D90E00E94052F892B11F0C2
:1059D000E801F4CFBDE27B1205C00F5F1F4F798055
:1059E000C1E008C0EBE27E1204C08E010E5F1F4FC3
:1059F0007980C0E06801F1E0CF1AD10843E050E0BF
:105A000060EC70E0C6010E940E2F892BF1F4680152
:105A100022E0C20ED11C45E050E06BEB70E0C60105
:105A20000E940E2F892B21F4680187E0C80ED11C3B
:105A3000E114F10419F0D701CD92DC92C111FFC03D
:105A400060E070E080E89FE703C143E050E068EB6E
:105A500070E0C6010E940E2F892B51F4E114F1046D
:105A600009F4F2C00E5F1F4FF70111830083ECC0F1
:105A7000680160E070E0CB0100E010E0F601D0EDDD
:105A8000D70DDA3058F52C2F2260622E2C2F28707B
:105A9000C2FF05C0211128C00F5F1F4F25C0222360
:105AA00011F001501109A5E0B0E09B01AC010E948A
:105AB00063304B015C01880C991CAA1CBB1CC501FE
:105AC000B4016D0F711D811D911D6839A9E97A0717
:105AD0008A07A9E19A0740F0C66005C0DE3F51F48D
