:100000000C9491010C94B9010C94B9010C94C5188D
:100010000C94C5180C94C5180C94B9010C94B90132
:100020000C94B9010C94B9010C94B9010C94B90168
:100030000C94B9010C94B9010C94B9010C94B90158
:100040000C947B180C94B9010C9449180C94231847
:100050000C94B9010C94B9010C94B9010C94B90138
:100060000C94B9010C94B9014E414E494E49545972
:10007000494E46CDCCCC3D0AD7233C17B7D1387773
:10008000CC2B329595E6241FB14F0A000020410089
:1000900000C84200401C4620BCBE4CCA1B0E5AAED3
:1000A000C59D7400407A10F35A00A0724E180900E2
:1000B00010A5D4E80000E87648170000E40B5402CD
:1000C0000000CA9A3B000000E1F505000080969808
:1000D00000000040420F000000A086010000001058
:1000E0002700000000E8030000000064000000009A
:1000F000000A00000000000100000000002C76D87B
:1001000088DC674F0823DFC1DFAE59E1B1B796E560
:10011000E3E453C63AE651997696E8E6C28426EBC4
:10012000898C9B62ED407C6FFCEFBC9C9F40F2BAD7
:10013000A56FA5F490055A2AF75C936B6CF9676D6F
:10014000C11BFCE0E40D47FEF520E6B500D0ED90C4
:100150002E0300943577050080841E080000204E91
:100160000A000000C80C333333330F986E1283112A
:1001700041EF8D2114893BE65516CFFEE6DB18D101
:10018000844B381BF77C1D901DA4BBE424203284D3
:10019000725E228100C9F124ECA1E53D27005EBC1E
:1001A000E2613FDD83C29C7E20A3FD1F41009D23B1
:1001B000BE46DB65F88C11AF32CA57E97400000007
:1001C00000240027002A00000000080002010000AF
:1001D00003040700000000000000005E01011F0191
:1001E00003030100008A02010A0102020100006407
:1001F000001E47040B090600007C010106010303F1
:10020000010000F401060E010202010000C2011704
:1002100001010202010100000000000001010000D4
:1002200000726E723A006273743A00626D673A004F
:100230006270663A0062706E3A00626B703A0062F9
:1002400061743A006269743A006274643A006262EE
:10025000633A006268613A00626F6E3A00626E72E1
:100260003A00736B6D3A00736F683A00736C733ABF
:1002700000736C733A00736E723A007370773A00D1
:1002800073626C3A007373753A007373613A00736A
:1002900073623A007373703A007373723A00737347
:1002A000743A003A006D61006D64002000204B003C
:1002B0002057002050002044002042003000310030
:1002C000204800204A0020530020510020470020F1
:1002D0004900204E004100720030003100300031F2
:1002E0000000000000250028002B00000000002373
:1002F0000026002900040404040404040402020289
:100300000202020303030303030102040810204056
:1003100080010204081020010204081020003D1989
:100320008F2411241FBECFEFD8E0DEBFCDBF26E063
:10033000A4E9B1E001C01D92A532B207E1F711E0D6
:10034000A0E0B1E0ECECFBE502C005900D92A43911
:10035000B107D9F711E0C0E9D1E004C02197FE014F
:100360000E94152BCF38D107C9F70E94631B0C944C
:10037000D92D0C940000AF92BF92CF92DF92EF92F2
:10038000FF920F931F93CF93DF936C017B018B013F
:10039000040F151FEB015E01AE18BF08C017D1078F
:1003A00059F06991D601ED91FC910190F081E02D19
:1003B000C6010995892B79F7C501DF91CF911F916E
:1003C0000F91FF90EF90DF90CF90BF90AF90089586
:1003D000FC01538D448D252F30E0842F90E0821B4B
:1003E000930B541710F0CF96089501970895FC01D0
:1003F000918D828D981761F0A28DAE0FBF2FB11D28
:100400005D968C91928D9F5F9F73928F90E008957F
:100410008FEF9FEF0895FC01918D828D981731F039
:10042000828DE80FF11D858D90E008958FEF9FEF8D
:100430000895FC01918D228D892F90E0805C9F4F63
:10044000821B91098F739927089581EE91E00E9494
:10045000190221E0892B09F420E0822F089580E021
:1004600090E0892B29F00E94250281110C94000054
:100470000895FC01A48DA80FB92FB11DA35ABF4F39
:100480002C91848D90E001968F739927848FA68993
:10049000B7892C93A089B1898C91837080648C93E7
:1004A000938D848D981306C00288F389E02D808196
:1004B0008F7D80830895EF92FF920F931F93CF93C8
:1004C000DF93EC0181E0888F9B8D8C8D98131AC08F
:1004D000E889F989808185FF15C09FB7F894EE8976
:1004E000FF896083E889F9898081837080648083D3
:1004F0009FBF81E090E0DF91CF911F910F91FF901E
:10050000EF900895F62E0B8D10E00F5F1F4F0F73C5
:100510001127E02E8C8D8E110CC00FB607FCFACF80
:10052000E889F989808185FFF5CFCE010E943902E3
:10053000F1CFEB8DEC0FFD2FF11DE35AFF4FF08251
:100540009FB7F8940B8FEA89FB8980818062CFCFB7
:10055000CF93DF93EC01888D8823B9F0AA89BB89FA
:10056000E889F9898C9185FD03C0808186FD0DC0E5
:100570000FB607FCF7CF8C9185FFF2CF808185FF06
:10058000EDCFCE010E943902E9CFDF91CF910895DE
:10059000833081F028F4813099F08230A9F00895F9
:1005A0008730A9F08830C9F08430B1F480918000A0
:1005B0008F7D03C0809180008F77809380000895A5
:1005C00084B58F7784BD089584B58F7DFBCF8091EE
:1005D000B0008F778093B00008958091B0008F7D38
:1005E000F9CFCF93DF93282F30E0F901E953FE4F85
:1005F0008491F901E75FFC4FD491F901EB50FD4F75
:10060000C491CC23A1F081110E94C802EC2FF0E02C
:10061000EE0FFF1FE551FD4FA591B491EC91ED2335
:1006200081E090E009F480E0DF91CF91089580E0CF
:1006300090E0FACF1F93CF93DF93282F30E0F9019A
:10064000E953FE4F8491F901E75FFC4FD491F90122
:10065000EB50FD4FC491CC23A9F0162F81110E94BD
:10066000C802EC2FF0E0EE0FFF1FEF51FD4FA591F8
:10067000B4918FB7F894EC91111108C0D095DE2396
:10068000DC938FBFDF91CF911F910895DE2BF8CFC0
:10069000CF93DF9390E0FC01E75FFC4F24918B50F8
:1006A0009D4FFC0184918823C9F090E0880F991F29
:1006B000FC01E354FE4FA591B491FC01EF51FD4FB5
:1006C000C591D49161110DC09FB7F8948C9120957C
:1006D00082238C938881282328839FBFDF91CF9129
:1006E0000895623051F49FB7F8943C91822F809521
:1006F00083238C93E8812E2BEFCF8FB7F894EC9166
:100700002E2B2C938FBFEACFE82FF0E0E953FE4F5A
:10071000E491E33029F150F4E130C1F0E230D9F056
:1007200060387105BCF560E00C941A03E73011F1F4
:10073000E83041F1E430A1F780918000806280933D
:10074000800070938B0060938A00089584B5806860
:1007500084BD67BD089584B5806284BD68BD089579
:1007600080918000806880938000709389006093FE
:10077000880008958091B00080688093B0006093F5
:10078000B30008958091B00080628093B0006093C0
:10079000B400089561E0C8CF8E3008F08E508770A5
:1007A000806480937C0080917A00806480937A00DA
:1007B00080917A0086FDFCCF80917800909179003D
:1007C00008958230910538F0880F991F880F991F7E
:1007D00005970197F1F708953FB7F8948091DD01EF
:1007E0009091DE01A091DF01B091E00126B5A89BB8
:1007F00005C02F3F19F00196A11DB11D3FBFBA2FB3
:10080000A92F982F8827BC01CD01620F711D811D72
:10081000911D42E0660F771F881F991F4A95D1F7F7
:1008200008958F929F92AF92BF92CF92DF92EF92F4
:10083000FF926B017C010E94EC034B015C01C1142F
:10084000D104E104F104B9F00E94EC0368197909BC
:100850008A099B09683E73408105910580F321E078
:10086000C21AD108E108F10888EE880E83E0981ECC
:10087000A11CB11CE4CFFF90EF90DF90CF90BF9010
:10088000AF909F908F9008952FB7F8946091D90101
:100890007091DA018091DB019091DC012FBF089506
:1008A0002091D6013091D7012817390771F4909122
:1008B000D5018091D401981741F0E091D501F0E085
:1008C000EC56FE4F808190E008958FEF9FEF0895E2
:1008D0000895EF92FF920F931F93CF93DF93DC0164
:1008E0005C96ED90FC905D97E114F10479F481E061
:1008F00090E013969C938E93129790E080E0DF91A6
:10090000CF911F910F91FF90EF9008955196ED9127
:10091000FC91529750968C915097982F90950FB7C5
:100920005E962C915E97122F127021FD6095F894BF
:100930002081112319F1282B2083E7012197F1F75A
:1009400028E0462F50E0308160FF1AC0382B3083FA
:10095000E7012197F1F7BA0175956795215089F75D
:10096000112381F08081892380830FBF5C968D9154
:100970009C910197F1F781E090E0C1CF2923DCCF72
:100980003923E5CF9081892BEFCFEF92FF920F9320
:100990001F93CF93DF938C017B01D0E0C0E0F70180
:1009A000EC0FFD1F6491662339F0C8010E946904B1
:1009B000892B11F02196F3CFCE01DF91CF911F91BA
:1009C0000F91FF90EF9008952091D6013091D701BB
:1009D0002817390771F48091D4012091D50190E056
:1009E000805C9F4F821B910960E470E00E94C02AE6
:1009F000089590E080E008952091D6013091D701CC
:100A000028173907B9F49091D5018091D40198172E
:100A100089F0E091D501F0E0EC56FE4F8081209105
:100A2000D50130E02F5F3F4F2F7333272093D5013F
:100A300090E008958FEF9FEF089590E080E0089593
:100A4000DC0180E0615090F09D919827E92FEF70D4
:100A5000F0E0E356FE4F2491E92FE295EF70F0E0CD
:100A6000E355FE4FE491822F8E27ECCF0895FC01D1
:100A700013861586148612861186108617821682B2
:100A80001582148213820895DC012C911196ED9148
:100A9000FC91F8948181822B81839281322F309551
:100AA0009323928387E090E00197F1F7818183237C
:100AB000818383E290E00197F1F790817894EFECE5
:100AC000F0E03197F1F7922381E009F480E0089596
:100AD000FC0190810180F281E02D292F209560FF9B
:100AE00014C0F8948281822382838181892B81833F
:100AF000A3E2B0E01197F1F78281982B928378946A
:100B000087ED90E00197F1F70895F89482818223B0
:100B100082838181892B8183AFEFB0E01197F1F758
:100B20008281982B928378948FE090E0EBCFDF92D4
:100B3000EF92FF920F931F93CF93DF93EC01D62E8A
:100B4000E42E08E010E0FF24F39461E08D2D8F2166
:100B500009F460E0CE010E946805FF0C0150110904
:100B6000A1F7E11010C0F894E981FA8191818881A0
:100B7000809589238183E981FA819281888180959A
:100B8000892382837894DF91CF911F910F91FF90F9
:100B9000EF90DF900895EF92FF920F931F93CF9302
:100BA000DF938C017B0140E065E50E949705E7013A
:100BB00088E0E80EF11C699140E0C8010E949705A9
:100BC000CE15DF05C1F7DF91CF911F910F91FF90F7
:100BD000EF900895FC0190810180F281E02DF8945E
:100BE0008181292F20958223818378943DE743E0FA
:100BF00050E0315029F1DA011197F1F78081892312
:100C0000C1F3F8948281822382838181892B81833D
:100C10007894ABE7B7E01197F1F7F89481818223DC
:100C20008183A3E1B1E01197F1F78081982381E0FE
:100C300009F080E07894E3E6F6E03197F1F7089563
:100C400080E008958F929F92AF92BF92CF92DF92F1
:100C5000EF92FF920F931F93CF93DF9300D000D0BA
:100C60001F92CDB7DEB78C01DC0119968D919C9156
:100C70000E94EA0540E06CECF801818592850E94B3
:100C80009705D8014C9164E419968D919C910E942E
:100C900097050E9444046B017C01F8018481811155
:100CA00020C081E08983CA82DB82EC82FD822981B7
:100CB0003A814B815C816D8170E080E090E00F9023
:100CC0000F900F900F900F90DF91CF911F910F9188
:100CD000FF90EF90DF90CF90BF90AF909F908F905C
:100CE000089585818823B1F08081811113C0F801B6
:100CF000818592850E944405813099F20E944404C6
:100D00006C197D098E099F096E3E7240810591051F
:100D100070F3C7CFD8011396EC91E9508EEE92E0B4
:100D2000E33038F4F0E0EE0FFF1FE35FFE4F808109
:100D300091814C01B12CA12CF8018181882321F0F3
:100D400060E082810E941A03C501B4010E9411046F
:100D5000D80111968C911197882309F4A2CF61E0F4
:100D600012968C910E941A039CCF4F925F926F92C1
:100D70007F928F929F92AF92BF92CF92DF92EF922B
:100D8000FF920F931F93CF93DF938C017B01EA01B6
:100D9000FC01818592850E94EA058823D9F1B7017B
:100DA000F801818592850E94CB0540E06EEBF80149
:100DB000818592850E9497056E015E01F9E0AF0E74
:100DC000B11C7E01F8018184928488E0682E712C28
:100DD000512C44244394C4010E9444058111542899
:100DE000440CF1E06F1A7108B1F7F70151927F01DD
:100DF000AE16BF0639F7F801818592850E94EA0593
:100E0000813041F4F60181916F01811105C0EE1529
:100E1000FF05C1F790E008C068E0CE010E94200500
:100E200091E028852813F6CF892FDF91CF911F916C
:100E30000F91FF90EF90DF90CF90BF90AF909F9079
:100E40008F907F906F905F904F9008950F931F93B6
:100E5000CF93DF93EC018C8D8823A1F01C8E0E9430
:100E600044040A891B892C893D89601B710B820B04
:100E7000930B6A877B878C879D87DF91CF911F912A
:100E80000F91089581E08C8F0E9444040A851B8590
:100E90002C853D85601B710B820B930B6A8B7B8BC2
:100EA0008C8B9D8BEACFCF93DF93EC018E819F815A
:100EB000DC01ED91FC910190F081E02D09956FAB83
:100EC00078AF89AF9AAFEE81FF811682DF01179666
:100ED000ED5BFF4F6D937D938D939D93AE17BF0791
:100EE000C9F7DF91CF910895DC0112962D913C91C5
:100EF000139714964D915C916FE1649FC001659FBB
:100F0000900D1124820F931FFC01E45BFF4F885B5F
:100F10009F4FDC012D913D914D915C9160817181DC
:100F2000828193810E94C028881F8827881F089586
:100F3000FC0186810895FC01878117820895CF9373
:100F4000DF93EC016C96CE010E94E404892B29F01A
:100F5000CE01DF91CF910C94FC0490E080E0DF9112
:100F6000CF9108954C960C94C504CF93DF93EC0178
:100F7000E881F9810284F385E02D09951816190698
:100F80001CF090E080E029C08D309105E9F0ACF4D0
:100F90008A309105B1F32E893F892331310588F7D5
:100FA000A9014F5F5F4F5F8B4E8B2C0F3D1FF901E7
:100FB0008283C40FD51F1A82E4CF8431910509F3CF
:100FC0008F3F910541F7DDCF8E899F891F8A1E8A49
:100FD00018161906B4F6CE010296DF91CF91089546
:100FE0000F931F93CF93DF93FC012289222331F0CB
:100FF00080E0DF91CF911F910F910895EC010E9445
:101000004404088119812A813B81DC01CB01801BCA
:10101000910BA20BB30B88879987AA87BB870C819A
:101020001D812E813F8180179107A207B30700F32E
:10103000088719872A873B8781E0DBCFCF93DF932F
:10104000FC012089211109C0EC010E94440468833D
:1010500079838A839B8381E0888BDF91CF91089588
:10106000FC01108211821282138214861586168664
:101070001786108A118A128A08957F928F929F9202
:10108000AF92BF92CF92DF92EF92FF920F931F9396
:10109000CF93DF93DC015C962C912111AFC1162F09
:1010A000EC017C01BDE1EB0EF11CC7010E941E08A2
:1010B000C7010E94F007882309F466C0C7010E9497
:1010C00030088E819F81DC01ED91FC910190F081CF
:1010D000E02D09956FAB78AF89AF9AAFEE81FF81B4
:1010E000DF01AD5BBF4F2C91AE014D5B5F4F6A01DD
:1010F000222309F464C184E0DA018C937E0144E484
:10110000E40EF11CD7018C91811108C04FA958AD94
:1011100069AD7AAD4BAF5CAF6DAF7EAF112369F0B7
:10112000EE81FF819681911108C0E881F98195A532
:10113000992319F08F5FF70180838C819D81DC01F9
:10114000ED91FC910680F781E02D0995811102C097
:10115000F7011082E881F981D7019C9185A5891753
:1011600080F41C922BAD3CAD4DAD5EAD6FA978AD5A
:1011700089AD9AAD0E94C02818161CF083E0F601D4
:10118000808388A98F5F88AB8C819D81DC01ED9184
:10119000FC910480F581E02D0995882311F082E00F
:1011A00088AB88A9823008F427C118AAEA80FB809E
:1011B000F70180810E94CC03D7011196ED90FC903D
:1011C000BC01990F880B990B0E94C7282FEC32EDB8
:1011D00047EA5CE30E94262920E030E040E85EE335
:1011E0000E944F2A9B01AC01F70163A174A185A164
:1011F00096A10E94BB2A18160CF0F8C081E08CABB7
:10120000FE01ED5BFF4F8083112309F447C0CC80C2
:10121000DD80D6011296ED91FC91139774A414967B
:101220008D919C912FE1289F7001299FF00C112432
:10123000EE0EFF1EB0E4EB0EF11C672D70E090E0A7
:1012400080E00E94C728F7012081318142815381CB
:101250000E944F2A4B015C01AC019B016FA978AD44
:1012600089AD9AAD0E94BB2A1816C4F47720B1F05C
:10127000A5019401FE01FF966081718182819381B5
:101280000E94BB2A181654F0C6010E9474078111EF
:1012900005C082E0FE01ED5BFF4F80838885998564
:1012A000DC01ED91FC912BA9222309F4A1C01123AB
:1012B00009F49EC0DE01AD5BBF4F2C912B7F09F07E
:1012C00097C00190F081E02D09958FA898ACA9AC4A
:1012D000BAACEC80FD80D701ED91FC91C080D1804B
:1012E000EE81FF812681422F50E0211196C0DF015F
:1012F000DF966D917D918D919C919A01220F331F04
:10130000220F331FE20FF31F27813085418552855D
:101310000E944E2A8B019C01B501A401C701F60170
:1013200009958BAB8AA9811123C08C819D810E9474
:101330007407E881F9814DA95EA99FE1949F90010E
:10134000959F300D1124E20FF31FE05CFF4FC0802A
:10135000D180E280F380A5019401882309F46CC058
:10136000C701B6010E94BB2A87FD02C081E08AAB9B
:101370008AA9882309F442C07E01FAE0EF0EF11C2D
:101380008B8D882309F460C08E899F89A88DB98DC3
:101390008E879F87A88BB98BC7010E941E08C70143
:1013A000DF91CF911F910F91FF90EF90DF90CF9041
:1013B000BF90AF909F908F907F900C94F007DA01D0
:1013C0001C92268134E0239FD0011124AE0FBF1F51
:1013D00017966D937D938D939C931A9781E0820F5E
:1013E0008F3010F486838ACE168288CE1CAA0CCF4A
:1013F0000280F381E02D0995111167CF80E0DF9124
:10140000CF911F910F91FF90EF90DF90CF90BF9001
:10141000AF909F908F907F900895DA011197AA0F57
:10142000BB1FAA0FBB1FAE0FBF1F17966D917D91FB
:101430008D919C911A9761CFC701B6010E94C02877
:1014400018160CF093CF94CFE881F9812DA93EA90D
:101450004FE1429FC001439F900D1124E80FF91FF7
:10146000EC5BFF4F2081318142815381A0E6BAEECF
:101470000E94FD296E877F87888B998B8DCFCF93B4
:10148000DF93EC0119AA1AAA1BAA88859985DC01A9
:10149000ED91FC910280F381E02D09951EAA1DAA11
:1014A000CE010A960E94300882E088ABFE01ED5B17
:1014B000FF4F1082CC5BDF4F1882DF91CF910895F0
:1014C0002F923F924F925F926F927F928F929F9254
:1014D000AF92BF92CF92DF92EF92FF920F931F9342
:1014E000CF93DF93CDB7DEB728970FB6F894DEBF62
:1014F0000FBECDBF98878F836A017B010B831C834E
:101500002D833E83DC0112960D90BC91A02DBA83F1
:10151000A983FC01248035808FE1829D8001839D19
:10152000100D11240A0F1B1FF801E05CFF4F4080D3
:101530005180628073807096208131814281538115
:101540006B817C818D819E810E9426294B015C01EB
:10155000AF81B88516968C91F801882309F4D3C021
:10156000E45BFF4F2081318142815381C301B2018D
:101570000E944F2AA50194010E944E2AA7019601BC
:101580000E94C028881F8827881F91E0B82EB9269E
:101590002FE1229DC001239D900D1124E981FA8144
:1015A0008E0F9F1FFC01EC5AFF4F208131812115C6
:1015B000310509F450C08A5A9F4FDC018D919C91EE
:1015C000892B09F448C00F811885085F1F4FBB2085
:1015D00009F4E1C0EF81F885818D882309F4ACC05E
:1015E00084899589A689B78984879587A687B787CF
:1015F000C8010E941E08C8010E94F007BB24B394D2
:10160000882349F1EF80F884FBE1EF0EF11CAF81F4
:10161000B8859C968C919C97882309F49BC09796DB
:101620008D919D910D90BC91A02DEF81F885878FB4
:1016300090A3A1A3B2A3C7010E941E08C7010E94E4
:10164000F007B82E882339F0C8010E943008C7017E
:101650000E943008B12CAF81B8851296ED91FC91B3
:10166000139714962D913C914FE1429FC001439FE7
:10167000900D1124E80FF91FE85AFF4FC080D18068
:10168000E280F38020E030E0A901C701B6010E94AA
:10169000BB2A18165CF4A70196016B817C818D81B1
:1016A0009E810E94BB2A18160CF4B12C8F8198855C
:1016B0000E947407882311F081E0B826EF81F88535
:1016C0008681B81611F081E08783AF81B8851696C0
:1016D000BC928B2D28960FB6F894DEBF0FBECDBFFF
:1016E000DF91CF911F910F91FF90EF90DF90CF90FE
:1016F000BF90AF909F908F907F906F905F904F9032
:101700003F902F900895E85BFF4F20813181428107
:101710005381C301B2010E944F2AA50194010E9486
:101720004E2ABB24B394A70196010E94BB2A181627
:101730000CF42ECFB12C2CCF48EE53E0249FC001E7
:10174000259F900D349F900D1124B0E0A0E0EF8113
:10175000F8854ACFAF81B8851296ED91FC91139729
:1017600014962D913C914FE1429FC001439F900DF3
:101770001124E80FF91FEA5AFF4F4081518128EEEA
:1017800033E0429FC001439F900D529F900D112462
:10179000B0E0A0E04ACFC8010E9430088F81988550
:1017A0004B960E94300857CFCF93DF93EC011E82F7
:1017B0001F8208960E943008CE014B96DF91CF9190
:1017C0000C943008FC0185810895CF93DF93EC01E0
:1017D00061E08A810E941A03ED81FE81808D918DE6
:1017E0000E94E10360E08A810E941A03ED81FE817C
:1017F000808D918D9C01220F331F820F931FDF91EB
:10180000CF910C94E1033F924F925F926F927F923F
:101810008F929F92AF92BF92CF92DF92EF92FF9200
:101820000F931F93CF93DF93EC012A013B016901D2
:10183000F12CE12C812C912C5401839465E2362EFD
:10184000ED81FE8187898E151F0409F00CF455C0C7
:1018500086010150110980F1D501C401002E04C098
:10186000880F991FAA1FBB1F0A94D2F784219521C4
:10187000A621B721892B8A2B8B2B21F0CE010E9428
:10188000E50BE7CF61E08A810E941A03ED81FE81BA
:10189000808D918D9C01220F331F820F931F0E9418
:1018A000E10360E08A810E941A03ED81FE81808D50
:1018B000918D0E94E103CDCFCE010E94E50B61E046
:1018C0008A810E941A03ED81FE81808D918D0E9494
:1018D000E10360E08A810E941A03ED81FE81808D20
:1018E000918D9C01329EC001339E900D11240E9467
:1018F000E1033FEFE31AF30AA3CFDF91CF911F91EA
:101900000F91FF90EF90DF90CF90BF90AF909F909E
:101910008F907F906F905F904F903F900895DF92EF
:10192000EF92FF920F931F93CF93DF938C01D62EEC
:10193000E72EDC011F968C9160E0FF24F394811167
:1019400002C061E0F12CD8011596ED91FC91C08D9B
:10195000D18D209719F4F801C781D085D80112964E
:101960008C910E941A03DC9EC001DD9E900D112413
:101970000E94E1036F2DF80182810E941A03EC9E00
:10198000C001ED9E900D1124DF91CF911F910F9119
:10199000FF90EF90DF900C94E1034F925F926F9273
:1019A0007F928F929F92AF92BF92CF92DF92EF92EF
:1019B000FF920F931F93CF93DF93EC012A013B011A
:1019C0006901F12CE12C812C912C54018394ED813F
:1019D000FE8187898E151F04A1F19CF188898823D7
:1019E00029F069857A85CE010E948F0C860101500D
:1019F0001109D8F0D501C401002E04C0880F991F29
:101A0000AA1FBB1F0A94D2F784219521A621B721D2
:101A1000892B8A2B8B2B31F06D857E85CE010E9420
:101A20008F0CE5CF6B857C85F9CF8889811105C046
:101A300069857A85CE010E948F0C8FEFE81AF80A2B
:101A4000C6CFDF91CF911F910F91FF90EF90DF9064
:101A5000CF90BF90AF909F908F907F906F905F904E
:101A60004F900895CF93DF93EC018A81662381F133
:101A700061E00E941A03ED81FE81808D918D0E94AC
:101A8000E10360E08A810E941A03ED81FE81808D6E
:101A9000918D25E0AC01249FC001259F900D11245C
:101AA0000E94E10361E08A810E941A03ED81FE81B8
:101AB000808D918D0E94E10360E08A810E941A036B
:101AC000ED81FE81808D918DDF91CF910C94E103AA
:101AD00061E00E941A03ED81FE81808D918D0E944C
:101AE000E10360E08A810E941A03ED81FE81808D0E
:101AF000918D0E94E10361E08A810E941A03ED81C9
:101B0000FE81808D918D0E94E10360E08A810E94B8
:101B10001A03ED81FE81808D918D25E0AC01249F1B
:101B2000C001259F900D1124CFCF4F925F926F92ED
:101B30007F92AF92BF92CF92DF92EF92FF920F937C
:101B40001F93CF93DF93EC01B62EED81FE81F788D2
:101B50005AE0A52ECC24C394D12C78E2E72EF7FCD2
:101B60007EC0ED81FE81438C548C658C768C61E067
:101B70008A810E941A03ED81FE81808D918D0E94E1
:101B8000E10360E08A810E941A03ED81FE81208DCD
:101B9000318DA29EC001A39E900D112436952795EC
:101BA000820F931F0E94E10309E110E0D301C201FB
:101BB000002E04C0B695A795979587950A94D2F7FD
:101BC000682F6170CE010E94320D0150110970F72B
:101BD00060E0CE010E94320D6B2DCE010E94320DCD
:101BE00003E010E0ED81FE81C601002E02C0880FE7
:101BF000991F0A94E2F7092E000CAA0BBB0B478D24
:101C000050A161A172A184239523A623B72361E08B
:101C1000892B8A2B8B2B09F460E0CE010E94320DB8
:101C200001501109F8F661E08A810E941A03ED81E2
:101C3000FE81808D918D0E94E10360E08A810E9487
:101C40001A03ED81FE81808D918D9C01E29EC00181
:101C5000E39E900D11240E94E103FA9480CFDF915E
:101C6000CF911F910F91FF90EF90DF90CF90BF9099
:101C7000AF907F906F905F904F900895DC01149625
:101C80002C911497211108C013962C91139722239D
:101C900019F021E014962C93FC0113820580F68143
:101CA000E02DA689A11103C060E00C94950DA13030
:101CB00061F0478D50A161A172A1228D30E0A23068
:101CC00011F40C94030C0C94CD0C0895DC011496C3
:101CD0002C911497211108C013962C911397211160
:101CE00003C021E014962C9321E0FC01238305809E
:101CF000F681E02DA689A11103C061E00C94950D39
:101D0000A13061F0438D548D658D768D228D30E04C
:101D1000A23011F40C94030C0C94CD0C0895FC012A
:101D200083810895FC0184810895FC0186A997A907
:101D30009F01225D3F4FDC01ED91FC910280F38118
:101D4000E02D48E050E06EE172E00994EF92FF92DE
:101D50000F931F93CF93DF938C01DC01D6968D9167
:101D60009C91DC01ED91FC910280F381E02D9801C2
:101D70004EE250E070E060E00995CEE2D0E07801FC
:101D8000BFE0EB0EF11CF80186A997A997012C0F73
:101D90003D1FDC01ED91FC910280F381E02D4FE1CC
:101DA00050E0BE0109956F96CE31B2E0DB0759F7DE
:101DB000DF91CF911F910F91FF90EF900895BF9207
:101DC000CF92DF92EF92FF920F931F93CF93DF9307
:101DD000EC01B62EC72E8D85811105C0CE010E9463
:101DE000EA0581110EC01B861D861C8680E0DF91EE
:101DF000CF911F910F91FF90EF90DF90CF90BF9008
:101E0000089540E060EFCE010E94970501E0E12CCB
:101E1000D12C11E0CE010E944405F82ECE010E9483
:101E2000440591E0F91218C0813099F51134D8F2C7
:101E3000DB86D11002C081E08D878B81882399F2E7
:101E40002396EB2DFC2DCF01089629912193E817BD
:101E5000F907D9F781E0CBCFEE2DF0E0F8120FC0F3
:101E60008B851817A0F4DE01AE0FBF1F13968C915F
:101E7000802379F4F12C193008F41C87D12EEC0F53
:101E8000FD1F8381902F9095892383830AC081133E
:101E9000F1CFFE01EE0DF11D8381802B8383FF24A2
:101EA000F3946F2DCE010E9468051F5F000F11F49F
:101EB000E39401E087E08E1508F0ACCFB7CFCF9266
:101EC000DF92EF92FF920F931F93CF93DF93CDB7E3
:101ED000DEB761970FB6F894DEBF0FBECDBFFC0131
:101EE0002781211113C060E070E08EEF92EC6196C3
:101EF0000FB6F894DEBF0FBECDBFDF91CF911F911B
:101F00000F91FF90EF90DF90CF9008958C01FC012E
:101F1000818592850E943705BE01665F7F4FF8017B
:101F2000818592850E94DF0E8823E9F267E0CE0169
:101F30000A960E94200599898913D5CFAE014F5F7B
:101F40005F4FBE01665F7F4FC8010E94B5068823C0
:101F500051F28A81C12CD12C760187FF06C0C12C99
:101F6000D12CF8EFEF2EFF24FA949A8549819B3308
:101F7000E9F52D8127FF3AC040FDB5CF042F10E0D1
:101F800030E020E073E0000F111F221F331F7A950D
:101F9000D1F7B901A801407E57706627772790E0F6
:101FA000B0E0A0E08C019D01EBE0000F111F221FAB
:101FB000331FEA95D1F7042B152B262B372B0C2931
:101FC0001D292E293F29013854EE15075FEF2507FB
:101FD00035070CF488CFC901B8010E94C72820E05A
:101FE00030E040E05CE30E94262981CF082F10E01A
:101FF000102F0027110F110F110FF8E04F9FA001B4
:102000001124042B152B012E000C220B330B0C2951
:102010001D292E293F299031B1F66885662399F252
:1020200070E08F81AB01481B5109CA019695982F2A
:102030008827979587950E94C02ACB01770FAA0B16
:10204000BB0B53E0000F111F221F331F5A95D1F70E
:102050000078277033270052110921093109800FB8
:10206000911FA21FB31F97018601082B192B2A2B42
:102070003B2BA9CFBF92CF92DF92EF92FF920F93AB
:102080001F93CF93DF93CDB7DEB761970FB6F89468
:10209000DEBF0FBECDBF7C01DC010D911C9183E042
:1020A000D82ECC24C394F801818592850E943705EF
:1020B000D80117961C92179718961C9262E370E04D
:1020C00080E090E00E941104BE01665F7F4FF8013E
:1020D000818592850E94DF0E882309F477C067E02E
:1020E000CE010A960E94200599898913EDCFD80167
:1020F00017968C9117978F5F17968C938A858832E5
:1021000031F008F04AC0803111F08232E9F6F8016E
:1021100080858F5F80878081811124C08185928531
:102120000E94EA05BE01665F7F4FD80119968D9126
:102130009C910E94CB0540E064EBF801818592857B
:102140000E949705D80119968D919C910E94440593
:10215000B82EF801818592850E94EA05B11002C06F
:10216000D801CC928A85803119F1AE014F5F5F4F63
:10217000BE01665F7F4FC8010E94B506882359F0F3
:102180008D819A859B3311F487FD12C08F3391F0B6
:1021900058F48F31B9F080E00EC08B3309F4B7CF1B
:1021A000823409F091CFB3CF8F3571F08F3799F723
:1021B0008CE001C08AE0F8019381981708F084CF81
:1021C000838382CF89E0F7CF8BE0F5CFD8011796D4
:1021D0008C91811103C0DA94D11065CFF701008191
:1021E00011818BE0D80113968C93139719968D91DA
:1021F0009C910E943705C12CF8018781C81608F010
:10220000B0C0BE01665F7F4F818592850E94DF0E60
:10221000882309F485C067E0CE010A960E94200554
:10222000998989137DC08A85803109F479C0D801E4
:102230001396DC90AE014F5F5F4FBE01665F7F4F2C
:10224000C8010E94B506882309F46AC0ED2DED305F
:1022500008F468C0ECE0EA508FE1E33020F4F0E0ED
:10226000E65FFE4F80819D81981709F459C08D83E8
:10227000F801818592850E94EA05BE01665F7F4F65
:10228000D80119968D919C910E94CB0540E06EE497
:10229000F801818592850E94970540E06B81D80105
:1022A00019968D919C910E94970540E06C81F801F0
:1022B000818592850E9497058A85803141F040E0B2
:1022C0006D81D80119968D919C910E949705F80116
:1022D000818592852681222309F10E94EA058823BF
:1022E000F9F0BE01665F7F4FD80119968D919C91E0
:1022F0000E94CB05F801408168E4818592850E94A7
:102300009705D8018C91811112C064E170E080E0E2
:1023100090E00E941104F801818592850E94EA05EF
:10232000C3946ACFE93008F096CFE9E094CFF80182
:102330008181882321F060E082810E941A0364E198
:1023400070E080E090E00E941104D80111968C9119
:102350001197882301F361E012968C910E941A0371
:10236000DACFD701ED91FC91119714828D919C9158
:102370000E94220661960FB6F894DEBF0FBECDBF55
:10238000DF91CF911F910F91FF90EF90DF90CF9051
:10239000BF9008954F925F926F927F92AF92BF92DB
:1023A000CF92DF92EF92FF920F931F93CF93DF9321
:1023B00000D000D01F92CDB7DEB77C018C010C5B42
:1023C0001F4FF801808191810E945F0F2B013C011A
:1023D00020E030E04CEF52EC0E94C02897012A5BCD
:1023E0003F4F5901F701ED5BFF4F6F0118160CF4D9
:1023F0005DC064E670E080E090E00E941104F801A6
:10240000808191810E945F0F2B013C0120E030E030
:102410004CEF52EC0E94C02818160CF447C064E63A
:1024200070E080E090E00E941104F80180819181C9
:102430000E945F0F2B013C0120E030E04CEF52EC9A
:102440000E94C028181694F1F501408051806280E6
:102450007380C8010E943A1081E0F6018083F70181
:1024600003811481F8012681378140855185C3019C
:10247000B2010E942629F8012285338544855585BD
:102480000E944F2A0F900F900F900F900F90DF91A6
:10249000CF911F910F91FF90EF90DF90CF90BF9061
:1024A000AF907F906F905F904F90089564E670E0DA
:1024B00080E090E00E941104F801808191810E94E7
:1024C000220629833A834B835C836D83F501408226
:1024D000518262827382F6011082C1CFCF93DF9363
:1024E000EC0160E08A810E944803CE018C5B9F4F23
:1024F000DF91CF910C943A10CF93FC01C08161E041
:102500008C2F0E94480360E08C2FCF910C941A030B
:10251000CF93DF93CEE7D2E01FA218A61EA21F8E94
:1025200018A219A21AA21BA21DA21CA28E819F8111
:102530000E947C128C819D810E943F0A8C819D812A
:10254000DF91CF910C945307CF93DF93EB01209150
:10255000A402211122C0A0917E02B0917F0221E04D
:102560002093A402ED91FC9111970680F781E02D54
:10257000BC01CD010995288180917E0290917F0256
:10258000DC01ED91FC910084F185E02D6FED72E0AE
:10259000211102C06DED72E0099580917E0290914B
:1025A0007F02DC01ED91FC910284F385E02D099519
:1025B0009C01205331092230310528F51092A402E4
:1025C000C09791F4188280917E0290917F02DC0185
:1025D000ED91FC910084F185E02D69ED72E00995A3
:1025E00081E0DF91CF91089581E0888380917E0220
:1025F00090917F02DC01ED91FC910084F185E02D4A
:102600006BED72E0ECCF8737910551F38837910578
:1026100019F40E948812E4CF8136910511F41092CA
:10262000A40280E0DECFCF92DF92EF92FF920F9371
:102630001F93CF93DF93C82FD62F80917E02909166
:102640007F02DC01ED91FC910680F781E02D65EDC4
:1026500072E009950E944404C090BC02D090BD0273
:10266000E090BE02F090BF026C197D098E099F09AF
:102670000E94C52808EA12E020E041E00E94B1244F
:1026800080917E0290917F02DC01ED91FC910280AD
:10269000F381E02DB801099580917E0290917F022F
:1026A000DC01ED91FC910680F781E02D62ED72E096
:1026B00009956091A2027091A302072E000C880B6D
:1026C000990B0E94C72820E041E00E94B12480912C
:1026D0007E0290917F02DC01ED91FC910280F381FA
:1026E000E02DB801099580917E0290917F02DC0176
:1026F000ED91FC910680F781E02D6FEC72E0099579
:10270000A0918602B0918702DD2309F4C6C1ED9144
:10271000FC9111970190F081E02DCD01099522E007
:1027200041E00E94B12480917E0290917F02DC0101
:10273000ED91FC910280F381E02D68EA72E0099549
:1027400080917E0290917F02DC01ED91FC910680E8
:10275000F781E02D6CEC72E00995E0918602F09132
:1027600087022681422F50E02111B3C1DF01DF969D
:102770006D917D918D919C919A01220F331F220FB3
:10278000331FE20FF31F27813085418552850E9458
:102790004E2A08EA12E022E042E00E94B124809131
:1027A0007E0290917F02DC01ED91FC910280F38129
:1027B000E02DB8010995E0918202F0918302ED5B72
:1027C000FF4F8081882309F493C180917E0290910C
:1027D0007F02DC01ED91FC910680F781E02D69EC30
:1027E00072E00995E0918202F0918302ED5BFF4F68
:1027F000608170E090E080E00E94C52820E041E028
:102800000E94B12480917E0290917F02DC01ED91C3
:10281000FC910280F381E02DB8010995E0918402DA
:10282000F0918502D08161E08D2F0E94480364EB16
:1028300070E08D2F0E94840380917E0290917F0230
:10284000DC01ED91FC910680F781E02D66EC72E0F1
:102850000995E0918002F09181022091A2023091CD
:10286000A3024FE1429FC001439F900D1124E80F46
:10287000F91FE05CFF4F608171818281938108EADA
:1028800012E022E041E00E94B12480917E0290910A
:102890007F02DC01ED91FC910280F381E02DB80113
:1028A000099580917E0290917F02DC01ED91FC916F
:1028B0000680F781E02D63EC72E0099560E070E03E
:1028C000CB010E94C72820E041E00E94B124809102
:1028D0007E0290917F02DC01ED91FC910280F381F8
:1028E000E02DB801099580917E0290917F02DC0174
:1028F000ED91FC910680F781E02D60EC72E0099586
:10290000E0918202F091830280859185DC01ED9156
:10291000FC910680F781E02D0995A0917E02B0918F
:102920007F02ED91FC9111970680F781E02D6EEB0F
:1029300072E0811102C06CEB72E0CD0109958091CB
:102940007E0290917F02DC01ED91FC910680F7817F
:10295000E02D69EB72E00995E0918202F09183022B
:102960000280F381E02D80810E94CC03BC01990F8D
:10297000880B990B0E94C7282FEC32ED47EA5CE3E5
:102980000E94262920E030E040E85EE30E944F2AC2
:1029900008EA12E022E041E00E94B12480917E0228
:1029A00090917F02DC01ED91FC910280F381E02D9A
:1029B000B8010995E0918202F091830282A98823EF
:1029C000B9F180917E0290917F02DC01ED91FC9142
:1029D0000680F781E02D66EB72E00995E0918202B6
:1029E000F09183026685778580899189C288D38832
:1029F000E488F5886C197D098E099F0928EE33E07B
:102A000040E050E00E94D42ACA01B9010E94C528C2
:102A100020E041E00E94B12480917E0290917F02EB
:102A2000DC01ED91FC910280F381E02DB801099564
:102A3000CC23F1F080917E0290917F02DC01ED9138
:102A4000FC910680F781E02D60EB72E009958091A2
:102A5000A702882369F080917E0290917F02DC01B9
:102A6000ED91FC910680F781E02D6DEA72E0099509
:102A700080917E0290917F02DC01ED91FC910084B7
:102A8000F185E02D6BEA72E0DF91CF911F910F91FC
:102A9000FF90EF90DF90CF90099416968C91169747
:102AA000811108C0DF966D917D918D919C9108EA0E
:102AB00012E035CE8150990B880F991F880F991F0E
:102AC000A80FB91F17966D917D918D919C911A97C2
:102AD000EECFDA011197AA0FBB1FAA0FBB1FAE0FD3
:102AE000BF1F17966D917D918D919C911A9744CE41
:102AF00080918402909185020E947C129DCEEF927B
:102B0000FF920F931F93CF93DF93EC017B01809192
:102B1000A402811128C0DB016D917D918D919C9162
:102B20000E94C72808EA12E020E041E00E94B12498
:102B300081E08093A40280917E0290917F02DC016B
:102B4000ED91FC910680F781E02DBE010995809101
:102B50007E0290917F02DC01ED91FC910480F58171
:102B6000E02DB801099580917E0290917F020E942C
:102B7000B507EC01009779F069E671E00E942F2B10
:102B8000892BD1F06BE671E0CE010E942F2B892BAF
:102B900051F41092A40280E0DF91CF911F910F9128
:102BA000FF90EF9008956DE671E0CE010E942F2B0B
:102BB000892B21F40E94881281E0EECFCE010E9481
:102BC000D324F701608371838283938380917E0293
:102BD00090917F02DC01ED91FC910480F581E02D64
:102BE000BE010995E9CFEF92FF920F931F93CF9308
:102BF000DF93EC017B018091A402811126C0DB01EF
:102C00006D917D918D919C9108EA12E022E041E066
:102C10000E94B12481E08093A40280917E02909171
:102C20007F02DC01ED91FC910680F781E02DBE0171
:102C3000099580917E0290917F02DC01ED91FC91DB
:102C40000480F581E02DB801099580917E02909174
:102C50007F020E94B507EC01009779F069E671E008
:102C60000E942F2B892BD1F06BE671E0CE010E94E0
:102C70002F2B892B51F41092A40280E0DF91CF9189
:102C80001F910F91FF90EF9008956DE671E0CE01D6
:102C90000E942F2B892B21F40E94881281E0EECF15
:102CA000CE010E94CF24F7016083718382839383D6
:102CB00080917E0290917F02DC01ED91FC91048075
:102CC000F581E02DBE010995E9CFFB0101900020BF
:102CD000E9F73197AF01461B570BDC01ED91FC91F1
:102CE0000280F381E02D0994CF93DF93EC016C9681
:102CF000CE010E94C5046FE671E0CE01DF91CF9155
:102D00000C946516CF93DF93EC016C9661157105F9
:102D100019F0CE010E9465166FE671E0CE01DF91D9
:102D2000CF910C9465166115710519F04C960C94B1
:102D3000651608950F931F93CF93DF93EC01288DB1
:102D4000398D4A8D5B8D1FAA1EAA1DAA1CAA1BAA1B
:102D50001AAA60E079E08DE390E00E94F62AF9017A
:102D6000C90103972430310510F481E090E099AF58
:102D700088AF68A5663108F054C0C901969587955B
:102D80008431910508F4BDC043979BAB8AABC90160
:102D90000597369710F481E090E09DAB8CABC901AC
:102DA000880F991F280F391F369527953695279537
:102DB0002D30310508F4A8C02C5031093FAB2EABA3
:102DC0009091680084E0683048F021E06E3008F4AB
:102DD00020E081E001C0880F2A95EAF7892B8093D3
:102DE000680098A52DE630E0983050F02BE630E0F2
:102DF0009E3030F02CE630E0963110F030E020E0EC
:102E000038AB2FA7292F30E0983008F080C081E040
:102E100001C0880F9A95EAF789AB88AD99AD019703
:102E2000F1F78EA99FA9892B21F19E01245E3F4FC6
:102E3000E091D601F091D7012E173F07D1F03097DE
:102E400039F0A389B4899C918589809589238C93D5
:102E50008AAD8E7F8AAF1092D4011092D501309343
:102E6000D7012093D601EFA5F8A9808199A9892BD4
:102E7000808368EE73E080E090E00E941104EBAD87
:102E8000FCAD86A5882309F44FC08E010E5F1F4F4D
:102E900080A58F9387A18F9382E791E09F938F9373
:102EA0001F930F930E94382BE881F9810280F381F0
:102EB000E02DB801CE0109956CED75E080E090E061
:102EC0000E941104E881F9810280F381E02D6DE711
:102ED00071E0CE0109956CED75E080E090E00E9414
:102EE00011048BAD9CADFC0116A60F900F900F90B6
:102EF0000F900F900F90DF91CF911F910F910C9435
:102F0000950E81E090E041CF21E030E057CF9E3038
:102F100040F42850310981E001C0880F2A95EAF772
:102F20007BCF2E503109F7CFDF91CF911F910F91B9
:102F30000895CF93DF93EC018EE2DE011D928A9516
:102F4000E9F7FE01FD96CE01835D9D4F2FE1DF0184
:102F5000322F1D923A95E9F77F96E817F907B9F7EE
:102F6000FE01BE9688E0DF011D928A95E9F7CE0149
:102F70000E94A60ECE01DF91CF910C94950ECF93B7
:102F8000DF93CEE7D2E08A819B810E9499178881E6
:102F90009981DC01ED91FC910084F185E02D67EDD4
:102FA00072E0DF91CF910994DF92EF92FF920F933D
:102FB0001F93CF93DF93EB0189017A01E20EF31E99
:102FC0000E151F05A1F0C11584E0D80780F4F9990A
:102FD000FECFF801D1908F01CE010E94E729D816CB
:102FE00021F06D2DCE010E94EF292196E9CFDF91CE
:102FF000CF911F910F91FF90EF90DF900895EF9286
:10300000FF920F931F93CF93DF938A01020F131F39
:10301000E9017B01E21AF30AC017D10769F0C70181
:103020008C0F9D1F811524E0920730F4F999FECF93
:103030000E94E7298993F0CFDF91CF911F910F91E3
:10304000FF90EF9008951F920F920FB60F921124E8
:103050002F933F934F935F936F937F938F939F93A0
:10306000AF93BF93EF93FF9381EE91E00E943902FB
:10307000FF91EF91BF91AF919F918F917F916F9150
:103080005F914F913F912F910F900FBE0F901F9026
:1030900018951F920F920FB60F9211242F938F93B2
:1030A0009F93EF93FF93E091F101F091F201808102
:1030B000E091F701F091F80182FD1BC090818091B1
:1030C000FA018F5F8F732091FB01821741F0E0912D
:1030D000FA01F0E0EF51FE4F958F8093FA01FF91D6
:1030E000EF919F918F912F910F900FBE0F901F9096
:1030F00018958081F4CF1F920F920FB60F92112472
:103100002F933F938F939F93AF93BF938091D90158
:103110009091DA01A091DB01B091DC013091D801EE
:1031200023E0230F2D3758F50196A11DB11D2093E3
:10313000D8018093D9019093DA01A093DB01B09379
:10314000DC018091DD019091DE01A091DF01B09161
:10315000E0010196A11DB11D8093DD019093DE0178
:10316000A093DF01B093E001BF91AF919F918F9148
:103170003F912F910F900FBE0F901F90189526E84A
:10318000230F0296A11DB11DD2CF1F920F920FB631
:103190000F9211242F933F934F935F936F937F93DD
:1031A0008F939F93AF93BF93EF93FF93E091D601DB
:1031B000F091D701309749F0A685B7858585968D22
:1031C00091FF14C09C918923A1F4FF91EF91BF91CD
:1031D000AF919F918F917F916F915F914F913F91AF
:1031E0002F910F900FBE0F901F9018959C918923DF
:1031F00061F7A389B4899C918589809589238C93F3
:10320000868997890197F1F7608D718DA685B785BD
:10321000558538E020E0CB010197F1F7822F90E04F
:1032200095958795282F4C91452309F020683150BA
:1032300091F7868D81FD20958091D40190E00196D3
:103240008F7399273091D501381799F0A091D40147
:10325000B0E0AC56BE4F2C938093D401828D938DF9
:103260000197F1F7A389B4898C919589892B8C9367
:10327000ACCF868D8160868FF1CFCF92DF92EF92B7
:10328000FF920F931F93CF93DF931092E40110925C
:10329000E30128EEC22E23E0D22EE12CF12CC092C5
:1032A000E501D092E601E092E701F092E80187E1C2
:1032B00091E09093E2018093E10185EC90E090939E
:1032C000EE018093ED0184EC90E09093F001809307
:1032D000EF0180EC90E09093F2018093F10181EC9A
:1032E00090E09093F4018093F30182EC90E090934E
:1032F000F6018093F50186EC90E09093F8018093BD
:10330000F7011092FA011092FB011092FC01109249
:10331000FD01C6EFD3E080E091E090932D0480930F
:103320002C0488E19CE9A4E0B0E080932E04909303
:103330002F04A0933004B093310411E010933204B1
:1033400060E08CE00E944803E5E1F3E0E491E09363
:10335000E803E1E0F3E0E491F0E0EE0FFF1FE55158
:10336000FD4F859194919093EA038093E90388EE51
:1033700093E00E9437051092D8031092D90310925F
:10338000D10389E08093D4031093D5031093D6031F
:103390001093D7031092D2031092E7031092E60322
:1033A0008FEF8093E4031092E50388EE93E090930F
:1033B000DB038093DA038CE080938903D0938B0343
:1033C000C0938A0310928D031092CA0383E691E0A2
:1033D000909388038093870381ED93E09093CC03CF
:1033E0008093CB0310938C031092790310927A038D
:1033F00088E08093780387E591E09093770380934A
:103400007603D0937C03C0937B0380E091EEA0E031
:10341000B0E08093510390935203A0935303B09371
:10342000540387E491E090933A0380933903109218
:10343000580310925703C0925903D0925A03E09256
:103440005B03F0925C0385E391E0909356038093D5
:10345000550310926C0310926B0310926E0310923E
:103460006D031092700310926F031092720310920A
:103470007103609173036E7F6D7F60937303669534
:10348000617061278BE00E941A0361E08BE00E946B
:103490004803E4E1F3E0E491E0936503E0E0F3E066
:1034A000E491F0E0EE0FFF1FEF51FD4F85919491F5
:1034B000909367038093660360E08AE00E9448036C
:1034C0008091730381FD04C061E08AE00E941A03C9
:1034D0008AE080936103E3E1F3E0E491E093620327
:1034E000EFEFF2E0E491F0E0EE0FFF1FE551FD4F4A
:1034F000859194919093640380936303C6EFD3E026
:10350000D0937503C09374038FE080933603D093F8
:103510003803C093370389E080933503D0930A03BF
:10352000C093090310920C0310920B0310920D0329
:1035300010920E0389E291E09093080380930703B1
:103540001092130310921403109215031092160395
:103550008FE093E00E943008109226031092270318
:10356000109228031092290382E293E00E9430080F
:10357000D093C302C093C20286E393E09093C50246
:103580008093C40287E093E09093C7028093C602C1
:1035900097E8E92E93E0F92EF092C902E092C80272
:1035A00006E713E01093CB020093CA021092D002F8
:1035B0001092D1021092D2021092D3028CEC92E0BF
:1035C0000E94300880EA9FE0A0E0B0E08093E30230
:1035D0009093E402A093E502B093E6028FED92E0AF
:1035E0000E9430081092F3021092F4021092F60238
:1035F0001092F8021092F7021092F9021092FA0259
:103600001092FB021092FC021092FD021092FE0238
:103610001092FF0210920003109201031092020315
:10362000109203031092040389E393E090937F02C6
:1036300080937E02D0938102C093800282EC92E05C
:10364000909383028093820285E393E090938502B6
:1036500080938402F0928702E0928602109389029E
:103660000093880280E395E7A0E0B0E080938E02AB
:1036700090938F02A0939002B09391028AE892E017
:103680000E94300810929D0210929E0210929F029A
:103690001092A0021092A1021092A3021092A20214
:1036A0001092A4021092A50282E08093C00283E0EF
:1036B0008093C102DF91CF911F910F91FF90EF9006
:1036C000DF90CF900895CF93DF9300D000D0CDB797
:1036D000DEB7789484B5826084BD84B5816084BD92
:1036E00085B5826085BD85B5816085BD80916E00A0
:1036F000816080936E0010928100809181008260D1
:10370000809381008091810081608093810080910D
:1037100080008160809380008091B10084608093FC
:10372000B1008091B00081608093B00080917A00F8
:10373000846080937A0080917A00826080937A001E
:1037400080917A00816080937A0080917A0080680D
:1037500080937A001092C10061E083E00E944803E8
:1037600061E083E00E941A0380912C0490912D0463
:10377000DC01ED91FC910190F081E02D26EF33E02A
:103780004EE250E070E060E009950EE210E08091BA
:103790002C0490912D0498012B5F3B4FDC01ED919F
:1037A000FC910190F081E02D4FE150E0B8010995C6
:1037B000015E1F4F0E31B2E01B0749F740912E0406
:1037C00050912F0460913004709131048091F60380
:1037D0009091F703A091F803B091F90348175907A6
:1037E0006A077B0709F46FC186EF93E00E9499177F
:1037F00080912E0490912F04A0913004B091310457
:103800008093F6039093F703A093F803B093F90322
:1038100081E0809324048DE494E090931E048093CF
:103820001D0480E090E0A0EEB0E480931904909332
:103830001A04A0931B04B0931C0483E080930C042F
:1038400088E18093100410920F0410920E048FE709
:1038500090ECAEEBB0E08093110490931204A0932F
:103860001304B09314048EE790ECAEEBB0E08093B9
:10387000150490931604A0931704B093180487E0DE
:1038800080930D048EEA97E4A1E8BFE38093FC03E4
:103890009093FD03A093FE03B093FF038AE080930F
:1038A000220410922304EEE3F4E08EE296E00DECA5
:1038B0001CEC2CEC3DEB4DEC5CEC6CEC7DE3008304
:1038C00011832283338344835583668377837F9672
:1038D0008E179F07A1F786EF93E00E94A60E86EF52
:1038E00093E00E94950E81E08093320489E393E097
:1038F0000E949A1661E0809178030E944803E0914B
:103900007B03F0917C0386898330C8F090E09C01B2
:10391000235031090497079710F021E030E021503F
:1039200031098AE0829FB001839F700D1124655296
:103930007E4F4AE050E08DE793E00E94FA2487E84A
:1039400093E00E946E1260E0809136030E9448036B
:1039500061E0809135030E94480387E093E00E9474
:10396000D40B82EC92E00E943F0A82EC92E00E942B
:10397000530762E08091C0020E9448030E948812AF
:10398000772473944FE1F42E50E0C52E50E0D52EED
:10399000EE24E3946BE0262E3AE0332E84E0482EAA
:1039A00095E0592E22E0622E8091A502811166C019
:1039B000E092A502E0918002F091810287A5882320
:1039C00009F45CC017A61092A502E092A602B3E02B
:1039D000B0939D02E092A0028091A2029091A30276
:1039E000F89ED001F99EB00D1124AE0FBF1FDD96D9
:1039F0008C918093A702A0A8B1A8B092A302A09234
:103A0000A2020091820210918302C8010E943F0A23
:103A1000F801B6AAA5AA84819581DC011596BC920D
:103A2000AE921497ED91FC910280F381E02D0995FF
:103A30009801215C3F4FF80187A990ADA1ADB2ADCF
:103A4000F90180839183A283B383E0918202F09194
:103A50008302A0918002B0918102D2968D919D91B6
:103A60000D90BC91A02D1286138614861586868B28
:103A7000978BA08FB18F128E148E738E8091C0029F
:103A80000E94F102892B21F40E94BF1710929D021F
:103A90008091C102E0918202F091830294A960E0DA
:103AA000911101C061E00E941A0380919D02823051
:103AB00009F4F5C2E0F4882311F1813009F4FFC064
:103AC00010929D029FC01092320480912C0490911C
:103AD0002D04DC01ED91FC910190F081E02D24E2B8
:103AE00034E048E050E06EE172E00995FFCE8330AB
:103AF00009F473C5853021F70E94BF17E1CF80918B
:103B0000A40281115CC08091860290918702DC0141
:103B1000ED91FC910480F581E02D0995A0917E0244
:103B2000B0917F02ED91FC9111970680F781E02D15
:103B300068EA72E0813011F065EA72E0CD01099522
:103B400008EA12E020E041E060E070E080E891E403
:103B50000E94B12480917E0290917F02DC01ED9160
:103B6000FC910280F381E02DB801099580917E02DD
:103B700090917F02DC01ED91FC910680F781E02DB0
:103B800063EA72E00995E0918002F0918102608120
:103B90007181828193810E94C52820E041E00E94CA
:103BA000B12480917E0290917F02DC01ED91FC9125
:103BB0000480F581E02DB8010995E092A40280917E
:103BC0007E0290917F02DC01ED91FC910284F385ED
:103BD000E02D09958C0160E0809182029091830232
:103BE0000E943D080136110509F499C224F50233FB
:103BF0001105F1F19CF40033110509F490C2013371
:103C0000110589F1C114D10409F4CECE0E94250218
:103C1000882309F4C3CE0E940000BECE03331105F1
:103C200061F10433110571F7809182029091830252
:103C30000E942607E7CF0836110551F14CF40336F0
:103C4000110591F104361105E9F650929D02DACF83
:103C500000371105C1F004371105A1F61092A40236
:103C600040929D02CFCF1092A402E0929D02CACF53
:103C70001092A40260929D02C5CF1092A402B3E0FC
:103C8000B0939D02BFCF61E080E00E941313BACFD2
:103C90008091880290918902DC01ED91FC91019064
:103CA000F081E02D0995AECF809188029091890234
:103CB000DC01ED91FC910280F381E02DF3CFE091E6
:103CC0009E02EA3108F0D7C1F0E0E759F14E0C94BA
:103CD000152B831E861E891EB11EB41EB71EBB1E69
:103CE000BD1EBF1EC31EC61EC91E3B203B20CD1ECF
:103CF000EA1E071F261F431F661F891FAC1FCB1F0D
:103D0000EA1F01201E20E0929E027CCF60929E025C
:103D100079CFE0918002F091810286819781A08520
:103D2000B18589839A83AB83BC83BE016F5F7F4F6C
:103D300082E692E00E94F315882309F463CFE091B4
:103D40008002F091810289819A81AB81BC81868356
:103D50009783A087B1871092A40280919E028F5F03
:103D600007C040929E024ECF50929E024BCF86E0FB
:103D700080939E0247CF87E0FBCF88E0F9CFB9E080
:103D8000B0939E023FCF30929E023CCF20929E0283
:103D900039CFEEE0E0939E0235CFE0918002F091C2
:103DA0008102868990E0B0E0A0E089839A83AB83AA
:103DB000BC83BE016F5F7F4F8EE992E00E947F154A
:103DC000882309F41FCFE0918002F091810289815C
:103DD000868BC1CFE0918002F0918102878990E0CB
:103DE000B0E0A0E089839A83AB83BC83BE016F5FA0
:103DF0007F4F89E992E00E947F15882309F402CF62
:103E0000E0918002F09181028981878BA4CFE091BB
:103E10008002F0918102808D918DB0E0A0E08983D5
:103E20009A83AB83BC83BE016F5F7F4F84E992E0CE
:103E30000E947F15882309F4E5CEE0918002F0917D
:103E4000810289819A81918F808F85CFE091800254
:103E5000F0918102828D90E0B0E0A0E089839A83A6
:103E6000AB83BC83BE016F5F7F4F8FE892E00E94FF
:103E70007F15882309F4C6CEE0918002F09181027B
:103E80008981828F68CFE0918002F0918102838DD9
:103E9000948DA58DB68D89839A83AB83BC83BE0137
:103EA0006F5F7F4F8AE892E00E947F15882309F4B4
:103EB000A9CEE0918002F091810289819A81AB8143
:103EC000BC81838F948FA58FB68F45CFE091800200
:103ED000F0918102878D90A1A1A1B2A189839A83DB
:103EE000AB83BC83BE016F5F7F4F85E892E00E9489
:103EF0007F15882309F486CEE0918002F09181023B
:103F000089819A81AB81BC81878F90A3A1A3B2A341
:103F100022CFE0918002F091810283A194A1A5A11A
:103F2000B6A189839A83AB83BC83BE016F5F7F4F49
:103F300080E892E00E94F315882309F463CEE091B3
:103F40008002F091810289819A81AB81BC8183A337
:103F500094A3A5A3B6A3FFCEE0918002F0918102C5
:103F600087A190A5B0E0A0E089839A83AB83BC834E
:103F7000BE016F5F7F4F8BE792E00E947F15882321
:103F800009F440CEE0918002F091810289819A810A
:103F900090A787A3E0CEE0918002F091810281A5F5
:103FA00092A5B0E0A0E089839A83AB83BC83BE0175
:103FB0006F5F7F4F86E792E00E947F15882309F4A8
:103FC00021CEE0918002F091810289819A8192A7AD
:103FD00081A7C1CEE0918002F091810283A58983FF
:103FE000BE016F5F7F4F81E792E00E94A412882399
:103FF00009F408CEE0918002F0918102898183A7C3
:10400000AACEE0918002F091810285A590E0B0E017
:10401000A0E089839A83AB83BC83BE016F5F7F4F2F
:104020008CE692E00E947F15882309F4EBCDE091A5
:104030008002F0918102898185A78DCEE091800276
:10404000F091810284A590E0B0E0A0E089839A839A
:10405000AB83BC83BE016F5F7F4F87E692E00E9417
:104060007F15882309F4CECDE0918002F091810282
:10407000898184A770CE80918002909181020E94F4
:10408000A60E10929D0210929E0280918002909145
:104090008102DC019E967C920E94950EB3CDE09148
:1040A0009F02EE3008F08EC2F0E0E75AFF4D0C940C
:1040B000152B67209220C620F32020215D219A2114
:1040C000CF21042239223C223F227822AD22809146
:1040D000A2029091A302092E000CAA0BBB0B8983AC
:1040E0009A83AB83BC83BE016F5F7F4F8DE592E007
:1040F0000E947F15882309F485CD89819A81AB813F
:10410000BC8180319105A105B1054CF49093A302C7
:104110008093A20280919F028F5F80939F021092F2
:10412000A40270CDE0918002F09181022091A20260
:104130003091A302F29EC001F39E900D1124E80F6E
:10414000F91F87AD8983BE016F5F7F4F88E592E0DD
:104150000E94A412882309F455CDE0918002F091C9
:1041600081022091A2023091A302F29EC001F39E2F
:10417000900D1124E80FF91F898187AF1092A402D6
:1041800080919F028F5F80939F023CCDE0918002DF
:10419000F09181022091A2023091A302F29EC0010F
:1041A000F39E900D1124E80FF91F86AD8983BE019F
:1041B0006F5F7F4F83E592E00E94A412882309F489
:1041C00021CDE0918002F09181022091A2023091F4
:1041D000A302F29EC001F39E900D1124E80FF91F77
:1041E000898186AFCBCFE0918002F091810220914E
:1041F000A2023091A302F29EC001F39E900D112401
:10420000E80FF91F85AD8983BE016F5F7F4F8EE494
:1042100092E00E94A412882309F4F4CCE091800279
:10422000F09181022091A2023091A302F29EC0017E
:10423000F39E900D1124E80FF91F898185AF9ECF61
:10424000E0918002F09181022091A2023091A302BC
:10425000F29EC001F39E900D1124E80FF91FE05C5F
:10426000FF4F80819181A281B38189839A83AB833F
:10427000BC83BE016F5F7F4F86E292E00E94F31520
:10428000882309F4BFCCE0918002F0918102209153
:10429000A2023091A302F29EC001F39E900D112460
:1042A000E80FF91FE05CFF4F89819A81AB81BC81E7
:1042B00080839183A283B38361CFE0918002F091E8
:1042C00081022091A2023091A302F29EC001F39ECE
:1042D000900D1124E80FF91FEC5BFF4F8081918155
:1042E000A281B38189839A83AB83BC83BE016F5F54
:1042F0007F4F89E492E00E947F15882309F482CCE5
:10430000E0918002F09181022091A2023091A302FB
:10431000F29EC001F39E900D1124E80FF91FEC5B93
:10432000FF4F89819A81AB81BC8180839183A28375
:10433000B38324CFE0918002F09181022091A20208
:104340003091A302F29EC001F39E900D1124E80F5C
:10435000F91FE85BFF4F80819181A281B38189833E
:104360009A83AB83BC83BE016F5F7F4F84E492E08E
:104370000E94F315882309F445CCE0918002F09166
:1043800081022091A2023091A302F29EC001F39E0D
:10439000900D1124E80FF91FE85BFF4F85CFE091E6
:1043A0008002F09181022091A2023091A302F29E3C
:1043B000C001F39E900D1124E80FF91FE45BFF4F3D
:1043C00080819181A281B38189839A83AB83BC83ED
:1043D000BE016F5F7F4F8FE392E00E94F315882349
:1043E00009F410CCE0918002F09181022091A202A8
:1043F0003091A302F29EC001F39E900D1124E80FAC
:10440000F91FE45BFF4F50CFE0918002F0918102F1
:104410002091A2023091A302F29EC001F39E900D62
:104420001124E80FF91FE05BFF4F80819181A28189
:10443000B38189839A83AB83BC83BE016F5F7F4F57
:104440008AE392E00E94F315882309F4DBCBE09124
:104450008002F09181022091A2023091A302F29E8B
:10446000C001F39E900D1124E80FF91FE05BFF4F90
:104470001BCF30929F02C6CB20929F02C3CBE0910C
:104480008002F09181022091A2023091A302F29E5B
:10449000C001F39E900D1124E80FF91FEC5AFF4F55
:1044A00080819181B0E0A0E089839A83AB83BC8353
:1044B000BE016F5F7F4F85E392E00E947F158823E6
:1044C00009F4A0CBE0918002F09181022091A20238
:1044D0003091A302F29EC001F39E900D1124E80FCB
:1044E000F91FEC5AFF4F89819A819183808346CED0
:1044F000E0918002F09181022091A2023091A3020A
:10450000F29EC001F39E900D1124E80FF91FEA5AA4
:10451000FF4F80819181B0E0A0E089839A83AB83D3
:10452000BC83BE016F5F7F4F80E392E00E947F15E6
:10453000882309F467CBE0918002F09181022091F9
:10454000A2023091A302F29EC001F39E900D1124AD
:10455000E80FF91FEA5AFF4FC6CFE0918002F091B1
:1045600081022091A2023091A302F29EC001F39E2B
:10457000900D1124E80FF91FE85AFF4F80819181B7
:10458000A281B38189839A83AB83BC83BE016F5FB1
:104590007F4F8BE292E00E94F315882309F432CB1F
:1045A000E0918002F09181022091A2023091A30259
:1045B000F29EC001F39E900D1124E80FF91FE85AF6
:1045C000FF4F72CE80918002909181020E94A60ED0
:1045D00010929D0210929F0215CB8091A002882319
:1045E000A1F0813009F44DC0809180029091810248
:1045F000DC019B962C919B97222321F09F961C9285
:104600000E94950E0E948812FDCA8091A20290918C
:10461000A302092E000CAA0BBB0B89839A83AB83E0
:10462000BC83BE016F5F7F4F81E292E00E947F15E5
:10463000882309F4E7CA89819A81AB81BC818031E2
:104640009105A105B1050CF06ACDE0918002F091D1
:1046500081029093A3028093A202F89E9001F99E9A
:10466000300D1124E20FF31F85AD8093A702109245
:10467000A5021092A6028091A0028F5F8093A002F3
:104680004ECD80917E0290917F02DC01ED91FC91F4
:104690000284F385E02D09958C018237910509F09C
:1046A000FCC0E0918002F091810217A6B4E1B093C2
:1046B000A0028091A2029091A302803191050CF09A
:1046C00028C1E0918002F0918102F89E9001F99E4C
:1046D000300D1124E20FF31F27AD222309F413C17B
:1046E0000136110509F0E1C060E08091A4020E944A
:1046F0001313E0918002F091810283A58823D1F108
:104700008AE892E00E941E088AE892E00E94F00780
:10471000882381F18AE892E00E943008E0918002CB
:10472000F091810277A6A0918202B0918302D29685
:104730008C91D297A090A202B090A302882309F492
:10474000BFC01E964D915D916D917C91519752968F
:104750008D919D910D90BC91A02D481B590B6A0B1A
:104760007B0B42AB53AB64AB75ABB1AAA0AACF0134
:104770000E94950E8091A602811148C0A0908202ED
:10478000B0908302E092A6028090A2029090A302D1
:10479000C5010E943F0AF50196AA85AA84819581E8
:1047A000DC0115969C928E921497ED91FC910280FB
:1047B000F381E02D09959501215C3F4FF50187A913
:1047C00090ADA1ADB2ADF90180839183A283B38393
:1047D000E0918002F09181022091A2023091A30227
:1047E000F29EC001F39E900D1124E80FF91F85ADD4
:1047F0008093A7021092A4020E9444046093BC021A
:104800007093BD028093BE029093BF0261E08091DD
:104810008202909183020E943D08882309F4F2C924
:10482000E0918002F09181022091A2023091A302D6
:10483000F29EC001F39E900D1124E80FF91F86AD82
:104840008823F9F0E092A4028091A702882371F0F6
:10485000E0918402F0918502B08061E08B2D0E948E
:10486000480364EB70E08B2D0E9484030737110529
:10487000E9F580918402909185020E947C12109249
:10488000A4028091A2029091A30201969093A302A8
:104890008093A2021092A602B5C98091C0020E9424
:1048A000F102892B09F4FDCE04CF0433110509F080
:1048B00020CF80918202909183020E94260719CF17
:1048C000FA9CD001FB9CB00D1124AE0FBF1FAC5B56
:1048D000BF4F2D913D914D915C91A0E6BAEE0E94A3
:1048E000FD2962AB73AB84AB95AB3FCF02361105AC
:1048F00009F088C980918402909185020E947C12FF
:104900001092A7027FC901969093A3028093A202FE
:1049100079C98091A0028F5F8093A00273C987E458
:1049200091E090933A038093390385E391E090936B
:104930005603809355038091D6019091D7018555F8
:10494000934071F4E0916803F09169039081809144
:104950006A038095892380831092D7011092D60133
:104960000895EF920F931F93CF93DF93E80134E004
:1049700047FD34E1042E000C550B57FF03C0519541
:1049800041955109E32E022F242FAE010E941825D4
:10499000CE01DF91CF911F910F91EF90089566277F
:1049A00077270C9477261F93FC0199278827BC0151
:1049B000E89411911032E9F3193010F01E30C8F369
:1049C0001B3251F01D3249F4689406C00E94032541
:1049D000610F711D811D911D119110531A30B0F39B
:1049E0003EF490958095709561957F4F8F4F9F4FC6
:1049F0001F910895FB01DC0102C005900D9241500A
:104A00005040D8F70895592F482F372F262F660F7B
:104A1000771F881F991F660F771F881F991F620FC6
:104A2000731F841F951F660F771F881F991F089596
:104A3000A9E0B0E0EEE1F5E20C940E2A6A01F22E54
:104A4000B02E102FFBE3AF2EA01608F41BE31F5F60
:104A5000012F27E0AE014F5F5F4F0E94C727BC01C7
:104A60008981982F9970913009F43FC09BE2E1FC55
:104A700004C09E2D9170E0FC3AC05E2D5071E82F6D
:104A8000E87083FF46C084E0911101C083E0EF2D00
:104A9000E81B8F1508F0E0E0D6018E2F20E25523A9
:104AA00051F1992329F0D6019C93C60101966C011E
:104AB00096012D5F3F4FE2FE24C08EE4D6018C9319
:104AC00091E411969C93119712968C93D9018E2F95
:104AD00090E281111BC0E20FF32FF11D10828EEFC7
:104AE0009FEF2996ECE00C942A2A9DE2C6CF90E233
:104AF000C4CF2D9381508111FCCFCE0ED11CE0E0AC
:104B0000D0CF8EE6D6018C9391E6DBCF9D9381507A
:104B1000E0CF482F447082FF3DC084E0911101C076
:104B200083E08F1510F4EF2DE81BD6018E2F20E2C5
:104B3000552309F1992329F0D6019C93C6010196CA
:104B40006C0196012D5F3F4FE2FE1BC089E4D60148
:104B50008C938EE411968C93119786E412968C9325
:104B6000D9018E2F90E2882309F4B5CF9D9381500F
:104B7000FACF2D9381508111FCCFCE0ED11CE0E0F5
:104B8000D9CF89E6D6018C938EE611968C93119736
:104B900086E6E4CF9B0177FF02C030E020E0A1E091
:104BA000B0E0911102C0B0E0A0E0F9013196AE0F83
:104BB000BF1F8B2C912CBB2009F461C05401EFEF77
:104BC000AE1ABE0AAA0DBB1DFA161B0619F014F088
:104BD0004F2D4A1B511188C0E3FC59C07601A42F08
:104BE000B0E2A1114FC0C40ED11C992309F45BC0DF
:104BF00040E0D6011196F60190836D01552309F42A
:104C000048C0012F060F9A81582F507184FF03C0AE
:104C1000913309F4015010160CF047C0093008F028
:104C200008E0EEE2FE2E5B01A01AB1088501919426
:104C3000819491082F3F320729F4D601FC92F601A6
:104C400031966F016217730794F1021713077CF511
:104C5000DB01A21BB30BAA24A394B12CAC0EBD1E86
:104C6000AA0DBB1D11968C9121503109D6011196C8
:104C700028153905F4F0F60180836D01DBCFB12CE6
:104C8000A12CA0CFF701B1937F01A150AACF911120
:104C9000B0CFD601942F50E302C05D939150911193
:104CA000FCCFC40ED11C40E0ACCF01E0BACF80E312
:104CB000DBCF6217730731F4963388F4953311F420
:104CC000552369F0F6018083FD01842F90E2811164
:104CD00008C0A40FB11D1C9290E080E002CF81E3D8
:104CE000F1CF91938150F3CF911183CF8ACFB0E070
:104CF000A0E0EDE7F6E20C940E2A5C017B01611561
:104D0000710519F0DB018D939C9385010F5F1F4F97
:104D1000F501D0818D2F90E00E949F286C01892B96
:104D2000B9F5DD32B9F50F5F1F4FD5011196DC9152
:104D3000C1E05801F1E0AF1AB10843E050E060E78C
:104D400070E0C5010E94A828892B69F5680182E0FE
:104D5000C80ED11C45E050E06BE670E0C6010E9431
:104D6000A828892B21F4680197E0C90ED11CE11411
:104D7000F10419F0D701CD92DC9260E070E080E898
:104D80009FEFC111FFC060E070E080E89FE7FAC0CC
:104D90005801BBCFDB3229F485010E5F1F4FF501AF
:104DA000D181C0E0C6CF43E050E068E670E0C501C5
:104DB0000E94A828892BE9F0F80110E000E020E02B
:104DC00030E0A9015F01B0ED8B2E8D0E89E08815D2
:104DD000C8F19C2E689491F88C2F8870C2FF16C081
:104DE000811102C00F5F1F4F3196D501DC91C92D93
:104DF000E9CFE114F10429F00E5F1F4FF701118391
:104E0000008360E070E080EC9FE7BCC0882311F075
:104E100001501109A5E0B0E00E94FD299B01AC0101
:104E2000220F331F441F551F280D311D411D511DD9
:104E3000283999E93907490799E15907A8F2C66065
:104E40009C2ED2CFAEEF8A1206C0C3FD3CC09C2E72
:104E5000689493F8C9CFDF7DD534A9F580818D3270
:104E600039F4C061DF011296818162E070E006C012
:104E7000DF018B32C1F3119661E070E080535D0178
:104E8000A61AB70A8A30F8F4E0E8CE16ECE0DE069F
:104E90005CF4B601660F771F660F771FC60ED71E2C
:104EA000CC0CDD1CC80ED11C5D01FFEFAF1ABF0A90
:104EB0008C9180538A30A8F1C4FF03C0D194C1946F
:104EC000D1080C0D1D1DC1FF09C0E114F10431F022
:104ED00081E0A81AB108D701AD92BC92CA01B9010C
:104EE0000E94C528C370C33009F490584B015C017F
:104EF00020E030E0A9010E94C028882309F440C0C6
:104F0000CFE9D0E017FF05C0119501951109C7E859
:104F1000D0E06E01B8E1CB1AD10880E2E82EF12C86
:104F20000FC0D501B1CFFE01259135914591549126
:104F30000E191F09C501B4010E9426294B015C010D
:104F4000D501C4010E151F0574F72497F594E79455
:104F5000CC16DD06A9F78A2F880F8B2F881F8F3F6D
:104F600049F020E030E0A901C501B4010E94C02849
:104F7000811106C082E290E090932406809323067C
:104F8000C501B401CDB7DEB7ECE00C942A2A283075
:104F900008F027E03327DA01990F311D87FD916072
:104FA00000966105710539F432602E5F3D9330E360
:104FB0002A95E1F708959F3F30F08038710561052B
:104FC00009F03C5F3C5F3D93913008F08068911D93
:104FD000DF93CF931F930F93FF92EF92192F987F38
:104FE0009695E92F96959695E90FFF27E350FF4F89
:104FF00099273327EE24FF24A701E70105900894A1
:10500000079428F4360FE71EF81E491F511D660F3E
:10501000771F881F991F0694A1F70590079428F41D
:10502000E70EF81E491F561FC11D770F881F991FD5
:10503000661F0694A1F70590079428F4F80E491FFF
:10504000561FC71FD11D880F991F661F771F069413
:10505000A1F70590079420F4490F561FC71FD81FCA
:10506000990F661F771F881F0694A9F784911095E2
:10507000177041F0D695C79557954795F794E794E3
:105080001A95C1F7E3EAF0E068941590159135910F
:105090006591959105907FE27395E118F10A430BB4
:1050A000560BC90BD009C0F7E10CF11E431F561F68
:1050B000C91FD01D7EF4703311F48A95E6CFE894B1
:1050C000015030F0080F0AF40027021708F4202FCF
:1050D0002395022F7A3328F079E37D932A95E9F717
:1050E00010C07D932A9589F6069497956795379514
:1050F00017951794E118F10A430B560BC90BD00909
:1051000098F023957E9173957A3308F070E37C9341
:105110002013B8F77E9170617D9330F0839571E331
:105120007D9370E32A95E1F71124EF90FF900F91A2
:105130001F91CF91DF91992787FD90950895911147
:105140000C949329803219F089508550C8F708953E
:10515000FB01DC014150504088F08D9181341CF0FE
:105160008B350CF4805E659161341CF06B350CF46A
:10517000605E861B611171F3990B0895881BFCCF4B
:105180000E94022908F481E00895E89409C097FB81
:105190003EF490958095709561957F4F8F4F9F4F0E
:1051A0009923A9F0F92F96E9BB279395F695879552
:1051B00077956795B795F111F8CFFAF4BB0F11F415
:1051C00060FF1BC06F5F7F4F8F4F9F4F16C08823BC
:1051D00011F096E911C0772321F09EE8872F762FF2
:1051E00005C0662371F096E8862F70E060E02AF033
:1051F0009A95660F771F881FDAF7880F969587951F
:1052000097F90895990F0008550FAA0BE0E8FEEFF3
:1052100016161706E807F907C0F012161306E4077A
:10522000F50798F0621B730B840B950B39F40A2673
:1052300061F0232B242B252B21F408950A2609F451
:10524000A140A6958FEF811D811D08950E943929E7
:105250000C94AD290E949F2938F00E94A62920F0C5
:10526000952311F00C9496290C949C2911240C94EC
:10527000E1290E94BE2970F3959FC1F3950F50E07C
:10528000551F629FF001729FBB27F00DB11D639FF8
:10529000AA27F00DB11DAA1F649F6627B00DA11D9E
:1052A000661F829F2227B00DA11D621F739FB00D44
:1052B000A11D621F839FA00D611D221F749F3327B4
:1052C000A00D611D231F849F600D211D822F762F4D
:1052D0006A2F11249F5750409AF0F1F088234AF02A
:1052E000EE0FFF1FBB1F661F771F881F9150504096
:1052F000A9F79E3F510580F00C9496290C94E12962
:105300005F3FE4F3983ED4F3869577956795B7951C
:10531000F795E7959F5FC1F7FE2B880F911D969536
:10532000879597F9089599278827089597F99F6792
:1053300080E870E060E008959FEF80EC089500241D
:105340000A941616170618060906089500240A94EA
:1053500012161306140605060895092E0394000C70
:1053600011F4882352F0BB0F40F4BF2B11F460FFFF
:1053700004C06F5F7F4F8F4F9F4F089557FD905828
:10538000440F551F59F05F3F71F04795880F97FB09
:10539000991F61F09F3F79F08795089512161306C3
:1053A0001406551FF2CF4695F1DF08C016161706F2
:1053B0001806991FF1CF8695710561050894089527
:1053C000E894BB2766277727CB0197F90895F999C9
:1053D000FECF92BD81BDF89A992780B50895262FFA
:1053E000F999FECF1FBA92BD81BD20BD0FB6F894CA
:1053F000FA9AF99A0FBE019608950E943F2AA59F36
:10540000900DB49F900DA49F800D911D11240895BF
:105410002F923F924F925F926F927F928F929F92C4
:10542000AF92BF92CF92DF92EF92FF920F931F93B2
:10543000CF93DF93CDB7DEB7CA1BDB0B0FB6F89463
:10544000DEBF0FBECDBF09942A88398848885F84A3
:105450006E847D848C849B84AA84B984C884DF8014
:10546000EE80FD800C811B81AA81B981CE0FD11DF8
:105470000FB6F894DEBF0FBECDBFED010895A29F19
:10548000B001B39FC001A39F700D811D1124911D18
:10549000B29F700D811D1124911D08955058BB2796
:1054A000AA270E94662A0C94AD290E949F2938F0F1
:1054B0000E94A62920F039F49F3F19F426F40C9499
:1054C0009C290EF4E095E7FB0C949629E92F0E94A5
:1054D000BE2958F3BA17620773078407950720F0AF
:1054E00079F4A6F50C94E0290EF4E0950B2EBA2F72
:1054F000A02D0B01B90190010C01CA01A0011124DA
:10550000FF27591B99F0593F50F4503E68F11A1685
:10551000F040A22F232F342F4427585FF3CF469516
:1055200037952795A795F0405395C9F77EF41F1638
:10553000BA0B620B730B840BBAF09150A1F0FF0F02
:10554000BB1F661F771F881FC2F70EC0BA0F621FEE
:10555000731F841F48F4879577956795B795F795DE
:105560009E3F08F0B0CF9395880F08F09927EE0F73
:105570009795879508950E94022908F48FEF089562
:1055800097FB072E16F4009407D077FD09D00E94F0
:105590001B2B07FC05D03EF4909581959F4F0895F5
:1055A000709561957F4F0895A1E21A2EAA1BBB1B2F
:1055B000FD010DC0AA1FBB1FEE1FFF1FA217B307DF
:1055C000E407F50720F0A21BB30BE40BF50B661FF5
:1055D000771F881F991F1A9469F7609570958095B9
:1055E00090959B01AC01BD01CF010895052E97FB5D
:1055F0001EF400940E940D2B57FD07D00E94D42A60
:1056000007FC03D04EF40C940D2B5095409530952B
:1056100021953F4F4F4F5F4F08959095809570951E
:1056200061957F4F8F4F9F4F0895EE0FFF1F05909D
:10563000F491E02D0994AA1BBB1B51E107C0AA1FDE
:10564000BB1FA617B70710F0A61BB70B881F991F23
:105650005A95A9F780959095BC01CD010895FB015D
:10566000DC018D91019080190110D9F3990B0895F7
:10567000AEE0B0E0EEE3FBE20C94162A0D891E8941
:1056800086E08C831A8309838FEF9FE79E838D8347
:10569000AE01475E5F4F6F89788DCE0101960E9403
:1056A0005B2B2F813885020F131FF80110822E9675
:1056B000E4E00C94322AABE0B0E0E1E6FBE20C94CB
:1056C000082A7C013B018A01FC0117821682838132
:1056D00081FFC8C1CE0101965C01F7019381F301FE
:1056E00093FD859193FF81913F01882309F453C174
:1056F000853239F493FD859193FF81913F01853285
:1057000029F4B70190E00E944B2DE7CF912C212C7A
:10571000312CFFE1F31538F08B3211F190F4803227
:1057200009F1833229F137FC3CC020ED280F2A30E3
:1057300050F536FE20C08AE0989E200D1124922E4E
:1057400006C08D3291F0803371F7689430F8F30120
:1057500093FD859193FF81913F018111DACF21C0A3
:10576000689431F8689432F8F2CF689433F8EFCF48
:10577000689434F8ECCFEAE02E9E200D1124222EFE
:10578000689435F8E4CF8E3229F436FC04C168946D
:1057900036F8DDCF8C3619F4689437F8D8CF8836D0
:1057A000B1F2982F9F7D95549330E0F08336A1F1AC
:1057B0008337C1F1833509F063C02801F2E04F0E51
:1057C000511CF801C080D180692D70E036FC02C008
:1057D0006FEF7FEFC6010E94352D4C01689437F8BA
:1057E00082010AC00C5F1F4FFFE3F9838824839472
:1057F000912C6501E89437F833FE2DC0522C8114AA
:10580000910471F5552009F468CFB70180E290E06A
:105810000E944B2D5A94F6CFF801808189830E5F48
:105820001F4FE4CF2801F2E04F0E511CF801C08059
:10583000D180692D70E036FC02C06FEF7FEFC601AA
:105840000E94402D4C018201D5CFB70180E290E04B
:105850000E944B2D2A942814190409F0B0F7CECFDA
:10586000F60137FC859137FE81916F01B70190E019
:105870000E944B2D51105A94F1E08F1A9108BFCF1E
:10588000843619F0893609F077C0F80137FE6BC00D
:1058900060817181828193810C5F1F4FF32DFF76B0
:1058A0003F2E97FF09C090958095709561957F4F29
:1058B0008F4F9F4F689437F82AE030E0A5010E948F
:1058C0007B2DC82ECA188C2C432C36FE0CC0E894B5
:1058D00040F8C91440F434FE05C032FC03C0F32D77
:1058E000FE7E4F2E892C44FE95C0FE01EC0DF11D6D
:1058F0008081803309F087C0242D297E422E842D9B
:105900008870582E43FC95C040FE8FC09C2C82149A
:1059100018F42C0C922C981844FE91C0B70180E327
:1059200090E00E944B2D42FE09C088E790E041FEC6
:1059300002C088E590E0B7010E944B2DC91408F41D
:105940008AC0CA94D12C9FEFC91AD90ACA0CDB1C91
:10595000F60182916F01B70190E00E944B2DAC14CB
:10596000BD04B1F74FCF60817181072E000C880B09
:10597000990B0E5F1F4F92CFD32CE894D4F82AE0F6
:1059800030E0853739F1232D297FD22E8F3601F172
:1059900048F48835A9F0F701868197812B96E2E1DA
:1059A0000C94242A803749F08837A9F7D4FE02C026
:1059B0006894D2F820E130E00DC06894D4F8F6CFB6
:1059C00034FE03C0822F8660D82E20E132E002C070
:1059D00028E030E0F801D7FE0FC06081718182813C
:1059E00093810C5F1F4FA5010E947B2DC82ECA1802
:1059F0003D2CE89437F867CF6081718190E080E0BA
:105A00000E5F1F4FF0CF42FC02C0839478CF839487
:105A1000839475CF842D867809F471CFF6CFB701C2
:105A200080E290E00E944B2D83948214C0F3512CAD
:105A300073CF522C5818821408F46ECFF8CF842DEF
:105A4000867809F47BCF8BE241FE80E247FC8DE251
:105A5000B70190E071CFB70180E390E00E944B2D39
:105A60009A946CCF8FEF9FEF99CFFC010590615016
:105A700070400110D8F7809590958E0F9F1F089564
:105A8000FC016150704001900110D8F7809590950D
:105A90008E0F9F1F08950F931F93CF93DF93182F9F
:105AA000092FEB018B8181FD09C01FEF0FEF812FC3
:105AB000902FDF91CF911F910F91089582FF14C015
:105AC0002E813F818C819D81281739073CF4E88124
:105AD000F981CF0101969983888310838E819F81FC
