:100000000C9463000C948B000C948B000C94A40350
:100010000C94A4030C94A4030C948B000C948B00FC
:100020000C948B000C948B000C948B000C948B0024
:100030000C948B000C948B000C948B000C948B0014
:100040000C945A030C948B000C9428030C94020318
:100050000C948B000C948B000C948B000C948B00F4
:100060000C948B000C948B0000000008000201002F
:100070000003040700000000000000000000000072
:10008000250028002B0000000000240027002A0083
:1000900000000000230026002900040404040404D6
:1000A0000404020202020202030303030303010227
:1000B00004081020408001020408102001020408F6
:1000C00010201E04730611241FBECFEFD8E0DEBF40
:1000D000CDBF11E0A0E0B1E0EAE7FDE002C005908D
:1000E0000D92AA34B107D9F722E0AAE4B1E001C029
:1000F0001D92A335B207E1F710E0C2E6D0E004C0DC
:100100002197FE010E94A506C136D107C9F70E94BA
:1001100000050C94B0060C940000CF92DF92EF9291
:10012000FF920F931F93CF93DF936C017A018B01A2
:10013000C0E0D0E0CE15DF0589F0D8016D918D01CA
:10014000D601ED91FC910190F081E02DC601099559
:10015000892B11F47E0102C02196ECCFC701DF91FB
:10016000CF911F910F91FF90EF90DF90CF90089566
:10017000FC01918D828D981761F0828DDF01A80FAF
:10018000B11D5D968C91928D9F5F9F73928F90E0D1
:1001900008958FEF9FEF0895FC01918D828D981740
:1001A00031F0828DE80FF11D858D90E008958FEF7D
:1001B0009FEF0895FC01918D228D892F90E0805C46
:1001C0009F4F821B91098F739927089587E991E0CA
:1001D0000E94DA0021E0892B09F420E0822F0895A3
:1001E000FC01848DDF01A80FB11DA35ABF4F2C91D4
:1001F000848D90E001968F739927848FA689B789A3
:100200002C93A089B1898C9180648C93938D848D7B
:10021000981306C00288F389E02D80818F7D80834A
:100220000895EF92FF920F931F93CF93DF93EC010A
:1002300081E0888F9B8D8C8D981305C0E889F989A2
:10024000808185FD24C0F62E0B8D10E00F5F1F4FBF
:100250000F731127E02E8C8DE8120CC00FB607FC2F
:10026000FACFE889F989808185FFF5CFCE010E9418
:10027000F000F1CF8B8DFE01E80FF11DE35AFF4F27
:10028000F0820B8FEA89FB898081806207C0EE894A
:10029000FF896083E889F98980818064808381E0B7
:1002A00090E0DF91CF911F910F91FF90EF90089513
:1002B000CF93DF93EC01888D8823C9F0EA89FB890D
:1002C000808185FD05C0A889B9898C9186FD0FC004
:1002D0000FB607FCF5CF808185FFF2CFA889B989D9
:1002E0008C9185FFEDCFCE010E94F000E7CFDF912A
:1002F000CF91089580E090E0892B29F00E94E600DC
:1003000081110C940000089590E0FC01E859FF4F22
:100310003491FC01E255FF4F2491FC01E656FF4F5A
:10032000E491EE2309F43BC0332339F1333091F0EB
:1003300038F43130A9F0323001F584B58F7D12C028
:10034000373091F03830A1F03430B9F4809180002A
:100350008F7D03C0809180008F77809380000DC0D7
:1003600084B58F7784BD09C08091B0008F7703C0BA
:100370008091B0008F7D8093B000F0E0EE0FFF1F02
:10038000E458FF4FA591B4918FB7F894EC916111A7
:1003900003C020952E2301C02E2B2C938FBF0895D0
:1003A0003FB7F89480918F0190919001A0919101B5
:1003B000B091920126B5A89B05C02F3F19F0019678
:1003C000A11DB11D3FBFBA2FA92F982F8827820FDB
:1003D000911DA11DB11DBC01CD0142E0660F771F2B
:1003E000881F991F4A95D1F708958F929F92AF92D7
:1003F000BF92CF92DF92EF92FF926B017C010E943D
:10040000D0014B015C01C114D104E104F104F1F00D
:100410000E94D001DC01CB0188199909AA09BB0906
:10042000883E9340A105B10570F321E0C21AD108BE
:10043000E108F10888EE880E83E0981EA11CB11C2B
:10044000C114D104E104F10419F7DDCFFF90EF905E
:10045000DF90CF90BF90AF909F908F9008952091A4
:100460009501309196012817390771F49091930105
:1004700080919401981741F0E0919301F0E0E65BE0
:10048000FE4F808190E008958FEF9FEF08950895CB
:100490001F93CF93DF93DC015C962D913C915D9788
:1004A0002115310539F481E090E013969C938E93E9
:1004B00012973DC05196ED91FC91529750969C91A8
:1004C0005097892F80951FB75E964C915E9741FBA0
:1004D000772770F941FD6095F8944081772311F0FA
:1004E000492B01C048234083E9012197F1F748E0F7
:1004F000508160FF02C0592B01C058235083E9018D
:100500002197F1F76695415099F7772321F0908173
:100510008923808303C08081982B90831FBF5C96C2
:100520008D919C915D970197F1F721E030E0C90131
:10053000DF91CF911F9108952091950130919601FF
:100540002817390771F4809194012091930190E06C
:10055000805C9F4F821B910960E470E00E947D06E1
:10056000089580E090E008952091950130919601E2
:1005700028173907B9F49091930180919401981745
:1005800089F0E0919301F0E0E65BFE4F80812091DD
:10059000930130E02F5F3F4F2F7333272093930158
:1005A00090E008958FEF9FEF0895E0919501F0910D
:1005B0009601E817F90769F4A389B4899C918589A4
:1005C000809589238C93109296011092950181E079
:1005D000089580E008950E94AB066115710579F0D9
:1005E000FB0101900020E9F73197AF01461B570B43
:1005F000DC01ED91FC910280F381E02D099480E013
:1006000090E008951F920F920FB60F9211242F932E
:100610003F934F935F936F937F938F939F93AF938A
:10062000BF93EF93FF9387E991E00E94F000FF9161
:10063000EF91BF91AF919F918F917F916F915F915A
:100640004F913F912F910F900FBE0F901F901895D3
:100650001F920F920FB60F9211242F938F939F9397
:10066000EF93FF93E091A701F091A8018081E091C1
:10067000AD01F091AE0182FD12C090818091B00178
:100680008F5F8F732091B101821751F0E091B0011B
:10069000F0E0E956FE4F958F8093B00101C0808154
:1006A000FF91EF919F918F912F910F900FBE0F901F
:1006B0001F9018951F920F920FB60F9211242F932F
:1006C0003F938F939F93AF93BF9380918B019091B2
:1006D0008C01A0918D01B0918E0130918A0123E0AF
:1006E000230F2D3720F40196A11DB11D05C026E86A
:1006F000230F0296A11DB11D20938A0180938B01C7
:1007000090938C01A0938D01B0938E0180918F0105
:1007100090919001A0919101B09192010196A11D3B
:10072000B11D80938F0190939001A0939101B0939C
:100730009201BF91AF919F918F913F912F910F9017
:100740000FBE0F901F9018951F920F920FB60F9229
:1007500011242F933F934F935F936F937F938F93C6
:100760009F93AF93BF93EF93FF93E0919501F09127
:100770009601309709F451C0968DA685B785858579
:1007800091FF04C09C91892329F447C09C9189233F
:1007900009F043C0A389B4899C91858980958923F8
:1007A0008C93868997890197F1F7608D718DA68565
:1007B000B785558538E020E0CB010197F1F7822F0E
:1007C00090E095958795282F4C91452309F0206856
:1007D000315091F7868D81FD20958091940190E0B4
:1007E00001968F73992730919301381749F0A091A2
:1007F0009401B0E0A65BBE4F2C938093940103C09C
:10080000868D8160868F828D938D0197F1F7A38904
:10081000B4899C918589892B8C93FF91EF91BF912D
:10082000AF919F918F917F916F915F914F913F9188
:100830002F910F900FBE0F901F901895CF93DF93BD
:1008400010929A011092990188EE93E0A0E0B0E036
:1008500080939B0190939C01A0939D01B0939E0176
:1008600025E031E0309398012093970125EC30E0AA
:100870003093A4012093A30124EC30E03093A6012F
:100880002093A50120EC30E03093A8012093A7012C
:1008900021EC30E03093AA012093A90122EC30E052
:1008A0003093AC012093AB0126EC30E03093AE01E5
:1008B0002093AD011092B0011092B1011092B201DB
:1008C0001092B301109237021092360280933802D0
:1008D00090933902A0933A02B0933B0285E191E0F4
:1008E000909335028093340210924B0210924A0288
:1008F00010924D0210924C0210924F0210924E0232
:100900001092510210925002609152026E7F6D7FE0
:10091000609352026695617081E068278BE00E94C7
:100920008401E9EBF0E02491E5EAF0E0849188238A
:1009300099F090E0880F991FFC01EA57FF4FA591AD
:10094000B491FC01E458FF4F859194918FB7F894CE
:10095000EC91E22BEC938FBFE9EBF0E0E491E093B4
:100960004402E5EAF0E0E491F0E0EE0FFF1FE45806
:10097000FF4F859194919093460280934502E8EB56
:10098000F0E02491E4EAF0E084918823C1F090E063
:10099000880F991FFC01EA57FF4FC591D491FC01C4
:1009A000E458FF4FA591B4919FB7F8948881E22F46
:1009B000E0958E2388838C91E823EC939FBF8091F0
:1009C000520281FD04C061E08AE00E9484018AE055
:1009D00080934002E8EBF0E0E491E0934102E4EA26
:1009E000F0E0E491F0E0EE0FFF1FE057FF4F85913C
:1009F00094919093430280934202DF91CF910895A6
:100A0000789484B5826084BD84B5816084BD85B5E9
:100A1000826085BD85B5816085BD80916E008160F5
:100A200080936E001092810080918100826080939B
:100A3000810080918100816080938100809180009D
:100A40008160809380008091B10084608093B100C8
:100A50008091B00081608093B00080917A008460C2
:100A600080937A0080917A00826080937A008091EE
:100A70007A00816080937A0080917A008068809308
:100A80007A001092C100E091A701F091A80182E0E4
:100A90008083E091A301F091A4011082E091A5016F
:100AA000F091A6018FEC80831092AF01E091AB0131
:100AB000F091AC0186E08083E091A901F091AA0158
:100AC000808180618083E091A901F091AA018081F9
:100AD00088608083E091A901F091AA0180818068FB
:100AE0008083E091A901F091AA0180818F7D8083AC
:100AF00064EF71E080E090E00E94F50110924F02F7
:100B000010924E0210924D0210924C0210924B0223
:100B100010924A028DE991E0909351028093500225
:100B200090914002963108F057C02DEB30E03093A1
:100B30004B0220934A022BE931E030934D0220937F
:100B40004C022CE231E030934F0220934E02209170
:100B50006800983050F031E09E3008F430E081E0D9
:100B600001C0880F3A95EAF701C084E0822B809398
:100B70006800983038F09E3040F0963148F020E020
:100B800030E008C02DE630E005C02BE630E002C0C2
:100B90002CE630E03093480220934702983030F43E
:100BA00081E001C0880F9A95EAF70EC0292F30E046
:100BB0009E3018F42850310902C02E50310981E0CE
:100BC00001C0880F2A95EAF780934902809150026C
:100BD000909151020197F1F780914E0290914F024E
:100BE000892B21F1809195019091960122E0843327
:100BF0009207E1F0009711F00E94D5028091520215
:100C00008E7F80935202109294011092930184E39C
:100C100092E09093960180939501E0914702F091C4
:100C20004802908180914902892B808364EF71E0B2
:100C300080E090E00E94F50161E271E087E991E0D7
:100C40000E94ED0267E271E087E991E00E94ED0207
:100C50006AE271E084E392E00E94ED0268EE73E0E4
:100C600080E090E00E94F50180910001882371F0FE
:100C700060E471E084E392E00E94ED0268EE73E0CC
:100C800080E090E00E94F5011092000187E991E078
:100C90000E94DA00892B79F087E991E00E94B80080
:100CA000E0913402F09135020190F081E02D682F3F
:100CB00084E392E0099584E392E00E949C02892BF0
:100CC00079F084E392E00E94B402E0919701F09100
:100CD00098010190F081E02D682F87E991E0099556
:100CE0000E947A01C1CF85E191E090933502809313
:100CF000340284E392E00C94D50297FB072E16F49D
:100D0000009407D077FD09D00E94910607FC05D01A
:100D10003EF4909581959F4F0895709561957F4F12
:100D20000895AA1BBB1B51E107C0AA1FBB1FA61732
:100D3000B70710F0A61BB70B881F991F5A95A9F784
:100D400080959095BC01CD010895EE0FFF1F059091
:100D5000F491E02D099481E090E0F8940C94B006B1
:100D600010E0C2E6D0E004C0FE010E94A506219674
:0A0D7000C336D107C9F7F894FFCF8E
:100D7A00010000000011018D00DA00B800CC005813
:100D8A00010000000048028D009C02B4022F0247B5
:100D9A00025265616479000D0A0041542B4E414D9F
:100DAA00456D696B726F53696B6172752E6465006C
:0A0DBA0041542B424155443700001C
:00000001FF
