:100000000C9463000C948B000C948B000C94A20352
:100010000C94A2030C94A2030C948B000C948B0000
:100020000C948B000C948B000C948B000C948B0024
:100030000C948B000C948B000C948B000C948B0014
:100040000C9458030C948B000C9426030C9400031E
:100050000C948B000C948B000C948B000C948B00F4
:100060000C948B000C948B0000000008000201002F
:100070000003040700000000000000000000000072
:10008000250028002B0000000000240027002A0083
:1000900000000000230026002900040404040404D6
:1000A0000404020202020202030303030303010227
:1000B00004081020408001020408102001020408F6
:1000C00010201C04690611241FBECFEFD8E0DEBF4C
:1000D000CDBF11E0A0E0B1E0E6E6FDE002C0059092
:1000E0000D92A434B107D9F722E0A4E4B1E001C035
:1000F0001D92AD34B207E1F710E0C2E6D0E004C0D3
:100100002197FE010E949B06C136D107C9F70E94C4
:10011000FE040C94A6060C940000CF92DF92EF929E
:10012000FF920F931F93CF93DF936C017A018B01A2
:10013000C0E0D0E0CE15DF0589F0D8016D918D01CA
:10014000D601ED91FC910190F081E02DC601099559
:10015000892B11F47E0102C02196ECCFC701DF91FB
:10016000CF911F910F91FF90EF90DF90CF90089566
:10017000FC01538D448D252F30E0842F90E0821BAD
:10018000930B541710F0CF96089501970895FC0132
:10019000918D828D981761F0828DDF01A80FB11DBE
:1001A0005D968C91928D9F5F9F73928F90E00895E2
:1001B0008FEF9FEF0895FC01918D828D981731F09C
:1001C000828DE80FF11D858D90E008958FEF9FEFF0
:1001D0000895FC01918D228D892F90E0805C9F4FC6
:1001E000821B91098F739927089581E991E00E94FC
:1001F000E90021E0892B09F420E0822F0895FC0119
:10020000848DDF01A80FB11DA35ABF4F2C91848D9F
:1002100090E001968F739927848FA689B7892C93D4
:10022000A089B1898C9180648C93938D848D98136F
:1002300006C00288F389E02D80818F7D8083089538
:10024000EF92FF920F931F93CF93DF93EC0181E026
:10025000888F9B8D8C8D981305C0E889F9898081E2
:1002600085FD24C0F62E0B8D10E00F5F1F4F0F731E
:100270001127E02E8C8DE8120CC00FB607FCFACFC8
:10028000E889F989808185FFF5CFCE010E94FF00C2
:10029000F1CF8B8DFE01E80FF11DE35AFF4FF08285
:1002A0000B8FEA89FB898081806207C0EE89FF8914
:1002B0006083E889F98980818064808381E090E0AF
:1002C000DF91CF911F910F91FF90EF900895CF9301
:1002D000DF93EC01888D8823C9F0EA89FB8980814E
:1002E00085FD05C0A889B9898C9186FD0FC00FB620
:1002F00007FCF5CF808185FFF2CFA889B9898C9161
:1003000085FFEDCFCE010E94FF00E7CFDF91CF91B7
:10031000089580E090E0892B29F00E94F50081117A
:100320000C940000089590E0FC01E859FF4F3491CF
:10033000FC01E255FF4F2491FC01E656FF4FE4918A
:10034000EE2309F43BC0332339F1333091F038F414
:100350003130A9F0323001F584B58F7D12C03730CD
:1003600091F03830A1F03430B9F4809180008F7D65
:1003700003C0809180008F77809380000DC084B58A
:100380008F7784BD09C08091B0008F7703C08091C2
:10039000B0008F7D8093B000F0E0EE0FFF1FE458B7
:1003A000FF4FA591B4918FB7F894EC91611103C000
:1003B00020952E2301C02E2B2C938FBF08953FB77D
:1003C000F8948091890190918A01A0918B01B0915C
:1003D0008C0126B5A89B05C02F3F19F00196A11DE1
:1003E000B11D3FBFBA2FA92F982F8827820F911DCB
:1003F000A11DB11DBC01CD0142E0660F771F881F12
:10040000991F4A95D1F708958F929F92AF92BF920C
:10041000CF92DF92EF92FF926B017C010E94DF018D
:100420004B015C01C114D104E104F104F1F00E941C
:10043000DF01DC01CB0188199909AA09BB09883EB3
:100440009340A105B10570F321E0C21AD108E1087B
:10045000F10888EE880E83E0981EA11CB11CC1141F
:10046000D104E104F10419F7DDCFFF90EF90DF90A4
:10047000CF90BF90AF909F908F90089520918F0163
:10048000309190012817390771F490918D01809176
:100490008E01981741F0E0918D01F0E0EC5BFE4F8A
:1004A000808190E008958FEF9FEF089508951F9346
:1004B000CF93DF93DC015C962D913C915D972115E4
:1004C000310539F481E090E013969C938E93129756
:1004D0003DC05196ED91FC91529750969C9150974A
:1004E000892F80951FB75E964C915E9741FB7727C9
:1004F00070F941FD6095F8944081772311F0492B04
:1005000001C048234083E9012197F1F748E0508179
:1005100060FF02C0592B01C058235083E901219785
:10052000F1F76695415099F7772321F0908189235F
:10053000808303C08081982B90831FBF5C968D9130
:100540009C915D970197F1F721E030E0C901DF91BF
:10055000CF911F91089520918F013091900128171C
:10056000390771F480918E0120918D0190E0805CBB
:100570009F4F821B910960E470E00E94730608950A
:1005800080E090E0089520918F013091900128172C
:100590003907B9F490918D0180918E01981789F0F7
:1005A000E0918D01F0E0EC5BFE4F808120918D01A8
:1005B00030E02F5F3F4F2F73332720938D0190E062
:1005C00008958FEF9FEF0895E0918F01F0919001D2
:1005D000E817F90769F4A389B4899C918589809506
:1005E00089238C931092900110928F0181E00895DD
:1005F00080E00895089580E090E008950E94A106AB
:100600001F920F920FB60F9211242F933F934F9387
:100610005F936F937F938F939F93AF93BF93EF936A
:10062000FF9381E991E00E94FF00FF91EF91BF915C
:10063000AF919F918F917F916F915F914F913F917A
:100640002F910F900FBE0F901F9018951F920F9231
:100650000FB60F9211242F938F939F93EF93FF93D5
:10066000E091A101F091A2018081E091A701F091B8
:10067000A80182FD12C090818091AA018F5F8F73C3
:100680002091AB01821751F0E091AA01F0E0EF5602
:10069000FE4F958F8093AA0101C08081FF91EF9159
:1006A0009F918F912F910F900FBE0F901F901895D3
:1006B0001F920F920FB60F9211242F933F938F9397
:1006C0009F93AF93BF938091850190918601A091F4
:1006D0008701B09188013091840123E0230F2D37E9
:1006E00020F40196A11DB11D05C026E8230F029636
:1006F000A11DB11D209384018093850190938601F3
:10070000A0938701B09388018091890190918A011B
:10071000A0918B01B0918C010196A11DB11D809318
:10072000890190938A01A0938B01B0938C01BF91B2
:10073000AF919F918F913F912F910F900FBE0F908E
:100740001F9018951F920F920FB60F9211242F939E
:100750003F934F935F936F937F938F939F93AF9349
:10076000BF93EF93FF93E0918F01F0919001309749
:1007700009F451C0968DA685B785858591FF04C083
:100780009C91892329F447C09C91892309F043C097
:10079000A389B4899C918589809589238C938689C6
:1007A00097890197F1F7608D718DA685B78555857D
:1007B00038E020E0CB010197F1F7822F90E095958A
:1007C0008795282F4C91452309F02068315091F7E7
:1007D000868D81FD209580918E0190E001968F732A
:1007E000992730918D01381749F0A0918E01B0E022
:1007F000AC5BBE4F2C9380938E0103C0868D8160CD
:10080000868F828D938D0197F1F7A389B4899C918E
:100810008589892B8C93FF91EF91BF91AF919F9127
:100820008F917F916F915F914F913F912F910F9099
:100830000FBE0F901F901895CF93DF9310929401E5
:100840001092930188EE93E0A0E0B0E080939501D0
:1008500090939601A0939701B093980125E031E021
:10086000309392012093910125EC30E030939E016A
:1008700020939D0124EC30E03093A00120939F0150
:1008800020EC30E03093A2012093A10121EC30E074
:100890003093A4012093A30122EC30E03093A60111
:1008A0002093A50126EC30E03093A8012093A70106
:1008B0001092AA011092AB011092AC011092AD01FE
:1008C00010923102109230028093320290933302E0
:1008D000A0933402B093350287E191E090932F0208
:1008E00080932E0210924502109244021092470209
:1008F00010924602109249021092480210924B0246
:1009000010924A0260914C026E7F6D7F60934C02A0
:100910006695617081E068278BE00E949301E9EBA6
:10092000F0E02491E5EAF0E08491882399F090E0EA
:10093000880F991FFC01EA57FF4FA591B491FC0164
:10094000E458FF4F859194918FB7F894EC91E22B86
:10095000EC938FBFE9EBF0E0E491E0933E02E5EA2F
:10096000F0E0E491F0E0EE0FFF1FE458FF4F8591B7
:1009700094919093400280933F02E8EBF0E0249141
:10098000E4EAF0E084918823C1F090E0880F991F99
:10099000FC01EA57FF4FC591D491FC01E458FF4F89
:1009A000A591B4919FB7F8948881E22FE0958E23AA
:1009B00088838C91E823EC939FBF80914C0281FD4A
:1009C00004C061E08AE00E9493018AE080933A02C9
:1009D000E8EBF0E0E491E0933B02E4EAF0E0E4913C
:1009E000F0E0EE0FFF1FE057FF4F85919491909339
:1009F0003D0280933C02DF91CF910895789484B5B5
:100A0000826084BD84B5816084BD85B5826085BD0A
:100A100085B5816085BD80916E00816080936E0098
:100A2000109281008091810082608093810080918A
:100A3000810081608093810080918000816080933B
:100A400080008091B10084608093B1008091B000FB
:100A500081608093B00080917A00846080937A00F6
:100A600080917A00826080937A0080917A00816020
:100A700080937A0080917A00806880937A00109247
:100A8000C100E091A101F091A20182E08083E09198
:100A90009D01F0919E011082E0919F01F091A001D3
:100AA0008FEC80831092A901E091A501F091A6013D
:100AB00086E08083E091A301F091A40180818061B0
:100AC0008083E091A301F091A401808188608083FC
:100AD000E091A301F091A401808180688083E0917E
:100AE000A301F091A40180818F7D808364EF71E088
:100AF00080E090E00E9404021092490210924802A5
:100B0000109247021092460210924502109244023F
:100B10008DE991E090934B0280934A0290913A02C2
:100B2000963108F057C02DEB30E03093450220930A
:100B300044022BE931E030934702209346022CE235
:100B400031E03093490220934802209168009830A8
:100B500050F031E09E3008F430E081E001C0880FB1
:100B60003A95EAF701C084E0822B809368009830C0
:100B700038F09E3040F0963148F020E030E008C078
:100B80002DE630E005C02BE630E002C02CE630E078
:100B90003093420220934102983030F481E001C04A
:100BA000880F9A95EAF70EC0292F30E09E3018F48E
:100BB0002850310902C02E50310981E001C0880F50
:100BC0002A95EAF78093430280914A0290914B0262
:100BD0000197F1F78091480290914902892B21F108
:100BE00080918F019091900122E08E329207E1F086
:100BF000009711F00E94E40280914C028E7F809356
:100C00004C0210928E0110928D018EE292E0909330
:100C1000900180938F01E0914102F0914202908116
:100C200080914302892B808368EE73E080E090E03E
:100C30000E940402809100018823F1F045E150E018
:100C400065E271E08EE292E00E948D006CED75E04D
:100C500080E090E00E94040248E050E06BE371E025
:100C60008EE292E00E948D0068EE73E080E090E0FA
:100C70000E9404021092000181E991E00E94E900C3
:100C8000892B79F081E991E00E94C700E0912E0262
:100C9000F0912F020190F081E02D682F8EE292E01A
:100CA00009958EE292E00E94AB02892B79F08EE2E8
:100CB00092E00E94C302E0919101F09192010190B3
:100CC000F081E02D682F81E991E009950E9489016A
:100CD000B1CF87E191E090932F0280932E028EE2B4
:100CE00092E00C94E40297FB072E16F4009407D0D0
:100CF00077FD09D00E94870607FC05D03EF4909549
:100D000081959F4F0895709561957F4F0895AA1B17
:100D1000BB1B51E107C0AA1FBB1FA617B70710F0E6
:100D2000A61BB70B881F991F5A95A9F78095909518
:100D3000BC01CD010895EE0FFF1F0590F491E02D49
:100D4000099481E090E0F8940C94A60610E0C2E6C5
:100D5000D0E004C0FE010E949B062196C336D10755
:060D6000C9F7F894FFCF73
:100D6600010000000020018D00B8006701E900C7FE
:100D760000DB000000000057028D00FB025602ABAC
:100D860002C3023E0241542B4E414D456D696B72C2
:100D96006F53696B6172752E64650041542B424135
:040DA6005544370079
:00000001FF
