:100000000C9463000C948B000C948B000C94C40330
:100010000C94C4030C94C4030C948B000C948B00BC
:100020000C948B000C948B000C948B000C948B0024
:100030000C948B000C948B000C948B000C948B0014
:100040000C947A030C948B000C9448030C942203B8
:100050000C948B000C948B000C948B000C948B00F4
:100060000C948B000C948B0000000008000201002F
:100070000003040700000000000000000000000072
:10008000250028002B0000000000240027002A0083
:1000900000000000230026002900040404040404D6
:1000A0000404020202020202030303030303010227
:1000B00004081020408001020408102001020408F6
:1000C00010203E04830611241FBECFEFD8E0DEBF10
:1000D000CDBF11E0A0E0B1E0EAE9FDE002C005908B
:1000E0000D92A035B107D9F722E0A0E5B1E001C03B
:1000F0001D92A935B207E1F710E0C2E6D0E004C0D6
:100100002197FE010E94B506C136D107C9F70E94AA
:1001100020050C94C0060C940000CF92DF92EF9261
:10012000FF920F931F93CF93DF936C017A018B01A2
:10013000C0E0D0E0CE15DF0589F0D8016D918D01CA
:10014000D601ED91FC910190F081E02DC601099559
:10015000892B11F47E0102C02196ECCFC701DF91FB
:10016000CF911F910F91FF90EF90DF90CF90089566
:10017000FC01538D448D252F30E0842F90E0821BAD
:10018000930B541710F0CF96089501970895FC0132
:10019000918D828D981761F0828DDF01A80FB11DBE
:1001A0005D968C91928D9F5F9F73928F90E00895E2
:1001B0008FEF9FEF0895FC01918D828D981731F09C
:1001C000828DE80FF11D858D90E008958FEF9FEFF0
:1001D0000895FC01918D228D892F90E0805C9F4FC6
:1001E000821B91098F73992708958DE991E00E94F0
:1001F000E90021E0892B09F420E0822F0895FC0119
:10020000848DDF01A80FB11DA35ABF4F2C91848D9F
:1002100090E001968F739927848FA689B7892C93D4
:10022000A089B1898C9180648C93938D848D98136F
:1002300006C00288F389E02D80818F7D8083089538
:10024000EF92FF920F931F93CF93DF93EC0181E026
:10025000888F9B8D8C8D981305C0E889F9898081E2
:1002600085FD24C0F62E0B8D10E00F5F1F4F0F731E
:100270001127E02E8C8DE8120CC00FB607FCFACFC8
:10028000E889F989808185FFF5CFCE010E94FF00C2
:10029000F1CF8B8DFE01E80FF11DE35AFF4FF08285
:1002A0000B8FEA89FB898081806207C0EE89FF8914
:1002B0006083E889F98980818064808381E090E0AF
:1002C000DF91CF911F910F91FF90EF900895CF9301
:1002D000DF93EC01888D8823C9F0EA89FB8980814E
:1002E00085FD05C0A889B9898C9186FD0FC00FB620
:1002F00007FCF5CF808185FFF2CFA889B9898C9161
:1003000085FFEDCFCE010E94FF00E7CFDF91CF91B7
:10031000089580E090E0892B29F00E94F50081117A
:100320000C940000089590E0FC01E859FF4F3491CF
:10033000FC01E255FF4F2491FC01E656FF4FE4918A
:10034000EE2309F43BC0332339F1333091F038F414
:100350003130A9F0323001F584B58F7D12C03730CD
:1003600091F03830A1F03430B9F4809180008F7D65
:1003700003C0809180008F77809380000DC084B58A
:100380008F7784BD09C08091B0008F7703C08091C2
:10039000B0008F7D8093B000F0E0EE0FFF1FE458B7
:1003A000FF4FA591B4918FB7F894EC91611103C000
:1003B00020952E2301C02E2B2C938FBF08953FB77D
:1003C000F8948091950190919601A0919701B09138
:1003D000980126B5A89B05C02F3F19F00196A11DD5
:1003E000B11D3FBFBA2FA92F982F8827820F911DCB
:1003F000A11DB11DBC01CD0142E0660F771F881F12
:10040000991F4A95D1F708958F929F92AF92BF920C
:10041000CF92DF92EF92FF926B017C010E94DF018D
:100420004B015C01C114D104E104F104F1F00E941C
:10043000DF01DC01CB0188199909AA09BB09883EB3
:100440009340A105B10570F321E0C21AD108E1087B
:10045000F10888EE880E83E0981EA11CB11CC1141F
:10046000D104E104F10419F7DDCFFF90EF90DF90A4
:10047000CF90BF90AF909F908F90089520919B0157
:1004800030919C012817390771F49091990180915E
:100490009A01981741F0E0919901F0E0E05BFE4F7E
:1004A000808190E008958FEF9FEF089508951F9346
:1004B000CF93DF93DC015C962D913C915D972115E4
:1004C000310539F481E090E013969C938E93129756
:1004D0003DC05196ED91FC91529750969C9150974A
:1004E000892F80951FB75E964C915E9741FB7727C9
:1004F00070F941FD6095F8944081772311F0492B04
:1005000001C048234083E9012197F1F748E0508179
:1005100060FF02C0592B01C058235083E901219785
:10052000F1F76695415099F7772321F0908189235F
:10053000808303C08081982B90831FBF5C968D9130
:100540009C915D970197F1F721E030E0C901DF91BF
:10055000CF911F91089520919B0130919C01281704
:10056000390771F480919A012091990190E0805CA3
:100570009F4F821B910960E470E00E948D060895F0
:1005800080E090E0089520919B0130919C01281714
:100590003907B9F49091990180919A01981789F0DF
:1005A000E0919901F0E0E05BFE4F8081209199019C
:1005B00030E02F5F3F4F2F7333272093990190E056
:1005C00008958FEF9FEF0895E0919B01F0919C01BA
:1005D000E817F90769F4A389B4899C918589809506
:1005E00089238C9310929C0110929B0181E00895C5
:1005F00080E00895089580E090E00895CF93DF9320
:10060000009779F0FC0101900020E9F73197AF01E4
:10061000481B590BBC018AE392E00E948D00EC015B
:1006200002C0C0E0D0E042E050E06BE371E08AE35A
:1006300092E00E948D008C0F9D1FDF91CF91089555
:100640000E94BB061F920F920FB60F9211242F9398
:100650003F934F935F936F937F938F939F93AF934A
:10066000BF93EF93FF938DE991E00E94FF00FF910C
:10067000EF91BF91AF919F918F917F916F915F911A
:100680004F913F912F910F900FBE0F901F90189593
:100690001F920F920FB60F9211242F938F939F9357
:1006A000EF93FF93E091AD01F091AE018081E09175
:1006B000B301F091B40182FD12C090818091B60126
:1006C0008F5F8F732091B701821751F0E091B601CF
:1006D000F0E0E356FE4F958F8093B60101C0808114
:1006E000FF91EF919F918F912F910F900FBE0F90DF
:1006F0001F9018951F920F920FB60F9211242F93EF
:100700003F938F939F93AF93BF938091910190916B
:100710009201A0919301B09194013091900123E056
:10072000230F2D3720F40196A11DB11D05C026E829
:10073000230F0296A11DB11D20939001809391017A
:1007400090939201A0939301B093940180919501AD
:1007500090919601A0919701B09198010196A11DE9
:10076000B11D8093950190939601A0939701B0934A
:100770009801BF91AF919F918F913F912F910F90D1
:100780000FBE0F901F9018951F920F920FB60F92E9
:1007900011242F933F934F935F936F937F938F9386
:1007A0009F93AF93BF93EF93FF93E0919B01F091E1
:1007B0009C01309709F451C0968DA685B785858533
:1007C00091FF04C09C91892329F447C09C918923FF
:1007D00009F043C0A389B4899C91858980958923B8
:1007E0008C93868997890197F1F7608D718DA68525
:1007F000B785558538E020E0CB010197F1F7822FCE
:1008000090E095958795282F4C91452309F0206815
:10081000315091F7868D81FD209580919A0190E06D
:1008200001968F73992730919901381749F0A0915B
:100830009A01B0E0A05BBE4F2C9380939A0103C055
:10084000868D8160868F828D938D0197F1F7A389C4
:10085000B4899C918589892B8C93FF91EF91BF91ED
:10086000AF919F918F917F916F915F914F913F9148
:100870002F910F900FBE0F901F901895CF93DF937D
:100880001092A00110929F0188EE93E0A0E0B0E0EA
:100890008093A1019093A201A093A301B093A4011E
:1008A00025E031E030939E0120939D0125EC30E05E
:1008B0003093AA012093A90124EC30E03093AC01DD
:1008C0002093AB0120EC30E03093AE012093AD01DA
:1008D00021EC30E03093B0012093AF0122EC30E006
:1008E0003093B2012093B10126EC30E03093B40193
:1008F0002093B3011092B6011092B7011092B80183
:100900001092B90110923D0210923C0280933E0277
:1009100090933F02A0934002B093410287E191E09F
:1009200090933B0280933A0210925102109250022F
:1009300010925302109252021092550210925402D9
:100940001092570210925602609158026E7F6D7F8E
:10095000609358026695617081E068278BE00E9481
:100960009301E9EBF0E02491E5EAF0E0849188233B
:1009700099F090E0880F991FFC01EA57FF4FA5916D
:10098000B491FC01E458FF4F859194918FB7F8948E
:10099000EC91E22BEC938FBFE9EBF0E0E491E09374
:1009A0004A02E5EAF0E0E491F0E0EE0FFF1FE458C0
:1009B000FF4F8591949190934C0280934B02E8EB0A
:1009C000F0E02491E4EAF0E084918823C1F090E023
:1009D000880F991FFC01EA57FF4FC591D491FC0184
:1009E000E458FF4FA591B4919FB7F8948881E22F06
:1009F000E0958E2388838C91E823EC939FBF8091B0
:100A0000580281FD04C061E08AE00E9493018AE0FF
:100A100080934602E8EBF0E0E491E0934702E4EAD9
:100A2000F0E0E491F0E0EE0FFF1FE057FF4F8591FB
:100A300094919093490280934802DF91CF91089559
:100A4000789484B5826084BD84B5816084BD85B5A9
:100A5000826085BD85B5816085BD80916E008160B5
:100A600080936E001092810080918100826080935B
:100A7000810080918100816080938100809180005D
:100A80008160809380008091B10084608093B10088
:100A90008091B00081608093B00080917A00846082
:100AA00080937A0080917A00826080937A008091AE
:100AB0007A00816080937A0080917A0080688093C8
:100AC0007A001092C100E091AD01F091AE0182E098
:100AD0008083E091A901F091AA011082E091AB011D
:100AE000F091AC018FEC80831092B501E091B101DF
:100AF000F091B20186E08083E091AF01F091B00106
:100B0000808180618083E091AF01F091B0018081AC
:100B100088608083E091AF01F091B00180818068AE
:100B20008083E091AF01F091B00180818F7D80835F
:100B300064EF71E080E090E00E94040210925502A0
:100B400010925402109253021092520210925102CB
:100B5000109250028DE991E09093570280935602D3
:100B600090914602963108F057C02DEB30E030935B
:100B70005102209350022BE931E03093530220932D
:100B800052022CE231E0309355022093540220911E
:100B90006800983050F031E09E3008F430E081E099
:100BA00001C0880F3A95EAF701C084E0822B809358
:100BB0006800983038F09E3040F0963148F020E0E0
:100BC00030E008C02DE630E005C02BE630E002C082
:100BD0002CE630E030934E0220934D02983030F4F2
:100BE00081E001C0880F9A95EAF70EC0292F30E006
:100BF0009E3018F42850310902C02E50310981E08E
:100C000001C0880F2A95EAF780934F02809156021F
:100C1000909157020197F1F78091540290915502FB
:100C2000892B21F180919B0190919C0122E08A33D4
:100C30009207E1F0009711F00E94E40280915802BF
:100C40008E7F8093580210929A01109299018AE344
:100C500092E090939C0180939B01E0914D02F09172
:100C60004E02908180914F02892B808368EE73E061
:100C700080E090E00E940402809100018823B1F09E
:100C800085E291E00E94FE026CED75E080E090E06C
:100C90000E9404028EE391E00E94FE0268EE73E07F
:100CA00080E090E00E940402109200018DE991E042
:100CB0000E94E900892B79F08DE991E00E94C7003C
:100CC000E0913A02F0913B020190F081E02D682F13
:100CD0008AE392E009958AE392E00E94AB02892BB5
:100CE00079F08AE392E00E94C302E0919D01F091C5
:100CF0009E010190F081E02D682F8DE991E009952A
:100D00000E948901B9CF87E191E090933B028093E3
:100D10003A028AE392E00C94E40297FB072E16F461
:100D2000009407D077FD09D00E94A10607FC05D0EA
:100D30003EF4909581959F4F0895709561957F4FF2
:100D40000895AA1BBB1B51E107C0AA1FBB1FA61712
:100D5000B70710F0A61BB70B881F991F5A95A9F764
:100D600080959095BC01CD010895EE0FFF1F059071
:100D7000F491E02D099481E090E0F8940C94C00681
:100D800010E0C2E6D0E004C0FE010E94B506219644
:0A0D9000C336D107C9F7F894FFCF6E
:100D9A00010000000020018D00B8006701E900C7CA
:100DAA0000DB000000000057028D00FB025602AB78
:100DBA0002C3023E0241542B4E414D453D6D696BC3
:100DCA00726F53696B6172752E64650D0A00415426
:100DDA002B554152543D35373630302C302C3000AB
:00000001FF
