:100000000C9463000C948B000C948B000C9467038D
:100010000C9467030C9467030C948B000C948B0076
:100020000C948B000C948B000C948B000C948B0024
:100030000C948B000C948B000C948B000C948B0014
:100040000C941D030C948B000C94EB020C94C502D1
:100050000C948B000C948B000C948B000C948B00F4
:100060000C948B000C948B0000000008000201002F
:100070000003040700000000000000000000000072
:1000800023002600290000000000240027002A0089
:1000900000000000250028002B00040404040404D0
:1000A0000404020202020202030303030303010227
:1000B00004081020408001020408102001020408F6
:1000C00010202B04CA0611241FBECFEFD8E0DEBFDC
:1000D000CDBF11E0A0E0B1E0E2E4FEE002C0059097
:1000E0000D92A43AB107D9F722E0A4EAB1E001C029
:1000F0001D92AD3AB207E1F710E0C2E6D0E004C0CD
:100100002197FE010E940E07C136D107C9F70E9450
:1001100014050C9414070C940000AF92BF92CF9278
:10012000DF92EF92FF920F931F93CF93DF936C01B7
:100130007B018B01040F151FEB015E01AE18BF0898
:10014000C017D10759F06991D601ED91FC9101904A
:10015000F081E02DC6010995892B79F7C501DF9162
:10016000CF911F910F91FF90EF90DF90CF90BF90B4
:10017000AF900895FC01538D448D252F30E0842FDE
:1001800090E0821B930B541710F0CF9608950197BF
:100190000895FC01918D828D981761F0A28DAE0FAC
:1001A000BF2FB11D5D968C91928D9F5F9F73928F33
:1001B00090E008958FEF9FEF0895FC01918D828D5F
:1001C000981731F0828DE80FF11D858D90E008952C
:1001D0008FEF9FEF0895FC01918D228D892F90E084
:1001E000805C9F4F821B91098F739927089581EF3F
:1001F00091E00E94EB0021E0892B09F420E0822F9E
:10020000089580E090E0892B29F00E94F700811189
:100210000C9400000895FC01A48DA80FB92FB11D06
:10022000A35ABF4F2C91848D90E001968F7399272C
:10023000848FA689B7892C93A089B1898C9183700A
:1002400080648C93938D848D981306C00288F38903
:10025000E02D80818F7D80830895EF92FF920F9330
:100260001F93CF93DF93EC0181E0888F9B8D8C8D62
:1002700098131AC0E889F989808185FF15C09FB756
:10028000F894EE89FF896083E889F9898081837019
:10029000806480839FBF81E090E0DF91CF911F91C8
:1002A0000F91FF90EF900895F62E0B8D10E00F5FE9
:1002B0001F4F0F731127E02E8C8D8E110CC00FB6BF
:1002C00007FCFACFE889F989808185FFF5CFCE0157
:1002D0000E940B01F1CFEB8DEC0FFD2FF11DE35AC6
:1002E000FF4FF0829FB7F8940B8FEA89FB898081DA
:1002F0008062CFCFCF93DF93EC01888D8823B9F054
:10030000AA89BB89E889F9898C9185FD03C0808120
:1003100086FD0DC00FB607FCF7CF8C9185FFF2CF9D
:10032000808185FFEDCFCE010E940B01E9CFDF91E7
:10033000CF9108953FB7F8948091E9019091EA0137
:10034000A091EB01B091EC0126B5A89B05C02F3F11
:1003500019F00196A11DB11D3FBFBA2FA92F982FEB
:100360008827BC01CD01620F711D811D911D42E0E6
:10037000660F771F881F991F4A95D1F708958F92AE
:100380009F92AF92BF92CF92DF92EF92FF924B017A
:100390005C010E949A016B017C010E949A016C1918
:1003A0007D098E099F09683E734081059105A8F378
:1003B00021E0821A9108A108B10888EEC80E83E0F6
:1003C000D81EE11CF11C81149104A104B10429F789
:1003D000FF90EF90DF90CF90BF90AF909F908F9065
:1003E00008952091EF013091F0012817390771F439
:1003F0009091ED018091EE01981741F0E091ED01AF
:10040000F0E0EC55FE4F808190E008958FEF9FEF74
:1004100008950895EF92FF920F931F93CF93DF9368
:10042000DC015C96ED90FC905D97E114F10479F4A9
:1004300081E090E013969C938E93129790E080E079
:10044000DF91CF911F910F91FF90EF9008955196FA
:10045000ED91FC91529750968C915097982F9095D2
:100460000FB75E962C915E97122F127021FD60954A
:10047000F8942081112319F1282B2083E70121977B
:10048000F1F728E0462F50E0308160FF1AC0382B8A
:100490003083E7012197F1F7BA01759567952150EF
:1004A00089F7112381F08081892380830FBF5C96B7
:1004B0008D919C910197F1F781E090E0C1CF2923C4
:1004C000DCCF3923E5CF9081892BEFCF2091EF014D
:1004D0003091F0012817390771F48091EE012091D5
:1004E000ED0190E0805C9F4F821B910960E470E019
:1004F0000E94E606089590E080E008952091EF01C3
:100500003091F00128173907B9F49091ED018091ED
:10051000EE01981789F0E091ED01F0E0EC55FE4F07
:1005200080812091ED0130E02F5F3F4F2F73332703
:100530002093ED0190E008958FEF9FEF089590E0F4
:1005400080E00895FB0101900020E9F73197AF01A9
:10055000461B570BDC01ED91FC910280F381E02DED
:1005600009940F931F93CF93DF93EC010E94A20293
:100570008C0166E571E0CE010E94A202800F911FFE
:10058000DF91CF911F910F9108951F920F920FB697
:100590000F9211242F933F934F935F936F937F9309
:1005A0008F939F93AF93BF93EF93FF9381EF91E06E
:1005B0000E940B01FF91EF91BF91AF919F918F919D
:1005C0007F916F915F914F913F912F910F900FBE4F
:1005D0000F901F9018951F920F920FB60F92112433
:1005E0002F938F939F93EF93FF93E0910102F091EC
:1005F00002028081E0910702F091080282FD1BC097
:10060000908180910A028F5F8F7320910B02821775
:1006100041F0E0910A02F0E0EF50FE4F958F809399
:100620000A02FF91EF919F918F912F910F900FBE32
:100630000F901F9018958081F4CF1F920F920FB6E4
:100640000F9211242F933F938F939F93AF93BF9358
:100650008091E5019091E601A091E701B091E80158
:100660003091E40123E0230F2D3758F50196A11DA9
:10067000B11D2093E4018093E5019093E601A093DE
:10068000E701B093E8018091E9019091EA01A0911E
:10069000EB01B091EC010196A11DB11D8093E90120
:1006A0009093EA01A093EB01B093EC01BF91AF915D
:1006B0009F918F913F912F910F900FBE0F901F90A0
:1006C000189526E8230F0296A11DB11DD2CF1F92C7
:1006D0000F920FB60F9211242F933F934F935F9376
:1006E0006F937F938F939F93AF93BF93EF93FF93FA
:1006F000E091EF01F091F001309749F0A685B785C0
:100700008585968D91FF14C09C918923A1F4FF915A
:10071000EF91BF91AF919F918F917F916F915F9179
:100720004F913F912F910F900FBE0F901F901895F2
:100730009C91892361F7A389B4899C9185898095CF
:1007400089238C93868997890197F1F7608D718D44
:10075000A685B785558538E020E0CB010197F1F7F4
:10076000822F90E095958795282F4C91452309F08D
:100770002068315091F7868D81FD20958091EE01A2
:1007800090E001968F7399273091ED01381799F019
:10079000A091EE01B0E0AC55BE4F2C938093EE01DA
:1007A000828D938D0197F1F7A389B4898C919589F6
:1007B000892B8C93ACCF868D8160868FF1CF90E0B2
:1007C000FC01E859FF4F2491FC01E255FF4F3491A1
:1007D000FC01E656FF4FE491EE23C9F0222339F0E5
:1007E000233001F1A8F4213019F1223029F1F0E091
:1007F000EE0FFF1FE057FF4FA591B4918FB7F8940C
:10080000EC91611126C030953E233C938FBF089533
:100810002730A9F02830C9F0243049F780918000B2
:100820008F7D03C0809180008F7780938000DFCF21
:1008300084B58F7784BDDBCF84B58F7DFBCF80916E
:10084000B0008F778093B000D2CF8091B0008F7DC1
:10085000F9CF3E2BDACF0F931F93CF93DF931092F4
:10086000F4011092F30188EE93E0A0E0B0E08093F1
:10087000F5019093F601A093F701B093F80125E0FC
:1008800031E03093F2012093F10125EC30E0309318
:10089000FE012093FD0124EC30E030930002209310
:1008A000FF0120EC30E0309302022093010221ECA2
:1008B00030E0309304022093030222EC30E03093C6
:1008C00006022093050226EC30E0309308022093C4
:1008D000070210920A0210920B0210920C02109260
:1008E0000D021092910210929002809392029093C6
:1008F0009302A0939402B093950287E191E09093C4
:100900008F0280938E021092A5021092A402109280
:10091000A7021092A6021092A9021092A8021092A9
:10092000AB021092AA026091AC026E7F6D7F609361
:10093000AC026695617081E068278BE00E94DF035E
:1009400049EB50E0FA01649185EA90E0FC012491C2
:10095000222399F030E0220F331FF901EA57FF4FAD
:10096000A591B491F901E057FF4F259134912FB72C
:10097000F8943C91632B6C932FBFFA014491409300
:100980009E02FC018491E82FF0E0EE0FFF1FE0577C
:10099000FF4F859194919093A00280939F0208EB62
:1009A00010E0F8012491C4EAD0E0FE01849188238C
:1009B000C9F090E0880F991FFC01EA57FF4FA591FD
:1009C000B491FC01E057FF4F459154913FB7F89423
:1009D0009C91822F809598239C93FA019081892382
:1009E00080833FBF8091AC0281FD04C061E08AE05A
:1009F0000E94DF038AE080939A02F8010491009339
:100A00009B02FE01C491EC2FF0E0EE0FFF1FE458B3
:100A1000FF4F8591949190939D0280939C02DF916A
:100A2000CF911F910F910895789484B5826084BD11
:100A300084B5816084BD85B5826085BD85B58160E2
:100A400085BD80916E00816080936E001092810060
:100A5000809181008260809381008091810081601B
:100A600080938100809180008160809380008091DC
:100A7000B10084608093B1008091B0008160809368
:100A8000B00080917A00846080937A0080917A002F
:100A9000826080937A0080917A00816080937A00EE
:100AA00080917A00806880937A001092C100E09172
:100AB0000102F091020282E08083E091FD01F09159
:100AC000FE011082E091FF01F09100028FEC808323
:100AD00010920902E0910502F091060286E08083FF
:100AE000E0910302F0910402808180618083E091B3
:100AF0000302F0910402808188608083E091030208
:100B0000F0910402808180688083E0910302F0917B
:100B1000040280818F7D808364EF71E080E090E04B
:100B20000E94BF011092A9021092A8021092A7027F
:100B30001092A6021092A5021092A4028DE991E0F3
:100B40009093AB028093AA0290919A02963108F09A
:100B500047C02DEB30E03093A5022093A4022BE98F
:100B600031E03093A7022093A6022CE231E03093CB
:100B7000A9022093A8022091680084E0983048F0F0
:100B800031E09E3008F430E081E001C0880F3A95F2
:100B9000EAF7822B809368002DE630E0983050F021
:100BA0002BE630E09E3030F02CE630E0963110F04D
:100BB00030E020E03093A2022093A102292F30E000
:100BC000983008F054C081E001C0880F9A95EAF788
:100BD0008093A3028091AA029091AB020197F1F752
:100BE0008091A8029091A902892B49F1E091EF012F
:100BF000F091F00182E0EE38F80709F1309739F012
:100C0000A389B4899C918589809589238C9380914F
:100C1000AC028E7F8093AC021092EE011092ED0137
:100C20008EE892E09093F0018093EF01E091A102B1
:100C3000F091A20280819091A302892B808368EEBB
:100C400073E080E090E00E94BF01C0E0D0E08091BE
:100C50000001882309F46EC08EE892E00E946602CB
:100C6000892B91F08EE892E00E947E02F5CF9E30B3
:100C700040F42850310981E001C0880F2A95EAF735
:100C8000A7CF2E503109F7CF65E271E08EE892E0F0
:100C90000E94A20268EE73E080E090E00E94BF0133
:100CA0008EE892E00E946602892B61F08EE892E065
:100CB0000E946602892B09F448C08EE892E00E94E7
:100CC0007E02F4CF66E571E08EE892E00E94B10208
:100CD00068E271E081EF91E00E94B1026FE271E0A1
:100CE0008EE892E00E94B1026CED75E080E090E049
:100CF0000E94BF0168E471E08EE892E00E94B102B8
:100D00006CED75E080E090E00E94BF0169E571E064
:100D10008EE892E00E94B10268EE73E080E090E01D
:100D20000E94BF01109200016CE971E081EF91E037
:100D30000E94B102209709F48ACF0E94F70088230D
:100D400009F485CF0E94000082CF6BE671E081EF4D
:100D500091E00E94B10262E771E08EE892E00E94A9
:100D6000A2026CED75E080E090E00E94BF0168E8AF
:100D700071E08EE892E00E94A2026CED75E080E0E6
:100D800090E00E94BF0163E971E08EE892E00E946A
:100D9000A202C2CF87E191E090938F0280938E02EE
:100DA0008091EF019091F0018E58924071F4E091A2
:100DB000A102F091A20290818091A30280958923E3
:100DC00080831092F0011092EF01089597FB072E97
:100DD00016F4009407D077FD09D00E94FA0607FCAC
:100DE00005D03EF4909581959F4F0895709561953B
:100DF0007F4F0895AA1BBB1B51E107C0AA1FBB1F51
:100E0000A617B70710F0A61BB70B881F991F5A9596
:100E1000A9F780959095BC01CD010895EE0FFF1FB5
:100E20000590F491E02D099410E0C2E6D0E004C0F2
:100E3000FE010E940E072196C336D107C9F7F89428
:020E4000FFCFE2
:100E420001000000002D018D00BA007A01EB00C9FB
:100E520000DD00000000000A028D009F0209026608
:100E6200027E02F1014154006E657720465700412F
:100E7200542B4E414D453D6D696B726F53696B61E9
:100E820072752E64650D0A0041542B505357443D30
:100E92002231313031220D0A0041542B5541525436
:100EA2003D35373630302C302C30006F6C642046A4
:100EB200570041542B4E414D456D696B726F53691A
:100EC2006B6172752E64650041542B50494E31316D
:100ED20030310041542B4241554437007365742030
:040EE2004F4B000072
:00000001FF
