:020000040000FA
:100000000C94A1010C94C9010C94C9010C942C1DF1
:100010000C942C1D0C942C1D0C94C9010C94C9013A
:100020000C94C9010C94C9010C94C9010C94C90128
:100030000C94C9010C94C9010C94C9010C94C90118
:100040000C948A1C0C94C9010C94FA1C0C94D41CBA
:100050000C94C9010C94C9010C94C9010C94C901F8
:100060000C94C9010C94C9014E414E494E49545952
:10007000494E46CDCCCC3D0AD7233C17B7D1387773
:10008000CC2B329595E6241FB14F0A000020410089
:1000900000C84200401C4620BCBE4CCA1B0E5AAED3
:1000A000C59D7400407A10F35A00A0724E180900E2
:1000B00010A5D4E80000E87648170000E40B5402CD
:1000C0000000CA9A3B000000E1F505000080969808
:1000D00000000040420F000000A086010000001058
:1000E0002700000000E8030000000064000000009A
:1000F000000A00000000000100000000002C76D87B
:1001000088DC674F0823DFC1DFAE59E1B1B796E560
:10011000E3E453C63AE651997696E8E6C28426EBC4
:10012000898C9B62ED407C6FFCEFBC9C9F40F2BAD7
:10013000A56FA5F490055A2AF75C936B6CF9676D6F
:10014000C11BFCE0E40D47FEF520E6B500D0ED90C4
:100150002E0300943577050080841E080000204E91
:100160000A000000C80C333333330F986E1283112A
:1001700041EF8D2114893BE65516CFFEE6DB18D101
:10018000844B381BF77C1D901DA4BBE424203284D3
:10019000725E228100C9F124ECA1E53D27005EBC1E
:1001A000E2613FDD83C29C7E20A3FD1F41009D23B1
:1001B000BE46DB65F88C11AF32CA57E9745E0101A7
:1001C0001F0103030100008A02010A01020201006B
:1001D0000064001E47040B090600007C01010601B3
:1001E0000303010000F401060E010202010000C237
:1001F00001170101020201010000000000000101DD
:10020000000000726E723A006273743A00626D67A9
:100210003A006270663A0062706E3A00626B643A4D
:1002200000626B693A00626B703A006261743A0076
:100230006269743A006274643A006262633A00620E
:1002400068613A00626F6E3A00626E723A00736BD8
:100250006D3A00736F683A00736C733A00736C7395
:100260003A00736E723A007370773A0073626C3AB8
:10027000007373753A007373613A007373623A00E6
:100280007373703A007373723A007373743A007345
:1002900070643A007370743A007370733A0073704C
:1002A000693A003A006D61006D64000000000024AE
:1002B0000027002A000000000800020100000304DB
:1002C0000700000000000000002000204B00205725
:1002D00000204F0020500020440020420030003118
:1002E00000204800204A00205300205100204700F1
:1002F000204900204E0041007200300031003000E3
:10030000310000000000250028002B000000000044
:100310002300260029000404040404040404020247
:100320000202020203030303030301020408102074
:100330004080010204081020010204081020A41DBE
:100340003D2A11241FBECFEFD8E0DEBFCDBF27E08E
:10035000A0EAB1E001C01D92A230B207E1F711E0BE
:10036000A0E0B1E0ECE0F8E602C005900D92A03A02
:10037000B107D9F711E0C0EAD1E004C02197FE012E
:100380000E943531CF39D107C9F70E9482200C94E1
:10039000F9330C940000833081F028F4813099F017
:1003A0008230A9F008958730A9F08830C9F08430F0
:1003B000B1F4809180008F7D03C0809180008F77A1
:1003C00080938000089584B58F7784BD089584B5A7
:1003D0008F7DFBCF8091B0008F778093B000089520
:1003E0008091B0008F7DF9CFCF93DF93282F30E03D
:1003F000F901EB54FD4F8491F901E65DFC4FD49176
:10040000F901EA5EFC4FC491CC23A1F081110E9456
:10041000CB01EC2FF0E0EE0FFF1FE45FFC4FA59146
:10042000B491EC91ED2381E090E009F480E0DF915C
:10043000CF91089580E090E0FACF1F93CF93DF93A0
:10044000282F30E0F901EB54FD4F8491F901E65D6E
:10045000FC4FD491F901EA5EFC4FC491CC23A9F082
:10046000162F81110E94CB01EC2FF0E0EE0FFF1F41
:10047000EE5FFC4FA591B4918FB7F894EC911111F8
:1004800008C0D095DE23DC938FBFDF91CF911F9101
:100490000895DE2BF8CFCF93DF9390E0FC01E65D6B
:1004A000FC4F24918A5E9C4FFC0184918823C9F003
:1004B00090E0880F991FFC01E555FD4FA591B4917F
:1004C000FC01EE5FFC4FC591D49161110DC09FB747
:1004D000F8948C91209582238C93888128232883FB
:1004E0009FBFDF91CF910895623051F49FB7F89488
:1004F0003C91822F809583238C93E8812E2BEFCF24
:100500008FB7F894EC912E2B2C938FBFEACFE82F66
:10051000F0E0EB54FD4FE491E33029F150F4E13089
:10052000C1F0E230D9F060387105BCF560E00C94A0
:100530001D02E73011F1E83041F1E430A1F780917C
:10054000800080628093800070938B0060938A00AB
:10055000089584B5806884BD67BD089584B58062C0
:1005600084BD68BD0895809180008068809380007C
:10057000709389006093880008958091B00080682E
:100580008093B0006093B30008958091B0008062C2
:100590008093B0006093B400089561E0C8CF8E30BE
:1005A00008F08E508770806480937C0080917A0080
:1005B000806480937A0080917A0086FDFCCF8091E0
:1005C00078009091790008958230910538F0880F75
:1005D000991F880F991F05970197F1F708953FB765
:1005E000F8948091E9019091EA01A091EB01B0911A
:1005F000EC0126B5A89B05C02F3F19F00196A11D5F
:10060000B11D3FBFBA2FA92F982F8827BC01CD015C
:10061000620F711D811D911D42E0660F771F881FBB
:10062000991F4A95D1F708958F929F92AF92BF92EA
:10063000CF92DF92EF92FF926B017C010E94EF025A
:100640004B015C01C114D104E104F104B9F00E9432
:10065000EF02681979098A099B09683E7340810590
:10066000910580F321E0C21AD108E108F10888EE73
:10067000880E83E0981EA11CB11CE4CFFF90EF9080
:10068000DF90CF90BF90AF909F908F9008952FB73D
:10069000F8946091E5017091E6018091E7019091F5
:1006A000E8012FBF0895AF92BF92CF92DF92EF92F1
:1006B000FF920F931F93CF93DF936C017B018B010C
:1006C000040F151FEB015E01AE18BF08C017D1075C
:1006D00059F06991D601ED91FC910190F081E02DE6
:1006E000C6010995892B79F7C501DF91CF911F913B
:1006F0000F91FF90EF90DF90CF90BF90AF90089553
:10070000FC01538D448D252F30E0842F90E0821B17
:10071000930B541710F0CF96089501970895FC019C
:10072000918D828D981761F0A28DAE0FBF2FB11DF4
:100730005D968C91928D9F5F9F73928F90E008954C
:100740008FEF9FEF0895FC01918D828D981731F006
:10075000828DE80FF11D858D90E008958FEF9FEF5A
:100760000895FC01918D228D892F90E0805C9F4F30
:10077000821B91098F73992708958DEE91E00E9455
:10078000B10321E0892B09F420E0822F089580E055
:1007900090E0892B29F00E94BD0381110C94000088
:1007A0000895FC01A48DA80FB92FB11DA35ABF4F06
:1007B0002C91848D90E001968F739927848FA68960
:1007C000B7892C93A089B1898C91837080648C93B4
:1007D000938D848D981306C00288F389E02D808163
:1007E0008F7D80830895EF92FF920F931F93CF9395
:1007F000DF93EC0181E0888F9B8D8C8D98131AC05C
:10080000E889F989808185FF15C09FB7F894EE8942
:10081000FF896083E889F98980818370806480839F
:100820009FBF81E090E0DF91CF911F910F91FF90EA
:10083000EF900895F62E0B8D10E00F5F1F4F0F7392
:100840001127E02E8C8D8E110CC00FB607FCFACF4D
:10085000E889F989808185FFF5CFCE010E94D10317
:10086000F1CFEB8DEC0FFD2FF11DE35AFF4FF0821E
:100870009FB7F8940B8FEA89FB8980818062CFCF84
:10088000CF93DF93EC01888D8823B9F0AA89BB89C7
:10089000E889F9898C9185FD03C0808186FD0DC0B2
:1008A0000FB607FCF7CF8C9185FFF2CF808185FFD3
:1008B000EDCFCE010E94D103E9CFDF91CF91089512
:1008C0002091E2013091E3012817390771F49091EA
:1008D000E1018091E001981741F0E091E101F0E041
:1008E000E056FE4F808190E008958FEF9FEF0895CE
:1008F0000895EF92FF920F931F93CF93DF93DC0144
:100900005C96ED90FC905D97E114F10479F481E040
:1009100090E013969C938E93129790E080E0DF9185
:10092000CF911F910F91FF90EF9008955196ED9107
:10093000FC91529750968C915097982F90950FB7A5
:100940005E962C915E97122F127021FD6095F8949F
:100950002081112319F1282B2083E7012197F1F73A
:1009600028E0462F50E0308160FF1AC0382B3083DA
:10097000E7012197F1F7BA0175956795215089F73D
:10098000112381F08081892380830FBF5C968D9134
:100990009C910197F1F781E090E0C1CF2923DCCF52
:1009A0003923E5CF9081892BEFCFEF92FF920F9300
:1009B0001F93CF93DF938C017B01D0E0C0E0F70160
:1009C000EC0FFD1F6491662339F0C8010E94790481
:1009D000892B11F02196F3CFCE01DF91CF911F919A
:1009E0000F91FF90EF9008952091E2013091E30183
:1009F0002817390761F48091E0012091E10190E02E
:100A0000805C9F4F821B91098F739927089590E016
:100A100080E008952091E2013091E3012817390721
:100A2000B9F49091E1018091E001981789F0E0918B
:100A3000E101F0E0E056FE4F80812091E10130E0DD
:100A40002F5F3F4F2F7333272093E10190E00895EC
:100A50008FEF9FEF089590E080E00895DC0180E043
:100A6000615090F09D919827E92FEF70F0E0E356E8
:100A7000FE4F2491E92FE295EF70F0E0E355FE4F31
:100A8000E491822F8E27ECCF0895FC011386158602
:100A90001486128611861086178216821582148299
:100AA00013820895DC012C911196ED91FC91F8943C
:100AB0008181822B81839281322F3095932392837F
:100AC00087E090E00197F1F781818323818383E2BE
:100AD00090E00197F1F790817894EFECF0E0319796
:100AE000F1F7922381E009F480E00895FC01908100
:100AF0000180F281E02D292F209560FF14C0F89429
:100B00008281822382838181892B8183A3E2B0E069
:100B10001197F1F78281982B9283789487ED90E07A
:100B20000197F1F70895F89482818223828381816D
:100B3000892B8183AFEFB0E01197F1F78281982B79
:100B4000928378948FE090E0EBCFDF92EF92FF9268
:100B50000F931F93CF93DF93EC01D62EE42E08E082
:100B600010E0FF24F39461E08D2D8F2109F460E003
:100B7000CE010E947605FF0C01501109A1F7E1108A
:100B800010C0F894E981FA81918188818095892348
:100B90008183E981FA81928188818095892382838A
:100BA0007894DF91CF911F910F91FF90EF90DF909C
:100BB0000895EF92FF920F931F93CF93DF938C01D1
:100BC0007B0140E065E50E94A505E70188E0E80EAD
:100BD000F11C699140E0C8010E94A505CE15DF0512
:100BE000C1F7DF91CF911F910F91FF90EF90089582
:100BF000FC0190810180F281E02DF8948181292F00
:100C000020958223818378943DE743E050E0315082
:100C100029F1DA011197F1F780818923C1F3F89462
:100C20008281822382838181892B81837894ABE7BF
:100C3000B7E01197F1F7F894818182238183A3E1D2
:100C4000B1E01197F1F78081982381E009F080E00D
:100C50007894E3E6F6E03197F1F7089580E008959F
:100C60008F929F92AF92BF92CF92DF92EF92FF92BC
:100C70000F931F93CF93DF9300D000D01F92CDB777
:100C8000DEB78C01DC0119968D919C910E94F805CC
:100C900040E06CECF801818592850E94A505D801A1
:100CA0004C9164E419968D919C910E94A5050E9437
:100CB00047036B017C01F8018481811120C081E030
:100CC0008983CA82DB82EC82FD8229813A814B8151
:100CD0005C816D8170E080E090E00F900F900F904C
:100CE0000F900F90DF91CF911F910F91FF90EF9098
:100CF000DF90CF90BF90AF909F908F9008958581A7
:100D00008823B1F08081811113C0F801818592851B
:100D10000E945205813099F20E9447036C197D09A7
:100D20008E099F096E3E72408105910570F3C7CF11
:100D3000D8011396EC91E9508EEE92E0E33038F44E
:100D4000F0E0EE0FFF1FE35FFE4F808191814C01C9
:100D5000B12CA12CF8018181882321F060E08281EF
:100D60000E941D02C501B4010E941403D80111960E
:100D70008C911197882309F4A2CF61E012968C918F
:100D80000E941D029CCF4F925F926F927F928F9232
:100D90009F92AF92BF92CF92DF92EF92FF920F930A
:100DA0001F93CF93DF938C017B01EA01FC018185C6
:100DB00092850E94F8058823D9F1B701F801818551
:100DC00092850E94D90540E06EEBF80181859285FD
:100DD0000E94A5056E015E01F9E0AF0EB11C7E0117
:100DE000F8018184928488E0682E712C512C44246F
:100DF0004394C4010E94520581115428440CF1E02F
:100E00006F1A7108B1F7F70151927F01AE16BF0654
:100E100039F7F801818592850E94F805813041F407
:100E2000F60181916F01811105C0EE15FF05C1F733
:100E300090E008C068E0CE010E942E0591E0288570
:100E40002813F6CF892FDF91CF911F910F91FF903B
:100E5000EF90DF90CF90BF90AF909F908F907F905A
:100E60006F905F904F9008950F931F93CF93DF93F0
:100E7000EC018E8D8823A1F01E8E0E9447030C8901
:100E80001D892E893F89601B710B820B930B6C8728
:100E90007D878E879F87DF91CF911F910F91089556
:100EA00081E08E8F0E9447030C851D852E853F852E
:100EB000601B710B820B930B6C8B7D8B8E8B9F8BCE
:100EC000EACFCF93DF93EC0188859985DC01ED9122
:100ED000FC910190F081E02D099569AF7AAF8BAF5D
:100EE0009CAFE885F9851682DF011796ED5BFF4F11
:100EF0006D937D938D939D93AE17BF07C9F7DF91D7
:100F0000CF910895DC0112962D913C911397149680
:100F10004D915C9167E2649FC001659F900D112423
:100F2000820F931FFC01E45BFF4F885B9F4FDC0146
:100F30002D913D914D915C91608171818281938170
:100F40000E946E2E881F8827881F08952F923F9237
:100F50004F925F926F927F928F929F92AF92BF92C9
:100F6000CF92DF92EF92FF920F931F93CF93DF9375
:100F7000CDB7DEB763970FB6F894DEBF0FBECDBF17
:100F80009B8B8A8BFC01EC5BFF4F40835183628318
:100F90007383DC01A45BBF4FFC01628173812481F8
:100FA000358147E2429FC001439F900D1124FB0110
:100FB000E80FF91FE05CFF4F40815181628173812E
:100FC0004D935D936D937C9313970E9447036B0140
:100FD0007C010A891B89005B1F4FF8018081918188
:100FE000A281B381A7019601281B390B4A0B5B0B29
:100FF000CA01B9010E94732E6D837E838F83988707
:10100000AA89BB891296ED91FC916685778590E05F
:1010100080E00E94732E9B01AC016D817E818F81E7
:1010200098850E94DB3018160CF01CC1F801C082B4
:10103000D182E282F382EA89FB89EE5BFF4F8081F5
:10104000882309F40FC10E94470369877A878B8739
:101050009C87EA89FB8982A593A5A4A5B5A54985A6
:101060005A856B857C85481B590B6A0B7B0B86A9BF
:1010700097A9A0ADB1AD481759076A077B0708F4D7
:10108000F1C004A0F5A1E02D20813181428153817E
:1010900029833A834B835C83AA89BB899896ED9117
:1010A000FC9160817181828193810E94FC2F4B01B0
:1010B0005C01EA89FB8922A933A944A955A9698160
:1010C0007A818B819C810E94FC2F6B017C01AA8913
:1010D000BB8958962D913D914D915C915B97C501CF
:1010E000B4010E94D42EEA89FB8926A537A540A920
:1010F00051A90E94FD2F2B013C01AA89BB899E9614
:101100004D925D926D927C92D197FD01ED5BFF4F08
:10111000B081BD87B11118C0EA89FB89248935895E
:1011200046895789C701B6010E94D42E9B01AC01A4
:10113000C301B2010E94FC2FAA89BB899E966D93C0
:101140007D938D939C93D197EA89FB8946A457A4FC
:1011500060A871A8FE963080218002811381232D22
:10116000322DA801C301B2010E94DB3018160CF029
:10117000C3C0832D922DD801EA89FB8986A797A742
:10118000A0ABB1ABBD85BB2309F4D5C0EA89FB890F
:101190002489358946895789C501B4010E94D42E16
:1011A0004B015C01AA89BB895C962D913D914D91C3
:1011B0005C915F97C701B6010E94D42E9B01AC01E0
:1011C000EA89FB8966A577A580A991A90E94FC2FD1
:1011D000A50194010E94FD2F6B017C019B01AC01D4
:1011E000632D722DC8010E946E2E87FD19C0AA8939
:1011F000BB89DA963C90DA97DB962C90DB97DC96ED
:101200000C91DC97DD961C91232D322DA801B6019F
:10121000C7010E946E2E87FD03C03C2C2D2C870138
:10122000AA89BB899696ED91FC91832D922DD801C8
:1012300080839183A283B38329813A814B815C812E
:10124000AA89BB89D2962D933D934D935C93D597F4
:1012500029853A854B855C859A962D933D934D93D0
:101260005C939D97EA89FB89E85BFF4FC080D18042
:10127000E280F380EA89FB891681A70196016D81DE
:101280007E818F8198850E946E2E18160CF457C0AF
:10129000AA89BB891296ED91FC91228933894489F0
:1012A0005589C701B6010E94DB3018160CF047C003
:1012B000112309F44BC081E0AA89BB8916968C934F
:1012C000EA89FB89868163960FB6F894DEBF0FBE6C
:1012D000CDBFDF91CF911F910F91FF90EF90DF90E5
:1012E000CF90BF90AF909F908F907F906F905F90C6
:1012F0004F903F902F900895AA89BB89DA962D913F
:101300003D914D915C91DD972E873F87488B598B9E
:10131000C301B2010E946E2E87FF34CF2E853F8518
:1013200048895989AA89BB899E962D933D934D93EF
:101330005C93D19727CF812C912C540133CF11117D
:101340000AC0AA89BB8916961C92BACF81E0EA89A5
:10135000FB898783B0CF81E0EA89FB898783F1CF5E
:10136000FC0186810895FC01878117820895CF933F
:10137000DF93EC016C96CE010E94F404892B29F0D6
:10138000CE01DF91CF910C940A0590E080E0DF91CF
:10139000CF9108954C960C94D504CF93DF93EC0134
:1013A000E881F9810284F385E02D09951816190664
:1013B0001CF090E080E029C08D309105E9F0ACF49C
:1013C0008A309105B1F32E893F892331310588F7A1
:1013D000A9014F5F5F4F5F8B4E8B2C0F3D1FF901B3
:1013E0008283C40FD51F1A82E4CF8431910509F39B
:1013F0008F3F910541F7DDCF8E899F891F8A1E8A15
:1014000018161906B4F6CE010296DF91CF91089511
:101410000F931F93CF93DF93FC012289222331F096
:1014200080E0DF91CF911F910F910895EC010E9410
:101430004703088119812A813B81DC01CB01801B94
:10144000910BA20BB30B88879987AA87BB870C8166
:101450001D812E813F8180179107A207B30700F3FA
:10146000088719872A873B8781E0DBCFCF93DF93FB
:10147000FC012089211109C0EC010E944703688307
:1014800079838A839B8381E0888BDF91CF91089554
:10149000FC01108211821282138214861586168630
:1014A0001786108A118A128A08956F927F928F92FE
:1014B0009F92AF92BF92CF92DF92EF92FF920F93E3
:1014C0001F93CF93DF93DC015E962C912111DAC13B
:1014D000162FEC017C01BFE1EB0EF11CC7010E944D
:1014E000360AC7010E94080A882309F4A5C0C7016B
:1014F0000E94480A88859985DC01ED91FC91019054
:10150000F081E02D0995762E072F5C01862F902F14
:10151000D50189AF9AAFABAFBCAF20E030E040EF70
:1015200052EC672D702FC5010E946E2EFE01EB5B01
:10153000FF4F4F0187FF88C184E08083E884F984EE
:10154000F7016680C62CD12C20E030E04CEF52EC45
:10155000672D702FC5010E946E2ECC0CDD1CCC0CAB
:10156000DD1C87FF73C1D701AC0DBD1D17965C91C3
:10157000179718964C91189719963C9119971A96A7
:101580002C91F701EC0DFD1D852F942FA32FB22F69
:1015900087839087A187B28781E0860D8F3008F01E
:1015A0005AC1D70116968C936E01F6E4CF0ED11C6A
:1015B000D6012C91211109C0872D902FD501FE0154
:1015C000FD9680839183A283B383112361F0F70199
:1015D0008681811108C0E881F98185A5882319F0E9
:1015E0002F5FD6012C938E819F81DC01ED91FC91C0
:1015F0000680F781E02D0995811102C0F601108265
:10160000E881F981D6019C9185A5891790F41C92F7
:10161000FE01FD96208131814281538169AD7AAD11
:101620008BAD9CAD0E946E2E18161CF083E0F40169
:1016300080838AA98F5F8AAB8E819F81DC01ED91C7
:10164000FC910480F581E02D0995882309F406C1F9
:1016500082E08AAB8AA9823008F412C11AAAEA8011
:10166000FB80F70180810E94CF02D7011196ED9097
:10167000FC90BC01990F880B990B0E94752E2FECE2
:1016800032ED47EA5CE30E94D42E20E030E040E8EF
:101690005EE30E94FD2F9B01AC01F70163A174A1E1
:1016A00085A196A10E94DB3018160CF0E3C081E002
:1016B0008EABFE01EB5BFF4F8083112309F448C022
:1016C000CE80DF80D6011296ED91FC91139704A590
:1016D00014968D919C9127E2289F7001299FF00C10
:1016E0001124EE0EFF1EB0E4EB0EF11C602F70E033
:1016F00090E080E00E94752EF701208131814281C7
:1017000053810E94FD2F4B015C01AC019B0169AD2F
:101710007AAD8BAD9CAD0E94DB301816CCF4002363
:10172000B9F0A5019401FE01EF5BFF4F608171816B
:10173000828193810E94DB30181654F0C6010E940A
:101740008207811105C082E0FE01EB5BFF4F8083C1
:101750008A859B85DC01ED91FC912DA9222309F45A
:101760008BC0112309F488C0DE01AB5BBF4F2C9105
:10177000211182C00190F081E02D099589AC9AACCD
:10178000ABACBCACE881F9818481882309F48AC0C0
:101790008C819D81DC01ED91FC910190F081E02D27
:1017A00000E010E09801B501A40109958DAB8CA96A
:1017B000811123C08E819F810E948207E881F98177
:1017C0004FA958AD97E2949F9001959F300D112439
:1017D000E20FF31FE05CFF4FC080D180E280F38016
:1017E000A5019401882309F494C0C701B6010E94A1
:1017F000DB3087FD02C081E08CAB8CA9882309F423
:1018000041C08E01045F1F4F8D8D882309F489C06C
:10181000888D998DAA8DBB8D888B998BAA8BBB8B5C
:10182000C8010E94360AC801DF91CF911F910F9124
:10183000FF90EF90DF90CF90BF90AF909F908F90F0
:101840007F906F900C94080A108278CE572D402F0D
:101850003A2D2B2D96CEF7011682A6CE8C819D8136
:10186000DC01ED91FC910480F581E02D0995811159
:10187000EFCEF0CE1EAA21CF0280F381E02D099594
:1018800011117CCF80E0DF91CF911F910F91FF90DC
:10189000EF90DF90CF90BF90AF909F908F907F9010
:1018A0006F900895EE80FF80D701ED91FC91C0808C
:1018B000D180E885F9852681422F50E021111AC098
:1018C000DF01DF966D917D918D919C919A01220FA0
:1018D000331F220F331FE20FF31F2781308541850D
:1018E00052850E94FC2F8B019C01B501A401C70108
:1018F000F6015BCFDA011197AA0FBB1FAA0FBB1F1E
:10190000AE0FBF1F17966D917D918D919C911A9787
:10191000DDCFC701B6010E946E2E18160CF06BCFFA
:101920006CCFE881F9812FA938AD47E2429FC00111
:10193000439F900D1124E80FF91FEC5BFF4F2081AE
:10194000318142815381A0E6BAEE0E94AB2F688BB1
:10195000798B8A8B9B8B64CFCF93DF93EC011BAA8F
:101960001CAA1DAA8A859B85DC01ED91FC91028051
:10197000F381E02D099518AE1FAACE010C960E94A6
:10198000480A82E08AABFE01EB5BFF4F1082CA5B24
:10199000DF4F1882DF91CF9108950F931F93CF935C
:1019A000DF93EC018B010E94AC0C18AF0FAB8C8164
:1019B0009D81DC0115961C930E931497ED91FC917B
:1019C0000280F381E02D09958E819F812FA938AD8A
:1019D000FC01358324830190F081E02D0280F381A6
:1019E000E02D0995FE01EF5BFF4F89AD9AADABADE0
:1019F000BCAD80839183A283B383DF91CF911F918C
:101A00000F9108952F923F924F925F926F927F9223
:101A10008F929F92AF92BF92CF92DF92EF92FF92FE
:101A20000F931F93CF93DF93CDB7DEB728970FB6F1
:101A3000F894DEBF0FBECDBF98878F836A017B010C
:101A40000B831C832D833E83DC0112960D90BC9189
:101A5000A02DBA83A983FC012480358087E2829D72
:101A60008001839D100D11240A0F1B1FF801E05CFB
:101A7000FF4F408051806280738070962081318159
:101A8000428153816B817C818D819E810E94D42E05
:101A90004B015C01AF81B88516968C91F8018823C3
:101AA00009F4D3C0E45BFF4F20813181428153812F
:101AB000C301B2010E94FD2FA50194010E94FC2FD9
:101AC000A70196010E946E2E881F8827881F91E02B
:101AD000B82EB92627E2229DC001239D900D112426
:101AE000E981FA818E0F9F1FFC01E45AFF4F20818C
:101AF00031812115310509F450C0825A9F4FDC0114
:101B00008D919C91892B09F448C00F811885085F3D
:101B10001F4FBB2009F4E1C0EF81F885818D882338
:101B200009F4ACC084899589A689B789848795878B
:101B3000A687B787C8010E94360AC8010E94080A12
:101B4000BB24B394882349F1EF80F884FBE1EF0EC6
:101B5000F11CAF81B8859C968C919C97882309F4E1
:101B60009BC097968D919D910D90BC91A02DEF817A
:101B7000F885878F90A3A1A3B2A3C7010E94360A5C
:101B8000C7010E94080AB82E882339F0C8010E94B4
:101B9000480AC7010E94480AB12CAF81B885129645
:101BA000ED91FC91139714962D913C9147E2429F41
:101BB000C001439F900D1124E80FF91FE05AFF4F19
:101BC000C080D180E280F38020E030E0A901C7012D
:101BD000B6010E94DB3018165CF4A70196016B81F8
:101BE0007C818D819E810E94DB3018160CF4B12C13
:101BF0008F8198850E948207882311F081E0B826A2
:101C0000EF81F8858681B81611F081E08783AF8176
:101C1000B8851696BC928B2D28960FB6F894DEBF29
:101C20000FBECDBFDF91CF911F910F91FF90EF902D
:101C3000DF90CF90BF90AF909F908F907F906F90EC
:101C40005F904F903F902F900895E85BFF4F208169
:101C5000318142815381C301B2010E94FD2FA50150
:101C600094010E94FC2FBB24B394A70196010E940B
:101C7000DB3018160CF42ECFB12C2CCF48EE53E0ED
:101C8000249FC001259F900D349F900D1124B0E03A
:101C9000A0E0EF81F8854ACFAF81B8851296ED912B
:101CA000FC91139714962D913C9147E2429FC001FD
:101CB000439F900D1124E80FF91FE25AFF4F408116
:101CC000518128EE33E0429FC001439F900D529F07
:101CD000900D1124B0E0A0E04ACFC8010E94480A4C
:101CE0008F8198854B960E94480A57CFCF93DF93F8
:101CF000EC011E821F8208960E94480ACE014B9674
:101D0000DF91CF910C94480AFC0185810895CF930F
:101D1000DF93EC0161E08A810E941D02ED81FE816A
:101D2000808D918D0E94E40260E08A810E941D02F4
:101D3000ED81FE81808D918D9C01220F331F820FDA
:101D4000931FDF91CF910C94E4023F924F925F92E8
:101D50006F927F928F929F92AF92BF92CF92DF92BB
:101D6000EF92FF920F931F93CF93DF93EC012A0121
:101D70003B016901F12CE12C812C912C54018394BD
:101D800065E2362EED81FE8187898E151F0409F0EC
:101D90000CF455C086010150110980F1D501C40130
:101DA000002E04C0880F991FAA1FBB1F0A94D2F7E8
:101DB00084219521A621B721892B8A2B8B2B21F0F9
:101DC000CE010E94870EE7CF61E08A810E941D024A
:101DD000ED81FE81808D918D9C01220F331F820F3A
:101DE000931F0E94E40260E08A810E941D02ED813F
:101DF000FE81808D918D0E94E402CDCFCE010E94A4
:101E0000870E61E08A810E941D02ED81FE81808D36
:101E1000918D0E94E40260E08A810E941D02ED81A2
:101E2000FE81808D918D9C01329EC001339E900D6C
:101E300011240E94E4023FEFE31AF30AA3CFDF91DB
:101E4000CF911F910F91FF90EF90DF90CF90BF90B7
:101E5000AF909F908F907F906F905F904F903F904A
:101E60000895DF92EF92FF920F931F93CF93DF932A
:101E70008C01D62EE72EDC011F968C9160E0FF24AA
:101E8000F394811102C061E0F12CD8011596ED9117
:101E9000FC91C08DD18D209719F4F801C781D085B0
:101EA000D80112968C910E941D02DC9EC001DD9E1D
:101EB000900D11240E94E4026F2DF80182810E948E
:101EC0001D02EC9EC001ED9E900D1124DF91CF917B
:101ED0001F910F91FF90EF90DF900C94E4024F92CE
:101EE0005F926F927F928F929F92AF92BF92CF92AA
:101EF000DF92EF92FF920F931F93CF93DF93EC014A
:101F00002A013B016901F12CE12C812C912C540117
:101F10008394ED81FE8187898E151F04A1F19CF1C8
:101F20008889882329F069857A85CE010E94310F3E
:101F3000860101501109D8F0D501C401002E04C05A
:101F4000880F991FAA1FBB1F0A94D2F784219521DD
:101F5000A621B721892B8A2B8B2B31F06D857E85AD
:101F6000CE010E94310FE5CF6B857C85F9CF888942
:101F7000811105C069857A85CE010E94310F8FEFEE
:101F8000E81AF80AC6CFDF91CF911F910F91FF9009
:101F9000EF90DF90CF90BF90AF909F908F907F9009
:101FA0006F905F904F900895CF93DF93EC018A81FB
:101FB000662381F161E00E941D02ED81FE81808D2A
:101FC000918D0E94E40260E08A810E941D02ED81F1
:101FD000FE81808D918D25E0AC01249FC001259F5D
:101FE000900D11240E94E40261E08A810E941D028A
:101FF000ED81FE81808D918D0E94E40260E08A81F6
:102000000E941D02ED81FE81808D918DDF91CF9127
:102010000C94E40261E00E941D02ED81FE81808D3E
:10202000918D0E94E40260E08A810E941D02ED8190
:10203000FE81808D918D0E94E40261E08A810E9480
:102040001D02ED81FE81808D918D0E94E40260E091
:102050008A810E941D02ED81FE81808D918D25E097
:10206000AC01249FC001259F900D1124CFCF4F922A
:102070005F926F927F92AF92BF92CF92DF92EF9278
:10208000FF920F931F93CF93DF93EC01B62EED8158
:10209000FE81F7885AE0A52ECC24C394D12C78E297
:1020A000E72EF7FC7EC0ED81FE81438C548C658C5D
:1020B000768C61E08A810E941D02ED81FE81808D17
:1020C000918D0E94E40260E08A810E941D02ED81F0
:1020D000FE81208D318DA29EC001A39E900D112402
:1020E00036952795820F931F0E94E40209E110E0C4
:1020F000D301C201002E04C0B695A7959795879588
:102100000A94D2F7682F6170CE010E94D40F01505B
:10211000110970F760E0CE010E94D40F6B2DCE0143
:102120000E94D40F03E010E0ED81FE81C601002E75
:1021300002C0880F991F0A94E2F7092E000CAA0B1F
:10214000BB0B478D50A161A172A184239523A623C7
:10215000B72361E0892B8A2B8B2B09F460E0CE0139
:102160000E94D40F01501109F8F661E08A810E94A3
:102170001D02ED81FE81808D918D0E94E40260E060
:102180008A810E941D02ED81FE81808D918D9C01CE
:10219000E29EC001E39E900D11240E94E402FA9495
:1021A00080CFDF91CF911F910F91FF90EF90DF9043
:1021B000CF90BF90AF907F906F905F904F900895B9
:1021C000DC0114962C911497211108C013962C91C0
:1021D0001397222319F021E014962C93FC0113820B
:1021E0000580F681E02DA689A11103C060E00C9462
:1021F0003710A13061F0478D50A161A172A1228DED
:1022000030E0A23011F40C94A50E0C946F0F0895D9
:10221000DC0114962C911497211108C013962C916F
:102220001397211103C021E014962C9321E0FC01A7
:1022300023830580F681E02DA689A11103C061E00A
:102240000C943710A13061F0438D548D658D768DDF
:10225000228D30E0A23011F40C94A50E0C946F0F77
:102260000895FC0183810895FC0184810895FC0197
:1022700086A997A99F01225D3F4FDC01ED91FC915A
:102280000280F381E02D48E050E06EE972E00994AD
:10229000EF92FF920F931F93CF93DF938C01DC019A
:1022A000D6968D919C91DC01ED91FC910280F38199
:1022B000E02D98014EE250E070E060E00995CEE23A
:1022C000D0E07801BFE0EB0EF11CF80186A997A9D8
:1022D00097012C0F3D1FDC01ED91FC910280F381F1
:1022E000E02D47E250E0BE010995A796CE39B2E055
:1022F000DB0759F7DF91CF911F910F91FF90EF907E
:102300000895BF92CF92DF92EF92FF920F931F93A7
:10231000CF93DF93EC01B62EC72E8D85811105C0BA
:10232000CE010E94F80581110EC01B861D861C86F9
:1023300080E0DF91CF911F910F91FF90EF90DF90A0
:10234000CF90BF90089540E060EFCE010E94A505B8
:1023500001E0E12CD12C11E0CE010E945205F82EB3
:10236000CE010E94520591E0F91218C0813099F512
:102370001134D8F2DB86D11002C081E08D878B81C9
:10238000882399F22396EB2DFC2DCF0108962991F5
:102390002193E817F907D9F781E0CBCFEE2DF0E0D4
:1023A000F8120FC08B851817A0F4DE01AE0FBF1F07
:1023B00013968C91802379F4F12C193008F41C8742
:1023C000D12EEC0FFD1F8381902F9095892383835D
:1023D0000AC08113F1CFFE01EE0DF11D8381802B28
:1023E0008383FF24F3946F2DCE010E9476051F5F37
:1023F000000F11F4E39401E087E08E1508F0ACCFF4
:10240000B7CFBF92CF92DF92EF92FF920F931F93BD
:10241000CF93DF93CDB7DEB761970FB6F894DEBFE9
:102420000FBECDBF7C01DC010D911C9183E0D82E45
:10243000CC24C394F801818592850E944505D8017A
:1024400017961C92179718961C9262E370E080E032
:1024500090E00E941403BE01665F7F4FF801818502
:1024600092850E948111882309F477C067E0CE012C
:102470000A960E942E0599898913EDCFD8011796E7
:102480008C9117978F5F17968C938A85883231F0DD
:1024900008F04AC0803111F08232E9F6F8018085F7
:1024A0008F5F80878081811124C0818592850E9401
:1024B000F805BE01665F7F4FD80119968D919C91FA
:1024C0000E94D90540E064EBF801818592850E9465
:1024D000A505D80119968D919C910E945205B82EA0
:1024E000F801818592850E94F805B11002C0D801DB
:1024F000CC928A85803119F1AE014F5F5F4FBE01EA
:10250000665F7F4FC8010E94C306882359F08D8102
:102510009A859B3311F487FD12C08F3391F058F4E4
:102520008F31B9F080E00EC08B3309F4B7CF82341D
:1025300009F091CFB3CF8F3571F08F3799F78CE0D9
:1025400001C08AE0F8019381981708F084CF838353
:1025500082CF89E0F7CF8BE0F5CFD80117968C9129
:10256000811103C0DA94D11065CFF7010081118188
:102570008BE0D80113968C93139719968D919C91AB
:102580000E944505C12CF8018781C81608F0B0C02B
:10259000BE01665F7F4F818592850E9481118823ED
:1025A00009F485C067E0CE010A960E942E0599893C
:1025B00089137DC08A85803109F479C0D8011396CA
:1025C000DC90AE014F5F5F4FBE01665F7F4FC80179
:1025D0000E94C306882309F46AC0ED2DED3008F48B
:1025E00068C0ECE0EA508FE1E33020F4F0E0E65F11
:1025F000FE4F80819D81981709F459C08D83F801A1
:10260000818592850E94F805BE01665F7F4FD801E3
:1026100019968D919C910E94D90540E06EE4F801D5
:10262000818592850E94A50540E06B81D8011996AD
:102630008D919C910E94A50540E06C81F8018185F7
:1026400092850E94A5058A85803141F040E06D8128
:10265000D80119968D919C910E94A505F80181855C
:1026600092852681222309F10E94F8058823F9F03A
:10267000BE01665F7F4FD80119968D919C910E9493
:10268000D905F801408168E4818592850E94A505FD
:10269000D8018C91811112C064E170E080E090E07B
:1026A0000E941403F801818592850E94F805C39465
:1026B0006ACFE93008F096CFE9E094CFF801818144
:1026C000882321F060E082810E941D0264E170E0B5
:1026D00080E090E00E941403D80111968C9111972C
:1026E000882301F361E012968C910E941D02DACFDB
:1026F000D701ED91FC91119714828D919C910E94CC
:10270000300661960FB6F894DEBF0FBECDBFDF91E5
:10271000CF911F910F91FF90EF90DF90CF90BF90DE
:1027200008958F929F92AF92BF92CF92DF92EF92D5
:10273000FF920F931F93CF93DF93CDB7DEB76197CF
:102740000FB6F894DEBF0FBECDBF6C017C0143E431
:10275000E40EF11CF70100811181F80187818111DC
:1027600043C0812C912CAEEFAA2EA2ECBA2EF70119
:10277000808191810E94300629833A834B835C8358
:102780006D8320E030E04CEF52ECC501B4010E94B3
:102790006E2E87FF03C0C7010E940112F60103815C
:1027A0001481F8012681378140855185C501B40126
:1027B0000E94D42EF80122853385448555850E94D8
:1027C000FD2F61960FB6F894DEBF0FBECDBFDF912F
:1027D000CF911F910F91FF90EF90DF90CF90BF901E
:1027E000AF909F908F900895818592850E944505B6
:1027F000BE01665F7F4FF801818592850E9481113D
:10280000882309F4AECF67E0CE010A960E942E0518
:1028100099898913A6CFAE014F5F5F4FBE01665FF6
:102820007F4FC8010E94C306882309F49ACF8A818A
:10283000812C912C540187FF06C0812C912CF8EF3C
:10284000AF2EBB24BA949A8549819B3309F03FC0CF
:102850002D8127FF3CC040FD84CF042F10E030E0E5
:1028600020E073E0000F111F221F331F7A95D1F76C
:10287000B901A801407E57706627772790E0B0E045
:10288000A0E08C019D01EBE0000F111F221F331F00
:10289000EA95D1F7042B152B262B372B082919295C
:1028A0002A293B29013854EE15075FEF2507350724
:1028B0000CF457CFC901B8010E94752E20E030E01A
:1028C00040E05CE30E94D42E4B015C0150CF082F06
:1028D00010E0102F0027110F110F110FF8E04F9F7C
:1028E000A0011124042B152B012E000C220B330BFD
:1028F000082919292A293B299031A1F668856623E0
:1029000089F270E08F81AB01481B5109CA0196958D
:10291000982F8827979587950E94E030CB01770FF5
:10292000AA0BBB0B53E0000F111F221F331F5A9538
:10293000D1F7007827703327005211092109310996
:10294000800F911FA21FB31F95018401082B192B23
:102950002A2B3B2BA7CFCF93DF93EC0160E08A813A
:102960000E944B02CE018D5B9F4FDF91CF910C9463
:1029700001122F923F924F925F926F927F928F92AD
:102980009F92AF92BF92CF92DF92EF92FF920F93FE
:102990001F93CF93DF9300D000D0CDB7DEB79C83D9
:1029A0008B83DC0116961C92169717961C9217972C
:1029B000D6966D917D918D919C91D9970E94732EA1
:1029C0009B01AC0160E070E08AE795E40E94693009
:1029D0006B017C01AC019B01EB81FC81608D718DF1
:1029E000828D938D0E94D42EAB81BC8158966D93BD
:1029F0007D938D939C935B97A70196015C966D9157
:102A00007D918D919C915F970E946930EB81FC8153
:102A1000648F758F868F978F80EA9FE0A0E0B0E08B
:102A200086AB97ABA0AFB1AF228033808481958114
:102A300027E2289F8001299F100D1124020D131DEC
:102A4000F801E05BFF4FC080D180E280F38020E09E
:102A500030E0A901C701B6010E946E2E87FD91C02A
:102A6000F801EC5AFF4F80809180A280B38020E073
:102A700030E0A901C501B4010E946E2E87FD81C01E
:102A8000F801E85AFF4F408051806280738020E057
:102A900030E0A901C301B2010E946E2E87FD71C012
:102AA000EB81FC81ED5BFF4F81E0AB81BC819296B5
:102AB0002D913C912130310509F080E08083EB813C
:102AC000FC81C086D186E286F38684869586A686BA
:102AD000B786408A518A628A738AC48AD58AE68A0E
:102AE000F78A20E030E040E850E4C501B4010E94DC
:102AF000D42E4B015C01EB81FC81808E918EA28EE5
:102B0000B38E20E030E040E85EE3C301B2010E94F2
:102B1000D42E2B013C01AB81BC815C964D925D9221
:102B20006D927C925F9790968D919C91019749F55B
:102B3000A701960160E070E0CB010E94FC2FEB81C1
:102B4000FC81648B758B868B978BA501940160E06B
:102B500070E0CB010E94FC2FAB81BC8158966D9335
:102B60007D938D939C935B97A301920160E070E04D
:102B7000CB010E94FC2FEB81FC81648F758F868FC7
:102B8000978FD1011E966D917C9190E080E00E941C
:102B9000732E4B015C01F101C288D388E488F5886B
:102BA000AB81BC8196960D911C91A70196010E9464
:102BB0006E2EEB81FC81FE961F012B813C812E5BEA
:102BC0003F4F3A83298318160CF05EC0AB81BC815D
:102BD000DA96CD92DD92ED92FC92DD978082918221
:102BE000A282B382D9018C91882309F44DC0F801E7
:102BF0004080518062807380A3019201C501B401BD
:102C00000E946E2E87FF24C0D8018D929D92AD92B6
:102C1000BC921397AB81BC819E968D909D90AD9098
:102C2000BC90D197F101C080D180E280F380A701F0
:102C30009601C501B4010E94DB301816BCF4AB81CB
:102C4000BC819E96CD92DD92ED92FC92D1971CC0F4
:102C5000A3019201C701B6010E94DB301816D4F619
:102C6000F801C082D182E282F382D4CFEB81FC8171
:102C7000C2ACD3ACE4ACF5ACA7019601C501B4017C
:102C80000E946E2E87FDDBCFE981FA811082EB81F5
:102C9000FC81E85BFF4F1082118212821382D801FF
:102CA000CD90DD90ED90FC90EB81FC81C6A6D7A67F
:102CB000E0AAF1AA04A0F5A1E02D80819181A28172
:102CC000B381EB81FC8182AB93ABA4ABB5ABD101FB
:102CD0008D909D90AD90BC90A5019401C701B60167
:102CE0000E94DB3018163CF4EB81FC8186A697A687
:102CF000A0AAB1AA10C0AB81BC81DA968D909D903C
:102D0000AD90BC90DD97A5019401C701B6010E946A
:102D10006E2E87FDE9CF81E0A981BA818C930E9454
:102D20004703EB81FC81E05BFF4F6083718382830B
:102D300093830F900F900F900F90DF91CF911F9181
:102D40000F91FF90EF90DF90CF90BF90AF909F904A
:102D50008F907F906F905F904F903F902F9008954D
:102D6000CF93FC01C08161E08C2F0E944B0260E098
:102D70008C2FCF910C941D02CF93DF93CAE8D2E041
:102D80001FA218A61EA21F8E18A219A21AA21BA269
:102D90001DA21CA28E819F810E94B0168C819D81F4
:102DA0000E94AC0C8C819D81DF91CF910C946107C6
:102DB000CF93DF93EB012091B002211122C0A091AB
:102DC0008A02B0918B0221E02093B002ED91FC9138
:102DD00011970680F781E02DBC01CD01099528816E
:102DE00080918A0290918B02DC01ED91FC9100842C
:102DF000F185E02D60E073E0211102C06EEF72E01A
:102E0000099580918A0290918B02DC01ED91FC91F1
:102E10000284F385E02D09959C012053310922306D
:102E2000310528F51092B002C09791F41882809174
:102E30008A0290918B02DC01ED91FC910084F18576
:102E4000E02D6AEF72E0099581E0DF91CF9108955E
:102E500081E0888380918A0290918B02DC01ED9160
:102E6000FC910084F185E02D6CEF72E0ECCF8737A8
:102E7000910551F38837910519F40E94BC16E4CFEF
:102E80008136910511F41092B00280E0DECFCF922E
:102E9000DF92EF92FF920F931F93CF93DF93C82F90
:102EA000D62F80918A0290918B02DC01ED91FC91EA
:102EB0000680F781E02D66EF72E009950E944703D6
:102EC000C090C802D090C902E090CA02F090CB0234
:102ED0006C197D098E099F090E94732E04EB12E084
:102EE00020E041E00E945F2A80918A0290918B024B
:102EF000DC01ED91FC910280F381E02DB801099590
:102F000080918A0290918B02DC01ED91FC91068008
:102F1000F781E02D63EF72E009956091AE02709148
:102F2000AF02072E000C880B990B0E94752E20E033
:102F300041E00E945F2A80918A0290918B02DC011D
:102F4000ED91FC910280F381E02DB801099580910B
:102F50008A0290918B02DC01ED91FC910680F78151
:102F6000E02D60EF72E00995A0919202B09193027A
:102F7000DD2309F4F9C1ED91FC9111970190F081E5
:102F8000E02DCD01099522E041E00E945F2A809169
:102F90008A0290918B02DC01ED91FC910280F38119
:102FA000E02D64EB72E0099580918A0290918B028A
:102FB000DC01ED91FC910680F781E02D6DEE72E071
:102FC0000995E0919202F09193022681422F50E000
:102FD0002111E6C1DF01DF966D917D918D919C916C
:102FE0009A01220F331F220F331FE20FF31F278195
:102FF0003085418552850E94FC2F04EB12E022E0CF
:1030000042E00E945F2A80918A0290918B02DC014B
:10301000ED91FC910280F381E02DB8010995E091DA
:103020008E02F0918F02EB5BFF4F8081882309F4C1
:10303000C6C180918A0290918B02DC01ED91FC91D6
:103040000680F781E02D6AEE72E00995E0918E022C
:10305000F0918F02EB5BFF4F608170E090E080E0C9
:103060000E94732E20E041E00E945F2A80918A0234
:1030700090918B02DC01ED91FC910280F381E02DB7
:10308000B8010995E0919002F0919102D08161E040
:103090008D2F0E944B0264EB70E08D2F0E948702FF
:1030A00080918A0290918B02DC01ED91FC91068067
:1030B000F781E02D67EE72E00995E0918C02F091C6
:1030C0008D022091AE023091AF0247E2429FC001D3
:1030D000439F900D1124E80FF91FE05CFF4F6081C2
:1030E00071818281938104EB12E022E041E00E9431
:1030F0005F2A80918A0290918B02DC01ED91FC9114
:103100000280F381E02DB801099580918A029091A7
:103110008B02DC01ED91FC910680F781E02D64EEDD
:1031200072E0099560E070E0CB010E94752E20E00E
:1031300041E00E945F2A80918A0290918B02DC011B
:10314000ED91FC910280F381E02DB8010995809109
:103150008A0290918B02DC01ED91FC910680F7814F
:10316000E02D61EE72E00995E0918E02F0918F0200
:1031700082859385DC01ED91FC910680F781E02D3D
:103180000995A0918A02B0918B02ED91FC91119763
:103190000680F781E02D6FED72E0811102C06DEDC8
:1031A00072E0CD01099580918A0290918B02DC0139
:1031B000ED91FC910680F781E02D6AED72E00995B2
:1031C000E0918E02F0918F020280F381E02D8081E8
:1031D0000E94CF02BC01990F880B990B0E94752E9B
:1031E0002FEC32ED47EA5CE30E94D42E20E030E081
:1031F00040E85EE30E94FD2F04EB12E022E041E094
:103200000E945F2A80918A0290918B02DC01ED91ED
:10321000FC910280F381E02DB8010995E0918E02C6
:10322000F0918F0284A98823B9F180918A0290914C
:103230008B02DC01ED91FC910680F781E02D67EDBA
:1032400072E00995E0918E02F0918F026089718998
:1032500082899389C488D588E688F7886C197D09A6
:103260008E099F0928EE33E040E050E00E94F430E0
:10327000CA01B9010E94732E20E041E00E945F2A3A
:1032800080918A0290918B02DC01ED91FC91028089
:10329000F381E02DB8010995E0918C02F0918D0247
:1032A0008481882361F180918A0290918B02DC01F4
:1032B000ED91FC910680F781E02D61ED72E00995BA
:1032C000E0918E02F0918F020480F581E02DE85BA1
:1032D000FF4F608171818281938104EB12E022E0D3
:1032E00041E00E945F2A80918A0290918B02DC016A
:1032F000ED91FC910280F381E02DB8010995CC237A
:10330000F1F080918A0290918B02DC01ED91FC91A9
:103310000680F781E02D6EEC72E009958091B30292
:10332000882369F080918A0290918B02DC01ED91F3
:10333000FC910680F781E02D6BEC72E0099580919D
:103340008A0290918B02DC01ED91FC910084F18561
:10335000E02D69EC72E0DF91CF911F910F91FF900A
:10336000EF90DF90CF90099416968C91169781116B
:1033700008C0DF966D917D918D919C9104EB12E0D8
:1033800002CE8150990B880F991F880F991FA80FA3
:10339000B91F17966D917D918D919C911A97EECFE3
:1033A000DA011197AA0FBB1FAA0FBB1FAE0FBF1FD9
:1033B00017966D917D918D919C911A9711CE809168
:1033C0009002909191020E94B0166ACEEF92FF9205
:1033D0000F931F93CF93DF93EC017B018091B00299
:1033E000811128C0DB016D917D918D919C910E948E
:1033F000752E04EB12E020E041E00E945F2A81E09C
:103400008093B00280918A0290918B02DC01ED9151
:10341000FC910680F781E02DBE01099580918A021A
:1034200090918B02DC01ED91FC910480F581E02DFF
:10343000B801099580918A0290918B020E94CD0972
:10344000EC01009779F065E771E00E944F31892B1C
:10345000D1F067E771E0CE010E944F31892B51F422
:103460001092B00280E0DF91CF911F910F91FF90F9
:10347000EF90089569E771E0CE010E944F31892BEA
:1034800021F40E94BC1681E0EECFCE010E94812A79
:10349000F701608371838283938380918A02909184
:1034A0008B02DC01ED91FC910480F581E02DBE01E1
:1034B0000995E9CFEF92FF920F931F93CF93DF937C
:1034C000EC017B018091B002811126C0DB016D917E
:1034D0007D918D919C9104EB12E022E041E00E94ED
:1034E0005F2A81E08093B00280918A0290918B02E2
:1034F000DC01ED91FC910680F781E02DBE0109957C
:1035000080918A0290918B02DC01ED91FC91048004
:10351000F581E02DB801099580918A0290918B0286
:103520000E94CD09EC01009779F065E771E00E94F7
:103530004F31892BD1F067E771E0CE010E944F3106
:10354000892B51F41092B00280E0DF91CF911F914E
:103550000F91FF90EF90089569E771E0CE010E940E
:103560004F31892B21F40E94BC1681E0EECFCE01B1
:103570000E947D2AF7016083718382839383809107
:103580008A0290918B02DC01ED91FC910480F5811F
:10359000E02DBE010995E9CFFB0101900020E9F77C
:1035A0003197AF01461B570BDC01ED91FC91028076
:1035B000F381E02D0994CF93DF93EC016C966115B4
:1035C000710519F0CE010E94CC1A6BE771E0CE01B3
:1035D000DF91CF910C94CC1ACF93DF93EC016C96D2
:1035E000CE010E94D5046BE771E0CE01DF91CF914F
:1035F0000C94CC1A6115710519F04C960C94CC1AE8
:1036000008950F931F93CF93DF93EC01288D398D8D
:103610004A8D5B8D1FAA1EAA1DAA1CAA1BAA1AAA44
:1036200060E079E08DE390E00E941631F901C90174
:1036300003972430310510F481E090E099AF88AF12
:1036400068A5663108F054C0C90196958795843104
:10365000910508F4BDC043979BAB8AABC9010597A0
:10366000369710F481E090E09DAB8CABC901880FD8
:10367000991F280F391F36952795369527952D3098
:10368000310508F4A8C02C5031093FAB2EAB909106
:10369000680084E0683048F021E06E3008F420E0F3
:1036A00081E001C0880F2A95EAF7892B8093680092
:1036B00098A52DE630E0983050F02BE630E09E30B3
:1036C00030F02CE630E0963110F030E020E038ABFE
:1036D0002FA7292F30E0983008F080C081E001C08A
:1036E000880F9A95EAF789AB88AD99AD0197F1F704
:1036F0008EA99FA9892B21F19E01245E3F4FE09165
:10370000E201F091E3012E173F07D1F0309739F035
:10371000A389B4899C918589809589238C938AADEE
:103720008E7F8AAF1092E0011092E1013093E301A5
:103730002093E201EFA5F8A9808199A9892B8083C4
:1037400068EE73E080E090E00E941403EBADFCAD06
:1037500086A5882309F44FC08E010E5F1F4F80A5F8
:103760008F9387A18F938EE791E09F938F931F9301
:103770000F930E945831E881F9810280F381E02D96
:10378000B801CE0109956CED75E080E090E00E94F3
:103790001403E881F9810280F381E02D69E871E08A
:1037A000CE0109956CED75E080E090E00E94140375
:1037B0008BAD9CADFC0116A60F900F900F900F9053
:1037C0000F900F90DF91CF911F910F910C943711B3
:1037D00081E090E041CF21E030E057CF9E3040F4CF
:1037E0002850310981E001C0880F2A95EAF77BCF84
:1037F0002E503109F7CFDF91CF911F910F9108958E
:10380000CF93DF93EC018EE2DE011D928A95E9F7FA
:10381000FE01FD96CE0183559D4F27E2DF01322F39
:103820001D923A95E9F7B796E817F907B9F7FE013F
:10383000BE9688E0DF011D928A95E9F7CE010E94CD
:103840004811CE01DF91CF910C943711CF93DF93C4
:10385000CAE8D2E08A819B810E94001C88819981FC
:10386000DC01ED91FC910084F185E02D68EF72E0C0
:10387000DF91CF910994DF92EF92FF920F931F9304
:10388000CF93DF93EB0189017A01E20EF31E0E154F
:103890001F05A1F0C11584E0D80780F4F999FECF87
:1038A000F801D1908F01CE010E94952FD81621F0FA
:1038B0006D2DCE010E949D2F2196E9CFDF91CF91F2
:1038C0001F910F91FF90EF90DF900895EF92FF927C
:1038D0000F931F93CF93DF938A01020F131FE90108
:1038E0007B01E21AF30AC017D10769F0C7018C0FF8
:1038F0009D1F811524E0920730F4F999FECF0E94B4
:10390000952F8993F0CFDF91CF911F910F91FF9069
:10391000EF9008951F920F920FB60F9211242F93DC
:103920003F938F939F93AF93BF938091E5019091C5
:10393000E601A091E701B091E8013091E40123E0B4
:10394000230F2D3758F50196A11DB11D2093E401D9
:103950008093E5019093E601A093E701B093E8011D
:103960008091E9019091EA01A091EB01B091EC0105
:103970000196A11DB11D8093E9019093EA01A093E6
:10398000EB01B093EC01BF91AF919F918F913F916B
:103990002F910F900FBE0F901F90189526E8230FC0
:1039A0000296A11DB11DD2CF1F920F920FB60F929A
:1039B00011242F933F934F935F936F937F938F9334
:1039C0009F93AF93BF93EF93FF938DEE91E00E948F
:1039D000D103FF91EF91BF91AF919F918F917F9113
:1039E0006F915F914F913F912F910F900FBE0F906C
:1039F0001F9018951F920F920FB60F9211242F93BC
:103A00008F939F93EF93FF93E091FD01F091FE015F
:103A10008081E0910302F091040282FD1BC090813D
:103A2000809106028F5F8F7320910702821741F009
:103A3000E0910602F0E0E351FE4F958F809306027D
:103A4000FF91EF919F918F912F910F900FBE0F904B
:103A50001F9018958081F4CF1F920F920FB60F928E
:103A600011242F933F934F935F936F937F938F9383
:103A70009F93AF93BF93EF93FF93E091E201F09197
:103A8000E301309749F0A685B7858585968D91FF2E
:103A900014C09C918923A1F4FF91EF91BF91AF9144
:103AA0009F918F917F916F915F914F913F912F9156
:103AB0000F900FBE0F901F9018959C91892361F76E
:103AC000A389B4899C918589809589238C93868963
:103AD00097890197F1F7608D718DA685B78555851A
:103AE00038E020E0CB010197F1F7822F90E0959527
:103AF0008795282F4C91452309F02068315091F784
:103B0000868D81FD20958091E00190E001968F7374
:103B100099273091E101381799F0A091E001B0E0C8
:103B2000A056BE4F2C938093E001828D938D019718
:103B3000F1F7A389B4898C919589892B8C93ACCFAB
:103B4000868D8160868FF1CFCF92DF92EF92FF92C8
:103B50000F931F93CF93DF931092F0011092EF0118
:103B600028EEC22E23E0D22EE12CF12CC092F101DE
:103B7000D092F201E092F301F092F40187E191E03A
:103B80009093EE018093ED0185EC90E09093FA0123
:103B90008093F90184EC90E09093FC018093FB0109
:103BA00080EC90E09093FE018093FD0181EC90E029
:103BB000909300028093FF0182EC90E090930202C8
:103BC0008093010286EC90E09093040280930302BC
:103BD0001092060210920702109208021092090237
:103BE000C3E5D4E080E091E090938A048093890457
:103BF00088E19CE9A4E0B0E080938B0490938C046E
:103C0000A0938D04B0938E0411E010938F0460E0B4
:103C10008CE00E944B02E6E3F3E0E491E09345047C
:103C2000E2E2F3E0E491F0E0EE0FFF1FE45FFC4F0F
:103C300085919491909347048093460485E494E0A1
:103C40000E944505109235041092360410922E04FD
:103C500089E080933104109332041093330410935D
:103C6000340410922F0410924404109243048FEFF6
:103C7000809341041092420485E494E090933804C8
:103C8000809337048CE08093EB03D093ED03C093D3
:103C9000EC031092EF038FE691E09093EA03809398
:103CA000E9038EE294E090932D0480932C0410930A
:103CB000EE031092DB031092DC0388E08093DA03BA
:103CC00083E691E09093D9038093D803D093DE03E9
:103CD000C093DD0380E091EEA0E0B0E08093B303F9
:103CE0009093B403A093B503B093B60383E591E03A
:103CF00090939C0380939B031092BA031092B90394
:103D0000C092BB03D092BC03E092BD03F092BE030D
:103D100081E491E09093B8038093B7031092CE03AF
:103D20001092CD031092D0031092CF031092D203C1
:103D30001092D1031092D4031092D3036091D50353
:103D40006E7F6D7F6093D5036695617061278BE010
:103D50000E941D0261E08BE00E944B02E5E3F3E06C
:103D6000E491E093C703E1E2F3E0E491F0E0EE0FC9
:103D7000FF1FEE5FFC4F859194919093C903809350
:103D8000C80360E08AE00E944B028091D50381FD68
:103D900004C061E08AE00E941D028AE08093C303B0
:103DA000E4E3F3E0E491E093C403E0E2F3E0E491C0
:103DB000F0E0EE0FFF1FE45FFC4F8591949190932C
:103DC000C6038093C503C3E5D4E0D093D703C09363
:103DD000D6038FE080939803D0939A03C0939903FE
:103DE00089E080939703D0936C03C0936B03109288
:103DF0006E0310926D0310926F031092700385E3AF
:103E000091E090936A038093690310927503109276
:103E10007603109277031092780381E793E00E9473
:103E2000480A109288031092890310928A03109214
:103E30008B0384E893E00E94480AD0931803C09350
:103E4000170310921A031092190310921B03109279
:103E50001C0389E291E090931603809315038DE58E
:103E600093E090933C0380933B0389E593E0909328
:103E70003A038093390381E693E090933E03809365
:103E80003D031092570310924F031092500310926B
:103E900051031092520380E090E0AFE7B3E48093C7
:103EA000530390935403A0935503B093560384E6B1
:103EB00090E0A0E0B0E080934B0390934C03A0937C
:103EC0004D03B0934E03109236031092350381E0F8
:103ED00090E09093380380933703809358038EEAE1
:103EE00097E4A1E8B1E480931D0390931E03A0938F
:103EF0001F03B093200349E25CE56FE07EE340934B
:103F000021035093220360932303709324034DEC09
:103F10005CE060EF73E440932503509326036093C5
:103F20002703709328038093290390932A03A09377
:103F30002B03B0932C0382E490E6A5E6BCE38093C8
:103F40002D0390932E03A0932F03B093300380E0B2
:103F500098E0A6E9B5E48093310390933203A093EF
:103F60003303B09334030E94470300914B03109135
:103F70004C0320914D0330914E03601B710B820B5B
:103F8000930B60933F03709340038093410390939E
:103F90004203109265031092660310926703109219
:103FA0006803D093CF02C093CE0288E993E0909348
:103FB000D1028093D00285E193E09093D302809365
:103FC000D20289E693E09093D5028093D40299EED1
:103FD000E92E93E0F92EF092D702E092D60208ED96
:103FE00013E01093D9020093D8021092DE021092CF
:103FF000DF021092E0021092E1028AED92E00E944C
:10400000480A80EA9FE0A0E0B0E08093F10290933C
:10401000F202A093F302B093F4028DEE92E00E94BC
:10402000480A1092010310920203109204031092A6
:1040300006031092050310920703109208031092D2
:10404000090310920A0310920B0310920C031092B2
:104050000D0310920E0310920F0310921003109292
:104060001103109212038BE993E090938B028093DB
:104070008A02D0938D02C0938C028EEC92E09093D2
:104080008F0280938E0287E993E090939102809350
:104090009002F0929302E0929202109395020093A4
:1040A000940280E395E7A0E0B0E080939A029093B9
:1040B0009B02A0939C02B0939D0286E992E00E942D
:1040C000480A1092A9021092AA021092AB02109212
:1040D000AC021092AD021092AF021092AE0210929A
:1040E000B0021092B10282E08093CC0283E0809310
:1040F000CD02DF91CF911F910F91FF90EF90DF9054
:10410000CF900895CF93DF9300D000D0CDB7DEB726
:10411000789484B5826084BD84B5816084BD85B5A2
:10412000826085BD85B5816085BD80916E008160AE
:1041300080936E0010928100809181008260809354
:104140008100809181008160809381008091800056
:104150008160809380008091B10084608093B10081
:104160008091B00081608093B00080917A0084607B
:1041700080937A0080917A00826080937A008091A7
:104180007A00816080937A0080917A0080688093C1
:104190007A001092C10061E083E00E944B0261E06E
:1041A00083E00E941D028091890490918A04DC01C1
:1041B000ED91FC910190F081E02D23E534E04EE299
:1041C00050E070E060E009950EE210E08091890413
:1041D00090918A0498012E593B4FDC01ED91FC919E
:1041E0000190F081E02D47E250E0B8010995095DAA
:1041F0001F4F0E39B2E01B0749F740918B045091D5
:104200008C0460918D0470918E0480915304909180
:104210005404A0915504B0915604481759076A07F1
:104220007B0709F483C183E594E00E94001C809120
:104230008B0490918C04A0918D04B0918E04809396
:10424000530490935404A0935504B093560481E012
:10425000809381048DE494E090937B0480937A04AE
:1042600080E090E0A0EEB0E4809376049093770431
:10427000A0937804B093790483E08093690488E183
:1042800080936D0410926C0410926B048FE790EC95
:10429000AEEBB0E080936E0490936F04A093700433
:1042A000B09371048EE790ECAEEBB0E080937204B3
:1042B00090937304A0937404B093750487E0809383
:1042C0006A048EEA97E4A1E8BFE3809359049093CF
:1042D0005A04A0935B04B0935C048AE080937F044B
:1042E000109280041092570488E893E1909362043E
:1042F0008093610484E690E0909364048093630467
:1043000080E090E0A0E2B1E48093650490936604BD
:10431000A0936704B0936804EBE9F4E08BE097E0C6
:10432000C12CD12CA0E8EA2EAFE3FA2E0DEC1CEC48
:104330002CEC3DEB4DEC5CEC6CEC7DE310861186D7
:10434000128613861486158616861786C08AD18A29
:10435000E28AF38A00831183228333834483558363
:1043600066837783B7968E179F0741F783E594E0BE
:104370000E94481183E594E00E94371181E0809308
:104380008F048BE993E00E94011B61E08091DA03C6
:104390000E944B02E091DD03F091DE0386898330B9
:1043A000C8F090E09C01235031090497079710F062
:1043B00021E030E0215031098AE0829FB001839FE3
:1043C000700D112463547E4F4AE050E08FED93E06E
:1043D0000E94A82A89EE93E00E94AB1460E08091CD
:1043E00098030E944B0261E0809197030E944B0268
:1043F00085E193E00E94B91489E693E00E94760E6D
:104400008EEC92E00E94AC0C8EEC92E00E94610770
:1044100062E08091CC020E944B020E94BC16DD2417
:10442000D39467E2F62E70E0A72E70E0B72EEE244C
:10443000E394E3E05E2E54E0C52E85E0782E92E012
:10444000692E28E0222E37E0332E46E0442E80915C
:10445000B102811146C0E092B102E0918C02F0916C
:104460008D0287A58823E9F117A61092B102E09288
:10447000B2025092A902E092AC028091AE029091F9
:10448000AF02F89ED001F99EB00D1124AE0FBF1FF0
:10449000DD968C918093B30260A971A97093AF02ED
:1044A0006093AE0280918E0290918F020E94CD0C9B
:1044B000E0918E02F0918F02A0918C02B0918D025A
:1044C000D2968D919D910D90BC91A02D148615864C
:1044D00016861786808F918FA28FB38F148E168EBB
:1044E000D58E8091CC020E94F401892B21F40E9488
:1044F000261C1092A9028091CD02E0918E02F091CB
:104500008F0296A960E0911101C061E00E941D0236
:104510008091A902823009F461C3E0F4882311F18B
:10452000813009F4FEC01092A9029FC010928F043E
:104530008091890490918A04DC01ED91FC910190B5
:10454000F081E02D21E834E048E050E06EE972E0CF
:10455000099517CF833009F40FC6853021F70E94E3
:10456000261CE1CF8091B00281115CC08091920243
:1045700090919302DC01ED91FC910480F581E02D96
:104580000995A0918A02B0918B02ED91FC9111974F
:104590000680F781E02D68EA72E0813011F065EA6B
:1045A00072E0CD01099504EB12E020E041E060E00B
:1045B00070E080E891E40E945F2A80918A029091E5
:1045C0008B02DC01ED91FC910280F381E02DB801BA
:1045D000099580918A0290918B02DC01ED91FC910A
:1045E0000680F781E02D63EA72E00995E0918C0284
:1045F000F0918D0260817181828193810E94732E7E
:1046000020E041E00E945F2A80918A0290918B0213
:10461000DC01ED91FC910480F581E02DB801099554
:10462000E092B00280918A0290918B02DC01ED91C0
:10463000FC910284F385E02D09958C0160E0809166
:104640008E0290918F020E94550A0136110509F4DD
:1046500005C324F502331105F1F19CF40033110573
:1046600009F4FCC20133110589F1A114B10409F464
:10467000EECE0E94BD03882309F4DFCE0E94000025
:10468000DACE0333110561F10433110571F780911E
:104690008E0290918F020E943407E7CF08361105F1
:1046A00049F14CF40336110589F104361105E9F698
:1046B0007092A902DACF00371105B9F0043711055D
:1046C000A1F61092B002C092A902CFCF1092B00210
:1046D000E092A902CACF1092B0026092A902C5CF9F
:1046E0001092B0025092A902C0CF61E080E00E9417
:1046F0004717BBCF8091940290919502DC01ED9118
:10470000FC910190F081E02D0995AFCF809194024A
:1047100090919502DC01ED91FC910280F381E02DF6
:10472000F3CFE091AA02EA3108F045C2F0E0E55685
:10473000FC4D0C943531B523D323D623F923FC2328
:10474000FF23022405240824272446246924DB258A
:10475000DB256D248A24A724C624E32406252925E5
:104760004C256B258A25A125BE25E0918C02F09170
:104770008D0284818983BE016F5F7F4F8EE992E055
:104780000E94D816882309F470CFE0918C02F09132
:104790008D02898184831092B0028091AA028F5F7A
:1047A0008093AA0262CF6092AA025FCFE0918C024E
:1047B000F0918D0286819781A085B18589839A8346
:1047C000AB83BC83BE016F5F7F4F8EE492E00E949B
:1047D0005A1A882309F449CFE0918C02F0918D0296
:1047E00089819A81AB81BC8186839783A087B187B9
:1047F000D2CFC092AA0239CF7092AA0236CF40928D
:10480000AA0233CF3092AA0230CF2092AA022DCF33
:10481000E0918C02F0918D0286859785B0E0A0E052
:1048200089839A83AB83BC83BE016F5F7F4F89E925
:1048300092E00E94E619882309F417CFE0918C02D8
:10484000F0918D0289819A8197878687A4CFE09124
:104850008C02F0918D0280899189B0E0A0E089837B
:104860009A83AB83BC83BE016F5F7F4F84E992E084
:104870000E94E619882309F4F8CEE0918C02F091A9
:104880008D0289819A81918B808B85CFE0918C02FA
:10489000F0918D0282899389A489B58989839A834D
:1048A000AB83BC83BE016F5F7F4F8FE892E00E94B5
:1048B0005A1A882309F4D9CEE0918C02F0918D0226
:1048C00089819A81AB81BC81828B938BA48BB58BC0
:1048D00062CFBEE0B093AA02C8CEE0918C02F09104
:1048E0008D02868990E0B0E0A0E089839A83AB8353
:1048F000BC83BE016F5F7F4F8AE892E00E94E61999
:10490000882309F4B2CEE0918C02F0918D02898166
:10491000868B41CFE0918C02F0918D02878990E0E7
:10492000B0E0A0E089839A83AB83BC83BE016F5F54
:104930007F4F85E892E00E94E619882309F495CE1E
:10494000E0918C02F0918D028981878B24CFE091D8
:104950008C02F0918D02808D918DB0E0A0E0898372
:104960009A83AB83BC83BE016F5F7F4F80E892E088
:104970000E94E619882309F478CEE0918C02F09128
:104980008D0289819A81918F808F05CFE0918C0271
:10499000F0918D02828D90E0B0E0A0E089839A834F
:1049A000AB83BC83BE016F5F7F4F8BE792E00E94B9
:1049B000E619882309F459CEE0918C02F0918D021A
:1049C0008981828FE8CEE0918C02F0918D02838DF7
:1049D000948DA58DB68D89839A83AB83BC83BE01EC
:1049E0006F5F7F4F86E792E00E94E619882309F403
:1049F0003CCEE0918C02F0918D0289819A81AB814D
:104A0000BC81838F948FA58FB68FC5CEE0918C0229
:104A1000F0918D02878D90A1A1A1B2A189839A8383
:104A2000AB83BC83BE016F5F7F4F81E792E00E9442
:104A3000E619882309F419CEE0918C02F0918D02D9
:104A400089819A81AB81BC81878F90A3A1A3B2A3F6
:104A5000A2CEE0918C02F0918D0283A194A1A5A138
:104A6000B6A189839A83AB83BC83BE016F5F7F4FFE
:104A70008CE692E00E945A1A882309F4F6CDE09160
:104A80008C02F0918D0289819A81AB81BC8183A3D4
:104A900094A3A5A3B6A37FCEE0918C02F0918D02E2
:104AA00087A190A5B0E0A0E089839A83AB83BC8303
:104AB000BE016F5F7F4F87E692E00E94E619882370
:104AC00009F4D3CDE0918C02F0918D0289819A8115
:104AD00090A787A360CEE0918C02F0918D0281A512
:104AE00092A5B0E0A0E089839A83AB83BC83BE012A
:104AF0006F5F7F4F82E692E00E94E619882309F4F7
:104B0000B4CDE0918C02F0918D0289819A8192A7B7
:104B100081A741CEE0918C02F0918D0283A589831B
:104B2000BE016F5F7F4F8DE592E00E94D81688230B
:104B300009F49BCDE0918C02F0918D02898183A7CD
:104B40002ACEE0918C02F0918D0285A590E0B0E034
:104B5000A0E089839A83AB83BC83BE016F5F7F4FE4
:104B600088E592E00E94E619882309F47ECDE09161
:104B70008C02F0918D02898185A70DCEE0918C0287
:104B8000F0918D0284A590E0B0E0A0E089839A8343
:104B9000AB83BC83BE016F5F7F4F83E592E00E94D1
:104BA000E619882309F461CDE0918C02F0918D0221
:104BB000898184A7F0CD80918C0290918D020E9412
:104BC00048111092A9021092AA0280918C02909131
:104BD0008D02FC01D6A60E94371147CDE091AB02B1
:104BE000EE3008F0BEC2F0E0E450FA4D8091AE0223
:104BF0009091AF020C9435310A26312661268A261F
:104C0000B326EC26252756278727B827E9271A2811
:104C10004F288028092E000CAA0BBB0B89839A838E
:104C2000AB83BC83BE016F5F7F4F89E492E00E943B
:104C3000E619882309F419CD89819A81AB81BC8159
:104C400080319105A105B1054CF49093AF0280939A
:104C5000AE028091AB028F5F8093AB021092B002E4
:104C600004CDE0918C02F0918D02F89E9001F99EA6
:104C7000300D1124E20FF31F87AD8983BE016F5FF2
:104C80007F4F84E492E00E94D816882309F4EDCC8B
:104C9000E0918C02F0918D022091AE023091AF0232
:104CA000F29EC001F39E900D1124E80FF91F898137
:104CB00087AF1092B0028091AB028F5F8093AB02FE
:104CC000D4CCE0918C02F0918D02F89E9001F99E77
:104CD000300D1124E20FF31F86AD8983BE016F5F93
:104CE0007F4F8FE392E00E94D816882309F4BDCC51
:104CF000E0918C02F0918D022091AE023091AF02D2
:104D0000F29EC001F39E900D1124E80FF91F8981D6
:104D100086AFCFCFE0918C02F0918D02F89E90018A
:104D2000F99E300D1124E20FF31F85AD8983BE017A
:104D30006F5F7F4F8AE392E00E94D816882309F4C0
:104D400094CCE0918C02F0918D022091AE023091D2
:104D5000AF02F29EC001F39E900D1124E80FF91FDF
:104D6000898185AFA6CFE0918C02F0918D02F89EEB
:104D70009001F99E300D1124E20FF31FE05CFF4F0C
:104D800080819181A281B38189839A83AB83BC8323
:104D9000BE016F5F7F4F88E092E00E945A1A88231D
:104DA00009F463CCE0918C02F0918D022091AE0267
:104DB0003091AF02F29EC001F39E900D1124E80FD6
:104DC000F91FE05CFF4F89819A81AB81BC818083B0
:104DD0009183A283B3836DCFE0918C02F0918D0219
:104DE000F89E9001F99E300D1124E20FF31FEC5B49
:104DF000FF4F80819181A281B38189839A83AB83A4
:104E0000BC83BE016F5F7F4F85E392E00E94E6198D
:104E1000882309F42ACCE0918C02F0918D02209134
:104E2000AE023091AF02F29EC001F39E900D1124AC
:104E3000E80FF91FEC5BFF4F89819A81AB81BC8140
:104E400080839183A283B38334CFE0918C02F0916D
:104E50008D02F89E9001F99E300D1124E20FF31F90
:104E6000E85BFF4F80819181A281B38189839A831E
:104E7000AB83BC83BE016F5F7F4F80E392E00E94F3
:104E80005A1A882309F4F1CBE0918C02F0918D023B
:104E90002091AE023091AF02F29EC001F39E900DC0
:104EA0001124E80FF91FE85BFF4F8DCFE0918C02D2
:104EB000F0918D02F89E9001F99E300D1124E20FC1
:104EC000F31FE45BFF4F80819181A281B3818983CD
:104ED0009A83AB83BC83BE016F5F7F4F8BE292E00E
:104EE0000E945A1A882309F4C0CBE0918C02F091F9
:104EF0008D022091AE023091AF02F29EC001F39E6E
:104F0000900D1124E80FF91FE45BFF4F5CCFE09197
:104F10008C02F0918D02F89E9001F99E300D1124C3
:104F2000E20FF31FE05BFF4F80819181A281B3818B
:104F300089839A83AB83BC83BE016F5F7F4F86E218
:104F400092E00E945A1A882309F48FCBE0918C02D8
:104F5000F0918D022091AE023091AF02F29EC0011D
:104F6000F39E900D1124E80FF91FE05BFF4F2BCF4C
:104F7000E0918C02F0918D02F89E9001F99E300D27
:104F80001124E20FF31FEC5AFF4F80819181A2811F
:104F9000B38189839A83AB83BC83BE016F5F7F4FEC
:104FA00081E292E00E945A1A882309F45ECBE091D4
:104FB0008C02F0918D022091AE023091AF02F29EF0
:104FC000C001F39E900D1124E80FF91FEC5AFF4F1A
:104FD000FACEE0918C02F0918D02F89E9001F99E3C
:104FE000300D1124E20FF31FE85AFF4F80819181A9
:104FF000A281B38189839A83AB83BC83BE016F5F37
:105000007F4F8CE192E00E945A1A882309F42DCB3D
:10501000E0918C02F0918D022091AE023091AF02AE
:10502000F29EC001F39E900D1124E80FF91FE85A7B
:10503000FF4FC9CEE0918C02F0918D02F89E900155
:10504000F99E300D1124E20FF31FE45AFF4F8081C7
:105050009181B0E0A0E089839A83AB83BC83BE01D9
:105060006F5F7F4F87E192E00E94E619882309F481
:10507000FCCAE0918C02F0918D022091AE02309139
:10508000AF02F29EC001F39E900D1124E80FF91FAC
:10509000E45AFF4F89819A81918380830ACEE091FF
:1050A0008C02F0918D02F89E9001F99E300D112432
:1050B000E20FF31FE25AFF4F80819181B0E0A0E040
:1050C00089839A83AB83BC83BE016F5F7F4F82E18C
:1050D00092E00E94E619882309F4C7CAE0918C0285
:1050E000F0918D022091AE023091AF02F29EC0018C
:1050F000F39E900D1124E80FF91FE25AFF4FCACF1B
:10510000E0918C02F0918D02F89E9001F99E300D95
:105110001124E20FF31FE05AFF4F80819181A28199
:10512000B38189839A83AB83BC83BE016F5F7F4F5A
:105130008DE092E00E945A1A882309F496CAE09101
:105140008C02F0918D022091AE023091AF02F29E5E
:10515000C001F39E900D1124E80FF91FE05AFF4F94
:1051600032CE80918C0290918D020E944811109253
:10517000A9021092AB0279CA8091AC02882389F00F
:10518000813009F44AC080918C0290918D02FC011B
:1051900023A5222319F017A60E9437110E94BC16DE
:1051A00064CA8091AE029091AF02092E000CAA0B46
:1051B000BB0B89839A83AB83BC83BE016F5F7F4F38
:1051C00083E092E00E94E619882309F44ECA89819F
:1051D0009A81AB81BC8180319105A105B1050CF0AC
:1051E0003DCDE0918C02F0918D029093AF028093BF
:1051F000AE02F89E9001F99E300D1124E20FF31FCC
:1052000085AD8093B3021092B1021092B2028091E8
:10521000AC028F5F8093AC0221CD80918A02909185
:105220008B02DC01ED91FC910284F385E02D099560
:105230008C018237910509F0DEC0E0918C02F0917B
:105240008D0217A6B4E1B093AC028091AE029091AA
:10525000AF02803191050CF00AC1E0918C02F0910F
:105260008D02F89E9001F99E300D1124E20FF31F7C
:1052700027AD222309F4F5C00136110509F0C3C09A
:1052800060E08091B0020E944717E0918C02F0919B
:105290008D0283A58823D1F186E992E00E94360A27
:1052A00086E992E00E94080A882381F186E992E06B
:1052B0000E94480AE0918C02F0918D02D7A6A0913D
:1052C0008E02B0918F02D4968C91D4978090AE02CA
:1052D0009090AF02882309F4A1C050964D915D9142
:1052E0006D917C91539754968D919D910D90BC91A9
:1052F000A02D481B590B6A0B7B0B42AB53AB64AB25
:1053000075AB91AA80AACF010E9437118091B20299
:1053100081112AC080918E0290918F02E092B20298
:105320006091AE027091AF020E94CD0CE0918C02B0
:10533000F0918D022091AE023091AF02F29EC00139
:10534000F39E900D1124E80FF91F85AD8093B302F1
:105350001092B0020E9447036093C8027093C90282
:105360008093CA029093CB0261E080918E0290916B
:105370008F020E94550A882309F477C9E0918C02B4
:10538000F0918D022091AE023091AF02F29EC001E9
:10539000F39E900D1124E80FF91F86AD8823F9F0D4
:1053A000E092B0028091B302882371F0E091900204
:1053B000F0919102908061E0892D0E944B0264EB94
:1053C00070E0892D0E94870207371105E9F5809169
:1053D0009002909191020E94B0161092B0028091BA
:1053E000AE029091AF0201969093AF028093AE020D
:1053F0001092B2023AC98091CC020E94F401892B2A
:1054000009F41BCF22CF0433110509F03ECF809160
:105410008E0290918F020E94340737CFF89CD00102
:10542000F99CB00D1124AE0FBF1FAC5BBF4F2D9187
:105430003D914D915C91A0E6BAEE0E94AB2F62AB1C
:1054400073AB84AB95AB5DCF0236110509F00DC986
:1054500080919002909191020E94B0161092B30236
:1054600004C901969093AF028093AE02FEC880916A
:10547000AC028F5F8093AC02F8C883E591E0909313
:105480009C0380939B0381E491E09093B803809305
:10549000B7038091E2019091E301875B934071F43F
:1054A000E091CA03F091CB0390818091CC03809569
:1054B000892380831092E3011092E2010895EF9214
:1054C0000F931F93CF93DF93E80134E047FD34E15E
:1054D000042E000C550B57FF03C0519541955109FF
:1054E000E32E022F242FAE010E94C62ACE01DF91A7
:1054F000CF911F910F91EF900895662777270C9415
:10550000252C1F93FC0199278827BC01E894119151
:105510001032E9F3193010F01E30C8F31B3251F08D
:105520001D3249F4689406C00E94B12A610F711DB2
:10553000811D911D119110531A30B0F33EF49095D6
:105540008095709561957F4F8F4F9F4F1F91089564
:10555000FB01DC0102C005900D9241505040D8F78C
:105560000895592F482F372F262F660F771F881F32
:10557000991F660F771F881F991F620F731F841F63
:10558000951F660F771F881F991F0895A9E0B0E047
:10559000ECECFAE20C94BC2F6A01F22EB02E102F24
:1055A000FBE3AF2EA01608F41BE31F5F012F27E0DB
:1055B000AE014F5F5F4F0E94752DBC018981982F0E
:1055C0009970913009F43FC09BE2E1FC04C09E2D2C
:1055D0009170E0FC3AC05E2D5071E82FE87083FFB7
:1055E00046C084E0911101C083E0EF2DE81B8F15C8
:1055F00008F0E0E0D6018E2F20E2552351F19923E7
:1056000029F0D6019C93C60101966C0196012D5F8D
:105610003F4FE2FE24C08EE4D6018C9391E41196B4
:105620009C93119712968C93D9018E2F90E2811141
:105630001BC0E20FF32FF11D10828EEF9FEF299612
:10564000ECE00C94D82F9DE2C6CF90E2C4CF2D930E
:1056500081508111FCCFCE0ED11CE0E0D0CF8EE680
:10566000D6018C9391E6DBCF9D938150E0CF482FFC
:10567000447082FF3DC084E0911101C083E08F152A
:1056800010F4EF2DE81BD6018E2F20E2552309F1EF
:10569000992329F0D6019C93C60101966C019601CD
:1056A0002D5F3F4FE2FE1BC089E4D6018C938EE450
:1056B00011968C93119786E412968C93D9018E2FB4
:1056C00090E2882309F4B5CF9D938150FACF2D93B2
:1056D00081508111FCCFCE0ED11CE0E0D9CF89E6FC
:1056E000D6018C938EE611968C93119786E6E4CFC3
:1056F0009B0177FF02C030E020E0A1E0B0E0911113
:1057000002C0B0E0A0E0F9013196AE0FBF1F8B2CB4
:10571000912CBB2009F461C05401EFEFAE1ABE0A10
:10572000AA0DBB1DFA161B0619F014F04F2D4A1BCB
:10573000511188C0E3FC59C07601A42FB0E2A11139
:105740004FC0C40ED11C992309F45BC040E0D601C0
:105750001196F60190836D01552309F448C0012F7D
:10576000060F9A81582F507184FF03C0913309F4BA
:10577000015010160CF047C0093008F008E0EEE2C6
:10578000FE2E5B01A01AB1088501919481949108C5
:105790002F3F320729F4D601FC92F60131966F01B2
:1057A0006217730794F1021713077CF5DB01A21B44
:1057B000B30BAA24A394B12CAC0EBD1EAA0DBB1D25
:1057C00011968C9121503109D60111962815390571
:1057D000F4F0F60180836D01DBCFB12CA12CA0CFBA
:1057E000F701B1937F01A150AACF9111B0CFD6019B
:1057F000942F50E302C05D9391509111FCCFC40EE1
:10580000D11C40E0ACCF01E0BACF80E3DBCF621720
:10581000730731F4963388F4953311F4552369F006
:10582000F6018083FD01842F90E2811108C0A40F4E
:10583000B11D1C9290E080E002CF81E3F1CF919303
:105840008150F3CF911183CF8ACFB0E0A0E0EBE29B
:10585000FCE20C94BC2F5C017B016115710519F011
:10586000DB018D939C9385010F5F1F4FF501D08164
:105870008D2F90E00E944D2E6C01892BB9F5DD3201
:10588000B9F50F5F1F4FD5011196DC91C1E05801AA
:10589000F1E0AF1AB10843E050E060E770E0C50105
:1058A0000E94562E892B69F5680182E0C80ED11C32
:1058B00045E050E06BE670E0C6010E94562E892B51
:1058C00021F4680197E0C90ED11CE114F10419F02C
:1058D000D701CD92DC9260E070E080E89FEFC111CB
:1058E000FFC060E070E080E89FE7FAC05801BBCFDE
:1058F000DB3229F485010E5F1F4FF501D181C0E035
:10590000C6CF43E050E068E670E0C5010E94562E25
:10591000892BE9F0F80110E000E020E030E0A90177
:105920005F01B0ED8B2E8D0E89E08815C8F19C2E9D
:10593000689491F88C2F8870C2FF16C0811102C044
:105940000F5F1F4F3196D501DC91C92DE9CFE114CE
:10595000F10429F00E5F1F4FF7011183008360E00F
:1059600070E080EC9FE7BCC0882311F00150110962
:10597000A5E0B0E00E94AB2F9B01AC01220F331FCA
:10598000441F551F280D311D411D511D283999E90E
:105990003907490799E15907A8F2C6609C2ED2CF72
:1059A000AEEF8A1206C0C3FD3CC09C2E689493F8EB
:1059B000C9CFDF7DD534A9F580818D3239F4C0613E
:1059C000DF011296818162E070E006C0DF018B3258
:1059D000C1F3119661E070E080535D01A61AB70A29
:1059E0008A30F8F4E0E8CE16ECE0DE065CF4B601AE
:1059F000660F771F660F771FC60ED71ECC0CDD1CF7
:105A0000C80ED11C5D01FFEFAF1ABF0A8C91805305
:105A10008A30A8F1C4FF03C0D194C194D1080C0D01
:105A20001D1DC1FF09C0E114F10431F081E0A81A85
:105A3000B108D701AD92BC92CA01B9010E94732E80
:105A4000C370C33009F490584B015C0120E030E092
:105A5000A9010E946E2E882309F440C0CFE9D0E04E
:105A600017FF05C0119501951109C7E8D0E06E0137
:105A7000B8E1CB1AD10880E2E82EF12C0FC0D50195
:105A8000B1CFFE0125913591459154910E191F0911
:105A9000C501B4010E94D42E4B015C01D501C401A3
:105AA0000E151F0574F72497F594E794CC16DD06C0
:105AB000A9F78A2F880F8B2F881F8F3F49F020E08E
:105AC00030E0A901C501B4010E946E2E811106C00B
:105AD00082E290E09093010780930007C501B40132
